:100000000C94A9010C94DA010C94DA010C94DA0135
:100010000C94DA010C94DA010C94DA010C94DA01F4
:100020000C94DA010C94DA010C94DA010C94DA01E4
:100030000C94DA010C94DA010C94DA010C94DA01D4
:100040000C94DA010C94DA010C94DA010C94DA01C4
:100050000C94DA010C94DA010C94DA010C94D907AF
:100060000C94DA010C9495050C94CB050C94DA01F0
:100070000C94DA010C94DA010C94DA010C94DA0194
:100080000C94DA010C94DA010C94DA010C94DA0184
:100090000C94DA010C94DA010C94DA010C94DA0174
:1000A0000C94DA010C94DA010C94DA010C94DA0164
:1000B0000C94DA010C94DA010C94DA010C94DA0154
:1000C0000C94DA010C94DA010C94DA010C94DA0144
:1000D0000C94DA010C94DA010C94DA010C94DA0134
:1000E0000C94DA010C94FF050C9413090C94070985
:1000F0000C9442090C94E6040C9426090C946004B8
:100100000C94F5050C9446090C942C060C94C6042A
:100110000C944C040C942A090C9401090C94410988
:100120000C942E090C940F090C946F040C941C0968
:100130000C9438090C9420090C9434090C94160979
:100140000C9432040C940B090C943E040C943C095E
:1001500000407A10F35A00A0724E18090010A5D47E
:10016000E80000E87648170000E40B54020000CADB
:100170009A3B000000E1F505000080969800000021
:1001800040420F000000A086010000001027000080
:100190000000E803000000006400000000000A0006
:1001A000000000000100000000002C76D888DC6709
:1001B0004F0823DFC1DFAE59E1B1B796E5E3E45361
:1001C000C63AE651997696E8E6C28426EB898C9B7E
:1001D00062ED407C6FFCEFBC9C9F40F2BAA56FA51E
:1001E000F490055A2AF75C936B6CF9676DC11BFCA0
:1001F000E0E40D47FEF520E6B500D0ED902E0300BB
:10020000943577050080841E080000204E0A000007
:1002100000C80C333333330F986E12831141EF8DC6
:100220002114893BE65516CFFEE6DB18D1844B3806
:100230001BF77C1D901DA4BBE424203284725E2237
:100240008100C9F124ECA1E53D2700000A0B020959
:100250000C0D0E0807030401000000000000000060
:10026000000000000000000000000000000000008E
:10027000000000000000121110000000000000004B
:10028000000000000000000000000000000000006E
:100290000102102020080810204010204080020198
:1002A000020108040201010204081020408080407D
:1002B000201008040201800402018040201008047C
:1002C000020108040201010204081020408001021A
:1002D00004081020408005050505070508080808E2
:1002E000020202020A0A08080404040401010101CE
:1002F00001010101030303030303030304070707C9
:100300000C0C0C0C0C0C0C0C02020202060606066D
:10031000060606060B0B0B0B0B0B0B0B000022004B
:10032000250028002B002E003100340002010000BF
:10033000050108010B0100002100240027002A000C
:100340002D003000330001010000040107010A0103
:10035000FF0511241FBECFEFD1E2DEBFCDBF00E00D
:100360000CBF12E0A0E0B2E0E6EAFFE100E00BBF64
:1003700002C007900D92A838B107D9F723E0A8E88A
:10038000B2E001C01D92A333B207E1F711E0C9EA60
:10039000D1E000E006C021970109802FFE010E94F4
:1003A000D709C83AD10780E00807A9F70E94CA0711
:1003B0000C94D10F0C94000026E040E855E260E078
:1003C00070E089E892E00E94330561E086E10E94D6
:1003D0004A0961E086E10E9486096AE070E080E0F7
:1003E00090E00E94480866E072E089E892E00E948E
:1003F0008C0668EE73E080E090E00E94480863E0BD
:1004000088E892E00E942F046BE372E0811102C041
:1004100067E472E089E892E00E948C0668EE73E07F
:1004200080E090E00C944808CF92DF92EF92FF9228
:10043000CF93DF93CDB7DEB76D970FB6F894DEBFDD
:100440000FBECDBF8EE390E09A8389838B81807E3F
:1004500080618B8384E18C831D821E821F8240E039
:1004600060EE8FE00E94F802CE0101960E94CD035B
:100470006AE070E080E090E00E944808CE010196BA
:100480000E946903882309F47FC089819A818F3F84
:10049000974009F079C06985862F90E0982F8827CA
:1004A0006885680F792F711D072E000C880B990B3A
:1004B0000E94530A27ED33EA40EB5EE30E94DF0A15
:1004C0002BED3FE049E450E40E94DF0A20E030E8F1
:1004D0004CEA54E40E94DF096B017C016B85862F96
:1004E00090E0982F88276A85680F792F711D072E55
:1004F000000C880B990B0E94530A27ED33EA40EB5E
:100500005EE30E94DF0A2BED3FE049E450E40E94E5
:10051000DF0A20E030E84CEA54E40E94DF09AB0136
:10052000BC0122E0CE010C960E94400722E0B701F8
:10053000A601CE0148960E94400766E572E0CE0112
:1005400042960E941207BE01685E7F4FCE0142961E
:100550000E949C0768E672E00E94AF07BE01645FDC
:100560007F4F0E949C07BC0189E892E00E947A06B6
:10057000CE0142960E94A306CE0148960E94A30691
:10058000CE010C960E94A3066D960FB6F894DEBFBE
:100590000FBECDBFDF91CF91FF90EF90DF90CF9056
:1005A00008958EBD0DB407FEFDCF8EB50895CF938F
:1005B000DF93D82FC62F289882E00E94D1028D2F7A
:1005C0000E94D1028C2F0E94D102289ADF91CF91F4
:1005D0000895CF93C82F289883E00E94D1028C2FD2
:1005E0000E94D1028FEF0E94D102289ACF910895E4
:1005F0001F93CF93DF93182FD62FC42F289885E011
:100600000E94D102812F0E94D1028D2F0E94D1021F
:100610008C2F0E94D102289ADF91CF911F910895CB
:1006200028980E94D1028FEF0E94D102289A089543
:10063000CF93C82F289A209A29982A982B98219AE4
:10064000229A23986C98749A81E58CBD1DBC2898D9
:1006500080EC0E94D102289A87EC90E00197F1F794
:1006600000C00000289882E00E94D10288E20E9427
:10067000D10282E00E94D10280E90E94D1028C2F37
:100680000E94D10283E00E94D102289A8AE20E944D
:10069000E9028C1741F0809102018062809302018F
:1006A00080E0CF91089560E08CE00E94D70260E086
:1006B0008DE00E94D70260E680E60E94D70260E6E5
:1006C00080E70E94D70260E08FE00E94D70281E0BD
:1006D000E8CFEF92FF920F931F93CF93DF938C019C
:1006E00080EB0E941003C82F282F2074E22E86FD75
:1006F00005C084E9C7FD03C080E040C080E92898B8
:100700000E94D1028FEF0E94D102E8E08E9FC001CB
:100710001124F801918380838FEF0E94D102282F4A
:10072000229526952770F80180819181822B9183F3
:1007300080838FEF0E94D1028FEF0E94D1028FEF52
:100740000E94D1028F70F82E982F990FF8018281A4
:10075000817E892BC3FB80F982830D5F1F4FD0E020
:10076000DF1113C0289A40E061E0E11001C062E0AF
:100770008CE20E94F8028C2F87708F5FDF91CF91FF
:100780001F910F91FF90EF9008958FEF0E94D1027B
:10079000F80181938F01DF5FE3CFFF920F931F93E7
:1007A000CF93DF938C0180EA0E94100382FF07C081
:1007B00084FF44C0C4E086FF03C0C0E038C0C0E08E
:1007C00028988C2F80640E94D102F8018081918149
:1007D00023E0969587952A95E1F70E94D102F801CA
:1007E00080818295880F807E0E94D10280E00E94E5
:1007F000D10280E00E94D102F8018281D82FD695E3
:10080000DF7080FF1DC08D2F80640E94D102289A66
:1008100087EC90E00197F1F700C000002898C11123
:1008200001C0C1E08C2F80680E94D102289A8C2FD1
:10083000DF91CF911F910F91FF900895C2E0C0CF3B
:100840008D2F0E94D1020D5F1F4FF12CFD16F9F282
:10085000F80181918F010E94D102F394F7CF862F86
:100860000C941803FC01918D228D892F90E0805CFF
:100870009F4F821B91098F7399270895FC01918DD9
:10088000828D981731F0828DE80FF11D858D90E0F3
:1008900008958FEF9FEF0895FC01918D828D981739
:1008A00061F0A28DAE0FBF2FB11D5D968C91928D20
:1008B0009F5F9F73928F90E008958FEF9FEF089551
:1008C000FC01538D448D252F30E0842F90E0821B56
:1008D000930B541710F0CF9608950197089585EF64
:1008E00095E0892B49F080E090E0892B29F00E9467
:1008F000F50581110E94000080E090E0892B49F00D
:1009000080E090E0892B29F00E94000081110E9474
:10091000000080E090E0892B49F080E090E0892B96
:1009200029F00E94000081110E94000080E090E008
:10093000892B49F080E090E0892B29F00E9400008B
:1009400081110C9400000895FC01A48DA80FB92F0B
:10095000B11DA35ABF4F2C91848D90E001968F73E7
:100960009927848FA689B7892C93A089B1898C9106
:10097000837080648C93938D848D981306C0028855
:10098000F389E02D80818F7D80830895CF93DF935D
:10099000EC01888D8823B9F0AA89BB89E889F98997
:1009A0008C9185FD03C0808186FD0DC00FB607FCCC
:1009B000F7CF8C9185FFF2CF808185FFEDCFCE01FF
:1009C0000E94A404E9CFDF91CF910895EF92FF92A6
:1009D0000F931F93CF93DF93EC0181E0888F9B8D62
:1009E0008C8D98131AC0E889F989808185FF15C01C
:1009F0009FB7F894EE89FF896083E889F98980813F
:100A00008370806480839FBF81E090E0DF91CF910D
:100A10001F910F91FF90EF900895F62E0B8D10E02F
:100A20000F5F1F4F0F731127E02E8C8D8E110CC09E
:100A30000FB607FCFACFE889F989808185FFF5CFE9
:100A4000CE010E94A404F1CFEB8DEC0FFD2FF11D20
:100A5000E35AFF4FF0829FB7F8940B8FEA89FB8926
:100A600080818062CFCFCF92DF92EF92FF921F936F
:100A7000CF93DF93EC016A017B01122FE889F9899A
:100A800082E08083C11481EED806E104F104A1F074
:100A900060E079E08DE390E0A70196010E94B5093E
:100AA00021503109410951095695479537952795A8
:100AB000211580E1380798F0E889F989108260E80B
:100AC00074E88EE190E0A70196010E94B5092150DB
:100AD0003109410951095695479537952795EC8578
:100AE000FD853083EE85FF852083188EEC89FD8996
:100AF0001083EA89FB89808180618083EA89FB8990
:100B0000808188608083EA89FB8980818068808316
:100B1000EA89FB8980818F7D8083DF91CF911F914E
:100B2000FF90EF90DF90CF9008951F920F920FB635
:100B30000F9211240BB60F922F938F939F93EF93E5
:100B4000FF93E0919902F0919A028081E0919F02D7
:100B5000F091A00282FD1DC090818091A2028F5F62
:100B60008F732091A302821741F0E091A202F0E07E
:100B7000E757FD4F958F8093A202FF91EF919F91D0
:100B80008F912F910F900BBE0F900FBE0F901F9063
:100B900018958081F2CF1F920F920FB60F921124F9
:100BA0000BB60F922F933F934F935F936F937F9367
:100BB0008F939F93AF93BF93EF93FF9389E892E056
:100BC0000E94A404FF91EF91BF91AF919F918F91EB
:100BD0007F916F915F914F913F912F910F900BBE3D
:100BE0000F900FBE0F901F90189589E892E00E9419
:100BF000320421E0892B09F420E0822F0895E9E8EE
:100C0000F2E01382128288EE93E0A0E0B0E08483E9
:100C10009583A683B78387E792E09183808385ECF1
:100C200090E09587848784EC90E09787868780ECB6
:100C300090E0918B808B81EC90E0938B828B82ECA7
:100C400090E0958B848B86EC90E0978B868B118E51
:100C5000128E138E148E0895AF92BF92CF92DF92B0
:100C6000EF92FF920F931F93CF93DF936C017B0161
:100C70008B01040F151FEB015E01AE18BF08C017F2
:100C8000D10759F06991D601ED91FC910190F08165
:100C9000E02DC6011995892B79F7C501DF91CF9118
:100CA0001F910F91FF90EF90DF90CF90BF90AF908A
:100CB0000895FB0101900020E9F73197AF01461B31
:100CC000570BDC01ED91FC910280F381E02D19942A
:100CD000DB0114964D915C9115976D917C91DC012F
:100CE000ED91FC910280F381E02D199465E872E0AA
:100CF0000C9459060F931F93CF93DF93EC010E943E
:100D000068068C01CE010E947606800F911FDF914C
:100D1000CF911F910F9108950F931F93CF93DF935E
:100D20008C01D0E0C0E06115710519F00E945906F0
:100D3000EC01C8010E9476068C0F9D1FDF91CF91B8
:100D40001F910F910895FC01808191810C94060CF4
:100D5000CF93DF93EC0188819981009711F00E9475
:100D6000060C198218821D821C821B821A82DF9156
:100D7000CF9108950F931F93CF93DF93EC018B01D5
:100D80006F5F7F4F888199810E948F0C009751F08F
:100D9000998388831B830A8381E0DF91CF911F9120
:100DA0000F91089580E0F9CFCF93DF93EC01888114
:100DB0009981892B49F08A819B818617970720F0BA
:100DC00081E0DF91CF910895CE010E94BA06882379
:100DD000C1F38C819D81892B99F7E881F98110827B
:100DE000EFCFEF92FF920F931F93CF93DF93EC011E
:100DF0007B018A01BA010E94D40681110BC0CE0189
:100E00000E94A806CE01DF91CF911F910F91FF9014
:100E1000EF9008951D830C83B701888199810E940A
:100E2000790DF0CFFC01118210821382128215829B
:100E300014826115710551F0FB0101900020E9F762
:100E40003197AF01461B570B0C94F1060895FB0137
:100E500001900020E9F73197AF01461B570B0C9426
:100E6000F106CF93DF93EC016115710531F00E941B
:100E70002707CE01DF91CF9108950E94A806F9CFF0
:100E8000EF92FF920F931F93CF93DF93CDB7DEB70F
:100E9000A1970FB6F894DEBF0FBECDBF7C01CB018A
:100EA000BA01F70111821082138212821582148214
:100EB00042E0420F8E010F5F1F4F0E944C0BBC019E
:100EC000C7010E943107A1960FB6F894DEBF0FBE8E
:100ED000CDBFDF91CF911F910F91FF90EF900895BB
:100EE000EF92FF920F931F93CF93DF9361157105DC
:100EF00041F480E0DF91CF911F910F91FF90EF902F
:100F0000089541155105B1F07B01EC010C811D8163
:100F1000040F151FB8010E94D406882351F32881BD
:100F200039818C819D81B701820F931F0E94790DB9
:100F30001D830C8381E0DECFCF93DF93EC01FB01B7
:100F400044815581608171810E947007811103C0C5
:100F5000CE010E94A806CE01DF91CF910895CF93D4
:100F6000DF93EC016115710539F4CE010E94A806EA
:100F7000CE01DF91CF910895FB0101900020E9F7A8
:100F80003197AF01461B570B0E947007882369F306
:100F9000EFCF08950E9481080E94C9070E94DC01DA
:100FA000CFE6D4E00E9414022097E1F30E946F0480
:100FB000F9CF1F920F920FB60F9211242F933F93E8
:100FC0008F939F93AF93BF938091270390912803B2
:100FD000A0912903B0912A033091260323E0230F27
:100FE0002D3758F50196A11DB11D2093260380933E
:100FF000270390932803A0932903B0932A03809199
:101000002B0390912C03A0912D03B0912E030196F8
:10101000A11DB11D80932B0390932C03A0932D034E
:10102000B0932E03BF91AF919F918F913F912F91DC
:101030000F900FBE0F901F90189526E8230F029671
:10104000A11DB11DD2CF3FB7F89480912B03909191
:101050002C03A0912D03B0912E0326B5A89B05C0AB
:101060002F3F19F00196A11DB11D3FBFBA2FA92F27
:10107000982F8827BC01CD01620F711D811D911D24
:1010800042E0660F771F881F991F4A95D1F7089590
:101090008F929F92AF92BF92CF92DF92EF92FF9288
:1010A0006B017C010E9423084B015C01C114D10437
:1010B000E104F104E9F00E94B4090E9423086819D0
:1010C00079098A099B09683E73408105910570F38F
:1010D00021E0C21AD108E108F10888EE880E83E009
:1010E000981EA11CB11CC114D104E104F10429F71C
:1010F000FF90EF90DF90CF90BF90AF909F908F9038
:101100000895789484B5826084BD84B5816084BD7F
:1011100085B5826085BD85B5816085BDEEE6F0E070
:10112000808181608083E1E8F0E0108280818260CC
:101130008083808181608083E0E8F0E0808181604D
:101140008083E1EBF0E0808184608083E0EBF0E07D
:10115000808181608083E1E9F0E08081826080832A
:10116000808181608083E0E9F0E08081816080831C
:10117000E1EAF0E080818260808380818160808309
:10118000E0EAF0E0808181608083E1E2F1E080814B
:1011900082608083808181608083E0E2F1E08081F1
:1011A00081608083EAE7F0E08081846080838081D1
:1011B0008260808380818160808380818068808379
:1011C0001092C10008958150823108F05AC0E82F72
:1011D000F0E08827E151F74F8F4F0C94D7090F09A2
:1011E0001309010907090B09410916091C092009FE
:1011F00026092A092E093409380941093C094209FE
:101200004609809180008F778093800008958091B7
:1012100080008F7DF9CF80918000877FF5CF84B5E6
:101220008F7784BD089584B58F7DFBCF8091B0000A
:101230008F778093B00008958091B0008F7DF9CFB3
:10124000809190008F778093900008958091900016
:101250008F7DF9CF80919000877FF5CF8091A0009E
:101260008F778093A00008958091A0008F7DF9CFA3
:101270008091A000877FF5CF809120018F778093A8
:1012800020010895809120018F7DF9CF8091200168
:10129000877FF5CFCF93DF9390E0FC01E057FD4FC0
:1012A00024918A529D4FFC0184918823C9F090E0DB
:1012B000880F991FFC01EA5CFC4FA591B491FC01D9
:1012C000E45EFC4FC591D49161110DC09FB7F894B5
:1012D0008C91209582238C938881282328839FBF1B
:1012E000DF91CF910895623051F49FB7F8943C910B
:1012F000822F809583238C93E8812E2BEFCF8FB79D
:10130000F894EC912E2B2C938FBFEACF1F93CF93A1
:10131000DF93282F30E0F901E65BFD4F8491F9015E
:10132000E057FD4FD491F901EA52FD4FC491CC230F
:10133000A9F0162F81110E94E308EC2FF0E0EE0FC8
:10134000FF1FE45EFC4FA591B4918FB7F894EC9128
:10135000111108C0D095DE23DC938FBFDF91CF91B0
:101360001F910895DE2BF8CF0895A1E21A2EAA1B33
:10137000BB1BFD010DC0AA1FBB1FEE1FFF1FA21745
:10138000B307E407F50720F0A21BB30BE40BF50B42
:10139000661F771F881F991F1A9469F760957095CB
:1013A000809590959B01AC01BD01CF010895EE0F92
:1013B000FF1F881F8BBF0790F691E02D19940E94A4
:1013C000F3090C94A50A0E949E0A58F00E94970AFD
:1013D00040F029F45F3F29F00C948E0A51110C94CF
:1013E000D90A0C94940A0E94B60A68F39923B1F3BF
:1013F000552391F3951B550BBB27AA27621773073B
:10140000840738F09F5F5F4F220F331F441FAA1FCE
:10141000A9F335D00E2E3AF0E0E832D0915050408A
:10142000E695001CCAF72BD0FE2F29D0660F771F38
:10143000881FBB1F261737074807AB07B0E809F01E
:10144000BB0B802DBF01FF2793585F4F3AF09E3FA3
:10145000510578F00C948E0A0C94D90A5F3FE4F39E
:10146000983ED4F3869577956795B795F7959F5FE6
:10147000C9F7880F911D9695879597F90895E1E032
:10148000660F771F881FBB1F621773078407BA0791
:1014900020F0621B730B840BBA0BEE1F88F7E095EC
:1014A0000895E89409C097FB3EF490958095709557
:1014B00061957F4F8F4F9F4F9923A9F0F92F96E9A0
:1014C000BB279395F695879577956795B795F11115
:1014D000F8CFFAF4BB0F11F460FF1BC06F5F7F4FB2
:1014E0008F4F9F4F16C0882311F096E911C07723C4
:1014F00021F09EE8872F762F05C0662371F096E8CD
:10150000862F70E060E02AF09A95660F771F881F9B
:10151000DAF7880F9695879597F9089597F99F6759
:1015200080E870E060E008959FEF80EC089500246B
:101530000A941616170618060906089500240A9438
:1015400012161306140605060895092E0394000CBE
:1015500011F4882352F0BB0F40F4BF2B11F460FF4D
:1015600004C06F5F7F4F8F4F9F4F089557FD905876
:10157000440F551F59F05F3F71F04795880F97FB57
:10158000991F61F09F3F79F0879508951216130611
:101590001406551FF2CF4695F1DF08C01616170640
:1015A0001806991FF1CF8695710561050894089575
:1015B000E894BB2766277727CB0197F908950E9407
:1015C000F20A0C94A50A0E94970A38F00E949E0A1B
:1015D00020F0952311F00C948E0A0C94940A112497
:1015E0000C94D90A0E94B60A70F3959FC1F3950F27
:1015F00050E0551F629FF001729FBB27F00DB11D97
:10160000639FAA27F00DB11DAA1F649F6627B00D26
:10161000A11D661F829F2227B00DA11D621F739F0F
:10162000B00DA11D621F839FA00D611D221F749F1D
:101630003327A00D611D231F849F600D211D822F64
:10164000762F6A2F11249F5750409AF0F1F088238B
:101650004AF0EE0FFF1FBB1F661F771F881F9150B8
:101660005040A9F79E3F510580F00C948E0A0C94CF
:10167000D90A5F3FE4F3983ED4F386957795679552
:10168000B795F795E7959F5FC1F7FE2B880F911DE2
:101690009695879597F90895EF920F931F93CF939F
:1016A000DF93E80134E047FD34E1042E000C550BD4
:1016B00057FF03C0519541955109E32E022F242F66
:1016C000AE010E94800DCE01DF91CF911F910F914D
:1016D000EF9008950F931F93CF93DF93823091057E
:1016E00010F482E090E0E0913103F091320330E0B9
:1016F00020E0B0E0A0E0309799F42115310509F41D
:101700004AC0281B390B24303105D8F58A819B81CA
:101710006115710589F1FB0193838283FE0111C07C
:10172000408151810281138148175907E0F0481721
:10173000590799F4109761F012960C93129713962B
:101740001C933296CF01DF91CF911F910F91089595
:101750000093310310933203F4CF2115310551F07A
:101760004217530738F0A901DB019A01BD01DF01DF
:10177000F801C1CFEF01F9CF909332038093310389
:10178000CDCFFE01E20FF31F8193919322503109D7
:1017900039832883D7CF20912F0330913003232B17
:1017A00041F42091020230910302309330032093E0
:1017B0002F0320910002309101022115310541F4DF
:1017C0002DB73EB74091040250910502241B350B02
:1017D000E0912F03F0913003E217F307A0F42E1BE2
:1017E0003F0B2817390778F0AC014E5F5F4F241785
:1017F000350748F04E0F5F1F5093300340932F037F
:10180000819391939FCFF0E0E0E09CCFCF93DF9363
:101810000097E9F0FC01329713821282A091310304
:10182000B0913203ED0130E020E01097A1F4208167
:101830003181820F931F20912F033091300328179D
:10184000390709F061C0F0933003E0932F03DF9173
:10185000CF910895EA01CE17DF07E8F54A815B8151
:101860009E0141155105B1F7E901FB83EA834991D6
:101870005991C40FD51FEC17FD0761F48081918148
:101880000296840F951FE901998388838281938151
:101890009B838A83F0E0E0E012968D919C911397F0
:1018A0000097B9F52D913C911197CD010296820FC9
:1018B000931F20912F03309130032817390739F6F1
:1018C000309751F51092320310923103B0933003E8
:1018D000A0932F03BCCFD383C28340815181840F57
:1018E000951FC817D90761F44E5F5F4F88819981B2
:1018F000480F591F518340838A819B819383828340
:101900002115310509F0B0CFF0933203E093310394
:101910009ECFFD01DC01C0CF13821282D7CF4F9240
:101920005F926F927F928F929F92AF92BF92CF926F
:10193000DF92EF92FF920F931F93CF93DF938C016F
:10194000009799F4CB01DF91CF911F910F91FF90F8
:10195000EF90DF90CF90BF90AF909F908F907F904F
:101960006F905F904F900C946A0BFC01E60FF71F8D
:101970009C0122503109E217F30708F4AEC0D901E7
:10198000CD91DC911197C617D70720F1C530D1054D
:1019900078F0CE0104978617970750F0C61BD70B37
:1019A0002297C193D1936D937C93CF010E94060C33
:1019B000C801DF91CF911F910F91FF90EF90DF90C1
:1019C000CF90BF90AF909F908F907F906F905F90DF
:1019D0004F9008955B01AC1ABD0A4C018C0E9D1E00
:1019E000A0913103B0913203512C412CF12CE12C08
:1019F000109731F580912F03909130038815990548
:101A000009F05CC04616570608F058C080910002E5
:101A100090910102009741F48DB79EB74091040266
:101A200050910502841B950BE817F90708F055C083
:101A3000F0933003E0932F03F90171836083B8CFF3
:101A40008D919C91119712966C90129713967C90A1
:101A50001397A815B90559F56C0142E0C40ED11CC5
:101A6000CA14DB0420F1AC014A195B09DA011296B1
:101A7000159780F06282738251834083D9016D9300
:101A80007C93E114F10471F0D7011396FC93EE936B
:101A900012978ECF22968C0F9D1FF9019183808320
:101AA000F301EFCFF0933203E093310381CF481677
:101AB000590608F42C017D01D3019ACFCB010E9475
:101AC0006A0B7C01009749F0AE01B8010E94700DCD
:101AD000C8010E94060C87016BCF10E000E068CFC0
:101AE000FB01DC0102C001900D9241505040D8F73B
:101AF0000895FB01DC0101900D920020E1F70895AB
:101B00008F929F92AF92BF92CF92DF92EF92FF920D
:101B10000F931F93CF93DF9300D000D000D0CDB7A9
:101B2000DEB76A01F22EB02E102FFBE3AF2EA01607
:101B300008F41BE31F5F012F27E0AE014F5F5F4FEB
:101B40000E94F90EBC018981982F9970913009F497
:101B50004EC09BE2E1FC04C09E2D9170E0FC49C0A8
:101B60005E2D5071E82FE87083FF55C084E091111D
:101B700001C083E0EF2DE81B8F1508F0E0E0D601EF
:101B80008E2F20E25523C9F1992329F0D6019C9389
:101B9000C60101966C0196012D5F3F4FE2FE33C0F6
:101BA0008EE4D6018C9391E411969C931197129632
:101BB0008C93D9018E2F90E281112AC0E20FF32F6E
:101BC000F11D10828EEF9FEF29960FB6F894DEBFBD
:101BD0000FBECDBFDF91CF911F910F91FF90EF907E
:101BE000DF90CF90BF90AF909F908F9008959DE22F
:101BF000B7CF90E2B5CF2D9381508111FCCFCE0E9F
:101C0000D11CE0E0C1CF8EE6D6018C9391E6CCCF1B
:101C10009D938150D1CF482F447082FF3DC084E016
:101C2000911101C083E08F1510F4EF2DE81BD60150
:101C30008E2F20E2552309F1992329F0D6019C9398
:101C4000C60101966C0196012D5F3F4FE2FE1BC05D
:101C500089E4D6018C938EE411968C93119786E4D7
:101C600012968C93D9018E2F90E2882309F4A6CF87
:101C70009D938150FACF2D9381508111FCCFCE0ED0
:101C8000D11CE0E0D9CF89E6D6018C938EE611967F
:101C90008C93119786E6E4CF9B0177FF02C030E07A
:101CA00020E0A1E0B0E0911102C0B0E0A0E0F901B5
:101CB0003196AE0FBF1F8B2C912CBB2009F461C055
:101CC0005401EFEFAE1ABE0AAA0DBB1DFA161B0691
:101CD00019F014F04F2D4A1B511188C0E3FC59C074
:101CE0007601A42FB0E2A1114FC0C40ED11C9923DC
:101CF00009F45BC040E0D6011196F60190836D01B6
:101D0000552309F448C0012F060F9A81582F5071AE
:101D100084FF03C0913309F4015010160CF047C042
:101D2000093008F008E0EEE2FE2E5B01A01AB108CF
:101D300085019194819491082F3F320729F4D601AF
:101D4000FC92F60131966F016217730794F1021746
:101D500013077CF5DB01A21BB30BAA24A394B12CBF
:101D6000AC0EBD1EAA0DBB1D11968C9121503109E0
:101D7000D601119628153905F4F0F60180836D011E
:101D8000DBCFB12CA12CA0CFF701B1937F01A150E3
:101D9000AACF9111B0CFD601942F50E302C05D932A
:101DA00091509111FCCFC40ED11C40E0ACCF01E0AA
:101DB000BACF80E3DBCF6217730731F4963388F430
:101DC000953311F4552369F0F6018083FD01842FCA
:101DD00090E2811108C0A40FB11D1C9290E080E038
:101DE000F3CE81E3F1CF91938150F3CF911183CF63
:101DF0008ACF283008F027E03327DA01990F311D08
:101E000087FD916000966105710539F432602E5F9F
:101E10003D9330E32A95E1F708959F3F30F08038F5
:101E20007105610509F03C5F3C5F3D93913008F01E
:101E30008068911DDF93CF931F930F93FF92EF92D2
:101E4000192F987F9695E92F96959695E90FFF277C
:101E5000E655FE4F99273327EE24FF24A701E7011B
:101E600005900894079428F4360FE71EF81E491FC2
:101E7000511D660F771F881F991F0694A1F70590C3
:101E8000079428F4E70EF81E491F561FC11D770F4F
:101E9000881F991F661F0694A1F70590079428F4E0
:101EA000F80E491F561FC71FD11D880F991F661FA7
:101EB000771F0694A1F70590079420F4490F561F49
:101EC000C71FD81F990F661F771F881F0694A9F791
:101ED00084911095177041F0D695C7955795479501
:101EE000F794E7941A95C1F7E0E5F1E0689415904E
:101EF000159135916591959105907FE27395E11863
:101F0000F10A430B560BC90BD009C0F7E10CF11EC7
:101F1000431F561FC91FD01D7EF4703311F48A95DC
:101F2000E6CFE894015030F0080F0AF400270217BA
:101F300008F4202F2395022F7A3328F079E37D933C
:101F40002A95E9F710C07D932A9589F6069497950E
:101F50006795379517951794E118F10A430B560BBF
:101F6000C90BD00998F023957E9173957A3308F0C8
:101F700070E37C932013B8F77E9170617D9330F00D
:101F8000839571E37D9370E32A95E1F71124EF9037
:101F9000FF900F911F91CF91DF91992787FD909529
:061FA0000895F894FFCF44
:101FA60000003303800043414E2057726974652058
:101FB6002D2054657374696E67207472616E736D3B
:101FC600697373696F6E206F662043414E204275B8
:101FD60073206D657373616765730043414E2049D5
:101FE6006E6974206F6B0043616E277420696E6999
:101FF600742043414E00456E636F6465723A20203B
:10200600204C6566743A20003B202052696768744C
:102016003A200000000000E6042C066004C60432E4
:08202600044C043E040D0A0005
:00000001FF
