:100000000C94A9010C94DA010C94DA010C94DA0135
:100010000C94DA010C94DA010C94DA010C94DA01F4
:100020000C94DA010C94DA010C94DA010C94DA01E4
:100030000C94DA010C94DA010C94DA010C94DA01D4
:100040000C94DA010C94DA010C94DA010C94DA01C4
:100050000C94DA010C94DA010C94DA010C944E0938
:100060000C94DA010C940A070C9440070C94DA0102
:100070000C94DA010C94DA010C94DA010C94DA0194
:100080000C94DA010C94DA010C94DA010C94DA0184
:100090000C94DA010C94DA010C94DA010C94DA0174
:1000A0000C94DA010C94DA010C94DA010C94DA0164
:1000B0000C94DA010C94DA010C94DA010C94DA0154
:1000C0000C94DA010C94DA010C94DA010C94DA0144
:1000D0000C94DA010C94DA010C94DA010C94DA0134
:1000E0000C94DA010C94D5050C945B060C948C0AE4
:1000F0000C94A70A0C94E4050C94C70A0C94900A7B
:100100000C94C30A0C946A070C9474070C94AB0A01
:100110000C94A10A0C94A1070C943B060C94C10505
:100120000C94B3050C94C20A0C94B90A0C94AF0A4F
:100130000C94BD0A0C949D0A0C94B50A0C94970A71
:100140000C94940A0C94A7050C94820A0C94880AC7
:1001500000407A10F35A00A0724E18090010A5D47E
:10016000E80000E87648170000E40B54020000CADB
:100170009A3B000000E1F505000080969800000021
:1001800040420F000000A086010000001027000080
:100190000000E803000000006400000000000A0006
:1001A000000000000100000000002C76D888DC6709
:1001B0004F0823DFC1DFAE59E1B1B796E5E3E45361
:1001C000C63AE651997696E8E6C28426EB898C9B7E
:1001D00062ED407C6FFCEFBC9C9F40F2BAA56FA51E
:1001E000F490055A2AF75C936B6CF9676DC11BFCA0
:1001F000E0E40D47FEF520E6B500D0ED902E0300BB
:10020000943577050080841E080000204E0A000007
:1002100000C80C333333330F986E12831141EF8DC6
:100220002114893BE65516CFFEE6DB18D1844B3806
:100230001BF77C1D901DA4BBE424203284725E2237
:100240008100C9F124ECA1E53D2700000A0B020959
:100250000C0D0E0807030401000000000000000060
:10026000000000000000000000000000000000008E
:10027000000000000000121110000000000000004B
:10028000000000000000000000000000000000006E
:100290000102102020080810204010204080020198
:1002A000020108040201010204081020408080407D
:1002B000201008040201800402018040201008047C
:1002C000020108040201010204081020408001021A
:1002D00004081020408005050505070508080808E2
:1002E000020202020A0A08080404040401010101CE
:1002F00001010101030303030303030304070707C9
:100300000C0C0C0C0C0C0C0C02020202060606066D
:10031000060606060B0B0B0B0B0B0B0B000022004B
:10032000250028002B002E003100340002010000BF
:10033000050108010B0100002100240027002A000C
:100340002D003000330001010000040107010A0103
:10035000740711241FBECFEFD1E2DEBFCDBF00E096
:100360000CBF12E0A0E0B2E0EEEEF3E200E00BBF63
:1003700002C007900D92AA37B107D9F723E0AAE788
:10038000B2E001C01D92A333B207E1F711E0C9EA60
:10039000D1E000E006C021970109802FFE010E94F4
:1003A000580BC83AD10780E00807A9F70E943F0917
:1003B0000C94F5110C9400004F925F926F927F9213
:1003C0008F929F92AF92BF92CF92DF92EF92FF9265
:1003D0000F931F93CF93DF93CDB7DEB76D970FB613
:1003E000F894DEBF0FBECDBFEB8AFC8A0D8B1E8B4F
:1003F0002F8B388F498F5A8F6B8F7C8F8D8FCE01CB
:1004000043960E94DE04882389F08B899C89813879
:10041000910519F58E8990E090937F0280937E027A
:100420008F8990E090937D0280937C026D960FB649
:10043000F894DEBF0FBECDBFDF91CF911F910F911A
:10044000FF90EF90DF90CF90BF90AF909F908F90F4
:100450007F906F905F904F9008958F3F974031F756
:100460006B8D862F90E0982F88276A8D680F792FE3
:10047000711D072E000C880B990B0E94770C27ED3D
:1004800033EA4AEA51E40E94CD0B6B017C016D8D89
:10049000862F90E0982F88276C8D680F792F711D1B
:1004A000072E000C880B990B0E94770C27ED33EA7E
:1004B0004AEA51E40E94CD0B4B015C010E9498096D
:1004C00070937B0260937A022BED3FE049EC50E49D
:1004D000C701B6010E94030D20E030E040E752E47E
:1004E0000E94CD0B27ED33EA40E35EE30E94030D4B
:1004F0006B017C012BED3FE049EC50E4C501B401F8
:100500000E94030D20E030E040E752E40E94CD0B52
:1005100027ED33EA40E35EE30E94030D4B015C01EB
:1005200022E0BC01A401CE0101960E94B50822E0A0
:10053000B701A601CE010D960E94B50868E072E0F1
:10054000CE0107960E948708BE01635F7F4FCE01F0
:1005500007960E9411096DE072E00E942409BE0115
:100560006F5F7F4F0E941109BC0189E892E00E94F1
:10057000EF07CE0107960E941808CE010D960E9443
:100580001808CE0101960E941808809106029091E9
:1005900007028F3F980709F46EC060917A0270914C
:1005A0007B02681B790B072E000C880B990B0E94AD
:1005B000770C2B013C01A7019601C501B4010E94F3
:1005C000600B28EB3EE145E05FE30E94CD0BA30109
:1005D00092010E94030D20E030E04AE754E40E94BB
:1005E000CD0B20E030E044E353E40E94030D2BEDFB
:1005F0003FE049E450E40E94CD0B9B01AC016091C7
:1006000080027091810280918202909183020E9407
:10061000610B6093800270938102809382029093B9
:100620008302A5019401C701B6010E94610B20E07D
:1006300030E040E05FE30E94030DA30192010E94BD
:10064000030D20E030E04AE754E40E94CD0B9B010B
:10065000AC01609184027091850280918602909134
:1006600087020E94610B60938402709385028093DD
:100670008602909387020E94980970930702609304
:100680000602D4CEAF92BF92CF92DF92EF92FF924A
:100690000F931F93CF93DF9300D000D000D01F9211
:1006A0001F92CDB7DEB7588769877A878B878EE32D
:1006B00090E09A838983007E00610B83CC82DD8287
:1006C000AE82BF8240E060EE8FE00E946D04CE01FA
:1006D00001960E9442056AE070E080E090E00E948E
:1006E000C9092B960FB6F894DEBF0FBECDBFDF91C0
:1006F000CF911F910F91FF90EF90DF90CF90BF901F
:10070000AF900895CF92DF92EF92FF92CF93DF9355
:10071000C0917C02D0917D028AEF90E08C1B9D0BF2
:10072000C837D1050CF5662777276C1B7D0B072E84
:10073000000C880B990B0E94770C6B017C01BE01A9
:10074000DD0F880B990B0E94770C20E030E040E031
:100750005FE30E94030D9B01AC01C701B6010E943B
:10076000610B0E943F0CCB01DF91CF91FF90EF9086
:10077000DF90CF90089520917E0230917F0228373C
:1007800031052CF488279927821B930B08958AEF53
:1007900090E0821B930B089526E040E855E260E06C
:1007A00070E089E892E00E94A80661E086E10E947C
:1007B000CB0A61E086E10E94070B6AE070E080E00E
:1007C00090E00E94C90965E172E089E892E00E9428
:1007D000010868EE73E080E090E00E94C90963E0E0
:1007E00088E892E00E94A4056AE472E0811102C0E8
:1007F00066E572E089E892E00E94010868EE73E025
:1008000080E090E00C94C909AF92BF92CF92DF9242
:10081000EF92FF920F931F93CF93DF9300D000D0FE
:1008200000D01F921F92CDB7DEB7E980FA800B810E
:100830001C812D813E814F81588569857A858B8504
:100840000E94DC010E9482036C010E94BB035C01D8
:10085000E980FA800B811C812D813E814F81588572
:1008600069857A858B850E9442032B960FB6F89492
:10087000DEBF0FBECDBFDF91CF911F910F91FF90D3
:10088000EF90DF90CF90BF90AF9008958EBD0DB4E4
:1008900007FEFDCF8EB50895CF93DF93D82FC62FD7
:1008A000289882E00E9446048D2F0E9446048C2FD7
:1008B0000E944604289ADF91CF910895CF93C82FC4
:1008C000289883E00E9446048C2F0E9446048FEFF4
:1008D0000E944604289ACF9108951F93CF93DF93E7
:1008E000182FD62FC42F289885E00E944604812F08
:1008F0000E9446048D2F0E9446048C2F0E944604BD
:10090000289ADF91CF911F91089528980E9446045C
:100910008FEF0E944604289A0895CF93C82F289AF3
:10092000209A29982A982B98219A229A23986C9891
:10093000749A81E58CBD1DBC289880EC0E94460409
:10094000289A87EC90E00197F1F700C00000289802
:1009500082E00E94460488E20E94460482E00E94EF
:10096000460480E90E9446048C2F0E94460483E0DE
:100970000E944604289A8AE20E945E048C1741F085
:100980008091020180628093020180E0CF910895FE
:1009900060E08CE00E944C0460E08DE00E944C041A
:1009A00060E680E60E944C0460E680E70E944C040A
:1009B00060E08FE00E944C0481E0E8CFEF92FF926C
:1009C0000F931F93CF93DF938C0180EB0E948504DC
:1009D000C82F282F2074E22E86FD05C084E9C7FDAC
:1009E00003C080E040C080E928980E9446048FEF51
:1009F0000E944604E8E08E9FC0011124F801918313
:100A000080838FEF0E944604282F22952695277019
:100A1000F80180819181822B918380838FEF0E94E6
:100A200046048FEF0E9446048FEF0E9446048F70A9
:100A3000F82E982F990FF8018281817E892BC3FBB4
:100A400080F982830D5F1F4FD0E0DF1113C0289A19
:100A500040E061E0E11001C062E08CE20E946D04C0
:100A60008C2F87708F5FDF91CF911F910F91FF9037
:100A7000EF9008958FEF0E944604F80181938F0153
:100A8000DF5FE3CFFF920F931F93CF93DF938C0130
:100A900080EA0E94850482FF07C084FF44C0C4E04E
:100AA00086FF03C0C0E038C0C0E028988C2F806467
:100AB0000E944604F8018081918123E096958795F4
:100AC0002A95E1F70E944604F80180818295880FFB
:100AD000807E0E94460480E00E94460480E00E94DE
:100AE0004604F8018281D82FD695DF7080FF1DC0A3
:100AF0008D2F80640E944604289A87EC90E001972D
:100B0000F1F700C000002898C11101C0C1E08C2F8E
:100B100080680E944604289A8C2FDF91CF911F9104
:100B20000F91FF900895C2E0C0CF8D2F0E94460420
:100B30000D5F1F4FF12CFD16F9F2F80181918F0125
:100B40000E944604F394F7CF862F0C948D04FC0189
:100B5000918D228D892F90E0805C9F4F821B91099F
:100B60008F7399270895FC01918D828D981731F02C
:100B7000828DE80FF11D858D90E008958FEF9FEF36
:100B80000895FC01918D828D981761F0A28DAE0FB2
:100B9000BF2FB11D5D968C91928D9F5F9F73928F39
:100BA00090E008958FEF9FEF0895FC01538D448DE1
:100BB000252F30E0842F90E0821B930B541710F008
:100BC000CF960895019708958AE697E0892B49F01A
:100BD00080E090E0892B29F00E946A0781110E9431
:100BE000000080E090E0892B49F080E090E0892BC4
:100BF00029F00E94000081110E94000080E090E036
:100C0000892B49F080E090E0892B29F00E940000B8
:100C100081110E94000080E090E0892B49F080E083
:100C200090E0892B29F00E94000081110C940000B3
:100C30000895FC01A48DA80FB92FB11DA35ABF4F71
:100C40002C91848D90E001968F739927848FA689CB
:100C5000B7892C93A089B1898C91837080648C931F
:100C6000938D848D981306C00288F389E02D8081CE
:100C70008F7D80830895CF93DF93EC01888D882347
:100C8000B9F0AA89BB89E889F9898C9185FD03C0EF
:100C9000808186FD0DC00FB607FCF7CF8C9185FFD4
:100CA000F2CF808185FFEDCFCE010E941906E9CFFA
:100CB000DF91CF910895EF92FF920F931F93CF93FF
:100CC000DF93EC0181E0888F9B8D8C8D98131AC087
:100CD000E889F989808185FF15C09FB7F894EE896E
:100CE000FF896083E889F9898081837080648083CB
:100CF0009FBF81E090E0DF91CF911F910F91FF9016
:100D0000EF900895F62E0B8D10E00F5F1F4F0F73BD
:100D10001127E02E8C8D8E110CC00FB607FCFACF78
:100D2000E889F989808185FFF5CFCE010E941906F7
:100D3000F1CFEB8DEC0FFD2FF11DE35AFF4FF08249
:100D40009FB7F8940B8FEA89FB8980818062CFCFAF
:100D5000CF92DF92EF92FF921F93CF93DF93EC013C
:100D60006A017B01122FE889F98982E08083C1142E
:100D700081EED806E104F104A1F060E079E08DE3B2
:100D800090E0A70196010E94360B215031094109DC
:100D900051095695479537952795211580E13807D4
:100DA00098F0E889F989108260E874E88EE190E0B3
:100DB000A70196010E94360B2150310941095109C2
:100DC0005695479537952795EC85FD853083EE85BB
:100DD000FF852083188EEC89FD891083EA89FB89C1
:100DE000808180618083EA89FB898081886080833B
:100DF000EA89FB89808180688083EA89FB89808118
:100E00008F7D8083DF91CF911F91FF90EF90DF90D6
:100E1000CF9008951F920F920FB60F9211240BB628
:100E20000F922F938F939F93EF93FF93E0919902EB
:100E3000F0919A028081E0919F02F091A00282FDE0
:100E40001DC090818091A2028F5F8F732091A302B9
:100E5000821741F0E091A202F0E0E757FD4F958F35
:100E60008093A202FF91EF919F918F912F910F900C
:100E70000BBE0F900FBE0F901F9018958081F2CF80
:100E80001F920F920FB60F9211240BB60F922F9351
:100E90003F934F935F936F937F938F939F93AF9302
:100EA000BF93EF93FF9389E892E00E941906FF91A8
:100EB000EF91BF91AF919F918F917F916F915F91D2
:100EC0004F913F912F910F900BBE0F900FBE0F903F
:100ED0001F90189589E892E00E94A70521E0892BD0
:100EE00009F420E0822F0895E9E8F2E013821282EB
:100EF00088EE93E0A0E0B0E084839583A683B78377
:100F000089E692E09183808385EC90E095878487E1
:100F100084EC90E09787868780EC90E0918B808BC3
:100F200081EC90E0938B828B82EC90E0958B848BAC
:100F300086EC90E0978B868B118E128E138E148E1A
:100F40000895AF92BF92CF92DF92EF92FF920F93EC
:100F50001F93CF93DF936C017B018B01040F151F4F
:100F6000EB015E01AE18BF08C017D10759F06991B7
:100F7000D601ED91FC910190F081E02DC60119950B
:100F8000892B79F7C501DF91CF911F910F91FF90C8
:100F9000EF90DF90CF90BF90AF900895FB0101904C
:100FA0000020E9F73197AF01461B570BDC01ED91AB
:100FB000FC910280F381E02D1994DB0114964D9190
:100FC0005C9115976D917C91DC01ED91FC91028013
:100FD000F381E02D199467E772E00C94CE070F932C
:100FE0001F93CF93DF93EC010E94DD078C01CE01AC
:100FF0000E94EB07800F911FDF91CF911F910F91FE
:1010000008950F931F93CF93DF938C01D0E0C0E03E
:101010006115710519F00E94CE07EC01C8010E940C
:10102000EB078C0F9D1FDF91CF911F910F910895BA
:10103000FC01808191810C942A0ECF93DF93EC0107
:1010400088819981009711F00E942A0E19821882D6
:101050001D821C821B821A82DF91CF9108950F930B
:101060001F93CF93DF93EC018B016F5F7F4F8881DC
:1010700099810E94B30E009751F0998388831B8356
:101080000A8381E0DF91CF911F910F91089580E055
:10109000F9CFCF93DF93EC0188819981892B49F0B7
:1010A0008A819B818617970720F081E0DF91CF919D
:1010B0000895CE010E942F088823C1F38C819D8161
:1010C000892B99F7E881F9811082EFCFEF92FF9297
:1010D0000F931F93CF93DF93EC017B018A01BA0139
:1010E0000E94490881110BC0CE010E941D08CE014B
:1010F000DF91CF911F910F91FF90EF9008951D8385
:101100000C83B701888199810E949D0FF0CFFC016B
:101110001182108213821282158214826115710568
:1011200051F0FB0101900020E9F73197AF01461B18
:10113000570B0C9466080895FB0101900020E9F715
:101140003197AF01461B570B0C946608CF93DF9382
:10115000EC016115710531F00E949C08CE01DF9110
:10116000CF9108950E941D08F9CFEF92FF920F933F
:101170001F93CF93DF93CDB7DEB7A1970FB6F89447
:10118000DEBF0FBECDBF7C01CB01BA01F7011182DA
:101190001082138212821582148242E0420F8E0165
:1011A0000F5F1F4F0E94700DBC01C7010E94A6086F
:1011B000A1960FB6F894DEBF0FBECDBFDF91CF91E1
:1011C0001F910F91FF90EF900895EF92FF920F9370
:1011D0001F93CF93DF936115710541F480E0DF9198
:1011E000CF911F910F91FF90EF90089541155105F8
:1011F000B1F07B01EC010C811D81040F151FB801BA
:101200000E944908882351F3288139818C819D816E
:10121000B701820F931F0E949D0F1D830C8381E0F5
:10122000DECFCF93DF93EC01FB01448155816081D8
:1012300071810E94E508811103C0CE010E941D0842
:10124000CE01DF91CF910895CF93DF93EC0161152B
:10125000710539F4CE010E941D08CE01DF91CF91B6
:101260000895FB0101900020E9F73197AF01461B7B
:10127000570B0E94E508882369F3EFCF08950E9479
:10128000020A0E943E090E94CC03C4EED5E00E94EF
:1012900004042097E1F30E94E405F9CF1F920F9216
:1012A0000FB60F9211242F933F938F939F93AF9379
:1012B000BF938091270390912803A0912903B091B7
:1012C0002A033091260323E0230F2D3758F501968A
:1012D000A11DB11D2093260380932703909328031B
:1012E000A0932903B0932A0380912B0390912C03A0
:1012F000A0912D03B0912E030196A11DB11D8093E5
:101300002B0390932C03A0932D03B0932E03BF9136
:10131000AF919F918F913F912F910F900FBE0F90A2
:101320001F90189526E8230F0296A11DB11DD2CF5C
:101330002FB7F894609127037091280380912903B7
:1013400090912A032FBF08953FB7F89480912B0303
:1013500090912C03A0912D03B0912E0326B5A89B4C
:1013600005C02F3F19F00196A11DB11D3FBFBA2F37
:10137000A92F982F8827BC01CD01620F711D811DF7
:10138000911D42E0660F771F881F991F4A95D1F77C
:1013900008958F929F92AF92BF92CF92DF92EF9279
:1013A000FF926B017C010E94A4094B015C01C114F6
:1013B000D104E104F104E9F00E94350B0E94A40974
:1013C000681979098A099B09683E7340810591056E
:1013D00070F321E0C21AD108E108F10888EE880E06
:1013E00083E0981EA11CB11CC114D104E104F104D6
:1013F00029F7FF90EF90DF90CF90BF90AF909F9034
:101400008F900895789484B5826084BD84B581609E
:1014100084BD85B5826085BD85B5816085BDEEE6FC
:10142000F0E0808181608083E1E8F0E010828081DB
:1014300082608083808181608083E0E8F0E0808149
:1014400081608083E1EBF0E0808184608083E0EB69
:10145000F0E0808181608083E1E9F0E0808182605A
:101460008083808181608083E0E9F0E08081816019
:101470008083E1EAF0E08081826080838081816006
:101480008083E0EAF0E0808181608083E1E2F1E046
:10149000808182608083808181608083E0E2F1E0EE
:1014A000808181608083EAE7F0E0808184608083CE
:1014B0008081826080838081816080838081806878
:1014C00080831092C10008958150823108F05AC083
:1014D000E82FF0E08827E059F54F8F4F0C94580B18
:1014E000900A940A820A880A8C0AC20A970A9D0AFC
:1014F000A10AA70AAB0AAF0AB50AB90AC20ABD0A0D
:10150000C30AC70A809180008F7780938000089576
:10151000809180008F7DF9CF80918000877FF5CF0B
:1015200084B58F7784BD089584B58F7DFBCF80917E
:10153000B0008F778093B00008958091B0008F7DC8
:10154000F9CF809190008F778093900008958091DB
:1015500090008F7DF9CF80919000877FF5CF8091AB
:10156000A0008F778093A00008958091A0008F7DC8
:10157000F9CF8091A000877FF5CF809120018F77F0
:10158000809320010895809120018F7DF9CF809173
:101590002001877FF5CFCF93DF9390E0FC01E057E8
:1015A000FD4F24918A529D4FFC0184918823C9F0FC
:1015B00090E0880F991FFC01EA5CFC4FA591B49163
:1015C000FC01E45EFC4FC591D49161110DC09FB741
:1015D000F8948C91209582238C93888128232883EA
:1015E0009FBFDF91CF910895623051F49FB7F89477
:1015F0003C91822F809583238C93E8812E2BEFCF13
:101600008FB7F894EC912E2B2C938FBFEACF1F93BA
:10161000CF93DF93282F30E0F901E65BFD4F8491F3
:10162000F901E057FD4FD491F901EA52FD4FC49101
:10163000CC23A9F0162F81110E94640AEC2FF0E050
:10164000EE0FFF1FE45EFC4FA591B4918FB7F894A5
:10165000EC91111108C0D095DE23DC938FBFDF9190
:10166000CF911F910895DE2BF8CF0895A1E21A2E95
:10167000AA1BBB1BFD010DC0AA1FBB1FEE1FFF1F36
:10168000A217B307E407F50720F0A21BB30BE40B86
:10169000F50B661F771F881F991F1A9469F76095CD
:1016A0007095809590959B01AC01BD01CF01089587
:1016B000EE0FFF1F881F8BBF0790F691E02D199446
:1016C0005058BB27AA270E94780B0C94C90C0E9483
:1016D000BB0C38F00E94C20C20F039F49F3F19F483
:1016E00026F40C94B80C0EF4E095E7FB0C94B20CC5
:1016F000E92F0E94DA0C58F3BA17620773078407C0
:10170000950720F079F4A6F50C94FC0C0EF4E09506
:101710000B2EBA2FA02D0B01B90190010C01CA01AB
:10172000A0011124FF27591B99F0593F50F4503E56
:1017300068F11A16F040A22F232F342F4427585F48
:10174000F3CF469537952795A795F0405395C9F760
:101750007EF41F16BA0B620B730B840BBAF0915018
:10176000A1F0FF0FBB1F661F771F881FC2F70EC0B7
:10177000BA0F621F731F841F48F48795779567958A
:10178000B795F7959E3F08F0B0CF9395880F08F076
:101790009927EE0F9795879508950E94E10B0C9479
:1017A000C90C0E94C20C58F00E94BB0C40F029F4F6
:1017B0005F3F29F00C94B20C51110C94FD0C0C9469
:1017C000B80C0E94DA0C68F39923B1F3552391F316
:1017D000951B550BBB27AA2762177307840738F0A0
:1017E0009F5F5F4F220F331F441FAA1FA9F335D0FD
:1017F0000E2E3AF0E0E832D091505040E695001CB1
:10180000CAF72BD0FE2F29D0660F771F881FBB1F6A
:10181000261737074807AB07B0E809F0BB0B802D48
:10182000BF01FF2793585F4F3AF09E3F510578F074
:101830000C94B20C0C94FD0C5F3FE4F3983ED4F38F
:10184000869577956795B795F7959F5FC9F7880F48
:10185000911D9695879597F90895E1E0660F771F9A
:10186000881FBB1F621773078407BA0720F0621B2B
:10187000730B840BBA0BEE1F88F7E09508950E9456
:10188000460C6894B1110C94FD0C08950E94E20C72
:1018900088F09F5798F0B92F9927B751B0F0E1F031
:1018A000660F771F881F991F1AF0BA95C9F714C0E1
:1018B000B13091F00E94FC0CB1E008950C94FC0C46
:1018C000672F782F8827B85F39F0B93FCCF386951A
:1018D00077956795B395D9F73EF490958095709577
:1018E00061957F4F8F4F9F4F0895E89409C097FBF4
:1018F0003EF490958095709561957F4F8F4F9F4FE7
:101900009923A9F0F92F96E9BB279395F69587952A
:1019100077956795B795F111F8CFFAF4BB0F11F4ED
:1019200060FF1BC06F5F7F4F8F4F9F4F16C0882394
:1019300011F096E911C0772321F09EE8872F762FCA
:1019400005C0662371F096E8862F70E060E02AF00B
:101950009A95660F771F881FDAF7880F96958795F7
:1019600097F9089597F99F6780E870E060E008951F
:101970009FEF80EC089500240A94161617061806A7
:101980000906089500240A94121613061406050683
:101990000895092E0394000C11F4882352F0BB0F14
:1019A00040F4BF2B11F460FF04C06F5F7F4F8F4F77
:1019B0009F4F089557FD9058440F551F59F05F3FB2
:1019C00071F04795880F97FB991F61F09F3F79F061
:1019D00087950895121613061406551FF2CF4695E3
:1019E000F1DF08C0161617061806991FF1CF869565
:1019F0007105610508940895E894BB276627772749
:101A0000CB0197F908950E94160D0C94C90C0E9401
:101A1000BB0C38F00E94C20C20F0952311F00C94FE
:101A2000B20C0C94B80C11240C94FD0C0E94DA0C2E
:101A300070F3959FC1F3950F50E0551F629FF00121
:101A4000729FBB27F00DB11D639FAA27F00DB11D3A
:101A5000AA1F649F6627B00DA11D661F829F2227C3
:101A6000B00DA11D621F739FB00DA11D621F839F4A
:101A7000A00D611D221F749F3327A00D611D231F20
:101A8000849F600D211D822F762F6A2F11249F576E
:101A900050409AF0F1F088234AF0EE0FFF1FBB1F71
:101AA000661F771F881F91505040A9F79E3F510530
:101AB00080F00C94B20C0C94FD0C5F3FE4F3983E64
:101AC000D4F3869577956795B795F795E7959F5FDA
:101AD000C1F7FE2B880F911D9695879597F908956C
:101AE000EF920F931F93CF93DF93E80134E047FD0C
:101AF00034E1042E000C550B57FF03C0519541955E
:101B00005109E32E022F242FAE010E94A40FCE0113
:101B1000DF91CF911F910F91EF9008950F931F9335
:101B2000CF93DF938230910510F482E090E0E09152
:101B30003103F091320330E020E0B0E0A0E03097D4
:101B400099F42115310509F44AC0281B390B2430BA
:101B50003105D8F58A819B816115710589F1FB01F9
:101B600093838283FE0111C04081518102811381E0
:101B700048175907E0F04817590799F4109761F092
:101B800012960C93129713961C933296CF01DF9105
:101B9000CF911F910F910895009331031093320359
:101BA000F4CF2115310551F04217530738F0A90140
:101BB000DB019A01BD01DF01F801C1CFEF01F9CFCF
:101BC0009093320380933103CDCFFE01E20FF31FD8
:101BD000819391932250310939832883D7CF209163
:101BE0002F0330913003232B41F4209102023091D6
:101BF00003023093300320932F0320910002309191
:101C000001022115310541F42DB73EB74091040280
:101C100050910502241B350BE0912F03F091300306
:101C2000E217F307A0F42E1B3F0B2817390778F0B3
:101C3000AC014E5F5F4F2417350748F04E0F5F1F12
:101C40005093300340932F03819391939FCFF0E003
:101C5000E0E09CCFCF93DF930097E9F0FC0132974F
:101C600013821282A0913103B0913203ED0130E072
:101C700020E01097A1F420813181820F931F2091E1
:101C80002F03309130032817390709F061C0F09312
:101C90003003E0932F03DF91CF910895EA01CE172F
:101CA000DF07E8F54A815B819E0141155105B1F7D7
:101CB000E901FB83EA8349915991C40FD51FEC17C1
:101CC000FD0761F4808191810296840F951FE901DF
:101CD00099838883828193819B838A83F0E0E0E00B
:101CE00012968D919C9113970097B9F52D913C9187
:101CF0001197CD010296820F931F20912F033091EF
:101D000030032817390739F6309751F5109232030E
:101D100010923103B0933003A0932F03BCCFD38331
:101D2000C28340815181840F951FC817D90761F480
:101D30004E5F5F4F88819981480F591F51834083BF
:101D40008A819B81938382832115310509F0B0CF6D
:101D5000F0933203E09331039ECFFD01DC01C0CF4D
:101D600013821282D7CF4F925F926F927F928F929F
:101D70009F92AF92BF92CF92DF92EF92FF920F931A
:101D80001F93CF93DF938C01009799F4CB01DF91E0
:101D9000CF911F910F91FF90EF90DF90CF90BF9068
:101DA000AF909F908F907F906F905F904F900C942A
:101DB0008E0DFC01E60FF71F9C0122503109E2173E
:101DC000F30708F4AEC0D901CD91DC911197C61785
:101DD000D70720F1C530D10578F0CE0104978617DA
:101DE000970750F0C61BD70B2297C193D1936D93E1
:101DF0007C93CF010E942A0EC801DF91CF911F91E1
:101E00000F91FF90EF90DF90CF90BF90AF909F9099
:101E10008F907F906F905F904F9008955B01AC1A08
:101E2000BD0A4C018C0E9D1EA0913103B09132036E
:101E3000512C412CF12CE12C109731F580912F037E
:101E4000909130038815990509F05CC04616570635
:101E500008F058C08091000290910102009741F46F
:101E60008DB79EB74091040250910502841B950BDB
:101E7000E817F90708F055C0F0933003E0932F03FB
:101E8000F90171836083B8CF8D919C91119712965F
:101E90006C90129713967C901397A815B90559F575
:101EA0006C0142E0C40ED11CCA14DB0420F1AC0169
:101EB0004A195B09DA011296159780F062827382E3
:101EC00051834083D9016D937C93E114F10471F047
:101ED000D7011396FC93EE9312978ECF22968C0F18
:101EE0009D1FF90191838083F301EFCFF0933203BB
:101EF000E093310381CF4816590608F42C017D0187
:101F0000D3019ACFCB010E948E0D7C01009749F03E
:101F1000AE01B8010E94940FC8010E942A0E8701E9
:101F20006BCF10E000E068CFFB01DC0102C0019044
:101F30000D9241505040D8F70895FB01DC0101900B
:101F40000D920020E1F708958F929F92AF92BF9279
:101F5000CF92DF92EF92FF920F931F93CF93DF9375
:101F600000D000D000D0CDB7DEB76A01F22EB02E7F
:101F7000102FFBE3AF2EA01608F41BE31F5F012F09
:101F800027E0AE014F5F5F4F0E941D11BC018981A8
:101F9000982F9970913009F44EC09BE2E1FC04C087
:101FA0009E2D9170E0FC49C05E2D5071E82FE870C5
:101FB00083FF55C084E0911101C083E0EF2DE81B41
:101FC0008F1508F0E0E0D6018E2F20E25523C9F1ED
:101FD000992329F0D6019C93C60101966C019601C4
:101FE0002D5F3F4FE2FE33C08EE4D6018C9391E427
:101FF00011969C93119712968C93D9018E2F90E293
:1020000081112AC0E20FF32FF11D10828EEF9FEF96
:1020100029960FB6F894DEBF0FBECDBFDF91CF91EA
:102020001F910F91FF90EF90DF90CF90BF90AF90F6
:102030009F908F9008959DE2B7CF90E2B5CF2D93FA
:1020400081508111FCCFCE0ED11CE0E0C1CF8EE6D5
:10205000D6018C9391E6CCCF9D938150D1CF482F60
:10206000447082FF3DC084E0911101C083E08F1570
:1020700010F4EF2DE81BD6018E2F20E2552309F135
:10208000992329F0D6019C93C60101966C01960113
:102090002D5F3F4FE2FE1BC089E4D6018C938EE496
:1020A00011968C93119786E412968C93D9018E2FFA
:1020B00090E2882309F4A6CF9D938150FACF2D9307
:1020C00081508111FCCFCE0ED11CE0E0D9CF89E642
:1020D000D6018C938EE611968C93119786E6E4CF09
:1020E0009B0177FF02C030E020E0A1E0B0E0911159
:1020F00002C0B0E0A0E0F9013196AE0FBF1F8B2CFB
:10210000912CBB2009F461C05401EFEFAE1ABE0A56
:10211000AA0DBB1DFA161B0619F014F04F2D4A1B11
:10212000511188C0E3FC59C07601A42FB0E2A1117F
:102130004FC0C40ED11C992309F45BC040E0D60106
:102140001196F60190836D01552309F448C0012FC3
:10215000060F9A81582F507184FF03C0913309F400
:10216000015010160CF047C0093008F008E0EEE20C
:10217000FE2E5B01A01AB10885019194819491080B
:102180002F3F320729F4D601FC92F60131966F01F8
:102190006217730794F1021713077CF5DB01A21B8A
:1021A000B30BAA24A394B12CAC0EBD1EAA0DBB1D6B
:1021B00011968C9121503109D601119628153905B7
:1021C000F4F0F60180836D01DBCFB12CA12CA0CF00
:1021D000F701B1937F01A150AACF9111B0CFD601E1
:1021E000942F50E302C05D9391509111FCCFC40E27
:1021F000D11C40E0ACCF01E0BACF80E3DBCF621767
:10220000730731F4963388F4953311F4552369F04C
:10221000F6018083FD01842F90E2811108C0A40F94
:10222000B11D1C9290E080E0F3CE81E3F1CF919359
:102230008150F3CF911183CF8ACF283008F027E067
:102240003327DA01990F311D87FD916000966105F2
:10225000710539F432602E5F3D9330E32A95E1F742
:1022600008959F3F30F080387105610509F03C5FAB
:102270003C5F3D93913008F08068911DDF93CF93D0
:102280001F930F93FF92EF92192F987F9695E92F46
:1022900096959695E90FFF27E655FE4F9927332728
:1022A000EE24FF24A701E70105900894079428F481
:1022B000360FE71EF81E491F511D660F771F881F36
:1022C000991F0694A1F70590079428F4E70EF81ECD
:1022D000491F561FC11D770F881F991F661F06943F
:1022E000A1F70590079428F4F80E491F561FC71F41
:1022F000D11D880F991F661F771F0694A1F70590BF
:10230000079420F4490F561FC71FD81F990F661F47
:10231000771F881F0694A9F784911095177041F0D4
:10232000D695C79557954795F794E7941A95C1F7B1
:10233000E0E5F1E0689415901591359165919591DE
:1023400005907FE27395E118F10A430B560BC90B18
:10235000D009C0F7E10CF11E431F561FC91FD01D45
:102360007EF4703311F48A95E6CFE894015030F092
:10237000080F0AF40027021708F4202F2395022FD4
:102380007A3328F079E37D932A95E9F710C07D939D
:102390002A9589F60694979567953795179517941A
:1023A000E118F10A430B560BC90BD00998F023959D
:1023B0007E9173957A3308F070E37C932013B8F71D
:1023C0007E9170617D9330F0839571E37D9370E32E
:1023D0002A95E1F71124EF90FF900F911F91CF9173
:0E23E000DF91992787FD90950895F894FFCF1F
:1023EE00000033038000FFFF766C3A20003B202074
:1023FE0076723A200043414E205772697465202D43
:10240E002054657374696E67207472616E736D69A2
:10241E007373696F6E206F662043414E2042757351
:10242E00206D657373616765730043414E20496E7D
:10243E006974206F6B0043616E277420696E697436
:10244E002043414E00000000005B06A107D5053B6E
:0A245E0006A705C105B3050D0A002D
:00000001FF
