:100000000C942C010C945D010C945D010C945D0129
:100010000C945D010C945D010C945D010C945D01E8
:100020000C945D010C945D010C945D010C945D01D8
:100030000C945D010C945D010C945D010C945D01C8
:100040000C945D010C945D010C945D010C945D01B8
:100050000C945D010C945D010C945D010C948A0577
:100060000C945D010C948C040C94C2040C945D01FE
:100070000C945D010C945D010C945D010C945D0188
:100080000C945D010C945D010C945D010C945D0178
:100090000C945D010C945D010C945D010C945D0168
:1000A0000C945D010C945D010C945D010C945D0158
:1000B0000C945D010C945D010C945D010C945D0148
:1000C0000C945D010C945D010C945D010C945D0138
:1000D0000C945D010C945D010C945D010C945D0128
:1000E0000C945D010C94F7060C94BC060C94C006AD
:1000F0000C94ED060C94C4060C9466030C94F60460
:100100000C94E9060C94BD030C94DF060C94F206E3
:100110000C94DD030C94B8060C9457030C9423053F
:100120000C94F3060C94C7060C94B2060C94D706F4
:100130000C94DB060C9429030C94CD060C94D10688
:100140000C94E5060C9435030C94EC040C944303D6
:1001500000000A0B02090C0D0E0807030401000041
:10016000000000000000000000000000000000008F
:10017000000000000000000000000000121110004C
:10018000000000000000000000000000000000006F
:10019000000000000000010210202008081020408C
:1001A000102040800201020108040201010204083B
:1001B00010204080804020100804020180040201C9
:1001C0008040201008040201080402010102040812
:1001D000102040800102040810204080050505051C
:1001E000070508080808020202020A0A08080404AF
:1001F00004040101010101010101030303030303DD
:100200000303040707070C0C0C0C0C0C0C0C02026B
:10021000020206060606060606060B0B0B0B0B0B68
:100220000B0B00002200250028002B002E003100BF
:10023000340002010000050108010B01000021004B
:10024000240027002A002D003000330001010000A7
:10025000040107010A01F60411241FBECFEFD1E209
:10026000DEBFCDBF00E00CBF12E0A0E0B2E0E4E2F0
:10027000FFE000E00BBF02C007900D92A636B10769
:10028000D9F723E0A6E6B2E001C01D92AD30B20777
:10029000E1F711E0CCE2D1E000E006C021970109CE
:1002A000802FFE010E948807CB32D10780E008072B
:1002B000A9F70E947B050C9490070C94000026E09F
:1002C00040E855E260E070E087E692E00E942A0490
:1002D00061E086E10E94FB0661E086E10E9437074B
:1002E0006AE070E080E090E00E94F90560E072E072
:1002F00087E692E00E94630568EE73E080E090E09C
:100300000E94F90563E086E692E00E94260365E319
:1003100072E0811102C061E472E087E692E00E941F
:10032000630568EE73E080E090E00C94F905CF93EC
:10033000DF9300D000D000D01F921F92CDB7DEB760
:100340008EE390E09A8389838B81807E80618B83AA
:100350001C821D821E821F8240E060EE8FE00E94A0
:10036000EF01CE0101960E94C4026AE070E080E0D5
:1003700090E00E94F905CE0101960E9460022B9642
:100380000FB6F894DEBF0FBECDBFDF91CF910895B9
:100390008EBD0DB407FEFDCF8EB50895CF93DF93CC
:1003A000D82FC62F289882E00E94C8018D2F0E9466
:1003B000C8018C2F0E94C801289ADF91CF9108951F
:1003C000CF93C82F289883E00E94C8018C2F0E94E9
:1003D000C8018FEF0E94C801289ACF9108951F93FA
:1003E000CF93DF93182FD62FC42F289885E00E9433
:1003F000C801812F0E94C8018D2F0E94C8018C2F37
:100400000E94C801289ADF91CF911F9108952898E2
:100410000E94C8018FEF0E94C801289A0895CF93C7
:10042000C82F289A209A29982A982B98219A229A9C
:1004300023986C98749A81E58CBD1DBC289880EC3B
:100440000E94C801289A87EC90E00197F1F700C05C
:100450000000289882E00E94C80188E20E94C8013A
:1004600082E00E94C80180E90E94C8018C2F0E948E
:10047000C80183E00E94C801289A8AE20E94E00134
:100480008C1741F08091020180628093020180E02C
:10049000CF91089560E08CE00E94CE0160E08DE095
:1004A0000E94CE0160E680E60E94CE0160E680E711
:1004B0000E94CE0160E08FE00E94CE0181E0E8CF93
:1004C000EF92FF920F931F93CF93DF938C0180EBFA
:1004D0000E940702C82F282F2074E22E86FD05C037
:1004E00084E9C7FD03C080E040C080E928980E94ED
:1004F000C8018FEF0E94C801E8E08E9FC00111245F
:10050000F801918380838FEF0E94C801282F2295E4
:1005100026952770F80180819181822B91838083B9
:100520008FEF0E94C8018FEF0E94C8018FEF0E94D9
:10053000C8018F70F82E982F990FF8018281817E63
:10054000892BC3FB80F982830D5F1F4FD0E0DF1141
:1005500013C0289A40E061E0E11001C062E08CE243
:100560000E94EF018C2F87708F5FDF91CF911F91D9
:100570000F91FF90EF9008958FEF0E94C801F8014E
:1005800081938F01DF5FE3CFFF920F931F93CF9390
:10059000DF938C0180EA0E94070282FF07C084FF7C
:1005A00044C0C4E086FF03C0C0E038C0C0E0289863
:1005B0008C2F80640E94C801F8018081918123E022
:1005C000969587952A95E1F70E94C801F8018081E8
:1005D0008295880F807E0E94C80180E00E94C80139
:1005E00080E00E94C801F8018281D82FD695DF7083
:1005F00080FF1DC08D2F80640E94C801289A87EC5F
:1006000090E00197F1F700C000002898C11101C0E7
:10061000C1E08C2F80680E94C801289A8C2FDF913E
:10062000CF911F910F91FF900895C2E0C0CF8D2F01
:100630000E94C8010D5F1F4FF12CFD16F9F2F80161
:1006400081918F010E94C801F394F7CF862F0C94FB
:100650000F02FC01918D228D892F90E0805C9F4FCD
:10066000821B91098F7399270895FC01918D828DCA
:10067000981731F0828DE80FF11D858D90E0089577
:100680008FEF9FEF0895FC01918D828D981761F097
:10069000A28DAE0FBF2FB11D5D968C91928D9F5F85
:1006A0009F73928F90E008958FEF9FEF0895FC0164
:1006B000538D448D252F30E0842F90E0821B930BC7
:1006C000541710F0CF960895019708958CEE94E09A
:1006D000892B49F080E090E0892B29F00E94EC04FE
:1006E00081110E94000080E090E0892B49F080E0B9
:1006F00090E0892B29F00E94000081110E940000E7
:1007000080E090E0892B49F080E090E0892B29F08F
:100710000E94000081110E94000080E090E0892B7F
:1007200049F080E090E0892B29F00E9400008111BF
:100730000C9400000895FC01A48DA80FB92FB11DE1
:10074000A35ABF4F2C91848D90E001968F73992707
:10075000848FA689B7892C93A089B1898C918370E5
:1007600080648C93938D848D981306C00288F389DE
:10077000E02D80818F7D80830895CF93DF93EC01FE
:10078000888D8823B9F0AA89BB89E889F9898C9179
:1007900085FD03C0808186FD0DC00FB607FCF7CF35
:1007A0008C9185FFF2CF808185FFEDCFCE010E9435
:1007B0009B03E9CFDF91CF910895EF92FF920F93C2
:1007C0001F93CF93DF93EC0181E0888F9B8D8C8DFD
:1007D00098131AC0E889F989808185FF15C09FB7F1
:1007E000F894EE89FF896083E889F98980818370B4
:1007F000806480839FBF81E090E0DF91CF911F9163
:100800000F91FF90EF900895F62E0B8D10E00F5F83
:100810001F4F0F731127E02E8C8D8E110CC00FB659
:1008200007FCFACFE889F989808185FFF5CFCE01F1
:100830000E949B03F1CFEB8DEC0FFD2FF11DE35ACE
:10084000FF4FF0829FB7F8940B8FEA89FB89808174
:100850008062CFCFCF92DF92EF92FF921F93CF9320
:10086000DF93EC016A017B01122FE889F98982E0AC
:100870008083C11481EED806E104F104A1F060E0A8
:1008800079E08DE390E0A70196010E946607215070
:1008900031094109510956954795379527952115F5
:1008A00080E1380798F0E889F989108260E874E8F7
:1008B0008EE190E0A70196010E9466072150310960
:1008C000410951095695479537952795EC85FD8542
:1008D0003083EE85FF852083188EEC89FD89108397
:1008E000EA89FB89808180618083EA89FB89808134
:1008F00088608083EA89FB89808180688083EA89B7
:10090000FB8980818F7D8083DF91CF911F91FF9044
:10091000EF90DF90CF9008951F920F920FB60F9235
:1009200011240BB60F922F938F939F93EF93FF9306
:10093000E0917702F09178028081E0917D02F09160
:100940007E0282FD1DC09081809180028F5F8F7337
:1009500020918102821741F0E0918002F0E0E95994
:10096000FD4F958F80938002FF91EF919F918F9122
:100970002F910F900BBE0F900FBE0F901F901895E8
:100980008081F2CF1F920F920FB60F9211240BB6F7
:100990000F922F933F934F935F936F937F938F9318
:1009A0009F93AF93BF93EF93FF9387E692E00E94EC
:1009B0009B03FF91EF91BF91AF919F918F917F9199
:1009C0006F915F914F913F912F910F900BBE0F90C0
:1009D0000FBE0F901F90189587E692E00E942903A2
:1009E00021E0892B09F420E0822F0895E7E6F2E068
:1009F0001382128288EE93E0A0E0B0E084839583B6
:100A0000A683B78384E592E09183808385EC90E0B0
:100A10009587848784EC90E09787868780EC90E0C8
:100A2000918B808B81EC90E0938B828B82EC90E0B9
:100A3000958B848B86EC90E0978B868B118E128E33
:100A4000138E148E0895AF92BF92CF92DF92EF92E1
:100A5000FF920F931F93CF93DF936C017B018B0168
:100A6000040F151FEB015E01AE18BF08C017D107B8
:100A700059F06991D601ED91FC910190F081E02D42
:100A8000C6011995892B79F7C501DF91CF911F9187
:100A90000F91FF90EF90DF90CF90BF90AF900895AF
:100AA000FB0101900020E9F73197AF01461B570B7E
:100AB000DC01ED91FC910280F381E02D199462E656
:100AC00072E00C9450050F931F93CF93DF938C012A
:100AD000D0E0C0E06115710519F00E945005EC01ED
:100AE000C8010E945F058C0F9D1FDF91CF911F9160
:100AF0000F91089508950E9432060E947A050E947F
:100B00005F01C6E6D3E00E9497012097E1F30E94BF
:100B10006603F9CF1F920F920FB60F9211242F93F5
:100B20003F938F939F93AF93BF93809105039091D1
:100B30000603A0910703B09108033091040323E05A
:100B4000230F2D3758F50196A11DB11D20930403E5
:100B50008093050390930603A0930703B0930803C3
:100B60008091090390910A03A0910B03B0910C03AB
:100B70000196A11DB11D8093090390930A03A093D0
:100B80000B03B0930C03BF91AF919F918F913F9155
:100B90002F910F900FBE0F901F90189526E8230FEE
:100BA0000296A11DB11DD2CF3FB7F89480910903E1
:100BB00090910A03A0910B03B0910C0326B5A89B5A
:100BC00005C02F3F19F00196A11DB11D3FBFBA2FDF
:100BD000A92F982F8827BC01CD01620F711D811D9F
:100BE000911D42E0660F771F881F991F4A95D1F724
:100BF00008958F929F92AF92BF92CF92DF92EF9221
:100C0000FF926B017C010E94D4054B015C01C11471
:100C1000D104E104F104E9F00E9465070E94D405C3
:100C2000681979098A099B09683E73408105910515
:100C300070F321E0C21AD108E108F10888EE880EAD
:100C400083E0981EA11CB11CC114D104E104F1047D
:100C500029F7FF90EF90DF90CF90BF90AF909F90DB
:100C60008F900895789484B5826084BD84B5816046
:100C700084BD85B5826085BD85B5816085BDEEE6A4
:100C8000F0E0808181608083E1E8F0E01082808183
:100C900082608083808181608083E0E8F0E08081F1
:100CA00081608083E1EBF0E0808184608083E0EB11
:100CB000F0E0808181608083E1E9F0E08081826002
:100CC0008083808181608083E0E9F0E080818160C1
:100CD0008083E1EAF0E080818260808380818160AE
:100CE0008083E0EAF0E0808181608083E1E2F1E0EE
:100CF000808182608083808181608083E0E2F1E096
:100D0000808181608083EAE7F0E080818460808375
:100D1000808182608083808181608083808180681F
:100D200080831092C10008958150823108F05AC02A
:100D3000E82FF0E08827E056F94F8F4F0C94880792
:100D4000C006C406B206B806BC06F206C706CD0643
:100D5000D106D706DB06DF06E506E906F206ED0654
:100D6000F306F706809180008F77809380000895C6
:100D7000809180008F7DF9CF80918000877FF5CFB3
:100D800084B58F7784BD089584B58F7DFBCF809126
:100D9000B0008F778093B00008958091B0008F7D70
:100DA000F9CF809190008F77809390000895809183
:100DB00090008F7DF9CF80919000877FF5CF809153
:100DC000A0008F778093A00008958091A0008F7D70
:100DD000F9CF8091A000877FF5CF809120018F7798
:100DE000809320010895809120018F7DF9CF80911B
:100DF0002001877FF5CFCF93DF9390E0FC01EA5687
:100E0000FE4F249184529E4FFC0184918823C9F0A7
:100E100090E0880F991FFC01E45CFD4FA591B4910F
:100E2000FC01EE5DFD4FC591D49161110DC09FB7DE
:100E3000F8948C91209582238C9388812823288391
:100E40009FBFDF91CF910895623051F49FB7F8941E
:100E50003C91822F809583238C93E8812E2BEFCFBA
:100E60008FB7F894EC912E2B2C938FBFEACF1F9362
:100E7000CF93DF93282F30E0F901E05BFE4F8491A0
:100E8000F901EA56FE4FD491F901E452FE4FC491A4
:100E9000CC23A9F0162F81110E949406EC2FF0E0CC
:100EA000EE0FFF1FEE5DFD4FA591B4918FB7F89443
:100EB000EC91111108C0D095DE23DC938FBFDF9138
:100EC000CF911F910895DE2BF8CF0895A1E21A2E3D
:100ED000AA1BBB1BFD010DC0AA1FBB1FEE1FFF1FDE
:100EE000A217B307E407F50720F0A21BB30BE40B2E
:100EF000F50B661F771F881F991F1A9469F7609575
:100F00007095809590959B01AC01BD01CF0108952E
:100F1000EE0FFF1F881F8BBF0790F691E02D1994ED
:040F2000F894FFCF73
:100F240043414E205772697465202D2054657374B3
:100F3400696E67207472616E736D697373696F6E25
:100F4400206F662043414E20427573206D65737394
:100F5400616765730043414E20496E6974206F6B6D
:100F64000043616E277420696E69742043414E000A
:100F740000000000DD0323055703BD0329034303D9
:060F840035030D0A000018
:00000001FF
