:100000000C94AC010C94DD010C94DD010C94DD0129
:100010000C94DD010C94DD010C94DD010C94DD01E8
:100020000C94DD010C94DD010C94DD010C94DD01D8
:100030000C94DD010C94DD010C94DD010C94DD01C8
:100040000C94DD010C94DD010C94DD010C94DD01B8
:100050000C94DD010C94DD010C94DD010C94E90D90
:100060000C94DD010C94A50B0C94DB0B0C94DD01BE
:100070000C94DD010C94DD010C94DD010C94DD0188
:100080000C94DD010C94DD010C94DD010C94DD0178
:100090000C94DD010C94DD010C94DD010C94DD0168
:1000A0000C94DD010C94DD010C94DD010C94DD0158
:1000B0000C94DD010C94DD010C94DD010C94DD0148
:1000C0000C94DD010C94DD010C94DD010C94DD0138
:1000D0000C94DD010C94DD010C94DD010C94DD0128
:1000E0000C94DD010C941D0F0C94540F0C945C0ABD
:1000F0000C940F0C0C94420F0C94D60A0C94270FFE
:100100000C942F0F0C94700A0C947F0A0C94050C1D
:100110000C94500F0C943C0F0C94320F0C94620F03
:100120000C94460F0C94F60A0C943C0C0C945E0F45
:100130000C94420A0C94230F0C945D0F0C94D6047B
:100140000C944A0F0C944E0A0C942B0F0C94380FFD
:100150000C94580F00407A10F35A00A0724E180900
:100160000010A5D4E80000E87648170000E40B541E
:10017000020000CA9A3B000000E1F50500008096ED
:100180009800000040420F000000A086010000001F
:10019000102700000000E8030000000064000000D9
:1001A00000000A00000000000100000000002C76A2
:1001B000D888DC674F0823DFC1DFAE59E1B1B796BD
:1001C000E5E3E453C63AE651997696E8E6C284261A
:1001D000EB898C9B62ED407C6FFCEFBC9C9F40F2F6
:1001E000BAA56FA5F490055A2AF75C936B6CF96772
:1001F0006DC11BFCE0E40D47FEF520E6B500D0ED37
:10020000902E0300943577050080841E080000209E
:100210004E0A000000C80C333333330F986E12833C
:100220001141EF8D2114893BE65516CFFEE6DB1810
:10023000D1844B381BF77C1D901DA4BBE4242032D5
:1002400084725E228100C9F124ECA1E53D27000003
:100250000A0B02090C0D0E08070304010000000040
:10026000000000000000000000000000000000008E
:10027000000000000000000000001211100000004B
:10028000000000000000000000000000000000006E
:10029000000000000102102020080810204010205B
:1002A000408002010201080402010102040810203A
:1002B0004080804020100804020180040201804038
:1002C00020100804020108040201010204081020A1
:1002D000408001020408102040800505050507053F
:1002E00008080808020202020A0A080804040404B2
:1002F00001010101010101010303030303030303DE
:10030000040707070C0C0C0C0C0C0C0C020202026C
:1003100006060606060606060B0B0B0B0B0B0B0B55
:1003200000002200250028002B002E0031003400A0
:1003300002010000050108010B010000210024005A
:1003400027002A002D0030003300010100000401C5
:1003500007010A01D6040F0C11241FBECFEFD1E212
:10036000DEBFCDBF00E00CBF12E0A0E0B2E0E0E8ED
:10037000FDE200E00BBF02C007900D92A63CB10762
:10038000D9F724E0A6ECB2E001C01D92A331B20778
:10039000E1F711E0CCEAD1E000E006C021970109C5
:1003A000802FFE010E94F30FCA3AD10780E00807B0
:1003B000A9F70E94DA0D0C94BE160C9400004F921F
:1003C0005F926F927F928F929F92AF92BF92CF92E5
:1003D000DF92EF92FF920F931F93CF93DF9300D0A2
:1003E00000D000D01F921F92CDB7DEB7E982FA820B
:1003F0000B831C832D833E834F83588769877A87BD
:100400008B87CE0101960E94D705882309F4D5C0B9
:1004100089819A818F3F974009F0CFC0B884A98421
:100420007A846B840E94330E6B017093C7026093D1
:10043000C60200910602109107020F3F100709F44F
:10044000B6C06A2D70E0762F66276B0D711D072EE2
:10045000000C880B990B0E94171127ED33EA4AEA2A
:1004600051E40E946D102BED3FE049EC50E40E94F6
:10047000CC1120E030E040E752E40E946D1027EDFF
:1004800033EA40E35EE30E94CC114B015C01662D30
:1004900070E0762F6627670D711D072E000C880B04
:1004A000990B0E94171127ED33EA4AEA51E40E94A2
:1004B0006D102BED3FE049EC50E40E94CC1120E0A0
:1004C00030E040E752E40E946D1027ED33EA40E34C
:1004D0005EE30E94CC112B013C01C01AD10AB60187
:1004E000DD0C880B990B0E9417116B017C01A50193
:1004F0009401C301B2010E94FB0F28EB3EE145E0ED
:100500005FE30E946D10A70196010E94CC1120E0CC
:1005100030E04AE754E40E946D1020E030E044E30C
:1005200053E40E94CC112BED3FE049E450E40E94DB
:100530006D109B01AC01609160037091610380912B
:100540006203909163030E94FC0F609360037093B9
:1005500061038093620390936303A3019201C50139
:10056000B4010E94FC0F20E030E040E05FE30E9415
:10057000CC11A70196010E94CC1120E030E04AE79F
:1005800054E40E946D109B01AC0160910C037091CA
:100590000D0380910E0390910F030E94FC0F609356
:1005A0000C0370930D0380930E0390930F030E942E
:1005B000330E70930702609306022B960FB6F894E1
:1005C000DEBF0FBECDBFDF91CF911F910F91FF9086
:1005D000EF90DF90CF90BF90AF909F908F907F90E3
:1005E0006F905F904F900895AF92BF92CF92DF923D
:1005F000EF92FF920F931F93CF93DF9300D000D021
:1006000000D01F921F92CDB7DEB7588769877A87CF
:100610008B878EE390E09A838983007E00610B8351
:10062000CC82DD82AE82BF8240E060EE8FE00E942D
:100630006605CE0101960E943B066AE070E080E00C
:1006400090E00E94640E2B960FB6F894DEBF0FBEAA
:10065000CDBFDF91CF911F910F91FF90EF90DF9071
:10066000CF90BF90AF900895CF92DF92EF92FF921C
:100670000F931F9326E040E855E260E070E089E6C2
:1006800093E00E94430B61E086E10E94660F61E007
:1006900086E10E94A20F6AE070E080E090E00E9494
:1006A000640E6CE172E089E693E00E949C0C68EEB7
:1006B00073E080E090E00E94640E63E088E693E0DF
:1006C0000E949D0661E572E0811102C06DE572E055
:1006D00089E693E00E949C0C68EE73E080E090E075
:1006E0000E94640E8091640390916503A09166035B
:1006F000B091670380935C0390935D03A0935E03C6
:10070000B0935F0310925403109255031092560356
:100710001092570361E070E088E193E00E944A097B
:10072000C0900C02D0900D02E0900E02F0900F02EB
:1007300000911002109111022091120230911302C7
:1007400040911402509115026091160270911702A7
:1007500088E193E00E94ED0861E070E088EC92E0AF
:100760000E944A09C0901003D0901103E090120338
:10077000F0901303009114031091150320911603B8
:1007800030911703409108025091090260910A02CA
:1007900070910B0288EC92E00E94ED081F910F917E
:1007A000FF90EF90DF90CF900895AF92BF92CF92DD
:1007B000DF92EF92FF920F931F93CF93DF93CDB70A
:1007C000DEB7A9970FB6F894DEBF0FBECDBFE980A4
:1007D000FA800B811C812D813E814F81588569856E
:1007E0007A858B850E94DF01809164039091650377
:1007F000A0916603B091670380935C0390935D03BF
:10080000A0935E03B0935F038091600390916103B6
:10081000A0916203B09163038093580390935903AE
:10082000A0935A03B0935B0388E193E00E94A00673
:1008300080910C0390910D03A0910E03B0910F03D2
:100840008093080390930903A0930A03B0930B03CA
:1008500088EC92E00E94A006409154035091550309
:10086000609156037091570322E0CE010C960E94CE
:10087000500D40910403509105036091060370915F
:10088000070322E0CE0142960E94500D4091600382
:1008900050916103609162037091630322E0CE0185
:1008A00048960E94500D40910C0350910D036091A9
:1008B0000E0370910F0322E0CE0184960E94500D2A
:1008C0006CE672E0CE014E960E94220DBE016C5D78
:1008D0007F4FCE014E960E94AC0D67E772E00E94FA
:1008E000BF0DBE01685E7F4F0E94AC0D67E872E0ED
:1008F0000E94BF0DBE016E5E7F4F0E94AC0D6DE980
:1009000072E00E94BF0DBE01645F7F4F0E94AC0D7C
:10091000BC0189E693E00E948A0CCE014E960E94AB
:10092000B30CCE0184960E94B30CCE0148960E946F
:10093000B30CCE0142960E94B30CCE010C960E94DD
:10094000B30C6091540370915503809156039091BC
:10095000570390580E94DF105B016091040370916F
:10096000050380910603909107030E94DF106B013D
:10097000E980FA800B811C812D813E814F81588551
:1009800069857A858B850E94F402A9960FB6F89442
:10099000DEBF0FBECDBFDF91CF911F910F91FF90B2
:1009A000EF90DF90CF90BF90AF900895AF92BF923D
:1009B000CF92DF92EF92FF920F931F93A0901002BD
:1009C000B0901102C0901202D0901302E090140275
:1009D000F090150200911602109117021F921F92BB
:1009E00080910F028F9380910E028F9380910D0260
:1009F0008F9380910C028F932CE533E044E553E014
:100A000068E573E088E193E00E94100AA090140367
:100A1000B0901503C0901603D0901703E090080221
:100A2000F090090200910A0210910B021F921F928E
:100A3000809113038F93809112038F938091110300
:100A40008F93809110038F9328E132E044E053E0CC
:100A500068E073E088EC92E00E94100A8DB79EB7C0
:100A60000C960FB6F8949EBF0FBE8DBF1F910F91CD
:100A7000FF90EF90DF90CF90BF90AF9008958EBD24
:100A80000DB407FEFDCF8EB50895CF93DF93D82F19
:100A9000C62F289882E00E943F058D2F0E943F05B7
:100AA0008C2F0E943F05289ADF91CF910895CF9314
:100AB000C82F289883E00E943F058C2F0E943F0595
:100AC0008FEF0E943F05289ACF9108951F93CF93EF
:100AD000DF93182FD62FC42F289885E00E943F055A
:100AE000812F0E943F058D2F0E943F058C2F0E9471
:100AF0003F05289ADF91CF911F91089528980E9471
:100B00003F058FEF0E943F05289A0895CF93C82F85
:100B1000289A209A29982A982B98219A229A2398E1
:100B20006C98749A81E58CBD1DBC289880EC0E945D
:100B30003F05289A87EC90E00197F1F700C000008C
:100B4000289882E00E943F0588E20E943F0582E0EB
:100B50000E943F0580E90E943F058C2F0E943F05BF
:100B600083E00E943F05289A8AE20E9457058C176D
:100B700041F08091020180628093020180E0CF9178
:100B8000089560E08CE00E94450560E08DE00E94E1
:100B9000450560E680E60E94450560E680E70E9424
:100BA000450560E08FE00E94450581E0E8CFEF92C7
:100BB000FF920F931F93CF93DF938C0180EB0E94E2
:100BC0007E05C82F282F2074E22E86FD05C084E9FB
:100BD000C7FD03C080E040C080E928980E943F051F
:100BE0008FEF0E943F05E8E08E9FC0011124F801BD
:100BF000918380838FEF0E943F05282F22952695B1
:100C00002770F80180819181822B918380838FEFFF
:100C10000E943F058FEF0E943F058FEF0E943F0526
:100C20008F70F82E982F990FF8018281817E892B81
:100C3000C3FB80F982830D5F1F4FD0E0DF1113C02B
:100C4000289A40E061E0E11001C062E08CE20E947D
:100C500066058C2F87708F5FDF91CF911F910F9169
:100C6000FF90EF9008958FEF0E943F05F801819368
:100C70008F01DF5FE3CFFF920F931F93CF93DF933B
:100C80008C0180EA0E947E0582FF07C084FF44C079
:100C9000C4E086FF03C0C0E038C0C0E028988C2FB5
:100CA00080640E943F05F8018081918123E0969540
:100CB00087952A95E1F70E943F05F801808182958A
:100CC000880F807E0E943F0580E00E943F0580E003
:100CD0000E943F05F8018281D82FD695DF7080FFF2
:100CE0001DC08D2F80640E943F05289A87EC90E0FC
:100CF0000197F1F700C000002898C11101C0C1E0C0
:100D00008C2F80680E943F05289A8C2FDF91CF910D
:100D10001F910F91FF900895C2E0C0CF8D2F0E94C8
:100D20003F050D5F1F4FF12CFD16F9F2F80181917F
:100D30008F010E943F05F394F7CF862F0C94860510
:100D40002F923F924F925F926F927F928F929F92DB
:100D5000AF92BF92CF92DF92EF92FF920F931F93C9
:100D6000CF93DF93CDB7DEB760970FB6F894DEBFB1
:100D70000FBECDBFDC01DA96BC91BD83B1111BC0A3
:100D80001D828D8160960FB6F894DEBF0FBECDBF79
:100D9000DF91CF911F910F91FF90EF90DF90CF9057
:100DA000BF90AF909F908F907F906F905F904F908B
:100DB0003F902F900895988B8F870E94330E6B87FA
:100DC0007C878D879E87EF85F88982A193A1A4A156
:100DD000B5A12B853C854D855E85281B390B4A0BBB
:100DE0005B0BDA01C90146A557A560A971A9841753
:100DF0009507A607B70720F2048CF58DE02D8081BA
:100E00009181A281B38189839A83AB83BC83AF85AF
:100E1000B8899096ED91FC9129813A814B815C8152
:100E200060817181828193810E94FB0F4B015C0183
:100E3000EF85F88922A533A544A555A569817A8156
:100E40008B819C810E94FB0F6B017C01AF85B8896F
:100E500050962D913D914D915C915397C501B401F0
:100E60000E94CC11EF85F88926A137A140A551A594
:100E70000E94FC0F2B013C01AF85B88996964D92DC
:100E80005D926D927C929997DB96BC91BE83B11175
:100E900018C0EF85F8892485358546855785C701B3
:100EA000B6010E94CC119B01AC01C301B2010E94AA
:100EB000FB0FAF85B88996966D937D938D939C9328
:100EC0009997EF85F88946A057A060A471A416A948
:100ED00007A930AC21AC212F302F432D522DC30157
:100EE000B2010E94C71118160CF07FC0812F902FFD
:100EF000A32DB22DEF85F88986A397A3A0A7B1A74C
:100F0000BE81BB2309F490C0EF85F889248535851F
:100F100046855785C501B4010E94CC114B015C0187
:100F2000AF85B88954962D913D914D915C9157971D
:100F3000C701B6010E94CC119B01AC01EF85F88975
:100F400066A177A180A591A50E94FB0FA501940140
:100F50000E94FC0F6B017C019B01AC01612F702F83
:100F6000832D922D0E94681087FD1BC0AF85B88924
:100F7000D2961C91D297D3960C91D397D4963C904D
:100F8000D497D5962C909601A701612F702F832DB1
:100F9000922D0E94C711181624F01C2D0D2D3E2CE9
:100FA0002F2CAF85B8895E96ED91FC91812F902F03
:100FB000A32DB22D80839183A283B38329813A81AB
:100FC0004B815C81AF85B8899A962D933D934D9363
:100FD0005C939D972B853C854D855E8592962D93E0
:100FE0003D934D935C939597CCCEAF85B889D296BF
:100FF0002D913D914D915C91D5972F8338874987ED
:101000005A87C301B2010E94681087FF79CF2F81F0
:10101000388549855A85AF85B88996962D933D9335
:101020004D935C9399976CCF812C912C540178CF80
:101030004F925F926F927F928F929F92AF92BF92E8
:10104000CF92DF92EF92FF920F931F93CF93DF9394
:1010500000D000D0CDB7DEB79E838D8349835A83FD
:101060006B837C832801390120E030E0A90169818C
:101070007A818B819C810E94681087FD97C020E057
:1010800030E0A901C301B8010E94681087FD8EC03D
:1010900020E030E0A901C701B6010E94681087FD79
:1010A00085C0AD81BE815B96BC92AE925A9781E0BD
:1010B000AA94AB2809F080E0ED81FE8183AF89819D
:1010C0009A81AB81BC8180839183A283B383448264
:1010D000558266827782C086D186E286F38666A5CF
:1010E00077A580A991A90E94151120E030E04AE778
:1010F00054E40E946D104B015C0189819A81AB819F
:10110000BC81ED81FE8184879587A687B787A5017D
:101110009401C301B2010E94CC112B013C01AD81AD
:10112000BE8150964D925D926D927C925397A5012F
:101130009401C701B6010E946D106B017C01ED8125
:10114000FE81C48AD58AE68AF78A808D918D0197BF
:1011500069F529813A814B815C8160E070E0CB01C7
:101160000E94FB0FAD81BE811C966D937D938D9384
:101170009C931F97A301920160E070E0CB010E9455
:10118000FB0FED81FE81608B718B828B938BA701AE
:10119000960160E070E0CB010E94FB0FAD81BE8143
:1011A00054966D937D938D939C93579726960FB687
:1011B000F894DEBF0FBECDBFDF91CF911F910F918D
:1011C000FF90EF90DF90CF90BF90AF909F908F9067
:1011D0007F906F905F904F900895AF92BF92CF92A3
:1011E000DF92EF92FF920F931F93FC01A28CB38CBE
:1011F0000E9418081F910F91FF90EF90DF90CF9001
:10120000BF90AF9008958F929F92AF92BF92CF926E
:10121000DF92EF92FF92CF93DF93EC01EE8DFF8D83
:10122000C080D180E280F380CEA2DFA2E8A6F9A63A
:10123000EC8DFD8D80819181A281B3818AA79BA7CE
:10124000ACA7BDA78EA89FA8A8ACB9ACA501940176
:10125000C701B6010E94C71118162CF48EA29FA2D6
:10126000A8A6B9A60CC08AA89BA8ACA8BDA8A50131
:101270009401C701B6010E94681087FDEFCFDF918E
:10128000CF91FF90EF90DF90CF90BF90AF909F9065
:101290008F9008951F93CF93DF93EC0111E061309D
:1012A000710509F010E06130710531F48AAD8111EA
:1012B00003C0CE010E9403091AAFDF91CF911F91A5
:1012C00008950F931F93CF93DF93EC018B018AADA9
:1012D000882361F1888D998D8617970739F12C85C0
:1012E0003D854E855F8560E070E0CB010E94FB0F7D
:1012F0006C877D878E879F87288939894A895B8992
:1013000060E070E0CB010E94FB0F688B798B8A8BC9
:101310009B8B2C893D894E895F8960E070E0CB0111
:101320000E94FB0F6C8B7D8B8E8B9F8B198F088F90
:10133000DF91CF911F910F9108954F925F926F921D
:101340007F928F929F92AF92BF92CF92DF92EF9255
:10135000FF920F931F93CF93DF9300D01F92CDB7CF
:10136000DEB74C0127013801A982BA82CB82DC8228
:10137000FC01578F468F758F648F31A320A312AE67
:1013800080E090E0A0EAB2EC82AB93ABA4ABB5AB4B
:1013900080E090E0A0EAB2E486AB97ABA0AFB1AF3B
:1013A00084E690E0A0E0B0E086A797A7A0ABB1AB41
:1013B0006E8D7F8DC4010E946109AC8CBD8CC88C80
:1013C000D98CEA8CFB8C09811A812B813C81B30179
:1013D000A201C4010E9418080E94330EF40146A421
:1013E00057A460A871A8641975098609970962A3B2
:1013F00073A384A395A30F900F900F900F90DF918C
:10140000CF911F910F91FF90EF90DF90CF90BF9001
:10141000AF909F908F907F906F905F904F900895C6
:101420008F929F92AF92BF92CF92DF92EF92FF92F4
:101430000F931F93CF93DF93CDB7DEB7E889F98978
:10144000AA89BB899C888D888F929F921F9299242C
:1014500093949F92BF93AF93FF93EF930E949D0944
:101460000FB6F894DEBF0FBECDBFDF91CF911F91B5
:101470000F91FF90EF90DF90CF90BF90AF909F9033
:101480008F900895FC01918D228D892F90E0805CD2
:101490009F4F821B91098F7399270895FC01918DAD
:1014A000828D981731F0828DE80FF11D858D90E0C7
:1014B00008958FEF9FEF0895FC01918D828D98170D
:1014C00061F0A28DAE0FBF2FB11D5D968C91928DF4
:1014D0009F5F9F73928F90E008958FEF9FEF089525
:1014E000FC01538D448D252F30E0842F90E0821B2A
:1014F000930B541710F0CF9608950197089585E047
:101500009CE0892B49F080E090E0892B29F00E9433
:10151000050C81110E94000080E090E0892B49F0C9
:1015200080E090E0892B29F00E94000081110E9448
:10153000000080E090E0892B49F080E090E0892B6A
:1015400029F00E94000081110E94000080E090E0DC
:10155000892B49F080E090E0892B29F00E9400005F
:1015600081110C9400000895FC01A48DA80FB92FDF
:10157000B11DA35ABF4F2C91848D90E001968F73BB
:101580009927848FA689B7892C93A089B1898C91DA
:10159000837080648C93938D848D981306C0028829
:1015A000F389E02D80818F7D80830895CF93DF9331
:1015B000EC01888D8823B9F0AA89BB89E889F9896B
:1015C0008C9185FD03C0808186FD0DC00FB607FCA0
:1015D000F7CF8C9185FFF2CF808185FFEDCFCE01D3
:1015E0000E94B40AE9CFDF91CF910895EF92FF9264
:1015F0000F931F93CF93DF93EC0181E0888F9B8D36
:101600008C8D98131AC0E889F989808185FF15C0EF
:101610009FB7F894EE89FF896083E889F989808112
:101620008370806480839FBF81E090E0DF91CF91E1
:101630001F910F91FF90EF900895F62E0B8D10E003
:101640000F5F1F4F0F731127E02E8C8D8E110CC072
:101650000FB607FCFACFE889F989808185FFF5CFBD
:10166000CE010E94B40AF1CFEB8DEC0FFD2FF11DDE
:10167000E35AFF4FF0829FB7F8940B8FEA89FB89FA
:1016800080818062CFCFCF92DF92EF92FF921F9343
:10169000CF93DF93EC016A017B01122FE889F9896E
:1016A00082E08083C11481EED806E104F104A1F048
:1016B00060E079E08DE390E0A70196010E94D10FF0
:1016C000215031094109510956954795379527957C
:1016D000211580E1380798F0E889F989108260E8DF
:1016E00074E88EE190E0A70196010E94D10F21508D
:1016F0003109410951095695479537952795EC854C
:10170000FD853083EE85FF852083188EEC89FD8969
:101710001083EA89FB89808180618083EA89FB8963
:10172000808188608083EA89FB89808180688083EA
:10173000EA89FB8980818F7D8083DF91CF911F9122
:10174000FF90EF90DF90CF9008951F920F920FB609
:101750000F9211240BB60F922F938F939F93EF93B9
:10176000FF93E0917903F0917A038081E0917F0308
:10177000F091800382FD1DC09081809182038F5F74
:101780008F7320918303821741F0E0918203F0E090
:10179000E759FC4F958F80938203FF91EF919F91C2
:1017A0008F912F910F900BBE0F900FBE0F901F9037
:1017B00018958081F2CF1F920F920FB60F921124CD
:1017C0000BB60F922F933F934F935F936F937F933B
:1017D0008F939F93AF93BF93EF93FF9389E693E02B
:1017E0000E94B40AFF91EF91BF91AF919F918F91A9
:1017F0007F916F915F914F913F912F910F900BBE11
:101800000F900FBE0F901F90189589E693E00E94ED
:10181000420A21E0892B09F420E0822F0895E9E6AD
:10182000F3E01382128288EE93E0A0E0B0E08483BC
:101830009583A683B78384EB92E09183808385ECC4
:1018400090E09587848784EC90E09787868780EC8A
:1018500090E0918B808B81EC90E0938B828B82EC7B
:1018600090E0958B848B86EC90E0978B868B118E25
:10187000128E138E148E0895AF92BF92CF92DF9284
:10188000EF92FF920F931F93CF93DF936C017B0135
:101890008B01040F151FEB015E01AE18BF08C017C6
:1018A000D10759F06991D601ED91FC910190F08139
:1018B000E02DC6011995892B79F7C501DF91CF91EC
:1018C0001F910F91FF90EF90DF90CF90BF90AF905E
:1018D0000895FB0101900020E9F73197AF01461B05
:1018E000570BDC01ED91FC910280F381E02D1994FE
:1018F000DB0114964D915C9115976D917C91DC0103
:10190000ED91FC910280F381E02D199462EC72E07C
:101910000C94690C0F931F93CF93DF93EC010E94FB
:10192000780C8C01CE010E94860C800F911FDF91F4
:10193000CF911F910F9108950F931F93CF93DF9332
:101940008C01D0E0C0E06115710519F00E94690CAE
:10195000EC01C8010E94860C8C0F9D1FDF91CF9176
:101960001F910F910895FC01808191810C94F312D5
:10197000CF93DF93EC0188819981009711F00E9449
:10198000F312198218821D821C821B821A82DF9137
:10199000CF9108950F931F93CF93DF93EC018B01A9
:1019A0006F5F7F4F888199810E947C13009751F06F
:1019B000998388831B830A8381E0DF91CF911F91F4
:1019C0000F91089580E0F9CFCF93DF93EC018881E8
:1019D0009981892B49F08A819B818617970720F08E
:1019E00081E0DF91CF910895CE010E94CA0C882337
:1019F000C1F38C819D81892B99F7E881F98110824F
:101A0000EFCFEF92FF920F931F93CF93DF93EC01F1
:101A10007B018A01BA010E94E40C81110BC0CE0146
:101A20000E94B80CCE01DF91CF911F910F91FF90D2
:101A3000EF9008951D830C83B701888199810E94DE
:101A40006614F0CFFC01118210821382128215827B
:101A500014826115710551F0FB0101900020E9F736
:101A60003197AF01461B570B0C94010D0895FB01F4
:101A700001900020E9F73197AF01461B570B0C94FA
:101A8000010DCF93DF93EC016115710531F00E94D8
:101A9000370DCE01DF91CF9108950E94B80CF9CF98
:101AA000EF92FF920F931F93CF93DF93CDB7DEB7E3
:101AB000A1970FB6F894DEBF0FBECDBF7C01CB015E
:101AC000BA01F701118210821382128215821482E8
:101AD00042E0420F8E010F5F1F4F0E943912BC017E
:101AE000C7010E94410DA1960FB6F894DEBF0FBE4C
:101AF000CDBFDF91CF911F910F91FF90EF9008958F
:101B0000EF92FF920F931F93CF93DF9361157105AF
:101B100041F480E0DF91CF911F910F91FF90EF9002
:101B2000089541155105B1F07B01EC010C811D8137
:101B3000040F151FB8010E94E40C882351F328817B
:101B400039818C819D81B701820F931F0E94661499
:101B50001D830C8381E0DECFCF93DF93EC01FB018B
:101B600044815581608171810E94800D811103C083
:101B7000CE010E94B80CCE01DF91CF910895CF9392
:101B8000DF93EC016115710539F4CE010E94B80CA8
:101B9000CE01DF91CF910895FB0101900020E9F77C
:101BA0003197AF01461B570B0E94800D882369F3C4
:101BB000EFCF08950E949D0E0E94D90D0E9434031C
:101BC000CFE7DAE00E94D5032097E1F30E947F0A75
:101BD000F9CF1F920F920FB60F9211242F933F93BC
:101BE0008F939F93AF93BF938091070490910804C4
:101BF000A0910904B0910A043091060423E0230F58
:101C00002D3758F50196A11DB11D20930604809330
:101C1000070490930804A0930904B0930A048091E8
:101C20000B0490910C04A0910D04B0910E04019648
:101C3000A11DB11D80930B0490930C04A0930D047F
:101C4000B0930E04BF91AF919F918F913F912F91CF
:101C50000F900FBE0F901F90189526E8230F029645
:101C6000A11DB11DD2CF2FB7F894609107047091D8
:101C700008048091090490910A042FBF08953FB78A
:101C8000F89480910B0490910C04A0910D04B091F4
:101C90000E0426B5A89B05C02F3F19F00196A11D83
:101CA000B11D3FBFBA2FA92F982F8827BC01CD01A6
:101CB000620F711D811D911D42E0660F771F881F05
:101CC000991F4A95D1F708958F929F92AF92BF9234
:101CD000CF92DF92EF92FF926B017C010E943F0E48
:101CE0004B015C01C114D104E104F104E9F00E944C
:101CF000D00F0E943F0E681979098A099B09683E36
:101D000073408105910570F321E0C21AD108E10802
:101D1000F10888EE880E83E0981EA11CB11CC11446
:101D2000D104E104F10429F7FF90EF90DF90CF9008
:101D3000BF90AF909F908F900895789484B5826003
:101D400084BD84B5816084BD85B5826085BD85B55F
:101D5000816085BDEEE6F0E0808181608083E1E80E
:101D6000F0E0108280818260808380818160808346
:101D7000E0E8F0E0808181608083E1EBF0E0808149
:101D800084608083E0EBF0E0808181608083E1E922
:101D9000F0E0808182608083808181608083E0E9DF
:101DA000F0E0808181608083E1EAF0E08081826000
:101DB0008083808181608083E0EAF0E080818160BF
:101DC0008083E1E2F1E080818260808380818160B4
:101DD0008083E0E2F1E0808181608083EAE7F0E0E7
:101DE0008081846080838081826080838081816043
:101DF00080838081806880831092C1000895815023
:101E0000823108F05AC0E82FF0E08827E55FF04FF4
:101E10008F4F0C94F30F2B0F2F0F1D0F230F270F36
:101E20005D0F320F380F3C0F420F460F4A0F500F15
:101E3000540F5D0F580F5E0F620F809180008F77F7
:101E4000809380000895809180008F7DF9CF8091EC
:101E50008000877FF5CF84B58F7784BD089584B5E2
:101E60008F7DFBCF8091B0008F778093B000089575
:101E70008091B0008F7DF9CF809190008F77809313
:101E800090000895809190008F7DF9CF809190000F
:101E9000877FF5CF8091A0008F778093A000089571
:101EA0008091A0008F7DF9CF8091A000877FF5CF32
:101EB000809120018F7780932001089580912001E7
:101EC0008F7DF9CF80912001877FF5CFCF93DF936E
:101ED00090E0FC01EC56FD4F249186529D4FFC0191
:101EE00084918823C9F090E0880F991FFC01E65C7B
:101EF000FC4FA591B491FC01E05EFC4FC591D491DB
:101F000061110DC09FB7F8948C91209582238C931A
:101F10008881282328839FBFDF91CF910895623065
:101F200051F49FB7F8943C91822F809583238C9332
:101F3000E8812E2BEFCF8FB7F894EC912E2B2C93BA
:101F40008FBFEACF1F93CF93DF93282F30E0F901A3
:101F5000E25BFD4F8491F901EC56FD4FD491F901FC
:101F6000E652FD4FC491CC23A9F0162F81110E9497
:101F7000FF0EEC2FF0E0EE0FFF1FE05EFC4FA5918F
:101F8000B4918FB7F894EC91111108C0D095DE236D
:101F9000DC938FBFDF91CF911F910895DE2BF8CF97
:101FA0000895A1E21A2EAA1BBB1BFD010DC0AA1F9A
:101FB000BB1FEE1FFF1FA217B307E407F50720F0B2
:101FC000A21BB30BE40BF50B661F771F881F991F2D
:101FD0001A9469F760957095809590959B01AC0176
:101FE000BD01CF010895EE0FFF1F881F8BBF079023
:101FF000F691E02D19945058BB27AA270E94131080
:102000000C948D110E947F1138F00E94861120F0EF
:1020100039F49F3F19F426F40C947C110EF4E095EA
:10202000E7FB0C947611E92F0E949E1158F3BA1722
:10203000620773078407950720F079F4A6F50C94DE
:10204000C0110EF4E0950B2EBA2FA02D0B01B90193
:1020500090010C01CA01A0011124FF27591B99F01E
:10206000593F50F4503E68F11A16F040A22F232F2A
:10207000342F4427585FF3CF469537952795A7957A
:10208000F0405395C9F77EF41F16BA0B620B730B21
:10209000840BBAF09150A1F0FF0FBB1F661F771F92
:1020A000881FC2F70EC0BA0F621F731F841F48F447
:1020B000879577956795B795F7959E3F08F0B0CFD0
:1020C0009395880F08F09927EE0F979587950895B7
:1020D0000E94521108F481E008950E9481100C942E
:1020E0008D110E94861158F00E947F1140F029F452
:1020F0005F3F29F00C94761151110C94C1110C948E
:102100007C110E949E1168F39923B1F3552391F33A
:10211000951B550BBB27AA2762177307840738F056
:102120009F5F5F4F220F331F441FAA1FA9F335D0B3
:102130000E2E3AF0E0E832D091505040E695001C67
:10214000CAF72BD0FE2F29D0660F771F881FBB1F21
:10215000261737074807AB07B0E809F0BB0B802DFF
:10216000BF01FF2793585F4F3AF09E3F510578F02B
:102170000C9476110C94C1115F3FE4F3983ED4F3B4
:10218000869577956795B795F7959F5FC9F7880FFF
:10219000911D9695879597F90895E1E0660F771F51
:1021A000881FBB1F621773078407BA0720F0621BE2
:1021B000730B840BBA0BEE1F88F7E09508950E940D
:1021C000E6106894B1110C94C11108950E94A611F3
:1021D00088F09F5798F0B92F9927B751B0F0E1F0E8
:1021E000660F771F881F991F1AF0BA95C9F714C098
:1021F000B13091F00E94C011B1E008950C94C0116B
:10220000672F782F8827B85F39F0B93FCCF38695D0
:1022100077956795B395D9F73EF49095809570952D
:1022200061957F4F8F4F9F4F0895E89409C097FBAA
:102230003EF490958095709561957F4F8F4F9F4F9D
:102240009923A9F0F92F96E9BB279395F6958795E1
:1022500077956795B795F111F8CFFAF4BB0F11F4A4
:1022600060FF1BC06F5F7F4F8F4F9F4F16C088234B
:1022700011F096E911C0772321F09EE8872F762F81
:1022800005C0662371F096E8862F70E060E02AF0C2
:102290009A95660F771F881FDAF7880F96958795AE
:1022A00097F90895990F0008550FAA0BE0E8FEEF83
:1022B00016161706E807F907C0F012161306E4070A
:1022C000F50798F0621B730B840B950B39F40A2603
:1022D00061F0232B242B252B21F408950A2609F4E1
:1022E000A140A6958FEF811D811D089597F99F67E5
:1022F00080E870E060E008959FEF80EC089500248E
:102300000A941616170618060906089500240A945A
:1023100012161306140605060895092E0394000CE0
:1023200011F4882352F0BB0F40F4BF2B11F460FF6F
:1023300004C06F5F7F4F8F4F9F4F089557FD905898
:10234000440F551F59F05F3F71F04795880F97FB79
:10235000991F61F09F3F79F0879508951216130633
:102360001406551FF2CF4695F1DF08C01616170662
:102370001806991FF1CF8695710561050894089597
:10238000E894BB2766277727CB0197F908950E9429
:10239000521108F48FEF08950E94DF110C948D11F3
:1023A0000E947F1138F00E94861120F0952311F0D1
:1023B0000C9476110C947C1111240C94C1110E9480
:1023C0009E1170F3959FC1F3950F50E0551F629FCA
:1023D000F001729FBB27F00DB11D639FAA27F00D7E
:1023E000B11DAA1F649F6627B00DA11D661F829FA5
:1023F0002227B00DA11D621F739FB00DA11D621F8A
:10240000839FA00D611D221F749F3327A00D611DA6
:10241000231F849F600D211D822F762F6A2F112488
:102420009F5750409AF0F1F088234AF0EE0FFF1FBB
:10243000BB1F661F771F881F91505040A9F79E3F12
:10244000510580F00C9476110C94C1115F3FE4F3B8
:10245000983ED4F3869577956795B795F795E79568
:102460009F5FC1F7FE2B880F911D9695879597F971
:102470000895EF920F931F93CF93DF93E80134E019
:1024800047FD34E1042E000C550B57FF03C0519556
:1024900041955109E32E022F242FAE010E946D14A5
:1024A000CE01DF91CF911F910F91EF9008950F937F
:1024B0001F93CF93DF938230910510F482E090E078
:1024C000E0911104F091120430E020E0B0E0A0E0CF
:1024D000309799F42115310509F44AC0281B390BAE
:1024E00024303105D8F58A819B816115710589F108
:1024F000FB0193838283FE0111C0408151810281DF
:10250000138148175907E0F04817590799F41097B5
:1025100061F012960C93129713961C933296CF018A
:10252000DF91CF911F910F910895009311041093A3
:102530001204F4CF2115310551F04217530738F03A
:10254000A901DB019A01BD01DF01F801C1CFEF0153
:10255000F9CF9093120480931104CDCFFE01E20FC6
:10256000F31F819391932250310939832883D7CF68
:1025700020910F0430911004232B41F4209102028A
:10258000309103023093100420930F042091000235
:10259000309101022115310541F42DB73EB740912C
:1025A000040250910502241B350BE0910F04F091B9
:1025B0001004E217F307A0F42E1B3F0B281739076E
:1025C00078F0AC014E5F5F4F2417350748F04E0F8F
:1025D0005F1F5093100440930F04819391939FCFFA
:1025E000F0E0E0E09CCFCF93DF930097E9F0FC01AF
:1025F000329713821282A0911104B0911204ED015E
:1026000030E020E01097A1F420813181820F931FE8
:1026100020910F04309110042817390709F061C088
:10262000F0931004E0930F04DF91CF910895EA0135
:10263000CE17DF07E8F54A815B819E014115510500
:10264000B1F7E901FB83EA8349915991C40FD51F82
:10265000EC17FD0761F4808191810296840F951F2C
:10266000E90199838883828193819B838A83F0E047
:10267000E0E012968D919C9113970097B9F52D91FA
:102680003C911197CD010296820F931F20910F0468
:10269000309110042817390739F6309751F5109208
:1026A000120410921104B0931004A0930F04BCCF35
:1026B000D383C28340815181840F951FC817D907E6
:1026C00061F44E5F5F4F88819981480F591F518394
:1026D00040838A819B81938382832115310509F090
:1026E000B0CFF0931204E09311049ECFFD01DC0102
:1026F000C0CF13821282D7CF4F925F926F927F9298
:102700008F929F92AF92BF92CF92DF92EF92FF9201
:102710000F931F93CF93DF938C01009799F4CB0114
:10272000DF91CF911F910F91FF90EF90DF90CF90AD
:10273000BF90AF909F908F907F906F905F904F90E1
:102740000C945712FC01E60FF71F9C01225031092F
:10275000E217F30708F4AEC0D901CD91DC911197CF
:10276000C617D70720F1C530D10578F0CE01049700
:102770008617970750F0C61BD70B2297C193D193AA
:102780006D937C93CF010E94F312C801DF91CF912A
:102790001F910F91FF90EF90DF90CF90BF90AF907F
:1027A0009F908F907F906F905F904F9008955B0106
:1027B000AC1ABD0A4C018C0E9D1EA0911104B09163
:1027C0001204512C412CF12CE12C109731F5809101
:1027D0000F04909110048815990509F05CC0461605
:1027E000570608F058C080910002909101020097AE
:1027F00041F48DB79EB74091040250910502841BAD
:10280000950BE817F90708F055C0F0931004E09312
:102810000F04F90171836083B8CF8D919C9111975A
:1028200012966C90129713967C901397A815B90581
:1028300059F56C0142E0C40ED11CCA14DB0420F12E
:10284000AC014A195B09DA011296159780F0628291
:10285000738251834083D9016D937C93E114F10419
:1028600071F0D7011396FC93EE9312978ECF2296B8
:102870008C0F9D1FF90191838083F301EFCFF093BB
:102880001204E093110481CF4816590608F42C0174
:102890007D01D3019ACFCB010E9457127C01009792
:1028A00049F0AE01B8010E945D14C8010E94F31204
:1028B00087016BCF10E000E068CFFB01DC0102C0B4
:1028C00001900D9241505040D8F70895FB01DC0172
:1028D00001900D920020E1F708958F929F92AF92A0
:1028E000BF92CF92DF92EF92FF920F931F93CF93FD
:1028F000DF9300D000D000D0CDB7DEB76A01F22E52
:10290000B02E102FFBE3AF2EA01608F41BE31F5FC1
:10291000012F27E0AE014F5F5F4F0E94E615BC011B
:102920008981982F9970913009F44EC09BE2E1FCA7
:1029300004C09E2D9170E0FC49C05E2D5071E82FBF
:10294000E87083FF55C084E0911101C083E0EF2D52
:10295000E81B8F1508F0E0E0D6018E2F20E255230A
:10296000C9F1992329F0D6019C93C60101966C0107
:1029700096012D5F3F4FE2FE33C08EE4D6018C936B
:1029800091E411969C93119712968C93D9018E2FF6
:1029900090E281112AC0E20FF32FF11D10828EEF19
:1029A0009FEF29960FB6F894DEBF0FBECDBFDF9123
:1029B000CF911F910F91FF90EF90DF90CF90BF903C
:1029C000AF909F908F9008959DE2B7CF90E2B5CFE2
:1029D0002D9381508111FCCFCE0ED11CE0E0C1CFF0
:1029E0008EE6D6018C9391E6CCCF9D938150D1CFCA
:1029F000482F447082FF3DC084E0911101C083E004
:102A00008F1510F4EF2DE81BD6018E2F20E25523F1
:102A100009F1992329F0D6019C93C60101966C0116
:102A200096012D5F3F4FE2FE1BC089E4D6018C93D7
:102A30008EE411968C93119786E412968C93D901AB
:102A40008E2F90E2882309F4A6CF9D938150FACF70
:102A50002D9381508111FCCFCE0ED11CE0E0D9CF57
:102A600089E6D6018C938EE611968C93119786E6B3
:102A7000E4CF9B0177FF02C030E020E0A1E0B0E0AE
:102A8000911102C0B0E0A0E0F9013196AE0FBF1F76
:102A90008B2C912CBB2009F461C05401EFEFAE1ACE
:102AA000BE0AAA0DBB1DFA161B0619F014F04F2D15
:102AB0004A1B511188C0E3FC59C07601A42FB0E233
:102AC000A1114FC0C40ED11C992309F45BC040E092
:102AD000D6011196F60190836D01552309F448C083
:102AE000012F060F9A81582F507184FF03C0913334
:102AF00009F4015010160CF047C0093008F008E046
:102B0000EEE2FE2E5B01A01AB1088501919481943A
:102B100091082F3F320729F4D601FC92F601319635
:102B20006F016217730794F1021713077CF5DB013D
:102B3000A21BB30BAA24A394B12CAC0EBD1EAA0DEC
:102B4000BB1D11968C9121503109D6011196281583
:102B50003905F4F0F60180836D01DBCFB12CA12C97
:102B6000A0CFF701B1937F01A150AACF9111B0CFAF
:102B7000D601942F50E302C05D9391509111FCCF88
:102B8000C40ED11C40E0ACCF01E0BACF80E3DBCF74
:102B90006217730731F4963388F4953311F4552393
:102BA00069F0F6018083FD01842F90E2811108C055
:102BB000A40FB11D1C9290E080E0F3CE81E3F1CF31
:102BC00091938150F3CF911183CF8ACF283008F0B1
:102BD00027E03327DA01990F311D87FD91600096B8
:102BE0006105710539F432602E5F3D9330E32A951B
:102BF000E1F708959F3F30F080387105610509F0D5
:102C00003C5F3C5F3D93913008F08068911DDF93FD
:102C1000CF931F930F93FF92EF92192F987F969562
:102C2000E92F96959695E90FFF27E255FE4F9927D4
:102C30003327EE24FF24A701E701059008940794A9
:102C400028F4360FE71EF81E491F511D660F771F27
:102C5000881F991F0694A1F70590079428F4E70EA2
:102C6000F81E491F561FC11D770F881F991F661F29
:102C70000694A1F70590079428F4F80E491F561FF3
:102C8000C71FD11D880F991F661F771F0694A1F7D4
:102C90000590079420F4490F561FC71FD81F990F9E
:102CA000661F771F881F0694A9F7849110951770E7
:102CB00041F0D695C79557954795F794E7941A959F
:102CC000C1F7E4E5F1E068941590159135916591AF
:102CD000959105907FE27395E118F10A430B560B2D
:102CE000C90BD009C0F7E10CF11E431F561FC91FC5
:102CF000D01D7EF4703311F48A95E6CFE89401502C
:102D000030F0080F0AF40027021708F4202F23954B
:102D1000022F7A3328F079E37D932A95E9F710C0E2
:102D20007D932A9589F6069497956795379517951B
:102D30001794E118F10A430B560BC90BD00998F010
:102D400023957E9173957A3308F070E37C9320137A
:102D5000B8F77E9170617D9330F0839571E37D9338
:102D600070E32A95E1F71124EF90FF900F911F91E6
:102D7000CF91DF91992787FD90950895F894FFCF23
:102D8000000013048000FFFF0000C8420000204143
:102D9000000020410000A0410000803F43414E2040
:102DA0005772697465202D2054657374696E6720AD
:102DB0007472616E736D697373696F6E206F6620D4
:102DC00043414E20427573206D657373616765736F
:102DD0000043414E20496E6974206F6B0043616E61
:102DE000277420696E69742043414E0044697374EE
:102DF000616E7A3A202000205475726E656420411D
:102E00006E676C653A200020207C20204F7574701E
:102E1000757420504944446973743A200020204F4F
:102E20007574707574205049445475726E3A200060
:102E300000000000F60A3C0C700AD60A420A5C0A3E
:062E40004E0A0D0A00001D
:00000001FF
