:100000000C94AC010C94DD010C94DD010C94DD0129
:100010000C94DD010C94DD010C94DD010C94DD01E8
:100020000C94DD010C94DD010C94DD010C94DD01D8
:100030000C94DD010C94DD010C94DD010C94DD01C8
:100040000C94DD010C94DD010C94DD010C94DD01B8
:100050000C94DD010C94DD010C94DD010C94CF0DAA
:100060000C94DD010C948B0B0C94C10B0C94DD01F2
:100070000C94DD010C94DD010C94DD010C94DD0188
:100080000C94DD010C94DD010C94DD010C94DD0178
:100090000C94DD010C94DD010C94DD010C94DD0168
:1000A0000C94DD010C94DD010C94DD010C94DD0158
:1000B0000C94DD010C94DD010C94DD010C94DD0148
:1000C0000C94DD010C94DD010C94DD010C94DD0138
:1000D0000C94DD010C94DD010C94DD010C94DD0128
:1000E0000C94DD010C94110F0C94F50B0C941E0F65
:1000F0000C94480F0C94EB0B0C94360F0C94BC0A28
:100100000C94DC0A0C94220C0C94280F0C942C0FE9
:100110000C94300F0C943E0F0C94440F0C94430F2E
:100120000C94090F0C94280A0C94560A0C940D0F89
:100130000C943A0F0C94340A0C94150F0C94BC04D4
:100140000C94030F0C94420A0C94180F0C94650A3B
:100150000C94220F00407A10F35A00A0724E180936
:100160000010A5D4E80000E87648170000E40B541E
:10017000020000CA9A3B000000E1F50500008096ED
:100180009800000040420F000000A086010000001F
:10019000102700000000E8030000000064000000D9
:1001A00000000A00000000000100000000002C76A2
:1001B000D888DC674F0823DFC1DFAE59E1B1B796BD
:1001C000E5E3E453C63AE651997696E8E6C284261A
:1001D000EB898C9B62ED407C6FFCEFBC9C9F40F2F6
:1001E000BAA56FA5F490055A2AF75C936B6CF96772
:1001F0006DC11BFCE0E40D47FEF520E6B500D0ED37
:10020000902E0300943577050080841E080000209E
:100210004E0A000000C80C333333330F986E12833C
:100220001141EF8D2114893BE65516CFFEE6DB1810
:10023000D1844B381BF77C1D901DA4BBE4242032D5
:1002400084725E228100C9F124ECA1E53D27000003
:100250000A0B02090C0D0E08070304010000000040
:10026000000000000000000000000000000000008E
:10027000000000000000000000001211100000004B
:10028000000000000000000000000000000000006E
:10029000000000000102102020080810204010205B
:1002A000408002010201080402010102040810203A
:1002B0004080804020100804020180040201804038
:1002C00020100804020108040201010204081020A1
:1002D000408001020408102040800505050507053F
:1002E00008080808020202020A0A080804040404B2
:1002F00001010101010101010303030303030303DE
:10030000040707070C0C0C0C0C0C0C0C020202026C
:1003100006060606060606060B0B0B0B0B0B0B0B55
:1003200000002200250028002B002E0031003400A0
:1003300002010000050108010B010000210024005A
:1003400027002A002D0030003300010100000401C5
:1003500007010A01BC04F50B11241FBECFEFD1E247
:10036000DEBFCDBF00E00CBF12E0A0E0B2E0ECE4E5
:10037000FDE200E00BBF02C007900D92AC3AB1075E
:10038000D9F723E0ACEAB2E001C01D92A13FB20769
:10039000E1F711E0CCEAD1E000E006C021970109C5
:1003A000802FFE010E94D90FCA3AD10780E00807CA
:1003B000A9F70E94C00D0C94A4160C9400004F9253
:1003C0005F926F927F928F929F92AF92BF92CF92E5
:1003D000DF92EF92FF920F931F93CF93DF9300D0A2
:1003E00000D000D01F921F92CDB7DEB7E982FA820B
:1003F0000B831C832D833E834F83588769877A87BD
:100400008B87CE0101960E94BD05882309F4D5C0D3
:1004100089819A818F3F974009F0CFC0B884A98421
:100420007A846B840E94190E6B017093AD02609305
:10043000AC0200910602109107020F3F100709F469
:10044000B6C06A2D70E0762F66276B0D711D072EE2
:10045000000C880B990B0E94FD1027ED33EA4AEA45
:1004600051E40E9453102BED3FE049EC50E40E9410
:10047000B21120E030E040E752E40E94531027ED33
:1004800033EA40E35EE30E94B2114B015C01662D4A
:1004900070E0762F6627670D711D072E000C880B04
:1004A000990B0E94FD1027ED33EA4AEA51E40E94BD
:1004B00053102BED3FE049EC50E40E94B21120E0D4
:1004C00030E040E752E40E94531027ED33EA40E366
:1004D0005EE30E94B2112B013C01C01AD10AB601A1
:1004E000DD0C880B990B0E94FD106B017C01A501AE
:1004F0009401C301B2010E94E10F28EB3EE145E007
:100500005FE30E945310A70196010E94B21120E000
:1005100030E04AE754E40E94531020E030E044E326
:1005200053E40E94B2112BED3FE049E450E40E94F5
:1005300053109B01AC0160913E0370913F03809189
:100540004003909141030E94E20F60933E03709339
:100550003F038093400390934103A3019201C5019F
:10056000B4010E94E20F20E030E040E05FE30E942F
:10057000B211A70196010E94B21120E030E04AE7D3
:1005800054E40E9453109B01AC016091F2027091FF
:10059000F3028091F4029091F5020E94E20F6093C1
:1005A000F2027093F3028093F4029093F5020E949A
:1005B000190E70930702609306022B960FB6F894FB
:1005C000DEBF0FBECDBFDF91CF911F910F91FF9086
:1005D000EF90DF90CF90BF90AF909F908F907F90E3
:1005E0006F905F904F900895AF92BF92CF92DF923D
:1005F000EF92FF920F931F93CF93DF9300D000D021
:1006000000D01F921F92CDB7DEB7588769877A87CF
:100610008B878EE390E09A838983007E00610B8351
:10062000CC82DD82AE82BF8240E060EE8FE00E942D
:100630004C05CE0101960E9421066AE070E080E040
:1006400090E00E944A0E2B960FB6F894DEBF0FBEC4
:10065000CDBFDF91CF911F910F91FF90EF90DF9071
:10066000CF90BF90AF900895CF92DF92EF92FF921C
:100670000F931F9326E040E855E260E070E087E4C6
:1006800093E00E94290B61E086E10E944C0F61E03B
:1006900086E10E94880F6AE070E080E090E00E94AE
:1006A0004A0E68E172E087E493E00E94820C68EEF3
:1006B00073E080E090E00E944A0E63E086E493E0FD
:1006C0000E9483066DE472E0811102C069E572E068
:1006D00087E493E00E94820C68EE73E080E090E093
:1006E0000E944A0E8091420390914303A0914403DB
:1006F000B091450380933A0390933B03A0933C034E
:10070000B0933D03109232031092330310923403DE
:100710001092350361E070E086EF92E00E943009AC
:10072000C0900C02D0900D02E0900E02F0900F02EB
:1007300000911002109111022091120230911302C7
:1007400040911402509115026091160270911702A7
:1007500086EF92E00E94D30861E070E08EEA92E0BA
:100760000E943009C0900C02D0900D02E0900E0261
:10077000F0900F02009110021091110220911202CC
:1007800030911302409114025091150260911602AB
:10079000709117028EEA92E00E94D3081F910F9188
:1007A000FF90EF90DF90CF900895AF92BF92CF92DD
:1007B000DF92EF92FF920F931F93CF93DF93CDB70A
:1007C000DEB7A3970FB6F894DEBF0FBECDBFE980AA
:1007D000FA800B811C812D813E814F81588569856E
:1007E0007A858B850E94DF018091420390914303BB
:1007F000A0914403B091450380933A0390933B0347
:10080000A0933C03B0933D0380913E0390913F033E
:10081000A0914003B0914103809336039093370336
:10082000A0933803B093390386EF92E00E948606C6
:100830008091F2029091F302A091F402B091F5023E
:100840008093EE029093EF02A093F002B093F10236
:100850008EEA92E00E94860640913E0350913F034B
:10086000609140037091410322E0CE010C960E94FA
:10087000360D4091320350913303609134037091EF
:10088000350322E0CE0142960E94360D4091F202DD
:100890005091F3026091F4027091F50222E0CE01D2
:1008A0004E960E94360D68E672E0CE0148960E9490
:1008B000080DBE01625E7F4FCE0148960E94920DE8
:1008C00063E772E00E94A50DBE016E5E7F4F0E943D
:1008D000920D65E872E00E94A50DBE01645F7F4F36
:1008E0000E94920DBC0187E493E00E94700CCE013F
:1008F00048960E94990CCE014E960E94990CCE010A
:1009000042960E94990CCE010C960E94990C60911F
:1009100032037091330380913403909135039058E2
:100920000E94C5105B016091EA027091EB02809118
:10093000EC029091ED020E94C5106B01E980FA80F3
:100940000B811C812D813E814F81588569857A8577
:100950008B850E94F402A3960FB6F894DEBF0FBEFB
:10096000CDBFDF91CF911F910F91FF90EF90DF905E
:10097000CF90BF90AF900895AF92BF92CF92DF9289
:10098000EF92FF920F931F93A0901002B09011026C
:10099000C0901202D0901302E0901402F090150261
:1009A00000911602109117021F921F9280910F0260
:1009B0008F9380910E028F9380910D028F9380917F
:1009C0000C028F932AE333E042E353E066E373E0E3
:1009D00086EF92E00E94F609A0901002B0901102FA
:1009E000C0901202D0901302E0901402F090150211
:1009F00000911602109117021F921F9280910F0210
:100A00008F9380910E028F9380910D028F9380912E
:100A10000C028F9328E032E04AEE52E06EEE72E074
:100A20008EEA92E00E94F6098DB79EB70C960FB63B
:100A3000F8949EBF0FBE8DBF1F910F91FF90EF9056
:100A4000DF90CF90BF90AF9008958EBD0DB407FE9C
:100A5000FDCF8EB50895CF93DF93D82FC62F28985A
:100A600082E00E9425058D2F0E9425058C2F0E9473
:100A70002505289ADF91CF910895CF93C82F289804
:100A800083E00E9425058C2F0E9425058FEF0E9490
:100A90002505289ACF9108951F93CF93DF93182FA0
:100AA000D62FC42F289885E00E942505812F0E940B
:100AB00025058D2F0E9425058C2F0E942505289A3B
:100AC000DF91CF911F91089528980E9425058FEFFF
:100AD0000E942505289A0895CF93C82F289A209A16
:100AE00029982A982B98219A229A23986C98749A7C
:100AF00081E58CBD1DBC289880EC0E942505289AB4
:100B000087EC90E00197F1F700C00000289882E0A0
:100B10000E94250588E20E94250582E00E942505A5
:100B200080E90E9425058C2F0E94250583E00E9404
:100B30002505289A8AE20E943D058C1741F0809194
:100B4000020180628093020180E0CF91089560E00D
:100B50008CE00E942B0560E08DE00E942B0560E692
:100B600080E60E942B0560E680E70E942B0560E08E
:100B70008FE00E942B0581E0E8CFEF92FF920F9368
:100B80001F93CF93DF938C0180EB0E946405C82FE5
:100B9000282F2074E22E86FD05C084E9C7FD03C01E
:100BA00080E040C080E928980E9425058FEF0E94D0
:100BB0002505E8E08E9FC0011124F8019183808310
:100BC0008FEF0E942505282F229526952770F80182
:100BD00080819181822B918380838FEF0E942505F4
:100BE0008FEF0E9425058FEF0E9425058F70F82E4C
:100BF000982F990FF8018281817E892BC3FB80F9A0
:100C000082830D5F1F4FD0E0DF1113C0289A40E0B0
:100C100061E0E11001C062E08CE20E944C058C2F83
:100C200087708F5FDF91CF911F910F91FF90EF90B1
:100C300008958FEF0E942505F80181938F01DF5FF2
:100C4000E3CFFF920F931F93CF93DF938C0180EA42
:100C50000E94640582FF07C084FF44C0C4E086FF91
:100C600003C0C0E038C0C0E028988C2F80640E9488
:100C70002505F8018081918123E0969587952A9535
:100C8000E1F70E942505F80180818295880F807E1A
:100C90000E94250580E00E94250580E00E94250530
:100CA000F8018281D82FD695DF7080FF1DC08D2F6F
:100CB00080640E942505289A87EC90E00197F1F75F
:100CC00000C000002898C11101C0C1E08C2F8068CD
:100CD0000E942505289A8C2FDF91CF911F910F91AB
:100CE000FF900895C2E0C0CF8D2F0E9425050D5FB3
:100CF0001F4FF12CFD16F9F2F80181918F010E942E
:100D00002505F394F7CF862F0C946C052F923F9214
:100D10004F925F926F927F928F929F92AF92BF920B
:100D2000CF92DF92EF92FF920F931F93CF93DF93B7
:100D3000CDB7DEB760970FB6F894DEBF0FBECDBF5C
:100D4000DC01DA96BC91BD83B1111BC01D828D817F
:100D500060960FB6F894DEBF0FBECDBFDF91CF9186
:100D60001F910F91FF90EF90DF90CF90BF90AF90C9
:100D70009F908F907F906F905F904F903F902F90BB
:100D80000895988B8F870E94190E6B877C878D87BB
:100D90009E87EF85F88982A193A1A4A1B5A12B8597
:100DA0003C854D855E85281B390B4A0B5B0BDA01B0
:100DB000C90146A557A560A971A984179507A6077B
:100DC000B70720F2048CF58DE02D80819181A281FE
:100DD000B38189839A83AB83BC83AF85B8899096AE
:100DE000ED91FC9129813A814B815C816081718117
:100DF000828193810E94E10F4B015C01EF85F889AC
:100E000022A533A544A555A569817A818B819C8152
:100E10000E94E10F6B017C01AF85B88950962D913E
:100E20003D914D915C915397C501B4010E94B2115F
:100E3000EF85F88926A137A140A551A50E94E20FB0
:100E40002B013C01AF85B88996964D925D926D92CB
:100E50007C929997DB96BC91BE83B11118C0EF8547
:100E6000F8892485358546855785C701B6010E94D6
:100E7000B2119B01AC01C301B2010E94E10FAF8529
:100E8000B88996966D937D938D939C939997EF85F2
:100E9000F88946A057A060A471A416A907A930AC90
:100EA00021AC212F302F432D522DC301B2010E94BE
:100EB000AD1118160CF07FC0812F902FA32DB22DED
:100EC000EF85F88986A397A3A0A7B1A7BE81BB230E
:100ED00009F490C0EF85F8892485358546855785C6
:100EE000C501B4010E94B2114B015C01AF85B88904
:100EF00054962D913D914D915C915797C701B60144
:100F00000E94B2119B01AC01EF85F88966A177A11F
:100F100080A591A50E94E10FA50194010E94E20F16
:100F20006B017C019B01AC01612F702F832D922DF1
:100F30000E944E1087FD1BC0AF85B889D2961C91C8
:100F4000D297D3960C91D397D4963C90D497D596BC
:100F50002C909601A701612F702F832D922D0E9456
:100F6000AD11181624F01C2D0D2D3E2C2F2CAF8505
:100F7000B8895E96ED91FC91812F902FA32DB22D13
:100F800080839183A283B38329813A814B815C81E1
:100F9000AF85B8899A962D933D934D935C939D9719
:100FA0002B853C854D855E8592962D933D934D9383
:100FB0005C939597CCCEAF85B889D2962D913D9113
:100FC0004D915C91D5972F83388749875A87C30104
:100FD000B2010E944E1087FF79CF2F813885498555
:100FE0005A85AF85B88996962D933D934D935C9322
:100FF00099976CCF812C912C540178CF4F925F92AE
:101000006F927F928F929F92AF92BF92CF92DF9218
:10101000EF92FF920F931F93CF93DF9300D000D0F6
:10102000CDB7DEB79E838D8349835A836B837C83E0
:101030002801390120E030E0A90169817A818B81A2
:101040009C810E944E1087FD97C020E030E0A901EE
:10105000C301B8010E944E1087FD8EC020E030E031
:10106000A901C701B6010E944E1087FD85C0AD8160
:10107000BE815B96BC92AE925A9781E0AA94AB284F
:1010800009F080E0ED81FE8183AF89819A81AB8197
:10109000BC8180839183A283B3834482558266821C
:1010A0007782C086D186E286F38666A577A580A979
:1010B00091A90E94FB1020E030E04AE754E40E942E
:1010C00053104B015C0189819A81AB81BC81ED8118
:1010D000FE8184879587A687B787A5019401C30100
:1010E000B2010E94B2112B013C01AD81BE8150962C
:1010F0004D925D926D927C925397A5019401C70128
:10110000B6010E9453106B017C01ED81FE81C48AFF
:10111000D58AE68AF78A808D918D019769F52981B4
:101120003A814B815C8160E070E0CB010E94E10F6D
:10113000AD81BE811C966D937D938D939C931F977B
:10114000A301920160E070E0CB010E94E10FED810C
:10115000FE81608B718B828B938BA701960160E07F
:1011600070E0CB010E94E10FAD81BE8154966D937A
:101170007D938D939C93579726960FB6F894DEBF78
:101180000FBECDBFDF91CF911F910F91FF90EF90D8
:10119000DF90CF90BF90AF909F908F907F906F9097
:1011A0005F904F900895AF92BF92CF92DF92EF92EF
:1011B000FF920F931F93FC01A28CB38C0E94FE0739
:1011C0001F910F91FF90EF90DF90CF90BF90AF9065
:1011D00008958F929F92AF92BF92CF92DF92EF923B
:1011E000FF92CF93DF93EC01EE8DFF8DC080D18015
:1011F000E280F380CEA2DFA2E8A6F9A6EC8DFD8DF9
:1012000080819181A281B3818AA79BA7ACA7BDA74A
:101210008EA89FA8A8ACB9ACA5019401C701B601DE
:101220000E94AD1118162CF48EA29FA2A8A6B9A6F2
:101230000CC08AA89BA8ACA8BDA8A5019401C701B1
:10124000B6010E944E1087FDEFCFDF91CF91FF9046
:10125000EF90DF90CF90BF90AF909F908F900895C8
:101260001F93CF93DF93EC0111E06130710509F01A
:1012700010E06130710531F48AAD811103C0CE01F7
:101280000E94E9081AAFDF91CF911F9108950F9343
:101290001F93CF93DF93EC018B018AAD882361F11B
:1012A000888D998D8617970739F12C853D854E8558
:1012B0005F8560E070E0CB010E94E10F6C877D8765
:1012C0008E879F87288939894A895B8960E070E029
:1012D000CB010E94E10F688B798B8A8B9B8B2C89C9
:1012E0003D894E895F8960E070E0CB010E94E10F8B
:1012F0006C8B7D8B8E8B9F8B198F088FDF91CF919D
:101300001F910F9108954F925F926F927F928F92EB
:101310009F92AF92BF92CF92DF92EF92FF920F9384
:101320001F93CF93DF9300D01F92CDB7DEB74C0150
:1013300027013801A982BA82CB82DC82FC01578F57
:10134000468F758F648F31A320A312AE80E090E0AA
:10135000A0EAB2EC82AB93ABA4ABB5AB80E090E07B
:10136000A0EAB2E486AB97ABA0AFB1AF84E690E061
:10137000A0E0B0E086A797A7A0ABB1AB6E8D7F8D44
:10138000C4010E944709AC8CBD8CC88CD98CEA8CF6
:10139000FB8C09811A812B813C81B301A201C4011C
:1013A0000E94FE070E94190EF40146A457A460A8EB
:1013B00071A8641975098609970962A373A384A3A8
:1013C00095A30F900F900F900F90DF91CF911F91E9
:1013D0000F91FF90EF90DF90CF90BF90AF909F90D4
:1013E0008F907F906F905F904F9008958F929F9213
:1013F000AF92BF92CF92DF92EF92FF920F931F9323
:10140000CF93DF93CDB7DEB7E889F989AA89BB8985
:101410009C888D888F929F921F92992493949F927B
:10142000BF93AF93FF93EF930E9483090FB6F89495
:10143000DEBF0FBECDBFDF91CF911F910F91FF9007
:10144000EF90DF90CF90BF90AF909F908F900895D6
:10145000FC01918D228D892F90E0805C9F4F821B33
:1014600091098F7399270895FC01918D828D9817AA
:1014700031F0828DE80FF11D858D90E008958FEF9A
:101480009FEF0895FC01918D828D981761F0A28DD8
:10149000AE0FBF2FB11D5D968C91928D9F5F9F7394
:1014A000928F90E008958FEF9FEF0895FC01538D88
:1014B000448D252F30E0842F90E0821B930B54172E
:1014C00010F0CF960895019708958BEE9BE0892B3D
:1014D00049F080E090E0892B29F00E94EB0B81110C
:1014E0000E94000080E090E0892B49F080E090E0CD
:1014F000892B29F00E94000081110E94000080E0E9
:1015000090E0892B49F080E090E0892B29F00E943F
:10151000000081110E94000080E090E0892B49F0DA
:1015200080E090E0892B29F00E94000081110C944A
:1015300000000895FC01A48DA80FB92FB11DA35A76
:10154000BF4F2C91848D90E001968F739927848FE3
:10155000A689B7892C93A089B1898C918370806406
:101560008C93938D848D981306C00288F389E02DA7
:1015700080818F7D80830895CF93DF93EC01888DE8
:101580008823B9F0AA89BB89E889F9898C9185FDFE
:1015900003C0808186FD0DC00FB607FCF7CF8C918C
:1015A00085FFF2CF808185FFEDCFCE010E949A0AA0
:1015B000E9CFDF91CF910895EF92FF920F931F93A0
:1015C000CF93DF93EC0181E0888F9B8D8C8D9813F6
:1015D0001AC0E889F989808185FF15C09FB7F89402
:1015E000EE89FF896083E889F9898081837080644E
:1015F00080839FBF81E090E0DF91CF911F910F9199
:10160000FF90EF900895F62E0B8D10E00F5F1F4FA7
:101610000F731127E02E8C8D8E110CC00FB607FCB6
:10162000FACFE889F989808185FFF5CFCE010E9444
:101630009A0AF1CFEB8DEC0FFD2FF11DE35AFF4F0E
:10164000F0829FB7F8940B8FEA89FB8980818062D2
:10165000CFCFCF92DF92EF92FF921F93CF93DF9382
:10166000EC016A017B01122FE889F98982E080830D
:10167000C11481EED806E104F104A1F060E079E044
:101680008DE390E0A70196010E94B70F2150310928
:10169000410951095695479537952795211580E1C0
:1016A000380798F0E889F989108260E874E88EE1DB
:1016B00090E0A70196010E94B70F2150310941091E
:1016C00051095695479537952795EC85FD853083CB
:1016D000EE85FF852083188EEC89FD891083EA89C9
:1016E000FB89808180618083EA89FB8980818860B1
:1016F0008083EA89FB89808180688083EA89FB890D
:1017000080818F7D8083DF91CF911F91FF90EF903B
:10171000DF90CF9008951F920F920FB60F92112471
:101720000BB60F922F938F939F93EF93FF93E091BC
:101730005703F09158038081E0915D03F0915E03BF
:1017400082FD1DC09081809160038F5F8F73209117
:101750006103821741F0E0916003F0E0E95BFC4F28
:10176000958F80936003FF91EF919F918F912F91BF
:101770000F900BBE0F900FBE0F901F901895808199
:10178000F2CF1F920F920FB60F9211240BB60F9249
:101790002F933F934F935F936F937F938F939F9379
:1017A000AF93BF93EF93FF9387E493E00E949A0A6D
:1017B000FF91EF91BF91AF919F918F917F916F9129
:1017C0005F914F913F912F910F900BBE0F900FBEE5
:1017D0000F901F90189587E493E00E94280A21E05B
:1017E000892B09F420E0822F0895E7E4F3E01382C7
:1017F000128288EE93E0A0E0B0E084839583A68314
:10180000B7838AE992E09183808385EC90E09587A5
:10181000848784EC90E09787868780EC90E0918BBA
:10182000808B81EC90E0938B828B82EC90E0958BA7
:10183000848B86EC90E0978B868B118E128E138EA4
:10184000148E0895AF92BF92CF92DF92EF92FF92E3
:101850000F931F93CF93DF936C017B018B01040FD8
:10186000151FEB015E01AE18BF08C017D10759F074
:101870006991D601ED91FC910190F081E02DC601B6
:101880001995892B79F7C501DF91CF911F910F91A0
:10189000FF90EF90DF90CF90BF90AF900895FB0145
:1018A00001900020E9F73197AF01461B570BDC018F
:1018B000ED91FC910280F381E02D1994DB011496E7
:1018C0004D915C9115976D917C91DC01ED91FC91AE
:1018D0000280F381E02D199468EA72E00C944F0CB9
:1018E0000F931F93CF93DF93EC010E945E0C8C014A
:1018F000CE010E946C0C800F911FDF91CF911F9140
:101900000F9108950F931F93CF93DF938C01D0E035
:10191000C0E06115710519F00E944F0CEC01C8017F
:101920000E946C0C8C0F9D1FDF91CF911F910F9126
:101930000895FC01808191810C94D912CF93DF939B
:10194000EC0188819981009711F00E94D9121982C7
:1019500018821D821C821B821A82DF91CF9108950A
:101960000F931F93CF93DF93EC018B016F5F7F4F3A
:10197000888199810E946213009751F0998388832E
:101980001B830A8381E0DF91CF911F910F9108950E
:1019900080E0F9CFCF93DF93EC0188819981892B87
:1019A00049F08A819B818617970720F081E0DF91BB
:1019B000CF910895CE010E94B00C8823C1F38C8191
:1019C0009D81892B99F7E881F9811082EFCFEF9201
:1019D000FF920F931F93CF93DF93EC017B018A015A
:1019E000BA010E94CA0C81110BC0CE010E949E0C4C
:1019F000CE01DF91CF911F910F91FF90EF9008954D
:101A00001D830C83B701888199810E944C14F0CF0B
:101A1000FC011182108213821282158214826115D8
:101A2000710551F0FB0101900020E9F73197AF01FA
:101A3000461B570B0C94E70C0895FB010190002006
:101A4000E9F73197AF01461B570B0C94E70CCF9386
:101A5000DF93EC016115710531F00E941D0DCE017F
:101A6000DF91CF9108950E949E0CF9CFEF92FF92E3
:101A70000F931F93CF93DF93CDB7DEB7A1970FB628
:101A8000F894DEBF0FBECDBF7C01CB01BA01F701D8
:101A900011821082138212821582148242E0420F58
:101AA0008E010F5F1F4F0E941F12BC01C7010E94D1
:101AB000270DA1960FB6F894DEBF0FBECDBFDF9104
:101AC000CF911F910F91FF90EF900895EF92FF92A9
:101AD0000F931F93CF93DF936115710541F480E05D
:101AE000DF91CF911F910F91FF90EF9008954115D5
:101AF0005105B1F07B01EC010C811D81040F151F14
:101B0000B8010E94CA0C882351F3288139818C8145
:101B10009D81B701820F931F0E944C141D830C837B
:101B200081E0DECFCF93DF93EC01FB01448155814F
:101B3000608171810E94660D811103C0CE010E94F7
:101B40009E0CCE01DF91CF910895CF93DF93EC01EE
:101B50006115710539F4CE010E949E0CCE01DF9112
:101B6000CF910895FB0101900020E9F73197AF0173
:101B7000461B570B0E94660D882369F3EFCF08952B
:101B80000E94830E0E94BF0D0E943403C5E6DAE076
:101B90000E94D5032097E1F30E94650AF9CF1F92B6
:101BA0000F920FB60F9211242F933F938F939F9311
:101BB000AF93BF938091E5039091E603A091E70373
:101BC000B091E8033091E40323E0230F2D3758F55B
:101BD0000196A11DB11D2093E4038093E50390932A
:101BE000E603A093E703B093E8038091E9039091A3
:101BF000EA03A091EB03B091EC030196A11DB11D86
:101C00008093E9039093EA03A093EB03B093EC0372
:101C1000BF91AF919F918F913F912F910F900FBEE8
:101C20000F901F90189526E8230F0296A11DB11D55
:101C3000D2CF2FB7F8946091E5037091E6038091BD
:101C4000E7039091E8032FBF08953FB7F894809180
:101C5000E9039091EA03A091EB03B091EC0326B560
:101C6000A89B05C02F3F19F00196A11DB11D3FBFD4
:101C7000BA2FA92F982F8827BC01CD01620F711DA3
:101C8000811D911D42E0660F771F881F991F4A959D
:101C9000D1F708958F929F92AF92BF92CF92DF9229
:101CA000EF92FF926B017C010E94250E4B015C01BB
:101CB000C114D104E104F104E9F00E94B60F0E94BE
:101CC000250E681979098A099B09683E73408105C8
:101CD000910570F321E0C21AD108E108F10888EEFD
:101CE000880E83E0981EA11CB11CC114D104E1042C
:101CF000F10429F7FF90EF90DF90CF90BF90AF9065
:101D00009F908F900895789484B5826084BD84B547
:101D1000816084BD85B5826085BD85B5816085BDE6
:101D2000EEE6F0E0808181608083E1E8F0E01082FF
:101D3000808182608083808181608083E0E8F0E040
:101D4000808181608083E1EBF0E08081846080832A
:101D5000E0EBF0E0808181608083E1E9F0E0808168
:101D600082608083808181608083E0E9F0E080810F
:101D700081608083E1EAF0E08081826080838081FD
:101D800081608083E0EAF0E0808181608083E1E22D
:101D9000F1E0808182608083808181608083E0E2E5
:101DA000F1E0808181608083EAE7F0E080818460F7
:101DB0008083808182608083808181608083808154
:101DC000806880831092C10008958150823108F0AC
:101DD0005AC0E82FF0E08827EF50F14F8F4F0C9456
:101DE000D90F110F150F030F090F0D0F430F180F08
:101DF0001E0F220F280F2C0F300F360F3A0F430FF4
:101E00003E0F440F480F809180008F7780938000B1
:101E10000895809180008F7DF9CF80918000877F29
:101E2000F5CF84B58F7784BD089584B58F7DFBCFC2
:101E30008091B0008F778093B00008958091B000BA
:101E40008F7DF9CF809190008F77809390000895D7
:101E5000809190008F7DF9CF80919000877FF5CFA2
:101E60008091A0008F778093A00008958091A000BA
:101E70008F7DF9CF8091A000877FF5CF80912001E1
:101E80008F77809320010895809120018F7DF9CF75
:101E900080912001877FF5CFCF93DF9390E0FC0105
:101EA000EC56FD4F249186529D4FFC01849188236E
:101EB000C9F090E0880F991FFC01E65CFC4FA591EA
:101EC000B491FC01E05EFC4FC591D49161110DC04D
:101ED0009FB7F8948C91209582238C938881282336
:101EE00028839FBFDF91CF910895623051F49FB74F
:101EF000F8943C91822F809583238C93E8812E2B3C
:101F0000EFCF8FB7F894EC912E2B2C938FBFEACFA5
:101F10001F93CF93DF93282F30E0F901E25BFD4F51
:101F20008491F901EC56FD4FD491F901E652FD4F31
:101F3000C491CC23A9F0162F81110E94E50EEC2F3D
:101F4000F0E0EE0FFF1FE05EFC4FA591B4918FB75C
:101F5000F894EC91111108C0D095DE23DC938FBF6B
:101F6000DF91CF911F910895DE2BF8CF0895A1E264
:101F70001A2EAA1BBB1BFD010DC0AA1FBB1FEE1F03
:101F8000FF1FA217B307E407F50720F0A21BB30B4E
:101F9000E40BF50B661F771F881F991F1A9469F7CA
:101FA00060957095809590959B01AC01BD01CF0126
:101FB0000895EE0FFF1F881F8BBF0790F691E02D4D
:101FC00019945058BB27AA270E94F90F0C9473113B
:101FD0000E94651138F00E946C1120F039F49F3F87
:101FE00019F426F40C9462110EF4E095E7FB0C94BE
:101FF0005C11E92F0E94841158F3BA176207730726
:102000008407950720F079F4A6F50C94A6110EF438
:10201000E0950B2EBA2FA02D0B01B90190010C01F8
:10202000CA01A0011124FF27591B99F0593F50F410
:10203000503E68F11A16F040A22F232F342F442768
:10204000585FF3CF469537952795A795F040539560
:10205000C9F77EF41F16BA0B620B730B840BBAF030
:102060009150A1F0FF0FBB1F661F771F881FC2F79B
:102070000EC0BA0F621F731F841F48F487957795AF
:102080006795B795F7959E3F08F0B0CF9395880F69
:1020900008F09927EE0F9795879508950E943811BB
:1020A00008F481E008950E9467100C9473110E9457
:1020B0006C1158F00E94651140F029F45F3F29F03F
:1020C0000C945C1151110C94A7110C9462110E9494
:1020D000841168F39923B1F3552391F3951B550BA4
:1020E000BB27AA2762177307840738F09F5F5F4FEB
:1020F000220F331F441FAA1FA9F335D00E2E3AF02A
:10210000E0E832D091505040E695001CCAF72BD041
:10211000FE2F29D0660F771F881FBB1F2617370792
:102120004807AB07B0E809F0BB0B802DBF01FF27C4
:1021300093585F4F3AF09E3F510578F00C945C1134
:102140000C94A7115F3FE4F3983ED4F386957795FE
:102150006795B795F7959F5FC9F7880F911D96957D
:10216000879597F90895E1E0660F771F881FBB1FD9
:10217000621773078407BA0720F0621B730B840B86
:10218000BA0BEE1F88F7E09508950E94CC10689472
:10219000B1110C94A71108950E948C1188F09F57DB
:1021A00098F0B92F9927B751B0F0E1F0660F771F7B
:1021B000881F991F1AF0BA95C9F714C0B13091F071
:1021C0000E94A611B1E008950C94A611672F782FF4
:1021D0008827B85F39F0B93FCCF386957795679536
:1021E000B395D9F73EF490958095709561957F4FA2
:1021F0008F4F9F4F0895E89409C097FB3EF4909548
:102200008095709561957F4F8F4F9F4F9923A9F0CF
:10221000F92F96E9BB279395F6958795779567955E
:10222000B795F111F8CFFAF4BB0F11F460FF1BC0A2
:102230006F5F7F4F8F4F9F4F16C0882311F096E935
:1022400011C0772321F09EE8872F762F05C06623E3
:1022500071F096E8862F70E060E02AF09A95660F9C
:10226000771F881FDAF7880F9695879597F9089555
:10227000990F0008550FAA0BE0E8FEEF1616170697
:10228000E807F907C0F012161306E407F50798F0FF
:10229000621B730B840B950B39F40A2661F0232B18
:1022A000242B252B21F408950A2609F4A140A69594
:1022B0008FEF811D811D089597F99F6780E870E079
:1022C00060E008959FEF80EC089500240A941616AC
:1022D000170618060906089500240A941216130614
:1022E000140605060895092E0394000C11F48823A2
:1022F00052F0BB0F40F4BF2B11F460FF04C06F5FBE
:102300007F4F8F4F9F4F089557FD9058440F551F93
:1023100059F05F3F71F04795880F97FB991F61F067
:102320009F3F79F087950895121613061406551FDE
:10233000F2CF4695F1DF08C0161617061806991F4A
:10234000F1CF86957105610508940895E894BB273F
:1023500066277727CB0197F908950E94381108F472
:102360008FEF08950E94C5110C9473110E9465119E
:1023700038F00E946C1120F0952311F00C945C1140
:102380000C94621111240C94A7110E94841170F313
:10239000959FC1F3950F50E0551F629FF001729F0A
:1023A000BB27F00DB11D639FAA27F00DB11DAA1F19
:1023B000649F6627B00DA11D661F829F2227B00D66
:1023C000A11D621F739FB00DA11D621F839FA00DF1
:1023D000611D221F749F3327A00D611D231F849F41
:1023E000600D211D822F762F6A2F11249F57504098
:1023F0009AF0F1F088234AF0EE0FFF1FBB1F661F13
:10240000771F881F91505040A9F79E3F510580F0DB
:102410000C945C110C94A7115F3FE4F3983ED4F345
:10242000869577956795B795F795E7959F5FC1F77F
:10243000FE2B880F911D9695879597F90895EF9239
:102440000F931F93CF93DF93E80134E047FD34E10E
:10245000042E000C550B57FF03C0519541955109AF
:10246000E32E022F242FAE010E945314CE01DF91E0
:10247000CF911F910F91EF9008950F931F93CF93DA
:10248000DF938230910510F482E090E0E091EF0359
:10249000F091F00330E020E0B0E0A0E0309799F454
:1024A0002115310509F44AC0281B390B24303105A8
:1024B000D8F58A819B816115710589F1FB019383B0
:1024C0008283FE0111C0408151810281138148172E
:1024D0005907E0F04817590799F4109761F01296E0
:1024E0000C93129713961C933296CF01DF91CF91E4
:1024F0001F910F9108950093EF031093F003F4CF11
:102500002115310551F04217530738F0A901DB01BD
:102510009A01BD01DF01F801C1CFEF01F9CF90931E
:10252000F0038093EF03CDCFFE01E20FF31F819301
:1025300091932250310939832883D7CF2091ED031D
:102540003091EE03232B41F42091020230910302DB
:102550003093EE032093ED032091000230910102AD
:102560002115310541F42DB73EB740910402509139
:102570000502241B350BE091ED03F091EE03E21709
:10258000F307A0F42E1B3F0B2817390778F0AC0196
:102590004E5F5F4F2417350748F04E0F5F1F509373
:1025A000EE034093ED03819391939FCFF0E0E0E041
:1025B0009CCFCF93DF930097E9F0FC013297138211
:1025C0001282A091EF03B091F003ED0130E020E022
:1025D0001097A1F420813181820F931F2091ED0388
:1025E0003091EE032817390709F061C0F093EE032C
:1025F000E093ED03DF91CF910895EA01CE17DF0755
:10260000E8F54A815B819E0141155105B1F7E90169
:10261000FB83EA8349915991C40FD51FEC17FD073D
:1026200061F4808191810296840F951FE90199835D
:102630008883828193819B838A83F0E0E0E0129615
:102640008D919C9113970097B9F52D913C9111971D
:10265000CD010296820F931F2091ED033091EE037E
:102660002817390739F6309751F51092F003109278
:10267000EF03B093EE03A093ED03BCCFD383C283EB
:1026800040815181840F951FC817D90761F44E5FAF
:102690005F4F88819981480F591F518340838A81F8
:1026A0009B81938382832115310509F0B0CFF0938C
:1026B000F003E093EF039ECFFD01DC01C0CF138256
:1026C0001282D7CF4F925F926F927F928F929F929A
:1026D000AF92BF92CF92DF92EF92FF920F931F9330
:1026E000CF93DF938C01009799F4CB01DF91CF91C9
:1026F0001F910F91FF90EF90DF90CF90BF90AF9020
:102700009F908F907F906F905F904F900C943D12B0
:10271000FC01E60FF71F9C0122503109E217F30775
:1027200008F4AEC0D901CD91DC911197C617D70737
:1027300020F1C530D10578F0CE01049786179707B0
:1027400050F0C61BD70B2297C193D1936D937C9306
:10275000CF010E94D912C801DF91CF911F910F9133
:10276000FF90EF90DF90CF90BF90AF909F908F90B1
:102770007F906F905F904F9008955B01AC1ABD0AF7
:102780004C018C0E9D1EA091EF03B091F003512CD3
:10279000412CF12CE12C109731F58091ED039091B3
:1027A000EE038815990509F05CC04616570608F037
:1027B00058C08091000290910102009741F48DB7BA
:1027C0009EB74091040250910502841B950BE817B7
:1027D000F90708F055C0F093EE03E093ED03F9011B
:1027E00071836083B8CF8D919C91119712966C90F4
:1027F000129713967C901397A815B90559F56C019B
:1028000042E0C40ED11CCA14DB0420F1AC014A1909
:102810005B09DA011296159780F062827382518308
:102820004083D9016D937C93E114F10471F0D701D9
:102830001396FC93EE9312978ECF22968C0F9D1FCA
:10284000F90191838083F301EFCFF093F003E093DC
:10285000EF0381CF4816590608F42C017D01D301FE
:102860009ACFCB010E943D127C01009749F0AE0146
:10287000B8010E944314C8010E94D91287016BCF8E
:1028800010E000E068CFFB01DC0102C001900D9276
:1028900041505040D8F70895FB01DC0101900D92A2
:1028A0000020E1F708958F929F92AF92BF92CF924E
:1028B000DF92EF92FF920F931F93CF93DF9300D09D
:1028C00000D000D0CDB7DEB76A01F22EB02E102FA7
:1028D000FBE3AF2EA01608F41BE31F5F012F27E0D8
:1028E000AE014F5F5F4F0E94CC15BC018981982FCC
:1028F0009970913009F44EC09BE2E1FC04C09E2D1A
:102900009170E0FC49C05E2D5071E82FE87083FFA4
:1029100055C084E0911101C083E0EF2DE81B8F15B5
:1029200008F0E0E0D6018E2F20E25523C9F199236B
:1029300029F0D6019C93C60101966C0196012D5F8A
:102940003F4FE2FE33C08EE4D6018C9391E41196A2
:102950009C93119712968C93D9018E2F90E281113E
:102960002AC0E20FF32FF11D10828EEF9FEF299600
:102970000FB6F894DEBF0FBECDBFDF91CF911F9190
:102980000F91FF90EF90DF90CF90BF90AF909F900E
:102990008F9008959DE2B7CF90E2B5CF2D938150EF
:1029A0008111FCCFCE0ED11CE0E0C1CF8EE6D60166
:1029B0008C9391E6CCCF9D938150D1CF482F44701A
:1029C00082FF3DC084E0911101C083E08F1510F4B7
:1029D000EF2DE81BD6018E2F20E2552309F1992314
:1029E00029F0D6019C93C60101966C0196012D5FDA
:1029F0003F4FE2FE1BC089E4D6018C938EE4119612
:102A00008C93119786E412968C93D9018E2F90E2C5
:102A1000882309F4A6CF9D938150FACF2D9381503E
:102A20008111FCCFCE0ED11CE0E0D9CF89E6D601D2
:102A30008C938EE611968C93119786E6E4CF9B01DA
:102A400077FF02C030E020E0A1E0B0E0911102C0C9
:102A5000B0E0A0E0F9013196AE0FBF1F8B2C912C96
:102A6000BB2009F461C05401EFEFAE1ABE0AAA0DF3
:102A7000BB1DFA161B0619F014F04F2D4A1B5111FD
:102A800088C0E3FC59C07601A42FB0E2A1114FC069
:102A9000C40ED11C992309F45BC040E0D601119605
:102AA000F60190836D01552309F448C0012F060FEC
:102AB0009A81582F507184FF03C0913309F401505B
:102AC00010160CF047C0093008F008E0EEE2FE2EC8
:102AD0005B01A01AB10885019194819491082F3F60
:102AE000320729F4D601FC92F60131966F01621784
:102AF000730794F1021713077CF5DB01A21BB30BDC
:102B0000AA24A394B12CAC0EBD1EAA0DBB1D119618
:102B10008C9121503109D601119628153905F4F010
:102B2000F60180836D01DBCFB12CA12CA0CFF70182
:102B3000B1937F01A150AACF9111B0CFD601942FAC
:102B400050E302C05D9391509111FCCFC40ED11C93
:102B500040E0ACCF01E0BACF80E3DBCF6217730770
:102B600031F4963388F4953311F4552369F0F60166
:102B70008083FD01842F90E2811108C0A40FB11D54
:102B80001C9290E080E0F3CE81E3F1CF91938150ED
:102B9000F3CF911183CF8ACF283008F027E0332775
:102BA000DA01990F311D87FD91600096610571056D
:102BB00039F432602E5F3D9330E32A95E1F70895B2
:102BC0009F3F30F080387105610509F03C5F3C5F44
:102BD0003D93913008F08068911DDF93CF931F9350
:102BE0000F93FF92EF92192F987F9695E92F969564
:102BF0009695E90FFF27E255FE4F99273327EE24DC
:102C0000FF24A701E70105900894079428F4360FE4
:102C1000E71EF81E491F511D660F771F881F991F59
:102C20000694A1F70590079428F4E70EF81E491FB3
:102C3000561FC11D770F881F991F661F0694A1F7A5
:102C40000590079428F4F80E491F561FC71FD11D81
:102C5000880F991F661F771F0694A1F705900794A8
:102C600020F4490F561FC71FD81F990F661F771FE3
:102C7000881F0694A9F784911095177041F0D69596
:102C8000C79557954795F794E7941A95C1F7E4E5EA
:102C9000F1E06894159015913591659195910590A5
:102CA0007FE27395E118F10A430B560BC90BD0096B
:102CB000C0F7E10CF11E431F561FC91FD01D7EF443
:102CC000703311F48A95E6CFE894015030F0080F84
:102CD0000AF40027021708F4202F2395022F7A33D5
:102CE00028F079E37D932A95E9F710C07D932A9522
:102CF00089F6069497956795379517951794E11877
:102D0000F10A430B560BC90BD00998F023957E911D
:102D100073957A3308F070E37C932013B8F77E91B3
:102D200070617D9330F0839571E37D9370E32A9514
:102D3000E1F71124EF90FF900F911F91CF91DF9158
:0C2D4000992787FD90950895F894FFCF27
:102D4C000000F1038000FFFF0000803F00002041E5
:102D5C00000020410000A04143414E20577269748D
:102D6C0065202D2054657374696E67207472616ED2
:102D7C00736D697373696F6E206F662043414E20CB
:102D8C00427573206D657373616765730043414EC3
:102D9C0020496E6974206F6B0043616E2774206943
:102DAC006E69742043414E0044697374616E7A3AC3
:102DBC0020200020207C20204F75747075742050CA
:102DCC0049443A200020205475726E656420416E8F
:102DDC00676C653A200000000000DC0A220C560AE1
:0C2DEC00BC0A280A420A340A0D0A000042
:00000001FF
