:100000000C94F9010C942A020C942A020C942A02F2
:100010000C942A020C942A020C942A020C942A02B0
:100020000C942A020C942A020C942A020C942A02A0
:100030000C942A020C942A020C942A020C942A0290
:100040000C942A020C942A020C942A020C942A0280
:100050000C942A020C942A020C942A020C94161076
:100060000C942A020C94EF0B0C94250C0C942A028D
:100070000C942A020C942A020C942A020C942A0250
:100080000C942A020C942A020C942A020C942A0240
:100090000C942A020C942A020C942A020C942A0230
:1000A0000C942A020C942A020C942A020C942A0220
:1000B0000C942A020C942A020C942A020C942A0210
:1000C0000C942A020C942A020C942A020C942A0200
:1000D0000C942A020C942A020C94860C0C94BC0CEE
:1000E0000C942A02072C7AA5BA6CC590DA3B93656A
:1000F000FC8BBC53F810FD3C5692834DBD879D3A56
:10010000B63DCBC9BF5BBE73DA0FC93F05A84CCD66
:10011000B2D44EB93836A9020C50B9918688083C41
:10012000A6AAAA2ABE000000803F0C944F0C0C9493
:100130009F110C94B9070C948F110C94A9110C9475
:1001400021120C94BD110C9485110C94FE0A0C9490
:1001500061120C94590C0C941E0B0C94B5070C9462
:10016000840A0C94A70A0C9433120C9440120C9439
:10017000760A0C9458120C9464110C94D6110C94B9
:10018000B3110C9466120C946C110C94F00C0C943A
:100190002B120C94980A0C942F120C944E120C945F
:1001A0005C120C94F4110C9471110C94CC110C94FD
:1001B00097110C94EA110C9454120C943C120C9468
:1001C00036120C941D0D0C9427120C9462120C9490
:1001D00046120C944A120C94FE110C947B110C9450
:1001E0006A0A0C94E60C0C94E01100407A10F35A61
:1001F00000A0724E18090010A5D4E80000E8764867
:10020000170000E40B54020000CA9A3B000000E112
:10021000F505000080969800000040420F000000A5
:10022000A08601000000102700000000E803000085
:1002300000006400000000000A000000000001004F
:10024000000000002C76D888DC674F0823DFC1DF70
:10025000AE59E1B1B796E5E3E453C63AE651997673
:1002600096E8E6C28426EB898C9B62ED407C6FFCAD
:10027000EFBC9C9F40F2BAA56FA5F490055A2AF7EF
:100280005C936B6CF9676DC11BFCE0E40D47FEF5F8
:1002900020E6B500D0ED902E030094357705008060
:1002A000841E080000204E0A000000C80C333333BF
:1002B000330F986E12831141EF8D2114893BE6555F
:1002C00016CFFEE6DB18D1844B381BF77C1D901D42
:1002D000A4BBE424203284725E228100C9F124ECA4
:1002E000A1E53D2700000A0B02090C0D0E080703CB
:1002F00004010000000000000000000000000000F9
:1003000000000000000000000000000000000000ED
:1003100012111000000000000000000000000000AA
:100320000000000000000000000001021020200872
:100330000810204010204080020102010804020140
:1003400001020408102040808040201008040201AF
:100350008004020180402010080402010804020108
:10036000010204081020408001020408102040808F
:1003700005050505070508080808020202020A0A21
:10038000080804040404010101010101010103033F
:10039000030303030303040707070C0C0C0C0C0CEA
:1003A0000C0C0202020206060606060606060B0BE7
:1003B0000B0B0B0B0B0B00002200250028002B0061
:1003C0002E003100340002010000050108010B017C
:1003D00000002100240027002A002D0030003300F7
:1003E00001010000040107010A01B507590CF00CD6
:1003F000B90711241FBECFEFD1E2DEBFCDBF00E0B1
:100400000CBF13E0A0E0B2E0E8E2F6E300E00BBFCF
:1004100002C007900D92AA32B107D9F72CE0AAE2E8
:10042000B3E001C01D92A338B207E1F711E0C8EFB5
:10043000D1E000E006C021970109802FFE010E9453
:100440000B13C53FD10780E00807A9F70E940710EA
:100450000C94021B0C940000CF93DF93CDB7DEB752
:100460002C970FB6F894DEBF0FBECDBFAB01BC0119
:1004700022E0CE0107960E94970F65E172E0CE015F
:1004800001960E94690FBE01695F7F4FCE01019600
:100490000E94F30FBC018CE39BE00E947A0DCE0119
:1004A00001960E94FA0ECE0107960E94FA0E2C9633
:1004B0000FB6F894DEBF0FBECDBFDF91CF91089588
:1004C0004F925F926F927F928F929F92AF92BF9264
:1004D000CF92DF92EF92FF92CF93DF93CDB7DEB74B
:1004E00060970FB6F894DEBF0FBECDBFC0903E033D
:1004F000D0903F03E0904003F090410340904803C8
:100500005090490360904A0370904B0380914C03D4
:1005100090914D03A0914E03B0914F0389879A8724
:10052000AB87BC8760910B0270910C02072E000C08
:10053000880B990B0E9459144B015C01A301920195
:10054000C701B6010E94391320E030E040E05FE3CC
:100550000E949415A50194010E94381369837A833F
:100560008B839C836091090270910A02072E000C14
:10057000880B990B0E9459146D877E878F87988B03
:1005800029853A854B855C85C701B6010E943913E0
:1005900020E030E040E05FE30E9494152D853E8529
:1005A0004F8558890E9438136D837E838F83988787
:1005B000A301920160913A0370913B0380913C0347
:1005C00090913D030E943813A50194010E943813B5
:1005D0004B015C0129853A854B855C85C701B601D5
:1005E0000E9438132D853E854F8558890E94381307
:1005F0006B017C0169817A818B819C8190582D816E
:100600003E814F8158850E94AF132B013C01AC0104
:100610009B0169817A818B819C810E9494152D8137
:100620003E814F8158850E94381369877A878B876E
:100630009C87A3019201C501B4010E9494159B01FE
:10064000AC01C701B6010E9438139B01AC010E94A6
:1006500039139B01AC0169857A858B859C850E9445
:10066000AF132B013C01AC019B01C501B4010E94F9
:10067000941529813A814B815C810E9439134B0189
:100680005C01A3019201C701B6010E9494152D815E
:100690003E814F8158850E9439132B013C01A501F1
:1006A0009401C501B4010E9494156B017C01A30162
:1006B0009201C301B2010E9494159B01AC01C701D4
:1006C000B6010E9439130E940F1669877A878B87BB
:1006D0009C8729813A814B815C81CA01B9010E94C2
:1006E00094156B017C012D813E814F815885CA0193
:1006F000B9010E9494159B01AC01C701B6010E948B
:1007000039130E940F166D877E878F87988BA501FE
:10071000940169817A818B819C810E9494156B017F
:100720007C01A30192016D817E818F8198850E9459
:1007300094159B01AC01C701B6010E9439136B01EE
:100740007C012D853E854F85588969857A858B8505
:100750009C850E9494159B01AC01C701B6010E94C3
:10076000AF130E94271320E030E044E353E40E94DB
:1007700094152BED3FE049E450E40E94AF139B0138
:10078000AC0160E070E084EB92E40E943813609367
:100790002C0370932D0380932E0390932F0361E21B
:1007A00072E08CE39BE00E948C0D62E572E08CE3CA
:1007B0009BE00E94670D22E030E0B501A4018CE3CC
:1007C0009BE00E94E60E66E672E08CE39BE00E94EE
:1007D000670D22E030E0B301A2018CE39BE00E94B0
:1007E000E80E6EE672E08CE39BE00E94670D22E06B
:1007F00030E049815A816B817C818CE39BE00E94CF
:10080000E60E60E872E08CE39BE00E94670D22E058
:1008100030E04D815E816F8178858CE39BE00E94A2
:10082000E80E68E872E08CE39BE00E94670D22E02E
:1008300030E049855A856B857C858CE39BE00E947E
:10084000E80E61E972E08CE39BE00E94670D409145
:100850002C0350912D0360912E0370912F0322E001
:1008600030E08CE39BE00E94E80E6EE972E08CE3DE
:100870009BE00E948C0D82E090E090932B0380938C
:100880002A0360960FB6F894DEBF0FBECDBFDF918E
:10089000CF91FF90EF90DF90CF90BF90AF909F905F
:1008A0008F907F906F905F904F9008952F923F921E
:1008B0004F925F926F927F928F929F92AF92BF9270
:1008C000CF92DF92EF92FF920F931F93CF93DF931C
:1008D000CDB7DEB760970FB6F894DEBF0FBECDBFC1
:1008E0008C0124E436E03A8329833EE0F32EE9814B
:1008F000FA8160897189072E000C880B990B0E9480
:1009000059149B01AC010E9439134B015C01E98130
:10091000FA8162817381072E000C880B990B0E946B
:1009200059149B01AC01C501B4010E9438134B015D
:100930005C01E981FA81668D778D072E000C880BAA
:10094000990B0E9459149B01AC01C501B4010E948E
:1009500038130E94211460177107E4F4E981FA81C9
:10096000828993890B97B4F080913203909133037D
:10097000F89ED001F99EB00D1124A857BC4F3E96A9
:100980002F2D01900D922A95E1F701969093330354
:100990008093320369817A81625F7F4F7A836983B2
:1009A00062527B4009F0A3CF28E833E0388B2F87D1
:1009B00010E000E08091320390913303081719078B
:1009C0000CF45AC0C0903003D090310304E313E01C
:1009D0001A830983F12CE12CEC14FD040CF05BC1AB
:1009E000E981FA8162817381072E000C880B990BD3
:1009F0000E9459144B015C01E981FA816081718187
:100A0000072E000C880B990B0E9459142BED3FE028
:100A100049E450E40E94941520E030E044E353E4BC
:100A20000E94AF132B013C010E94AA139B01AC0151
:100A3000C501B4010E949415E981FA816683778328
:100A400080879187C301B2010E9401169B01AC010E
:100A5000C501B4010E949415E981FA816287738708
:100A600084879587FFEFEF1AFF0A29813A81225F79
:100A70003F4F3A832983B0CF0F5F1F4F2F843888B1
:100A80001A8309838091320390913303E981FA81BB
:100A9000E817F9073CF02F853889225F3F4F388BE4
:100AA0002F8788CFEF85F8890190F081E02DFC83B6
:100AB000EB83F1010684F785E02DFE83ED836B81E6
:100AC0007C816E1B7F0B072E000C880B990B0E94FC
:100AD00059142BED3FE049E450E40E94941520E0C6
:100AE00030E044E353E40E94AF130E94AA136B87E3
:100AF0007C878D879E87EF85F8890280F381E02DC2
:100B0000F887EF83CF016AE070E00E94D512072ECC
:100B1000000C880B990B0E9459146B017C01F101A8
:100B20000088F189E02DFA87E987CF016AE070E05B
:100B30000E94D512072E000C880B990B0E945914A5
:100B40004B015C01AC019B010E9494152B013C01FF
:100B5000A7019601C701B6010E9494159B01AC0143
:100B6000C301B2010E9439132B013C01A701960178
:100B7000C701B6010E943913A50194010E94941582
:100B80002B853C854D855E850E9494159B01AC01AB
:100B9000C301B2010E9438130E940F1620E030E01A
:100BA00040E251E40E9494156B017C0120E030E0AA
:100BB00040E752E40E948F1518160CF062C020E046
:100BC00030E042ED52E4C701B6010E94A51387FF51
:100BD00058C08F81988529853A85820F931F97FD8C
:100BE0000196959587958C599F4FE4E4F6E041E096
:100BF000208131816B817C81621773075CF46D8188
:100C00007E812617370734F422813381281739076C
:100C10000CF440E03E967BE0E033F70749F74423CD
:100C200081F18091300390913103EEE0E89FD00193
:100C3000E99FB00D1124AC5CBC4FEF85F8892EE024
:100C400001900D922A95E1F79C012F5F3F4FFEE046
:100C5000F29FD001F39FB00D1124AC5CBC4FF101A9
:100C60003E962EE001900D922A95E1F70296909320
:100C70003103809330036CEC72E08CE39BE00E94C4
:100C80008C0D29813A812F5F3F4F3A8329833EE0C3
:100C9000230E311CF7CE68ED72E08CE39BE00E94DE
:100CA0008C0D1A82198280913003909131036981F1
:100CB0007A81681779075CF56CEF72E08CE39BE052
:100CC0000E94670DF801468157816085718522E099
:100CD00030E08CE39BE00E94E60E62E073E08CE380
:100CE0009BE00E94670DF8014285538564857585F8
:100CF00022E030E08CE39BE00E94E80E29813A81FB
:100D00002F5F3F4F3A832983025F1F4FCCCF823042
:100D10009105F9F481E090E090932B0380932A03EE
:100D200060960FB6F894DEBF0FBECDBFDF91CF91B6
:100D30001F910F91FF90EF90DF90CF90BF90AF90F9
:100D40009F908F907F906F905F904F903F902F90EB
:100D50000895009711F003971CF310922B03109243
:100D60002A03DECF4F925F926F927F928F929F9273
:100D7000AF92BF92FF920F931F93CF93DF93CDB7A4
:100D8000DEB764970FB6F894DEBF0FBECDBF0E94EA
:100D90006010683B7B408105910508F0A6C044EFD8
:100DA00051E060E070E080E39BE00E94FB0797FD6C
:100DB00075C08090320B9090330BA090340BB090A4
:100DC000350B4090360B5090370B6090380B70907D
:100DD000390B20E030E0A901C501B4010E94A51340
:100DE00018163CF0812C80EC982E8AEDA82E85E414
:100DF000B82E20910D0230910E0240910F025091B9
:100E00001002C301B2010E94A51318169CF1209193
:100E10001102309112024091130250911402C30149
:100E2000B2010E948F1587FD25C0F0903A0BC301D7
:100E3000B2010E9421149B01275831094EE0429FC4
:100E40008001439F100D11240C5B194FF801718331
:100E5000608320E030E040E251E4C501B4010E942B
:100E6000AF130E942114F801738362838F2D90E0E9
:100E70009583848364960FB6F894DEBF0FBECDBF12
:100E8000DF91CF911F910F91FF90BF90AF909F90F6
:100E90008F907F906F905F904F90089570E060E02A
:100EA00083E00E942C1124E630E040E050E0BE01D7
:100EB0006F5F7F4F80E39BE00E94820997FDDACF4E
:100EC00028EE33E040E050E060E080E39BE00E94E9
:100ED000110A6FEF70E083E00E942C1168EE73E05E
:100EE00080E090E00E949110C5CF80910602882397
:100EF00009F280910702909108020E945604109214
:100F0000060270E060E083E00E942C11B3CF69ED2F
:100F10007BE080E39BE00E94DB0726E040E052ECB0
:100F200061E070E08CE39BE00E946B0B61E083E08A
:100F30000C946A1280912A0390912B0381309105C1
:100F400039F08230910531F0892B71F40C94B2069E
:100F50000C94600260912C0370912D0380912E03FC
:100F600090912F030C942C02089580E39BE00C9445
:100F7000BD0780E39BE00C94D907FC01118210822D
:100F800012821382148215821682178210861186AD
:100F9000128613860895CF93DF93EC01888199819F
:100FA000009721F00E94CD0B19821882DF91CF911A
:100FB00008950C94CB070F931F93CF93DF93EC010D
:100FC0008B0188819981892B19F0CE010E94CB0772
:100FD00019830883C8010E94CD0B26E040E052EC43
:100FE00061E070E0888199810E946B0BDF91CF9165
:100FF0001F910F9108954F925F926F927F928F92FF
:101000009F92AF92BF92EF92FF921F93CF93DF9385
:1010100000D01F921F92CDB7DEB77C012A013B01A1
:101020000E9460104B015C0110E00E946010681982
:1010300079098A099B09461657066806790608F455
:1010400072C0D7018D919C91DC01ED91FC910284DD
:10105000F385E02D199597FDE8CF112309F457C0CA
:10106000113009F45DC091E0910FE1E0F0E0EC0F88
:10107000FD1FE10FF11D8083953009F046C06C81A2
:101080007D8190E080E00E94571420E030E040E84D
:101090005EE30E949415D70112966D937D938D9314
:1010A0009C9315976A817B817695679590E080E0A7
:1010B0000E94571420E030E040E85CE30E94941561
:1010C000F70166837783808791878981282F30E0B5
:1010D000359527953595279522878170838760E020
:1010E00070E0CB010F900F900F900F900F90DF9159
:1010F000CF911F91FF90EF90BF90AF909F908F90F6
:101100007F906F905F904F900895192F8ECF9C0124
:1011100035952795FC01E2279F0120FDA4CF85CFBF
:1011200080FDA1CF81CF62E070E880E090E8DACF67
:10113000CF92DF92EF92FF920F931F93CF93DF93A3
:1011400000D000D01F92CDB7DEB77C01162F5F8391
:101150004E8369011D82232B21F0CA01892B09F0DE
:10116000106805EA09831A83D7018D919C91DC01EF
:10117000ED91FC910280F381E02D42E050E0BE0150
:101180006F5F7F4F199517FF40C06D8160276C25F9
:1011900061276D83EE81FF8196012E0F3F1FE217BD
:1011A000F30729F091918D8189278D83F8CFCC8227
:1011B000F70180819181DC01ED91FC910280F38146
:1011C000E02D41E050E0BE016C5F7F4F1995F701C3
:1011D000808191814C8150E0DC01ED91FC91028095
:1011E000F381E02DBE016A5F7F4F1995F701808181
:1011F0009181DC01ED91FC910280F381E02D41E0D1
:1012000050E0BE016B5F7F4F199560E070E0CB014D
:1012100027960FB6F894DEBF0FBECDBFDF91CF91FA
:101220001F910F91FF90EF90DF90CF900895FC01F8
:1012300020813181232B39F030E020E050E040E084
:1012400065E20C94980861E070E880E090E8089509
:101250007F928F929F92AF92BF92CF92DF92EF9246
:10126000FF920F931F93CF93DF938C01EB01490102
:101270005A010E9460106B017C01712C0E94601069
:101280006C197D098E099F0986169706A806B9066E
:10129000A0F1D8018D919C91DC01ED91FC9102842B
:1012A000F385E02D199597FDE9CF7720F1F0B1E0B6
:1012B0007B16F9F091E0970DFE01E70DF11D80839B
:1012C000973089F460E070E0CB01DF91CF911F91FE
:1012D0000F91FF90EF90DF90CF90BF90AF909F90D5
:1012E0008F907F900895792EC9CF853A910511F39B
:1012F000C5CF8A359105F1F2C0CF62E070E880E099
:1013000090E8E3CF4F925F926F927F928F929F927D
:10131000AF92BF92CF92DF92EF92FF920F931F9303
:10132000CF93DF9300D000D01F92CDB7DEB77C0102
:101330006B0149015A010E9460102B013C01D70149
:101340008D919C91892B09F45EC030E020E050E043
:1013500040E060E5C7010E94980897FD3DC0A501E7
:101360009401BE016F5F7F4FC7010E94280997FD5E
:1013700033C08F81843009F04BC08B819C81AD815B
:101380002E81B22FBF734497A105B10508F440C068
:101390008601B4E1CB0ED11C0E946010641975095E
:1013A0008609970986169706A806B906A8F1F701D7
:1013B00080819181DC01ED91FC910284F385E02D27
:1013C000199597FDE9CFF80181938F01CE16DF06BD
:1013D00019F760E070E0CB0127960FB6F894DEBFF6
:1013E0000FBECDBFDF91CF911F910F91FF90EF9076
:1013F000DF90CF90BF90AF909F908F907F906F9035
:101400005F904F90089561E070E880E090E8E4CF4D
:1014100060E070E8CB01E0CF62E070E880E090E847
:10142000DBCFBF92CF92DF92EF92FF920F931F9389
:10143000CF93DF9300D000D01F92CDB7DEB7DC0191
:10144000ED91FC91EF2B09F440C069017A01B62EB1
:101450008C010E94170960E2B11061E230E020E0E7
:1014600050E040E0C8010E94980897FD1AC0A7010B
:101470009601BE016F5F7F4FC8010E94280997FD4A
:1014800010C08F818138E9F48B819C81AD812E81E0
:10149000B22FBF730597A105B10598F060E070E029
:1014A000CB0127960FB6F894DEBF0FBECDBFDF91FC
:1014B000CF911F910F91FF90EF90DF90CF90BF9051
:1014C000089560E070E8CB01ECCF61E070E880E067
:1014D00090E8E7CFFC01918D228D892F90E0805C10
:1014E0009F4F821B91098F7399270895FC01918D5D
:1014F000828D981731F0828DE80FF11D858D90E077
:1015000008958FEF9FEF0895FC01918D828D9817BC
:1015100061F0A28DAE0FBF2FB11D5D968C91928DA3
:101520009F5F9F73928F90E008958FEF9FEF0895D4
:10153000FC01538D448D252F30E0842F90E0821BD9
:10154000930B541710F0CF960895019708958FE4E8
:101550009CE0892B49F080E090E0892B29F00E94E3
:101560004F0C81110E94000080E090E0892B49F02F
:1015700080E090E0892B29F00E94000081110E94F8
:10158000000080E090E0892B49F080E090E0892B1A
:1015900029F00E94000081110E94000086EE9CE06C
:1015A000892B49F080E090E0892B29F00E94E60C1D
:1015B00081110C9400000895FC01A48DA80FB92F8F
:1015C000B11DA35ABF4F2C91848D90E001968F736B
:1015D0009927848FA689B7892C93A089B1898C918A
:1015E000837080648C93938D848D981306C00288D9
:1015F000F389E02D80818F7D80830895CF93DF93E1
:10160000EC01888D8823B9F0AA89BB89E889F9891A
:101610008C9185FD03C0808186FD0DC00FB607FC4F
:10162000F7CF8C9185FFF2CF808185FFEDCFCE0182
:101630000E94DC0AE9CFDF91CF910895EF92FF92EB
:101640000F931F93CF93DF93EC0181E0888F9B8DE5
:101650008C8D98131AC0E889F989808185FF15C09F
:101660009FB7F894EE89FF896083E889F9898081C2
:101670008370806480839FBF81E090E0DF91CF9191
:101680001F910F91FF90EF900895F62E0B8D10E0B3
:101690000F5F1F4F0F731127E02E8C8D8E110CC022
:1016A0000FB607FCFACFE889F989808185FFF5CF6D
:1016B000CE010E94DC0AF1CFEB8DEC0FFD2FF11D66
:1016C000E35AFF4FF0829FB7F8940B8FEA89FB89AA
:1016D00080818062CFCFCF92DF92EF92FF921F93F3
:1016E000CF93DF93EC016A017B01122FE889F9891E
:1016F00082E08083C11481EED806E104F104A1F0F8
:1017000060E079E08DE390E0A70196010E94E91284
:10171000215031094109510956954795379527952B
:10172000211580E1380798F0E889F989108260E88E
:1017300074E88EE190E0A70196010E94E912215021
:101740003109410951095695479537952795EC85FB
:10175000FD853083EE85FF852083188EEC89FD8919
:101760001083EA89FB89808180618083EA89FB8913
:10177000808188608083EA89FB898081806880839A
:10178000EA89FB8980818F7D8083DF91CF911F91D2
:10179000FF90EF90DF90CF900895CF93DF93EC010F
:1017A000E881F9810680F781E02D1995EA89FB89A6
:1017B00080818F7E8083EA89FB898081877F808317
:1017C000EA89FB8980818F778083EA89FB89808120
:1017D0008F7D80838A8D898FDF91CF9108951F92AD
:1017E0000F920FB60F9211240BB60F922F938F9377
:1017F0009F93EF93FF93E0914C0BF0914D0B808101
:10180000E091520BF091530B82FD1DC090818091AD
:10181000550B8F5F8F732091560B821741F0E0912B
:10182000550BF0E0E45CF44F958F8093550BFF91DE
:10183000EF919F918F912F910F900BBE0F900FBE44
:101840000F901F9018958081F2CF1F920F920FB6C4
:101850000F9211240BB60F922F933F934F935F93E8
:101860006F937F938F939F93AF93BF93EF93FF9368
:101870008CE39BE00E94DC0AFF91EF91BF91AF9156
:101880009F918F917F916F915F914F913F912F9198
:101890000F900BBE0F900FBE0F901F9018958CE30A
:1018A0009BE00E946A0A21E0892B09F420E0822F44
:1018B0000895ECE3FBE01382128288EE93E0A0E04F
:1018C000B0E084839583A683B7838CE093E0918313
:1018D000808385EC90E09587848784EC90E09787FF
:1018E000868780EC90E0918B808B81EC90E0938BED
:1018F000828B82EC90E0958B848B86EC90E0978BCA
:10190000868B118E128E138E148E08951F920F9255
:101910000FB60F9211240BB60F922F938F939F93B4
:10192000EF93FF93E091E90BF091EA0B8081E09156
:10193000EF0BF091F00B82FD1DC090818091F20BB6
:101940008F5F8F732091F30B821741F0E091F20BC0
:10195000F0E0E752F44F958F8093F20BFF91EF91F7
:101960009F918F912F910F900BBE0F900FBE0F90F4
:101970001F9018958081F2CF1F920F920FB60F9291
:1019800011240BB60F922F933F934F935F936F9356
:101990007F938F939F93AF93BF93EF93FF9389EDC3
:1019A0009BE00E94DC0AFF91EF91BF91AF919F9164
:1019B0008F917F916F915F914F913F912F910F90F8
:1019C0000BBE0F900FBE0F901F90189589ED9BE0F6
:1019D0000E946A0A21E0892B09F420E0822F0895F1
:1019E000E9EDFBE01382128288EE93E0A0E0B0E024
:1019F00084839583A683B7838CE093E0918380836F
:101A000085E391E09587848784E391E097878687D3
:101A100080E391E0918B808B81E391E0938B828BCB
:101A200082E391E0958B848B86E391E0978B868BA4
:101A3000118E128E138E148E0895AF92BF92CF9294
:101A4000DF92EF92FF920F931F93CF93DF936C017E
:101A50007B018B01040F151FEB015E01AE18BF085F
:101A6000C017D10759F06991D601ED91FC91019011
:101A7000F081E02DC6011995892B79F7C501DF9119
:101A8000CF911F910F91FF90EF90DF90CF90BF907B
:101A9000AF900895FB0101900020E9F73197AF0165
:101AA000461B570BDC01ED91FC910280F381E02D88
:101AB0001994DB0114964D915C9115976D917C9171
:101AC000DC01ED91FC910280F381E02D1994611508
:101AD000710511F00C944A0D90E080E00895DC014E
:101AE000ED91FC910190F081E02D19946AE173E091
:101AF0000C944A0D0F931F93CF93DF93EC010E9438
:101B0000590D8C01CE010E94760D800F911FDF913F
:101B1000CF911F910F9108950F931F93CF93DF9350
:101B20008C01D0E0C0E06115710519F00E944A0DEA
:101B3000EC01C8010E94760D8C0F9D1FDF91CF91A3
:101B40001F910F9108958F929F92AF92BF92EF9243
:101B5000FF920F931F93CF93DF93CDB7DEB7A1977B
:101B60000FB6F894DEBF0FBECDBF7C01FA01CB01EA
:101B700019A2223008F42AE08E010F5D1F4F822E39
:101B8000912CB12CA12CBF01A50194010E94E91256
:101B9000F901CA016A300CF5605DD8016E938D01C0
:101BA000232B242B252B79F790E080E0109721F050
:101BB000BD01C7010E944A0DA1960FB6F894DEBF81
:101BC0000FBECDBFDF91CF911F910F91FF90EF908E
:101BD000BF90AF909F908F900895695CDECF2115E4
:101BE000310541F4DC01ED91FC910190F081E02D93
:101BF000642F19940C94A30D9A01AB0170E060E07E
:101C00000C94EF0D2F923F924F925F926F927F92C2
:101C10008F929F92AF92BF92CF92DF92EF92FF92FC
:101C20001F93CF93DF93EC016A017B01722EAB010E
:101C30009601CB01B6010E944F166DE173E0811150
:101C400026C046015701E894B7F82FEF3FEF4FE762
:101C50005FE7C501B4010E944F1681110CC02FEF40
:101C60003FEF4FE75FE7C501B4010E94A51361E2B2
:101C700073E0181664F02FEF3FEF4FE75FE4C70102
:101C8000B6010E948F151816B4F465E273E0CE0118
:101C9000DF91CF911F91FF90EF90DF90CF90BF9099
:101CA000AF909F908F907F906F905F904F903F90FC
:101CB0002F900C944A0D2FEF3FEF4FE75FECC701D9
:101CC000B6010E94A51387FDE0CF20E030E0A90116
:101CD000C701B6010E94A513312C212C87FF09C032
:101CE0006DE2CE010E946F0D1C01F7FAF094F7F837
:101CF000F09410E060E070E080E09FE3711641F046
:101D000020E030E040E251E40E94AF131F5FF6CFC5
:101D1000A70196010E9439132B013C010E9428144F
:101D20004B015C012AE0BC01A401CE010E94A30D7D
:101D30007C01E20CF31C1123B1F1C501B4010E9436
:101D400057149B01AC01C301B2010E9438134B012F
:101D50005C016EE2CE010E946F0DE80EF91E11507B
:101D600010F120E030E040E251E4C501B4010E94EE
:101D700094152B013C010E9428144B014AE050E0CD
:101D8000CE010E94FC0DE80EF91EB40190E080E047
:101D90000E9457149B01AC01C301B2010E94381389
:101DA0004B015C01DCCFC701DF91CF911F91FF9008
:101DB000EF90DF90CF90BF90AF909F908F907F90EB
:101DC0006F905F904F903F902F9008950C94020E6B
:101DD0000F931F93CF93DF93EC010E94020E8C01AF
:101DE000CE010E94760D800F911FDF91CF911F9140
:101DF0000F910895FC01808191810C943717CF9346
:101E0000DF93EC0188819981009711F00E943717C8
:101E1000198218821D821C821B821A82DF91CF9147
:101E200008950F931F93CF93DF93EC018B016F5FA6
:101E30007F4F888199810E94C017009751F0998344
:101E400088831B830A8381E0DF91CF911F910F91DB
:101E5000089580E0F9CFCF93DF93EC0188819981D9
:101E6000892B49F08A819B818617970720F081E0B2
:101E7000DF91CF910895CE010E94110F8823C1F305
:101E80008C819D81892B99F7E881F9811082EFCFB0
:101E9000EF92FF920F931F93CF93DF93EC017B019F
:101EA0008A01BA010E942B0F81110BC0CE010E9442
:101EB000FF0ECE01DF91CF911F910F91FF90EF9018
:101EC00008951D830C83B701888199810E94AA1807
:101ED000F0CFFC01118210821382128215821482CB
:101EE0006115710551F0FB0101900020E9F7319770
:101EF000AF01461B570B0C94480F0895FB0101904E
:101F00000020E9F73197AF01461B570B0C94480F9F
:101F1000CF93DF93EC016115710531F00E947E0FC4
:101F2000CE01DF91CF9108950E94FF0EF9CFEF927D
:101F3000FF920F931F93CF93DF93CDB7DEB7A19797
:101F40000FB6F894DEBF0FBECDBF7C01CB01BA0146
:101F5000F70111821082138212821582148242E0EC
:101F6000420F8E010F5F1F4F0E947D16BC01C701FB
:101F70000E94880FA1960FB6F894DEBF0FBECDBFAA
:101F8000DF91CF911F910F91FF90EF900895EF9205
:101F9000FF920F931F93CF93DF936115710541F467
:101FA00080E0DF91CF911F910F91FF90EF90089506
:101FB00041155105B1F07B01EC010C811D81040F2D
:101FC000151FB8010E942B0F882351F328813981F6
:101FD0008C819D81B701820F931F0E94AA181D83D7
:101FE0000C8381E0DECFCF93DF93EC01FB014481D2
:101FF0005581608171810E94C70F811103C0CE019C
:102000000E94FF0ECE01DF91CF91089508950E94A6
:10201000CA100E9406100E948707C7EADAE00E94F1
:102020009A072097E1F30E94A70AF9CF1F920F9217
:102030000FB60F9211242F933F938F939F93AF93DB
:10204000BF938091770C9091780CA091790CB0910E
:102050007A0C3091760C23E0230F2D3758F501963A
:10206000A11DB11D2093760C8093770C9093780C72
:10207000A093790CB0937A0C80917B0C90917C0C9E
:10208000A0917D0CB0917E0C0196A11DB11D809395
:102090007B0C90937C0CA0937D0CB0937E0CBF9135
:1020A000AF919F918F913F912F910F900FBE0F9005
:1020B0001F90189526E8230F0296A11DB11DD2CFBF
:1020C0002FB7F8946091770C7091780C8091790C0F
:1020D00090917A0C2FBF08953FB7F89480917B0CB4
:1020E00090917C0CA0917D0CB0917E0C26B5A89BA4
:1020F00005C02F3F19F00196A11DB11D3FBFBA2F9A
:10210000A92F982F8827BC01CD01620F711D811D59
:10211000911D42E0660F771F881F991F4A95D1F7DE
:1021200008958F929F92AF92BF92CF92DF92EF92DB
:10213000FF926B017C010E946C104B015C01C11489
:10214000D104E104F104E9F00E94D4120E946C1061
:10215000681979098A099B09683E734081059105D0
:1021600070F321E0C21AD108E108F10888EE880E68
:1021700083E0981EA11CB11CC114D104E104F10438
:1021800029F7FF90EF90DF90CF90BF90AF909F9096
:102190008F900895789484B5826084BD84B5816001
:1021A00084BD85B5826085BD85B5816085BDEEE65F
:1021B000F0E0808181608083E1E8F0E0108280813E
:1021C00082608083808181608083E0E8F0E08081AC
:1021D00081608083E1EBF0E0808184608083E0EBCC
:1021E000F0E0808181608083E1E9F0E080818260BD
:1021F0008083808181608083E0E9F0E0808181607C
:102200008083E1EAF0E08081826080838081816068
:102210008083E0EAF0E0808181608083E1E2F1E0A8
:10222000808182608083808181608083E0E2F1E050
:10223000808181608083EAE7F0E080818460808330
:1022400080818260808380818160808380818068DA
:1022500080831092C10008951F93CF93DF93182FAE
:10226000EB0161E00E946A12209739F460E0812F4F
:10227000DF91CF911F910C94A612CF3FD10511F49D
:1022800061E0F5CFE12FF0E0EC51FD4FE491E1503A
:10229000E23108F0B3C0F0E08827EE5AFE4E8F4FCF
:1022A0000C940B1364116C1171117B118511FE11CB
:1022B0008F1197119F11A911B311BD11CC11D61116
:1022C000FE11E011EA11F41184B5806884BDC7BD28
:1022D000DF91CF911F91089584B5806284BDC8BD00
:1022E000F7CF80918000806880938000D093890030
:1022F000C0938800EDCF8091800080628093800041
:10230000D0938B00C0938A00E3CF809180008860D7
:1023100080938000D0938D00C0938C00D9CF8091A2
:10232000B00080688093B000C093B300D1CF80919B
:10233000B00080628093B000C093B400C9CF809198
:102340009000806880939000D0939900C09398008B
:10235000BFCF80919000806280939000D0939B00CB
:10236000C0939A00B5CF80919000886080939000D0
:10237000D0939D00C0939C00ABCF8091A00080685B
:102380008093A0008091A0008F7B8093A000D093C9
:10239000A900C093A8009CCF8091A0008062809388
:1023A000A000D093AB00C093AA0092CF8091A00070
:1023B00088608093A000D093AD00C093AC0088CF1C
:1023C00080912001806880932001D0932901C093DF
:1023D00028017ECF80912001806280932001D093DC
:1023E0002B01C0932A0174CF8091200188608093D3
:1023F0002001D0932D01C0932C016ACFC038D105A4
:102400000CF03ECF33CF8150823108F05AC0E82F14
:10241000F0E08827E15FFD4E8F4F0C940B132F12D5
:102420003312211227122B12611236123C12401263
:1024300046124A124E125412581261125C12621263
:102440006612809180008F7780938000089580913C
:1024500080008F7DF9CF80918000877FF5CF84B594
:102460008F7784BD089584B58F7DFBCF8091B000B8
:102470008F778093B00008958091B0008F7DF9CF61
:10248000809190008F7780939000089580919000C4
:102490008F7DF9CF80919000877FF5CF8091A0004C
:1024A0008F778093A00008958091A0008F7DF9CF51
:1024B0008091A000877FF5CF809120018F77809356
:1024C00020010895809120018F7DF9CF8091200116
:1024D000877FF5CFCF93DF9390E0FC01E65DFC4F63
:1024E000249180599C4FFC0184918823C9F090E08D
:1024F000880F991FFC01E053FC4FA591B491FC019A
:10250000EA54FC4FC591D49161110DC09FB7F89466
:102510008C91209582238C938881282328839FBFC8
:10252000DF91CF910895623051F49FB7F8943C91B8
:10253000822F809583238C93E8812E2BEFCF8FB74A
:10254000F894EC912E2B2C938FBFEACF1F93CF934F
:10255000DF93282F30E0F901EC51FD4F8491F90110
:10256000E65DFC4FD491F901E059FC4FC491CC23B6
:10257000A9F0162F81110E940312EC2FF0E0EE0F4C
:10258000FF1FEA54FC4FA591B4918FB7F894EC91DA
:10259000111108C0D095DE23DC938FBFDF91CF915E
:1025A0001F910895DE2BF8CF089597FB072E16F4A0
:1025B000009407D077FD09D00E94131307FC05D0C3
:1025C0003EF4909581959F4F0895709561957F4F4A
:1025D0000895A1E21A2EAA1BBB1BFD010DC0AA1F64
:1025E000BB1FEE1FFF1FA217B307E407F50720F07C
:1025F000A21BB30BE40BF50B661F771F881F991FF7
:102600001A9469F760957095809590959B01AC013F
:10261000BD01CF010895EE0FFF1F881F8BBF0790EC
:10262000F691E02D1994AA1BBB1B51E107C0AA1F0C
:10263000BB1FA617B70710F0A61BB70B881F991F63
:102640005A95A9F780959095BC01CD0108959F9367
:102650009F770E9494140F90002042F49058A2EAB1
:102660002AED3FE049E450E40E9450130C944115D8
:102670005058BB27AA270E9450130C9441150E9462
:10268000081538F00E940F1520F039F49F3F19F417
:1026900026F40C94DE140EF4E095E7FB0C94D814A9
:1026A000E92F0E94661558F3BA176207730784076B
:1026B000950720F079F4A6F50C9488150EF4E095B2
:1026C0000B2EBA2FA02D0B01B90190010C01CA01EC
:1026D000A0011124FF27591B99F0593F50F4503E97
:1026E00068F11A16F040A22F232F342F4427585F89
:1026F000F3CF469537952795A795F0405395C9F7A1
:102700007EF41F16BA0B620B730B840BBAF0915058
:10271000A1F0FF0FBB1F661F771F881FC2F70EC0F7
:10272000BA0F621F731F841F48F4879577956795CA
:10273000B795F7959E3F08F0B0CF9395880F08F0B6
:102740009927EE0F9795879508950E94B41408F481
:1027500081E008950E941815E3950C9452150E948B
:10276000C3130C9441150E940F1558F00E940815D0
:1027700040F029F45F3F29F00C94D81451110C94C7
:1027800089150C94DE140E94661568F39923B1F341
:10279000552391F3951B550BBB27AA276217730787
:1027A000840738F09F5F5F4F220F331F441FAA1F1B
:1027B000A9F335D00E2E3AF0E0E832D091505040D7
:1027C000E695001CCAF72BD0FE2F29D0660F771F85
:1027D000881FBB1F261737074807AB07B0E809F06B
:1027E000BB0B802DBF01FF2793585F4F3AF09E3FF0
:1027F000510578F00C94D8140C9489155F3FE4F3DC
:10280000983ED4F3869577956795B795F7959F5F32
:10281000C9F7880F911D9695879597F90895E1E07E
:10282000660F771F881FBB1F621773078407BA07DD
:1028300020F0621B730B840BBA0BEE1F88F7E09538
:1028400008950E9428146894B1110C948915089574
:102850000E946E1588F09F5798F0B92F9927B751AD
:10286000B0F0E1F0660F771F881F991F1AF0BA9534
:10287000C9F714C0B13091F00E948815B1E00895F5
:102880000C948815672F782F8827B85F39F0B93FE7
:10289000CCF3869577956795B395D9F73EF49095E7
:1028A0008095709561957F4F8F4F9F4F0895E89465
:1028B00009C097FB3EF490958095709561957F4F88
:1028C0008F4F9F4F9923A9F0F92F96E9BB27939536
:1028D000F695879577956795B795F111F8CFFAF446
:1028E000BB0F11F460FF1BC06F5F7F4F8F4F9F4F77
:1028F00016C0882311F096E911C0772321F09EE8D5
:10290000872F762F05C0662371F096E8862F70E03A
:1029100060E02AF09A95660F771F881FDAF7880F14
:102920009695879597F90895DF93CF931F930F930B
:102930008B01EC01E4EEF0E00E94E1140E944115ED
:102940009801AE018B01EC0160E070E080E89FE34C
:102950000E9438130E940F169801AE010F911F912B
:10296000CF91DF910C94A715990F0008550FAA0B72
:10297000E0E8FEEF16161706E807F907C0F0121692
:102980001306E407F50798F0621B730B840B950B95
:1029900039F40A2661F0232B242B252B21F40895EA
:1029A0000A2609F4A140A6958FEF811D811D089587
:1029B00097F99F6780E870E060E008959FEF80ECF2
:1029C0000895DF93CF931F930F93FF92EF92DF92BF
:1029D0007B018C01689406C0DA2EEF010E94A715D6
:1029E000FE01E894A5912591359145915591A6F365
:1029F000EF010E945013FE019701A801DA9469F7D4
:102A0000DF90EF90FF900F911F91CF91DF9108958C
:102A100000240A94161617061806090608950024BD
:102A20000A94121613061406050608950C94DE1473
:102A30000E946E15D8F3E894E0E0BB279F57F0F0B2
:102A40002AED3FE049EC06C0EE0FBB0F661F771F73
:102A5000881F28F0B23A62077307840728F0B25A39
:102A6000620B730B840BE3959A9572F7803830F400
:102A70009A95BB0F661F771F881FD2F790480C945A
:102A80005616092E0394000C11F4882352F0BB0F44
:102A900040F4BF2B11F460FF04C06F5F7F4F8F4F76
:102AA0009F4F0895EF93E0FF07C0A2EA2AED3FE0B1
:102AB00049EC5FEB0E9450130E9441150F90039464
:102AC00001FC9058ECE0F1E00C94691657FD905829
:102AD000440F551F59F05F3F71F04795880F97FBE2
:102AE000991F61F09F3F79F087950895121613069C
:102AF0001406551FF2CF4695F1DF08C016161706CB
:102B00001806991FF1CF86957105610508940895FF
:102B1000E894BB2766277727CB0197F908950E9491
:102B2000B41408F48FEF08950E94A7150C94411572
:102B30000E94081538F00E940F1520F0952311F01F
:102B40000C94D8140C94DE1411240C9489150E9452
:102B5000661570F3959FC1F3950F50E0551F629F66
:102B6000F001729FBB27F00DB11D639FAA27F00DE6
:102B7000B11DAA1F649F6627B00DA11D661F829F0D
:102B80002227B00DA11D621F739FB00DA11D621FF2
:102B9000839FA00D611D221F749F3327A00D611D0F
:102BA000231F849F600D211D822F762F6A2F1124F1
:102BB0009F5750409AF0F1F088234AF0EE0FFF1F24
:102BC000BB1F661F771F881F91505040A9F79E3F7B
:102BD000510580F00C94D8140C9489155F3FE4F3F0
:102BE000983ED4F3869577956795B795F795E795D1
:102BF0009F5FC1F7FE2B880F911D9695879597F9DA
:102C000008959F930E9418150F9007FCEE5F0C9497
:102C1000521519F416F40C94DE140C9454160E94F8
:102C20006E15B8F39923C9F3B6F39F57550B87FF79
:102C30000E9462160024A0E640EA90018058569552
:102C4000979528F4805C660F771F881F20F0261761
:102C50003707480730F4621B730B840B2029312996
:102C60004A2BA69517940794202531254A2758F713
:102C7000660F771F881F20F026173707480730F4A4
:102C8000620B730B840B200D311D411DA09581F744
:102C9000B901842F9158880F9695879508950E94C1
:102CA000B414880B990B08959F3F31F0915020F494
:102CB000879577956795B795880F911D9695879518
:102CC00097F9089591505040660F771F881FD2F7EB
:102CD00008959F938F937F936F93FF93EF939B013F
:102CE000AC010E949415EF91FF910E94E1142F9185
:102CF0003F914F915F910C949415EF920F931F9316
:102D0000CF93DF93E80134E047FD34E1042E000C5B
:102D1000550B57FF03C0519541955109E32E022FE2
:102D2000242FAE010E94B118CE01DF91CF911F91E7
:102D30000F91EF9008950F931F93CF93DF938230FD
:102D4000910510F482E090E0E091810CF091820C0A
:102D500030E020E0B0E0A0E0309799F42115310593
:102D600009F44AC0281B390B24303105D8F58A8173
:102D70009B816115710589F1FB0193838283FE01BB
:102D800011C0408151810281138148175907E0F039
:102D90004817590799F4109761F012960C931297FF
:102DA00013961C933296CF01DF91CF911F910F9113
:102DB00008950093810C1093820CF4CF21153105F6
:102DC00051F04217530738F0A901DB019A01BD0108
:102DD000DF01F801C1CFEF01F9CF9093820C80930E
:102DE000810CCDCFFE01E20FF31F8193919322500E
:102DF000310939832883D7CF20917F0C3091800C03
:102E0000232B41F420910202309103023093800C75
:102E100020937F0C20910002309101022115310591
:102E200041F42DB73EB74091040250910502241B96
:102E3000350BE0917F0CF091800CE217F307A0F4C2
:102E40002E1B3F0B2817390778F0AC014E5F5F4F00
:102E50002417350748F04E0F5F1F5093800C4093A6
:102E60007F0C819391939FCFF0E0E0E09CCFCF93D4
:102E7000DF930097E9F0FC01329713821282A09150
:102E8000810CB091820CED0130E020E01097A1F4AC
:102E900020813181820F931F20917F0C3091800C13
:102EA0002817390709F061C0F093800CE0937F0C7C
:102EB000DF91CF910895EA01CE17DF07E8F54A8147
:102EC0005B819E0141155105B1F7E901FB83EA835E
:102ED00049915991C40FD51FEC17FD0761F480810A
:102EE00091810296840F951FE901998388838281DD
:102EF00093819B838A83F0E0E0E012968D919C9110
:102F000013970097B9F52D913C911197CD01029639
:102F1000820F931F20917F0C3091800C2817390766
:102F200039F6309751F51092820C1092810CB093C3
:102F3000800CA0937F0CBCCFD383C283408151818E
:102F4000840F951FC817D90761F44E5F5F4F8881C2
:102F50009981480F591F518340838A819B819383B4
:102F600082832115310509F0B0CFF093820CE093F4
:102F7000810C9ECFFD01DC01C0CF13821282D7CF1E
:102F80004F925F926F927F928F929F92AF92BF9279
:102F9000CF92DF92EF92FF920F931F93CF93DF9325
:102FA0008C01009799F4CB01DF91CF911F910F9184
:102FB000FF90EF90DF90CF90BF90AF909F908F9059
:102FC0007F906F905F904F900C949B16FC01E60FE2
:102FD000F71F9C0122503109E217F30708F4AEC035
:102FE000D901CD91DC911197C617D70720F1C530D3
:102FF000D10578F0CE0104978617970750F0C61BCD
:10300000D70B2297C193D1936D937C93CF010E94EC
:103010003717C801DF91CF911F910F91FF90EF906B
:10302000DF90CF90BF90AF909F908F907F906F90E8
:103030005F904F9008955B01AC1ABD0A4C018C0E55
:103040009D1EA091810CB091820C512C412CF12C31
:10305000E12C109731F580917F0C9091800C8815B0
:10306000990509F05CC04616570608F058C08091D3
:10307000000290910102009741F48DB79EB74091F4
:10308000040250910502841B950BE817F90708F01C
:1030900055C0F093800CE0937F0CF901718360833D
:1030A000B8CF8D919C91119712966C9012971396B0
:1030B0007C901397A815B90559F56C0142E0C40E30
:1030C000D11CCA14DB0420F1AC014A195B09DA01F6
:1030D0001296159780F06282738251834083D901E2
:1030E0006D937C93E114F10471F0D7011396FC9376
:1030F000EE9312978ECF22968C0F9D1FF90191832C
:103100008083F301EFCFF093820CE093810C81CFA9
:103110004816590608F42C017D01D3019ACFCB0142
:103120000E949B167C01009749F0AE01B8010E94F5
:10313000A118C8010E94371787016BCF10E000E08B
:1031400068CFFB01DC0102C001900D92415050405C
:10315000D8F70895FB01DC0101900D920020E1F702
:1031600008958F929F92AF92BF92CF92DF92EF928B
:10317000FF920F931F93CF93DF9300D000D000D026
:10318000CDB7DEB76A01F22EB02E102FFBE3AF2EC3
:10319000A01608F41BE31F5F012F27E0AE014F5F6D
:1031A0005F4F0E942A1ABC018981982F9970913033
:1031B00009F44EC09BE2E1FC04C09E2D9170E0FC3E
:1031C00049C05E2D5071E82FE87083FF55C084E040
:1031D000911101C083E0EF2DE81B8F1508F0E0E0AE
:1031E000D6018E2F20E25523C9F1992329F0D6016B
:1031F0009C93C60101966C0196012D5F3F4FE2FE44
:1032000033C08EE4D6018C9391E411969C93119770
:1032100012968C93D9018E2F90E281112AC0E20F71
:10322000F32FF11D10828EEF9FEF29960FB6F894C1
:10323000DEBF0FBECDBFDF91CF911F910F91FF90E9
:10324000EF90DF90CF90BF90AF909F908F900895B8
:103250009DE2B7CF90E2B5CF2D9381508111FCCF85
:10326000CE0ED11CE0E0C1CF8EE6D6018C9391E664
:10327000CCCF9D938150D1CF482F447082FF3DC069
:1032800084E0911101C083E08F1510F4EF2DE81B4D
:10329000D6018E2F20E2552309F1992329F0D6017A
:1032A0009C93C60101966C0196012D5F3F4FE2FE93
:1032B0001BC089E4D6018C938EE411968C931197F0
:1032C00086E412968C93D9018E2F90E2882309F41C
:1032D000A6CF9D938150FACF2D9381508111FCCFC1
:1032E000CE0ED11CE0E0D9CF89E6D6018C938EE6D4
:1032F00011968C93119786E6E4CF9B0177FF02C06D
:1033000030E020E0A1E0B0E0911102C0B0E0A0E028
:10331000F9013196AE0FBF1F8B2C912CBB2009F405
:1033200061C05401EFEFAE1ABE0AAA0DBB1DFA161A
:103330001B0619F014F04F2D4A1B511188C0E3FCF5
:1033400059C07601A42FB0E2A1114FC0C40ED11C08
:10335000992309F45BC040E0D6011196F6019083F1
:103360006D01552309F448C0012F060F9A81582F8B
:10337000507184FF03C0913309F4015010160CF012
:1033800047C0093008F008E0EEE2FE2E5B01A01A0B
:10339000B10885019194819491082F3F320729F457
:1033A000D601FC92F60131966F016217730794F112
:1033B000021713077CF5DB01A21BB30BAA24A3940D
:1033C000B12CAC0EBD1EAA0DBB1D11968C912150C7
:1033D0003109D601119628153905F4F0F6018083DC
:1033E0006D01DBCFB12CA12CA0CFF701B1937F01F0
:1033F000A150AACF9111B0CFD601942F50E302C0B3
:103400005D9391509111FCCFC40ED11C40E0ACCF24
:1034100001E0BACF80E3DBCF6217730731F4963354
:1034200088F4953311F4552369F0F6018083FD018A
:10343000842F90E2811108C0A40FB11D1C9290E06E
:1034400080E0F3CE81E3F1CF91938150F3CF9111DE
:1034500083CF8ACF283008F027E03327DA01990F8D
:10346000311D87FD916000966105710539F4326068
:103470002E5F3D9330E32A95E1F708959F3F30F0AA
:1034800080387105610509F03C5F3C5F3D939130E8
:1034900008F08068911DDF93CF931F930F93FF92E5
:1034A000EF92192F987F9695E92F96959695E90FAB
:1034B000FF27EC5BFD4F99273327EE24FF24A7015C
:1034C000E70105900894079428F4360FE71EF81ECC
:1034D000491F511D660F771F881F991F0694A1F77A
:1034E0000590079428F4E70EF81E491F561FC11DCA
:1034F000770F881F991F661F0694A1F70590079400
:1035000028F4F80E491F561FC71FD11D880F991F99
:10351000661F771F0694A1F70590079420F4490FC2
:10352000561FC71FD81F990F661F771F881F069445
:10353000A9F784911095177041F0D695C7955795C6
:103540004795F794E7941A95C1F7EAEEF1E068948D
:103550001590159135916591959105907FE2739540
:10356000E118F10A430B560BC90BD009C0F7E10C67
:10357000F11E431F561FC91FD01D7EF4703311F476
:103580008A95E6CFE894015030F0080F0AF400273E
:10359000021708F4202F2395022F7A3328F079E3BD
:1035A0007D932A95E9F710C07D932A9589F60694B4
:1035B00097956795379517951794E118F10A430B7E
:1035C000560BC90BD00998F023957E9173957A33E9
:1035D00008F070E37C932013B8F77E9170617D93BF
:1035E00030F0839571E37D9370E32A95E1F7112420
:1035F000EF90FF900F911F91CF91DF91992787FD59
:103600009095089511E0C8EFD1E000E006C0802F4A
:10361000FE010E940B132196011DC93FD10780E0D6
:083620000807A9F7F894FFCF99
:103628000000830C800001CEFF1400280000006118
:103638004300000743427275757575756D2020202B
:1036480000233D3D3D3D3D3D3D3D3D3D3D3D3D2016
:10365800447269766520436F6E74726F6C20506F88
:10366800696E7473203D3D3D3D3D3D3D3D3D3D3DD5
:103678003D005363686E69747470756E6B742020B6
:10368800732E783A20002020732E793A20004D6955
:1036980074746520547565722020642E783A200071
:1036A8002020642E793A20005261646975733A20AB
:1036B8000057696E6B656C205068693A2000233D9D
:1036C8003D3D3D3D3D3D3D3D3D3D3D3D3D3D3D3D22
:1036D8003D3D3D3D3D3D3D3D3D3D3D3D3D3D3D3D12
:1036E8003D3D3D3D3D3D3D3D3D3D3D00446F6F729F
:1036F80020666F756E642100233D3D3D3D3D3D3D97
:103708003D3D3D20446F6F7220506F696E74732089
:103718003D3D3D3D3D3D3D3D3D3D3D002020783A10
:1037280020002020793A2000000000001E0B1D0D0B
:10373800980AFE0A6A0A840A760A0D0A006E616E01
:0A37480000696E66006F76660000EF
:00000001FF
