:100000000C940E020C946E1A0C94991A0C94C41A47
:100010000C94EF1A0C941A1B0C94451B0C94701B37
:100020000C949B1B0C943F020C943F020C943F02D7
:100030000C943F020C943F020C943F020C943F023C
:100040000C943F020C943F020C943F020C943F022C
:100050000C943F020C943F020C943F020C94281D18
:100060000C943F020C9487160C94BD160C943F021E
:100070000C943F020C943F020C943F020C943F02FC
:100080000C943F020C943F020C943F020C943F02EC
:100090000C943F020C943F020C943F020C943F02DC
:1000A0000C943F020C943F020C943F020C943F02CC
:1000B0000C943F020C943F020C943F020C943F02BC
:1000C0000C943F020C943F020C943F020C943F02AC
:1000D0000C943F020C943F020C941E170C9454177E
:1000E0000C943F02084AD73B3BCE016E84BCBFFD57
:1000F000C12F3D6C74319ABD56833DDA3D00C77FF8
:1001000011BED9E4BB4C3E916BAAAABE0000008090
:100110003F05A84CCDB2D44EB93836A9020C50B91F
:10012000918688083CA6AAAA2ABE000000803F004B
:100130000C9488170C94E7160C94331A0C943F1502
:100140000C94061F0C94B5170C94F1160C94F21E27
:100150000C94971E0C94761E0C947E1E0C94261AFA
:100160000C943D1F0C94B11E0C94581F0C94481F06
:100170000C94541A0C94781F0C94391F0C94481A40
:100180000C94731F0C94331F0C941C150C94411F7A
:100190000C940E150C94741F0C9402150C943015CD
:1001A0000C94521F0C941A1A0C94E81E0C948D1E79
:1001B0000C94101F0C944E1F0C94611A0C94661F23
:1001C0000C946A1F0C9441020C94C51E0C94A11E41
:1001D0000C94A91E0C945C1F0C94E10C0C94CF1E83
:1001E0000C94451F0C94121A0C9496150C946E1FC7
:1001F0000C94BB1E0C94831E0C94FC1E0C944E0D90
:100200000C94F3190C94B6150C94601F0C94DE1E1C
:100210000C947E1700407A10F35A00A0724E180911
:100220000010A5D4E80000E87648170000E40B545D
:10023000020000CA9A3B000000E1F505000080962C
:100240009800000040420F000000A086010000005E
:10025000102700000000E803000000006400000018
:1002600000000A00000000000100000000002C76E1
:10027000D888DC674F0823DFC1DFAE59E1B1B796FC
:10028000E5E3E453C63AE651997696E8E6C2842659
:10029000EB898C9B62ED407C6FFCEFBC9C9F40F235
:1002A000BAA56FA5F490055A2AF75C936B6CF967B1
:1002B0006DC11BFCE0E40D47FEF520E6B500D0ED76
:1002C000902E0300943577050080841E08000020DE
:1002D0004E0A000000C80C333333330F986E12837C
:1002E0001141EF8D2114893BE65516CFFEE6DB1850
:1002F000D1844B381BF77C1D901DA4BBE424203215
:1003000084725E228100C9F124ECA1E53D27000042
:100310000A0B02090C0D0E0807030401000000007F
:1003200000000000000000000000000000000000CD
:10033000000000000000000000001211100000008A
:1003400000000000000000000000000000000000AD
:10035000000000000102102020080810204010209A
:100360004080020102010804020101020408102079
:100370004080804020100804020180040201804077
:1003800020100804020108040201010204081020E0
:10039000408001020408102040800505050507057E
:1003A00008080808020202020A0A080804040404F1
:1003B000010101010101010103030303030303031D
:1003C000040707070C0C0C0C0C0C0C0C02020202AC
:1003D00006060606060606060B0B0B0B0B0B0B0B95
:1003E00000002200250028002B002E0031003400E0
:1003F00002010000050108010B010000210024009A
:1004000027002A002D003000330001010000040104
:1004100007010A01E10CF11688174E0D11241FBEC9
:10042000CFEFD1E2DEBFCDBF00E00CBF14E0A0E013
:10043000B2E0E6E6F1E500E00BBF02C007900D92E6
:10044000A638B107D9F72EE0A6E8B4E001C01D92A6
:10045000A138B207E1F712E0CDE0D2E000E006C03B
:1004600021970109802FFE010E941D20CA30D1076B
:1004700080E00807A9F70E94191D0C94A1280C948C
:10048000000080911C0290911D02019629F41092A7
:100490001D0210921C0208958FEF9FEF90931D0292
:1004A00080931C0208954F925F926F927F928F9279
:1004B0009F92AF92BF92CF92DF92EF92FF920F93F3
:1004C0001F93CF93DF9300D000D000D01F921F92D4
:1004D000CDB7DEB7E982FA820B831C832D833E837E
:1004E0004F83588769877A878B87CE0101960E9450
:1004F0009710882309F4D5C089819A818F3F97404E
:1005000009F0CFC0B884A9847A846B840E94721DDC
:100510006B0170938704609386040091060210912A
:1005200007020F3F100709F4B6C06A2D70E0762F5E
:1005300066276B0D711D072E000C880B990B0E940E
:10054000CC2127ED33EA4AEA51E40E9422212BED27
:100550003FE049EC50E40E94EF2220E030E040E729
:1005600052E40E94222127ED33EA40E35EE30E9439
:10057000EF224B015C01662D70E0762F6627670D38
:10058000711D072E000C880B990B0E94CC2127EDC2
:1005900033EA4AEA51E40E9422212BED3FE049EC84
:1005A00050E40E94EF2220E030E040E752E40E9455
:1005B000222127ED33EA40E35EE30E94EF222B0184
:1005C0003C01C01AD10AB601DD0C880B990B0E94C0
:1005D000CC216B017C01A5019401C301B2010E94F1
:1005E000392028EB3EE145E05FE30E942221A7018C
:1005F00096010E94EF2220E030E04AE754E40E9496
:10060000222120E030E044E353E40E94EF222BED6E
:100610003FE049E450E40E9422219B01AC0160913B
:1006200020057091210580912205909123050E945B
:100630003A206093200570932105809322059093C2
:100640002305A3019201C501B4010E943A2020E0D4
:1006500030E040E05FE30E94EF22A70196010E9494
:10066000EF2220E030E04AE754E40E9422219B017F
:10067000AC016091CC047091CD048091CE04909136
:10068000CF040E943A206093CC047093CD048093F1
:10069000CE049093CF040E94721D70930702609362
:1006A00006022B960FB6F894DEBF0FBECDBFDF91CA
:1006B000CF911F910F91FF90EF90DF90CF90BF905F
:1006C000AF909F908F907F906F905F904F90089524
:1006D000AF92BF92CF92DF92EF92FF920F931F9350
:1006E000CF93DF9300D000D000D01F921F92CDB7E0
:1006F000DEB7588769877A878B878EE390E09A8385
:100700008983007E00610B83CC82DD82AE82BF8252
:1007100040E060EE8FE00E942610CE0101960E941C
:10072000FB106AE070E080E090E00E94A31D2B9631
:100730000FB6F894DEBF0FBECDBFDF91CF911F91F2
:100740000F91FF90EF90DF90CF90BF90AF90089502
:100750004F925F926F927F92AF92BF92CF92DF9251
:10076000EF92FF920F931F93CF93DF93CDB7DEB736
:10077000A3970FB6F894DEBF0FBECDBF2B013C018F
:10078000E980FA800B811C812D813E814F81588543
:1007900069857A858B850E94530220E030E048EC21
:1007A00052E4C301B2010E9422216093D4047093E9
:1007B000D5048093D6049093D7048091CC04909173
:1007C000CD04A091CE04B091CF048093C80490933F
:1007D000C904A093CA04B093CB0488E894E00E94B3
:1007E000601110921C0510921D0510921E051092AA
:1007F0001F058091200590912105A0912205B091BF
:1008000023058093180590931905A0931A05B093BA
:100810001B0588ED94E00E9460114091CC0450913A
:10082000CD046091CE047091CF0422E0CE010C96ED
:100830000E948F1C4091C4045091C5046091C6046D
:100840007091C70422E0CE0142960E948F1C409115
:10085000D4045091D5046091D6047091D70422E05D
:10086000CE014E960E948F1C68E372E0CE0148963E
:100870000E94351CBE01625E7F4FCE0148960E94E9
:10088000EB1C68E472E00E94FE1CBE016E5E7F4FAE
:100890000E94EB1C69E672E00E94FE1CBE01645FD0
:1008A0007F4F0E94EB1CBC018AE39DE00E9412185E
:1008B000CE0148960E94C61BCE014E960E94C61BD2
:1008C000CE0142960E94C61BCE010C960E94C61B0A
:1008D000609114057091150580911605909117058A
:1008E00090580E9494215B016091C4047091C504EA
:1008F0008091C6049091C7040E9494216B01E98005
:10090000FA800B811C812D813E814F81588569853C
:100910007A858B850E94680320E030E0A901C3013D
:10092000B2010E94E222181624F077FA709477F848
:100930007094C090CC04D090CD04E090CE04F090A0
:10094000CF0420E030E0A901C701B6010E94E222F5
:10095000A701960118160CF05058C301B2010E946D
:1009600039202B013C012DEC3CEC4CEC5DE30E946A
:10097000182187FF37C02DEC3CEC4CEC5DEBC3013C
:10098000B2010E94E22218166CF585E090E0909387
:100990001D0280931C0222E0B701A601CE014296FF
:1009A0000E948F1C67E572E0CE010C960E94351CF8
:1009B000BE016E5E7F4FCE010C960E94EB1CBC0107
:1009C0008AE39DE00E941218CE010C960E94C61B7D
:1009D000CE0142960E94C61B68E772E08AE39DE062
:1009E0000E942418A3960FB6F894DEBF0FBECDBFA9
:1009F000DF91CF911F910F91FF90EF90DF90CF90FB
:100A0000BF90AF907F906F905F904F9008954F92FE
:100A10005F926F927F92AF92BF92CF92DF92EF92EE
:100A2000FF920F931F93CF93DF93CDB7DEB76797F6
:100A30000FB6F894DEBF0FBECDBF2B013C01E9809D
:100A4000FA800B811C812D813E814F8158856985FB
:100A50007A858B850E94530240921C0550921D0599
:100A600060921E0570921F058091200590912105CE
:100A7000A0912205B0912305809318059093190544
:100A8000A0931A05B0931B0588ED94E00E946011B5
:100A900060911405709115058091160590911705C8
:100AA00090580E9494215B01D12CC12CE980FA80DE
:100AB0000B811C812D813E814F81588569857A8506
:100AC0008B850E94680320E030E0A901C301B201D8
:100AD0000E94E222181624F077FA709477F8709446
:100AE000C0902005D0902105E0902205F0902305CC
:100AF00020E030E0A901C701B6010E94E222A7016F
:100B0000960118160CF05058C301B2010E9439200A
:100B10002B013C012DEC3CEC4CE45DE30E941821E0
:100B200087FF3FC02DEC3CEC4CE45DEBC301B20110
:100B30000E94E2221816ACF583E090E090931D022B
:100B400080931C0222E0B701A601CE0142960E94CA
:100B50008F1C68EA72E0CE010C960E94351CBE0123
:100B60006E5E7F4FCE010C960E94EB1CBC018AE3A7
:100B70009DE00E941218CE010C960E94C61BCE0169
:100B800042960E94C61B68E772E08AE39DE00E94DD
:100B9000241810922005109221051092220510921F
:100BA000230567960FB6F894DEBF0FBECDBFDF9169
:100BB000CF911F910F91FF90EF90DF90CF90BF905A
:100BC000AF907F906F905F904F900895CF93DF9399
:100BD000C0913205D0913305809140059091410537
:100BE000C80FD91FD7FD2196D595C79560913005BF
:100BF0007091310580913E0590913F05680F791FF6
:100C000077FF02C06F5F7F4F75956795645B7109D1
:100C1000072E000C880B990B0E94CC2160932805AD
:100C20007093290580932A0590932B05BE010D2E04
:100C3000000C880B990B0E94CC21609324057093C3
:100C4000250580932605909327056DEC72E08AE3D5
:100C50009DE00E9424186DE373E08AE39DE00E940A
:100C6000FF17409128055091290560912A05709140
:100C70002B0522E030E08AE39DE00E94E1196AE45E
:100C800073E08AE39DE00E94FF174AE050E0BE0156
:100C90008AE39DE00E94D61868E772E08AE39DE04F
:100CA0000E94241882E090E090931D0280931C0221
:100CB000DF91CF9108954F925F926F927F928F92C2
:100CC0009F92AF92BF92CF92DF92EF92FF92CF931B
:100CD000DF9300D000D01F921F92CDB7DEB720E087
:100CE00030E044E152E4609136057091370580911F
:100CF0003805909139050E9439202B013C01409222
:100D0000360550923705609238057092390520E01B
:100D100030E040ED51E460913A0570913B058091DF
:100D20003C0590913D050E943A204B015C01809268
:100D30003A0590923B05A0923C05B0923D0520E01B
:100D400030E044E152E460914405709145058091A2
:100D50004605909147050E94392069837A838B83E9
:100D60009C8360934405709345058093460590935A
:100D7000470520E030E040ED51E460914805709176
:100D8000490580914A0590914B050E943A206B01DC
:100D90007C01C0924805D0924905E0924A05F09244
:100DA0004B05A3019201C301B2010E94EF226D83A2
:100DB0007E838F839887A5019401C501B4010E94A9
:100DC000EF229B01AC016D817E818F8198850E940D
:100DD0003A200E946A230E94942170933305609305
:100DE000320520E030E0A901C501B4010E941821BC
:100DF000A301920187FF11C1C501B4010E94222104
:100E00000E94E9202BED3FE049E450E40E943A20A3
:100E100020E030E044E353E40E94EF222BED3FE07A
:100E200049E450E40E9422210E94942170933105EC
:100E30006093300529813A814B815C81CA01B901F7
:100E40000E94EF224B015C01A7019601C701B60188
:100E50000E94EF229B01AC01C501B4010E943A201F
:100E60000E946A230E94942170934105609340057B
:100E700020E030E0A901C701B6010E9418212981B4
:100E80003A814B815C8187FFCDC0C701B6010E94CA
:100E900022210E94E9202BED3FE049E450E40E942A
:100EA0003A2020E030E044E353E40E94EF222BEDAF
:100EB0003FE049E450E40E9422210E949421709373
:100EC0003F0560933E0564E573E08AE39DE00E9480
:100ED000241868E273E08AE39DE00E94FF174091C6
:100EE000360550913705609138057091390522E03B
:100EF00030E08AE39DE00E94DF196BE773E08AE34C
:100F00009DE00E94FF1740913A0550913B0560918A
:100F10003C0570913D0522E030E08AE39DE00E94AF
:100F2000DF1961E873E08AE39DE00E94FF1760919A
:100F30003205709133054AE050E08AE39DE00E945B
:100F4000CF186AE873E08AE39DE00E94FF17609182
:100F50003005709131054AE050E08AE39DE00E943F
:100F6000D61868E273E08AE39DE00E94FF17409183
:100F7000440550914505609146057091470522E072
:100F800030E08AE39DE00E94DF196BE773E08AE3BB
:100F90009DE00E94FF1740914805509149056091DE
:100FA0004A0570914B0522E030E08AE39DE00E9403
:100FB000DF1961E873E08AE39DE00E94FF1760910A
:100FC0004005709141054AE050E08AE39DE00E94AF
:100FD000CF186AE873E08AE39DE00E94FF176091F2
:100FE0003E0570913F054AE050E08AE39DE0289677
:100FF0000FB6F894DEBF0FBECDBFDF91CF91FF904B
:10100000EF90DF90CF90BF90AF909F908F907F90A8
:101010006F905F904F900C94D618C501B4010E9458
:10102000B920F6CEC701B6010E94B9203ACF2F925F
:101030003F924F925F926F927F928F929F92AF9268
:10104000BF92CF92DF92EF92FF920F931F93CF93B5
:10105000DF93CDB7DEB766970FB6F894DEBF0FBE4D
:10106000CDBF7C0110922D0510922C0500E418E0F4
:101070004EE0D42EF80160897189072E000C880B90
:10108000990B0E94CC219B01AC010E943A204B019C
:101090005C01F80162817381072E000C880B990BAB
:1010A0000E94CC219B01AC01C501B4010E943920F2
:1010B0004B015C01F801668D778D072E000C880BC3
:1010C000990B0E94CC219B01AC01C501B4010E9487
:1010D00039200E9494216E157F05DCF4F801828985
:1010E00093890B97B4F080912E0590912F05D89E8F
:1010F000D001D99EB00D1124AC57BA4F3E962D2D7C
:1011000001900D922A95E1F7019690932F05809317
:101110002E05025F1F4F2DE00E31120709F0AACFF6
:1011200080912C0D8823F1F164E973E08AE39DE05E
:101130000E94241804E815E0F12CE12C80912E0582
:1011400090912F05E816F9066CF5F8016081718120
:101150004AE050E08AE39DE00E94CF1863EF73E01D
:101160008AE39DE00E94FF17F801628173814AE0E3
:1011700050E08AE39DE00E94CF1863EF73E08AE3BA
:101180009DE00E94FF17F801648175814AE050E0FC
:101190008AE39DE00E94D618FFEFEF1AFF0A025F74
:1011A0001F4FCCCF34E8232E35E0332E18861F8214
:1011B00080912E0590912F052F81388528173907AA
:1011C0000CF452C020902C0530902D0500E315E062
:1011D0007801D12CC12CC214D3040CF052C1F701F8
:1011E00062817381072E000C880B990B0E94CC2121
:1011F0004B015C01F70160817181072E000C880BA7
:10120000990B0E94CC212BED3FE049E450E40E9471
:10121000EF2220E030E044E353E40E9422212B013E
:101220003C010E941D219B01AC01C501B4010E943B
:10123000EF22F7016683778380879187C301B2012C
:101240000E945C239B01AC01C501B4010E94EF2206
:10125000F7016287738784879587FFEFCF1ADF0ACC
:101260002EE0E20EF11CB7CF6F8178856F5F7F4F64
:1012700078876F8381017A87698780912E059091A5
:101280002F05E985FA85E817F90724F0FEE02F0E0F
:10129000311C8ECFF1010190F081E02DFC87EB87AE
:1012A000F8010684F785E02DFE87ED876B857C8548
:1012B0006E1B7F0B072E000C880B990B0E94CC2114
:1012C0002BED3FE049E450E40E94EF2220E030E0C3
:1012D00044E353E40E9422210E941D216B8B7C8BEE
:1012E0008D8B9E8BF1010280F381E02DF88BEF87CF
:1012F000CF016AE070E00E94E71F072E000C880B08
:10130000990B0E94CC216B017C01F8010088F189C6
:10131000E02DFA8BE98BCF016AE070E00E94E71FB5
:10132000072E000C880B990B0E94CC214B015C010D
:10133000A7019601C701B6010E94EF222B013C01D3
:10134000A5019401C501B4010E94EF229B01AC01EB
:10135000C301B2010E943A202B013C01A701960172
:10136000C701B6010E943A20A50194010E94EF2214
:101370002B893C894D895E890E94EF229B01AC013B
:10138000C301B2010E9439200E946A2320E030E0AC
:1013900040E251E40E94EF226B017C0120E030E04A
:1013A00040E752E40E94E22218160CF061C020E0EF
:1013B00030E042ED52E4C701B6010E94182187FFD8
:1013C00057C08F85988929893A89820F931F97FD85
:1013D0000196959587958C599F4FE0E4F8E021E0C0
:1013E000408151816B857C85641775075CF46D8540
:1013F0007E854617570734F44281538148175907B1
:101400000CF420E03E967DE0EC32F70749F722230A
:1014100079F180912C0590912D05EEE0E89FD001A7
:10142000E99FB00D1124A05DBA4FF1012EE00190AB
:101430000D922A95E1F79C012F5F3F4FFEE0F29F4E
:10144000D001F39FB00D1124A05DBA4FF8013E9674
:101450002EE001900D922A95E1F7029690932D05CA
:1014600080932C0568EB73E08AE39DE00E942418CA
:1014700029853A852F5F3F4F3A872987025F1F4FA3
:10148000FCCE64EC73E08AE39DE00E942418F12C0A
:10149000E12C80912C0590912D05E816F9060CF0B1
:1014A00046C068E273E08AE39DE00E94FF17F801FE
:1014B000468157816085718522E030E08AE39DE0B6
:1014C0000E94DF196BE773E08AE39DE00E94FF173B
:1014D000F801428553856485758522E030E08AE312
:1014E0009DE00E94DF1961E873E08AE39DE00E94BD
:1014F000FF17F801628173814AE050E08AE39DE0C2
:101500000E94CF186AE873E08AE39DE00E94FF170B
:10151000F801608171814AE050E08AE39DE00E9419
:10152000D618FFEFEF1AFF0A025F1F4FB2CF68EE27
:1015300073E08AE39DE00E94FF1760912C05709193
:101540002D054AE0CE0101960E94541CBE016F5F3A
:101550007F4F8AE39DE00E941218CE0101960E94FF
:10156000C61B80912C0590912D0582309105F9F4D0
:1015700081E090E090931D0280931C0266960FB666
:10158000F894DEBF0FBECDBFDF91CF911F910F91B9
:10159000FF90EF90DF90CF90BF90AF909F908F9093
:1015A0007F906F905F904F903F902F90089500979D
:1015B00011F003971CF384E090E0DCCF4F925F9230
:1015C0006F927F928F929F92AF92BF92CF92DF9253
:1015D000EF92FF920F931F93CF93DF93CDB7DEB7B8
:1015E00064970FB6F894DEBF0FBECDBF90E9E92E29
:1015F000FF24F3942EE0C22E44EF51E060E070E04F
:101600008DE29DE00E94900D97FDBAC080902F0D55
:101610009090300DA090310DB090320D4090330D70
:101620005090340D6090350D7090360D20E030E014
:10163000A901C501B4010E94182118163CF0812CA3
:1016400080EC982E8AEDA82E85E4B82EA301920195
:1016500060912002709121028091220290912302D8
:101660000E94E22287FD32C0A30192016091240210
:101670007091250280912602909127020E941821E4
:10168000181624F1D090370DC301B2010E949421A5
:101690009B0127583109C29E8001C39E100D112461
:1016A000005C174FF8017183608320E030E040E276
:1016B00051E4C501B4010E9422210E949421F80145
:1016C000738362838D2D90E095838483F1E0EF1A1C
:1016D000F10809F091CF80912C0D882379F100E475
:1016E00018E0F801608171814AE050E08AE39DE0F2
:1016F0000E94CF1863EF73E08AE39DE00E94FF171A
:10170000F801628173814AE050E08AE39DE00E9423
:10171000CF1863EF73E08AE39DE00E94FF17F801A2
:10172000648175814AE050E08AE39DE00E94D6180A
:10173000025F1F4FFDE00C321F0799F670E060E07A
:1017400083E00E943E1E80911E0290911F020E9423
:10175000170864960FB6F894DEBF0FBECDBFDF91B9
:10176000CF911F910F91FF90EF90DF90CF90BF909E
:10177000AF909F908F907F906F905F904F90089563
:1017800070E060E083E00E943E1E24E630E040E02E
:1017900050E0BE016F5F7F4F8DE29DE00E94170F0A
:1017A00097FD94CF28EE33E040E050E060E08DE21A
:1017B0009DE00E94A60F6FEF70E083E00E943E1E46
:1017C00068EE73E080E090E00E94A31D7FCF8EE082
:1017D000ECE2FDE0DF01982F1D929A95E9F7E0E435
:1017E000F8E0DF01982F1D929A95E9F7E4E8F5E01B
:1017F000DF011D928A95E9F710922F0510922E05B0
:101800008FEF9FEF90931D0280931C020895CF925B
:10181000DF92EF92FF920F931F9367ED7DE08DE2D1
:101820009DE00E94700D26E040E052EC61E070E027
:101830008AE39DE00E94031661E083E00E947C1F22
:1018400061E086E10E947C1F62E082E00E947C1FD2
:1018500043E050E061E472E080E00E94F41961E04E
:1018600086E10E94B81F6AE070E080E090E00E948C
:10187000A31D65EF73E08AE39DE00E94241868EEE3
:1018800073E080E090E00E94A31D63E089E39DE0A7
:101890000E945D116AE274E0811102C066E374E0A7
:1018A0008AE39DE00E94241868EE73E080E090E0F7
:1018B0000E94A31D61E070E088ED94E00E940A148C
:1018C000C0901002D0901102E0901202F09013022A
:1018D0000091140210911502209116023091170206
:1018E000409118025091190260911A0270911B02E6
:1018F00088ED94E00E94AD1361E070E088E894E028
:101900000E940A14C090D004D090D104E090D20478
:10191000F090D304009108021091090220910A026C
:1019200030910B0240910C0250910D0260910E0219
:1019300070910F0288E894E00E94AD131F910F91FF
:10194000FF90EF90DF90CF90089580911C029091CE
:101950001D0282309105C9F02CF4009751F00197D7
:1019600081F008958430910521F1CCF0059739F18B
:10197000089565E474E08AE39DE00E9424180C94C5
:10198000DE0A0E945B060C94E605609128057091C2
:10199000290580912A0590912B050C9407056091EB
:1019A00024057091250580912605909127050C94BA
:1019B000A80360E574E08AE39DE00E9424180C947B
:1019C000E70BAF92BF92CF92DF92EF92FF920F930D
:1019D0001F938DE29DE00E94520DA0901402B090E2
:1019E0001502C0901602D0901702E0901802F090F5
:1019F000190200911A0210911B021F921F928091EE
:101A000013028F93809112028F93809111028F9312
:101A1000809110028F932CE135E044E155E068E1BC
:101A200075E088ED94E00E94D014A0900802B09078
:101A30000902C0900A02D0900B02E0900C02F090D4
:101A40000D0200910E0210910F021F921F928091C1
:101A5000D3048F938091D2048F938091D1048F937C
:101A60008091D0048F9324ED34E044EC54E068EC92
:101A700074E088E894E00E94D0148DB79EB70C966D
:101A80000FB6F8949EBF0FBE8DBF1F910F91FF90B0
:101A9000EF90DF90CF90BF90AF9008958DE29DE0E2
:101AA0000C946E0DFC01118210821282138214823A
:101AB0001582168217821086118612861386089563
:101AC000CF93DF93EC0188819981009721F00E94E8
:101AD000651619821882DF91CF9108950C94600DDC
:101AE0000F931F93CF93DF93EC018B018881998132
:101AF000892B19F0CE010E94600D19830883C8015B
:101B00000E94651626E040E052EC61E070E08881BA
:101B100099810E940316DF91CF911F910F91089533
:101B20004F925F926F927F928F929F92AF92BF92ED
:101B3000EF92FF921F93CF93DF9300D01F921F92DB
:101B4000CDB7DEB77C012A013B010E94721D4B011B
:101B50005C0110E00E94721D681979098A099B09CD
:101B6000461657066806790608F472C0D7018D91AB
:101B70009C91DC01ED91FC910284F385E02D199597
:101B800097FDE8CF112309F457C0113009F45DC067
:101B900091E0910FE1E0F0E0EC0FFD1FE10FF11D8E
:101BA0008083953009F046C06C817D8190E080E0B3
:101BB0000E94CA2120E030E040E85EE30E94EF226C
:101BC000D70112966D937D938D939C9315976A819F
:101BD0007B817695679590E080E00E94CA2120E0A5
:101BE00030E040E85CE30E94EF22F70166837783F0
:101BF000808791878981282F30E035952795359505
:101C0000279522878170838760E070E0CB010F9079
:101C10000F900F900F900F90DF91CF911F91FF9039
:101C2000EF90BF90AF909F908F907F906F905F905C
:101C30004F900895192F8ECF9C0135952795FC0163
:101C4000E2279F0120FDA4CF85CF80FDA1CF81CFCA
:101C500062E070E880E090E8DACFCF92DF92EF9216
:101C6000FF920F931F93CF93DF9300D000D01F926A
:101C7000CDB7DEB77C01162F5F834E8369011D82CD
:101C8000232B21F0CA01892B09F0106805EA09838A
:101C90001A83D7018D919C91DC01ED91FC9102801A
:101CA000F381E02D42E050E0BE016F5F7F4F199558
:101CB00017FF40C06D8160276C2561276D83EE8121
:101CC000FF8196012E0F3F1FE217F30729F0919134
:101CD0008D8189278D83F8CFCC82F7018081918116
:101CE000DC01ED91FC910280F381E02D41E050E0B8
:101CF000BE016C5F7F4F1995F701808191814C8106
:101D000050E0DC01ED91FC910280F381E02DBE01F9
:101D10006A5F7F4F1995F70180819181DC01ED9118
:101D2000FC910280F381E02D41E050E0BE016B5F49
:101D30007F4F199560E070E0CB0127960FB6F894BD
:101D4000DEBF0FBECDBFDF91CF911F910F91FF90EE
:101D5000EF90DF90CF900895FC0120813181232BFB
:101D600039F030E020E050E040E065E20C942D0EC8
:101D700061E070E880E090E808957F928F929F92F2
:101D8000AF92BF92CF92DF92EF92FF920F931F9389
:101D9000CF93DF938C01EB0149015A010E94721D20
:101DA0006B017C01712C0E94721D6C197D098E09DA
:101DB0009F0986169706A806B906A0F1D8018D914D
:101DC0009C91DC01ED91FC910284F385E02D199545
:101DD00097FDE9CF7720F1F0B1E07B16F9F091E0C3
:101DE000970DFE01E70DF11D8083973089F460E0C7
:101DF00070E0CB01DF91CF911F910F91FF90EF9099
:101E0000DF90CF90BF90AF909F908F907F9008957C
:101E1000792EC9CF853A910511F3C5CF8A35910541
:101E2000F1F2C0CF62E070E880E090E8E3CF4F923B
:101E30005F926F927F928F929F92AF92BF92CF925A
:101E4000DF92EF92FF920F931F93CF93DF9300D017
:101E500000D01F92CDB7DEB77C016B0149015A015A
:101E60000E94721D2B013C01D7018D919C91892B01
:101E700009F45EC030E020E050E040E060E5C701DA
:101E80000E942D0E97FD3DC0A5019401BE016F5F1C
:101E90007F4FC7010E94BD0E97FD33C08F818430F4
:101EA00009F04BC08B819C81AD812E81B22FBF7315
:101EB0004497A105B10508F440C08601B4E1CB0EFA
:101EC000D11C0E94721D641975098609970986162E
:101ED0009706A806B906A8F1F70180819181DC0177
:101EE000ED91FC910284F385E02D199597FDE9CFE2
:101EF000F80181938F01CE16DF0619F760E070E0DC
:101F0000CB0127960FB6F894DEBF0FBECDBFDF9191
:101F1000CF911F910F91FF90EF90DF90CF90BF90E6
:101F2000AF909F908F907F906F905F904F900895AB
:101F300061E070E880E090E8E4CF60E070E8CB0119
:101F4000E0CF62E070E880E090E8DBCFBF92CF9214
:101F5000DF92EF92FF920F931F93CF93DF9300D006
:101F600000D01F92CDB7DEB7DC01ED91FC91EF2BD5
:101F700009F440C069017A01B62E8C010E94AC0EB2
:101F800060E2B11061E230E020E050E040E0C801E2
:101F90000E942D0E97FD1AC0A7019601BE016F5F2A
:101FA0007F4FC8010E94BD0E97FD10C08F81813800
:101FB000E9F48B819C81AD812E81B22FBF7305978F
:101FC000A105B10598F060E070E0CB0127960FB64F
:101FD000F894DEBF0FBECDBFDF91CF911F910F915F
:101FE000FF90EF90DF90CF90BF90089560E070E891
:101FF000CB01ECCF61E070E880E090E8E7CF8EBDE8
:102000000DB407FEFDCF8EB50895CF93DF93D82F83
:10201000C62F289882E00E94FF0F8D2F0E94FF0F8D
:102020008C2F0E94FF0F289ADF91CF910895CF93B4
:10203000C82F289883E00E94FF0F8C2F0E94FF0F6B
:102040008FEF0E94FF0F289ACF9108951F93CF938F
:10205000DF93182FD62FC42F289885E00E94FF0FFA
:10206000812F0E94FF0F8D2F0E94FF0F8C2F0E9447
:10207000FF0F289ADF91CF911F91089528980E9411
:10208000FF0F8FEF0E94FF0F289A0895CF93C82F5C
:10209000289A209A29982A982B98219A229A23984C
:1020A0006C98749A81E58CBD1DBC289880EC0E94C8
:1020B000FF0F289A87EC90E00197F1F700C000002D
:1020C000289882E00E94FF0F88E20E94FF0F82E0C2
:1020D0000E94FF0F80E90E94FF0F8C2F0E94FF0FCC
:1020E00083E00E94FF0F289A8AE20E9417108C1743
:1020F00041F08091020180628093020180E0CF91E3
:10210000089560E08CE00E94051060E08DE00E9480
:10211000051060E680E60E94051060E680E70E94F8
:10212000051060E08FE00E94051081E0E8CFEF929B
:10213000FF920F931F93CF93DF938C0180EB0E944C
:102140003E10C82F282F2074E22E86FD05C084E99A
:10215000C7FD03C080E040C080E928980E94FF0FBF
:102160008FEF0E94FF0FE8E08E9FC0011124F8015D
:10217000918380838FEF0E94FF0F282F2295269551
:102180002770F80180819181822B918380838FEF6A
:102190000E94FF0F8FEF0E94FF0F8FEF0E94FF0F33
:1021A0008F70F82E982F990FF8018281817E892BEC
:1021B000C3FB80F982830D5F1F4FD0E0DF1113C096
:1021C000289A40E061E0E11001C062E08CE20E94E8
:1021D00026108C2F87708F5FDF91CF911F910F9109
:1021E000FF90EF9008958FEF0E94FF0FF801819309
:1021F0008F01DF5FE3CFFF920F931F93CF93DF93A6
:102200008C0180EA0E943E1082FF07C084FF44C018
:10221000C4E086FF03C0C0E038C0C0E028988C2F1F
:1022200080640E94FF0FF8018081918123E09695E0
:1022300087952A95E1F70E94FF0FF801808182952A
:10224000880F807E0E94FF0F80E00E94FF0F80E0D9
:102250000E94FF0FF8018281D82FD695DF7080FF92
:102260001DC08D2F80640E94FF0F289A87EC90E09C
:102270000197F1F700C000002898C11101C0C1E02A
:102280008C2F80680E94FF0F289A8C2FDF91CF91AE
:102290001F910F91FF900895C2E0C0CF8D2F0E9433
:1022A000FF0F0D5F1F4FF12CFD16F9F2F801819120
:1022B0008F010E94FF0FF394F7CF862F0C944610E6
:1022C0002F923F924F925F926F927F928F929F9246
:1022D000AF92BF92CF92DF92EF92FF920F931F9334
:1022E000CF93DF93CDB7DEB760970FB6F894DEBF1C
:1022F0000FBECDBFDC01DA96BC91BD83B1111BC00E
:102300001D828D8160960FB6F894DEBF0FBECDBFE3
:10231000DF91CF911F910F91FF90EF90DF90CF90C1
:10232000BF90AF909F908F907F906F905F904F90F5
:102330003F902F900895988B8F870E94721D6B8716
:102340007C878D879E87EF85F88982A193A1A4A1C0
:10235000B5A12B853C854D855E85281B390B4A0B25
:102360005B0BDA01C90146A557A560A971A98417BD
:102370009507A607B70720F2048CF58DE02D808124
:102380009181A281B38189839A83AB83BC83AF851A
:10239000B8899096ED91FC9129813A814B815C81BD
:1023A00060817181828193810E9439204B015C019F
:1023B000EF85F88922A533A544A555A569817A81C1
:1023C0008B819C810E9439206B017C01AF85B8898B
:1023D00050962D913D914D915C915397C501B4015B
:1023E0000E94EF22EF85F88926A137A140A551A5CB
:1023F0000E943A202B013C01AF85B88996964D92F8
:102400005D926D927C929997DB96BC91BE83B111DF
:1024100018C0EF85F8892485358546855785C7011D
:10242000B6010E94EF229B01AC01C301B2010E94E0
:102430003920AF85B88996966D937D938D939C9343
:102440009997EF85F88946A057A060A471A416A9B2
:1024500007A930AC21AC212F302F432D522DC301C1
:10246000B2010E94E22218160CF07FC0812F902F3B
:10247000A32DB22DEF85F88986A397A3A0A7B1A7B6
:10248000BE81BB2309F490C0EF85F889248535858A
:1024900046855785C501B4010E94EF224B015C01BE
:1024A000AF85B88954962D913D914D915C91579788
:1024B000C701B6010E94EF229B01AC01EF85F889AC
:1024C00066A177A180A591A50E943920A50194015C
:1024D0000E943A206B017C019B01AC01612F702F9F
:1024E000832D922D0E94182187FD1BC0AF85B889CE
:1024F000D2961C91D297D3960C91D397D4963C90B8
:10250000D497D5962C909601A701612F702F832D1B
:10251000922D0E94E222181624F01C2D0D2D3E2C27
:102520002F2CAF85B8895E96ED91FC91812F902F6D
:10253000A32DB22D80839183A283B38329813A8115
:102540004B815C81AF85B8899A962D933D934D93CD
:102550005C939D972B853C854D855E8592962D934A
:102560003D934D935C939597CCCEAF85B889D29629
:102570002D913D914D915C91D5972F833887498757
:102580005A87C301B2010E94182187FF79CF2F819A
:10259000388549855A85AF85B88996962D933D93A0
:1025A0004D935C9399976CCF812C912C540178CFEB
:1025B0004F925F926F927F928F929F92AF92BF9253
:1025C000CF92DF92EF92FF920F931F93CF93DF93FF
:1025D00000D000D0CDB7DEB79E838D8349835A8368
:1025E0006B837C832801390120E030E0A9016981F7
:1025F0007A818B819C810E94182187FD97C020E001
:1026000030E0A901C301B8010E94182187FD8EC0E6
:1026100020E030E0A901C701B6010E94182187FD22
:1026200085C0AD81BE815B96BC92AE925A9781E027
:10263000AA94AB2809F080E0ED81FE8183AF898107
:102640009A81AB81BC8180839183A283B3834482CE
:10265000558266827782C086D186E286F38666A539
:1026600077A580A991A90E94CA2120E030E04AE71D
:1026700054E40E9422214B015C0189819A81AB8143
:10268000BC81ED81FE8184879587A687B787A501E8
:102690009401C301B2010E94EF222B013C01AD81E4
:1026A000BE8150964D925D926D927C925397A5019A
:1026B0009401C701B6010E9422216B017C01ED81CA
:1026C000FE81C48AD58AE68AF78A808D918D01972A
:1026D00069F529813A814B815C8160E070E0CB0132
:1026E0000E943920AD81BE811C966D937D938D93A0
:1026F0009C931F97A301920160E070E0CB010E94C0
:102700003920ED81FE81608B718B828B938BA701C9
:10271000960160E070E0CB010E943920AD81BE815E
:1027200054966D937D938D939C93579726960FB6F1
:10273000F894DEBF0FBECDBFDF91CF911F910F91F7
:10274000FF90EF90DF90CF90BF90AF909F908F90D1
:102750007F906F905F904F900895AF92BF92CF920D
:10276000DF92EF92FF920F931F93FC01A28CB38C28
:102770000E94D8121F910F91FF90EF90DF90CF90A1
:10278000BF90AF9008958F929F92AF92BF92CF92D9
:10279000DF92EF92FF92CF93DF93EC01EE8DFF8DEE
:1027A000C080D180E280F380CEA2DFA2E8A6F9A6A5
:1027B000EC8DFD8D80819181A281B3818AA79BA739
:1027C000ACA7BDA78EA89FA8A8ACB9ACA5019401E1
:1027D000C701B6010E94E22218162CF48EA29FA215
:1027E000A8A6B9A60CC08AA89BA8ACA8BDA8A5019C
:1027F0009401C701B6010E94182187FDEFCFDF9138
:10280000CF91FF90EF90DF90CF90BF90AF909F90CF
:102810008F9008951F93CF93DF93EC0111E0613007
:10282000710509F010E06130710531F48AAD811154
:1028300003C0CE010E94C3131AAFDF91CF911F9145
:1028400008950F931F93CF93DF93EC018B018AAD13
:10285000882361F1888D998D8617970739F12C852A
:102860003D854E855F8560E070E0CB010E94392098
:102870006C877D878E879F87288939894A895B89FC
:1028800060E070E0CB010E943920688B798B8A8BE5
:102890009B8B2C893D894E895F8960E070E0CB017C
:1028A0000E9439206C8B7D8B8E8B9F8B198F088FAC
:1028B000DF91CF911F910F9108954F925F926F9288
:1028C0007F928F929F92AF92BF92CF92DF92EF92C0
:1028D000FF920F931F93CF93DF9300D01F92CDB73A
:1028E000DEB74C0127013801A982BA82CB82DC8293
:1028F000FC01578F468F758F648F31A320A312AED2
:1029000080E090E0A0EAB2EC82AB93ABA4ABB5ABB5
:1029100080E090E0A0EAB2E486AB97ABA0AFB1AFA5
:1029200084E690E0A0E0B0E086A797A7A0ABB1ABAB
:102930006E8D7F8DC4010E942114AC8CBD8CC88C1F
:10294000D98CEA8CFB8C09811A812B813C81B301E3
:10295000A201C4010E94D8120E94721DF40146A473
:1029600057A460A871A8641975098609970962A31C
:1029700073A384A395A30F900F900F900F90DF91F6
:10298000CF911F910F91FF90EF90DF90CF90BF906C
:10299000AF909F908F907F906F905F904F90089531
:1029A0008F929F92AF92BF92CF92DF92EF92FF925F
:1029B0000F931F93CF93DF93CDB7DEB7E889F989E3
:1029C000AA89BB899C888D888F929F921F92992497
:1029D00093949F92BF93AF93FF93EF930E945D14E4
:1029E0000FB6F894DEBF0FBECDBFDF91CF911F9120
:1029F0000F91FF90EF90DF90CF90BF90AF909F909E
:102A00008F900895FC01918D228D892F90E0805C3C
:102A10009F4F821B91098F7399270895FC01918D17
:102A2000828D981731F0828DE80FF11D858D90E031
:102A300008958FEF9FEF0895FC01918D828D981777
:102A400061F0A28DAE0FBF2FB11D5D968C91928D5E
:102A50009F5F9F73928F90E008958FEF9FEF08958F
:102A6000FC01538D448D252F30E0842F90E0821B94
:102A7000930B541710F0CF9608950197089587EEA1
:102A800096E1892B49F080E090E0892B29F00E94A3
:102A9000E71681110E94000080E090E0892B49F048
:102AA00080E090E0892B29F00E94000081110E94B3
:102AB000000080E090E0892B49F080E090E0892BD5
:102AC00029F00E94000081110E9400008EE797E12A
:102AD000892B49F080E090E0892B29F00E947E1735
:102AE00081110C9400000895FC01A48DA80FB92F4A
:102AF000B11DA35ABF4F2C91848D90E001968F7326
:102B00009927848FA689B7892C93A089B1898C9144
:102B1000837080648C93938D848D981306C0028893
:102B2000F389E02D80818F7D80830895CF93DF939B
:102B3000EC01888D8823B9F0AA89BB89E889F989D5
:102B40008C9185FD03C0808186FD0DC00FB607FC0A
:102B5000F7CF8C9185FFF2CF808185FFEDCFCE013D
:102B60000E947415E9CFDF91CF910895EF92FF9203
:102B70000F931F93CF93DF93EC0181E0888F9B8DA0
:102B80008C8D98131AC0E889F989808185FF15C05A
:102B90009FB7F894EE89FF896083E889F98980817D
:102BA0008370806480839FBF81E090E0DF91CF914C
:102BB0001F910F91FF90EF900895F62E0B8D10E06E
:102BC0000F5F1F4F0F731127E02E8C8D8E110CC0DD
:102BD0000FB607FCFACFE889F989808185FFF5CF28
:102BE000CE010E947415F1CFEB8DEC0FFD2FF11D7E
:102BF000E35AFF4FF0829FB7F8940B8FEA89FB8965
:102C000080818062CFCFCF92DF92EF92FF921F93AD
:102C1000CF93DF93EC016A017B01122FE889F989D8
:102C200082E08083C11481EED806E104F104A1F0B2
:102C300060E079E08DE390E0A70196010E94FB1F20
:102C400021503109410951095695479537952795E6
:102C5000211580E1380798F0E889F989108260E849
:102C600074E88EE190E0A70196010E94FB1F2150BD
:102C70003109410951095695479537952795EC85B6
:102C8000FD853083EE85FF852083188EEC89FD89D4
:102C90001083EA89FB89808180618083EA89FB89CE
:102CA000808188608083EA89FB8980818068808355
:102CB000EA89FB8980818F7D8083DF91CF911F918D
:102CC000FF90EF90DF90CF900895CF93DF93EC01CA
:102CD000E881F9810680F781E02D1995EA89FB8961
:102CE00080818F7E8083EA89FB898081877F8083D2
:102CF000EA89FB8980818F778083EA89FB898081DB
:102D00008F7D80838A8D898FDF91CF9108951F9267
:102D10000F920FB60F9211240BB60F922F938F9331
:102D20009F93EF93FF93E0914A0DF0914B0D8081BB
:102D3000E091500DF091510D82FD1DC09081809168
:102D4000530D8F5F8F732091540D821741F0E091E6
:102D5000530DF0E0E65CF24F958F8093530DFF9199
:102D6000EF919F918F912F910F900BBE0F900FBEFF
:102D70000F901F9018958081F2CF1F920F920FB67F
:102D80000F9211240BB60F922F933F934F935F93A3
:102D90006F937F938F939F93AF93BF93EF93FF9323
:102DA0008AE39DE00E947415FF91EF91BF91AF916E
:102DB0009F918F917F916F915F914F913F912F9153
:102DC0000F900BBE0F900FBE0F901F9018958AE3C7
:102DD0009DE00E94021521E0892B09F420E0822F5A
:102DE0000895EAE3FDE01382128288EE93E0A0E00A
:102DF000B0E084839583A683B78388E694E09183CB
:102E0000808385EC90E09587848784EC90E09787B9
:102E1000868780EC90E0918B808B81EC90E0938BA7
:102E2000828B82EC90E0958B848B86EC90E0978B84
:102E3000868B118E128E138E148E08951F920F9210
:102E40000FB60F9211240BB60F922F938F939F936F
:102E5000EF93FF93E091E70DF091E80D8081E09111
:102E6000ED0DF091EE0D82FD1DC090818091F00D71
:102E70008F5F8F732091F10D821741F0E091F00D7B
:102E8000F0E0E952F24F958F8093F00DFF91EF91B2
:102E90009F918F912F910F900BBE0F900FBE0F90AF
:102EA0001F9018958081F2CF1F920F920FB60F924C
:102EB00011240BB60F922F933F934F935F936F9311
:102EC0007F938F939F93AF93BF93EF93FF9387ED80
:102ED0009DE00E947415FF91EF91BF91AF919F917A
:102EE0008F917F916F915F914F913F912F910F90B3
:102EF0000BBE0F900FBE0F901F90189587ED9DE0B1
:102F00000E94021521E0892B09F420E0822F089508
:102F1000E7EDFDE01382128288EE93E0A0E0B0E0DE
:102F200084839583A683B78388E694E09183808326
:102F300085E391E09587848784E391E0978786878E
:102F400080E391E0918B808B81E391E0938B828B86
:102F500082E391E0958B848B86E391E0978B868B5F
:102F6000118E128E138E148E0895AF92BF92CF924F
:102F7000DF92EF92FF920F931F93CF93DF936C0139
:102F80007B018B01040F151FEB015E01AE18BF081A
:102F9000C017D10759F06991D601ED91FC910190CC
:102FA000F081E02DC6011995892B79F7C501DF91D4
:102FB000CF911F910F91FF90EF90DF90CF90BF9036
:102FC000AF900895FB0101900020E9F73197AF0120
:102FD000461B570BDC01ED91FC910280F381E02D43
:102FE0001994DB0114964D915C9115976D917C912C
:102FF000DC01ED91FC910280F381E02D19946115C3
:10300000710511F00C94E21790E080E00895DC0166
:10301000ED91FC910190F081E02D199466E774E048
:103020000C94E2170F931F93CF93DF93EC010E9450
:10303000F1178C01CE010E940E18800F911FDF91B5
:10304000CF911F910F9108950F931F93CF93DF930B
:103050008C01D0E0C0E06115710519F00E94E21703
:10306000EC01C8010E940E188C0F9D1FDF91CF91BB
:103070001F910F9108958F929F92AF92BF92EF92FE
:10308000FF920F931F93CF93DF93CDB7DEB7A19736
:103090000FB6F894DEBF0FBECDBF7C01FA01CB01A5
:1030A00019A2223008F42AE08E010F5D1F4F822EF4
:1030B000912CB12CA12CBF01A50194010E94FB1FF2
:1030C000F901CA016A300CF5605DD8016E938D017B
:1030D000232B242B252B79F790E080E0109721F00B
:1030E000BD01C7010E94E217A1960FB6F894DEBF9A
:1030F0000FBECDBFDF91CF911F910F91FF90EF9049
:10310000BF90AF909F908F900895695CDECFCF9273
:10311000DF92EF92FF920F931F93CF93DF932115CE
:10312000310581F4DC01ED91FC910190F081E02DFD
:10313000642FDF91CF911F910F91FF90EF90DF905F
:10314000CF9019942A30310501F52AE077FF1DC090
:103150006A017B01EC016DE20E9407188C01442793
:103160005527BA014C195D096E097F092AE0CE0185
:103170000E943B18800F911FDF91CF911F910F91FB
:10318000FF90EF90DF90CF900895DF91CF911F9146
:103190000F91FF90EF90DF90CF900C943B189A0125
:1031A000AB01770F660B770B0C9487180F931F9367
:1031B000CF93DF93EC010E94CF188C01CE010E94C7
:1031C0000E18800F911FDF91CF911F910F910895DD
:1031D0002115310541F4DC01ED91FC910190F08164
:1031E000E02D642F19940C943B189A01AB0170E008
:1031F00060E00C94E8182F923F924F925F926F928A
:103200007F928F929F92AF92BF92CF92DF92EF9276
:10321000FF921F93CF93DF93EC016A017B01722E23
:10322000AB019601CB01B6010E94AE2369E774E0C1
:10323000811126C046015701E894B7F82FEF3FEF00
:103240004FE75FE7C501B4010E94AE2381110CC0B6
:103250002FEF3FEF4FE75FE7C501B4010E94182150
:103260006DE774E0181664F02FEF3FEF4FE75FE46F
:10327000C701B6010E94E2221816B4F461E874E0B6
:10328000CE01DF91CF911F91FF90EF90DF90CF9013
:10329000BF90AF909F908F907F906F905F904F9076
:1032A0003F902F900C94E2172FEF3FEF4FE75FEC2A
:1032B000C701B6010E94182187FDE0CF20E030E071
:1032C000A901C701B6010E941821312C212C87FFCA
:1032D00009C06DE2CE010E9407181C01F7FAF094B4
:1032E000F7F8F09410E060E070E080E09FE3711682
:1032F00041F020E030E040E251E40E9422211F5FD3
:10330000F6CFA70196010E943A202B013C010E94B2
:103310009B214B015C012AE0BC01A401CE010E946B
:103320003B187C01E20CF31C1123B1F1C501B4017F
:103330000E94CA219B01AC01C301B2010E94392045
:103340004B015C016EE2CE010E940718E80EF91EE7
:10335000115010F120E030E040E251E4C501B40129
:103360000E94EF222B013C010E949B214B014AE06D
:1033700050E0CE010E94F518E80EF91EB40190E06D
:1033800080E00E94CA219B01AC01C301B2010E94EE
:1033900039204B015C01DCCFC701DF91CF911F9138
:1033A000FF90EF90DF90CF90BF90AF909F908F9065
:1033B0007F906F905F904F903F902F9008950C9466
:1033C000FB180F931F93CF93DF93EC010E94FB1820
:1033D0008C01CE010E940E18800F911FDF91CF91BA
:1033E0001F910F9108950895883008F076C0E82F56
:1033F000F0E0EE0FFF1FE85DFD4F718360838150A9
:10340000873008F03DC0E82FF0E08827E55FF54EF3
:103410008F4F0C941D20481A121A1A1A261A331AA2
:10342000541A611A809169008C7F482B409369007F
:10343000E89A089580916900837F440F551F440FD7
:10344000551F482B40936900E99A089580916900BF
:103450008F7C74E0440F551F7A95E1F7482B409319
:103460006900EA9A0895809169008F7366E0440FBD
:10347000551F6A95E1F7482B40936900EB9A089530
:1034800080916A008C7F482B40936A00EC9A0895E3
:1034900080916A00837F440F551F440F551F482BAE
:1034A00040936A00ED9A089580916A008F7C24E031
:1034B000440F551F2A95E1F7482B40936A00EE9A76
:1034C000089580916A008F7396E0440F551F9A9576
:1034D000E1F7482B40936A00EF9A08951F920F92EC
:1034E0000FB60F9211240BB60F922F933F934F9369
:1034F0005F936F937F938F939F93AF93BF93EF935C
:10350000FF93E0912C02F0912D021995FF91EF911C
:10351000BF91AF919F918F917F916F915F914F91EB
:103520003F912F910F900BBE0F900FBE0F901F90E9
:1035300018951F920F920FB60F9211240BB60F928F
:103540002F933F934F935F936F937F938F939F93AB
:10355000AF93BF93EF93FF93E0912E02F0912F0270
:103560001995FF91EF91BF91AF919F918F917F91AD
:103570006F915F914F913F912F910F900BBE0F90E4
:103580000FBE0F901F9018951F920F920FB60F92BB
:1035900011240BB60F922F933F934F935F936F932A
:1035A0007F938F939F93AF93BF93EF93FF93E0919C
:1035B0003002F09131021995FF91EF91BF91AF91D7
:1035C0009F918F917F916F915F914F913F912F913B
:1035D0000F900BBE0F900FBE0F901F9018951F926B
:1035E0000F920FB60F9211240BB60F922F933F93A9
:1035F0004F935F936F937F938F939F93AF93BF93FB
:10360000EF93FF93E0913202F09133021995FF910D
:10361000EF91BF91AF919F918F917F916F915F914A
:103620004F913F912F910F900BBE0F900FBE0F90B7
:103630001F9018951F920F920FB60F9211240BB680
:103640000F922F933F934F935F936F937F938F933B
:103650009F93AF93BF93EF93FF93E0912802F09174
:1036600029021995FF91EF91BF91AF919F918F9191
:103670007F916F915F914F913F912F910F900BBE72
:103680000F900FBE0F901F9018951F920F920FB6BC
:103690000F9211240BB60F922F933F934F935F938A
:1036A0006F937F938F939F93AF93BF93EF93FF930A
:1036B000E0912A02F0912B021995FF91EF91BF91B1
:1036C000AF919F918F917F916F915F914F913F91BA
:1036D0002F910F900BBE0F900FBE0F901F9018955B
:1036E0001F920F920FB60F9211240BB60F922F93C9
:1036F0003F934F935F936F937F938F939F93AF937A
:10370000BF93EF93FF93E0913402F0913502199546
:10371000FF91EF91BF91AF919F918F917F916F91A9
:103720005F914F913F912F910F900BBE0F900FBE65
:103730000F901F9018951F920F920FB60F921124A1
:103740000BB60F922F933F934F935F936F937F939B
:103750008F939F93AF93BF93EF93FF93E0913602C4
:10376000F09137021995FF91EF91BF91AF919F9121
:103770008F917F916F915F914F913F912F910F901A
:103780000BBE0F900FBE0F901F901895FC0180810B
:1037900091810C949624CF93DF93EC0188819981D9
:1037A000009711F00E949624198218821D821C82B3
:1037B0001B821A82DF91CF9108950F931F93CF93AD
:1037C000DF93EC018B016F5F7F4F888199810E94AD
:1037D0001F25009751F0998388831B830A8381E01A
:1037E000DF91CF911F910F91089580E0F9CFCF9392
:1037F000DF93EC0188819981892B49F08A819B8133
:103800008617970720F081E0DF91CF910895CE01D0
:103810000E94DD1B8823C1F38C819D81892B99F740
:10382000E881F9811082EFCFEF92FF920F931F93FF
:10383000CF93DF93EC017B018A01BA010E94F71B51
:1038400081110BC0CE010E94CB1BCE01DF91CF9125
:103850001F910F91FF90EF9008951D830C83B70186
:10386000888199810E940926F0CFFC011182108283
:1038700013821282158214826115710551F0FB01C9
:1038800001900020E9F73197AF01461B570B0C94CC
:10389000141C0895FB0101900020E9F73197AF0156
:1038A000461B570B0C94141C0F931F93CF93DF935D
:1038B000CDB7DEB762970FB6F894DEBF0FBECDBFAF
:1038C0008C01CB01F80111821082138212821582C1
:1038D000148250E0BE016F5F7F4F0E941026BE0130
:1038E0006F5F7F4FC8010E944A1C62960FB6F89422
:1038F000DEBF0FBECDBFDF91CF911F910F91089515
:10390000CF93DF93EC016115710531F00E944A1CE1
:10391000CE01DF91CF9108950E94CB1BF9CFEF929A
:10392000FF920F931F93CF93DF93CDB7DEB7A1978D
:103930000FB6F894DEBF0FBECDBF7C01CB01BA013C
:10394000F70111821082138212821582148242E0E2
:10395000420F8E010F5F1F4F0E94DC23BC01C70185
:103960000E94801CA1960FB6F894DEBF0FBECDBF9B
:10397000DF91CF911F910F91FF90EF900895EF92FB
:10398000FF920F931F93CF93DF936115710541F45D
:1039900080E0DF91CF911F910F91FF90EF900895FC
:1039A00041155105B1F07B01EC010C811D81040F23
:1039B000151FB8010E94F71B882351F32881398114
:1039C0008C819D81B701820F931F0E9409261D8360
:1039D0000C8381E0DECFCF93DF93EC01FB014481C8
:1039E0005581608171810E94BF1C811103C0CE018D
:1039F0000E94CB1BCE01DF91CF910895CF93DF932F
:103A0000EC016115710539F4CE010E94CB1BCE018A
:103A1000DF91CF910895FB0101900020E9F73197E4
:103A2000AF01461B570B0E94BF1C882369F3EFCFE1
:103A300008950E94DC1D0E94181D0E94070CCFE310
:103A4000D5E10E94A50C2097E1F30E943F15F9CF24
:103A50001F920F920FB60F9211242F933F938F93C3
:103A60009F93AF93BF938091750E9091760EA09126
:103A7000770EB091780E3091740E23E0230F2D371E
:103A800058F50196A11DB11D2093740E8093750EFB
:103A90009093760EA093770EB093780E8091790E66
:103AA00090917A0EA0917B0EB0917C0E0196A11D93
:103AB000B11D8093790E90937A0EA0937B0EB093F4
:103AC0007C0EBF91AF919F918F913F912F910F905D
:103AD0000FBE0F901F90189526E8230F0296A11D88
:103AE000B11DD2CF2FB7F8946091750E7091760EFC
:103AF0008091770E9091780E2FBF08953FB7F8947C
:103B00008091790E90917A0EA0917B0EB0917C0EEF
:103B100026B5A89B05C02F3F19F00196A11DB11D28
:103B20003FBFBA2FA92F982F8827BC01CD01620F64
:103B3000711D811D911D42E0660F771F881F991F1F
:103B40004A95D1F708958F929F92AF92BF92CF92EC
:103B5000DF92EF92FF926B017C010E947E1D4B0170
:103B60005C01C114D104E104F104E9F00E94E61FF4
:103B70000E947E1D681979098A099B09683E734075
:103B80008105910570F321E0C21AD108E108F1081E
:103B900088EE880E83E0981EA11CB11CC114D104CC
:103BA000E104F10429F7FF90EF90DF90CF90BF90F0
:103BB000AF909F908F900895789484B5826084BD73
:103BC00084B5816084BD85B5826085BD85B5816021
:103BD00085BDEEE6F0E0808181608083E1E8F0E081
:103BE0001082808182608083808181608083E0E8B0
:103BF000F0E0808181608083E1EBF0E0808184608F
:103C00008083E0EBF0E0808181608083E1E9F0E097
:103C1000808182608083808181608083E0E9F0E040
:103C2000808181608083E1EAF0E08081826080832E
:103C3000808181608083E0EAF0E080818160808320
:103C4000E1E2F1E080818260808380818160808315
:103C5000E0E2F1E0808181608083EAE7F0E080814A
:103C600084608083808182608083808181608083A2
:103C70008081806880831092C10008951F93CF9344
:103C8000DF93182FEB0161E00E947C1F209739F42D
:103C900060E0812FDF91CF911F910C94B81FCF3F2F
:103CA000D10511F461E0F5CFE12FF0E0E25FFC4FC8
:103CB000E491E150E23108F0B3C0F0E08827EC591C
:103CC000F14E8F4F0C941D20761E7E1E831E8D1E7E
:103CD000971E101FA11EA91EB11EBB1EC51ECF1E02
:103CE000DE1EE81E101FF21EFC1E061F84B5806833
:103CF00084BDC7BDDF91CF911F91089584B58062C7
:103D000084BDC8BDF7CF809180008068809380001B
:103D1000D0938900C0938800EDCF809180008062AD
:103D200080938000D0938B00C0938A00E3CF809172
:103D30008000886080938000D0938D00C0938C00B9
:103D4000D9CF8091B00080688093B000C093B30059
:103D5000D1CF8091B00080628093B000C093B40056
:103D6000C9CF80919000806880939000D093990093
:103D7000C0939800BFCF80919000806280939000A4
:103D8000D0939B00C0939A00B5CF8091900088603B
:103D900080939000D0939D00C0939C00ABCF809106
:103DA000A00080688093A0008091A0008F7B80930A
:103DB000A000D093A900C093A8009CCF8091A00040
:103DC00080628093A000D093AB00C093AA0092CFF2
:103DD0008091A00088608093A000D093AD00C09334
:103DE000AC0088CF80912001806880932001D0931F
:103DF0002901C09328017ECF8091200180628093A9
:103E00002001D0932B01C0932A0174CF809120010F
:103E1000886080932001D0932D01C0932C016ACF3C
:103E2000C038D1050CF03ECF33CF8150823108F03D
:103E30005AC0E82FF0E08827EF5DF04E8F4F0C94CA
:103E40001D20411F451F331F391F3D1F731F481F72
:103E50004E1F521F581F5C1F601F661F6A1F731F73
:103E60006E1F741F781F809180008F778093800071
:103E70000895809180008F7DF9CF80918000877FA9
:103E8000F5CF84B58F7784BD089584B58F7DFBCF42
:103E90008091B0008F778093B00008958091B0003A
:103EA0008F7DF9CF809190008F7780939000089557
:103EB000809190008F7DF9CF80919000877FF5CF22
:103EC0008091A0008F778093A00008958091A0003A
:103ED0008F7DF9CF8091A000877FF5CF8091200161
:103EE0008F77809320010895809120018F7DF9CFF5
:103EF00080912001877FF5CFCF93DF9390E0FC0185
:103F0000EC5AFC4F249186569C4FFC0184918823E7
:103F1000C9F090E0880F991FFC01E650FC4FA59175
:103F2000B491FC01E052FC4FC591D49161110DC0D8
:103F30009FB7F8948C91209582238C9388812823B5
:103F400028839FBFDF91CF910895623051F49FB7CE
:103F5000F8943C91822F809583238C93E8812E2BBB
:103F6000EFCF8FB7F894EC912E2B2C938FBFEACF25
:103F70001F93CF93DF93282F30E0F901E25FFC4FCE
:103F80008491F901EC5AFC4FD491F901E656FC4FAB
:103F9000C491CC23A9F0162F81110E94151FEC2F7C
:103FA000F0E0EE0FFF1FE052FC4FA591B4918FB7E8
:103FB000F894EC91111108C0D095DE23DC938FBFEB
:103FC000DF91CF911F910895DE2BF8CF089597FBD5
:103FD000072E16F4009407D077FD09D00E94252003
:103FE00007FC05D03EF4909581959F4F08957095FC
:103FF00061957F4F0895A1E21A2EAA1BBB1BFD01FC
:104000000DC0AA1FBB1FEE1FFF1FA217B307E407B7
:10401000F50720F0A21BB30BE40BF50B661F771F0F
:10402000881F991F1A9469F76095709580959095EF
:104030009B01AC01BD01CF010895EE0FFF1F881F4A
:104040008BBF0790F691E02D1994AA1BBB1B51E181
:1040500007C0AA1FBB1FA617B70710F0A61BB70BF8
:10406000881F991F5A95A9F780959095BC01CD019D
:1040700008955058BB27AA270E9451200C949422DF
:104080000E945B2238F00E94622220F039F49F3FA8
:1040900019F426F40C9431220EF4E095E7FB0C940D
:1040A0002B22E92F0E94B92258F3BA17620773072F
:1040B0008407950720F079F4A6F50C94DB220EF422
:1040C000E0950B2EBA2FA02D0B01B90190010C0128
:1040D000CA01A0011124FF27591B99F0593F50F440
:1040E000503E68F11A16F040A22F232F342F442798
:1040F000585FF3CF469537952795A795F040539590
:10410000C9F77EF41F16BA0B620B730B840BBAF05F
:104110009150A1F0FF0FBB1F661F771F881FC2F7CA
:104120000EC0BA0F621F731F841F48F487957795DE
:104130006795B795F7959E3F08F0B0CF9395880F98
:1041400008F09927EE0F9795879508950E945B22B6
:1041500060F080E891E009F49EEF0E94622228F06E
:1041600040E851E071F45EEF0CC00C9431220C94E5
:10417000DB22E92FE0780E94B92240F3092E052ABC
:10418000B1F3261737074807590738F00E2E07F8FE
:10419000E02569F0E025E0640AC0EF6307F80094C9
:1041A00007FADB01B9019D01DC01CA01AD01EF9302
:1041B0000E9439210E9494220E94E9205F91552398
:1041C00039F02BED3FE049E450FD49EC0C943A20E6
:1041D0000895DF93DD27B92FBF7740E85FE3161618
:1041E000170648075B0718F4D92F0E94E7229F9310
:1041F0008F937F936F930E94AA23E4EEF0E00E94D6
:1042000034220E9494222F913F914F915F910E94FE
:104210000223DD2351F09058A2EA2AED3FE049EC59
:104220005FE3D0785D270E945120DF910C949422A7
:104230000E94072208F481E008950E946B22E39512
:104240000C94A5220E9436210C9494220E94622292
:1042500058F00E945B2240F029F45F3F29F00C9453
:104260002B2251110C94DC220C9431220E94B92291
:1042700068F39923B1F3552391F3951B550BBB2795
:10428000AA2762177307840738F09F5F5F4F220FDA
:10429000331F441FAA1FA9F335D00E2E3AF0E0E8D1
:1042A00032D091505040E695001CCAF72BD0FE2F1B
:1042B00029D0660F771F881FBB1F261737074807AF
:1042C000AB07B0E809F0BB0B802DBF01FF27935867
:1042D0005F4F3AF09E3F510578F00C942B220C94DE
:1042E000DC225F3FE4F3983ED4F38695779567959B
:1042F000B795F7959F5FC9F7880F911D969587959C
:1043000097F90895E1E0660F771F881FBB1F6217BA
:1043100073078407BA0720F0621B730B840BBA0B78
:10432000EE1F88F7E09508950E949B216894B111D3
:104330000C94DC2208950E94C12288F09F5798F0C7
:10434000B92F9927B751B0F0E1F0660F771F881F9A
:10435000991F1AF0BA95C9F714C0B13091F00E94B4
:10436000DB22B1E008950C94DB22672F782F882799
:10437000B85F39F0B93FCCF3869577956795B395DB
:10438000D9F73EF490958095709561957F4F8F4F4A
:104390009F4F0895E89409C097FB3EF4909580954F
:1043A000709561957F4F8F4F9F4F9923A9F0F92FFB
:1043B00096E9BB279395F695879577956795B79579
:1043C000F111F8CFFAF4BB0F11F460FF1BC06F5F5F
:1043D0007F4F8F4F9F4F16C0882311F096E911C071
:1043E000772321F09EE8872F762F05C0662371F092
:1043F00096E8862F70E060E02AF09A95660F771FA6
:10440000881FDAF7880F9695879597F90895990F81
:104410000008550FAA0BE0E8FEEF16161706E8078E
:10442000F907C0F012161306E407F50798F0621BAF
:10443000730B840B950B39F40A2661F0232B242B84
:10444000252B21F408950A2609F4A140A6958FEFA3
:10445000811D811D089597F99F6780E870E060E0F5
:1044600008959FEF80EC0895DF93CF931F930F93F0
:10447000FF92EF92DF927B018C01689406C0DA2EE6
:10448000EF010E940223FE01E894A5912591359148
:1044900045915591A6F3EF010E945120FE0197012D
:1044A000A801DA9469F7DF90EF90FF900F911F91C8
:1044B000CF91DF91089500240A9416161706180666
:1044C0000906089500240A94121613061406050618
:1044D00008950C9431220E94C122D8F3E894E0E0C0
:1044E000BB279F57F0F02AED3FE049EC06C0EE0FE6
:1044F000BB0F661F771F881F28F0B23A6207730749
:10450000840728F0B25A620B730B840BE3959A95DB
:1045100072F7803830F49A95BB0F661F771F881F9B
:10452000D2F790480C94B523092E0394000C11F493
:10453000882352F0BB0F40F4BF2B11F460FF04C07E
:104540006F5F7F4F8F4F9F4F0895EF93E0FF07C03E
:10455000A2EA2AED3FE049EC5FEB0E9451200E9465
:1045600094220F90039401FC9058E1E1F1E00C9447
:10457000C82357FD9058440F551F59F05F3F71F005
:104580004795880F97FB991F61F09F3F79F08795BA
:104590000895121613061406551FF2CF4695F1DF43
:1045A00008C0161617061806991FF1CF86957105D3
:1045B000610508940895E894BB2766277727CB0107
:1045C00097F908950E94072208F48FEF08959B0140
:1045D000AC0160E070E080E89FE30C9422210E942F
:1045E00002230C9494220E945B2238F00E946222E3
:1045F00020F0952311F00C942B220C9431221124DD
:104600000C94DC220E94B92270F3959FC1F3950FA0
:1046100050E0551F629FF001729FBB27F00DB11D46
:10462000639FAA27F00DB11DAA1F649F6627B00DD6
:10463000A11D661F829F2227B00DA11D621F739FBF
:10464000B00DA11D621F839FA00D611D221F749FCD
:104650003327A00D611D231F849F600D211D822F14
:10466000762F6A2F11249F5750409AF0F1F088233B
:104670004AF0EE0FFF1FBB1F661F771F881F915068
:104680005040A9F79E3F510580F00C942B220C94CA
:10469000DC225F3FE4F3983ED4F3869577956795E7
:1046A000B795F795E7959F5FC1F7FE2B880F911D92
:1046B0009695879597F908959F930E946B220F9086
:1046C00007FCEE5F0C94A52219F416F40C94312229
:1046D0000C94B3230E94C122B8F39923C9F3B6F313
:1046E0009F57550B87FF0E94C1230024A0E640EA94
:1046F000900180585695979528F4805C660F771F37
:10470000881F20F026173707480730F4621B730B09
:10471000840B202931294A2BA6951794079420252C
:1047200031254A2758F7660F771F881F20F0261774
:104730003707480730F4620B730B840B200D311DD3
:10474000411DA09581F7B901842F9158880F969546
:10475000879508959B01AC010C94EF220E940722DB
:10476000880B990B08959F3F31F0915020F4879565
:1047700077956795B795880F911D9695879597F9C9
:10478000089591505040660F771F881FD2F7089503
:104790009F938F937F936F93FF93EF939B01AC0154
:1047A0000E94EF22EF91FF910E9434222F913F91BE
:1047B0004F915F910C94EF22EF920F931F93CF9341
:1047C000DF93E80134E047FD34E1042E000C550B83
:1047D00057FF03C0519541955109E32E022F242F15
:1047E000AE010E944026CE01DF91CF911F910F9123
:1047F000EF9008950F931F93CF93DF93823091052D
:1048000010F482E090E0E0917F0EF091800E30E0B5
:1048100020E0B0E0A0E0309799F42115310509F4CB
:104820004AC0281B390B24303105D8F58A819B8179
:104830006115710589F1FB0193838283FE0111C02B
:10484000408151810281138148175907E0F04817D0
:10485000590799F4109761F012960C9312971396DA
:104860001C933296CF01DF91CF911F910F91089544
:1048700000937F0E1093800EF4CF2115310551F077
:104880004217530738F0A901DB019A01BD01DF018E
:10489000F801C1CFEF01F9CF9093800E80937F0E86
:1048A000CDCFFE01E20FF31F819391932250310986
:1048B00039832883D7CF20917D0E30917E0E232B14
:1048C00041F4209102023091030230937E0E209336
:1048D0007D0E20910002309101022115310541F435
:1048E0002DB73EB74091040250910502241B350BB1
:1048F000E0917D0EF0917E0EE217F307A0F42E1BDF
:104900003F0B2817390778F0AC014E5F5F4F241733
:10491000350748F04E0F5F1F50937E0E40937D0E7B
:10492000819391939FCFF0E0E0E09CCFCF93DF9312
:104930000097E9F0FC01329713821282A0917F0E5A
:10494000B091800EED0130E020E01097A1F42081BD
:104950003181820F931F20917D0E30917E0E28179A
:10496000390709F061C0F0937E0EE0937D0EDF9170
:10497000CF910895EA01CE17DF07E8F54A815B8100
:104980009E0141155105B1F7E901FB83EA83499185
:104990005991C40FD51FEC17FD0761F480819181F7
:1049A0000296840F951FE901998388838281938100
:1049B0009B838A83F0E0E0E012968D919C9113979F
:1049C0000097B9F52D913C911197CD010296820F78
:1049D000931F20917D0E30917E0E2817390739F6EE
:1049E000309751F51092800E10927F0EB0937E0E8C
:1049F000A0937D0EBCCFD383C28340815181840FAD
:104A0000951FC817D90761F44E5F5F4F8881998160
:104A1000480F591F518340838A819B8193838283EE
:104A20002115310509F0B0CFF093800EE0937F0E91
:104A30009ECFFD01DC01C0CF13821282D7CF4F92EF
:104A40005F926F927F928F929F92AF92BF92CF921E
:104A5000DF92EF92FF920F931F93CF93DF938C011E
:104A6000009799F4CB01DF91CF911F910F91FF90A7
:104A7000EF90DF90CF90BF90AF909F908F907F90FE
:104A80006F905F904F900C94FA23FC01E60FF71F94
:104A90009C0122503109E217F30708F4AEC0D90196
:104AA000CD91DC911197C617D70720F1C530D105FC
:104AB00078F0CE0104978617970750F0C61BD70BE6
:104AC0002297C193D1936D937C93CF010E9496243A
:104AD000C801DF91CF911F910F91FF90EF90DF9070
:104AE000CF90BF90AF909F908F907F906F905F908E
:104AF0004F9008955B01AC1ABD0A4C018C0E9D1EAF
:104B0000A0917F0EB091800E512C412CF12CE12C04
:104B1000109731F580917D0E90917E0E8815990544
:104B200009F05CC04616570608F058C08091000294
:104B300090910102009741F48DB79EB74091040215
:104B400050910502841B950BE817F90708F055C032
:104B5000F0937E0EE0937D0EF90171836083B8CFF0
:104B60008D919C91119712966C90129713967C9050
:104B70001397A815B90559F56C0142E0C40ED11C74
:104B8000CA14DB0420F1AC014A195B09DA01129660
:104B9000159780F06282738251834083D9016D93AF
:104BA0007C93E114F10471F0D7011396FC93EE931A
:104BB00012978ECF22968C0F9D1FF90191838083CF
:104BC000F301EFCFF093800EE0937F0E81CF481674
:104BD000590608F42C017D01D3019ACFCB010E9424
:104BE000FA237C01009749F0AE01B8010E9400262B
:104BF000C8010E94962487016BCF10E000E068CFC7
:104C0000FB01DC0102C001900D9241505040D8F7E9
:104C10000895FB01DC0101900D920020E1F7089559
:104C20004532510520F4423010F00C941B26FB0154
:104C30001082CB010895BB274A3031F4992322F426
:104C4000BDE2909581959F4F0C942726BB27FB01D1
:104C50005527AA27880F991FAA1FA41710F0A41B75
:104C600083955051B9F7A05DAA3308F0A95DA193CF
:104C7000009779F7B111B1931192CB010C9491285F
:104C80008F929F92AF92BF92CF92DF92EF92FF925C
:104C90000F931F93CF93DF9300D000D000D0CDB7F8
:104CA000DEB76A01F22EB02E102FFBE3AF2EA01656
:104CB00008F41BE31F5F012F27E0AE014F5F5F4F3A
:104CC0000E94B927BC018981982F9970913009F40D
:104CD0004EC09BE2E1FC04C09E2D9170E0FC49C0F7
:104CE0005E2D5071E82FE87083FF55C084E091116C
:104CF00001C083E0EF2DE81B8F1508F0E0E0D6013E
:104D00008E2F20E25523C9F1992329F0D6019C93D7
:104D1000C60101966C0196012D5F3F4FE2FE33C044
:104D20008EE4D6018C9391E411969C931197129680
:104D30008C93D9018E2F90E281112AC0E20FF32FBC
:104D4000F11D10828EEF9FEF29960FB6F894DEBF0B
:104D50000FBECDBFDF91CF911F910F91FF90EF90CC
:104D6000DF90CF90BF90AF909F908F9008959DE27D
:104D7000B7CF90E2B5CF2D9381508111FCCFCE0EED
:104D8000D11CE0E0C1CF8EE6D6018C9391E6CCCF6A
:104D90009D938150D1CF482F447082FF3DC084E065
:104DA000911101C083E08F1510F4EF2DE81BD6019F
:104DB0008E2F20E2552309F1992329F0D6019C93E7
:104DC000C60101966C0196012D5F3F4FE2FE1BC0AC
:104DD00089E4D6018C938EE411968C93119786E426
:104DE00012968C93D9018E2F90E2882309F4A6CFD6
:104DF0009D938150FACF2D9381508111FCCFCE0E1F
:104E0000D11CE0E0D9CF89E6D6018C938EE61196CD
:104E10008C93119786E6E4CF9B0177FF02C030E0C8
:104E200020E0A1E0B0E0911102C0B0E0A0E0F90103
:104E30003196AE0FBF1F8B2C912CBB2009F461C0A3
:104E40005401EFEFAE1ABE0AAA0DBB1DFA161B06DF
:104E500019F014F04F2D4A1B511188C0E3FC59C0C2
:104E60007601A42FB0E2A1114FC0C40ED11C99232A
:104E700009F45BC040E0D6011196F60190836D0104
:104E8000552309F448C0012F060F9A81582F5071FD
:104E900084FF03C0913309F4015010160CF047C091
:104EA000093008F008E0EEE2FE2E5B01A01AB1081E
:104EB00085019194819491082F3F320729F4D601FE
:104EC000FC92F60131966F016217730794F1021795
:104ED00013077CF5DB01A21BB30BAA24A394B12C0E
:104EE000AC0EBD1EAA0DBB1D11968C91215031092F
:104EF000D601119628153905F4F0F60180836D016D
:104F0000DBCFB12CA12CA0CFF701B1937F01A15031
:104F1000AACF9111B0CFD601942F50E302C05D9378
:104F200091509111FCCFC40ED11C40E0ACCF01E0F8
:104F3000BACF80E3DBCF6217730731F4963388F47E
:104F4000953311F4552369F0F6018083FD01842F18
:104F500090E2811108C0A40FB11D1C9290E080E086
:104F6000F3CE81E3F1CF91938150F3CF911183CFB1
:104F70008ACF283008F027E03327DA01990F311D56
:104F800087FD916000966105710539F432602E5FEE
:104F90003D9330E32A95E1F708959F3F30F0803844
:104FA0007105610509F03C5F3C5F3D93913008F06D
:104FB0008068911DDF93CF931F930F93FF92EF9221
:104FC000192F987F9695E92F96959695E90FFF27CB
:104FD000E259FD4F99273327EE24FF24A701E7016B
:104FE00005900894079428F4360FE71EF81E491F11
:104FF000511D660F771F881F991F0694A1F7059012
:10500000079428F4E70EF81E491F561FC11D770F9D
:10501000881F991F661F0694A1F70590079428F42E
:10502000F80E491F561FC71FD11D880F991F661FF5
:10503000771F0694A1F70590079420F4490F561F97
:10504000C71FD81F990F661F771F881F0694A9F7DF
:1050500084911095177041F0D695C795579547954F
:10506000F794E7941A95C1F7E4E1F2E0689415909B
:10507000159135916591959105907FE27395E118B1
:10508000F10A430B560BC90BD009C0F7E10CF11E16
:10509000431F561FC91FD01D7EF4703311F48A952B
:1050A000E6CFE894015030F0080F0AF40027021709
:1050B00008F4202F2395022F7A3328F079E37D938B
:1050C0002A95E9F710C07D932A9589F6069497955D
:1050D0006795379517951794E118F10A430B560B0E
:1050E000C90BD00998F023957E9173957A3308F017
:1050F00070E37C932013B8F77E9170617D9330F05C
:10510000839571E37D9370E32A95E1F71124EF9085
:10511000FF900F911F91CF91DF91992787FD909577
:105120000895DC01FC01672F71917723E1F7329735
:1051300004C07C916D9370836291AE17BF07C8F372
:10514000089512E0CDE0D2E000E006C0802FFE011D
:105150000E941D202196011DCE30D10780E0080756
:06516000A9F7F894FFCF4F
:105166000000810E8000FFFF0000803F0000A0418C
:1051760000002041000020410000F041FFFFF6FF43
:105186000000614300000743F319F319F319F319FB
:10519600F319F319F319F3194469737420536574F9
:1051A600706F696E743A200020204F7574707574A4
:1051B600205049443A200044726F766520666F722B
:1051C600776172642120202020202044726F76654A
:1051D60020446973743A2000233D3D3D3D3D3D3DED
:1051E6003D3D3D3D3D3D3D3D3D3D3D3D3D3D3D3DE9
:1051F6003D3D3D3D3D3D3D3D3D3D3D3D3D3D3D3DD9
:105206003D3D3D3D3D3D3D005475726E6564206FEC
:105216006E20506F696E7421202020202020547546
:10522600726E656420416E676C653A2000233D3DD1
:105236003D3D3D3D3D3D3D3D3D3D3D204472697614
:105246006520436F6E74726F6C20506F696E747355
:10525600203D3D3D3D3D3D3D3D3D3D3D3D00536396
:10526600686E69747470756E6B742020732E783A4C
:1052760020002020732E793A20004D697474652031
:10528600547565722020642E783A20002020642E02
:10529600793A20005261646975733A200057696E45
:1052A6006B656C205068693A200044697374616EBE
:1052B6007A3A2000233D3D3D3D3D3D3D20436F7202
:1052C600726563746564446F6F7220506F696E74A3
:1052D60073203D3D3D3D3D3D3D3D002020793A203A
:1052E600002020646973743A20002020616E676C88
:1052F600653A2000233D3D3D3D3D3D3D3D3D3D2044
:105306004564676520506F696E7473203D3D3D3D71
:105316003D3D3D3D3D3D3D00446F6F7220666F75DE
:105326006E642100233D3D3D3D3D3D3D3D3D3D20DF
:10533600446F6F7220506F696E7473203D3D3D3D22
:105346003D3D3D3D3D3D3D00446F6F72496E646598
:10535600783A20200043414E205772697465202D0B
:105366002054657374696E67207472616E736D691B
:105376007373696F6E206F662043414E20427573CA
:10538600206D657373616765730043414E20496EF6
:105396006974206F6B0043616E277420696E6974AF
:1053A6002043414E004C494441522D5363616E00E7
:1053B6004572726F722C205265736574205379732F
:1053C60074656D0000000000B615B517301596150A
:1053D60002151C150E150D0A006E616E00696E66CB
:0653E600006F7666000076
:00000001FF
