:100000000C9434020C94C81D0C94F31D0C941E1E09
:100010000C94491E0C94741E0C949F1E0C94CA1EC2
:100020000C94F51E0C9465020C9465020C94650208
:100030000C9465020C9465020C9465020C946502A4
:100040000C9465020C9465020C9465020C94650294
:100050000C9465020C9465020C9465020C94682063
:100060000C9465020C94E1190C94171A0C94650217
:100070000C9465020C9465020C9465020C94650264
:100080000C9465020C9465020C9465020C94650254
:100090000C9465020C9465020C9465020C94650244
:1000A0000C9465020C9465020C9465020C94650234
:1000B0000C9465020C9465020C9465020C94650224
:1000C0000C9465020C9465020C9465020C94650214
:1000D0000C9465020C9465020C94781A0C94AE1A78
:1000E0000C946502084AD73B3BCE016E84BCBFFD31
:1000F000C12F3D6C74319ABD56833DDA3D00C77FF8
:1001000011BED9E4BB4C3E916BAAAABE0000008090
:100110003F072C7AA5BA6CC590DA3B9365FC8BBC83
:1001200053F810FD3C5692834DBD879D3AB63DCBAA
:10013000C9BF5BBE73DA0FC93F05A84CCDB2D44E20
:10014000B93836A9020C50B9918688083CA6AAAAEB
:100150002ABE000000803F000C9473220C9492226F
:100160000C94B4220C94B80F0C940F1B0C94B62171
:100170000C94720F0C9488220C94C3210C9481224D
:100180000C94A0220C94741D0C94520F0C941E22FB
:100190000C94AA220C9499180C949C220C945C1830
:1001A0000C94BB1D0C94411A0C946C1D0C94BE2134
:1001B0000C948A180C94E1210C9432220C94AA0F0E
:1001C0000C94BA0F0C94AE220C943C0F0C948E221B
:1001D0000C94801D0C94A21D0C94FB210C940F22F6
:1001E0000C948D1D0C9467020C94CD210C94D81A9C
:1001F0000C9428220C94A6220C9427100C947D2297
:100200000C94E9210C944D1D0C94F0180C94620F81
:100210000C9410190C9498220C943C220C944B1AB8
:100220000C9468180C9485220C9450220C94960F10
:100230000C94AE1D0C94B3220C9446220C94E21A3A
:100240000C944A0F0C94D7210C94F1210C94792230
:100250000C94B8220C9476180C9405220C94810FFF
:1002600000407A10F35A00A0724E18090010A5D46D
:10027000E80000E87648170000E40B54020000CACA
:100280009A3B000000E1F505000080969800000010
:1002900040420F000000A08601000000102700006F
:1002A0000000E803000000006400000000000A00F5
:1002B000000000000100000000002C76D888DC67F8
:1002C0004F0823DFC1DFAE59E1B1B796E5E3E45350
:1002D000C63AE651997696E8E6C28426EB898C9B6D
:1002E00062ED407C6FFCEFBC9C9F40F2BAA56FA50D
:1002F000F490055A2AF75C936B6CF9676DC11BFC8F
:10030000E0E40D47FEF520E6B500D0ED902E0300A9
:10031000943577050080841E080000204E0A0000F6
:1003200000C80C333333330F986E12831141EF8DB5
:100330002114893BE65516CFFEE6DB18D1844B38F5
:100340001BF77C1D901DA4BBE424203284725E2226
:100350008100C9F124ECA1E53D2700000A0B020948
:100360000C0D0E080703040100000000000000004F
:10037000000000000000000000000000000000007D
:10038000000000000000121110000000000000003A
:10039000000000000000000000000000000000005D
:1003A0000102102020080810204010204080020187
:1003B000020108040201010204081020408080406C
:1003C000201008040201800402018040201008046B
:1003D0000201080402010102040810204080010209
:1003E00004081020408005050505070508080808D1
:1003F000020202020A0A08080404040401010101BD
:1004000001010101030303030303030304070707B7
:100410000C0C0C0C0C0C0C0C02020202060606065C
:10042000060606060B0B0B0B0B0B0B0B000022003A
:10043000250028002B002E003100340002010000AE
:10044000050108010B0100002100240027002A00FB
:100450002D003000330001010000040107010A01F2
:10046000BA0F4B1AE21A271011241FBECFEFD1E2A8
:10047000DEBFCDBF00E00CBF14E0A0E0B2E0E2ECD4
:10048000F7E500E00BBF02C007900D92A43EB10754
:10049000D9F72EE0A4EEB4E001C01D92A33EB2074E
:1004A000E1F712E0C3E3D2E000E006C021970109C2
:1004B000802FFE010E945D23C033D10780E0080732
:1004C000A9F70E9459200C94CF2B0C940000809126
:1004D0001C0290911D02019629F410921D021092A7
:1004E0001C0208958FEF9FEF90931D0280931C02D2
:1004F000089561E089E00E94F82260E08AE00E94AD
:10050000F82260E088E00C94F822EF92FF920F93BB
:100510001F93CF93DF937C01C2EAD8E08E01F801EC
:10052000608171814AE050E08CE99DE00E94291CC5
:1005300068E374E08CE99DE00E94591BF801628138
:1005400073814AE050E08CE99DE00E94291C68E339
:1005500074E08CE99DE00E94591BF801648175816B
:100560004AE050E08CE99DE00E94301C025F1F4F82
:10057000FDE00E381F0799F61B821A821982188235
:100580001D821C821E821F82188619861A861B866F
:100590001C861D862E968DE0CE38D80769F7E6EECC
:1005A000F5E0138212821182108215821482168263
:1005B00017821086118612861386148615863E963B
:1005C00088E0E23AF80769F7E2E9F5E086EE95E0BF
:1005D000138212821182108215821482168217826F
:1005E0001086118612861386148615863E968E17FF
:1005F0009F0771F71092910510929005F0921D02DD
:10060000E0921C02DF91CF911F910F91FF90EF902C
:1006100008954F925F926F927F928F929F92AF92C6
:10062000BF92CF92DF92EF92FF920F931F93CF93DF
:10063000DF9300D000D000D01F921F92CDB7DEB75D
:10064000E982FA820B831C832D833E834F83588774
:1006500069877A878B87CE0101960E947013882361
:1006600009F4D5C089819A818F3F974009F0CFC0A6
:10067000B884A9847A846B840E94B2206B01709341
:10068000E5046093E40400910602109107020F3F15
:10069000100709F4B6C06A2D70E0762F66276B0D3F
:1006A000711D072E000C880B990B0E94DA2427ED90
:1006B00033EA4AEA51E40E9430242BED3FE049EC52
:1006C00050E40E941D2620E030E040E752E40E9402
:1006D000302427ED33EA40E35EE30E941D264B0100
:1006E0005C01662D70E0762F6627670D711D072E61
:1006F000000C880B990B0E94DA2427ED33EA4AEAB2
:1007000051E40E9430242BED3FE049EC50E40E947C
:100710001D2620E030E040E752E40E94302427ED1F
:1007200033EA40E35EE30E941D262B013C01C01A20
:10073000D10AB601DD0C880B990B0E94DA246B01FB
:100740007C01A5019401C301B2010E948A2328EB18
:100750003EE145E05FE30E943024A70196010E943C
:100760001D2620E030E04AE754E40E94302420E0D7
:1007700030E044E353E40E941D262BED3FE049E4C2
:1007800050E40E9430249B01AC0160917E05709181
:100790007F0580918005909181050E948B23609355
:1007A0007E0570937F058093800590938105A3015A
:1007B0009201C501B4010E948B2320E030E040E0AB
:1007C0005FE30E941D26A70196010E941D2620E0DE
:1007D00030E04AE754E40E9430249B01AC01609170
:1007E0002A0570912B0580912C0590912D050E9472
:1007F0008B2360932A0570932B0580932C0590938F
:100800002D050E94B22070930702609306022B967A
:100810000FB6F894DEBF0FBECDBFDF91CF911F9111
:100820000F91FF90EF90DF90CF90BF90AF909F908F
:100830008F907F906F905F904F900895AF92BF928E
:10084000CF92DF92EF92FF920F931F93CF93DF939C
:1008500000D000D000D01F921F92CDB7DEB75887CE
:1008600069877A878B878EE390E09A838983007EFD
:1008700000610B83CC82DD82AE82BF8240E060EEFD
:100880008FE00E94FF12CE0101960E94D4136AE00D
:1008900070E080E090E00E94E3202B960FB6F89481
:1008A000DEBF0FBECDBFDF91CF911F910F91FF90A3
:1008B000EF90DF90CF90BF90AF9008954F925F92EE
:1008C0006F927F928F929F92AF92BF92CF92DF9260
:1008D000EF92FF920F931F93CF93DF93CDB7DEB7C5
:1008E00067970FB6F894DEBF0FBECDBF2B013C015A
:1008F0004A01E980FA800B811C812D813E814F8164
:10090000588569857A858B850E94090320E030E04F
:1009100048EC52E4C301B2010E94302460933205D6
:1009200070933305809334059093350580912A05A3
:1009300090912B05A0912C05B0912D058093260553
:1009400090932705A0932805B093290586EE94E09F
:100950000E94391410927A0510927B0510927C0542
:1009600010927D0580917E0590917F05A091800574
:10097000B09181058093760590937705A0937805D3
:10098000B093790586E395E00E9439146091720571
:1009900070917305809174059091750590580E942F
:1009A000A2245B01609122057091230580912405AA
:1009B000909125050E94A2246B01E980FA800B81A9
:1009C0001C812D813E814F81588569857A858B8573
:1009D0000E941E04C0902A05D0902B05E0902C05A3
:1009E000F0902D05A70196016091320570913305B5
:1009F00080913405909135050E948A232B013C019A
:100A00002DEC3CEC4CE45DE30E94262487FF45C0BE
:100A10002DEC3CEC4CE45DEBC301B2010E941026CE
:100A20001816DCF522E0B701A601CE0142960E941D
:100A3000E91F68E372E0CE010C960E948F1FBE0191
:100A40006E5E7F4FCE010C960E944520BC018CE962
:100A50009DE00E946C1BCE010C960E94201FCE01CF
:100A600042960E94201F69E572E08CE99DE00E9499
:100A70007E1B10927E0510927F05109280051092C9
:100A8000810510922A0510922B0510922C051092C8
:100A90002D0590921D0280921C0267960FB6F89465
:100AA000DEBF0FBECDBFDF91CF911F910F91FF90A1
:100AB000EF90DF90CF90BF90AF909F908F907F90FE
:100AC0006F905F904F9008954F925F926F927F92D8
:100AD0008F929F92AF92BF92CF92DF92EF92FF924E
:100AE0000F931F93CF93DF93CDB7DEB767970FB602
:100AF000F894DEBF0FBECDBF2B013C014A01E98057
:100B0000FA800B811C812D813E814F81588569853A
:100B10007A858B850E94090340927A0550927B0565
:100B200060927C0570927D0580917E0590917F0595
:100B3000A0918005B091810580937605909377050B
:100B4000A0937805B093790586E395E00E94391467
:100B5000609172057091730580917405909175058F
:100B600090580E94A2245B01D12CC12CE980FA800C
:100B70000B811C812D813E814F81588569857A8545
:100B80008B850E941E0420E030E0A901C301B20160
:100B90000E941026181624F077FA709477F8709453
:100BA000C0907E05D0907F05E0908005F090810593
:100BB00020E030E0A901C701B6010E941026A7017C
:100BC000960118160CF05058C301B2010E948A23F6
:100BD0002B013C012DEC3CEC4CEC5DE30E94262407
:100BE00087FF3DC02DEC3CEC4CEC5DEBC301B2014A
:100BF0000E94102618169CF522E0B701A601CE012E
:100C000042960E94E91F69E872E0CE010C960E94AC
:100C10008F1FBE016E5E7F4FCE010C960E94452055
:100C2000BC018CE99DE00E946C1BCE010C960E94D9
:100C3000201FCE0142960E94201F69E572E08CE9D8
:100C40009DE00E947E1B10927E0510927F051092FF
:100C500080051092810590921D0280921C02679679
:100C60000FB6F894DEBF0FBECDBFDF91CF911F91BD
:100C70000F91FF90EF90DF90CF90BF90AF909F903B
:100C80008F907F906F905F904F9008954F925F92FA
:100C90006F927F928F929F92AF92BF92CF92DF928C
:100CA000EF92FF92CF93DF93CDB7DEB764970FB685
:100CB000F894DEBF0FBECDBF20E030E044E152E447
:100CC000609198057091990580919A0590919B0586
:100CD0000E948A232B013C0120E030E040ED51E4EA
:100CE00060919C0570919D0580919E0590919F0556
:100CF0000E948B234B015C0120E030E044E152E490
:100D00006091A6057091A7058091A8059091A9050D
:100D10000E948A236B017C0120E030E040ED51E429
:100D20006091AA057091AB058091AC059091AD05DD
:100D30000E948B2369837A838B839C83D301C201B6
:100D4000B0588D839E83AF83B88780939805909326
:100D50009905A0939A05B0939B05D501C401B0589D
:100D600089879A87AB87BC8780939C0590939D0564
:100D7000A0939E05B0939F05D701C601B0588D87FB
:100D80009E87AF87B88B8093A6059093A705A09305
:100D9000A805B093A90589819A81AB81BC81B0581F
:100DA000898B9A8BAB8BBC8B8093AA059093AB05F8
:100DB000A093AC05B093AD05A3019201C301B201AC
:100DC0000E941D262B013C01A5019401C501B4011F
:100DD0000E941D269B01AC01C301B2010E948B231E
:100DE0000E9498260E94A224709395056093940512
:100DF0002D813E814F81588569857A858B859C85BB
:100E00000E9430240E94F72320E030E044E353E4C2
:100E10000E941D262BED3FE049E450E40E9430245F
:100E20000E94A224A2E9B5E06D937C93A7019601EC
:100E3000C701B6010E941D266B017C0129813A8100
:100E40004B815C81CA01B9010E941D269B01AC0146
:100E5000C701B6010E948B230E9498260E94A224FB
:100E60007093A3056093A2052D853E854F85588913
:100E700069897A898B899C890E9430240E94F72392
:100E800020E030E044E353E40E941D262BED3FE0D8
:100E900049E450E40E9430240E94A2247093A105EA
:100EA0006093A0056BE273E08CE99DE00E947E1BDD
:100EB00069E073E08CE99DE00E94591B4091980520
:100EC0005091990560919A0570919B0522E030E060
:100ED0008CE99DE00E94391D62E573E08CE99DE09C
:100EE0000E94591B40919C0550919D0560919E0563
:100EF00070919F0522E030E08CE99DE00E94391D51
:100F000068E573E08CE99DE00E94591B60919405AF
:100F1000709195054AE050E08CE99DE00E94291C03
:100F200061E673E08CE99DE00E94591BE2E9F5E07F
:100F3000608171814AE050E08CE99DE00E94301CA4
:100F400069E073E08CE99DE00E94591B4091A60581
:100F50005091A7056091A8057091A90522E030E0A5
:100F60008CE99DE00E94391D62E573E08CE99DE00B
:100F70000E94591B4091AA055091AB056091AC05A8
:100F80007091AD0522E030E08CE99DE00E94391DB2
:100F900068E573E08CE99DE00E94591B6091A20511
:100FA0007091A3054AE050E08CE99DE00E94291C65
:100FB00061E673E08CE99DE00E94591B6091A005F9
:100FC0007091A1054AE050E08CE99DE064960FB66F
:100FD000F894DEBF0FBECDBFDF91CF91FF90EF90B1
:100FE000DF90CF90BF90AF909F908F907F906F9049
:100FF0005F904F900C94301C4F925F926F927F9253
:101000008F929F92AF92BF92CF92DF92EF92FF9218
:10101000CF93DF9300D000D000D01F92CDB7DEB7C2
:101020009A8789870E944606E0909405F09095057E
:101030008091A2059091A305E80EF91EF7FE03C06A
:101040008FEFE81AF80AF594E7942091A6053091FD
:10105000A7054091A8055091A90560919805709148
:10106000990580919A0590919B050E948B2320E021
:1010700030E040E05FE30E941D264B015C012091BF
:10108000AA053091AB054091AC055091AD0560913A
:101090009C0570919D0580919E0590919F050E94F1
:1010A0008B2320E030E040E05FE30E941D262B010F
:1010B0003C0160919205709193058091A0059091FB
:1010C000A105680F791F77FF02C06F5F7F4F75958D
:1010D0006795072E000C880B990B0E94DA24609309
:1010E0008A0570938B0580938C0590938D05B701CD
:1010F0000F2C000C880B990B0E94DA246093820558
:101100007093830580938405909385056BE673E067
:101110008CE99DE00E947E1B69E073E08CE99DE014
:101120000E94591B22E030E0B501A4018CE99DE04A
:101130000E94391D62E573E08CE99DE00E94591B15
:1011400022E030E0B301A2018CE99DE00E943B1D4A
:101150006EE173E08CE99DE00E94591B40918A0585
:1011600050918B0560918C0570918D0522E030E0E7
:101170008CE99DE00E943B1D63E973E08CE99DE0F2
:101180000E94591B4AE050E0B7018CE99DE00E94A3
:10119000301C80911C0290911D02019709F07AC1C8
:1011A000209198053091990540919A0550919B05A1
:1011B0006091A6057091A7058091A8059091A90559
:1011C0000E948A2320E030E044EB52EC0E941D266E
:1011D0006B017C0120919C0530919D0540919E05FD
:1011E00050919F056091AA057091AB058091AC0567
:1011F0009091AD050E948A239B01AC01C701B60105
:101200000E94302469837A838B839C8320E030E0C2
:1012100044EB52E4C501B4010E948A236B017C01B6
:1012200029813A814B815C81C301B2010E948A23EA
:101230004B015C01A7019601C701B6010E941D2662
:101240002B013C01A5019401C501B4010E941D269A
:101250009B01AC01C301B2010E948B232B013C0115
:101260000E9498266D837E838F839887A7019601BD
:10127000C501B4010E9430240E94F72320E030E031
:1012800044E353E40E941D262BED3FE049E450E483
:101290000E9430240E94A224072E000C880B990B78
:1012A0000E94DA2460938A0570938B0580938C05E5
:1012B00090938D056D817E818F8198850E94A224F7
:1012C000072E000C880B990B0E94DA24609382058C
:1012D0007093830580938405909385056DE973E091
:1012E0008CE99DE00E947E1B69E073E08CE99DE043
:1012F0000E94591B22E030E0B701A6018CE99DE075
:101300000E94391D62E573E08CE99DE00E94591B43
:1013100022E030E0B501A4018CE99DE00E943B1D74
:101320006EE173E08CE99DE00E94591B40918A05B3
:1013300050918B0560918C0570918D0522E030E015
:101340008CE99DE00E943B1D63E973E08CE99DE020
:101350000E94591B4091820550918305609184053C
:101360007091850522E030E08CE99DE00E943B1DF4
:10137000C301B2010E9498262B013C0129813A81C8
:101380004B815C81CA01B9010E941D2620E030E238
:101390004DEF55E40E948B230E9498266D837E8337
:1013A0008F83988720E030E044EB52E4C701B60118
:1013B0000E941D266B017C01A501940169817A813F
:1013C0008B819C810E941D269B01AC01C701B60147
:1013D0000E948B236B017C012D813E814F815885BA
:1013E000C301B2010E941D269B01AC01C701B601D9
:1013F0000E9430240E94792320E030E044E353E44B
:101400000E941D262BED3FE049E450E40E94302469
:101410006B017C01C0928605D0928705E092880519
:10142000F092890520E030E0A90160918A05709171
:101430008B0580918C0590918D050E9410261816C1
:10144000ACF420E030E0A901C701B6010E941026EB
:10145000181664F4F7FAF094F7F8F094C092860541
:10146000D0928705E0928805F09289056BEC73E0D5
:101470008CE99DE00E94591B40918605509187059B
:10148000609188057091890522E030E08CE99DE04B
:101490000E943B1D89859A8590931D0280931C02B2
:1014A0002A960FB6F894DEBF0FBECDBFDF91CF9165
:1014B000FF90EF90DF90CF90BF90AF909F908F9074
:1014C0007F906F905F904F9008952F923F924F9230
:1014D0005F926F927F928F929F92AF92BF92CF92C4
:1014E000DF92EF92FF920F931F93CF93DF93CDB7CD
:1014F000DEB768970FB6F894DEBF0FBECDBF7C0194
:10150000788F6F8B10928F0510928E0502EA18E08B
:101510004EE0D42EF80160897189072E000C880BEB
:10152000990B0E94DA249B01AC010E948B234B0192
:101530005C01F80162817381072E000C880B990B06
:101540000E94DA249B01AC01C501B4010E948A23E8
:101550004B015C01F801668D778D072E000C880B1E
:10156000990B0E94DA249B01AC01C501B4010E94D1
:101570008A230E94A2246E157F05DCF4F80182897B
:1015800093890B97B4F08091900590919105D89E26
:10159000D001D99EB00D1124AA51BA4F3E962D2DDF
:1015A00001900D922A95E1F7019690939105809311
:1015B0009005025F1F4F2DE00038120709F0AACFF7
:1015C00080918E0D8823F1F169ED73E08CE99DE047
:1015D0000E947E1B06EE15E0F12CE12C8091900517
:1015E00090919105E816F9066CF5F801608171811A
:1015F0004AE050E08CE99DE00E94291C68E374E019
:101600008CE99DE00E94591BF801628173814AE0D8
:1016100050E08CE99DE00E94291C68E374E08CE9AD
:101620009DE00E94591BF801648175814AE050E0F9
:101630008CE99DE00E94301CFFEFEF1AFF0A025F69
:101640001F4FCCCF36EE232E35E0332E18861F8267
:1016500080919005909191052F8138852817390741
:101660000CF452C020908E0530908F0502E915E0F1
:101670007801D12CC12CC214D3040CF052C1F70153
:1016800062817381072E000C880B990B0E94DA246B
:101690004B015C01F70160817181072E000C880B02
:1016A000990B0E94DA242BED3FE049E450E40E94BC
:1016B0001D2620E030E044E353E40E9430242B0157
:1016C0003C010E942B249B01AC01C501B4010E9486
:1016D0001D26F7016683778380879187C301B20156
:1016E0000E948A269B01AC01C501B4010E941D26FF
:1016F000F7016287738784879587FFEFCF1ADF0A28
:101700002EE0E20EF11CB7CF6F8178856F5F7F4FBF
:1017100078876F8381017A8769878091900590919E
:101720009105E985FA85E817F90724F0FEE02F0E08
:10173000311C8ECFF1010190F081E02DFC87EB8709
:10174000F8010684F785E02DFE87ED876B857C85A3
:101750006E1B7F0B072E000C880B990B0E94DA245E
:101760002BED3FE049E450E40E941D2620E030E0EC
:1017700044E353E40E9430240E942B246B8B7C8B27
:101780008D8B9E8BF1010280F381E02DF88BEF872A
:10179000CF016AE070E00E942723072E000C880B1F
:1017A000990B0E94DA246B017C01F8010088F18911
:1017B000E02DFA8BE98BCF016AE070E00E942723CD
:1017C000072E000C880B990B0E94DA244B015C0158
:1017D000A7019601C701B6010E941D262B013C01FD
:1017E000A5019401C501B4010E941D269B01AC0115
:1017F000C301B2010E948B232B013C01A70196017A
:10180000C701B6010E948B23A50194010E941D26E9
:101810002B893C894D895E890E941D269B01AC0164
:10182000C301B2010E948A230E94982620E030E082
:1018300040E251E40E941D266B017C0120E030E073
:1018400040E752E40E94102618160CF061C020E018
:1018500030E042ED52E4C701B6010E94262487FF22
:1018600057C08F85988929893A89820F931F97FDE0
:101870000196959587958C599F4FE2EAF8E021E013
:10188000408151816B857C85641775075CF46D859B
:101890007E854617570734F442815381481759070C
:1018A0000CF420E03E967DE0EE38F70749F722235E
:1018B00079F180918E0590918F05EEE0E89FD0013F
:1018C000E99FB00D1124AE56BA4FF1012EE0019000
:1018D0000D922A95E1F79C012F5F3F4FFEE0F29FAA
:1018E000D001F39FB00D1124AE56BA4FF8013E96C9
:1018F0002EE001900D922A95E1F7029690938F05C4
:1019000080938E056DEF73E08CE99DE00E947E1B55
:1019100029853A852F5F3F4F3A872987025F1F4FFE
:10192000FCCE69E074E08CE99DE00E947E1BF12C06
:10193000E12C80918E0590918F05E816F9060CF048
:1019400046C069E073E08CE99DE00E94591BF801F4
:10195000468157816085718522E030E08CE99DE009
:101960000E94391D62E573E08CE99DE00E94591BDD
:10197000F801428553856485758522E030E08CE965
:101980009DE00E94391D68E573E08CE99DE00E94AE
:10199000591BF801628173814AE050E08CE99DE0B7
:1019A0000E94291C61E673E08CE99DE00E94591BAE
:1019B000F801608171814AE050E08CE99DE00E946D
:1019C000301CFFEFEF1AFF0A025F1F4FB2CF6DE22C
:1019D00074E08CE99DE00E94591B60918E05709126
:1019E0008F054AE0CE0101960E94AE1FBE016F5FD7
:1019F0007F4F8CE99DE00E946C1BCE0101960E94F6
:101A0000201F80918E0590918F0582309105F9F409
:101A10002F89388D30931D0220931C0268960FB6D3
:101A2000F894DEBF0FBECDBFDF91CF911F910F9114
:101A3000FF90EF90DF90CF90BF90AF909F908F90EE
:101A40007F906F905F904F903F902F9008950097F8
:101A500011F003971CF38FE090E090931D028093A8
:101A60001C02DCCF2F923F924F925F926F927F9237
:101A70008F929F92AF92BF92CF92DF92EF92FF929E
:101A80000F931F93CF93DF93CDB7DEB764970FB655
:101A9000F894DEBF0FBECDBF7C0198EEC92E93E057
:101AA000D92E2EE0322E44EF51E060E070E08FE856
:101AB0009DE00E94691097FDC2C08090950D9090A6
:101AC000960DA090970DB090980DA501940160918E
:101AD00020027091210280912202909123020E94A3
:101AE000102687FD3AC0A5019401609124027091EF
:101AF000250280912602909127020E942624181622
:101B000064F14090910D5090920D6090930D709003
:101B1000940D2090990DC501B4010E94A2249B014F
:101B200027583109329E8001339E100D11240E5525
:101B3000174FF8017183608320E030E040E251E408
:101B4000C301B2010E9430240E94A224F8017383D1
:101B50006283822D90E095838483F1E0CF1AD108CF
:101B600009F0A1CF02EA18E0F80187E890E028E840
:101B700033E142815381452B21F491838083338368
:101B800022833E960196813E910599F780918E0DB4
:101B9000882381F18EE8C82E8DE0D82EF80160816F
:101BA00071814AE050E08CE99DE00E94291C68E3C5
:101BB00074E08CE99DE00E94591BF80162817381F9
:101BC0004AE050E08CE99DE00E94291C68E374E043
:101BD0008CE99DE00E94591BF801648175814AE0FF
:101BE00050E08CE99DE00E94301C025F1F4FC01640
:101BF000D106A1F670E060E083E00E947E21B7018B
:101C000080911E0290911F020E94650A64960FB691
:101C1000F894DEBF0FBECDBFDF91CF911F910F9122
:101C2000FF90EF90DF90CF90BF90AF909F908F90FC
:101C30007F906F905F904F903F902F90089570E04D
:101C400060E083E00E947E2124E630E040E050E046
:101C5000BE016F5F7F4F8FE89DE00E94F01197FDFE
:101C60007CCF28EE33E040E050E060E08FE89DE07C
:101C70000E947F126FEF70E083E00E947E2168EE89
:101C800073E080E090E00E94E32067CF813091050F
:101C900039F08230910581F0892BC1F40C947902DE
:101CA00060E089E00E94F82261E08AE00E94F82268
:101CB00060E088E00C94F82260E089E00E94F8225D
:101CC00060E08AE00E94F82261E0F3CF0895CF92AD
:101CD000DF92EF92FF920F931F9369E37EE08FE80C
:101CE0009DE00E94491026E040E052EC61E070E087
:101CF0008CE99DE00E945D1961E083E00E94BC22B6
:101D000061E086E10E94BC2261E088E00E94BC2282
:101D100061E08AE00E94BC2261E089E00E94BC226E
:101D200062E082E00E94BC2243E050E067E672E09D
:101D300080E00E944E1D61E086E10E94F8226AE088
:101D400070E080E090E00E94E3206AE374E08CE9B8
:101D50009DE00E947E1B68EE73E080E090E00E94B0
:101D6000E32063E08BE99DE00E9436146FE674E0A7
:101D7000811102C06BE774E08CE99DE00E947E1B3C
:101D800068EE73E080E090E00E94E32061E070E0A4
:101D900086E395E00E946417C0901002D090110273
:101DA000E0901202F09013020091140210911502BB
:101DB0002091160230911702409118025091190299
:101DC00060911A0270911B0286E395E00E948616CC
:101DD00061E070E086EE94E00E946417C0902E05EA
:101DE000D0902F05E0903005F09031050091080269
:101DF0001091090220910A0230910B0240910C02CD
:101E000050910D0260910E0270910F0286EE94E0E7
:101E10000E94861600E010E020EF31E440E050E040
:101E200060EF71EC86EE94E00E949C161F910F917A
:101E3000FF90EF90DF90CF900895E0911C02F09119
:101E40001D02E131F10508F093C08827E55DF04FF0
:101E50008F4F0C945D233C0F4A0F520F620F720F8D
:101E6000810FB80FB80FB80FB80FB80FB80FB80F71
:101E7000B80FB80F960FAA0F6AE874E08CE99DE0DE
:101E80000E947E1B81E090E00E94460E81E090E07F
:101E90000C94320D81E090E00E94460E82E090E0CA
:101EA0000C94FC0781E090E00E94460E60918A0548
:101EB00070918B0580918C0590918D0543E050E0E9
:101EC0000C94640581E090E00E94460E60918205CA
:101ED00070918305809184059091850544E050E0E0
:101EE0000C945E0481E090E00E94460E60918605AD
:101EF00070918705809188059091890545E050E0B3
:101F0000DFCF81E090E00E94460E20E030E040E22A
:101F100052E46091820570918305809184059091CF
:101F200085050E948B2340E150E0DACF65E974E03B
:101F30008CE99DE00E947E1B8FEF9FEF0E9485023F
:101F400082E090E00E94460E60ED77E080E090E055
:101F50000C94E32081E090E00E94460E69EA74E070
:101F60008CE99DE00E947E1B8FEF9FEF0C94850211
:101F70000C947902AF92BF92CF92DF92EF92FF92D0
:101F80000F931F938FE89DE00E942B10A0901402E6
:101F9000B0901502C0901602D0901702E09018027F
:101FA000F090190200911A0210911B021F921F92C9
:101FB000809113028F93809112028F93809111026E
:101FC0008F93809110028F932AE735E042E755E026
:101FD00066E775E086E395E00E942A18A090080263
:101FE000B0900902C0900A02D0900B02E0900C025F
:101FF000F0900D0200910E0210910F021F921F929D
:10200000809131058F93809130058F9380912F05BA
:102010008F9380912E058F9322E335E042E255E0C5
:1020200066E275E086EE94E00E942A188DB79EB7AE
:102030000C960FB6F8949EBF0FBE8DBF1F910F91E7
:10204000FF90EF90DF90CF90BF90AF9008958FE812
:102050009DE00C944710FC011182108212821382C1
:1020600014821582168217821086118612861386B4
:102070000895CF93DF93EC0188819981009721F037
:102080000E94BF1919821882DF91CF9108950C9494
:1020900039100F931F93CF93DF93EC018B0188814D
:1020A0009981892B19F0CE010E9439101983088378
:1020B000C8010E94BF1926E040E052EC61E070E0E8
:1020C000888199810E945D19DF91CF911F910F91B5
:1020D00008954F925F926F927F928F929F92AF92EC
:1020E000BF92EF92FF921F93CF93DF9300D01F9286
:1020F0001F92CDB7DEB77C012A013B010E94B220BE
:102100004B015C0110E00E94B220681979098A092C
:102110009B09461657066806790608F472C0D7016F
:102120008D919C91DC01ED91FC910284F385E02D71
:10213000199597FDE8CF112309F457C0113009F420
:102140005DC091E0910FE1E0F0E0EC0FFD1FE10FC9
:10215000F11D8083953009F046C06C817D8190E04F
:1021600080E00E94D82420E030E040E85EE30E9456
:102170001D26D70112966D937D938D939C93159791
:102180006A817B817695679590E080E00E94D824F3
:1021900020E030E040E85CE30E941D26F701668302
:1021A0007783808791878981282F30E0359527951F
:1021B0003595279522878170838760E070E0CB0199
:1021C0000F900F900F900F900F90DF91CF911F9174
:1021D000FF90EF90BF90AF909F908F907F906F9007
:1021E0005F904F900895192F8ECF9C0135952795BC
:1021F000FC01E2279F0120FDA4CF85CF80FDA1CF68
:1022000081CF62E070E880E090E8DACFCF92DF9291
:10221000EF92FF920F931F93CF93DF9300D000D0E4
:102220001F92CDB7DEB77C01162F5F834E83690105
:102230001D82232B21F0CA01892B09F0106805EAC1
:1022400009831A83D7018D919C91DC01ED91FC915A
:102250000280F381E02D42E050E0BE016F5F7F4FCE
:10226000199517FF40C06D8160276C2561276D832C
:10227000EE81FF8196012E0F3F1FE217F30729F031
:1022800091918D8189278D83F8CFCC82F701808150
:102290009181DC01ED91FC910280F381E02D41E020
:1022A00050E0BE016C5F7F4F1995F70180819181ED
:1022B0004C8150E0DC01ED91FC910280F381E02D36
:1022C000BE016A5F7F4F1995F70180819181DC0122
:1022D000ED91FC910280F381E02D41E050E0BE01E0
:1022E0006B5F7F4F199560E070E0CB0127960FB6CA
:1022F000F894DEBF0FBECDBFDF91CF911F910F913C
:10230000FF90EF90DF90CF900895FC012081318104
:10231000232B39F030E020E050E040E065E20C94FF
:10232000061161E070E880E090E808957F928F9256
:102330009F92AF92BF92CF92DF92EF92FF920F9354
:102340001F93CF93DF938C01EB0149015A010E9447
:10235000B2206B017C01712C0E94B2206C197D09A6
:102360008E099F0986169706A806B906A0F1D8011E
:102370008D919C91DC01ED91FC910284F385E02D1F
:10238000199597FDE9CF7720F1F0B1E07B16F9F0D0
:1023900091E0970DFE01E70DF11D8083973089F4E0
:1023A00060E070E0CB01DF91CF911F910F91FF9022
:1023B000EF90DF90CF90BF90AF909F908F907F90E5
:1023C0000895792EC9CF853A910511F3C5CF8A3585
:1023D0009105F1F2C0CF62E070E880E090E8E3CFD1
:1023E0004F925F926F927F928F929F92AF92BF9225
:1023F000CF92DF92EF92FF920F931F93CF93DF93D1
:1024000000D000D01F92CDB7DEB77C016B0149012F
:102410005A010E94B2202B013C01D7018D919C9161
:10242000892B09F45EC030E020E050E040E060E538
:10243000C7010E94061197FD3DC0A5019401BE0190
:102440006F5F7F4FC7010E94961197FD33C08F8148
:10245000843009F04BC08B819C81AD812E81B22FDD
:10246000BF734497A105B10508F440C08601B4E1EB
:10247000CB0ED11C0E94B2206419750986099709F8
:1024800086169706A806B906A8F1F7018081918102
:10249000DC01ED91FC910284F385E02D199597FD07
:1024A000E9CFF80181938F01CE16DF0619F760E0BE
:1024B00070E0CB0127960FB6F894DEBF0FBECDBFFC
:1024C000DF91CF911F910F91FF90EF90DF90CF9010
:1024D000BF90AF909F908F907F906F905F904F9044
:1024E000089561E070E880E090E8E4CF60E070E893
:1024F000CB01E0CF62E070E880E090E8DBCFBF92F4
:10250000CF92DF92EF92FF920F931F93CF93DF93BF
:1025100000D000D01F92CDB7DEB7DC01ED91FC9169
:10252000EF2B09F440C069017A01B62E8C010E949C
:10253000851160E2B11061E230E020E050E040E05F
:10254000C8010E94061197FD1AC0A7019601BE019D
:102550006F5F7F4FC8010E94961197FD10C08F8159
:102560008138E9F48B819C81AD812E81B22FBF73BC
:102570000597A105B10598F060E070E0CB012796C2
:102580000FB6F894DEBF0FBECDBFDF91CF911F9184
:102590000F91FF90EF90DF90CF90BF90089560E093
:1025A00070E8CB01ECCF61E070E880E090E8E7CF25
:1025B0008EBD0DB407FEFDCF8EB50895CF93DF938A
:1025C000D82FC62F289882E00E94D8128D2F0E9403
:1025D000D8128C2F0E94D812289ADF91CF9108959B
:1025E000CF93C82F289883E00E94D8128C2F0E9486
:1025F000D8128FEF0E94D812289ACF9108951F9376
:10260000CF93DF93182FD62FC42F289885E00E94F0
:10261000D812812F0E94D8128D2F0E94D8128C2F91
:102620000E94D812289ADF91CF911F91089528987F
:102630000E94D8128FEF0E94D812289A0895CF9343
:10264000C82F289A209A29982A982B98219A229A5A
:1026500023986C98749A81E58CBD1DBC289880ECF9
:102660000E94D812289A87EC90E00197F1F700C0F9
:102670000000289882E00E94D81288E20E94D812B6
:1026800082E00E94D81280E90E94D8128C2F0E940A
:10269000D81283E00E94D812289A8AE20E94F0128F
:1026A0008C1741F08091020180628093020180E0EA
:1026B000CF91089560E08CE00E94DE1260E08DE032
:1026C0000E94DE1260E680E60E94DE1260E680E78D
:1026D0000E94DE1260E08FE00E94DE1281E0E8CF0F
:1026E000EF92FF920F931F93CF93DF938C0180EBB8
:1026F0000E941713C82F282F2074E22E86FD05C0D4
:1027000084E9C7FD03C080E040C080E928980E94AA
:10271000D8128FEF0E94D812E8E08E9FC0011124DA
:10272000F801918380838FEF0E94D812282F229581
:1027300026952770F80180819181822B9183808377
:102740008FEF0E94D8128FEF0E94D8128FEF0E9455
:10275000D8128F70F82E982F990FF8018281817E00
:10276000892BC3FB80F982830D5F1F4FD0E0DF11FF
:1027700013C0289A40E061E0E11001C062E08CE201
:102780000E94FF128C2F87708F5FDF91CF911F9176
:102790000F91FF90EF9008958FEF0E94D812F801EB
:1027A00081938F01DF5FE3CFFF920F931F93CF934E
:1027B000DF938C0180EA0E94171382FF07C084FF19
:1027C00044C0C4E086FF03C0C0E038C0C0E0289821
:1027D0008C2F80640E94D812F8018081918123E0BF
:1027E000969587952A95E1F70E94D812F801808185
:1027F0008295880F807E0E94D81280E00E94D812B5
:1028000080E00E94D812F8018281D82FD695DF701F
:1028100080FF1DC08D2F80640E94D812289A87ECFB
:1028200090E00197F1F700C000002898C11101C0A5
:10283000C1E08C2F80680E94D812289A8C2FDF91DB
:10284000CF911F910F91FF900895C2E0C0CF8D2FBF
:102850000E94D8120D5F1F4FF12CFD16F9F2F801FE
:1028600081918F010E94D812F394F7CF862F0C9498
:102870001F132F923F924F925F926F927F928F928F
:102880009F92AF92BF92CF92DF92EF92FF920F93FF
:102890001F93CF93DF93CDB7DEB760970FB6F89451
:1028A000DEBF0FBECDBFDC01DA96BC91BD83B11196
:1028B0001BC01D828D8160960FB6F894DEBF0FBEDF
:1028C000CDBFDF91CF911F910F91FF90EF90DF90DF
:1028D000CF90BF90AF909F908F907F906F905F90C0
:1028E0004F903F902F900895988B8F870E94B22031
:1028F0006B877C878D879E87EF85F88982A193A15E
:10290000A4A1B5A12B853C854D855E85281B390B7F
:102910004A0B5B0BDA01C90146A557A560A971A94D
:1029200084179507A607B70720F2048CF58DE02DD4
:1029300080819181A281B38189839A83AB83BC8397
:10294000AF85B8899096ED91FC9129813A814B81B0
:102950005C8160817181828193810E948A234B0115
:102960005C01EF85F88922A533A544A555A56981A9
:102970007A818B819C810E948A236B017C01AF85C7
:10298000B88950962D913D914D915C915397C50119
:10299000B4010E941D26EF85F88926A137A140A524
:1029A00051A50E948B232B013C01AF85B8899696D7
:1029B0004D925D926D927C929997DB96BC91BE830D
:1029C000B11118C0EF85F88924853585468557856E
:1029D000C701B6010E941D269B01AC01C301B201D3
:1029E0000E948A23AF85B88996966D937D938D93C7
:1029F0009C939997EF85F88946A057A060A471A48D
:102A000016A907A930AC21AC212F302F432D522D10
:102A1000C301B2010E94102618160CF07FC0812F4E
:102A2000902FA32DB22DEF85F88986A397A3A0A799
:102A3000B1A7BE81BB2309F490C0EF85F889248536
:102A4000358546855785C501B4010E941D264B0179
:102A50005C01AF85B88954962D913D914D915C9163
:102A60005797C701B6010E941D269B01AC01EF8557
:102A7000F88966A177A180A591A50E948A23A50166
:102A800094010E948B236B017C019B01AC01612F9F
:102A9000702F832D922D0E94262487FD1BC0AF85A9
:102AA000B889D2961C91D297D3960C91D397D4968D
:102AB0003C90D497D5962C909601A701612F702F4A
:102AC000832D922D0E941026181624F01C2D0D2DFA
:102AD0003E2C2F2CAF85B8895E96ED91FC91812F0D
:102AE000902FA32DB22D80839183A283B38329815C
:102AF0003A814B815C81AF85B8899A962D933D933D
:102B00004D935C939D972B853C854D855E85929674
:102B10002D933D934D935C939597CCCEAF85B8891B
:102B2000D2962D913D914D915C91D5972F83388709
:102B300049875A87C301B2010E94262487FF79CFB3
:102B40002F81388549855A85AF85B88996962D930A
:102B50003D934D935C9399976CCF812C912C5401AC
:102B600078CF4F925F926F927F928F929F92AF92A7
:102B7000BF92CF92DF92EF92FF920F931F93CF936A
:102B8000DF9300D000D0CDB7DEB79E838D8349831D
:102B90005A836B837C832801390120E030E0A9014E
:102BA00069817A818B819C810E94262487FD97C050
:102BB00020E030E0A901C301B8010E94262487FD6E
:102BC0008EC020E030E0A901C701B6010E94262492
:102BD00087FD85C0AD81BE815B96BC92AE925A974F
:102BE00081E0AA94AB2809F080E0ED81FE8183AFFB
:102BF00089819A81AB81BC8180839183A283B383D5
:102C00004482558266827782C086D186E286F386C8
:102C100066A577A580A991A90E94D82420E030E07C
:102C20004AE754E40E9430244B015C0189819A8177
:102C3000AB81BC81ED81FE8184879587A687B787AC
:102C4000A5019401C301B2010E941D262B013C0184
:102C5000AD81BE8150964D925D926D927C9253975C
:102C6000A5019401C701B6010E9430246B017C01CB
:102C7000ED81FE81C48AD58AE68AF78A808D918D9E
:102C8000019769F529813A814B815C8160E070E0B0
:102C9000CB010E948A23AD81BE811C966D937D93EA
:102CA0008D939C931F97A301920160E070E0CB018C
:102CB0000E948A23ED81FE81608B718B828B938BC6
:102CC000A701960160E070E0CB010E948A23AD81EC
:102CD000BE8154966D937D938D939C9357972696C2
:102CE0000FB6F894DEBF0FBECDBFDF91CF911F911D
:102CF0000F91FF90EF90DF90CF90BF90AF909F909B
:102D00008F907F906F905F904F900895AF92BF9299
:102D1000CF92DF92EF92FF920F931F93FC01A28C50
:102D2000B38C0E94B1151F910F91FF90EF90DF902F
:102D3000CF90BF90AF9008952F923F924F925F92A5
:102D40006F927F928F929F92AF92BF92CF92DF92BB
:102D5000EF92FF920F931F93CF93DF93EC016A01E1
:102D60007B0148015901A9019801CB01B6010E94DC
:102D7000102687FF4FC0CAAADBAAECAAFDAA8EAA1A
:102D80009FAAA8AEB9AE8AAD882309F443C02E8CA1
:102D90003F8CF1014080518062807380A3019201D9
:102DA000C501B8010E94262487FF1AC0F101808264
:102DB0009182A282B3828EA09FA0A8A4B9A4CEA81B
:102DC000DFA8E8ACF9ACA7019601C501B4010E94E7
:102DD000102618169CF4CEA2DFA2E8A6F9A61AC007
:102DE000A3019201C701B6010E94102618161CF714
:102DF000F101C082D182E282F382DDCFCAA8DBA8D2
:102E0000ECA8FDA8A7019601C501B4010E942624E3
:102E100087FDE1CFDF91CF911F910F91FF90EF9050
:102E2000DF90CF90BF90AF909F908F907F906F90EA
:102E30005F904F903F902F9008958F929F92AF9206
:102E4000BF92CF92DF92EF92FF92CF93DF93EC018C
:102E5000EE8DFF8DC080D180E280F380CEA2DFA214
:102E6000E8A6F9A6EC8DFD8D80819181A281B381C8
:102E70008AA79BA7ACA7BDA78EA89FA8A8ACB9ACF2
:102E8000A5019401C701B6010E94102618162CF462
:102E90008EA29FA2A8A6B9A60CC08AA89BA8ACA87F
:102EA000BDA8A5019401C701B6010E94262487FD93
:102EB000EFCFDF91CF91FF90EF90DF90CF90BF9059
:102EC000AF909F908F9008951F93CF93DF93EC0165
:102ED00011E06130710509F010E06130710531F4E5
:102EE0008AAD811103C0CE010E941D171AAFDF9178
:102EF000CF911F9108950F931F93CF93DF93EC0110
:102F00008B018AAD882361F1888D998D861797078B
:102F100039F12C853D854E855F8560E070E0CB0101
:102F20000E948A236C877D878E879F8728893989AD
:102F30004A895B8960E070E0CB010E948A23688B3C
:102F4000798B8A8B9B8B2C893D894E895F8960E0C8
:102F500070E0CB010E948A236C8B7D8B8E8B9F8BC4
:102F6000198F088FDF91CF911F910F9108954F9284
:102F70005F926F927F928F929F92AF92BF92CF9209
:102F8000DF92EF92FF920F931F93CF93DF9300D0C6
:102F90001F92CDB7DEB74C0127013801A982BA8252
:102FA000CB82DC82FC01578F468F758F648F31A3F3
:102FB00020A312AE80E090E0A0EAB2EC82AB93AB2B
:102FC000A4ABB5AB80E090E0A0EAB2E486AB97ABEF
:102FD000A0AFB1AF84E690E0A0E0B0E086A797A7ED
:102FE000A0ABB1AB6E8D7F8DC4010E947B17AC8C02
:102FF000BD8CC88CD98CEA8CFB8C09811A812B8101
:103000003C81B301A201C4010E94B1150E94B2200B
:10301000F40146A457A460A871A86419750986092B
:10302000970962A373A384A395A30F900F900F90A9
:103030000F90DF91CF911F910F91FF90EF90DF9054
:10304000CF90BF90AF909F908F907F906F905F9048
:103050004F9008958F929F92AF92BF92CF92DF923E
:10306000EF92FF920F931F93CF93DF93CDB7DEB70D
:10307000E889F989AA89BB899C888D888F929F925B
:103080001F92992493949F92BF93AF93FF93EF93D2
:103090000E94B7170FB6F894DEBF0FBECDBFDF9109
:1030A000CF911F910F91FF90EF90DF90CF90BF9045
:1030B000AF909F908F900895FC01918D228D892F64
:1030C00090E0805C9F4F821B91098F739927089530
:1030D000FC01918D828D981731F0828DE80FF11DE2
:1030E000858D90E008958FEF9FEF0895FC01918DFD
:1030F000828D981761F0A28DAE0FBF2FB11D5D9626
:103100008C91928D9F5F9F73928F90E008958FEFC7
:103110009FEF0895FC01538D448D252F30E0842FBF
:1031200090E0821B930B541710F0CF9608950197EF
:10313000089581E49AE1892B49F080E090E0892BA1
:1031400029F00E94411A81110E94000080E090E065
:10315000892B49F080E090E0892B29F00E94000043
:1031600081110E94000080E090E0892B49F080E00E
:1031700090E0892B29F00E94000081110E9400003C
:1031800088ED9AE1892B49F080E090E0892B29F0C5
:103190000E94D81A81110C9400000895FC01A48D9E
:1031A000A80FB92FB11DA35ABF4F2C91848D90E069
:1031B00001968F739927848FA689B7892C93A0894C
:1031C000B1898C91837080648C93938D848D9813D6
:1031D00006C00288F389E02D80818F7D8083089569
:1031E000CF93DF93EC01888D8823B9F0AA89BB893E
:1031F000E889F9898C9185FD03C0808186FD0DC029
:103200000FB607FCF7CF8C9185FFF2CF808185FF49
:10321000EDCFCE010E94CE18E9CFDF91CF91089576
:10322000EF92FF920F931F93CF93DF93EC0181E016
:10323000888F9B8D8C8D98131AC0E889F9898081BD
:1032400085FF15C09FB7F894EE89FF896083E889F0
:10325000F98980818370806480839FBF81E090E0E2
:10326000DF91CF911F910F91FF90EF900895F62E6F
:103270000B8D10E00F5F1F4F0F731127E02E8C8D09
:103280008E110CC00FB607FCFACFE889F98980814E
:1032900085FFF5CFCE010E94CE18F1CFEB8DEC0F5C
:1032A000FD2FF11DE35AFF4FF0829FB7F8940B8F6B
:1032B000EA89FB8980818062CFCFCF92DF92EF9243
:1032C000FF921F93CF93DF93EC016A017B01122FD2
:1032D000E889F98982E08083C11481EED806E1048F
:1032E000F104A1F060E079E08DE390E0A7019601A0
:1032F0000E943B23215031094109510956954795B8
:1033000037952795211580E1380798F0E889F989E4
:10331000108260E874E88EE190E0A70196010E94B7
:103320003B2321503109410951095695479537955D
:103330002795EC85FD853083EE85FF852083188EEB
:10334000EC89FD891083EA89FB8980818061808313
:10335000EA89FB89808188608083EA89FB89808192
:1033600080688083EA89FB8980818F7D8083DF91FB
:10337000CF911F91FF90EF90DF90CF900895CF9362
:10338000DF93EC01E881F9810680F781E02D199542
:10339000EA89FB8980818F7E8083EA89FB8980812D
:1033A000877F8083EA89FB8980818F778083EA89A0
:1033B000FB8980818F7D80838A8D898FDF91CF917A
:1033C00008951F920F920FB60F9211240BB60F9211
:1033D0002F938F939F93EF93FF93E091AC0DF09118
:1033E000AD0D8081E091B20DF091B30D82FD1DC055
:1033F00090818091B50D8F5F8F732091B60D8217EC
:1034000041F0E091B50DF0E0E456F24F958F8093D6
:10341000B50DFF91EF919F918F912F910F900BBE62
:103420000F900FBE0F901F9018958081F2CF1F92C2
:103430000F920FB60F9211240BB60F922F933F935A
:103440004F935F936F937F938F939F93AF93BF93AC
:10345000EF93FF938CE99DE00E94CE18FF91EF91CE
:10346000BF91AF919F918F917F916F915F914F919C
:103470003F912F910F900BBE0F900FBE0F901F909A
:1034800018958CE99DE00E945C1821E0892B09F4D5
:1034900020E0822F0895ECE9FDE01382128288EE8D
:1034A00093E0A0E0B0E084839583A683B78387ECA4
:1034B00094E09183808385EC90E09587848784EC09
:1034C00090E09787868780EC90E0918B808B81ECF1
:1034D00090E0938B828B82EC90E0958B848B86ECD2
:1034E00090E0978B868B118E128E138E148E08951A
:1034F0001F920F920FB60F9211240BB60F922F93BB
:103500008F939F93EF93FF93E091490EF0914A0EB2
:103510008081E0914F0EF091500E82FD1DC0908190
:103520008091520E8F5F8F732091530E821741F05E
:10353000E091520EF0E0E75CF14F958F8093520ED0
:10354000FF91EF919F918F912F910F900BBE0F9054
:103550000FBE0F901F9018958081F2CF1F920F928F
:103560000FB60F9211240BB60F922F933F934F93E8
:103570005F936F937F938F939F93AF93BF93EF93DB
:10358000FF9389E39EE00E94CE18FF91EF91BF91D7
:10359000AF919F918F917F916F915F914F913F91EB
:1035A0002F910F900BBE0F900FBE0F901F9018958C
:1035B00089E39EE00E945C1821E0892B09F420E059
:1035C000822F0895E9E3FEE01382128288EE93E0F1
:1035D000A0E0B0E084839583A683B78387EC94E072
:1035E0009183808385E391E09587848784E391E0EC
:1035F0009787868780E391E0918B808B81E391E0D0
:10360000938B828B82E391E0958B848B86E391E0B0
:10361000978B868B118E128E138E148E0895AF9217
:10362000BF92CF92DF92EF92FF920F931F93CF93AF
:10363000DF936C017B018B01040F151FEB015E0111
:10364000AE18BF08C017D10759F06991D601ED91A6
:10365000FC910190F081E02DC6011995892B79F735
:10366000C501DF91CF911F910F91FF90EF90DF90F7
:10367000CF90BF90AF900895FB0101900020E9F733
:103680003197AF01461B570BDC01ED91FC91028095
:10369000F381E02D1994DB0114964D915C911597FF
:1036A0006D917C91DC01ED91FC910280F381E02D24
:1036B00019946115710511F00C943C1B90E080E0A9
:1036C0000895DC01ED91FC910190F081E02D1994B9
:1036D00065ED74E00C943C1B0F931F93CF93DF9325
:1036E000EC010E944B1B8C01CE010E94681B800FD5
:1036F000911FDF91CF911F910F9108950F931F9309
:10370000CF93DF938C01D0E0C0E06115710519F013
:103710000E943C1BEC01C8010E94681B8C0F9D1F7E
:10372000DF91CF911F910F9108958F929F92AF9249
:10373000BF92EF92FF920F931F93CF93DF93CDB77A
:10374000DEB7A1970FB6F894DEBF0FBECDBF7C01E8
:10375000FA01CB0119A2223008F42AE08E010F5D94
:103760001F4F822E912CB12CA12CBF01A5019401D9
:103770000E943B23F901CA016A300CF5605DD80153
:103780006E938D01232B242B252B79F790E080E07D
:10379000109721F0BD01C7010E943C1BA1960FB6F6
:1037A000F894DEBF0FBECDBFDF91CF911F910F9177
:1037B000FF90EF90BF90AF909F908F900895695CBD
:1037C000DECFCF92DF92EF92FF920F931F93CF93B2
:1037D000DF932115310581F4DC01ED91FC9101901D
:1037E000F081E02D642FDF91CF911F910F91FF9019
:1037F000EF90DF90CF9019942A30310501F52AE03F
:1038000077FF1DC06A017B01EC016DE20E94611B24
:103810008C0144275527BA014C195D096E097F09AF
:103820002AE0CE010E94951B800F911FDF91CF915E
:103830001F910F91FF90EF90DF90CF900895DF914F
:10384000CF911F910F91FF90EF90DF90CF900C944C
:10385000951B9A01AB01770F660B770B0C94E11B5C
:103860000F931F93CF93DF93EC010E94291C8C01CF
:10387000CE010E94681B800F911FDF91CF911F9195
:103880000F9108952115310541F4DC01ED91FC9172
:103890000190F081E02D642F19940C94951B9A01EE
:1038A000AB0170E060E00C94421C2F923F924F926B
:1038B0005F926F927F928F929F92AF92BF92CF92C0
:1038C000DF92EF92FF921F93CF93DF93EC016A0197
:1038D0007B01722EAB019601CB01B6010E94DC2662
:1038E00068ED74E0811126C046015701E894B7F8ED
:1038F0002FEF3FEF4FE75FE7C501B4010E94DC26E1
:1039000081110CC02FEF3FEF4FE75FE7C501B40116
:103910000E9426246CED74E0181664F02FEF3FEF40
:103920004FE75FE4C701B6010E9410261816B4F4F1
:1039300060EE74E0CE01DF91CF911F91FF90EF9088
:10394000DF90CF90BF90AF909F908F907F906F90BF
:103950005F904F903F902F900C943C1B2FEF3FEFC8
:103960004FE75FECC701B6010E94262487FDE0CF38
:1039700020E030E0A901C701B6010E942624312CC5
:10398000212C87FF09C06DE2CE010E94611B1C0142
:10399000F7FAF094F7F8F09410E060E070E080E05F
:1039A0009FE3711641F020E030E040E251E40E94D4
:1039B00030241F5FF6CFA70196010E948B232B01B5
:1039C0003C010E94A9244B015C012AE0BC01A40136
:1039D000CE010E94951B7C01E20CF31C1123B1F176
:1039E000C501B4010E94D8249B01AC01C301B201FE
:1039F0000E948A234B015C016EE2CE010E94611B92
:103A0000E80EF91E115010F120E030E040E251E4E0
:103A1000C501B4010E941D262B013C010E94A9246E
:103A20004B014AE050E0CE010E944F1CE80EF91E07
:103A3000B40190E080E00E94D8249B01AC01C30156
:103A4000B2010E948A234B015C01DCCFC701DF91E8
:103A5000CF911F91FF90EF90DF90CF90BF90AF90EC
:103A60009F908F907F906F905F904F903F902F909E
:103A700008950C94551C0F931F93CF93DF93EC0183
:103A80000E94551C8C01CE010E94681B800F911F63
:103A9000DF91CF911F910F9108950895883008F01C
:103AA00076C0E82FF0E0EE0FFF1FE85DFD4F718359
:103AB00060838150873008F03DC0E82FF0E0882710
:103AC000EB59F24E8F4F0C945D23A21D6C1D741D9B
:103AD000801D8D1DAE1DBB1D809169008C7F482B04
:103AE00040936900E89A089580916900837F440FAC
:103AF000551F440F551F482B40936900E99A0895BC
:103B0000809169008F7C74E0440F551F7A95E1F72E
:103B1000482B40936900EA9A0895809169008F7359
:103B200066E0440F551F6A95E1F7482B4093690002
:103B3000EB9A089580916A008C7F482B40936A002D
:103B4000EC9A089580916A00837F440F551F440FBB
:103B5000551F482B40936A00ED9A089580916A00A2
:103B60008F7C24E0440F551F2A95E1F7482B4093A2
:103B70006A00EE9A089580916A008F7396E0440F70
:103B8000551F9A95E1F7482B40936A00EF9A0895E4
:103B90001F920F920FB60F9211240BB60F922F9314
:103BA0003F934F935F936F937F938F939F93AF93C5
:103BB000BF93EF93FF93E0912C02F0912D021995A2
:103BC000FF91EF91BF91AF919F918F917F916F91F5
:103BD0005F914F913F912F910F900BBE0F900FBEB1
:103BE0000F901F9018951F920F920FB60F921124ED
:103BF0000BB60F922F933F934F935F936F937F93E7
:103C00008F939F93AF93BF93EF93FF93E0912E0217
:103C1000F0912F021995FF91EF91BF91AF919F9174
:103C20008F917F916F915F914F913F912F910F9065
:103C30000BBE0F900FBE0F901F9018951F920F9202
:103C40000FB60F9211240BB60F922F933F934F9301
:103C50005F936F937F938F939F93AF93BF93EF93F4
:103C6000FF93E0913002F09131021995FF91EF91AD
:103C7000BF91AF919F918F917F916F915F914F9184
:103C80003F912F910F900BBE0F900FBE0F901F9082
:103C900018951F920F920FB60F9211240BB60F9228
:103CA0002F933F934F935F936F937F938F939F9344
:103CB000AF93BF93EF93FF93E0913202F091330201
:103CC0001995FF91EF91BF91AF919F918F917F9146
:103CD0006F915F914F913F912F910F900BBE0F907D
:103CE0000FBE0F901F9018951F920F920FB60F9254
:103CF00011240BB60F922F933F934F935F936F93C3
:103D00007F938F939F93AF93BF93EF93FF93E09134
:103D10002802F09129021995FF91EF91BF91AF917F
:103D20009F918F917F916F915F914F913F912F91D3
:103D30000F900BBE0F900FBE0F901F9018951F9203
:103D40000F920FB60F9211240BB60F922F933F9341
:103D50004F935F936F937F938F939F93AF93BF9393
:103D6000EF93FF93E0912A02F0912B021995FF91B6
:103D7000EF91BF91AF919F918F917F916F915F91E3
:103D80004F913F912F910F900BBE0F900FBE0F9050
:103D90001F9018951F920F920FB60F9211240BB619
:103DA0000F922F933F934F935F936F937F938F93D4
:103DB0009F93AF93BF93EF93FF93E0913402F09101
:103DC00035021995FF91EF91BF91AF919F918F911E
:103DD0007F916F915F914F913F912F910F900BBE0B
:103DE0000F900FBE0F901F9018951F920F920FB655
:103DF0000F9211240BB60F922F933F934F935F9323
:103E00006F937F938F939F93AF93BF93EF93FF93A2
:103E1000E0913602F09137021995FF91EF91BF9131
:103E2000AF919F918F917F916F915F914F913F9152
:103E30002F910F900BBE0F900FBE0F901F901895F3
:103E4000FC01808191810C94C427CF93DF93EC0116
:103E500088819981009711F00E94C42719821882E5
:103E60001D821C821B821A82DF91CF9108950F93CD
:103E70001F93CF93DF93EC018B016F5F7F4F88819E
:103E800099810E944D28009751F0998388831B8364
:103E90000A8381E0DF91CF911F910F91089580E017
:103EA000F9CFCF93DF93EC0188819981892B49F079
:103EB0008A819B818617970720F081E0DF91CF915F
:103EC0000895CE010E94371F8823C1F38C819D8104
:103ED000892B99F7E881F9811082EFCFEF92FF9259
:103EE0000F931F93CF93DF93EC017B018A01BA01FB
:103EF0000E94511F81110BC0CE010E94251FCE01CF
:103F0000DF91CF911F910F91FF90EF9008951D8346
:103F10000C83B701888199810E943729F0CFFC0179
:103F2000118210821382128215821482611571052A
:103F300051F0FB0101900020E9F73197AF01461BDA
:103F4000570B0C946E1F0895FB0101900020E9F7B8
:103F50003197AF01461B570B0C946E1F0F931F93A5
:103F6000CF93DF93CDB7DEB762970FB6F894DEBF7D
:103F70000FBECDBF8C01CB01F801118210821382DC
:103F800012821582148250E0BE016F5F7F4F0E9443
:103F90003E29BE016F5F7F4FC8010E94A41F629639
:103FA0000FB6F894DEBF0FBECDBFDF91CF911F914A
:103FB0000F910895CF93DF93EC016115710531F0F6
:103FC0000E94A41FCE01DF91CF9108950E94251F6A
:103FD000F9CFEF92FF920F931F93CF93DF93CDB75B
:103FE000DEB7A1970FB6F894DEBF0FBECDBF7C0140
:103FF000CB01BA01F701118210821382128215825D
:10400000148242E0420F8E010F5F1F4F0E940A2769
:10401000BC01C7010E94DA1FA1960FB6F894DEBF5B
:104020000FBECDBFDF91CF911F910F91FF90EF9009
:104030000895EF92FF920F931F93CF93DF93611533
:10404000710541F480E0DF91CF911F910F91FF90B6
:10405000EF90089541155105B1F07B01EC010C8101
:104060001D81040F151FB8010E94511F882351F3B1
:10407000288139818C819D81B701820F931F0E9415
:1040800037291D830C8381E0DECFCF93DF93EC01D2
:10409000FB0144815581608171810E941920811149
:1040A00003C0CE010E94251FCE01DF91CF9108955C
:1040B00008950E941C210E9458200E94670EC9E9A1
:1040C000D8E10E941D0F2097E1F30E949918F9CFC3
:1040D0001F920F920FB60F9211242F933F938F933D
:1040E0009F93AF93BF938091D70E9091D80EA091DC
:1040F000D90EB091DA0E3091D60E23E0230F2D3772
:1041000058F50196A11DB11D2093D60E8093D70EB0
:104110009093D80EA093D90EB093DA0E8091DB0E57
:104120009091DC0EA091DD0EB091DE0E0196A11DE6
:10413000B11D8093DB0E9093DC0EA093DD0EB09347
:10414000DE0EBF91AF919F918F913F912F910F9074
:104150000FBE0F901F90189526E8230F0296A11D01
:10416000B11DD2CF2FB7F8946091D70E7091D80EB1
:104170008091D90E9091DA0E2FBF08953FB7F89431
:104180008091DB0E9091DC0EA091DD0EB091DE0EE1
:1041900026B5A89B05C02F3F19F00196A11DB11DA2
:1041A0003FBFBA2FA92F982F8827BC01CD01620FDE
:1041B000711D811D911D42E0660F771F881F991F99
:1041C0004A95D1F708958F929F92AF92BF92CF9266
:1041D000DF92EF92FF926B017C010E94BE204B01A7
:1041E0005C01C114D104E104F104E9F00E9426232A
:1041F0000E94BE20681979098A099B09683E7340AC
:104200008105910570F321E0C21AD108E108F10897
:1042100088EE880E83E0981EA11CB11CC114D10445
:10422000E104F10429F7FF90EF90DF90CF90BF9069
:10423000AF909F908F900895789484B5826084BDEC
:1042400084B5816084BD85B5826085BD85B581609A
:1042500085BDEEE6F0E0808181608083E1E8F0E0FA
:104260001082808182608083808181608083E0E829
:10427000F0E0808181608083E1EBF0E08081846008
:104280008083E0EBF0E0808181608083E1E9F0E011
:10429000808182608083808181608083E0E9F0E0BA
:1042A000808181608083E1EAF0E0808182608083A8
:1042B000808181608083E0EAF0E08081816080839A
:1042C000E1E2F1E08081826080838081816080838F
:1042D000E0E2F1E0808181608083EAE7F0E08081C4
:1042E000846080838081826080838081816080831C
:1042F0008081806880831092C10008951F93CF93BE
:10430000DF93182FEB0161E00E94BC22209739F463
:1043100060E0812FDF91CF911F910C94F822CF3F65
:10432000D10511F461E0F5CFE12FF0E0E65AFC4F42
:10433000E491E150E23108F0B3C0F0E08827EC5599
:10434000FE4D8F4F0C945D23B621BE21C321CD219C
:10435000D7215022E121E921F121FB2105220F2261
:104360001E222822502232223C22462284B5806816
:1043700084BDC7BDDF91CF911F91089584B5806240
:1043800084BDC8BDF7CF8091800080688093800095
:10439000D0938900C0938800EDCF80918000806227
:1043A00080938000D0938B00C0938A00E3CF8091EC
:1043B0008000886080938000D0938D00C0938C0033
:1043C000D9CF8091B00080688093B000C093B300D3
:1043D000D1CF8091B00080628093B000C093B400D0
:1043E000C9CF80919000806880939000D09399000D
:1043F000C0939800BFCF809190008062809390001E
:10440000D0939B00C0939A00B5CF809190008860B4
:1044100080939000D0939D00C0939C00ABCF80917F
:10442000A00080688093A0008091A0008F7B809383
:10443000A000D093A900C093A8009CCF8091A000B9
:1044400080628093A000D093AB00C093AA0092CF6B
:104450008091A00088608093A000D093AD00C093AD
:10446000AC0088CF80912001806880932001D09398
:104470002901C09328017ECF809120018062809322
:104480002001D0932B01C0932A0174CF8091200189
:10449000886080932001D0932D01C0932C016ACFB6
:1044A000C038D1050CF03ECF33CF8150823108F0B7
:1044B0005AC0E82FF0E08827EF59FD4D8F4F0C943C
:1044C0005D2381228522732279227D22B3228822D4
:1044D0008E22922298229C22A022A622AA22B322D5
:1044E000AE22B422B822809180008F778093800022
:1044F0000895809180008F7DF9CF80918000877F23
:10450000F5CF84B58F7784BD089584B58F7DFBCFBB
:104510008091B0008F778093B00008958091B000B3
:104520008F7DF9CF809190008F77809390000895D0
:10453000809190008F7DF9CF80919000877FF5CF9B
:104540008091A0008F778093A00008958091A000B3
:104550008F7DF9CF8091A000877FF5CF80912001DA
:104560008F77809320010895809120018F7DF9CF6E
:1045700080912001877FF5CFCF93DF9390E0FC01FE
:10458000E056FC4F24918A519C4FFC018491882372
:10459000C9F090E0880F991FFC01EA5BFB4FA591E1
:1045A000B491FC01E45DFB4FC591D49161110DC044
:1045B0009FB7F8948C91209582238C93888128232F
:1045C00028839FBFDF91CF910895623051F49FB748
:1045D000F8943C91822F809583238C93E8812E2B35
:1045E000EFCF8FB7F894EC912E2B2C938FBFEACF9F
:1045F0001F93CF93DF93282F30E0F901E65AFC4F49
:104600008491F901E056FC4FD491F901EA51FC4F35
:10461000C491CC23A9F0162F81110E945522EC2FB2
:10462000F0E0EE0FFF1FE45DFB4FA591B4918FB753
:10463000F894EC91111108C0D095DE23DC938FBF64
:10464000DF91CF911F910895DE2BF8CF089597FB4E
:10465000072E16F4009407D077FD09D00E94652339
:1046600007FC05D03EF4909581959F4F0895709575
:1046700061957F4F0895A1E21A2EAA1BBB1BFD0175
:104680000DC0AA1FBB1FEE1FFF1FA217B307E40731
:10469000F50720F0A21BB30BE40BF50B661F771F89
:1046A000881F991F1A9469F7609570958095909569
:1046B0009B01AC01BD01CF010895EE0FFF1F881FC4
:1046C0008BBF0790F691E02D1994AA1BBB1B51E1FB
:1046D00007C0AA1FBB1FA617B70710F0A61BB70B72
:1046E000881F991F5A95A9F780959095BC01CD0117
:1046F00008959F939F770E9415250F90002042F404
:104700009058A2EA2AED3FE049E450E40E94A22337
:104710000C94C2255058BB27AA270E94A2230C94B0
:10472000C2250E94892538F00E94902520F039F496
:104730009F3F19F426F40C945F250EF4E095E7FBF7
:104740000C945925E92F0E94E72558F3BA17620700
:1047500073078407950720F079F4A6F50C940926D1
:104760000EF4E0950B2EBA2FA02D0B01B90190018C
:104770000C01CA01A0011124FF27591B99F0593FD0
:1047800050F4503E68F11A16F040A22F232F342F18
:104790004427585FF3CF469537952795A795F04066
:1047A0005395C9F77EF41F16BA0B620B730B840B7B
:1047B000BAF09150A1F0FF0FBB1F661F771F881F33
:1047C000C2F70EC0BA0F621F731F841F48F487958B
:1047D00077956795B795F7959E3F08F0B0CF93957D
:1047E000880F08F09927EE0F979587950895DF9326
:1047F000DD27B92FBF7740E85FE316161706480795
:104800005B0718F4D92F0E9415269F938F937F93EF
:104810006F930E94D826E4EEF0E00E9462250E9489
:10482000C2252F913F914F915F910E943026DD2349
:1048300051F09058A2EA2AED3FE049EC5FE3D078CE
:104840005D270E94A223DF910C94C2250E9435258A
:1048500008F481E008950E949925E3950C94D325EE
:104860000E9444240C94C2250E94902558F00E9476
:10487000892540F029F45F3F29F00C945925511106
:104880000C940A260C945F250E94E72568F399236F
:10489000B1F3552391F3951B550BBB27AA2762173C
:1048A0007307840738F09F5F5F4F220F331F441F49
:1048B000AA1FA9F335D00E2E3AF0E0E832D091507D
:1048C0005040E695001CCAF72BD0FE2F29D0660F6A
:1048D000771F881FBB1F261737074807AB07B0E8AD
:1048E00009F0BB0B802DBF01FF2793585F4F3AF0B3
:1048F0009E3F510578F00C9459250C940A265F3F91
:10490000E4F3983ED4F3869577956795B795F79538
:104910009F5FC9F7880F911D9695879597F9089520
:10492000E1E0660F771F881FBB1F621773078407BC
:10493000BA0720F0621B730B840BBA0BEE1F88F7CB
:10494000E09508950E94A9246894B1110C940A2658
:1049500008950E94EF2588F09F5798F0B92F992766
:10496000B751B0F0E1F0660F771F881F991F1AF05A
:10497000BA95C9F714C0B13091F00E940926B1E090
:1049800008950C940926672F782F8827B85F39F08F
:10499000B93FCCF3869577956795B395D9F73EF4F3
:1049A00090958095709561957F4F8F4F9F4F08959B
:1049B000E89409C097FB3EF49095809570956195B9
:1049C0007F4F8F4F9F4F9923A9F0F92F96E9BB276F
:1049D0009395F695879577956795B795F111F8CFEB
:1049E000FAF4BB0F11F460FF1BC06F5F7F4F8F4F56
:1049F0009F4F16C0882311F096E911C0772321F04C
:104A00009EE8872F762F05C0662371F096E8862FE3
:104A100070E060E02AF09A95660F771F881FDAF73A
:104A2000880F9695879597F90895DF93CF931F93F5
:104A30000F938B01EC01E1E1F1E00E9462250E94FD
:104A4000C2259801AE018B01EC0160E070E080E8C6
:104A50009FE30E948A230E9498269801AE010F913D
:104A60001F91CF91DF910C943026990F0008550FBC
:104A7000AA0BE0E8FEEF16161706E807F907C0F0E4
:104A800012161306E407F50798F0621B730B840BEC
:104A9000950B39F40A2661F0232B242B252B21F4C6
:104AA00008950A2609F4A140A6958FEF811D811D66
:104AB000089597F99F6780E870E060E008959FEFA0
:104AC00080EC0895DF93CF931F930F93FF92EF92A3
:104AD000DF927B018C01689406C0DA2EEF010E9400
:104AE0003026FE01E894A591259135914591559187
:104AF000A6F3EF010E94A223FE019701A801DA9418
:104B000069F7DF90EF90FF900F911F91CF91DF91A8
:104B1000089500240A941616170618060906089523
:104B200000240A94121613061406050608950C9420
:104B30005F250E94EF25D8F3E894E0E0BB279F575C
:104B4000F0F02AED3FE049EC06C0EE0FBB0F661F08
:104B5000771F881F28F0B23A62077307840728F08E
:104B6000B25A620B730B840BE3959A9572F78038F7
:104B700030F49A95BB0F661F771F881FD2F79048B5
:104B80000C94E326092E0394000C11F4882352F0B0
:104B9000BB0F40F4BF2B11F460FF04C06F5F7F4F69
:104BA0008F4F9F4F0895EF93E0FF07C0A2EA2AEDD1
:104BB0003FE049EC5FEB0E94A2230E94C2250F90C8
:104BC000039401FC9058E9E3F1E00C94F62657FDBC
:104BD0009058440F551F59F05F3F71F04795880F6B
:104BE00097FB991F61F09F3F79F087950895121602
:104BF00013061406551FF2CF4695F1DF08C01616AE
:104C000017061806991FF1CF86957105610508945E
:104C10000895E894BB2766277727CB0197F9089575
:104C20000E94352508F48FEF08959B01AC0160E0E8
:104C300070E080E89FE30C9430240E9430260C94AE
:104C4000C2250E94892538F00E94902520F09523E6
:104C500011F00C9459250C945F2511240C940A260C
:104C60000E94E72570F3959FC1F3950F50E0551F03
:104C7000629FF001729FBB27F00DB11D639FAA27B1
:104C8000F00DB11DAA1F649F6627B00DA11D661F00
:104C9000829F2227B00DA11D621F739FB00DA11D21
:104CA000621F839FA00D611D221F749F3327A00DDB
:104CB000611D231F849F600D211D822F762F6A2F77
:104CC00011249F5750409AF0F1F088234AF0EE0FDC
:104CD000FF1FBB1F661F771F881F91505040A9F709
:104CE0009E3F510580F00C9459250C940A265F3F95
:104CF000E4F3983ED4F3869577956795B795F79545
:104D0000E7959F5FC1F7FE2B880F911D96958795BC
:104D100097F908959F930E9499250F9007FCEE5FE5
:104D20000C94D32519F416F40C945F250C94E12609
:104D30000E94EF25B8F39923C9F3B6F39F57550B9B
:104D400087FF0E94EF260024A0E640EA90018058E9
:104D50005695979528F4805C660F771F881F20F082
:104D600026173707480730F4621B730B840B202982
:104D700031294A2BA69517940794202531254A27D7
:104D800058F7660F771F881F20F026173707480748
:104D900030F4620B730B840B200D311D411DA09567
:104DA00081F7B901842F9158880F969587950895BA
:104DB0009B01AC010C941D260E943525880B990B94
:104DC00008959F3F31F0915020F48795779567952E
:104DD000B795880F911D9695879597F908959150ED
:104DE0005040660F771F881FD2F708959F938F93C7
:104DF0007F936F93FF93EF939B01AC010E941D265D
:104E0000EF91FF910E9462252F913F914F915F9109
:104E10000C941D26EF920F931F93CF93DF93E8011D
:104E200034E047FD34E1042E000C550B57FF03C05E
:104E3000519541955109E32E022F242FAE010E9476
:104E40006E29CE01DF91CF911F910F91EF900895C0
:104E50000F931F93CF93DF938230910510F482E07C
:104E600090E0E091E10EF091E20E30E020E0B0E061
:104E7000A0E0309799F42115310509F44AC0281BA8
:104E8000390B24303105D8F58A819B816115710574
:104E900089F1FB0193838283FE0111C0408151811E
:104EA0000281138148175907E0F04817590799F410
:104EB000109761F012960C93129713961C933296EA
:104EC000CF01DF91CF911F910F9108950093E10ED3
:104ED0001093E20EF4CF2115310551F0421753071C
:104EE00038F0A901DB019A01BD01DF01F801C1CF52
:104EF000EF01F9CF9093E20E8093E10ECDCFFE014A
:104F0000E20FF31F81939193225031093983288353
:104F1000D7CF2091DF0E3091E00E232B41F420916A
:104F20000202309103023093E00E2093DF0E2091B5
:104F30000002309101022115310541F42DB73EB731
:104F40004091040250910502241B350BE091DF0EC5
:104F5000F091E00EE217F307A0F42E1B3F0B281789
:104F6000390778F0AC014E5F5F4F2417350748F0E2
:104F70004E0F5F1F5093E00E4093DF0E819391938D
:104F80009FCFF0E0E0E09CCFCF93DF930097E9F074
:104F9000FC01329713821282A091E10EB091E20ED1
:104FA000ED0130E020E01097A1F420813181820FE3
:104FB000931F2091DF0E3091E00E2817390709F07A
:104FC00061C0F093E00EE093DF0EDF91CF91089582
:104FD000EA01CE17DF07E8F54A815B819E014115A2
:104FE0005105B1F7E901FB83EA8349915991C40F57
:104FF000D51FEC17FD0761F4808191810296840F23
:10500000951FE90199838883828193819B838A8399
:10501000F0E0E0E012968D919C9113970097B9F51E
:105020002D913C911197CD010296820F931F2091F3
:10503000DF0E3091E00E2817390739F6309751F519
:105040001092E20E1092E10EB093E00EA093DF0EEC
:10505000BCCFD383C28340815181840F951FC81771
:10506000D90761F44E5F5F4F88819981480F591FBE
:10507000518340838A819B819383828321153105EB
:1050800009F0B0CFF093E20EE093E10E9ECFFD0168
:10509000DC01C0CF13821282D7CF4F925F926F9202
:1050A0007F928F929F92AF92BF92CF92DF92EF92B8
:1050B000FF920F931F93CF93DF938C01009799F486
:1050C000CB01DF91CF911F910F91FF90EF90DF9077
:1050D000CF90BF90AF909F908F907F906F905F9098
:1050E0004F900C942827FC01E60FF71F9C012250DB
:1050F0003109E217F30708F4AEC0D901CD91DC9174
:105100001197C617D70720F1C530D10578F0CE0129
:1051100004978617970750F0C61BD70B2297C193A9
:10512000D1936D937C93CF010E94C427C801DF9176
:10513000CF911F910F91FF90EF90DF90CF90BF9094
:10514000AF909F908F907F906F905F904F90089559
:105150005B01AC1ABD0A4C018C0E9D1EA091E10EA4
:10516000B091E20E512C412CF12CE12C109731F52D
:105170008091DF0E9091E00E8815990509F05CC0D2
:105180004616570608F058C080910002909101021F
:10519000009741F48DB79EB74091040250910502EB
:1051A000841B950BE817F90708F055C0F093E00E43
:1051B000E093DF0EF90171836083B8CF8D919C91EC
:1051C000119712966C90129713967C901397A815CE
:1051D000B90559F56C0142E0C40ED11CCA14DB04B8
:1051E00020F1AC014A195B09DA011296159780F09B
:1051F0006282738251834083D9016D937C93E11461
:10520000F10471F0D7011396FC93EE9312978ECFB1
:1052100022968C0F9D1FF90191838083F301EFCFBC
:10522000F093E20EE093E10E81CF4816590608F4A0
:105230002C017D01D3019ACFCB010E9428277C014C
:10524000009749F0AE01B8010E942E29C8010E94C2
:10525000C42787016BCF10E000E068CFFB01DC01C1
:1052600002C001900D9241505040D8F70895FB01C3
:10527000DC0101900D920020E1F7089545325105BF
:1052800020F4423010F00C944929FB011082CB012C
:105290000895BB274A3031F4992322F4BDE290955A
:1052A00081959F4F0C945529BB27FB015527AA27B1
:1052B000880F991FAA1FA41710F0A41B83955051A3
:1052C000B9F7A05DAA3308F0A95DA193009779F71B
:1052D000B111B1931192CB010C94BF2B8F929F927D
:1052E000AF92BF92CF92DF92EF92FF920F931F93F4
:1052F000CF93DF9300D000D000D0CDB7DEB76A01E6
:10530000F22EB02E102FFBE3AF2EA01608F41BE3F5
:105310001F5F012F27E0AE014F5F5F4F0E94E72A1A
:10532000BC018981982F9970913009F44EC09BE29D
:10533000E1FC04C09E2D9170E0FC49C05E2D5071CF
:10534000E82FE87083FF55C084E0911101C083E02D
:10535000EF2DE81B8F1508F0E0E0D6018E2F20E23C
:105360005523C9F1992329F0D6019C93C6010196D2
:105370006C0196012D5F3F4FE2FE33C08EE4D601F3
:105380008C9391E411969C93119712968C93D9016A
:105390008E2F90E281112AC0E20FF32FF11D1082AF
:1053A0008EEF9FEF29960FB6F894DEBF0FBECDBFEC
:1053B000DF91CF911F910F91FF90EF90DF90CF90F1
:1053C000BF90AF909F908F9008959DE2B7CF90E2ED
:1053D000B5CF2D9381508111FCCFCE0ED11CE0E0D2
:1053E000C1CF8EE6D6018C9391E6CCCF9D938150B0
:1053F000D1CF482F447082FF3DC084E0911101C09D
:1054000083E08F1510F4EF2DE81BD6018E2F20E2DC
:10541000552309F1992329F0D6019C93C6010196E1
:105420006C0196012D5F3F4FE2FE1BC089E4D6015F
:105430008C938EE411968C93119786E412968C933C
:10544000D9018E2F90E2882309F4A6CF9D93815035
:10545000FACF2D9381508111FCCFCE0ED11CE0E00C
:10546000D9CF89E6D6018C938EE611968C9311974D
:1054700086E6E4CF9B0177FF02C030E020E0A1E0A8
:10548000B0E0911102C0B0E0A0E0F9013196AE0F9A
:10549000BF1F8B2C912CBB2009F461C05401EFEF8E
:1054A000AE1ABE0AAA0DBB1DFA161B0619F014F09F
:1054B0004F2D4A1B511188C0E3FC59C07601A42F1F
:1054C000B0E2A1114FC0C40ED11C992309F45BC0F6
:1054D00040E0D6011196F60190836D01552309F441
:1054E00048C0012F060F9A81582F507184FF03C0C6
:1054F000913309F4015010160CF047C0093008F040
:1055000008E0EEE2FE2E5B01A01AB108850191943D
:10551000819491082F3F320729F4D601FC92F601BD
:1055200031966F016217730794F1021713077CF528
:10553000DB01A21BB30BAA24A394B12CAC0EBD1E9D
:10554000AA0DBB1D11968C9121503109D6011196DF
:1055500028153905F4F0F60180836D01DBCFB12CFD
:10556000A12CA0CFF701B1937F01A150AACF911137
:10557000B0CFD601942F50E302C05D9391509111AA
:10558000FCCFC40ED11C40E0ACCF01E0BACF80E329
:10559000DBCF6217730731F4963388F4953311F437
:1055A000552369F0F6018083FD01842F90E281117B
:1055B00008C0A40FB11D1C9290E080E0F3CE81E3FF
:1055C000F1CF91938150F3CF911183CF8ACF2830BF
:1055D00008F027E03327DA01990F311D87FD91602C
:1055E00000966105710539F432602E5F3D9330E31A
:1055F0002A95E1F708959F3F30F0803871056105E5
:1056000009F03C5F3C5F3D93913008F08068911D4C
:10561000DF93CF931F930F93FF92EF92192F987FF1
:105620009695E92F96959695E90FFF27E654FD4F3D
:1056300099273327EE24FF24A701E701059008945A
:10564000079428F4360FE71EF81E491F511D660FF8
:10565000771F881F991F0694A1F70590079428F4D7
:10566000E70EF81E491F561FC11D770F881F991F8F
:10567000661F0694A1F70590079428F4F80E491FB9
:10568000561FC71FD11D880F991F661F771F0694CD
:10569000A1F70590079420F4490F561FC71FD81F84
:1056A000990F661F771F881F0694A9F7849110959C
:1056B000177041F0D695C79557954795F794E7949D
:1056C0001A95C1F7E0E6F2E06894159015913591CE
:1056D0006591959105907FE27395E118F10A430B6E
:1056E000560BC90BD009C0F7E10CF11E431F561F22
:1056F000C91FD01D7EF4703311F48A95E6CFE8946B
:10570000015030F0080F0AF40027021708F4202F88
:105710002395022F7A3328F079E37D932A95E9F7D0
:1057200010C07D932A9589F60694979567953795CD
:1057300017951794E118F10A430B560BC90BD009C2
:1057400098F023957E9173957A3308F070E37C93FB
:105750002013B8F77E9170617D9330F0839571E3EB
:105760007D9370E32A95E1F71124EF90FF900F915C
:105770001F91CF91DF91992787FD90950895DC01C6
:10578000FC01672F71917723E1F7329704C07C9178
:105790006D9370836291AE17BF07C8F3089512E04E
:1057A000C3E3D2E000E006C0802FFE010E945D232B
:1057B0002196011DC433D10780E00807A9F7F894AA
:0257C000FFCF19
:1057C2000000E30E8000FFFF0000803F000048421F
:1057D20000002041000020410000F041FFFFCEFF09
:1057E20000006143000007434D1D4D1D4D1D4D1D21
:1057F2004D1D4D1D4D1D4D1D44726F766520666F0A
:1058020072776172642120202020202044726F76FA
:105812006520446973743A2000233D3D3D3D3D3D82
:105822003D3D3D3D3D3D3D3D3D3D3D3D3D3D3D3DA6
:105832003D3D3D3D3D3D3D3D3D3D3D3D3D3D3D3D96
:105842003D3D3D3D3D3D3D3D005475726E656420DC
:105852006F6E20506F696E7421202020202020540A
:1058620075726E656420416E676C653A2000233D57
:105872003D3D3D3D3D3D3D3D3D3D3D3D204472690B
:10588200766520436F6E74726F6C20506F696E7410
:1058920073203D3D3D3D3D3D3D3D3D3D3D3D005344
:1058A20063686E69747470756E6B742020732E78E1
:1058B2003A20002020732E793A20004D69747465D5
:1058C20020547565722020642E783A2000202064CE
:1058D2002E793A20005261646975733A2000576943
:1058E2006E6B656C205068693A2000233D3D3D3D5A
:1058F2003D3D3D20436F72726563746564446F6F12
:105902007220506F696E7473203D3D3D3D3D3D3DBB
:105912003D002020793A20002020646973743A20E7
:10592200002020616E676C653A2000233D3D3D3DBD
:105932003D3D3D3D3D3D3D3D3D204D6964646C65D1
:1059420020446F6F72203D3D3D3D3D3D3D3D3D3D1F
:105952003D3D0044697374616E7A3A2000233D3DF7
:105962003D3D3D3D3D3D3D3D3D3D3D204F726965E7
:105972006E746174696F6E20506F696E74203D3D64
:105982003D3D3D3D3D3D3D3D3D3D0057696E6B65B5
:105992006C20506869323A2000233D3D3D3D3D3D3B
:1059A2003D3D3D3D204564676520506F696E7473CF
:1059B200203D3D3D3D3D3D3D3D3D3D3D00446F6F04
:1059C2007220666F756E642100233D3D3D3D3D3D75
:1059D2003D3D3D3D20446F6F7220506F696E747380
:1059E200203D3D3D3D3D3D3D3D3D3D3D00446F6FD4
:1059F20072496E6465783A20200043414E20577206
:105A0200697465202D2054657374696E6720747201
:105A1200616E736D697373696F6E206F66204341A7
:105A22004E20427573206D65737361676573004321
:105A3200414E20496E6974206F6B0043616E27747A
:105A420020696E69742043414E004C494441522DF5
:105A52005363616E004572726F722C2052657365DA
:105A6200742053797374656D00446F6F7220706196
:105A7200737365642C205265736574205379737453
:105A8200656D000000000010190F1B8A18F0185CE9
:105A920018761868180D0A006E616E00696E66004D
:045AA2006F766600B5
:00000001FF
