:100000000C94F7010C9400170C942B170C945617B2
:100010000C9481170C94AC170C94D7170C940218FD
:100020000C942D180C9428020C9428020C9428028D
:100030000C9428020C9428020C9428020C94280298
:100040000C9428020C9428020C9428020C94280288
:100050000C9428020C9428020C9428020C948E19FB
:100060000C9428020C9419130C944F130C9428022E
:100070000C9428020C9428020C9428020C94280258
:100080000C9428020C9428020C9428020C94280248
:100090000C9428020C9428020C9428020C94280238
:1000A0000C9428020C9428020C9428020C94280228
:1000B0000C9428020C9428020C9428020C94280218
:1000C0000C9428020C9428020C9428020C94280208
:1000D0000C9428020C9428020C94B0130C94E61390
:1000E0000C94280205A84CCDB2D44EB93836A902DA
:1000F0000C50B9918688083CA6AAAA2ABE00000026
:10010000803F0C94DA1B0C942B1B0C94071B0C9453
:1001100028120C9483130C94B81B0C94E0090C94D3
:10012000E41A0C944E1B0C94F3160C94A0110C942E
:10013000A4160C94A31B0C94C61B0C9494110C9441
:10014000DA160C94351B0C94AB1B0C94211B0C94ED
:10015000D91B0C94BE1B0C940F1B0C94DC1A0C9432
:1001600085160C94F31A0C94171B0C94761B0C94A4
:10017000AE110C94D01B0C949D090C94C5160C94D4
:100180009F1B0C94621B0C9448120C94E6160C9462
:10019000CC1B0C94DE1B0C942A020C94FD1A0C94BC
:1001A000B41B0C94C21B0C946C1B0C94A71B0C94DA
:1001B000E91A0C94581B0C9479130C94B8160C94EF
:1001C000AE1B0C94441B0C94C2110C94D41B0C94C5
:1001D00047140C9410140C941A140C94D1110C9410
:1001E000991B0C94AC1600407A10F35A00A0724E82
:1001F00018090010A5D4E80000E87648170000E4CC
:100200000B54020000CA9A3B000000E1F505000013
:1002100080969800000040420F000000A086010078
:100220000000102700000000E80300000000640048
:10023000000000000A0000000000010000000000B3
:100240002C76D888DC674F0823DFC1DFAE59E1B1D7
:10025000B796E5E3E453C63AE651997696E8E6C2E6
:100260008426EB898C9B62ED407C6FFCEFBC9C9FED
:1002700040F2BAA56FA5F490055A2AF75C936B6C0F
:10028000F9676DC11BFCE0E40D47FEF520E6B50003
:10029000D0ED902E0300943577050080841E080071
:1002A00000204E0A000000C80C333333330F986E21
:1002B00012831141EF8D2114893BE65516CFFEE6DE
:1002C000DB18D1844B381BF77C1D901DA4BBE424A4
:1002D000203284725E228100C9F124ECA1E53D2721
:1002E00000000A0B02090C0D0E08070304010000B0
:1002F00000000000000000000000000000000000FE
:1003000000000000000000000000000012111000BA
:1003100000000000000000000000000000000000DD
:1003200000000000000001021020200808102040FA
:1003300010204080020102010804020101020408A9
:100340001020408080402010080402018004020137
:100350008040201008040201080402010102040880
:10036000102040800102040810204080050505058A
:10037000070508080808020202020A0A080804041D
:10038000040401010101010101010303030303034B
:100390000303040707070C0C0C0C0C0C0C0C0202DA
:1003A000020206060606060606060B0B0B0B0B0BD7
:1003B0000B0B00002200250028002B002E0031002E
:1003C000340002010000050108010B0100002100BA
:1003D000240027002A002D00300033000101000016
:1003E000040107010A019D0983131A14E00911246D
:1003F0001FBECFEFD1E2DEBFCDBF00E00CBF14E0E7
:10040000A0E0B2E0E6EBF8E400E00BBF02C007902A
:100410000D92A432B107D9F72DE0A4E2B4E001C0F7
:100420001D92AB3CB207E1F711E0C6EFD1E000E06E
:1004300006C021970109802FFE010E94831CC33F43
:10044000D10780E00807A9F70E947F190C9449247E
:100450000C9400008091140290911502019629F4E9
:10046000109215021092140208958FEF9FEF90934F
:1004700015028093140208956F927F928F929F923B
:10048000AF92BF92CF92DF92EF92FF920F931F93A2
:10049000CF93DF9300D000D000D01F921F92CDB732
:1004A000DEB7E982FA820B831C832D833E834F8360
:1004B000588769877A878B87CE0101960E94290D1C
:1004C000882309F4ABC089819A818F3F974009F056
:1004D000A5C078846984BA84AB840E94D8196B0162
:1004E0007093250460932404009106021091070282
:1004F0000F3F100709F48CC06A2D70E0762F662735
:100500006B0D711D072E000C880B990B0E94C01DEE
:1005100027ED33EA4AEA51E40E94161D2BED3FE035
:1005200049EC50E40E94DB1E20E030E040E752E45A
:100530000E94161D27ED33EA40E35EE30E94DB1EB6
:100540004B015C01662D70E0762F6627670D711DEB
:10055000072E000C880B990B0E94C01D27ED33EA73
:100560004AEA51E40E94161D2BED3FE049EC50E4AD
:100570000E94DB1E20E030E040E752E40E94161D9E
:1005800027ED33EA40E35EE30E94DB1E9B01AC01F2
:10059000C501B4010E949F1C28EB3EE145E05FE3EA
:1005A0000E94161D4B015C01C01AD10AB601DD0C78
:1005B000880B990B0E94C01D9B01AC01C501B401C1
:1005C0000E94DB1E20E030E04AE754E40E94161D42
:1005D00020E030E044E353E40E94DB1E2BED3FE0DB
:1005E00049E450E40E94161D9B01AC0160916E0429
:1005F00070916F0480917004909171040E94A01C0E
:1006000060936E0470936F048093700490937104F0
:100610000E94D81970930702609306022B960FB6BA
:10062000F894DEBF0FBECDBFDF91CF911F910F9128
:10063000FF90EF90DF90CF90BF90AF909F908F9002
:100640007F906F900895AF92BF92CF92DF92EF921A
:10065000FF920F931F93CF93DF9300D000D000D071
:100660001F921F92CDB7DEB7588769877A878B872D
:100670008EE390E09A838983007E00610B83CC82B5
:10068000DD82AE82BF8240E060EE8FE00E94B80C57
:10069000CE0101960E948D0D6AE070E080E090E04E
:1006A0000E94091A2B960FB6F894DEBF0FBECDBF7D
:1006B000DF91CF911F910F91FF90EF90DF90CF903E
:1006C000BF90AF9008954F925F926F927F92AF92DA
:1006D000BF92CF92DF92EF92FF920F931F93CF932F
:1006E000DF93CDB7DEB76D970FB6F894DEBF0FBEC0
:1006F000CDBF2B013C01E980FA800B811C812D814B
:100700003E814F81588569857A858B850E943C02A0
:1007100040926A0450926B0460926C0470926D0473
:1007200080916E0490916F04A0917004B091710457
:100730008093660490936704A0936804B09369045F
:1007400086E294E00E94F20D40916E0450916F0495
:10075000609170047091710422E0CE010C960E94A9
:10076000F5184091620450916304609164047091A3
:10077000650422E0CE0148960E94F51860E372E01D
:10078000CE0142960E94C718BE01685E7F4FCE011F
:1007900042960E94511961E572E00E946419BE01FF
:1007A000645F7F4F0E945119BC0184E89CE00E9465
:1007B000A414CE0142960E945818CE0148960E9479
:1007C0005818CE010C960E945818609162047091DE
:1007D0006304809164049091650490580E94881D80
:1007E0005B01D12CC12CE980FA800B811C812D8109
:1007F0003E814F81588569857A858B850E942303C8
:1008000020E030E0A901C301B2010E94D61E1816F3
:1008100024F077FA709477F87094C0906E04D090BA
:100820006F04E0907004F090710420E030E0A901C2
:10083000C701B6010E94D61EA701960118160CF03A
:100840005058C301B2010E949F1C2B013C012DECAA
:100850003CEC4CE45DE30E940C1D87FF37C02DEC9F
:100860003CEC4CE45DEBC301B2010E94D61E1816AD
:100870006CF585E090E0909315028093140222E0DD
:10088000B701A601CE0142960E94F5186DE372E011
:10089000CE010C960E94C718BE016E5E7F4FCE013E
:1008A0000C960E945119BC0184E89CE00E94A4149B
:1008B000CE010C960E945818CE0142960E945818FC
:1008C00062E672E084E89CE00E94B6146D960FB672
:1008D000F894DEBF0FBECDBFDF91CF911F910F9176
:1008E000FF90EF90DF90CF90BF90AF907F906F9090
:1008F0005F904F900895CF93DF93C0917C04D09187
:100900007D0480918A0490918B04C80FD91FD7FD74
:100910002196D595C79560917A0470917B0480915A
:10092000880490918904680F791F77FF02C06F5F78
:100930007F4F75956795645B7109072E000C880BD6
:10094000990B0E94C01D609372047093730480938E
:1009500074049093750462E972E084E89CE00E945C
:10096000B61462E073E084E89CE00E949114409128
:10097000720450917304609174047091750422E0C4
:1009800030E084E89CE00E9473166FE073E084E836
:100990009CE00E9491144AE050E0BE0184E89CE093
:1009A0000E94681562E672E084E89CE00E94B6143A
:1009B00082E090E09093150280931402DF91CF9132
:1009C00008952F923F924F925F926F927F928F92F3
:1009D0009F92AF92BF92CF92DF92EF92FF920F93CE
:1009E0001F93CF93DF93CDB7DEB760970FB6F89420
:1009F000DEBF0FBECDBF8C012AE837E03A832983E2
:100A00003EE0F32EE981FA8160897189072E000C9E
:100A1000880B990B0E94C01D9B01AC010E94A01C79
:100A20004B015C01E981FA8162817381072E000C20
:100A3000880B990B0E94C01D9B01AC01C501B4013C
:100A40000E949F1C4B015C01E981FA81668D778DC4
:100A5000072E000C880B990B0E94C01D9B01AC0156
:100A6000C501B4010E949F1C0E94881D6017710778
:100A7000E4F4E981FA81828993890B97B4F080913B
:100A8000780490917904F89ED001F99EB00D11245C
:100A9000A253BB4F3E962F2D01900D922A95E1F760
:100AA0000196909379048093780469817A81625FDA
:100AB0007F4F7A83698368567C4009F0A3CF809189
:100AC000760C882309F446C069E173E084E89CE071
:100AD0000E94B6142EEC34E03A83298310E000E043
:100AE0008091780490917904081719079CF5E981A1
:100AF000FA81608171814AE050E084E89CE00E94C4
:100B000061156BE372E084E89CE00E949114E98136
:100B1000FA81628173814AE050E084E89CE00E949F
:100B200061156BE372E084E89CE00E949114E98116
:100B3000FA81648175814AE050E084E89CE00E947B
:100B400068150F5F1F4F29813A81225F3F4F3A831B
:100B50002983C6CF6EEC74E0788B6F8710E000E0DD
:100B60008091780490917904081719070CF453C008
:100B7000C0907604D09077048AE794E09A838983C2
:100B80008C01F12CE12CEC14FD040CF055C1F801A2
:100B900062817381072E000C880B990B0E94C01D87
:100BA0004B015C01F80160817181072E000C880BFC
:100BB000990B0E94C01D2BED3FE049E450E40E94D8
:100BC000DB1E20E030E044E353E40E94161D2B01BD
:100BD0003C010E94111D9B01AC01C501B4010E94A2
:100BE000DB1EF8016683778380879187C301B2019A
:100BF0000E94481F9B01AC01C501B4010E94DB1E8D
:100C0000F8016287738784879587FFEFEF1AFF0AE1
:100C1000025F1F4FB8CF0F5F1F4F2F8438881A8392
:100C200009838091780490917904E981FA81E81729
:100C3000F9073CF02F853889225F3F4F388B2F878B
:100C40008FCFEF85F8890190F081E02DFC83EB8355
:100C5000F1010684F785E02DFE83ED836B817C81B5
:100C60006E1B7F0B072E000C880B990B0E94C01D7A
:100C70002BED3FE049E450E40E94DB1E20E030E031
:100C800044E353E40E94161D0E94111D6B877C876C
:100C90008D879E87EF85F8890280F381E02DF887A4
:100CA000EF83CF016AE070E00E944D1C072E000C1C
:100CB000880B990B0E94C01D6B017C01F10100881B
:100CC000F189E02DFA87E987CF016AE070E00E94A0
:100CD0004D1C072E000C880B990B0E94C01D4B0168
:100CE0005C01A7019601C701B6010E94DB1E2B0122
:100CF0003C01A5019401C501B4010E94DB1E9B01CA
:100D0000AC01C301B2010E94A01C2B013C01A70150
:100D10009601C701B6010E94A01CA50194010E9482
:100D2000DB1E2B853C854D855E850E94DB1E9B016D
:100D3000AC01C301B2010E949F1C0E94561F20E01B
:100D400030E040E251E40E94DB1E6B017C0120E0B8
:100D500030E040E752E40E94D61E18160CF062C044
:100D600020E030E042ED52E4C701B6010E940C1DC4
:100D700087FF58C08F81988529853A85820F931FF8
:100D800097FD0196959587958C599F4FEAE8F7E076
:100D900041E0208131816B817C81621773075CF4B3
:100DA0006D817E812617370734F42281338128171D
:100DB00039070CF440E03E967CE0E637F70749F748
:100DC000442381F18091760490917704EEE0E89FCE
:100DD000D001E99FB00D1124A658BB4FEF85F889CB
:100DE0002EE001900D922A95E1F79C012F5F3F4F75
:100DF000FEE0F29FD001F39FB00D1124A658BB4F27
:100E0000F1013E962EE001900D922A95E1F70296AF
:100E100090937704809376046DE373E084E89CE01C
:100E20000E94B61429813A812F5F3F4F3A8329836C
:100E30003EE0230E311CF5CE69E473E084E89CE0CB
:100E40000E94B61410E000E080917604909177043F
:100E5000081719070CF05BC08091760C882351F1BC
:100E6000E981FA81608171814AE050E084E89CE088
:100E70000E9461156BE372E084E89CE00E9491148B
:100E8000E981FA81628173814AE050E084E89CE064
:100E90000E9461156BE372E084E89CE00E9491146B
:100EA000E981FA81648175814AE050E084E89CE040
:100EB0000E9468156DE673E084E89CE00E9491143E
:100EC000E981FA81468157816085718522E030E0B1
:100ED00084E89CE00E94711663E773E084E89CE07C
:100EE0000E949114E981FA81428553856485758554
:100EF00022E030E084E89CE00E9473160F5F1F4FF1
:100F000029813A81225F3F4F3A8329839DCF8230E6
:100F10009105F9F481E090E090931502809314021A
:100F200060960FB6F894DEBF0FBECDBFDF91CF91B4
:100F30001F910F91FF90EF90DF90CF90BF90AF90F7
:100F40009F908F907F906F905F904F903F902F90E9
:100F50000895009711F003971CF384E090E0DCCF34
:100F60004F925F926F927F928F929F92AF92BF92B9
:100F7000CF92DF92EF92FF920F931F93CF93DF9365
:100F8000CDB7DEB764970FB6F894DEBF0FBECDBF06
:100F900090E9E92EFF24F3942EE0C22E44EF51E0B5
:100FA00060E070E087E79CE00E94220A97FDBAC0EB
:100FB0008090790C90907A0CA0907B0CB0907C0C77
:100FC00040907D0C50907E0C60907F0C7090800C57
:100FD00020E030E0A901C501B4010E940C1D1816E3
:100FE0003CF0812C80EC982E8AEDA82E85E4B82E5A
:100FF000A3019201609118027091190280911A0266
:1010000090911B020E94D61E87FD32C0A30192015F
:1010100060911C0270911D0280911E0290911F022E
:101020000E940C1D181624F1D090810CC301B2014E
:101030000E94881D9B0127583109C29E8001C39ED2
:10104000100D11240657184FF8017183608320E0BA
:1010500030E040E251E4C501B4010E94161D0E9437
:10106000881DF801738362838D2D90E095838483BE
:10107000F1E0EF1AF10809F091CF8091760C882306
:1010800079F10AE817E0F801608171814AE050E0E7
:1010900084E89CE00E9461156BE372E084E89CE0C8
:1010A0000E949114F801628173814AE050E084E863
:1010B0009CE00E9461156BE372E084E89CE00E9472
:1010C0009114F801648175814AE050E084E89CE065
:1010D0000E946815025F1F4FFCE006371F0799F654
:1010E00070E060E083E00E94A41A80911602909163
:1010F00017020E94E10464960FB6F894DEBF0FBE9B
:10110000CDBFDF91CF911F910F91FF90EF90DF90B6
:10111000CF90BF90AF909F908F907F906F905F9097
:101120004F90089570E060E083E00E94A41A24E6E6
:1011300030E040E050E0BE016F5F7F4F87E79CE00A
:101140000E94A90B97FD94CF28EE33E040E050E0D9
:1011500060E087E79CE00E94380C6FEF70E083E06E
:101160000E94A41A68EE73E080E090E00E94091AE1
:101170007FCF8EE0E6E7FCE0DF01982F1D929A9585
:10118000E9F7EAE8F7E0DF01982F1D929A95E9F771
:10119000EEECF4E0DF011D928A95E9F710927904F4
:1011A0001092780410927704109276048FEF9FEFDC
:1011B00090931502809314020895CF92DF92EF92DC
:1011C000FF920F931F9361E27DE087E79CE00E940E
:1011D000020A26E040E052EC61E070E084E89CE026
:1011E0000E94951261E083E00E94E21B61E086E1CB
:1011F0000E94E21B62E082E00E94E21B43E050E0BA
:101200006AE272E080E00E94861661E086E10E9458
:101210001E1C6AE070E080E090E00E94091A69E715
:1012200073E084E89CE00E94B61468EE73E080E00E
:1012300090E00E94091A63E083E89CE00E94EF0DB1
:101240006EEA73E0811102C06AEB73E084E89CE00F
:101250000E94B61468EE73E080E090E00E94091AE4
:1012600061E070E086E294E00E949C10C090080269
:10127000D0900902E0900A02F0900B0200910C025B
:1012800010910D0220910E0230910F024091100238
:1012900050911102609112027091130286E294E063
:1012A0000E943F101F910F91FF90EF90DF90CF9021
:1012B0000895809114029091150282309105E9F011
:1012C0002CF4009751F0019781F008958430910536
:1012D00051F1ECF0059779F1089569EC73E084E839
:1012E0009CE00E94B6140C94B00764ED73E084E8AF
:1012F0009CE00E94B6140C947B046091720470917F
:10130000730480917404909175040C94630364EEEB
:1013100073E084E89CE00E94B6148FEF9FEF9093F7
:101320001502809314026EEE73E084E89CE00E9444
:10133000B6140E94B9080C94B908AF92BF92CF922C
:10134000DF92EF92FF920F931F9387E79CE00E943A
:10135000E409A0900C02B0900D02C0900E02D09053
:101360000F02E0901002F090110200911202109111
:1013700013021F921F9280910B028F9380910A0299
:101380008F93809109028F93809108028F932AE6B0
:1013900034E042E654E066E674E086E294E00E94BF
:1013A00062110F900F900F900F900F900F901F9160
:1013B0000F91FF90EF90DF90CF90BF90AF90089586
:1013C00087E79CE00C94000AFC01118210821282D3
:1013D0001382148215821682178210861186128655
:1013E00013860895CF93DF93EC018881998100974C
:1013F00021F00E94F71219821882DF91CF9108958F
:101400000C94F2090F931F93CF93DF93EC018B01A0
:1014100088819981892B19F0CE010E94F2091983E4
:101420000883C8010E94F71226E040E052EC61E018
:1014300070E0888199810E949512DF91CF911F9170
:101440000F9108954F925F926F927F928F929F9229
:10145000AF92BF92EF92FF921F93CF93DF9300D092
:101460001F921F92CDB7DEB77C012A013B010E947B
:10147000D8194B015C0110E00E94D819681979094C
:101480008A099B09461657066806790608F472C051
:10149000D7018D919C91DC01ED91FC910284F38543
:1014A000E02D199597FDE8CF112309F457C01130AD
:1014B00009F45DC091E0910FE1E0F0E0EC0FFD1F59
:1014C000E10FF11D8083953009F046C06C817D816C
:1014D00090E080E00E94BE1D20E030E040E85EE346
:1014E0000E94DB1ED70112966D937D938D939C9382
:1014F00015976A817B817695679590E080E00E94E0
:10150000BE1D20E030E040E85CE30E94DB1EF701F6
:1015100066837783808791878981282F30E035958E
:1015200027953595279522878170838760E070E045
:10153000CB010F900F900F900F900F90DF91CF91F4
:101540001F91FF90EF90BF90AF909F908F907F90F2
:101550006F905F904F900895192F8ECF9C01359515
:101560002795FC01E2279F0120FDA4CF85CF80FDB8
:10157000A1CF81CF62E070E880E090E8DACFCF922F
:10158000DF92EF92FF920F931F93CF93DF9300D0E0
:1015900000D01F92CDB7DEB77C01162F5F834E833C
:1015A00069011D82232B21F0CA01892B09F01068E3
:1015B00005EA09831A83D7018D919C91DC01ED9195
:1015C000FC910280F381E02D42E050E0BE016F5FAC
:1015D0007F4F199517FF40C06D8160276C256127EB
:1015E0006D83EE81FF8196012E0F3F1FE217F307F7
:1015F00029F091918D8189278D83F8CFCC82F701D5
:1016000080819181DC01ED91FC910280F381E02DDC
:1016100041E050E0BE016C5F7F4F1995F70180817A
:1016200091814C8150E0DC01ED91FC910280F381CD
:10163000E02DBE016A5F7F4F1995F701808191818E
:10164000DC01ED91FC910280F381E02D41E050E05E
:10165000BE016B5F7F4F199560E070E0CB0127966C
:101660000FB6F894DEBF0FBECDBFDF91CF911F91B3
:101670000F91FF90EF90DF90CF900895FC012081B3
:101680003181232B39F030E020E050E040E065E28A
:101690000C94BF0A61E070E880E090E808957F92C2
:1016A0008F929F92AF92BF92CF92DF92EF92FF9272
:1016B0000F931F93CF93DF938C01EB0149015A01E4
:1016C0000E94D8196B017C01712C0E94D8196C19E9
:1016D0007D098E099F0986169706A806B906A0F10E
:1016E000D8018D919C91DC01ED91FC910284F385F0
:1016F000E02D199597FDE9CF7720F1F0B1E07B1649
:10170000F9F091E0970DFE01E70DF11D8083973010
:1017100089F460E070E0CB01DF91CF911F910F91D0
:10172000FF90EF90DF90CF90BF90AF909F908F9001
:101730007F900895792EC9CF853A910511F3C5CFD1
:101740008A359105F1F2C0CF62E070E880E090E860
:10175000E3CF4F925F926F927F928F929F92AF9260
:10176000BF92CF92DF92EF92FF920F931F93CF938E
:10177000DF9300D000D01F92CDB7DEB77C016B01A4
:1017800049015A010E94D8192B013C01D7018D91C2
:101790009C91892B09F45EC030E020E050E040E0ED
:1017A00060E5C7010E94BF0A97FD3DC0A5019401F5
:1017B000BE016F5F7F4FC7010E944F0B97FD33C083
:1017C0008F81843009F04BC08B819C81AD812E814B
:1017D000B22FBF734497A105B10508F440C086013C
:1017E000B4E1CB0ED11C0E94D81964197509860981
:1017F000970986169706A806B906A8F1F701808111
:101800009181DC01ED91FC910284F385E02D199525
:1018100097FDE9CFF80181938F01CE16DF0619F706
:1018200060E070E0CB0127960FB6F894DEBF0FBEE4
:10183000CDBFDF91CF911F910F91FF90EF90DF907F
:10184000CF90BF90AF909F908F907F906F905F9060
:101850004F90089561E070E880E090E8E4CF60E0A8
:1018600070E8CB01E0CF62E070E880E090E8DBCF89
:10187000BF92CF92DF92EF92FF920F931F93CF937D
:10188000DF9300D000D01F92CDB7DEB7DC01ED9121
:10189000FC91EF2B09F440C069017A01B62E8C014E
:1018A0000E943E0B60E2B11061E230E020E050E0C7
:1018B00040E0C8010E94BF0A97FD1AC0A701960127
:1018C000BE016F5F7F4FC8010E944F0B97FD10C094
:1018D0008F818138E9F48B819C81AD812E81B22F7B
:1018E000BF730597A105B10598F060E070E0CB01EA
:1018F00027960FB6F894DEBF0FBECDBFDF91CF9114
:101900001F910F91FF90EF90DF90CF90BF900895BF
:1019100060E070E8CB01ECCF61E070E880E090E837
:10192000E7CF8EBD0DB407FEFDCF8EB50895CF93E2
:10193000DF93D82FC62F289882E00E94910C8D2F1C
:101940000E94910C8C2F0E94910C289ADF91CF91CC
:101950000895CF93C82F289883E00E94910C8C2F74
:101960000E94910C8FEF0E94910C289ACF910895BC
:101970001F93CF93DF93182FD62FC42F289885E07D
:101980000E94910C812F0E94910C8D2F0E94910C2E
:101990008C2F0E94910C289ADF91CF911F9108956E
:1019A00028980E94910C8FEF0E94910C289A08951C
:1019B000CF93C82F289A209A29982A982B98219A51
:1019C000229A23986C98749A81E58CBD1DBC289846
:1019D00080EC0E94910C289A87EC90E00197F1F737
:1019E00000C00000289882E00E94910C88E20E94CA
:1019F000910C82E00E94910C80E90E94910C8C2F46
:101A00000E94910C83E00E94910C289A8AE20E9425
:101A1000A90C8C1741F08091020180628093020131
:101A200080E0CF91089560E08CE00E94970C60E028
:101A30008DE00E94970C60E680E60E94970C60E6BD
:101A400080E70E94970C60E08FE00E94970C81E095
:101A5000E8CFEF92FF920F931F93CF93DF938C0108
:101A600080EB0E94D00CC82F282F2074E22E86FD18
:101A700005C084E9C7FD03C080E040C080E9289824
:101A80000E94910C8FEF0E94910CE8E08E9FC001A4
:101A90001124F801918380838FEF0E94910C282FED
:101AA000229526952770F80180819181822B918360
:101AB00080838FEF0E94910C8FEF0E94910C8FEF2B
:101AC0000E94910C8F70F82E982F990FF801828147
:101AD000817E892BC3FB80F982830D5F1F4FD0E08D
:101AE000DF1113C0289A40E061E0E11001C062E01C
:101AF0008CE20E94B80C8C2F87708F5FDF91CF91A2
:101B00001F910F91FF90EF9008958FEF0E94910C1D
:101B1000F80181938F01DF5FE3CFFF920F931F9353
:101B2000CF93DF938C0180EA0E94D00C82FF07C024
:101B300084FF44C0C4E086FF03C0C0E038C0C0E0FA
:101B400028988C2F80640E94910CF80180819181EB
:101B500023E0969587952A95E1F70E94910CF8016C
:101B600080818295880F807E0E94910C80E00E9487
:101B7000910C80E00E94910CF8018281D82FD695BB
:101B8000DF7080FF1DC08D2F80640E94910C289A09
:101B900087EC90E00197F1F700C000002898C11190
:101BA00001C0C1E08C2F80680E94910C289A8C2F74
:101BB000DF91CF911F910F91FF900895C2E0C0CFA8
:101BC0008D2F0E94910C0D5F1F4FF12CFD16F9F225
:101BD000F80181918F010E94910CF394F7CF862F29
:101BE0000C94D80C2F923F924F925F926F927F92FB
:101BF0008F929F92AF92BF92CF92DF92EF92FF921D
:101C00000F931F93CF93DF93CDB7DEB760970FB6D7
:101C1000F894DEBF0FBECDBFDC01DA96BC91BD8368
:101C2000B1111BC01D828D8160960FB6F894DEBF86
:101C30000FBECDBFDF91CF911F910F91FF90EF901D
:101C4000DF90CF90BF90AF909F908F907F906F90DC
:101C50005F904F903F902F900895988B8F870E94B0
:101C6000D8196B877C878D879E87EF85F88982A13D
:101C700093A1A4A1B5A12B853C854D855E85281B2C
:101C8000390B4A0B5B0BDA01C90146A557A560A9C0
:101C900071A984179507A607B70720F2048CF58D64
:101CA000E02D80819181A281B38189839A83AB8366
:101CB000BC83AF85B8899096ED91FC9129813A81DA
:101CC0004B815C8160817181828193810E949F1C24
:101CD0004B015C01EF85F88922A533A544A555A5E4
:101CE00069817A818B819C810E949F1C6B017C01A0
:101CF000AF85B88950962D913D914D915C91539748
:101D0000C501B4010E94DB1EEF85F88926A137A129
:101D100040A551A50E94A01C2B013C01AF85B889AC
:101D200096964D925D926D927C929997DB96BC91BE
:101D3000BE83B11118C0EF85F889248535854685A5
:101D40005785C701B6010E94DB1E9B01AC01C30190
:101D5000B2010E949F1CAF85B88996966D937D93C2
:101D60008D939C939997EF85F88946A057A060A41E
:101D700071A416A907A930AC21AC212F302F432D17
:101D8000522DC301B2010E94D61E18160CF07FC05E
:101D9000812F902FA32DB22DEF85F88986A397A3CD
:101DA000A0A7B1A7BE81BB2309F490C0EF85F88935
:101DB0002485358546855785C501B4010E94DB1E03
:101DC0004B015C01AF85B88954962D913D914D91A1
:101DD0005C915797C701B6010E94DB1E9B01AC01C5
:101DE000EF85F88966A177A180A591A50E949F1C27
:101DF000A50194010E94A01C6B017C019B01AC0118
:101E0000612F702F832D922D0E940C1D87FD1BC00A
:101E1000AF85B889D2961C91D297D3960C91D3975F
:101E2000D4963C90D497D5962C909601A701612F1B
:101E3000702F832D922D0E94D61E181624F01C2D73
:101E40000D2D3E2C2F2CAF85B8895E96ED91FC911F
:101E5000812F902FA32DB22D80839183A283B383F2
:101E600029813A814B815C81AF85B8899A962D93FF
:101E70003D934D935C939D972B853C854D855E8569
:101E800092962D933D934D935C939597CCCEAF85D1
:101E9000B889D2962D913D914D915C91D5972F8324
:101EA000388749875A87C301B2010E940C1D87FFFA
:101EB00079CF2F81388549855A85AF85B88996961F
:101EC0002D933D934D935C9399976CCF812C912CDE
:101ED000540178CF4F925F926F927F928F929F9230
:101EE000AF92BF92CF92DF92EF92FF920F931F9328
:101EF000CF93DF9300D000D0CDB7DEB79E838D8324
:101F000049835A836B837C832801390120E030E0C8
:101F1000A90169817A818B819C810E940C1D87FDBA
:101F200097C020E030E0A901C301B8010E940C1D58
:101F300087FD8EC020E030E0A901C701B6010E94F4
:101F40000C1D87FD85C0AD81BE815B96BC92AE92B3
:101F50005A9781E0AA94AB2809F080E0ED81FE81D8
:101F600083AF89819A81AB81BC8180839183A28375
:101F7000B3834482558266827782C086D186E286A8
:101F8000F38666A577A580A991A90E94BE1D20E0D1
:101F900030E04AE754E40E94161D4B015C01898140
:101FA0009A81AB81BC81ED81FE8184879587A6876C
:101FB000B787A5019401C301B2010E94DB1E2B016A
:101FC0003C01AD81BE8150964D925D926D927C92A6
:101FD0005397A5019401C701B6010E94161D6B011C
:101FE0007C01ED81FE81C48AD58AE68AF78A808DDC
:101FF000918D019769F529813A814B815C8160E07F
:1020000070E0CB010E949F1CAD81BE811C966D9338
:102010007D938D939C931F97A301920160E070E0E4
:10202000CB010E949F1CED81FE81608B718B828BA6
:10203000938BA701960160E070E0CB010E949F1C8A
:10204000AD81BE8154966D937D938D939C935797EC
:1020500026960FB6F894DEBF0FBECDBFDF91CF91AD
:102060001F910F91FF90EF90DF90CF90BF90AF90B6
:102070009F908F907F906F905F904F900895AF9258
:10208000BF92CF92DF92EF92FF920F931F93FC01CA
:10209000A28CB38C0E946A0F1F910F91FF90EF905A
:1020A000DF90CF90BF90AF9008958F929F92AF92A4
:1020B000BF92CF92DF92EF92FF92CF93DF93EC012A
:1020C000EE8DFF8DC080D180E280F380CEA2DFA2B2
:1020D000E8A6F9A6EC8DFD8D80819181A281B38166
:1020E0008AA79BA7ACA7BDA78EA89FA8A8ACB9AC90
:1020F000A5019401C701B6010E94D61E18162CF442
:102100008EA29FA2A8A6B9A60CC08AA89BA8ACA81C
:10211000BDA8A5019401C701B6010E940C1D87FD51
:10212000EFCFDF91CF91FF90EF90DF90CF90BF90F6
:10213000AF909F908F9008951F93CF93DF93EC0102
:1021400011E06130710509F010E06130710531F482
:102150008AAD811103C0CE010E9455101AAFDF91E4
:10216000CF911F9108950F931F93CF93DF93EC01AD
:102170008B018AAD882361F1888D998D8617970729
:1021800039F12C853D854E855F8560E070E0CB019F
:102190000E949F1C6C877D878E879F87288939893D
:1021A0004A895B8960E070E0CB010E949F1C688BCC
:1021B000798B8A8B9B8B2C893D894E895F8960E066
:1021C00070E0CB010E949F1C6C8B7D8B8E8B9F8B54
:1021D000198F088FDF91CF911F910F9108954F9222
:1021E0005F926F927F928F929F92AF92BF92CF92A7
:1021F000DF92EF92FF920F931F93CF93DF9300D064
:102200001F92CDB7DEB74C0127013801A982BA82EF
:10221000CB82DC82FC01578F468F758F648F31A390
:1022200020A312AE80E090E0A0EAB2EC82AB93ABC8
:10223000A4ABB5AB80E090E0A0EAB2E486AB97AB8C
:10224000A0AFB1AF84E690E0A0E0B0E086A797A78A
:10225000A0ABB1AB6E8D7F8DC4010E94B310AC8C6E
:10226000BD8CC88CD98CEA8CFB8C09811A812B819E
:102270003C81B301A201C4010E946A0F0E94D819D7
:10228000F40146A457A460A871A8641975098609C9
:10229000970962A373A384A395A30F900F900F9047
:1022A0000F90DF91CF911F910F91FF90EF90DF90F2
:1022B000CF90BF90AF909F908F907F906F905F90E6
:1022C0004F9008958F929F92AF92BF92CF92DF92DC
:1022D000EF92FF920F931F93CF93DF93CDB7DEB7AB
:1022E000E889F989AA89BB899C888D888F929F92F9
:1022F0001F92992493949F92BF93AF93FF93EF9370
:102300000E94EF100FB6F894DEBF0FBECDBFDF9175
:10231000CF911F910F91FF90EF90DF90CF90BF90E2
:10232000AF909F908F900895FC01918D228D892F01
:1023300090E0805C9F4F821B91098F7399270895CD
:10234000FC01918D828D981731F0828DE80FF11D7F
:10235000858D90E008958FEF9FEF0895FC01918D9A
:10236000828D981761F0A28DAE0FBF2FB11D5D96C3
:102370008C91928D9F5F9F73928F90E008958FEF65
:102380009FEF0895FC01538D448D252F30E0842F5D
:1023900090E0821B930B541710F0CF96089501978D
:1023A000089589E793E1892B49F080E090E0892B3B
:1023B00029F00E94791381110E94000080E090E0D2
:1023C000892B49F080E090E0892B29F00E940000E1
:1023D00081110E94000080E090E0892B49F080E0AC
:1023E00090E0892B29F00E94000081110E940000DA
:1023F00080E194E1892B49F080E090E0892B29F07D
:102400000E94101481110C9400000895FC01A48D09
:10241000A80FB92FB11DA35ABF4F2C91848D90E006
:1024200001968F739927848FA689B7892C93A089E9
:10243000B1898C91837080648C93938D848D981373
:1024400006C00288F389E02D80818F7D8083089506
:10245000CF93DF93EC01888D8823B9F0AA89BB89DB
:10246000E889F9898C9185FD03C0808186FD0DC0C6
:102470000FB607FCF7CF8C9185FFF2CF808185FFE7
:10248000EDCFCE010E940612E9CFDF91CF910895E2
:10249000EF92FF920F931F93CF93DF93EC0181E0B4
:1024A000888F9B8D8C8D98131AC0E889F98980815B
:1024B00085FF15C09FB7F894EE89FF896083E8898E
:1024C000F98980818370806480839FBF81E090E080
:1024D000DF91CF911F910F91FF90EF900895F62E0D
:1024E0000B8D10E00F5F1F4F0F731127E02E8C8DA7
:1024F0008E110CC00FB607FCFACFE889F9898081EC
:1025000085FFF5CFCE010E940612F1CFEB8DEC0FC7
:10251000FD2FF11DE35AFF4FF0829FB7F8940B8F08
:10252000EA89FB8980818062CFCFCF92DF92EF92E0
:10253000FF921F93CF93DF93EC016A017B01122F6F
:10254000E889F98982E08083C11481EED806E1042C
:10255000F104A1F060E079E08DE390E0A70196013D
:102560000E94611C21503109410951095695479536
:1025700037952795211580E1380798F0E889F98982
:10258000108260E874E88EE190E0A70196010E9455
:10259000611C2150310941095109569547953795DC
:1025A0002795EC85FD853083EE85FF852083188E89
:1025B000EC89FD891083EA89FB89808180618083B1
:1025C000EA89FB89808188608083EA89FB89808130
:1025D00080688083EA89FB8980818F7D8083DF9199
:1025E000CF911F91FF90EF90DF90CF900895CF9300
:1025F000DF93EC01E881F9810680F781E02D1995E0
:10260000EA89FB8980818F7E8083EA89FB898081CA
:10261000877F8083EA89FB8980818F778083EA893D
:10262000FB8980818F7D80838A8D898FDF91CF9117
:1026300008951F920F920FB60F9211240BB60F92AE
:102640002F938F939F93EF93FF93E091940CF091CE
:10265000950C8081E0919A0CF0919B0C82FD1DC03D
:10266000908180919D0C8F5F8F7320919E0C8217BB
:1026700041F0E0919D0CF0E0EC57F34F958F809383
:102680009D0CFF91EF919F918F912F910F900BBE19
:102690000F900FBE0F901F9018958081F2CF1F9260
:1026A0000F920FB60F9211240BB60F922F933F93F8
:1026B0004F935F936F937F938F939F93AF93BF934A
:1026C000EF93FF9384E89CE00E940612FF91EF9144
:1026D000BF91AF919F918F917F916F915F914F913A
:1026E0003F912F910F900BBE0F900FBE0F901F9038
:1026F000189584E89CE00E94941121E0892B09F44C
:1027000020E0822F0895E4E8FCE01382128288EE34
:1027100093E0A0E0B0E084839583A683B78386E04E
:1027200094E09183808385EC90E09587848784ECA6
:1027300090E09787868780EC90E0918B808B81EC8E
:1027400090E0938B828B82EC90E0958B848B86EC6F
:1027500090E0978B868B118E128E138E148E0895B7
:102760001F920F920FB60F9211240BB60F922F9358
:102770008F939F93EF93FF93E091310DF091320D82
:102780008081E091370DF091380D82FD1DC0908160
:1027900080913A0D8F5F8F7320913B0D821741F02E
:1027A000E0913A0DF0E0EF5DF24F958F80933A0D96
:1027B000FF91EF919F918F912F910F900BBE0F90F2
:1027C0000FBE0F901F9018958081F2CF1F920F922D
:1027D0000FB60F9211240BB60F922F933F934F9386
:1027E0005F936F937F938F939F93AF93BF93EF9379
:1027F000FF9381E29DE00E940612FF91EF91BF914D
:10280000AF919F918F917F916F915F914F913F9188
:102810002F910F900BBE0F900FBE0F901F90189529
:1028200081E29DE00E94941121E0892B09F420E0CF
:10283000822F0895E1E2FDE01382128288EE93E098
:10284000A0E0B0E084839583A683B78386E094E01C
:102850009183808385E391E09587848784E391E089
:102860009787868780E391E0918B808B81E391E06D
:10287000938B828B82E391E0958B848B86E391E04E
:10288000978B868B118E128E138E148E0895AF92B5
:10289000BF92CF92DF92EF92FF920F931F93CF934D
:1028A000DF936C017B018B01040F151FEB015E01AF
:1028B000AE18BF08C017D10759F06991D601ED9144
:1028C000FC910190F081E02DC6011995892B79F7D3
:1028D000C501DF91CF911F910F91FF90EF90DF9095
:1028E000CF90BF90AF900895FB0101900020E9F7D1
:1028F0003197AF01461B570BDC01ED91FC91028033
:10290000F381E02D1994DB0114964D915C9115979C
:102910006D917C91DC01ED91FC910280F381E02DC1
:1029200019946115710511F00C94741490E080E015
:102930000895DC01ED91FC910190F081E02D199456
:1029400064E174E00C9474140F931F93CF93DF939E
:10295000EC010E9483148C01CE010E94A014800F10
:10296000911FDF91CF911F910F9108950F931F93A6
:10297000CF93DF938C01D0E0C0E06115710519F0B1
:102980000E947414EC01C8010E94A0148C0F9D1FBA
:10299000DF91CF911F910F9108958F929F92AF92E7
:1029A000BF92EF92FF920F931F93CF93DF93CDB718
:1029B000DEB7A1970FB6F894DEBF0FBECDBF7C0186
:1029C000FA01CB0119A2223008F42AE08E010F5D32
:1029D0001F4F822E912CB12CA12CBF01A501940177
:1029E0000E94611CF901CA016A300CF5605DD801D2
:1029F0006E938D01232B242B252B79F790E080E01B
:102A0000109721F0BD01C7010E947414A1960FB662
:102A1000F894DEBF0FBECDBFDF91CF911F910F9114
:102A2000FF90EF90BF90AF909F908F900895695C5A
:102A3000DECFCF92DF92EF92FF920F931F93CF934F
:102A4000DF932115310581F4DC01ED91FC910190BA
:102A5000F081E02D642FDF91CF911F910F91FF90B6
:102A6000EF90DF90CF9019942A30310501F52AE0DC
:102A700077FF1DC06A017B01EC016DE20E94991491
:102A80008C0144275527BA014C195D096E097F094D
:102A90002AE0CE010E94CD14800F911FDF91CF91CB
:102AA0001F910F91FF90EF90DF90CF900895DF91ED
:102AB000CF911F910F91FF90EF90DF90CF900C94EA
:102AC000CD149A01AB01770F660B770B0C94191597
:102AD0000F931F93CF93DF93EC010E9461158C013C
:102AE000CE010E94A014800F911FDF91CF911F9102
:102AF0000F9108952115310541F4DC01ED91FC9110
:102B00000190F081E02D642F19940C94CD149A015A
:102B1000AB0170E060E00C947A152F923F924F92D7
:102B20005F926F927F928F929F92AF92BF92CF925D
:102B3000DF92EF92FF921F93CF93DF93EC016A0134
:102B40007B01722EAB019601CB01B6010E94961F4C
:102B500067E174E0811126C046015701E894B7F897
:102B60002FEF3FEF4FE75FE7C501B4010E94961FCB
:102B700081110CC02FEF3FEF4FE75FE7C501B401B4
:102B80000E940C1D6BE174E0181664F02FEF3FEF0C
:102B90004FE75FE4C701B6010E94D61E1816B4F4D1
:102BA0006FE174E0CE01DF91CF911F91FF90EF9024
:102BB000DF90CF90BF90AF909F908F907F906F905D
:102BC0005F904F903F902F900C9474142FEF3FEF35
:102BD0004FE75FECC701B6010E940C1D87FDE0CFF7
:102BE00020E030E0A901C701B6010E940C1D312C84
:102BF000212C87FF09C06DE2CE010E9499141C01AF
:102C0000F7FAF094F7F8F09410E060E070E080E0FC
:102C10009FE3711641F020E030E040E251E40E9471
:102C2000161D1F5FF6CFA70196010E94A01C2B0165
:102C30003C010E948F1D4B015C012AE0BC01A401F4
:102C4000CE010E94CD147C01E20CF31C1123B1F1E2
:102C5000C501B4010E94BE1D9B01AC01C301B201BC
:102C60000E949F1C4B015C016EE2CE010E949914F0
:102C7000E80EF91E115010F120E030E040E251E47E
:102C8000C501B4010E94DB1E2B013C010E948F1D77
:102C90004B014AE050E0CE010E948715E80EF91E74
:102CA000B40190E080E00E94BE1D9B01AC01C30115
:102CB000B2010E949F1C4B015C01DCCFC701DF9178
:102CC000CF911F91FF90EF90DF90CF90BF90AF908A
:102CD0009F908F907F906F905F904F903F902F903C
:102CE00008950C948D150F931F93CF93DF93EC01F0
:102CF0000E948D158C01CE010E94A014800F911F9F
:102D0000DF91CF911F910F9108950895883008F0B9
:102D100076C0E82FF0E0EE0FFF1FE05EFD4F7183FD
:102D200060838150873008F03DC0E82FF0E08827AD
:102D3000E356F94E8F4F0C94831CDA16A416AC168A
:102D4000B816C516E616F316809169008C7F482BDD
:102D500040936900E89A089580916900837F440F49
:102D6000551F440F551F482B40936900E99A089559
:102D7000809169008F7C74E0440F551F7A95E1F7CC
:102D8000482B40936900EA9A0895809169008F73F7
:102D900066E0440F551F6A95E1F7482B40936900A0
:102DA000EB9A089580916A008C7F482B40936A00CB
:102DB000EC9A089580916A00837F440F551F440F59
:102DC000551F482B40936A00ED9A089580916A0040
:102DD0008F7C24E0440F551F2A95E1F7482B409340
:102DE0006A00EE9A089580916A008F7396E0440F0E
:102DF000551F9A95E1F7482B40936A00EF9A089582
:102E00001F920F920FB60F9211240BB60F922F93B1
:102E10003F934F935F936F937F938F939F93AF9362
:102E2000BF93EF93FF93E0912402F091250219954F
:102E3000FF91EF91BF91AF919F918F917F916F9192
:102E40005F914F913F912F910F900BBE0F900FBE4E
:102E50000F901F9018951F920F920FB60F9211248A
:102E60000BB60F922F933F934F935F936F937F9384
:102E70008F939F93AF93BF93EF93FF93E0912602BD
:102E8000F09127021995FF91EF91BF91AF919F911A
:102E90008F917F916F915F914F913F912F910F9003
:102EA0000BBE0F900FBE0F901F9018951F920F92A0
:102EB0000FB60F9211240BB60F922F933F934F939F
:102EC0005F936F937F938F939F93AF93BF93EF9392
:102ED000FF93E0912802F09129021995FF91EF915B
:102EE000BF91AF919F918F917F916F915F914F9122
:102EF0003F912F910F900BBE0F900FBE0F901F9020
:102F000018951F920F920FB60F9211240BB60F92C5
:102F10002F933F934F935F936F937F938F939F93E1
:102F2000AF93BF93EF93FF93E0912A02F0912B02AE
:102F30001995FF91EF91BF91AF919F918F917F91E3
:102F40006F915F914F913F912F910F900BBE0F901A
:102F50000FBE0F901F9018951F920F920FB60F92F1
:102F600011240BB60F922F933F934F935F936F9360
:102F70007F938F939F93AF93BF93EF93FF93E091D2
:102F80002002F09121021995FF91EF91BF91AF912D
:102F90009F918F917F916F915F914F913F912F9171
:102FA0000F900BBE0F900FBE0F901F9018951F92A1
:102FB0000F920FB60F9211240BB60F922F933F93DF
:102FC0004F935F936F937F938F939F93AF93BF9331
:102FD000EF93FF93E0912202F09123021995FF9164
:102FE000EF91BF91AF919F918F917F916F915F9181
:102FF0004F913F912F910F900BBE0F900FBE0F90EE
:103000001F9018951F920F920FB60F9211240BB6B6
:103010000F922F933F934F935F936F937F938F9371
:103020009F93AF93BF93EF93FF93E0912C02F091A6
:103030002D021995FF91EF91BF91AF919F918F91C3
:103040007F916F915F914F913F912F910F900BBEA8
:103050000F900FBE0F901F9018951F920F920FB6F2
:103060000F9211240BB60F922F933F934F935F93C0
:103070006F937F938F939F93AF93BF93EF93FF9340
:10308000E0912E02F0912F021995FF91EF91BF91DF
:10309000AF919F918F917F916F915F914F913F91F0
:1030A0002F910F900BBE0F900FBE0F901F90189591
:1030B000FC01808191810C947E20CF93DF93EC0101
:1030C00088819981009711F00E947E2019821882D0
:1030D0001D821C821B821A82DF91CF9108950F936B
:1030E0001F93CF93DF93EC018B016F5F7F4F88813C
:1030F00099810E940721009751F0998388831B834F
:103100000A8381E0DF91CF911F910F91089580E0B4
:10311000F9CFCF93DF93EC0188819981892B49F016
:103120008A819B818617970720F081E0DF91CF91FC
:103130000895CE010E946F188823C1F38C819D8170
:10314000892B99F7E881F9811082EFCFEF92FF92F6
:103150000F931F93CF93DF93EC017B018A01BA0198
:103160000E94891881110BC0CE010E945D18CE010A
:10317000DF91CF911F910F91FF90EF9008951D83E4
:103180000C83B701888199810E94F121F0CFFC0165
:1031900011821082138212821582148261157105C8
:1031A00051F0FB0101900020E9F73197AF01461B78
:1031B000570B0C94A6180895FB0101900020E9F725
:1031C0003197AF01461B570B0C94A618CF93DF9392
:1031D000EC016115710531F00E94DC18CE01DF9120
:1031E000CF9108950E945D18F9CFEF92FF920F934F
:1031F0001F93CF93DF93CDB7DEB7A1970FB6F894A7
:10320000DEBF0FBECDBF7C01CB01BA01F701118239
:103210001082138212821582148242E0420F8E01C4
:103220000F5F1F4F0E94C41FBC01C7010E94E61818
:10323000A1960FB6F894DEBF0FBECDBFDF91CF9140
:103240001F910F91FF90EF900895EF92FF920F93CF
:103250001F93CF93DF936115710541F480E0DF91F7
:10326000CF911F910F91FF90EF9008954115510557
:10327000B1F07B01EC010C811D81040F151FB80119
:103280000E948918882351F3288139818C819D817E
:10329000B701820F931F0E94F1211D830C8381E0EF
:1032A000DECFCF93DF93EC01FB0144815581608138
:1032B00071810E942519811103C0CE010E945D1801
:1032C000CE01DF91CF910895CF93DF93EC0161158B
:1032D000710539F4CE010E945D18CE01DF91CF91C6
:1032E0000895FB0101900020E9F73197AF01461BDB
:1032F000570B0E942519882369F3EFCF08950E9488
:10330000421A0E947E190E94DD08C1EDD1E10E949F
:1033100059092097E1F30E94D111F9CF1F920F9222
:103320000FB60F9211242F933F938F939F93AF93D8
:10333000BF938091BF0D9091C00DA091C10DB09130
:10334000C20D3091BE0D23E0230F2D3758F50196A5
:10335000A11DB11D2093BE0D8093BF0D9093C00D94
:10336000A093C10DB093C20D8091C30D9091C40D77
:10337000A091C50DB091C60D0196A11DB11D809300
:10338000C30D9093C40DA093C50DB093C60DBF910E
:10339000AF919F918F913F912F910F900FBE0F9002
:1033A0001F90189526E8230F0296A11DB11DD2CFBC
:1033B0002FB7F8946091BF0D7091C00D8091C10D31
:1033C0009091C20D2FBF08953FB7F8948091C30D1F
:1033D0009091C40DA091C50DB091C60D26B5A89BC6
:1033E00005C02F3F19F00196A11DB11D3FBFBA2F97
:1033F000A92F982F8827BC01CD01620F711D811D57
:10340000911D42E0660F771F881F991F4A95D1F7DB
:1034100008958F929F92AF92BF92CF92DF92EF92D8
:10342000FF926B017C010E94E4194B015C01C11405
:10343000D104E104F104E9F00E944C1C0E94E4195B
:10344000681979098A099B09683E734081059105CD
:1034500070F321E0C21AD108E108F10888EE880E65
:1034600083E0981EA11CB11CC114D104E104F10435
:1034700029F7FF90EF90DF90CF90BF90AF909F9093
:103480008F900895789484B5826084BD84B58160FE
:1034900084BD85B5826085BD85B5816085BDEEE65C
:1034A000F0E0808181608083E1E8F0E0108280813B
:1034B00082608083808181608083E0E8F0E08081A9
:1034C00081608083E1EBF0E0808184608083E0EBC9
:1034D000F0E0808181608083E1E9F0E080818260BA
:1034E0008083808181608083E0E9F0E08081816079
:1034F0008083E1EAF0E08081826080838081816066
:103500008083E0EAF0E0808181608083E1E2F1E0A5
:10351000808182608083808181608083E0E2F1E04D
:10352000808181608083EAE7F0E08081846080832D
:1035300080818260808380818160808380818068D7
:1035400080831092C10008951F93CF93DF93182FAB
:10355000EB0161E00E94E21B209739F460E0812FCB
:10356000DF91CF911F910C941E1CCF3FD10511F418
:1035700061E0F5CFE12FF0E0E052FD4FE491E15042
:10358000E23108F0B3C0F0E08827E653F54E8F4FE4
:103590000C94831CDC1AE41AE91AF31AFD1A761B40
:1035A000071B0F1B171B211B2B1B351B441B4E1B03
:1035B000761B581B621B6C1B84B5806884BDC7BD1D
:1035C000DF91CF911F91089584B5806284BDC8BDFD
:1035D000F7CF80918000806880938000D09389002D
:1035E000C0938800EDCF809180008062809380003E
:1035F000D0938B00C0938A00E3CF809180008860D5
:1036000080938000D0938D00C0938C00D9CF80919F
:10361000B00080688093B000C093B300D1CF809198
:10362000B00080628093B000C093B400C9CF809195
:103630009000806880939000D0939900C093980088
:10364000BFCF80919000806280939000D0939B00C8
:10365000C0939A00B5CF80919000886080939000CD
:10366000D0939D00C0939C00ABCF8091A000806858
:103670008093A0008091A0008F7B8093A000D093C6
:10368000A900C093A8009CCF8091A0008062809385
:10369000A000D093AB00C093AA0092CF8091A0006D
:1036A00088608093A000D093AD00C093AC0088CF19
:1036B00080912001806880932001D0932901C093DC
:1036C00028017ECF80912001806280932001D093D9
:1036D0002B01C0932A0174CF8091200188608093D0
:1036E0002001D0932D01C0932C016ACFC038D105A1
:1036F0000CF03ECF33CF8150823108F05AC0E82F12
:10370000F0E08827E957F44E8F4F0C94831CA71BD9
:10371000AB1B991B9F1BA31BD91BAE1BB41BB81B58
:10372000BE1BC21BC61BCC1BD01BD91BD41BDA1B58
:10373000DE1B809180008F778093800008958091B8
:1037400080008F7DF9CF80918000877FF5CF84B591
:103750008F7784BD089584B58F7DFBCF8091B000B5
:103760008F778093B00008958091B0008F7DF9CF5E
:10377000809190008F7780939000089580919000C1
:103780008F7DF9CF80919000877FF5CF8091A00049
:103790008F778093A00008958091A0008F7DF9CF4E
:1037A0008091A000877FF5CF809120018F77809353
:1037B00020010895809120018F7DF9CF8091200113
:1037C000877FF5CFCF93DF9390E0FC01EA5DFC4F5C
:1037D000249184599C4FFC0184918823C9F090E086
:1037E000880F991FFC01E453FC4FA591B491FC0193
:1037F000EE54FC4FC591D49161110DC09FB7F89460
:103800008C91209582238C938881282328839FBFC5
:10381000DF91CF910895623051F49FB7F8943C91B5
:10382000822F809583238C93E8812E2BEFCF8FB747
:10383000F894EC912E2B2C938FBFEACF1F93CF934C
:10384000DF93282F30E0F901E052FD4F8491F90118
:10385000EA5DFC4FD491F901E459FC4FC491CC23AB
:10386000A9F0162F81110E947B1BEC2FF0E0EE0FC8
:10387000FF1FEE54FC4FA591B4918FB7F894EC91D3
:10388000111108C0D095DE23DC938FBFDF91CF915B
:103890001F910895DE2BF8CF089597FB072E16F49D
:1038A000009407D077FD09D00E948B1C07FC05D03F
:1038B0003EF4909581959F4F0895709561957F4F47
:1038C0000895A1E21A2EAA1BBB1BFD010DC0AA1F61
:1038D000BB1FEE1FFF1FA217B307E407F50720F079
:1038E000A21BB30BE40BF50B661F771F881F991FF4
:1038F0001A9469F760957095809590959B01AC013D
:10390000BD01CF010895EE0FFF1F881F8BBF0790E9
:10391000F691E02D1994AA1BBB1B51E107C0AA1F09
:10392000BB1FA617B70710F0A61BB70B881F991F60
:103930005A95A9F780959095BC01CD0108955058EE
:10394000BB27AA270E94B71C0C94881E0E944F1EFA
:1039500038F00E94561E20F039F49F3F19F426F4E7
:103960000C94251E0EF4E095E7FB0C941F1EE92F26
:103970000E94AD1E58F3BA176207730784079507B4
:1039800020F079F4A6F50C94CF1E0EF4E0950B2EE2
:10399000BA2FA02D0B01B90190010C01CA01A001A1
:1039A0001124FF27591B99F0593F50F4503E68F1FC
:1039B0001A16F040A22F232F342F4427585FF3CF3D
:1039C000469537952795A795F0405395C9F77EF40E
:1039D0001F16BA0B620B730B840BBAF09150A1F057
:1039E000FF0FBB1F661F771F881FC2F70EC0BA0FDD
:1039F000621F731F841F48F4879577956795B79565
:103A0000F7959E3F08F0B0CF9395880F08F099275F
:103A1000EE0F9795879508950E94FB1D08F481E0AD
:103A200008950E945F1EE3950C94991E0E942A1D22
:103A30000C94881E0E94561E58F00E944F1E40F0A3
:103A400029F45F3F29F00C941F1E51110C94D01ED5
:103A50000C94251E0E94AD1E68F39923B1F35523E3
:103A600091F3951B550BBB27AA2762177307840791
:103A700038F09F5F5F4F220F331F441FAA1FA9F327
:103A800035D00E2E3AF0E0E832D091505040E69515
:103A9000001CCAF72BD0FE2F29D0660F771F881F76
:103AA000BB1F261737074807AB07B0E809F0BB0B69
:103AB000802DBF01FF2793585F4F3AF09E3F51057D
:103AC00078F00C941F1E0C94D01E5F3FE4F3983ED8
:103AD000D4F3869577956795B795F7959F5FC9F766
:103AE000880F911D9695879597F90895E1E0660FE7
:103AF000771F881FBB1F621773078407BA0720F060
:103B0000621B730B840BBA0BEE1F88F7E0950895C8
:103B10000E948F1D6894B1110C94D01E08950E94CC
:103B2000B51E88F09F5798F0B92F9927B751B0F07C
:103B3000E1F0660F771F881F991F1AF0BA95C9F731
:103B400014C0B13091F00E94CF1EB1E008950C94E2
:103B5000CF1E672F782F8827B85F39F0B93FCCF395
:103B6000869577956795B395D9F73EF490958095AE
:103B7000709561957F4F8F4F9F4F0895E89409C0CE
:103B800097FB3EF490958095709561957F4F8F4F90
:103B90009F4F9923A9F0F92F96E9BB279395F695A6
:103BA000879577956795B795F111F8CFFAF4BB0F24
:103BB00011F460FF1BC06F5F7F4F8F4F9F4F16C088
:103BC000882311F096E911C0772321F09EE8872F12
:103BD000762F05C0662371F096E8862F70E060E0CE
:103BE0002AF09A95660F771F881FDAF7880F969547
:103BF000879597F90895990F0008550FAA0BE0E8EB
:103C0000FEEF16161706E807F907C0F0121613069E
:103C1000E407F50798F0621B730B840B950B39F4DE
:103C20000A2661F0232B242B252B21F408950A2644
:103C300009F4A140A6958FEF811D811D089597F984
:103C40009F6780E870E060E008959FEF80EC089542
:103C5000DF93CF931F930F93FF92EF92DF927B013D
:103C60008C01689406C0DA2EEF010E94EE1EFE0160
:103C7000E894A5912591359145915591A6F3EF01D1
:103C80000E94B71CFE019701A801DA9469F7DF9042
:103C9000EF90FF900F911F91CF91DF910895002435
:103CA0000A941616170618060906089500240A94A1
:103CB000121613061406050608950C94251E0E947C
:103CC000B51ED8F3E894E0E0BB279F57F0F02AED4B
:103CD0003FE049EC06C0EE0FBB0F661F771F881F41
:103CE00028F0B23A62077307840728F0B25A620BD1
:103CF000730B840BE3959A9572F7803830F49A959C
:103D0000BB0F661F771F881FD2F790480C949D1F2A
:103D1000092E0394000C11F4882352F0BB0F40F4D9
:103D2000BF2B11F460FF04C06F5F7F4F8F4F9F4F19
:103D30000895EF93E0FF07C0A2EA2AED3FE049ECC7
:103D40005FEB0E94B71C0E94881E0F90039401FC39
:103D50009058E4EEF0E00C94B01F57FD9058440FDB
:103D6000551F59F05F3F71F04795880F97FB991FDA
:103D700061F09F3F79F08795089512161306140697
:103D8000551FF2CF4695F1DF08C016161706180624
:103D9000991FF1CF86957105610508940895E894FF
:103DA000BB2766277727CB0197F908950E94FB1D53
:103DB00008F48FEF08950E94EE1E0C94881E0E9456
:103DC0004F1E38F00E94561E20F0952311F00C94DF
:103DD0001F1E0C94251E11240C94D01E0E94AD1E93
:103DE00070F3959FC1F3950F50E0551F629FF0014E
:103DF000729FBB27F00DB11D639FAA27F00DB11D67
:103E0000AA1F649F6627B00DA11D661F829F2227EF
:103E1000B00DA11D621F739FB00DA11D621F839F76
:103E2000A00D611D221F749F3327A00D611D231F4C
:103E3000849F600D211D822F762F6A2F11249F579A
:103E400050409AF0F1F088234AF0EE0FFF1FBB1F9D
:103E5000661F771F881F91505040A9F79E3F51055C
:103E600080F00C941F1E0C94D01E5F3FE4F3983E2C
:103E7000D4F3869577956795B795F795E7959F5F06
:103E8000C1F7FE2B880F911D9695879597F9089598
:103E90009F930E945F1E0F9007FCEE5F0C94991E8B
:103EA00019F416F40C94251E0C949B1F0E94B51E49
:103EB000B8F39923C9F3B6F39F57550B87FF0E94B8
:103EC000A91F0024A0E640EA9001805856959795D6
:103ED00028F4805C660F771F881F20F026173707AD
:103EE000480730F4621B730B840B202931294A2BBD
:103EF000A69517940794202531254A2758F7660F71
:103F0000771F881F20F026173707480730F4620B09
:103F1000730B840B200D311D411DA09581F7B90154
:103F2000842F9158880F9695879508950E94FB1DC0
:103F3000880B990B08959F3F31F0915020F487959D
:103F400077956795B795880F911D9695879597F901
:103F5000089591505040660F771F881FD2F708953B
:103F60009F938F937F936F93FF93EF939B01AC018C
:103F70000E94DB1EEF91FF910E94281E2F913F911E
:103F80004F915F910C94DB1EEF920F931F93CF9391
:103F9000DF93E80134E047FD34E1042E000C550BBB
:103FA00057FF03C0519541955109E32E022F242F4D
:103FB000AE010E94F821CE01DF91CF911F910F91A8
:103FC000EF9008950F931F93CF93DF938230910565
:103FD00010F482E090E0E091C90DF091CA0D30E05C
:103FE00020E0B0E0A0E0309799F42115310509F404
:103FF0004AC0281B390B24303105D8F58A819B81B2
:104000006115710589F1FB0193838283FE0111C063
:10401000408151810281138148175907E0F0481708
:10402000590799F4109761F012960C931297139612
:104030001C933296CF01DF91CF911F910F9108957C
:104040000093C90D1093CA0DF4CF2115310551F01D
:104050004217530738F0A901DB019A01BD01DF01C6
:10406000F801C1CFEF01F9CF9093CA0D8093C90D2C
:10407000CDCFFE01E20FF31F8193919322503109BE
:1040800039832883D7CF2091C70D3091C80D232BBA
:1040900041F420910202309103023093C80D209325
:1040A000C70D20910002309101022115310541F424
:1040B0002DB73EB74091040250910502241B350BE9
:1040C000E091C70DF091C80DE217F307A0F42E1B85
:1040D0003F0B2817390778F0AC014E5F5F4F24176C
:1040E000350748F04E0F5F1F5093C80D4093C70D22
:1040F000819391939FCFF0E0E0E09CCFCF93DF934B
:104100000097E9F0FC01329713821282A091C90D49
:10411000B091CA0DED0130E020E01097A1F42081AC
:104120003181820F931F2091C70D3091C80D281740
:10413000390709F061C0F093C80DE093C70DDF9116
:10414000CF910895EA01CE17DF07E8F54A815B8138
:104150009E0141155105B1F7E901FB83EA834991BD
:104160005991C40FD51FEC17FD0761F4808191812F
:104170000296840F951FE901998388838281938138
:104180009B838A83F0E0E0E012968D919C911397D7
:104190000097B9F52D913C911197CD010296820FB0
:1041A000931F2091C70D3091C80D2817390739F694
:1041B000309751F51092CA0D1092C90DB093C80DE9
:1041C000A093C70DBCCFD383C28340815181840F9C
:1041D000951FC817D90761F44E5F5F4F8881998199
:1041E000480F591F518340838A819B819383828327
:1041F0002115310509F0B0CFF093CA0DE093C90D38
:104200009ECFFD01DC01C0CF13821282D7CF4F9227
:104210005F926F927F928F929F92AF92BF92CF9256
:10422000DF92EF92FF920F931F93CF93DF938C0156
:10423000009799F4CB01DF91CF911F910F91FF90DF
:10424000EF90DF90CF90BF90AF909F908F907F9036
:104250006F905F904F900C94E21FFC01E60FF71FE8
:104260009C0122503109E217F30708F4AEC0D901CE
:10427000CD91DC911197C617D70720F1C530D10534
:1042800078F0CE0104978617970750F0C61BD70B1E
:104290002297C193D1936D937C93CF010E947E208E
:1042A000C801DF91CF911F910F91FF90EF90DF90A8
:1042B000CF90BF90AF909F908F907F906F905F90C6
:1042C0004F9008955B01AC1ABD0A4C018C0E9D1EE7
:1042D000A091C90DB091CA0D512C412CF12CE12CAB
:1042E000109731F58091C70D9091C80D88159905EB
:1042F00009F05CC04616570608F058C080910002CD
:1043000090910102009741F48DB79EB7409104024D
:1043100050910502841B950BE817F90708F055C06A
:10432000F093C80DE093C70DF90171836083B8CF96
:104330008D919C91119712966C90129713967C9088
:104340001397A815B90559F56C0142E0C40ED11CAC
:10435000CA14DB0420F1AC014A195B09DA01129698
:10436000159780F06282738251834083D9016D93E7
:104370007C93E114F10471F0D7011396FC93EE9352
:1043800012978ECF22968C0F9D1FF9019183808307
:10439000F301EFCFF093CA0DE093C90D81CF48161A
:1043A000590608F42C017D01D3019ACFCB010E945C
:1043B000E21F7C01009749F0AE01B8010E94E8219C
:1043C000C8010E947E2087016BCF10E000E068CF1B
:1043D000FB01DC0102C001900D9241505040D8F722
:1043E0000895FB01DC0101900D920020E1F7089592
:1043F0008F929F92AF92BF92CF92DF92EF92FF92F5
:104400000F931F93CF93DF9300D000D000D0CDB790
:10441000DEB76A01F22EB02E102FFBE3AF2EA016EE
:1044200008F41BE31F5F012F27E0AE014F5F5F4FD2
:104430000E947123BC018981982F9970913009F4F1
:104440004EC09BE2E1FC04C09E2D9170E0FC49C08F
:104450005E2D5071E82FE87083FF55C084E0911104
:1044600001C083E0EF2DE81B8F1508F0E0E0D601D6
:104470008E2F20E25523C9F1992329F0D6019C9370
:10448000C60101966C0196012D5F3F4FE2FE33C0DD
:104490008EE4D6018C9391E411969C931197129619
:1044A0008C93D9018E2F90E281112AC0E20FF32F55
:1044B000F11D10828EEF9FEF29960FB6F894DEBFA4
:1044C0000FBECDBFDF91CF911F910F91FF90EF9065
:1044D000DF90CF90BF90AF909F908F9008959DE216
:1044E000B7CF90E2B5CF2D9381508111FCCFCE0E86
:1044F000D11CE0E0C1CF8EE6D6018C9391E6CCCF03
:104500009D938150D1CF482F447082FF3DC084E0FD
:10451000911101C083E08F1510F4EF2DE81BD60137
:104520008E2F20E2552309F1992329F0D6019C937F
:10453000C60101966C0196012D5F3F4FE2FE1BC044
:1045400089E4D6018C938EE411968C93119786E4BE
:1045500012968C93D9018E2F90E2882309F4A6CF6E
:104560009D938150FACF2D9381508111FCCFCE0EB7
:10457000D11CE0E0D9CF89E6D6018C938EE6119666
:104580008C93119786E6E4CF9B0177FF02C030E061
:1045900020E0A1E0B0E0911102C0B0E0A0E0F9019C
:1045A0003196AE0FBF1F8B2C912CBB2009F461C03C
:1045B0005401EFEFAE1ABE0AAA0DBB1DFA161B0678
:1045C00019F014F04F2D4A1B511188C0E3FC59C05B
:1045D0007601A42FB0E2A1114FC0C40ED11C9923C3
:1045E00009F45BC040E0D6011196F60190836D019D
:1045F000552309F448C0012F060F9A81582F507196
:1046000084FF03C0913309F4015010160CF047C029
:10461000093008F008E0EEE2FE2E5B01A01AB108B6
:1046200085019194819491082F3F320729F4D60196
:10463000FC92F60131966F016217730794F102172D
:1046400013077CF5DB01A21BB30BAA24A394B12CA6
:10465000AC0EBD1EAA0DBB1D11968C9121503109C7
:10466000D601119628153905F4F0F60180836D0105
:10467000DBCFB12CA12CA0CFF701B1937F01A150CA
:10468000AACF9111B0CFD601942F50E302C05D9311
:1046900091509111FCCFC40ED11C40E0ACCF01E091
:1046A000BACF80E3DBCF6217730731F4963388F417
:1046B000953311F4552369F0F6018083FD01842FB1
:1046C00090E2811108C0A40FB11D1C9290E080E01F
:1046D000F3CE81E3F1CF91938150F3CF911183CF4A
:1046E0008ACF283008F027E03327DA01990F311DEF
:1046F00087FD916000966105710539F432602E5F87
:104700003D9330E32A95E1F708959F3F30F08038DC
:104710007105610509F03C5F3C5F3D93913008F005
:104720008068911DDF93CF931F930F93FF92EF92B9
:10473000192F987F9695E92F96959695E90FFF2763
:10474000E05CFD4F99273327EE24FF24A701E70102
:1047500005900894079428F4360FE71EF81E491FA9
:10476000511D660F771F881F991F0694A1F70590AA
:10477000079428F4E70EF81E491F561FC11D770F36
:10478000881F991F661F0694A1F70590079428F4C7
:10479000F80E491F561FC71FD11D880F991F661F8E
:1047A000771F0694A1F70590079420F4490F561F30
:1047B000C71FD81F990F661F771F881F0694A9F778
:1047C00084911095177041F0D695C79557954795E8
:1047D000F794E7941A95C1F7E6EEF1E06894159026
:1047E000159135916591959105907FE27395E1184A
:1047F000F10A430B560BC90BD009C0F7E10CF11EAF
:10480000431F561FC91FD01D7EF4703311F48A95C3
:10481000E6CFE894015030F0080F0AF400270217A1
:1048200008F4202F2395022F7A3328F079E37D9323
:104830002A95E9F710C07D932A9589F606949795F5
:104840006795379517951794E118F10A430B560BA6
:10485000C90BD00998F023957E9173957A3308F0AF
:1048600070E37C932013B8F77E9170617D9330F0F4
:10487000839571E37D9370E32A95E1F71124EF901E
:10488000FF900F911F91CF91DF91992787FD909510
:10489000089511E0C6EFD1E000E006C0802FFE01D0
:1048A0000E94831C2196011DC73FD10780E00807A5
:0648B000A9F7F894FFCF08
:1048B6000000CB0D8000FFFF0000204100002041DA
:1048C6000000F041FFFFECFF0000614300000743DA
:1048D60085168516851685168516851685168516FA
:1048E6004F7574707574205049443A20005475729F
:1048F6006E6564206F6E20506F696E7421202020D3
:104906002020205475726E656420416E676C653A8E
:104916002000233D3D3D3D3D3D3D3D3D3D3D3D3D35
:104926003D3D3D3D3D3D3D3D3D3D3D3D3D3D3D3DB1
:104936003D3D3D3D3D3D3D3D3D3D3D3D3D3D3D3DA1
:104946003D00233D3D3D3D3D3D3D3D3D3D3D3D3DE8
:1049560020447269766520436F6E74726F6C2050C6
:104966006F696E7473203D3D3D3D3D3D3D3D3D3D92
:104976003D3D005363686E69747470756E6B742088
:1049860020732E783A20002020732E793A20004D8D
:104996006974746520547565722020642E783A20F7
:1049A600002020642E793A20005261646975733ABA
:1049B600200057696E6B656C205068693A20004488
:1049C600697374616E7A3A2000233D3D3D3D3D3D5D
:1049D6003D3D3D3D204564676520506F696E7473AB
:1049E600203D3D3D3D3D3D3D3D3D3D3D00446F6FE0
:1049F6007220666F756E642100233D3D3D3D3D3D51
:104A06003D3D3D3D20446F6F7220506F696E74735B
:104A1600203D3D3D3D3D3D3D3D3D3D3D0020207819
:104A26003A20002020793A200043414E20577269EF
:104A36007465202D2054657374696E6720747261E5
:104A46006E736D697373696F6E206F662043414E96
:104A560020427573206D657373616765730043410A
:104A66004E20496E6974206F6B0043616E27742077
:104A7600696E69742043414E004C494441522D539E
:104A860063616E0043616C63756C61746520416E91
:104A9600676C65005061737320446F6F72004572D6
:104AA600726F722C20526573657420537973746526
:104AB6006D000000000048124714C211281294111C
:104AC600AE11A0110D0A006E616E00696E66006F70
:044AD6007666000000
:00000001FF
