:100000000C9434020C94861E0C94B11E0C94DC1ECD
:100010000C94071F0C94321F0C945D1F0C94881FC6
:100020000C94B31F0C9465020C9465020C94650249
:100030000C9465020C9465020C9465020C946502A4
:100040000C9465020C9465020C9465020C94650294
:100050000C9465020C9465020C9465020C942621A4
:100060000C9465020C949F1A0C94D51A0C9465029A
:100070000C9465020C9465020C9465020C94650264
:100080000C9465020C9465020C9465020C94650254
:100090000C9465020C9465020C9465020C94650244
:1000A0000C9465020C9465020C9465020C94650234
:1000B0000C9465020C9465020C9465020C94650224
:1000C0000C9465020C9465020C9465020C94650214
:1000D0000C9465020C9465020C94361B0C946C1BFA
:1000E0000C946502084AD73B3BCE016E84BCBFFD31
:1000F000C12F3D6C74319ABD56833DDA3D00C77FF8
:1001000011BED9E4BB4C3E916BAAAABE0000008090
:100110003F072C7AA5BA6CC590DA3B9365FC8BBC83
:1001200053F810FD3C5692834DBD879D3AB63DCBAA
:10013000C9BF5BBE73DA0FC93F05A84CCDB2D44E20
:10014000B93836A9020C50B9918688083CA6AAAAEB
:100150002ABE000000803F000C9464230C94CD2242
:100160000C940B1E0C94321E0C94791E0C9472236A
:100170000C948B100C943F230C9471100C94481920
:100180000C9474220C9421100C94F50F0C945719B4
:100190000C94D1100C94CE190C947C220C9434192C
:1001A0000C94F0220C948B220C94AB100C944623EC
:1001B0000C949F220C94DC220C944F100C943E1E45
:1001C0000C94C3220C945A230C944C230C94762345
:1001D0000C9467020C94F1100C9481220C94372338
:1001E0000C9404230C9495220C9468230C946C1E9C
:1001F0000C942A1E0C94AE190C94601E0C943B2394
:100200000C94AF220C9443230C9471230C94A01BE8
:100210000C94FF1A0C941A190C9431230C94562345
:100220000C946C230C94A7220C94FA220C940E23A9
:100230000C9450230C94961B0C9474110C94091B71
:100240000C9407110C94D50F0C94E6220C942619EB
:100250000C94B9220C94CD1B0C944B1E0C945E2371
:1002600000407A10F35A00A0724E18090010A5D46D
:10027000E80000E87648170000E40B54020000CACA
:100280009A3B000000E1F505000080969800000010
:1002900040420F000000A08601000000102700006F
:1002A0000000E803000000006400000000000A00F5
:1002B000000000000100000000002C76D888DC67F8
:1002C0004F0823DFC1DFAE59E1B1B796E5E3E45350
:1002D000C63AE651997696E8E6C28426EB898C9B6D
:1002E00062ED407C6FFCEFBC9C9F40F2BAA56FA50D
:1002F000F490055A2AF75C936B6CF9676DC11BFC8F
:10030000E0E40D47FEF520E6B500D0ED902E0300A9
:10031000943577050080841E080000204E0A0000F6
:1003200000C80C333333330F986E12831141EF8DB5
:100330002114893BE65516CFFEE6DB18D1844B38F5
:100340001BF77C1D901DA4BBE424203284725E2226
:100350008100C9F124ECA1E53D2700000A0B020948
:100360000C0D0E080703040100000000000000004F
:10037000000000000000000000000000000000007D
:10038000000000000000121110000000000000003A
:10039000000000000000000000000000000000005D
:1003A0000102102020080810204010204080020187
:1003B000020108040201010204081020408080406C
:1003C000201008040201800402018040201008046B
:1003D0000201080402010102040810204080010209
:1003E00004081020408005050505070508080808D1
:1003F000020202020A0A08080404040401010101BD
:1004000001010101030303030303030304070707B7
:100410000C0C0C0C0C0C0C0C02020202060606065C
:10042000060606060B0B0B0B0B0B0B0B000022003A
:10043000250028002B002E003100340002010000AE
:10044000050108010B0100002100240027002A00FB
:100450002D003000330001010000040107010A01F2
:100460000711091BA01B741111241FBECFEFD1E28D
:10047000DEBFCDBF00E00CBF14E0A0E0B2E0EEE3D1
:10048000F9E500E00BBF02C007900D92AA3CB1074E
:10049000D9F72EE0AAECB4E001C01D92AD3CB20742
:1004A000E1F712E0C3E3D2E000E006C021970109C2
:1004B000802FFE010E941B24C033D10780E0080773
:1004C000A9F70E9417210C948D2C0C9400008091A8
:1004D0001C0290911D02019621F410921D021092AF
:1004E0001C020895ECE8F8E0138212821182108257
:1004F0001582148216821782108611861286138640
:10050000148615863E962DE0E837F20769F7E0ED90
:10051000F5E01382128211821082158214821682F3
:1005200017821086118612861386148615863E96CB
:1005300028E0EC38F20769F7ECE7F5E01382128265
:1005400011821082158214821682178210861186FB
:1005500012861386148615863E9625E0E03DF20746
:1005600069F710927B0510927A0510927905109226
:100570007805109274051092750510927605109208
:100580007705109270051092710510927205109205
:10059000730510926C0510926D0510926E05109205
:1005A0006F052FEF3FEF30930702209306029093E1
:1005B0001D0280931C02089581309105A9F01CF45E
:1005C000892B41F0089582309105A1F061E00397F5
:1005D00061F0089561E08AE00E94B62360E089E05E
:1005E0000E94B62360E00FC060E08AE00E94B6235C
:1005F00061E0F5CF60E08AE00E94B62360E089E028
:100600000E94B62361E088E00C94B6234F925F927B
:100610006F927F928F929F92AF92BF92CF92DF9212
:10062000EF92FF920F931F93CF93DF9300D000D0F0
:1006300000D01F921F92CDB7DEB7E982FA820B83FA
:100640001C832D833E834F83588769877A878B87E6
:10065000CE0101960E942E14882389F089819A8107
:100660008138910519F58C8190E09093690580930C
:1006700068058D8190E090936B0580936A052B96B9
:100680000FB6F894DEBF0FBECDBFDF91CF911F91A3
:100690000F91FF90EF90DF90CF90BF90AF909F9021
:1006A0008F907F906F905F904F9008958F3F97400D
:1006B00031F7B884A9847A846B840E9470216B011D
:1006C0007093CB046093CA04009106021091070254
:1006D0000F3F100709F4B6C06A2D70E0762F662729
:1006E0006B0D711D072E000C880B990B0E9498252D
:1006F00027ED33EA4AEA51E40E94EE242BED3FE075
:1007000049EC50E40E94DB2620E030E040E752E470
:100710000E94EE2427ED33EA40E35EE30E94DB26ED
:100720004B015C01662D70E0762F6627670D711D09
:10073000072E000C880B990B0E94982527ED33EAB1
:100740004AEA51E40E94EE242BED3FE049EC50E4EC
:100750000E94DB2620E030E040E752E40E94EE24D5
:1007600027ED33EA40E35EE30E94DB262B013C01E8
:10077000C01AD10AB601DD0C880B990B0E9498258E
:100780006B017C01A5019401C301B2010E944824C0
:1007900028EB3EE145E05FE30E94EE24A7019601CD
:1007A0000E94DB2620E030E04AE754E40E94EE2479
:1007B00020E030E044E353E40E94DB262BED3FE0F1
:1007C00049E450E40E94EE249B01AC016091640571
:1007D0007091650580916605909167050E94492496
:1007E0006093640570936505809366059093670533
:1007F000A3019201C501B4010E94492420E030E028
:1008000040E05FE30E94DB26A70196010E94DB2601
:1008100020E030E04AE754E40E94EE249B01AC0162
:10082000609110057091110580911205909113054A
:100830000E9449246093100570931105809312055E
:10084000909313050E947021709307026093060233
:1008500016CFAF92BF92CF92DF92EF92FF920F939B
:100860001F93CF93DF9300D000D000D01F921F9230
:10087000CDB7DEB7588769877A878B878EE390E09C
:100880009A838983007E00610B83CC82DD82AE82F5
:10089000BF8240E060EE8FE00E94BD13CE01019662
:1008A0000E9492146AE070E080E090E00E94A12132
:1008B0002B960FB6F894DEBF0FBECDBFDF91CF9160
:1008C0001F910F91FF90EF90DF90CF90BF90AF906E
:1008D00008953F924F925F926F927F928F929F9274
:1008E000AF92BF92CF92DF92EF92FF920F931F933E
:1008F000CF93DF9300D000D000D01F921F92CDB7CE
:10090000DEB7382E3B012A0189829A82AB82BC82F3
:10091000CD823D2DDE824E2DEF825F2DF886602F39
:100920000987712F1A87822F2B87E82CF92C0A2D23
:100930001B2D2C2D0E94060360916A0570916B059A
:100940003AEFC32ED12CC61AD70A683771051CF5A9
:10095000CC24DD24C61AD70A3320E9F0072E000C78
:10096000880B990B0E9498252DEC3CEC4CE45EE33F
:100970000E94DB264B015C01B601DD0C880B990B54
:100980000E9498259B01AC01C501B4010E94492435
:100990000E9460256B018091680590916905AA24E9
:1009A000BB24A81AB90A883791052CF02AEFA22E89
:1009B000B12CA81AB90A9C012353310921333105FE
:1009C00020F087599109C19730F480E190E090932D
:1009D0001D0280931C02A40CB51CC60CD71CE98018
:1009E000FA800B811C812D813E814F81588569855C
:1009F0007A858B850E9429042B960FB6F894DEBF6A
:100A00000FBECDBFDF91CF911F910F91FF90EF905F
:100A1000DF90CF90BF90AF909F908F907F906F901E
:100A20005F904F903F9008952F923F924F925F9228
:100A30006F927F928F929F92AF92BF92CF92DF92EE
:100A4000EF92FF920F931F93CF93DF93CDB7DEB753
:100A500067970FB6F894DEBF0FBECDBF1B012C0108
:100A60003A018D869E86AF86B88AC98A3D2DDA8A7C
:100A70004E2DEB8A5F2DFC8A602F0D8B712F1E8B04
:100A8000822F2F8BE82CF92C0A2D1B2D2C2D0E9448
:100A9000060320E030E048EC52E4C201B1010E94BC
:100AA000EE24609318057093190580931A059093AE
:100AB0001B058091100590911105A0911205B09130
:100AC000130580930C0590930D05A0930E05B0932C
:100AD0000F058CEC94E00E94F714109260051092C0
:100AE00061051092620510926305809164059091F2
:100AF0006505A0916605B091670580935C059093AC
:100B00005D05A0935E05B0935F058CE195E00E94C2
:100B1000F714609158057091590580915A0590918C
:100B20005B0590580E9460258D849E84AF84B888B0
:100B3000C988DA88EB88FC880D891E892F89AB016A
:100B400070E060E081E00E946904C0901005D090E0
:100B50001105E0901205F0901305A7019601609130
:100B600018057091190580911A0590911B050E9436
:100B700048244B015C012DEC3CEC4CEC5DE30E9405
:100B8000E42487FF45C02DEC3CEC4CEC5DEBC5014B
:100B9000B4010E94CE261816DCF522E0B701A601AA
:100BA000CE0107960E94A72068E372E0CE0101966D
:100BB0000E944D20BE01695F7F4FCE0101960E94C9
:100BC0000321BC0186E89DE00E942A1CCE0101960B
:100BD0000E94DE1FCE0107960E94DE1F69E572E0CB
:100BE00086E89DE00E943C1C109264051092650509
:100BF000109266051092670510921005109211056B
:100C0000109212051092130570921D0260921C0240
:100C100067960FB6F894DEBF0FBECDBFDF91CF91C0
:100C20001F910F91FF90EF90DF90CF90BF90AF900A
:100C30009F908F907F906F905F904F903F902F90FC
:100C400008952F923F924F925F926F927F928F9270
:100C50009F92AF92BF92CF92DF92EF92FF920F934B
:100C60001F93CF93DF93CDB7DEB767970FB6F89496
:100C7000DEBF0FBECDBF1B012C013A018D869E86C3
:100C8000AF86B88AC98A3D2DDA8A4E2DEB8A5F2D50
:100C9000FC8A602F0D8B712F1E8B822F2F8BE82CDF
:100CA000F92C0A2D1B2D2C2D0E9406032092600585
:100CB000309261054092620550926305809164050F
:100CC00090916505A0916605B091670580935C05DC
:100CD00090935D05A0935E05B0935F058CE195E070
:100CE0000E94F714609158057091590580915A053A
:100CF00090915B0590580E9460258D849E84AF84FE
:100D0000B888C988DA88EB88FC880D891E892F8904
:100D1000AB0170E060E080E00E94690420E030E018
:100D2000A901C201B1010E94CE26181624F057FA7B
:100D3000509457F85094C0906405D0906505E090A9
:100D40006605F090670520E030E0A901C701B60113
:100D50000E94CE26A701960118160CF05058C20129
:100D6000B1010E9448244B015C012DEC3CEC4CECA1
:100D70005DE30E94E42487FF3DC02DEC3CEC4CEC8D
:100D80005DEBC501B4010E94CE2618169CF522E049
:100D9000B701A601CE0107960E94A72069E872E07C
:100DA000CE0101960E944D20BE01695F7F4FCE01AA
:100DB00001960E940321BC0186E89DE00E942A1C46
:100DC000CE0101960E94DE1FCE0107960E94DE1F13
:100DD00069E572E086E89DE00E943C1C1092640583
:100DE00010926505109266051092670570921D02BB
:100DF00060921C0267960FB6F894DEBF0FBECDBF9F
:100E0000DF91CF911F910F91FF90EF90DF90CF90E6
:100E1000BF90AF909F908F907F906F905F904F901A
:100E20003F902F9008954F925F926F927F928F9292
:100E30009F92AF92BF92CF92DF92EF92FF92CF93A9
:100E4000DF93CDB7DEB764970FB6F894DEBF0FBE61
:100E5000CDBF20E030E044E152E460918205709122
:100E6000830580918405909185050E9448242B017B
:100E70003C0120E030E040ED51E460918605709146
:100E8000870580918805909189050E9449244B012E
:100E90005C0120E030E044E152E460919005709103
:100EA000910580919205909193050E9448246B01D1
:100EB0007C0120E030E040ED51E4609194057091B8
:100EC000950580919605909197050E944924698324
:100ED0007A838B839C83D301C201B0588D839E8318
:100EE000AF83B8878093820590938305A093840590
:100EF000B0938505D501C401B05889879A87AB871F
:100F0000BC878093860590938705A0938805B0934E
:100F10008905D701C601B0588D879E87AF87B88BEA
:100F20008093900590939105A0939205B0939305BB
:100F300089819A81AB81BC81B058898B9A8BAB8BAC
:100F4000BC8B8093940590939505A0939605B093E0
:100F50009705A3019201C301B2010E94DB262B0178
:100F60003C01A5019401C501B4010E94DB269B014F
:100F7000AC01C301B2010E9449240E9456270E947D
:100F8000602570937F0560937E052D813E814F81A2
:100F9000588569857A858B859C850E94EE240E9400
:100FA000B52420E030E044E353E40E94DB262BED3F
:100FB0003FE049E450E40E94EE240E946025ACE743
:100FC000B5E06D937C93A7019601C701B6010E941D
:100FD000DB266B017C0129813A814B815C81CA014E
:100FE000B9010E94DB269B01AC01C701B6010E943A
:100FF00049240E9456270E94602570938D056093B6
:101000008C052D853E854F85588969897A898B891C
:101010009C890E94EE240E94B52420E030E044E345
:1010200053E40E94DB262BED3FE049E450E40E94AC
:10103000EE240E94602570938B0560938A056BE215
:1010400073E086E89DE00E943C1C69E073E086E85E
:101050009DE00E94171C409182055091830560918C
:1010600084057091850522E030E086E89DE00E94CD
:10107000F71D62E573E086E89DE00E94171C409131
:10108000860550918705609188057091890522E059
:1010900030E086E89DE00E94F71D68E573E086E891
:1010A0009DE00E94171C60917E0570917F054AE0CB
:1010B00050E086E89DE00E94E71C61E673E086E868
:1010C0009DE00E94171CECE7F5E0608171814AE029
:1010D00050E086E89DE00E94EE1C69E073E086E83F
:1010E0009DE00E94171C40919005509191056091E0
:1010F00092057091930522E030E086E89DE00E9421
:10110000F71D62E573E086E89DE00E94171C4091A0
:10111000940550919505609196057091970522E090
:1011200030E086E89DE00E94F71D68E573E086E800
:101130009DE00E94171C60918C0570918D054AE01E
:1011400050E086E89DE00E94E71C61E673E086E8D7
:101150009DE00E94171C60918A0570918B054AE002
:1011600050E086E89DE064960FB6F894DEBF0FBEAF
:10117000CDBFDF91CF91FF90EF90DF90CF90BF90E8
:10118000AF909F908F907F906F905F904F900C9456
:10119000EE1C4F925F926F927F928F929F92AF92CE
:1011A000BF92CF92DF92EF92FF92CF93DF9300D066
:1011B00000D000D01F92CDB7DEB79A8789870E94F2
:1011C0001307E0907E05F0907F0580918C0590914B
:1011D0008D05E80EF91EF7FE03C08FEFE81AF80A36
:1011E000F594E794209190053091910540919205F6
:1011F00050919305609182057091830580918405DB
:10120000909185050E94492420E030E040E05FE3B2
:101210000E94DB264B015C012091940530919505DD
:1012200040919605509197056091860570918705CC
:1012300080918805909189050E94492420E030E042
:1012400040E05FE30E94DB262B013C0160917C05BE
:1012500070917D0580918A0590918B05680F791FAB
:1012600077FF02C06F5F7F4F75956795072E000C63
:10127000880B990B0E9498256093740570937505EF
:101280008093760590937705B7010F2C000C880B9F
:10129000990B0E94982560936C0570936D0580935F
:1012A0006E0590936F056BE673E086E89DE00E9403
:1012B0003C1C69E073E086E89DE00E94171C22E078
:1012C00030E0B501A40186E89DE00E94F71D62E5CB
:1012D00073E086E89DE00E94171C22E030E0B30135
:1012E000A20186E89DE00E94F91D6EE173E086E8A8
:1012F0009DE00E94171C4091740550917505609106
:1013000076057091770522E030E086E89DE00E9446
:10131000F91D63E973E086E89DE00E94171C4AE02E
:1013200050E0B70186E89DE00E94EE1C2091820506
:101330003091830540918405509185056091900519
:101340007091910580919205909193050E94482497
:1013500020E030E044EB52EC0E94DB266B017C0184
:101360002091860530918705409188055091890527
:1013700060919405709195058091960590919705DF
:101380000E9448249B01AC01C701B6010E94EE24D3
:1013900069837A838B839C8320E030E044EB52E4C2
:1013A000C501B4010E9448246B017C0129813A8166
:1013B0004B815C81C301B2010E9448244B015C0156
:1013C000A7019601C701B6010E94DB262B013C0153
:1013D000A5019401C501B4010E94DB269B01AC016B
:1013E000C301B2010E9449242B013C010E945627EF
:1013F0006D837E838F839887A7019601C501B40111
:101400000E94EE240E94B52420E030E044E353E43F
:101410000E94DB262BED3FE049E450E40E94EE24DD
:101420000E946025072E000C880B990B0E949825BE
:101430006093740570937505809376059093770596
:101440006D817E818F8198850E946025072E000C1A
:10145000880B990B0E94982560936C0570936D051D
:1014600080936E0590936F056DE973E086E89DE0CB
:101470000E943C1C69E073E086E89DE00E94171C16
:1014800022E030E0B701A60186E89DE00E94F71D4A
:1014900062E573E086E89DE00E94171C22E030E0E0
:1014A000B501A40186E89DE00E94F91D6EE173E09C
:1014B00086E89DE00E94171C4091740550917505C7
:1014C000609176057091770522E030E086E89DE036
:1014D0000E94F91D63E973E086E89DE00E94171CF5
:1014E00040916C0550916D0560916E0570916F058E
:1014F00022E030E086E89DE00E94F91DC301B201C0
:101500000E9456272B013C0129813A814B815C8145
:10151000CA01B9010E94DB2620E030E24DEF55E41C
:101520000E9449240E9456276D837E838F8398876B
:1015300020E030E044EB52E4C701B6010E94DB2614
:101540006B017C01A501940169817A818B819C8169
:101550000E94DB269B01AC01C701B6010E94492411
:101560006B017C012D813E814F815885C301B20101
:101570000E94DB269B01AC01C701B6010E94EE244C
:101580000E94372420E030E044E353E40E94DB264D
:101590002BED3FE049E450E40E94EE246B017C0116
:1015A000C0927005D0927105E0927205F0927305B9
:1015B00020E030E0A901609174057091750580917B
:1015C0007605909177050E94CE261816ACF420E09F
:1015D00030E0A901C701B6010E94CE26181664F4B6
:1015E000F7FAF094F7F8F094C0927005D092710574
:1015F000E0927205F09273056BEC73E086E89DE073
:101600000E94171C40917005509171056091720500
:101610007091730522E030E086E89DE00E94F91D9C
:1016200089859A8590931D0280931C022A960FB695
:10163000F894DEBF0FBECDBFDF91CF91FF90EF904A
:10164000DF90CF90BF90AF909F908F907F906F90E2
:101650005F904F9008952F923F924F925F926F92BA
:101660007F928F929F92AF92BF92CF92DF92EF9232
:10167000FF920F931F93CF93DF93CDB7DEB7689799
:101680000FB6F894DEBF0FBECDBF7C01788F6F8B95
:1016900010927905109278050CE818E04EE0D42EEF
:1016A000F80160897189072E000C880B990B0E9444
:1016B00098259B01AC010E9449244B015C01F80173
:1016C00062817381072E000C880B990B0E9498256C
:1016D0009B01AC01C501B4010E9448244B015C018F
:1016E000F801668D778D072E000C880B990B0E94F0
:1016F00098259B01AC01C501B4010E9448240E94B9
:1017000060256E157F05DCF4F801828993890B97BB
:10171000B4F080917A0590917B05D89ED001D99E36
:10172000B00D1124A053BA4F3E962D2D01900D926D
:101730002A95E1F7019690937B0580937A05025FE5
:101740001F4F2DE00A36120709F0AACF8091780DBD
:101750008823F1F169ED73E086E89DE00E943C1C6E
:1017600000ED15E0F12CE12C80917A0590917B053C
:10177000E816F9066CF5F801608171814AE050E0E5
:1017800086E89DE00E94E71C68E374E086E89DE03F
:101790000E94171CF801628173814AE050E086E8DC
:1017A0009DE00E94E71C68E374E086E89DE00E94EB
:1017B000171CF801648175814AE050E086E89DE0DD
:1017C0000E94EE1CFFEFEF1AFF0A025F1F4FCCCF03
:1017D00030ED232E35E0332E18861F8280917A0556
:1017E00090917B052F813885281739070CF452C05A
:1017F00020907805309079050CE715E07801D12C20
:10180000C12CC214D3040CF052C1F7016281738160
:10181000072E000C880B990B0E9498254B015C0148
:10182000F70160817181072E000C880B990B0E94D3
:1018300098252BED3FE049E450E40E94DB2620E0B0
:1018400030E044E353E40E94EE242B013C010E946B
:10185000E9249B01AC01C501B4010E94DB26F7011C
:101860006683778380879187C301B2010E944827EE
:101870009B01AC01C501B4010E94DB26F701628720
:10188000738784879587FFEFCF1ADF0A2EE0E20E79
:10189000F11CB7CF6F8178856F5F7F4F78876F833B
:1018A00081017A87698780917A0590917B05E98526
:1018B000FA85E817F90724F0FEE02F0E311C8ECFD1
:1018C000F1010190F081E02DFC87EB87F80106849F
:1018D000F785E02DFE87ED876B857C856E1B7F0B82
:1018E000072E000C880B990B0E9498252BED3FE0EA
:1018F00049E450E40E94DB2620E030E044E353E476
:101900000E94EE240E94E9246B8B7C8B8D8B9E8B36
:10191000F1010280F381E02DF88BEF87CF016AE0BF
:1019200070E00E94E523072E000C880B990B0E94A3
:1019300098256B017C01F8010088F189E02DFA8B74
:10194000E98BCF016AE070E00E94E523072E000CCE
:10195000880B990B0E9498254B015C01A701960109
:10196000C701B6010E94DB262B013C01A5019401B1
:10197000C501B4010E94DB269B01AC01C301B20189
:101980000E9449242B013C01A7019601C701B60121
:101990000E944924A50194010E94DB262B893C89E1
:1019A0004D895E890E94DB269B01AC01C301B20117
:1019B0000E9448240E94562720E030E040E251E493
:1019C0000E94DB266B017C0120E030E040E752E41E
:1019D0000E94CE2618160CF061C020E030E042EDE7
:1019E00052E4C701B6010E94E42487FF57C08F85E7
:1019F000988929893A89820F931F97FD01969595B9
:101A000087958C599F4FECE8F8E021E040815181A7
:101A10006B857C85641775075CF46D857E8546173C
:101A2000570734F442815381481759070CF420E0DA
:101A30003E967DE0E837F70749F7222379F1809158
:101A4000780590917905EEE0E89FD001E99FB00D0F
:101A50001124A458BA4FF1012EE001900D922A955D
:101A6000E1F79C012F5F3F4FFEE0F29FD001F39F13
:101A7000B00D1124A458BA4FF8013E962EE0019003
:101A80000D922A95E1F70296909379058093780557
:101A90006DEF73E086E89DE00E943C1C29853A8545
:101AA0002F5F3F4F3A872987025F1F4FFCCE69E0C7
:101AB00074E086E89DE00E943C1CF12CE12C8091B2
:101AC000780590917905E816F9060CF046C069E0B2
:101AD00073E086E89DE00E94171CF801468157815B
:101AE0006085718522E030E086E89DE00E94F71D68
:101AF00062E573E086E89DE00E94171CF8014285CC
:101B000053856485758522E030E086E89DE00E947B
:101B1000F71D68E573E086E89DE00E94171CF80158
:101B2000628173814AE050E086E89DE00E94E71CF4
:101B300061E673E086E89DE00E94171CF801608171
:101B400071814AE050E086E89DE00E94EE1CFFEFC4
:101B5000EF1AFF0A025F1F4FB2CF6DE274E086E812
:101B60009DE00E94171C60917805709179054AE00C
:101B7000CE0101960E946C20BE016F5F7F4F86E808
:101B80009DE00E942A1CCE0101960E94DE1F8091DA
:101B900078059091790582309105F9F42F89388D77
:101BA00030931D0220931C0268960FB6F894DEBF96
:101BB0000FBECDBFDF91CF911F910F91FF90EF909E
:101BC000DF90CF90BF90AF909F908F907F906F905D
:101BD0005F904F903F902F900895009711F00397DA
:101BE0001CF38FE090E090931D0280931C02DCCFE9
:101BF0004F925F926F927F928F929F92AF92BF921D
:101C0000CF92DF92EF92FF920F931F93CF93DF93C8
:101C10007C0108EE13E09EE0C92E44EF51E060E045
:101C200070E089E79DE00E94B61197FDB0C040903A
:101C30007F0D5090800D6090810D7090820DA301FA
:101C40009201609120027091210280912202909174
:101C500023020E94CE2687FD32C0A301920160912B
:101C600024027091250280912602909127020E9401
:101C7000E424181624F180907B0D90907C0DA090A8
:101C80007D0DB0907E0DD090830DC301B2010E94F6
:101C900060259B0127583109C29EE001C39ED00DEB
:101CA0001124C457D74F79836883C501B4010E94BA
:101CB00060257B836A838D2D90E09D838C8301500A
:101CC000110909F0AACFCCE8D8E0FE0127E830E0FE
:101CD0000AE010E088E8C82E83E1D82E8281938143
:101CE000009709F074C031832083D382C2823E966C
:101CF0002F5F3F4F213E310589F78091780D882372
:101D000051F108E71DE0688179814AE050E086E8FA
:101D10009DE00E94E71C68E374E086E89DE00E9475
:101D2000171C6A817B814AE050E086E89DE00E94B2
:101D3000E71C68E374E086E89DE00E94171C6C8154
:101D40007D814AE050E086E89DE00E94EE1C2E96E0
:101D50000C171D07C1F670E060E083E00E943C2292
:101D6000B70180911E0290911F02DF91CF911F91C8
:101D70000F91FF90EF90DF90CF90BF90AF909F902A
:101D80008F907F906F905F904F900C942B0B70E032
:101D900060E083E00E943C2268EE73E080E090E027
:101DA0000E94A12128EE33E040E050E060E089E7A6
:101DB0009DE00E943D136FEF70E083E00E943C22A3
:101DC00068EE73E080E090E00E94A12178CFB80136
:101DD0000E94E523738362838ACFCF92DF92EF92D2
:101DE000FF920F931F9363E27EE089E79DE00E94DC
:101DF000961126E040E052EC61E070E086E89DE05C
:101E00000E941B1A61E083E00E947A2361E086E170
:101E10000E947A2361E088E00E947A2361E089E0F1
:101E20000E947A2361E08AE00E947A2362E082E0E5
:101E30000E947A2343E050E067E672E080E00E946F
:101E40000C1E61E086E10E94B6236AE070E080E04B
:101E500090E00E94A1216AE374E086E89DE00E9480
:101E60003C1C68EE73E080E090E00E94A12163E0FA
:101E700085E89DE00E94F4146FE674E0811102C0D1
:101E80006BE774E086E89DE00E943C1C68EE73E01E
:101E900080E090E00E94A12161E070E08CE195E09B
:101EA0000E942218C0901002D0901102E0901202FD
:101EB000F090130200911402109115022091160265
:101EC00030911702409118025091190260911A0244
:101ED00070911B028CE195E00E94441761E070E074
:101EE0008CEC94E00E942218C0901405D090150547
:101EF000E0901605F0901705009108021091090274
:101F000020910A0230910B0240910C0250910D0277
:101F100060910E0270910F028CEC94E00E944417C5
:101F200000E010E020EF31E440E050E060EF71ECC1
:101F30008CEC94E00E945A171F910F91FF90EF9044
:101F4000DF90CF9008958F929F92AF92BF92CF92E1
:101F5000DF92EF92FF920F931F93CF93DF9300D006
:101F600000D000D01F921F92CDB7DEB7E0911C02C7
:101F7000F0911D02E131F10508F033C18827EC53DF
:101F8000F04F8F4F0C941B24D50FF50F21104F10DD
:101F900071108B10F110F110F110F110F110F1101F
:101FA000F110F110F110AB10D1106AE874E086E87E
:101FB0009DE00E943C1C81E090E00E94DC0281E0F8
:101FC00090E02B960FB6F894DEBF0FBECDBFDF9129
:101FD000CF911F910F91FF90EF90DF90CF90BF9026
:101FE000AF909F908F900C94F80D89809A80AB8071
:101FF000BC80CD80DE80EF80F88409851A852B8532
:1020000050E040E070E060E080E00E94690481E020
:1020100090E00E94DC0282E090E02B960FB6F894EC
:10202000DEBF0FBECDBFDF91CF911F910F91FF900B
:10203000EF90DF90CF90BF90AF909F908F900C94D7
:10204000C90883E090E00E94DC0260917405709101
:102050007505809176059091770589809A80AB808F
:10206000BC80CD80DE80EF80F88409851A852B85C1
:1020700043E050E00E9421062B960FB6F894DEBF95
:102080000FBECDBFDF91CF911F910F91FF90EF90C9
:10209000DF90CF90BF90AF909F908F90089581E098
:1020A00090E00E94DC0220E030E040E251E46091E8
:1020B0006C0570916D0580916E0590916F050E9481
:1020C000482489809A80AB80BC80CD80DE80EF8000
:1020D000F88409851A852B8544E050E00E94140598
:1020E000CBCF83E090E00E94DC026091700570919C
:1020F0007105809172059091730589809A80AB80FB
:10210000BC80CD80DE80EF80F88409851A852B8520
:1021100045E050E0AFCF81E090E00E94DC0220E09B
:1021200030E040E252E460916C0570916D05809161
:102130006E0590916F050E94492489809A80AB803A
:10214000BC80CD80DE80EF80F88409851A852B85E0
:1021500040E150E0C3CF65E974E086E89DE00E946D
:102160003C1C8FEF9FEF0E94720282E090E00E9481
:10217000DC0268EB7BE080E090E02B960FB6F894F1
:10218000DEBF0FBECDBFDF91CF911F910F91FF90AA
:10219000EF90DF90CF90BF90AF909F908F900C9476
:1021A000A12181E090E00E94DC026CE974E086E805
:1021B0009DE00E943C1C8FEF9FEF2B960FB6F8948A
:1021C000DEBF0FBECDBFDF91CF911F910F91FF906A
:1021D000EF90DF90CF90BF90AF909F908F900C9436
:1021E000720290E080E02B960FB6F894DEBF0FBE2F
:1021F000CDBFDF91CF911F910F91FF90EF90DF90B6
:10220000CF90BF90AF909F908F900C94DC02AF92D4
:10221000BF92CF92DF92EF92FF920F931F9389E7C5
:102220009DE00E947811A0901402B0901502C09019
:102230001602D0901702E0901802F0901902009157
:102240001A0210911B021F921F92809113028F930A
:10225000809112028F93809111028F9380911002CE
:102260008F9320E635E048E555E06CE575E08CE1BC
:1022700095E00E94E818A0900802B0900902C09072
:102280000A02D0900B02E0900C02F0900D02009137
:102290000E0210910F021F921F92809117058F93CB
:1022A000809116058F93809115058F938091140569
:1022B0008F9328E135E048E055E06CE075E08CEC68
:1022C00094E00E94E8188DB79EB70C960FB6F8946C
:1022D0009EBF0FBE8DBF1F910F91FF90EF90DF90BB
:1022E000CF90BF90AF90089589E79DE00C94941132
:1022F000FC011182108212821382148215821682CE
:10230000178210861186128613860895CF93DF9365
:10231000EC0188819981009721F00E947D1A198231
:102320001882DF91CF9108950C9486110F931F931B
:10233000CF93DF93EC018B0188819981892B19F070
:10234000CE010E94861119830883C8010E947D1A5C
:1023500026E040E052EC61E070E0888199810E94C3
:102360001B1ADF91CF911F910F9108954F925F92A9
:102370006F927F928F929F92AF92BF92EF92FF9255
:102380001F93CF93DF9300D01F921F92CDB7DEB77C
:102390007C012A013B010E9470214B015C0110E08D
:1023A0000E947021681979098A099B094616570607
:1023B0006806790608F472C0D7018D919C91DC0102
:1023C000ED91FC910284F385E02D199597FDE8CFFE
:1023D000112309F457C0113009F45DC091E0910F49
:1023E000E1E0F0E0EC0FFD1FE10FF11D808395307F
:1023F00009F046C06C817D8190E080E00E949625C6
:1024000020E030E040E85EE30E94DB26D701129630
:102410006D937D938D939C9315976A817B817695BF
:10242000679590E080E00E94962520E030E040E84B
:102430005CE30E94DB26F7016683778380879187C0
:102440008981282F30E03595279535952795228766
:102450008170838760E070E0CB010F900F900F9048
:102460000F900F90DF91CF911F91FF90EF90BF9051
:10247000AF909F908F907F906F905F904F90089556
:10248000192F8ECF9C0135952795FC01E2279F01DE
:1024900020FDA4CF85CF80FDA1CF81CF62E070E881
:1024A00080E090E8DACFCF92DF92EF92FF920F9325
:1024B0001F93CF93DF9300D000D01F92CDB7DEB72C
:1024C0007C01162F5F834E8369011D82232B21F02F
:1024D000CA01892B09F0106805EA09831A83D7011C
:1024E0008D919C91DC01ED91FC910280F381E02DB6
:1024F00042E050E0BE016F5F7F4F199517FF40C06B
:102500006D8160276C2561276D83EE81FF819601C7
:102510002E0F3F1FE217F30729F091918D81892734
:102520008D83F8CFCC82F70180819181DC01ED9120
:10253000FC910280F381E02D41E050E0BE016C5F30
:102540007F4F1995F701808191814C8150E0DC012A
:10255000ED91FC910280F381E02DBE016A5F7F4F17
:102560001995F70180819181DC01ED91FC91028048
:10257000F381E02D41E050E0BE016B5F7F4F199584
:1025800060E070E0CB0127960FB6F894DEBF0FBE77
:10259000CDBFDF91CF911F910F91FF90EF90DF9012
:1025A000CF900895FC0120813181232B39F030E058
:1025B00020E050E040E065E20C94531261E070E8E6
:1025C00080E090E808957F928F929F92AF92BF92A1
:1025D000CF92DF92EF92FF920F931F93CF93DF93EF
:1025E0008C01EB0149015A010E9470216B017C01B1
:1025F000712C0E9470216C197D098E099F09861625
:102600009706A806B906A0F1D8018D919C91DC012E
:10261000ED91FC910284F385E02D199597FDE9CFAA
:102620007720F1F0B1E07B16F9F091E0970DFE0113
:10263000E70DF11D8083973089F460E070E0CB01F5
:10264000DF91CF911F910F91FF90EF90DF90CF908E
:10265000BF90AF909F908F907F900895792EC9CFB3
:10266000853A910511F3C5CF8A359105F1F2C0CFB6
:1026700062E070E880E090E8E3CFBF92CF92DF9213
:10268000EF92FF920F931F93CF93DF9300D000D070
:102690001F92CDB7DEB7DC01ED91FC91EF2B09F471
:1026A00040C069017A01B62E8C010E94D21260E20C
:1026B000B11061E230E020E050E040E0C8010E944B
:1026C000531297FD1AC0A7019601BE016F5F7F4F9D
:1026D000C8010E94E31297FD10C08F818138E9F490
:1026E0008B819C81AD812E81B22FBF730597A1058F
:1026F000B10598F060E070E0CB0127960FB6F89432
:10270000DEBF0FBECDBFDF91CF911F910F91FF9024
:10271000EF90DF90CF90BF90089560E070E8CB011C
:10272000ECCF61E070E880E090E8E7CF8EBD0DB4BB
:1027300007FEFDCF8EB50895CF93DF93D82FC62F18
:10274000289882E00E9496138D2F0E9496138C2F5A
:102750000E949613289ADF91CF910895CF93C82FA6
:10276000289883E00E9496138C2F0E9496138FEF77
:102770000E949613289ACF9108951F93CF93DF93C9
:10278000182FD62FC42F289885E00E949613812FEA
:102790000E9496138D2F0E9496138C2F0E949613E1
:1027A000289ADF91CF911F91089528980E9496133F
:1027B0008FEF0E949613289A0895CF93C82F289AD6
:1027C000209A29982A982B98219A229A23986C98D3
:1027D000749A81E58CBD1DBC289880EC0E949613EC
:1027E000289A87EC90E00197F1F700C00000289844
:1027F00082E00E94961388E20E94961382E00E9473
:10280000961380E90E9496138C2F0E94961383E002
:102810000E949613289A8AE20E94AE138C1741F008
:102820008091020180628093020180E0CF9108953F
:1028300060E08CE00E949C1360E08DE00E949C139D
:1028400060E680E60E949C1360E680E70E949C138D
:1028500060E08FE00E949C1381E0E8CFEF92FF924E
:102860000F931F93CF93DF938C0180EB0E94D513BE
:10287000C82F282F2074E22E86FD05C084E9C7FDED
:1028800003C080E040C080E928980E9496138FEF33
:102890000E949613E8E08E9FC0011124F8019183F5
:1028A00080838FEF0E949613282F229526952770FC
:1028B000F80180819181822B918380838FEF0E9428
:1028C00096138FEF0E9496138FEF0E9496138F70CE
:1028D000F82E982F990FF8018281817E892BC3FBF6
:1028E00080F982830D5F1F4FD0E0DF1113C0289A5B
:1028F00040E061E0E11001C062E08CE20E94BD13A3
:102900008C2F87708F5FDF91CF911F910F91FF9078
:10291000EF9008958FEF0E949613F80181938F0135
:10292000DF5FE3CFFF920F931F93CF93DF938C0171
:1029300080EA0E94D51382FF07C084FF44C0C4E030
:1029400086FF03C0C0E038C0C0E028988C2F8064A8
:102950000E949613F8018081918123E096958795D6
:102960002A95E1F70E949613F80180818295880FDD
:10297000807E0E94961380E00E94961380E00E9461
:102980009613F8018281D82FD695DF7080FF1DC085
:102990008D2F80640E949613289A87EC90E001970F
:1029A000F1F700C000002898C11101C0C1E08C2FD0
:1029B00080680E949613289A8C2FDF91CF911F91E7
:1029C0000F91FF900895C2E0C0CF8D2F0E94961303
:1029D0000D5F1F4FF12CFD16F9F2F80181918F0167
:1029E0000E949613F394F7CF862F0C94DD132F9249
:1029F0003F924F925F926F927F928F929F92AF928F
:102A0000BF92CF92DF92EF92FF920F931F93CF93DB
:102A1000DF93CDB7DEB760970FB6F894DEBF0FBE79
:102A2000CDBFDC01DA96BC91BD83B1111BC01D8204
:102A30008D8160960FB6F894DEBF0FBECDBFDF91DB
:102A4000CF911F910F91FF90EF90DF90CF90BF90AB
:102A5000AF909F908F907F906F905F904F903F903E
:102A60002F900895988B8F870E9470216B877C87A9
:102A70008D879E87EF85F88982A193A1A4A1B5A136
:102A80002B853C854D855E85281B390B4A0B5B0BDE
:102A9000DA01C90146A557A560A971A98417950750
:102AA000A607B70720F2048CF58DE02D8081918177
:102AB000A281B38189839A83AB83BC83AF85B889B4
:102AC0009096ED91FC9129813A814B815C816081E6
:102AD0007181828193810E9448244B015C01EF85C2
:102AE000F88922A533A544A555A569817A818B81F2
:102AF0009C810E9448246B017C01AF85B889509667
:102B00002D913D914D915C915397C501B4010E9467
:102B1000DB26EF85F88926A137A140A551A50E94A3
:102B200049242B013C01AF85B88996964D925D9260
:102B30006D927C929997DB96BC91BE83B11118C0BF
:102B4000EF85F8892485358546855785C701B60107
:102B50000E94DB269B01AC01C301B2010E94482404
:102B6000AF85B88996966D937D938D939C93999735
:102B7000EF85F88946A057A060A471A416A907A9FB
:102B800030AC21AC212F302F432D522DC301B20187
:102B90000E94CE2618160CF07FC0812F902FA32DF7
:102BA000B22DEF85F88986A397A3A0A7B1A7BE8110
:102BB000BB2309F490C0EF85F889248535854685C7
:102BC0005785C501B4010E94DB264B015C01AF852E
:102BD000B88954962D913D914D915C915797C701BD
:102BE000B6010E94DB269B01AC01EF85F88966A146
:102BF00077A180A591A50E944824A50194010E9477
:102C000049246B017C019B01AC01612F702F832D46
:102C1000922D0E94E42487FD1BC0AF85B889D2960F
:102C20001C91D297D3960C91D397D4963C90D4977D
:102C3000D5962C909601A701612F702F832D922D90
:102C40000E94CE26181624F01C2D0D2D3E2C2F2C64
:102C5000AF85B8895E96ED91FC91812F902FA32DC1
:102C6000B22D80839183A283B38329813A814B81E2
:102C70005C81AF85B8899A962D933D934D935C9373
:102C80009D972B853C854D855E8592962D933D9332
:102C90004D935C939597CCCEAF85B889D2962D9104
:102CA0003D914D915C91D5972F83388749875A87FD
:102CB000C301B2010E94E42487FF79CF2F813885B8
:102CC00049855A85AF85B88996962D933D934D9346
:102CD0005C9399976CCF812C912C540178CF4F92B3
:102CE0005F926F927F928F929F92AF92BF92CF929C
:102CF000DF92EF92FF920F931F93CF93DF9300D059
:102D000000D0CDB7DEB79E838D8349835A836B8312
:102D10007C832801390120E030E0A90169817A81B2
:102D20008B819C810E94E42487FD97C020E030E0E5
:102D3000A901C301B8010E94E42487FD8EC020E0F0
:102D400030E0A901C701B6010E94E42487FD85C0D7
:102D5000AD81BE815B96BC92AE925A9781E0AA94F7
:102D6000AB2809F080E0ED81FE8183AF89819A81F3
:102D7000AB81BC8180839183A283B38344825582DB
:102D800066827782C086D186E286F38666A577A5BD
:102D900080A991A90E94962520E030E04AE754E4FA
:102DA0000E94EE244B015C0189819A81AB81BC8138
:102DB000ED81FE8184879587A687B787A501940159
:102DC000C301B2010E94DB262B013C01AD81BE8113
:102DD00050964D925D926D927C925397A50194010D
:102DE000C701B6010E94EE246B017C01ED81FE81DA
:102DF000C48AD58AE68AF78A808D918D019769F514
:102E000029813A814B815C8160E070E0CB010E94B6
:102E10004824AD81BE811C966D937D938D939C93C8
:102E20001F97A301920160E070E0CB010E9448244B
:102E3000ED81FE81608B718B828B938BA701960154
:102E400060E070E0CB010E944824AD81BE815496C1
:102E50006D937D938D939C93579726960FB6F89418
:102E6000DEBF0FBECDBFDF91CF911F910F91FF90BD
:102E7000EF90DF90CF90BF90AF909F908F907F901A
:102E80006F905F904F900895AF92BF92CF92DF9274
:102E9000EF92FF920F931F93FC01A28CB38C0E94C0
:102EA0006F161F910F91FF90EF90DF90CF90BF9022
:102EB000AF9008952F923F924F925F926F927F92C0
:102EC0008F929F92AF92BF92CF92DF92EF92FF923A
:102ED0000F931F93CF93DF93EC016A017B014801AD
:102EE0005901A9019801CB01B6010E94CE2687FFA6
:102EF0004FC0CAAADBAAECAAFDAA8EAA9FAAA8AEB6
:102F0000B9AE8AAD882309F443C02E8C3F8CF10101
:102F10004080518062807380A3019201C501B80195
:102F20000E94E42487FF1AC0F10180829182A2826C
:102F3000B3828EA09FA0A8A4B9A4CEA8DFA8E8ACB5
:102F4000F9ACA7019601C501B4010E94CE2618165E
:102F50009CF4CEA2DFA2E8A6F9A61AC0A3019201B2
:102F6000C701B6010E94CE2618161CF7F101C082D7
:102F7000D182E282F382DDCFCAA8DBA8ECA8FDA84B
:102F8000A7019601C501B4010E94E42487FDE1CFA9
:102F9000DF91CF911F910F91FF90EF90DF90CF9035
:102FA000BF90AF909F908F907F906F905F904F9069
:102FB0003F902F9008958F929F92AF92BF92CF92A1
:102FC000DF92EF92FF92CF93DF93EC01EE8DFF8DB6
:102FD000C080D180E280F380CEA2DFA2E8A6F9A66D
:102FE000EC8DFD8D80819181A281B3818AA79BA701
:102FF000ACA7BDA78EA89FA8A8ACB9ACA5019401A9
:10300000C701B6010E94CE2618162CF48EA29FA2EC
:10301000A8A6B9A60CC08AA89BA8ACA8BDA8A50163
:103020009401C701B6010E94E42487FDEFCFDF9130
:10303000CF91FF90EF90DF90CF90BF90AF909F9097
:103040008F9008951F93CF93DF93EC0111E06130CF
:10305000710509F010E06130710531F48AAD81111C
:1030600003C0CE010E94DB171AAFDF91CF911F91F1
:1030700008950F931F93CF93DF93EC018B018AADDB
:10308000882361F1888D998D8617970739F12C85F2
:103090003D854E855F8560E070E0CB010E9448244D
:1030A0006C877D878E879F87288939894A895B89C4
:1030B00060E070E0CB010E944824688B798B8A8B9A
:1030C0009B8B2C893D894E895F8960E070E0CB0144
:1030D0000E9448246C8B7D8B8E8B9F8B198F088F61
:1030E000DF91CF911F910F9108954F925F926F9250
:1030F0007F928F929F92AF92BF92CF92DF92EF9288
:10310000FF920F931F93CF93DF9300D01F92CDB701
:10311000DEB74C0127013801A982BA82CB82DC825A
:10312000FC01578F468F758F648F31A320A312AE99
:1031300080E090E0A0EAB2EC82AB93ABA4ABB5AB7D
:1031400080E090E0A0EAB2E486AB97ABA0AFB1AF6D
:1031500084E690E0A0E0B0E086A797A7A0ABB1AB73
:103160006E8D7F8DC4010E943918AC8CBD8CC88CCB
:10317000D98CEA8CFB8C09811A812B813C81B301AB
:10318000A201C4010E946F160E947021F40146A49E
:1031900057A460A871A8641975098609970962A3E4
:1031A00073A384A395A30F900F900F900F90DF91BE
:1031B000CF911F910F91FF90EF90DF90CF90BF9034
:1031C000AF909F908F907F906F905F904F900895F9
:1031D0008F929F92AF92BF92CF92DF92EF92FF9227
:1031E0000F931F93CF93DF93CDB7DEB7E889F989AB
:1031F000AA89BB899C888D888F929F921F9299245F
:1032000093949F92BF93AF93FF93EF930E9475188F
:103210000FB6F894DEBF0FBECDBFDF91CF911F91E7
:103220000F91FF90EF90DF90CF90BF90AF909F9065
:103230008F900895FC01918D228D892F90E0805C04
:103240009F4F821B91098F7399270895FC01918DDF
:10325000828D981731F0828DE80FF11D858D90E0F9
:1032600008958FEF9FEF0895FC01918D828D98173F
:1032700061F0A28DAE0FBF2FB11D5D968C91928D26
:103280009F5F9F73928F90E008958FEF9FEF089557
:10329000FC01538D448D252F30E0842F90E0821B5C
:1032A000930B541710F0CF960895019708958FEF60
:1032B0009AE1892B49F080E090E0892B29F00E9467
:1032C000FF1A81110E94000080E090E0892B49F0F4
:1032D00080E090E0892B29F00E94000081110E947B
:1032E000000080E090E0892B49F080E090E0892B9D
:1032F00029F00E94000081110E94000086E99BE1F4
:10330000892B49F080E090E0892B29F00E94961BE0
:1033100081110C9400000895FC01A48DA80FB92F11
:10332000B11DA35ABF4F2C91848D90E001968F73ED
:103330009927848FA689B7892C93A089B1898C910C
:10334000837080648C93938D848D981306C002885B
:10335000F389E02D80818F7D80830895CF93DF9363
:10336000EC01888D8823B9F0AA89BB89E889F9899D
:103370008C9185FD03C0808186FD0DC00FB607FCD2
:10338000F7CF8C9185FFF2CF808185FFEDCFCE0105
:103390000E948C19E9CFDF91CF910895EF92FF92AF
:1033A0000F931F93CF93DF93EC0181E0888F9B8D68
:1033B0008C8D98131AC0E889F989808185FF15C022
:1033C0009FB7F894EE89FF896083E889F989808145
:1033D0008370806480839FBF81E090E0DF91CF9114
:1033E0001F910F91FF90EF900895F62E0B8D10E036
:1033F0000F5F1F4F0F731127E02E8C8D8E110CC0A5
:103400000FB607FCFACFE889F989808185FFF5CFEF
:10341000CE010E948C19F1CFEB8DEC0FFD2FF11D29
:10342000E35AFF4FF0829FB7F8940B8FEA89FB892C
:1034300080818062CFCFCF92DF92EF92FF921F9375
:10344000CF93DF93EC016A017B01122FE889F989A0
:1034500082E08083C11481EED806E104F104A1F07A
:1034600060E079E08DE390E0A70196010E94F923E6
:1034700021503109410951095695479537952795AE
:10348000211580E1380798F0E889F989108260E811
:1034900074E88EE190E0A70196010E94F923215083
:1034A0003109410951095695479537952795EC857E
:1034B000FD853083EE85FF852083188EEC89FD899C
:1034C0001083EA89FB89808180618083EA89FB8996
:1034D000808188608083EA89FB898081806880831D
:1034E000EA89FB8980818F7D8083DF91CF911F9155
:1034F000FF90EF90DF90CF900895CF93DF93EC0192
:10350000E881F9810680F781E02D1995EA89FB8928
:1035100080818F7E8083EA89FB898081877F808399
:10352000EA89FB8980818F778083EA89FB898081A2
:103530008F7D80838A8D898FDF91CF9108951F922F
:103540000F920FB60F9211240BB60F922F938F93F9
:103550009F93EF93FF93E091960DF091970D8081EB
:10356000E0919C0DF0919D0D82FD1DC09081809198
:103570009F0D8F5F8F732091A00D821741F0E09116
:103580009F0DF0E0EA57F24F958F80939F0DFF91CA
:10359000EF919F918F912F910F900BBE0F900FBEC7
:1035A0000F901F9018958081F2CF1F920F920FB647
:1035B0000F9211240BB60F922F933F934F935F936B
:1035C0006F937F938F939F93AF93BF93EF93FF93EB
:1035D00086E89DE00E948C19FF91EF91BF91AF9119
:1035E0009F918F917F916F915F914F913F912F911B
:1035F0000F900BBE0F900FBE0F901F90189586E88E
:103600009DE00E941A1921E0892B09F420E0822F05
:103610000895E6E8FDE01382128288EE93E0A0E0D0
:10362000B0E084839583A683B7838DEA94E0918389
:10363000808385EC90E09587848784EC90E0978781
:10364000868780EC90E0918B808B81EC90E0938B6F
:10365000828B82EC90E0958B848B86EC90E0978B4C
:10366000868B118E128E138E148E08951F920F92D8
:103670000FB60F9211240BB60F922F938F939F9337
:10368000EF93FF93E091330EF091340E8081E0913F
:10369000390EF0913A0E82FD1DC0908180913C0E52
:1036A0008F5F8F7320913D0E821741F0E0913C0EA9
:1036B000F0E0ED5DF14F958F80933C0EFF91EF911F
:1036C0009F918F912F910F900BBE0F900FBE0F9077
:1036D0001F9018958081F2CF1F920F920FB60F9214
:1036E00011240BB60F922F933F934F935F936F93D9
:1036F0007F938F939F93AF93BF93EF93FF9383E257
:103700009EE00E948C19FF91EF91BF91AF919F9124
:103710008F917F916F915F914F913F912F910F907A
:103720000BBE0F900FBE0F901F90189583E29EE086
:103730000E941A1921E0892B09F420E0822F0895B4
:10374000E3E2FEE01382128288EE93E0A0E0B0E0B4
:1037500084839583A683B7838DEA94E091838083E5
:1037600085E391E09587848784E391E09787868756
:1037700080E391E0918B808B81E391E0938B828B4E
:1037800082E391E0958B848B86E391E0978B868B27
:10379000118E128E138E148E0895AF92BF92CF9217
:1037A000DF92EF92FF920F931F93CF93DF936C0101
:1037B0007B018B01040F151FEB015E01AE18BF08E2
:1037C000C017D10759F06991D601ED91FC91019094
:1037D000F081E02DC6011995892B79F7C501DF919C
:1037E000CF911F910F91FF90EF90DF90CF90BF90FE
:1037F000AF900895FB0101900020E9F73197AF01E8
:10380000461B570BDC01ED91FC910280F381E02D0A
:103810001994DB0114964D915C9115976D917C91F3
:10382000DC01ED91FC910280F381E02D199461158A
:10383000710511F00C94FA1B90E080E00895DC0112
:10384000ED91FC910190F081E02D19946BEB74E007
:103850000C94FA1B0F931F93CF93DF93EC010E94FC
:10386000091C8C01CE010E94261C800F911FDF9144
:10387000CF911F910F9108950F931F93CF93DF93D3
:103880008C01D0E0C0E06115710519F00E94FA1BAF
:10389000EC01C8010E94261C8C0F9D1FDF91CF9167
:1038A0001F910F9108958F929F92AF92BF92EF92C6
:1038B000FF920F931F93CF93DF93CDB7DEB7A197FE
:1038C0000FB6F894DEBF0FBECDBF7C01FA01CB016D
:1038D00019A2223008F42AE08E010F5D1F4F822EBC
:1038E000912CB12CA12CBF01A50194010E94F923B8
:1038F000F901CA016A300CF5605DD8016E938D0143
:10390000232B242B252B79F790E080E0109721F0D2
:10391000BD01C7010E94FA1BA1960FB6F894DEBF45
:103920000FBECDBFDF91CF911F910F91FF90EF9010
:10393000BF90AF909F908F900895695CDECFCF923B
:10394000DF92EF92FF920F931F93CF93DF93211596
:10395000310581F4DC01ED91FC910190F081E02DC5
:10396000642FDF91CF911F910F91FF90EF90DF9027
:10397000CF9019942A30310501F52AE077FF1DC058
:103980006A017B01EC016DE20E941F1C8C0144273F
:103990005527BA014C195D096E097F092AE0CE014D
:1039A0000E94531C800F911FDF91CF911F910F91A7
:1039B000FF90EF90DF90CF900895DF91CF911F910E
:1039C0000F91FF90EF90DF90CF900C94531C9A01D1
:1039D000AB01770F660B770B0C949F1C0F931F9313
:1039E000CF93DF93EC010E94E71C8C01CE010E9473
:1039F000261C800F911FDF91CF911F910F91089589
:103A00002115310541F4DC01ED91FC910190F0812B
:103A1000E02D642F19940C94531C9A01AB0170E0B3
:103A200060E00C94001D2F923F924F925F926F9234
:103A30007F928F929F92AF92BF92CF92DF92EF923E
:103A4000FF921F93CF93DF93EC016A017B01722EEB
:103A5000AB019601CB01B6010E949A276EEB74E090
:103A6000811126C046015701E894B7F82FEF3FEFC8
:103A70004FE75FE7C501B4010E949A2781110CC08E
:103A80002FEF3FEF4FE75FE7C501B4010E94E42449
:103A900062EC74E0181664F02FEF3FEF4FE75FE43D
:103AA000C701B6010E94CE261816B4F466EC74E085
:103AB000CE01DF91CF911F91FF90EF90DF90CF90DB
:103AC000BF90AF909F908F907F906F905F904F903E
:103AD0003F902F900C94FA1B2FEF3FEF4FE75FECD6
:103AE000C701B6010E94E42487FDE0CF20E030E06A
:103AF000A901C701B6010E94E424312C212C87FFC3
:103B000009C06DE2CE010E941F1C1C01F7FAF0945F
:103B1000F7F8F09410E060E070E080E09FE3711649
:103B200041F020E030E040E251E40E94EE241F5FCB
:103B3000F6CFA70196010E9449242B013C010E9467
:103B400067254B015C012AE0BC01A401CE010E9463
:103B5000531C7C01E20CF31C1123B1F1C501B4012B
:103B60000E9496259B01AC01C301B2010E9448242A
:103B70004B015C016EE2CE010E941F1CE80EF91E93
:103B8000115010F120E030E040E251E4C501B401F1
:103B90000E94DB262B013C010E9467254B014AE075
:103BA00050E0CE010E940D1DE80EF91EB40190E018
:103BB00080E00E9496259B01AC01C301B2010E94E6
:103BC00048244B015C01DCCFC701DF91CF911F91ED
:103BD000FF90EF90DF90CF90BF90AF909F908F902D
:103BE0007F906F905F904F903F902F9008950C942E
:103BF000131D0F931F93CF93DF93EC010E94131DAE
:103C00008C01CE010E94261C800F911FDF91CF9165
:103C10001F910F9108950895883008F076C0E82F1D
:103C2000F0E0EE0FFF1FE85DFD4F71836083815070
:103C3000873008F03DC0E82FF0E08827ED5DF14EB9
:103C40008F4F0C941B24601E2A1E321E3E1E4B1EDC
:103C50006C1E791E809169008C7F482B409369000F
:103C6000E89A089580916900837F440F551F440F9F
:103C7000551F482B40936900E99A08958091690087
:103C80008F7C74E0440F551F7A95E1F7482B4093E1
:103C90006900EA9A0895809169008F7366E0440F85
:103CA000551F6A95E1F7482B40936900EB9A0895F8
:103CB00080916A008C7F482B40936A00EC9A0895AB
:103CC00080916A00837F440F551F440F551F482B76
:103CD00040936A00ED9A089580916A008F7C24E0F9
:103CE000440F551F2A95E1F7482B40936A00EE9A3E
:103CF000089580916A008F7396E0440F551F9A953E
:103D0000E1F7482B40936A00EF9A08951F920F92B3
:103D10000FB60F9211240BB60F922F933F934F9330
:103D20005F936F937F938F939F93AF93BF93EF9323
:103D3000FF93E0912C02F0912D021995FF91EF91E4
:103D4000BF91AF919F918F917F916F915F914F91B3
:103D50003F912F910F900BBE0F900FBE0F901F90B1
:103D600018951F920F920FB60F9211240BB60F9257
:103D70002F933F934F935F936F937F938F939F9373
:103D8000AF93BF93EF93FF93E0912E02F0912F0238
:103D90001995FF91EF91BF91AF919F918F917F9175
:103DA0006F915F914F913F912F910F900BBE0F90AC
:103DB0000FBE0F901F9018951F920F920FB60F9283
:103DC00011240BB60F922F933F934F935F936F93F2
:103DD0007F938F939F93AF93BF93EF93FF93E09164
:103DE0003002F09131021995FF91EF91BF91AF919F
:103DF0009F918F917F916F915F914F913F912F9103
:103E00000F900BBE0F900FBE0F901F9018951F9232
:103E10000F920FB60F9211240BB60F922F933F9370
:103E20004F935F936F937F938F939F93AF93BF93C2
:103E3000EF93FF93E0913202F09133021995FF91D5
:103E4000EF91BF91AF919F918F917F916F915F9112
:103E50004F913F912F910F900BBE0F900FBE0F907F
:103E60001F9018951F920F920FB60F9211240BB648
:103E70000F922F933F934F935F936F937F938F9303
:103E80009F93AF93BF93EF93FF93E0912802F0913C
:103E900029021995FF91EF91BF91AF919F918F9159
:103EA0007F916F915F914F913F912F910F900BBE3A
:103EB0000F900FBE0F901F9018951F920F920FB684
:103EC0000F9211240BB60F922F933F934F935F9352
:103ED0006F937F938F939F93AF93BF93EF93FF93D2
:103EE000E0912A02F0912B021995FF91EF91BF9179
:103EF000AF919F918F917F916F915F914F913F9182
:103F00002F910F900BBE0F900FBE0F901F90189522
:103F10001F920F920FB60F9211240BB60F922F9390
:103F20003F934F935F936F937F938F939F93AF9341
:103F3000BF93EF93FF93E0913402F091350219950E
:103F4000FF91EF91BF91AF919F918F917F916F9171
:103F50005F914F913F912F910F900BBE0F900FBE2D
:103F60000F901F9018951F920F920FB60F92112469
:103F70000BB60F922F933F934F935F936F937F9363
:103F80008F939F93AF93BF93EF93FF93E09136028C
:103F9000F09137021995FF91EF91BF91AF919F91E9
:103FA0008F917F916F915F914F913F912F910F90E2
:103FB0000BBE0F900FBE0F901F901895FC018081D3
:103FC00091810C948228CF93DF93EC0188819981B1
:103FD000009711F00E948228198218821D821C828B
:103FE0001B821A82DF91CF9108950F931F93CF9375
:103FF000DF93EC018B016F5F7F4F888199810E9475
:104000000B29009751F0998388831B830A8381E0F1
:10401000DF91CF911F910F91089580E0F9CFCF9359
:10402000DF93EC0188819981892B49F08A819B81FA
:104030008617970720F081E0DF91CF910895CE0198
:104040000E94F51F8823C1F38C819D81892B99F7EC
:10405000E881F9811082EFCFEF92FF920F931F93C7
:10406000CF93DF93EC017B018A01BA010E940F20FC
:1040700081110BC0CE010E94E31FCE01DF91CF91D1
:104080001F910F91FF90EF9008951D830C83B7014E
:10409000888199810E94F529F0CFFC01118210825C
:1040A00013821282158214826115710551F0FB0191
:1040B00001900020E9F73197AF01461B570B0C9494
:1040C0002C200895FB0101900020E9F73197AF0102
:1040D000461B570B0C942C200F931F93CF93DF9309
:1040E000CDB7DEB762970FB6F894DEBF0FBECDBF77
:1040F0008C01CB01F8011182108213821282158289
:10410000148250E0BE016F5F7F4F0E94FC29BE0108
:104110006F5F7F4FC8010E94622062960FB6F894CD
:10412000DEBF0FBECDBFDF91CF911F910F910895DC
:10413000CF93DF93EC016115710531F00E9462208D
:10414000CE01DF91CF9108950E94E31FF9CFEF9246
:10415000FF920F931F93CF93DF93CDB7DEB7A19755
:104160000FB6F894DEBF0FBECDBF7C01CB01BA0104
:10417000F70111821082138212821582148242E0AA
:10418000420F8E010F5F1F4F0E94C827BC01C7015D
:104190000E949820A1960FB6F894DEBF0FBECDBF47
:1041A000DF91CF911F910F91FF90EF900895EF92C3
:1041B000FF920F931F93CF93DF936115710541F425
:1041C00080E0DF91CF911F910F91FF90EF900895C4
:1041D00041155105B1F07B01EC010C811D81040FEB
:1041E000151FB8010E940F20882351F328813981BF
:1041F0008C819D81B701820F931F0E94F5291D8339
:104200000C8381E0DECFCF93DF93EC01FB0144818F
:104210005581608171810E94D720811103C0CE0138
:104220000E94E31FCE01DF91CF91089508950E946F
:10423000DA210E9416210E94ED0EC7E5D9E10E9405
:10424000A30F2097E1F30E945719F9CF1F920F9205
:104250000FB60F9211242F933F938F939F93AF9399
:10426000BF938091C10E9091C20EA091C30EB091E8
:10427000C40E3091C00E23E0230F2D3758F5019660
:10428000A11DB11D2093C00E8093C10E9093C20E4C
:10429000A093C30EB093C40E8091C50E9091C60E2C
:1042A000A091C70EB091C80E0196A11DB11D8093BB
:1042B000C50E9093C60EA093C70EB093C80EBF91C3
:1042C000AF919F918F913F912F910F900FBE0F90C3
:1042D0001F90189526E8230F0296A11DB11DD2CF7D
:1042E0002FB7F8946091C10E7091C20E8091C30EE9
:1042F0009091C40E2FBF08953FB7F8948091C50EDA
:104300009091C60EA091C70EB091C80E26B5A89B7D
:1043100005C02F3F19F00196A11DB11D3FBFBA2F57
:10432000A92F982F8827BC01CD01620F711D811D17
:10433000911D42E0660F771F881F991F4A95D1F79C
:1043400008958F929F92AF92BF92CF92DF92EF9299
:10435000FF926B017C010E947C214B015C01C11426
:10436000D104E104F104E9F00E94E4230E947C21DD
:10437000681979098A099B09683E7340810591058E
:1043800070F321E0C21AD108E108F10888EE880E26
:1043900083E0981EA11CB11CC114D104E104F104F6
:1043A00029F7FF90EF90DF90CF90BF90AF909F9054
:1043B0008F900895789484B5826084BD84B58160BF
:1043C00084BD85B5826085BD85B5816085BDEEE61D
:1043D000F0E0808181608083E1E8F0E010828081FC
:1043E00082608083808181608083E0E8F0E080816A
:1043F00081608083E1EBF0E0808184608083E0EB8A
:10440000F0E0808181608083E1E9F0E0808182607A
:104410008083808181608083E0E9F0E08081816039
:104420008083E1EAF0E08081826080838081816026
:104430008083E0EAF0E0808181608083E1E2F1E066
:10444000808182608083808181608083E0E2F1E00E
:10445000808181608083EAE7F0E0808184608083EE
:104460008081826080838081816080838081806898
:1044700080831092C10008951F93CF93DF93182F6C
:10448000EB0161E00E947A23209739F460E0812FEC
:10449000DF91CF911F910C94B623CF3FD10511F43A
:1044A00061E0F5CFE12FF0E0E65AFC4FE491E150F6
:1044B000E23108F0B3C0F0E08827EE59FD4D8F4F90
:1044C0000C941B2474227C2281228B2295220E23A1
:1044D0009F22A722AF22B922C322CD22DC22E622CC
:1044E0000E23F022FA22042384B5806884BDC7BD60
:1044F000DF91CF911F91089584B5806284BDC8BDBE
:10450000F7CF80918000806880938000D0938900ED
:10451000C0938800EDCF80918000806280938000FE
:10452000D0938B00C0938A00E3CF80918000886095
:1045300080938000D0938D00C0938C00D9CF809160
:10454000B00080688093B000C093B300D1CF809159
:10455000B00080628093B000C093B400C9CF809156
:104560009000806880939000D0939900C093980049
:10457000BFCF80919000806280939000D0939B0089
:10458000C0939A00B5CF809190008860809390008E
:10459000D0939D00C0939C00ABCF8091A000806819
:1045A0008093A0008091A0008F7B8093A000D09387
:1045B000A900C093A8009CCF8091A0008062809346
:1045C000A000D093AB00C093AA0092CF8091A0002E
:1045D00088608093A000D093AD00C093AC0088CFDA
:1045E00080912001806880932001D0932901C0939D
:1045F00028017ECF80912001806280932001D0939A
:104600002B01C0932A0174CF809120018860809390
:104610002001D0932D01C0932C016ACFC038D10561
:104620000CF03ECF33CF8150823108F05AC0E82FD2
:10463000F0E08827E15EFC4D8F4F0C941B243F2354
:104640004323312337233B23712346234C23502319
:1046500056235A235E236423682371236C23722319
:104660007623809180008F778093800008958091D9
:1046700080008F7DF9CF80918000877FF5CF84B552
:104680008F7784BD089584B58F7DFBCF8091B00076
:104690008F778093B00008958091B0008F7DF9CF1F
:1046A000809190008F778093900008958091900082
:1046B0008F7DF9CF80919000877FF5CF8091A0000A
:1046C0008F778093A00008958091A0008F7DF9CF0F
:1046D0008091A000877FF5CF809120018F77809314
:1046E00020010895809120018F7DF9CF80912001D4
:1046F000877FF5CFCF93DF9390E0FC01E056FC4F2E
:1047000024918A519C4FFC0184918823C9F090E048
:10471000880F991FFC01EA5BFB4FA591B491FC0146
:10472000E45DFB4FC591D49161110DC09FB7F89422
:104730008C91209582238C938881282328839FBF86
:10474000DF91CF910895623051F49FB7F8943C9176
:10475000822F809583238C93E8812E2BEFCF8FB708
:10476000F894EC912E2B2C938FBFEACF1F93CF930D
:10477000DF93282F30E0F901E65AFC4F8491F901CC
:10478000E056FC4FD491F901EA51FC4FC491CC237F
:10479000A9F0162F81110E941323EC2FF0E0EE0FE9
:1047A000FF1FE45DFB4FA591B4918FB7F894EC9196
:1047B000111108C0D095DE23DC938FBFDF91CF911C
:1047C0001F910895DE2BF8CF089597FB072E16F45E
:1047D000009407D077FD09D00E94232407FC05D060
:1047E0003EF4909581959F4F0895709561957F4F08
:1047F0000895A1E21A2EAA1BBB1BFD010DC0AA1F22
:10480000BB1FEE1FFF1FA217B307E407F50720F039
:10481000A21BB30BE40BF50B661F771F881F991FB4
:104820001A9469F760957095809590959B01AC01FD
:10483000BD01CF010895EE0FFF1F881F8BBF0790AA
:10484000F691E02D1994AA1BBB1B51E107C0AA1FCA
:10485000BB1FA617B70710F0A61BB70B881F991F21
:104860005A95A9F780959095BC01CD0108959F9325
:104870009F770E94D3250F90002042F49058A2EA1F
:104880002AED3FE049E450E40E9460240C94802625
:104890005058BB27AA270E9460240C9480260E94AF
:1048A000472638F00E944E2620F039F49F3F19F435
:1048B00026F40C941D260EF4E095E7FB0C941726C5
:1048C000E92F0E94A52658F3BA17620773078407D9
:1048D000950720F079F4A6F50C94C7260EF4E09520
:1048E0000B2EBA2FA02D0B01B90190010C01CA01AA
:1048F000A0011124FF27591B99F0593F50F4503E55
:1049000068F11A16F040A22F232F342F4427585F46
:10491000F3CF469537952795A795F0405395C9F75E
:104920007EF41F16BA0B620B730B840BBAF0915016
:10493000A1F0FF0FBB1F661F771F881FC2F70EC0B5
:10494000BA0F621F731F841F48F487957795679588
:10495000B795F7959E3F08F0B0CF9395880F08F074
:104960009927EE0F979587950895DF93DD27B92F47
:10497000BF7740E85FE31616170648075B0718F491
:10498000D92F0E94D3269F938F937F936F930E947A
:104990009627E4EEF0E00E9420260E9480262F91C8
:1049A0003F914F915F910E94EE26DD2351F0905888
:1049B000A2EA2AED3FE049EC5FE3D0785D270E9450
:1049C0006024DF910C9480260E94F32508F481E096
:1049D00008950E945726E3950C9491260E94022583
:1049E0000C9480260E944E2658F00E94472640F0E4
:1049F00029F45F3F29F00C94172651110C94C82616
:104A00000C941D260E94A52668F39923B1F3552323
:104A100091F3951B550BBB27AA27621773078407D1
:104A200038F09F5F5F4F220F331F441FAA1FA9F367
:104A300035D00E2E3AF0E0E832D091505040E69555
:104A4000001CCAF72BD0FE2F29D0660F771F881FB6
:104A5000BB1F261737074807AB07B0E809F0BB0BA9
:104A6000802DBF01FF2793585F4F3AF09E3F5105BD
:104A700078F00C9417260C94C8265F3FE4F3983E18
:104A8000D4F3869577956795B795F7959F5FC9F7A6
:104A9000880F911D9695879597F90895E1E0660F27
:104AA000771F881FBB1F621773078407BA0720F0A0
:104AB000621B730B840BBA0BEE1F88F7E095089509
:104AC0000E9467256894B1110C94C82608950E942D
:104AD000AD2688F09F5798F0B92F9927B751B0F0BD
:104AE000E1F0660F771F881F991F1AF0BA95C9F772
:104AF00014C0B13091F00E94C726B1E008950C9423
:104B0000C726672F782F8827B85F39F0B93FCCF3D5
:104B1000869577956795B395D9F73EF490958095EE
:104B2000709561957F4F8F4F9F4F0895E89409C00E
:104B300097FB3EF490958095709561957F4F8F4FD0
:104B40009F4F9923A9F0F92F96E9BB279395F695E6
:104B5000879577956795B795F111F8CFFAF4BB0F64
:104B600011F460FF1BC06F5F7F4F8F4F9F4F16C0C8
:104B7000882311F096E911C0772321F09EE8872F52
:104B8000762F05C0662371F096E8862F70E060E00E
:104B90002AF09A95660F771F881FDAF7880F969587
:104BA000879597F90895DF93CF931F930F938B0108
:104BB000EC01E1E1F1E00E9420260E9480269801AC
:104BC000AE018B01EC0160E070E080E89FE30E94A1
:104BD00048240E9456279801AE010F911F91CF9152
:104BE000DF910C94EE26990F0008550FAA0BE0E810
:104BF000FEEF16161706E807F907C0F0121613069F
:104C0000E407F50798F0621B730B840B950B39F4DE
:104C10000A2661F0232B242B252B21F408950A2644
:104C200009F4A140A6958FEF811D811D089597F984
:104C30009F6780E870E060E008959FEF80EC089542
:104C4000DF93CF931F930F93FF92EF92DF927B013D
:104C50008C01689406C0DA2EEF010E94EE26FE0158
:104C6000E894A5912591359145915591A6F3EF01D1
:104C70000E946024FE019701A801DA9469F7DF9091
:104C8000EF90FF900F911F91CF91DF910895002435
:104C90000A941616170618060906089500240A94A1
:104CA000121613061406050608950C941D260E947C
:104CB000AD26D8F3E894E0E0BB279F57F0F02AED4B
:104CC0003FE049EC06C0EE0FBB0F661F771F881F41
:104CD00028F0B23A62077307840728F0B25A620BD1
:104CE000730B840BE3959A9572F7803830F49A959C
:104CF000BB0F661F771F881FD2F790480C94A1271F
:104D0000092E0394000C11F4882352F0BB0F40F4D9
:104D1000BF2B11F460FF04C06F5F7F4F8F4F9F4F19
:104D20000895EF93E0FF07C0A2EA2AED3FE049ECC7
:104D30005FEB0E9460240E9480260F90039401FC88
:104D40009058E9E3F1E00C94B42757FD9058440FD4
:104D5000551F59F05F3F71F04795880F97FB991FDA
:104D600061F09F3F79F08795089512161306140697
:104D7000551FF2CF4695F1DF08C016161706180624
:104D8000991FF1CF86957105610508940895E894FF
:104D9000BB2766277727CB0197F908950E94F32553
:104DA00008F48FEF08959B01AC0160E070E080E8AB
:104DB0009FE30C94EE240E94EE260C9480260E9421
:104DC000472638F00E944E2620F0952311F00C94CF
:104DD00017260C941D2611240C94C8260E94A52683
:104DE00070F3959FC1F3950F50E0551F629FF0013E
:104DF000729FBB27F00DB11D639FAA27F00DB11D57
:104E0000AA1F649F6627B00DA11D661F829F2227DF
:104E1000B00DA11D621F739FB00DA11D621F839F66
:104E2000A00D611D221F749F3327A00D611D231F3C
:104E3000849F600D211D822F762F6A2F11249F578A
:104E400050409AF0F1F088234AF0EE0FFF1FBB1F8D
:104E5000661F771F881F91505040A9F79E3F51054C
:104E600080F00C9417260C94C8265F3FE4F3983E1C
:104E7000D4F3869577956795B795F795E7959F5FF6
:104E8000C1F7FE2B880F911D9695879597F9089588
:104E90009F930E9457260F9007FCEE5F0C9491267B
:104EA00019F416F40C941D260C949F270E94AD262D
:104EB000B8F39923C9F3B6F39F57550B87FF0E94A8
:104EC000AD270024A0E640EA9001805856959795BA
:104ED00028F4805C660F771F881F20F0261737079D
:104EE000480730F4621B730B840B202931294A2BAD
:104EF000A69517940794202531254A2758F7660F61
:104F0000771F881F20F026173707480730F4620BF9
:104F1000730B840B200D311D411DA09581F7B90144
:104F2000842F9158880F9695879508959B01AC0121
:104F30000C94DB260E94F325880B990B08959F3F64
:104F400031F0915020F4879577956795B795880F44
:104F5000911D9695879597F9089591505040660F49
:104F6000771F881FD2F708959F938F937F936F9336
:104F7000FF93EF939B01AC010E94DB26EF91FF9121
:104F80000E9420262F913F914F915F910C94DB2638
:104F9000EF920F931F93CF93DF93E80134E047FD27
:104FA00034E1042E000C550B57FF03C05195419579
:104FB0005109E32E022F242FAE010E942C2ACE018C
:104FC000DF91CF911F910F91EF9008950F931F9351
:104FD000CF93DF938230910510F482E090E0E0916E
:104FE000CB0EF091CC0E30E020E0B0E0A0E03097A6
:104FF00099F42115310509F44AC0281B390B2430D6
:105000003105D8F58A819B816115710589F1FB0114
:1050100093838283FE0111C04081518102811381FB
:1050200048175907E0F04817590799F4109761F0AD
:1050300012960C93129713961C933296CF01DF9120
:10504000CF911F910F9108950093CB0E1093CC0E2A
:10505000F4CF2115310551F04217530738F0A9015B
:10506000DB019A01BD01DF01F801C1CFEF01F9CFEA
:105070009093CC0E8093CB0ECDCFFE01E20FF31FA9
:10508000819391932250310939832883D7CF20917E
:10509000C90E3091CA0E232B41F4209102023091A7
:1050A00003023093CA0E2093C90E20910002309162
:1050B00001022115310541F42DB73EB7409104029C
:1050C00050910502241B350BE091C90EF091CA0ED8
:1050D000E217F307A0F42E1B3F0B2817390778F0CF
:1050E000AC014E5F5F4F2417350748F04E0F5F1F2E
:1050F0005093CA0E4093C90E819391939FCFF0E0D5
:10510000E0E09CCFCF93DF930097E9F0FC0132976A
:1051100013821282A091CB0EB091CC0EED0130E043
:1051200020E01097A1F420813181820F931F2091FC
:10513000C90E3091CA0E2817390709F061C0F093E3
:10514000CA0EE093C90EDF91CF910895EA01CE1700
:10515000DF07E8F54A815B819E0141155105B1F7F2
:10516000E901FB83EA8349915991C40FD51FEC17DC
:10517000FD0761F4808191810296840F951FE901FA
:1051800099838883828193819B838A83F0E0E0E026
:1051900012968D919C9113970097B9F52D913C91A2
:1051A0001197CD010296820F931F2091C90E309165
:1051B000CA0E2817390739F6309751F51092CC0EE0
:1051C0001092CB0EB093CA0EA093C90EBCCFD3835E
:1051D000C28340815181840F951FC817D90761F49C
:1051E0004E5F5F4F88819981480F591F51834083DB
:1051F0008A819B81938382832115310509F0B0CF89
:10520000F093CC0EE093CB0E9ECFFD01DC01C0CF1E
:1052100013821282D7CF4F925F926F927F928F92BA
:105220009F92AF92BF92CF92DF92EF92FF920F9335
:105230001F93CF93DF938C01009799F4CB01DF91FB
:10524000CF911F910F91FF90EF90DF90CF90BF9083
:10525000AF909F908F907F906F905F904F900C9445
:10526000E627FC01E60FF71F9C0122503109E217E7
:10527000F30708F4AEC0D901CD91DC911197C617A0
:10528000D70720F1C530D10578F0CE0104978617F5
:10529000970750F0C61BD70B2297C193D1936D93FC
:1052A0007C93CF010E948228C801DF91CF911F918A
:1052B0000F91FF90EF90DF90CF90BF90AF909F90B5
:1052C0008F907F906F905F904F9008955B01AC1A24
:1052D000BD0A4C018C0E9D1EA091CB0EB091CC0E40
:1052E000512C412CF12CE12C109731F58091C90EF5
:1052F0009091CA0E8815990509F05CC046165706AC
:1053000008F058C08091000290910102009741F48A
:105310008DB79EB74091040250910502841B950BF6
:10532000E817F90708F055C0F093CA0EE093C90ECC
:10533000F90171836083B8CF8D919C91119712967A
:105340006C90129713967C901397A815B90559F590
:105350006C0142E0C40ED11CCA14DB0420F1AC0184
:105360004A195B09DA011296159780F062827382FE
:1053700051834083D9016D937C93E114F10471F062
:10538000D7011396FC93EE9312978ECF22968C0F33
:105390009D1FF90191838083F301EFCFF093CC0E31
:1053A000E093CB0E81CF4816590608F42C017D01FD
:1053B000D3019ACFCB010E94E6277C01009749F0E8
:1053C000AE01B8010E94EC29C8010E948228870121
:1053D0006BCF10E000E068CFFB01DC0102C0019060
:1053E0000D9241505040D8F70895FB01DC01019027
:1053F0000D920020E1F708954532510520F4423026
:1054000010F00C94072AFB011082CB010895BB27F2
:105410004A3031F4992322F4BDE2909581959F4F53
:105420000C94132ABB27FB015527AA27880F991F25
:10543000AA1FA41710F0A41B83955051B9F7A05DC3
:10544000AA3308F0A95DA193009779F7B111B19340
:105450001192CB010C947D2C8F929F92AF92BF92B0
:10546000CF92DF92EF92FF920F931F93CF93DF9330
:1054700000D000D000D0CDB7DEB76A01F22EB02E3A
:10548000102FFBE3AF2EA01608F41BE31F5F012FC4
:1054900027E0AE014F5F5F4F0E94A52BBC018981C1
:1054A000982F9970913009F44EC09BE2E1FC04C042
:1054B0009E2D9170E0FC49C05E2D5071E82FE87080
:1054C00083FF55C084E0911101C083E0EF2DE81BFC
:1054D0008F1508F0E0E0D6018E2F20E25523C9F1A8
:1054E000992329F0D6019C93C60101966C0196017F
:1054F0002D5F3F4FE2FE33C08EE4D6018C9391E4E2
:1055000011969C93119712968C93D9018E2F90E24D
:1055100081112AC0E20FF32FF11D10828EEF9FEF51
:1055200029960FB6F894DEBF0FBECDBFDF91CF91A5
:105530001F910F91FF90EF90DF90CF90BF90AF90B1
:105540009F908F9008959DE2B7CF90E2B5CF2D93B5
:1055500081508111FCCFCE0ED11CE0E0C1CF8EE690
:10556000D6018C9391E6CCCF9D938150D1CF482F1B
:10557000447082FF3DC084E0911101C083E08F152B
:1055800010F4EF2DE81BD6018E2F20E2552309F1F0
:10559000992329F0D6019C93C60101966C019601CE
:1055A0002D5F3F4FE2FE1BC089E4D6018C938EE451
:1055B00011968C93119786E412968C93D9018E2FB5
:1055C00090E2882309F4A6CF9D938150FACF2D93C2
:1055D00081508111FCCFCE0ED11CE0E0D9CF89E6FD
:1055E000D6018C938EE611968C93119786E6E4CFC4
:1055F0009B0177FF02C030E020E0A1E0B0E0911114
:1056000002C0B0E0A0E0F9013196AE0FBF1F8B2CB5
:10561000912CBB2009F461C05401EFEFAE1ABE0A11
:10562000AA0DBB1DFA161B0619F014F04F2D4A1BCC
:10563000511188C0E3FC59C07601A42FB0E2A1113A
:105640004FC0C40ED11C992309F45BC040E0D601C1
:105650001196F60190836D01552309F448C0012F7E
:10566000060F9A81582F507184FF03C0913309F4BB
:10567000015010160CF047C0093008F008E0EEE2C7
:10568000FE2E5B01A01AB1088501919481949108C6
:105690002F3F320729F4D601FC92F60131966F01B3
:1056A0006217730794F1021713077CF5DB01A21B45
:1056B000B30BAA24A394B12CAC0EBD1EAA0DBB1D26
:1056C00011968C9121503109D60111962815390572
:1056D000F4F0F60180836D01DBCFB12CA12CA0CFBB
:1056E000F701B1937F01A150AACF9111B0CFD6019C
:1056F000942F50E302C05D9391509111FCCFC40EE2
:10570000D11C40E0ACCF01E0BACF80E3DBCF621721
:10571000730731F4963388F4953311F4552369F007
:10572000F6018083FD01842F90E2811108C0A40F4F
:10573000B11D1C9290E080E0F3CE81E3F1CF919314
:105740008150F3CF911183CF8ACF283008F027E022
:105750003327DA01990F311D87FD916000966105AD
:10576000710539F432602E5F3D9330E32A95E1F7FD
:1057700008959F3F30F080387105610509F03C5F66
:105780003C5F3D93913008F08068911DDF93CF938B
:105790001F930F93FF92EF92192F987F9695E92F01
:1057A00096959695E90FFF27E654FD4F99273327E5
:1057B000EE24FF24A701E70105900894079428F43C
:1057C000360FE71EF81E491F511D660F771F881FF1
:1057D000991F0694A1F70590079428F4E70EF81E88
:1057E000491F561FC11D770F881F991F661F0694FA
:1057F000A1F70590079428F4F80E491F561FC71FFC
:10580000D11D880F991F661F771F0694A1F7059079
:10581000079420F4490F561FC71FD81F990F661F02
:10582000771F881F0694A9F784911095177041F08F
:10583000D695C79557954795F794E7941A95C1F76C
:10584000E0E6F2E068941590159135916591959197
:1058500005907FE27395E118F10A430B560BC90BD3
:10586000D009C0F7E10CF11E431F561FC91FD01D00
:105870007EF4703311F48A95E6CFE894015030F04D
:10588000080F0AF40027021708F4202F2395022F8F
:105890007A3328F079E37D932A95E9F710C07D9358
:1058A0002A9589F6069497956795379517951794D5
:1058B000E118F10A430B560BC90BD00998F0239558
:1058C0007E9173957A3308F070E37C932013B8F7D8
:1058D0007E9170617D9330F0839571E37D9370E3E9
:1058E0002A95E1F71124EF90FF900F911F91CF912E
:1058F000DF91992787FD90950895DC01FC01672FC2
:1059000071917723E1F7329704C07C916D93708396
:105910006291AE17BF07C8F3089512E0C3E3D2E067
:1059200000E006C0802FFE010E941B242196011D6D
:0E593000C433D10780E00807A9F7F894FFCF31
:10593E000000CD0E8000FFFF0000803F00004842B7
:10594E0000002041000020410000F041FFFFB0FFA9
:10595E0000006143000007430B1E0B1E0B1E0B1EA7
:10596E000B1E0B1E0B1E0B1E44726F766520666F90
:10597E0072776172642120202020202044726F767D
:10598E006520446973743A2000233D3D3D3D3D3D05
:10599E003D3D3D3D3D3D3D3D3D3D3D3D3D3D3D3D29
:1059AE003D3D3D3D3D3D3D3D3D3D3D3D3D3D3D3D19
:1059BE003D3D3D3D3D3D3D3D005475726E6564205F
:1059CE006F6E20506F696E7421202020202020548D
:1059DE0075726E656420416E676C653A2000233DDA
:1059EE003D3D3D3D3D3D3D3D3D3D3D3D204472698E
:1059FE00766520436F6E74726F6C20506F696E7493
:105A0E0073203D3D3D3D3D3D3D3D3D3D3D3D0053C6
:105A1E0063686E69747470756E6B742020732E7863
:105A2E003A20002020732E793A20004D6974746557
:105A3E0020547565722020642E783A200020206450
:105A4E002E793A20005261646975733A20005769C5
:105A5E006E6B656C205068693A2000233D3D3D3DDC
:105A6E003D3D3D20436F72726563746564446F6F94
:105A7E007220506F696E7473203D3D3D3D3D3D3D3E
:105A8E003D002020793A20002020646973743A206A
:105A9E00002020616E676C653A2000233D3D3D3D40
:105AAE003D3D3D3D3D3D3D3D3D204D6964646C6554
:105ABE0020446F6F72203D3D3D3D3D3D3D3D3D3DA2
:105ACE003D3D0044697374616E7A3A2000233D3D7A
