:100000000C9468010C9499010C9499010C94990139
:100010000C9499010C9499010C9499010C949901F8
:100020000C9499010C9499010C9499010C949901E8
:100030000C9499010C9499010C9499010C949901D8
:100040000C9499010C9499010C9499010C949901C8
:100050000C9499010C9499010C9499010C94330B14
:100060000C9499010C94E2080C9418090C949901D1
:100070000C9499010C9499010C9499010C94990198
:100080000C9499010C9499010C9499010C94990188
:100090000C9499010C9499010C9499010C94990178
:1000A0000C9499010C9499010C9499010C94990168
:1000B0000C9499010C9499010C9499010C94990158
:1000C0000C9499010C9499010C9499010C94990148
:1000D0000C9499010C9499010C9479090C94AF0932
:1000E0000C94990105A84CCDB2D44EB93836A9026A
:1000F0000C50B9918688083CA6AAAA2ABE00000026
:10010000803F0C947F0D0C94AC0C0C94A20C0C94BE
:100110005D070C94830D0C941B0D0C94E90C0C944E
:100120009A070C946B0D0C947E0D0C94D00C0C94CF
:10013000AC040C94A8040C94590D0C94070D0C9469
:10014000D9090C94980C0C94110D0C94630D0C941B
:100150008E0C0C94BC0C0C944C0D0C9469070C94F4
:1001600042090C94500D0C94100A0C9477070C94CF
:100170004C090C943E0D0C945D0D0C94F30C0C94F6
:1001800011080C94750D0C94530D0C94480D0C949F
:10019000790D0C94E3090C94C60C0C94890C0C9406
:1001A000DA0C0C94440D0C948B070C94710D0C9488
:1001B000670D0C94B40C0C94810C0C94F1070C9406
:1001C000FD0C00000A0B02090C0D0E0807030401C8
:1001D000000000000000000000000000000000001F
:1001E00000000000000000000000000000001211EC
:1001F00010000000000000000000000000000000EF
:10020000000000000000000001021020200808107B
:100210002040102040800201020108040201010276
:10022000040810204080804020100804020180044F
:1002300002018040201008040201080402010102AA
:1002400004081020408001020408102040800505A9
:100250000505070508080808020202020A0A08083C
:10026000040404040101010101010101030303036A
:1002700003030303040707070C0C0C0C0C0C0C0CF9
:100280000202020206060606060606060B0B0B0B0A
:100290000B0B0B0B00002200250028002B002E006A
:1002A0003100340002010000050108010B010000CB
:1002B0002100240027002A002D0030003300010116
:1002C0000000040107010A01A8044C09E309AC0479
:1002D00011241FBECFEFD1E2DEBFCDBF00E00CBFC7
:1002E00012E0A0E0B2E0ECEDF2E200E00BBF02C0F1
:1002F00007900D92A235B107D9F727E0A2E5B2E049
:1003000001C01D92A131B207E1F711E0C7E6D1E0CB
:1003100000E006C021970109802FFE010E94280EEF
:10032000C436D10780E00807A9F70E94240B0C947B
:100330005C110C9400002F923F924F925F926F924B
:100340007F928F929F92AF92BF92CF92DF92EF9265
:10035000FF920F931F93CF93DF93CDB7DEB76097D4
:100360000FB6F894DEBF0FBECDBF7C0126EA33E0A6
:100370003A83298316E0E981FA8160857185072E29
:10038000000C880B990B0E94650F9B01AC010E9429
:10039000450E4B015C01E981FA8162817381072E70
:1003A000000C880B990B0E94650F9B01AC01C501E5
:1003B000B4010E94440E4B015C01E981FA8166851B
:1003C0007785072E000C880B990B0E94650F9B0107
:1003D000AC01C501B4010E94440E0E942D0F6E15A0
:1003E0007F05E4F4E981FA81828593850B97B4F067
:1003F0008091540290915502189FD001199FB00D21
:100400001124A658BD4F3696212F01900D922A95A2
:10041000E1F70196909355028093540269817A81A5
:100420006A5F7F4F7A8369836C5B754009F0A3CF65
:100430002AE732E0388B2F8710E000E080915402E9
:1004400090915502081719070CF00FC10F5F1F4F4D
:100450002F8438881A830983809154029091550221
:1004600069817A816817790734F08F8598890696B3
:10047000988B8F87E3CFEF85F8890190F081E02D8D
:10048000FC83EB83F1010680F781E02DFE83ED8391
:100490006B817C816E1B7F0B072E000C880B990BE8
:1004A0000E94650F2BED3FE049E450E40E94591093
:1004B00020E030E044E353E40E94BB0E0E94B60EFD
:1004C0006B877C878D879E87EF85F8890280F38113
:1004D000E02DF887EF83CF0164E670E00E94F20D13
:1004E000072E000C880B990B0E94650F6B017C0195
:1004F000F1010084F185E02DFA87E987CF0164E6F8
:1005000070E00E94F20D072E000C880B990B0E94E0
:10051000650F4B015C01AC019B010E9459102B013E
:100520003C01A7019601C701B6010E9459109B0129
:10053000AC01C301B2010E94450E2B013C01A70191
:100540009601C701B6010E94450EA50194010E94C3
:1005500059102B853C854D855E850E9459109B0165
:10056000AC01C301B2010E94440E0E94CC1020E0F5
:1005700030E048EC52E40E9459106B017C0120E00D
:1005800030E046E154E40E94541018160CF063C0A9
:1005900020E030E443E854E4C701B6010E94B10E04
:1005A00087FF59C08F81988529853A85820F931FCF
:1005B00097FD01969595879588519C4FE6EAF3E063
:1005C00041E0208131816B817C81621773075CF48B
:1005D0006D817E812617370734F4228133812817F5
:1005E00039070CF440E0369622EC35E02E173F0731
:1005F00041F7442381F1809152029091530236E0F9
:10060000389FD001399FB00D1124AA5ABD4FEF85F4
:10061000F88926E001900D922A95E1F79C012F5F61
:100620003F4F46E0429FD001439FB00D1124AA5A8C
:10063000BD4FF101369626E001900D922A95E1F723
:10064000029690935302809352026BE072E08EEC1C
:1006500095E00E945F0A69817A816F5F7F4F7A839C
:10066000698376E0270E311CF7CE67E172E08EECED
:1006700095E00E945F0A86E592E09A838983F12CD7
:10068000E12C8091520290915302E816F906A4F5EC
:10069000E981FA81608171814AE050E08EEC95E059
:1006A0000E940A0B6BE372E08EEC95E00E944C0A0C
:1006B000E981FA81628173814AE050E08EEC95E035
:1006C0000E940A0B6BE372E08EEC95E00E944C0AEC
:1006D000E981FA81648175814AE050E08EEC95E011
:1006E0000E94110BFFEFEF1AFF0A29813A812A5F5E
:1006F0003F4F3A832983C5CF60960FB6F894DEBF8B
:100700000FBECDBFDF91CF911F910F91FF90EF9062
:10071000DF90CF90BF90AF909F908F907F906F9021
:100720005F904F903F902F9008954F925F926F92FD
:100730007F928F929F92AF92BF92FF920F931F93DF
:10074000CF93DF93CDB7DEB764970FB6F894DEBFD3
:100750000FBECDBF0E947D0B683B7B40810591059C
:1007600008F0A0C044EF51E060E070E082EC95E05A
:100770000E94EE0497FD6FC08090C4059090C5055F
:10078000A090C605B090C7054090C8055090C90517
:100790006090CA057090CB0520E030E0A901C5014A
:1007A000B4010E94B10E18163CF0812C80E4982E02
:1007B0008CE1A82E86E4B82EA30192016091030279
:1007C0007091040280910502909106020E945410DB
:1007D00087FD2DC0A301920160910702709108026C
:1007E0008091090290910A020E94B10E1816FCF045
:1007F000F090CC05C301B2010E942D0F9B01275838
:10080000310946E0429F8001439F100D11240A5593
:100810001C4FF80171836083C501B4010E942D0F44
:10082000F801738362838F2D90E0958384836496AF
:100830000FB6F894DEBF0FBECDBFDF91CF911F91F1
:100840000F91FF90BF90AF909F908F907F906F908F
:100850005F904F90089570E060E083E00E94490C43
:1008600024E630E040E050E0BE016F5F7F4F82EC55
:1008700095E00E94750697FDDACF28EE33E040E060
:1008800050E060E082EC95E00E9404076FEF70E0BA
:1008900083E00E94490C68EE73E080E090E00E94E3
:1008A000AE0BC5CF80910002882309F206EA13E05F
:1008B000F801608171814AE050E08EEC95E00E9481
:1008C0000A0B6BE372E08EEC95E00E944C0AF80193
:1008D000628173814AE050E08EEC95E00E940A0B41
:1008E0006BE372E08EEC95E00E944C0AF8016481A3
:1008F00075814AE050E08EEC95E00E94110B0A5F92
:100900001F4FF5E0023C1F0799F68091010290917C
:1009100002020E949B011092000270E060E083E0FE
:100920000E94490C84CF6BE676E082EC95E00E9451
:10093000CE0426E040E052EC61E070E08EEC95E001
:100940000E945E0861E083E00C94870D0C9495038F
:1009500082EC95E00C94B00482EC95E00C94CC040D
:10096000FC01118210821282138214821582168277
:10097000178210861186128613860895CF93DF930F
:10098000EC0188819981009721F00E94C0081982AA
:100990001882DF91CF9108950C94BE040F931F939A
:1009A000CF93DF93EC018B0188819981892B19F01A
:1009B000CE010E94BE0419830883C8010E94C008AA
:1009C00026E040E052EC61E070E0888199810E946D
:1009D0005E08DF91CF911F910F9108954F925F9222
:1009E0006F927F928F929F92AF92BF92EF92FF92FF
:1009F0001F93CF93DF9300D01F921F92CDB7DEB726
:100A00007C012A013B010E947D0B4B015C0110E03F
:100A10000E947D0B681979098A099B0946165706B9
:100A20006806790608F472C0D7018D919C91DC01AB
:100A3000ED91FC910284F385E02D199597FDE8CFA7
:100A4000112309F457C0113009F45DC091E0910FF2
:100A5000E1E0F0E0EC0FFD1FE10FF11D8083953028
:100A600009F046C06C817D8190E080E00E94630FB8
:100A700020E030E040E85EE30E945910D701129672
:100A80006D937D938D939C9315976A817B81769569
:100A9000679590E080E00E94630F20E030E040E83E
:100AA0005CE30E945910F701668377838087918702
:100AB0008981282F30E03595279535952795228710
:100AC0008170838760E070E0CB010F900F900F90F2
:100AD0000F900F90DF91CF911F91FF90EF90BF90FB
:100AE000AF909F908F907F906F905F904F90089500
:100AF000192F8ECF9C0135952795FC01E2279F0188
:100B000020FDA4CF85CF80FDA1CF81CF62E070E82A
:100B100080E090E8DACFCF92DF92EF92FF920F93CE
:100B20001F93CF93DF9300D000D01F92CDB7DEB7D5
:100B30007C01162F5F834E8369011D82232B21F0D8
:100B4000CA01892B09F0106805EA09831A83D701C5
:100B50008D919C91DC01ED91FC910280F381E02D5F
:100B600042E050E0BE016F5F7F4F199517FF40C014
:100B70006D8160276C2561276D83EE81FF81960171
:100B80002E0F3F1FE217F30729F091918D818927DE
:100B90008D83F8CFCC82F70180819181DC01ED91CA
:100BA000FC910280F381E02D41E050E0BE016C5FDA
:100BB0007F4F1995F701808191814C8150E0DC01D4
:100BC000ED91FC910280F381E02DBE016A5F7F4FC1
:100BD0001995F70180819181DC01ED91FC910280F2
:100BE000F381E02D41E050E0BE016B5F7F4F19952E
:100BF00060E070E0CB0127960FB6F894DEBF0FBE21
:100C0000CDBFDF91CF911F910F91FF90EF90DF90BB
:100C1000CF900895FC0120813181232B39F030E001
:100C200020E050E040E065E20C948B0561E070E864
:100C300080E090E808957F928F929F92AF92BF924A
:100C4000CF92DF92EF92FF920F931F93CF93DF9398
:100C50008C01EB0149015A010E947D0B6B017C0163
:100C6000712C0E947D0B6C197D098E099F098616D7
:100C70009706A806B906A0F1D8018D919C91DC01D8
:100C8000ED91FC910284F385E02D199597FDE9CF54
:100C90007720F1F0B1E07B16F9F091E0970DFE01BD
:100CA000E70DF11D8083973089F460E070E0CB019F
:100CB000DF91CF911F910F91FF90EF90DF90CF9038
:100CC000BF90AF909F908F907F900895792EC9CF5D
:100CD000853A910511F3C5CF8A359105F1F2C0CF60
:100CE00062E070E880E090E8E3CF4F925F926F920D
:100CF0007F928F929F92AF92BF92CF92DF92EF92AC
:100D0000FF920F931F93CF93DF9300D000D01F92D9
:100D1000CDB7DEB77C016B0149015A010E947D0B02
:100D20002B013C01D7018D919C91892B09F45EC068
:100D300030E020E050E040E060E5C7010E948B0514
:100D400097FD3DC0A5019401BE016F5F7F4FC701B4
:100D50000E941B0697FD33C08F81843009F04BC081
:100D60008B819C81AD812E81B22FBF734497A105E9
:100D7000B10508F440C08601B4E1CB0ED11C0E943D
:100D80007D0B641975098609970986169706A806CA
:100D9000B906A8F1F70180819181DC01ED91FC9108
:100DA0000284F385E02D199597FDE9CFF801819331
:100DB0008F01CE16DF0619F760E070E0CB012796B1
:100DC0000FB6F894DEBF0FBECDBFDF91CF911F915C
:100DD0000F91FF90EF90DF90CF90BF90AF909F90DA
:100DE0008F907F906F905F904F90089561E070E8D2
:100DF00080E090E8E4CF60E070E8CB01E0CF62E013
:100E000070E880E090E8DBCFBF92CF92DF92EF9264
:100E1000FF920F931F93CF93DF9300D000D01F92C8
:100E2000CDB7DEB7DC01ED91FC91EF2B09F440C0AA
:100E300069017A01B62E8C010E940A0660E2B110A7
:100E400061E230E020E050E040E0C8010E948B0504
:100E500097FD1AC0A7019601BE016F5F7F4FC801C1
:100E60000E941B0697FD10C08F818138E9F48B81A9
:100E70009C81AD812E81B22FBF730597A105B1056D
:100E800098F060E070E0CB0127960FB6F894DEBFD3
:100E90000FBECDBFDF91CF911F910F91FF90EF90CB
:100EA000DF90CF90BF90089560E070E8CB01ECCF69
:100EB00061E070E880E090E8E7CFFC01918D228D41
:100EC000892F90E0805C9F4F821B91098F73992737
:100ED0000895FC01918D828D981731F0828DE80F75
:100EE000F11D858D90E008958FEF9FEF0895FC012F
:100EF000918D828D981761F0A28DAE0FBF2FB11D1D
:100F00005D968C91928D9F5F9F73928F90E0089574
:100F10008FEF9FEF0895FC01538D448D252F30E016
:100F2000842F90E0821B930B541710F0CF960895F6
:100F30000197089582E499E0892B49F080E090E0E0
:100F4000892B29F00E94420981110E94000080E053
:100F500090E0892B49F080E090E0892B29F00E94F5
:100F6000000081110E94000080E090E0892B49F090
:100F700080E090E0892B29F00E94000081110E94FE
:100F8000000089ED99E0892B49F080E090E0892B01
:100F900029F00E94D90981110C9400000895FC01E8
:100FA000A48DA80FB92FB11DA35ABF4F2C91848DCA
:100FB00090E001968F739927848FA689B7892C9327
:100FC000A089B1898C91837080648C93938D848D7A
:100FD000981306C00288F389E02D80818F7D80837D
:100FE0000895CF93DF93EC01888D8823B9F0AA8907
:100FF000BB89E889F9898C9185FD03C0808186FDD4
:101000000DC00FB607FCF7CF8C9185FFF2CF808122
:1010100085FFEDCFCE010E94CF07E9CFDF91CF91C1
:101020000895EF92FF920F931F93CF93DF93EC01FC
:1010300081E0888F9B8D8C8D98131AC0E889F9897F
:10104000808185FF15C09FB7F894EE89FF89608382
:10105000E889F98980818370806480839FBF81E003
:1010600090E0DF91CF911F910F91FF90EF90089545
:10107000F62E0B8D10E00F5F1F4F0F731127E02E20
:101080008C8D8E110CC00FB607FCFACFE889F98958
:10109000808185FFF5CFCE010E94CF07F1CFEB8D88
:1010A000EC0FFD2FF11DE35AFF4FF0829FB7F8942C
:1010B0000B8FEA89FB8980818062CFCFCF92DF924C
:1010C000EF92FF921F93CF93DF93EC016A017B01B4
:1010D000122FE889F98982E08083C11481EED80655
:1010E000E104F104A1F060E079E08DE390E0A70174
:1010F00096010E94060E2150310941095109569569
:10110000479537952795211580E1380798F0E889AC
:10111000F989108260E874E88EE190E0A7019601F9
:101120000E94060E215031094109510956954795F3
:1011300037952795EC85FD853083EE85FF852083E7
:10114000188EEC89FD891083EA89FB898081806192
:101150008083EA89FB89808188608083EA89FB89B2
:10116000808180688083EA89FB8980818F7D80838C
:10117000DF91CF911F91FF90EF90DF90CF90089576
:10118000CF93DF93EC01E881F9810680F781E02DB0
:101190001995EA89FB8980818F7E8083EA89FB89A2
:1011A0008081877F8083EA89FB8980818F77808334
:1011B000EA89FB8980818F7D80838A8D898FDF9189
:1011C000CF9108951F920F920FB60F9211240BB674
:1011D0000F922F938F939F93EF93FF93E091DE05F0
:1011E000F091DF058081E091E405F091E50582FD55
:1011F0001DC090818091E7058F5F8F732091E80576
:10120000821741F0E091E705F0E0E253FA4F958F45
:101210008093E705FF91EF919F918F912F910F9010
:101220000BBE0F900FBE0F901F9018958081F2CFCC
:101230001F920F920FB60F9211240BB60F922F939D
:101240003F934F935F936F937F938F939F93AF934E
:10125000BF93EF93FF938EEC95E00E94CF07FF9131
:10126000EF91BF91AF919F918F917F916F915F911E
:101270004F913F912F910F900BBE0F900FBE0F908B
:101280001F9018958EEC95E00E945D0721E0892B58
:1012900009F420E0822F0895EEECF5E0138212822B
:1012A00088EE93E0A0E0B0E084839583A683B783C3
:1012B00081E492E09183808385EC90E09587848738
:1012C00084EC90E09787868780EC90E0918B808B10
:1012D00081EC90E0938B828B82EC90E0958B848BF9
:1012E00086EC90E0978B868B118E128E138E148E67
:1012F00008951F920F920FB60F9211240BB60F9202
:101300002F938F939F93EF93FF93E0917B06F09140
:101310007C068081E0918106F091820682FD1DC0ED
:101320009081809184068F5F8F732091850682174C
:1013300041F0E0918406F0E0E559F94F958F8093F4
:101340008406FF91EF919F918F912F910F900BBE8B
:101350000F900FBE0F901F9018958081F2CF1F92B3
:101360000F920FB60F9211240BB60F922F933F934B
:101370004F935F936F937F938F939F93AF93BF939D
:10138000EF93FF938BE696E00E94CF07FF91EF91DA
:10139000BF91AF919F918F917F916F915F914F918D
:1013A0003F912F910F900BBE0F900FBE0F901F908B
:1013B00018958BE696E00E945D0721E0892B09F4E1
:1013C00020E0822F0895EBE6F6E01382128288EE89
:1013D00093E0A0E0B0E084839583A683B78381E4A3
:1013E00092E09183808385E391E09587848784E30D
:1013F00091E09787868780E391E0918B808B81E3F2
:1014000091E0938B828B82E391E0958B848B86E3D2
:1014100091E0978B868B118E128E138E148E089509
:10142000AF92BF92CF92DF92EF92FF920F931F93F2
:10143000CF93DF936C017B018B01040F151FEB0130
:101440005E01AE18BF08C017D10759F06991D601E7
:10145000ED91FC910190F081E02DC6011995892B49
:1014600079F7C501DF91CF911F910F91FF90EF9018
:10147000DF90CF90BF90AF900895FB0101900020C6
:10148000E9F73197AF01461B570BDC01ED91FC9159
:101490000280F381E02D19946115710511F00C940F
:1014A0003D0A90E080E00895DC01ED91FC9101900F
:1014B000F081E02D19946FE472E00C943D0A0F93D3
:1014C0001F93CF93DF938C01D0E0C0E061157105CD
:1014D00019F00E943D0AEC01C8010E945B0A8C0FC2
:1014E0009D1FDF91CF911F910F9108958F929F9231
:1014F000AF92BF92EF92FF920F931F93CF93DF9320
:10150000CDB7DEB7A1970FB6F894DEBF0FBECDBF43
:101510007C01FA01CB0119A2223008F42AE08E01E5
:101520000F5D1F4F822E912CB12CA12CBF01A50164
:1015300094010E94060EF901CA016A300CF5605D43
:10154000D8016E938D01232B242B252B79F790E066
:1015500080E0109721F0BD01C7010E943D0AA196CD
:101560000FB6F894DEBF0FBECDBFDF91CF911F91B4
:101570000F91FF90EF90BF90AF909F908F90089544
:10158000695CDECFCF92DF92EF92FF920F931F93B1
:10159000CF93DF932115310581F4DC01ED91FC91AE
:1015A0000190F081E02D642FDF91CF911F910F9179
:1015B000FF90EF90DF90CF9019942A30310501F51C
:1015C0002AE077FF1DC06A017B01EC016DE20E94F9
:1015D000540A8C0144275527BA014C195D096E093C
:1015E0007F092AE0CE010E94760A800F911FDF91C9
:1015F000CF911F910F91FF90EF90DF90CF900895C2
:10160000DF91CF911F910F91FF90EF90DF90CF90DE
:101610000C94760A9A01AB01770F660B770B0C944A
:10162000C20A0F931F93CF93DF93EC010E940A0B22
:101630008C01CE010E945B0A800F911FDF91CF9138
:101640001F910F91089508950E94E70B0E94230BAC
:101650000E949304CAE9D7E00E94A6042097E1F310
:101660000E949A07F9CF1F920F920FB60F92112482
:101670002F933F938F939F93AF93BF9380910907CD
:1016800090910A07A0910B07B0910C0730910807C1
:1016900023E0230F2D3758F50196A11DB11D20938E
:1016A00008078093090790930A07A0930B07B0934C
:1016B0000C0780910D0790910E07A0910F07B09134
:1016C00010070196A11DB11D80930D0790930E0781
:1016D000A0930F07B0931007BF91AF919F918F9187
:1016E0003F912F910F900FBE0F901F90189526E8F5
:1016F000230F0296A11DB11DD2CF2FB7F894609190
:10170000090770910A0780910B0790910C072FBF72
:1017100008953FB7F89480910D0790910E07A0911E
:101720000F07B091100726B5A89B05C02F3F19F0F1
:101730000196A11DB11D3FBFBA2FA92F982F882751
:10174000BC01CD01620F711D811D911D42E0660F2C
:10175000771F881F991F4A95D1F708958F929F92FE
:10176000AF92BF92CF92DF92EF92FF926B017C011A
:101770000E94890B4B015C01C114D104E104F10406
:10178000E9F00E94F10D0E94890B681979098A0914
:101790009B09683E73408105910570F321E0C21AF0
:1017A000D108E108F10888EE880E83E0981EA11C9C
:1017B000B11CC114D104E104F10429F7FF90EF90AA
:1017C000DF90CF90BF90AF909F908F9008957894C6
:1017D00084B5826084BD84B5816084BD85B5826036
:1017E00085BD85B5816085BDEEE6F0E080818160D4
:1017F0008083E1E8F0E010828081826080838081D4
:1018000081608083E0E8F0E0808181608083E1EBAB
:10181000F0E0808184608083E0EBF0E08081816093
:101820008083E1E9F0E08081826080838081816053
:101830008083E0E9F0E0808181608083E1EAF0E08C
:10184000808182608083808181608083E0EAF0E033
:10185000808181608083E1E2F1E080818260808329
:10186000808181608083E0E2F1E08081816080831B
:10187000EAE7F0E0808184608083808182608083F9
:101880008081816080838081806880831092C10024
:1018900008951F93CF93DF93182FEB0161E00E940F
:1018A000870D209739F460E0812FDF91CF911F9150
:1018B0000C94C30DCF3FD10511F461E0F5CFE12FBA
:1018C000F0E0EE53FE4FE491E150E23108F0B3C096
:1018D000F0E08827E159F34F8F4F0C94280E810CCC
:1018E000890C8E0C980CA20C1B0DAC0CB40CBC0C0F
:1018F000C60CD00CDA0CE90CF30C1B0DFD0C070D1B
:10190000110D84B5806884BDC7BDDF91CF911F9153
:10191000089584B5806284BDC8BDF7CF80918000F2
:10192000806880938000D0938900C0938800EDCFB9
:1019300080918000806280938000D0938B00C09360
:101940008A00E3CF80918000886080938000D093EC
:101950008D00C0938C00D9CF8091B00080688093B7
:10196000B000C093B300D1CF8091B000806280936B
:10197000B000C093B400C9CF80919000806880937C
:101980009000D0939900C0939800BFCF80919000B1
:10199000806280939000D0939B00C0939A00B5CF53
:1019A00080919000886080939000D0939D00C093B8
:1019B0009C00ABCF8091A00080688093A0008091B4
:1019C000A0008F7B8093A000D093A900C093A800B3
:1019D0009CCF8091A00080628093A000D093AB0048
:1019E000C093AA0092CF8091A00088608093A0004D
:1019F000D093AD00C093AC0088CF80912001806867
:101A000080932001D0932901C09328017ECF80913B
:101A10002001806280932001D0932B01C0932A0182
:101A200074CF80912001886080932001D0932D0194
:101A3000C0932C016ACFC038D1050CF03ECF33CF14
:101A40008150823108F05AC0E82FF0E08827E45D29
:101A5000F24F8F4F0C94280E4C0D500D3E0D440D3F
:101A6000480D7E0D530D590D5D0D630D670D6B0D0A
:101A7000710D750D7E0D790D7F0D830D80918000A8
:101A80008F77809380000895809180008F7DF9CFBB
:101A900080918000877FF5CF84B58F7784BD0895CE
:101AA00084B58F7DFBCF8091B0008F778093B0009D
:101AB00008958091B0008F7DF9CF809190008F774D
:101AC000809390000895809190008F7DF9CF809150
:101AD0009000877FF5CF8091A0008F778093A00042
:101AE00008958091A0008F7DF9CF8091A000877F1D
:101AF000F5CF809120018F77809320010895809108
:101B000020018F7DF9CF80912001877FF5CFCF9382
:101B1000DF9390E0FC01E85FFD4F2491825B9D4FD5
:101B2000FC0184918823C9F090E0880F991FFC0183
:101B3000E255FD4FA591B491FC01EC56FD4FC591C6
:101B4000D49161110DC09FB7F8948C912095822398
:101B50008C938881282328839FBFDF91CF9108959C
:101B6000623051F49FB7F8943C91822F8095832383
:101B70008C93E8812E2BEFCF8FB7F894EC912E2B1E
:101B80002C938FBFEACF1F93CF93DF93282F30E0A2
:101B9000F901EE53FE4F8491F901E85FFD4FD491B6
:101BA000F901E25BFD4FC491CC23A9F0162F8111FE
:101BB0000E94200DEC2FF0E0EE0FFF1FEC56FD4FC2
:101BC000A591B4918FB7F894EC91111108C0D095FC
:101BD000DE23DC938FBFDF91CF911F910895DE2B21
:101BE000F8CF089597FB072E16F4009407D077FDE1
:101BF00009D00E94300E07FC05D03EF490958195E7
:101C00009F4F0895709561957F4F0895A1E21A2E18
:101C1000AA1BBB1BFD010DC0AA1FBB1FEE1FFF1F90
:101C2000A217B307E407F50720F0A21BB30BE40BE0
:101C3000F50B661F771F881F991F1A9469F7609527
:101C40007095809590959B01AC01BD01CF010895E1
:101C5000EE0FFF1F881F8BBF0790F691E02D1994A0
:101C6000AA1BBB1B51E107C0AA1FBB1FA617B707C2
:101C700010F0A61BB70B881F991F5A95A9F78095DE
:101C80009095BC01CD0108955058BB27AA270E940A
:101C90005C0E0C9406100E94CD0F38F00E94D40FF9
:101CA00020F039F49F3F19F426F40C94CA0F0EF477
:101CB000E095E7FB0C94C40FE92F0E942B1058F31A
:101CC000BA17620773078407950720F079F4A6F521
:101CD0000C944D100EF4E0950B2EBA2FA02D0B0195
:101CE000B90190010C01CA01A0011124FF27591B61
:101CF00099F0593F50F4503E68F11A16F040A22F67
:101D0000232F342F4427585FF3CF469537952795D7
:101D1000A795F0405395C9F77EF41F16BA0B620BD6
:101D2000730B840BBAF09150A1F0FF0FBB1F661F1D
:101D3000771F881FC2F70EC0BA0F621F731F841F60
:101D400048F4879577956795B795F7959E3F08F086
:101D5000B0CF9395880F08F09927EE0F9795879548
:101D600008950E94A00F08F481E008950E94DD0FFD
:101D7000E3950C9417100E94CF0E0C9406100E944D
:101D8000D40F58F00E94CD0F40F029F45F3F29F0A6
:101D90000C94C40F51110C944E100C94CA0F0E9455
:101DA0002B1068F39923B1F3552391F3951B550B31
:101DB000BB27AA2762177307840738F09F5F5F4F1E
:101DC000220F331F441FAA1FA9F335D00E2E3AF05D
:101DD000E0E832D091505040E695001CCAF72BD075
:101DE000FE2F29D0660F771F881FBB1F26173707C6
:101DF0004807AB07B0E809F0BB0B802DBF01FF27F8
:101E000093585F4F3AF09E3F510578F00C94C40F01
:101E10000C944E105F3FE4F3983ED4F3869577958B
:101E20006795B795F7959F5FC9F7880F911D9695B0
:101E3000879597F90895E1E0660F771F881FBB1F0C
:101E4000621773078407BA0720F0621B730B840BB9
:101E5000BA0BEE1F88F7E09508950E94340F68943E
:101E6000B1110C944E1008950E94331088F09F57C2
:101E700098F0B92F9927B751B0F0E1F0660F771FAE
:101E8000881F991F1AF0BA95C9F714C0B13091F0A4
:101E90000E944D10B1E008950C944D10672F782FDB
:101EA0008827B85F39F0B93FCCF386957795679569
:101EB000B395D9F73EF490958095709561957F4FD5
:101EC0008F4F9F4F0895E89409C097FB3EF490957B
:101ED0008095709561957F4F8F4F9F4F9923A9F003
:101EE000F92F96E9BB279395F69587957795679592
:101EF000B795F111F8CFFAF4BB0F11F460FF1BC0D6
:101F00006F5F7F4F8F4F9F4F16C0882311F096E968
:101F100011C0772321F09EE8872F762F05C0662316
:101F200071F096E8862F70E060E02AF09A95660FCF
:101F3000771F881FDAF7880F9695879597F9089588
:101F4000990F0008550FAA0BE0E8FEEF16161706CA
:101F5000E807F907C0F012161306E407F50798F032
:101F6000621B730B840B950B39F40A2661F0232B4B
:101F7000242B252B21F408950A2609F4A140A695C7
:101F80008FEF811D811D089597F99F6780E870E0AC
:101F900060E008959FEF80EC089500240A941616DF
:101FA000170618060906089500240A941216130647
:101FB0001406050608950C94CA0F0E943310D8F336
:101FC000E894E0E0BB279F57F0F02AED3FE049ECB2
:101FD00006C0EE0FBB0F661F771F881F28F0B23AAE
:101FE00062077307840728F0B25A620B730B840BE5
:101FF000E3959A9572F7803830F49A95BB0F661F77
:10200000771F881FD2F790480C940E11092E039465
:10201000000C11F4882352F0BB0F40F4BF2B11F4D5
:1020200060FF04C06F5F7F4F8F4F9F4F0895EF9306
:10203000E0FF07C0A2EA2AED3FE049EC5FEB0E9417
:102040005C0E0E9406100F90039401FC9058E4EE81
:10205000F0E00C94211157FD9058440F551F59F092
:102060005F3F71F04795880F97FB991F61F09F3F85
:1020700079F087950895121613061406551FF2CFAE
:102080004695F1DF08C0161617061806991FF1CFFE
:1020900086957105610508940895E894BB27662725
:1020A0007727CB0197F908950E94A00F08F48FEFCE
:1020B00008950E946C100C9406100E94CD0F38F009
:1020C0000E94D40F20F0952311F00C94C40F0C94AF
:1020D000CA0F11240C944E100E942B1070F3959F80
:1020E000C1F3950F50E0551F629FF001729FBB270F
:1020F000F00DB11D639FAA27F00DB11DAA1F649FAB
:102100006627B00DA11D661F829F2227B00DA11D5D
:10211000621F739FB00DA11D621F839FA00D611DE3
:10212000221F749F3327A00D611D231F849F600D04
:10213000211D822F762F6A2F11249F5750409AF02D
:10214000F1F088234AF0EE0FFF1FBB1F661F771FB9
:10215000881F91505040A9F79E3F510580F00C9484
:10216000C40F0C944E105F3FE4F3983ED4F3869571
:1021700077956795B795F795E7959F5FC1F7FE2B24
:10218000880F911D9695879597F9089519F416F47F
:102190000C94CA0F0C940C110E943310B8F39923BD
:1021A000C9F3B6F39F57550B87FF0E941A110024FD
:1021B000A0E640EA900180585695979528F4805CF7
:1021C000660F771F881F20F026173707480730F45F
:1021D000621B730B840B202931294A2BA695179477
:1021E0000794202531254A2758F7660F771F881F47
:1021F00020F026173707480730F4620B730B840B67
:10220000200D311D411DA09581F7B901842F9158F2
:10221000880F9695879508959F3F31F0915020F44F
:10222000879577956795B795880F911D96958795B2
:1022300097F9089591505040660F771F881FD2F785
:1022400008959F938F937F936F93FF93EF939B01D9
:10225000AC010E945910EF91FF910E9435112F910E
:102260003F914F915F910C945910DF93CF931F933F
:102270000F93FF92EF92DF927B018C01689406C06E
:10228000DA2EEF010E946C10FE01E894A5912591D1
:10229000359145915591A6F3EF010E945C0EFE0128
:1022A0009701A801DA9469F7DF90EF90FF900F9102
:1022B0001F91CF91DF91089511E0C7E6D1E000E0D2
:1022C00006C0802FFE010E94280E2196011DC836EF
:0C22D000D10780E00807A9F7F894FFCFC1
:1022DC00010CFE0000614300000743446F6F722045
:1022EC00666F756E642100233D3D3D3D3D3D3D3D9A
:1022FC003D3D20446F6F7220506F696E7473203DAA
:10230C003D3D3D3D3D3D3D3D3D3D0020000000003F
:10231C00001108100A8B07F1075D07770769070D95
:02232C000A00A5
:00000001FF
