:100000000C9434020C94A31E0C94CE1E0C94F91E76
:100010000C94241F0C944F1F0C947A1F0C94A51F52
:100020000C94D01F0C9465020C9465020C9465022C
:100030000C9465020C9465020C9465020C946502A4
:100040000C9465020C9465020C9465020C94650294
:100050000C9465020C9465020C9465020C94432187
:100060000C9465020C94BC1A0C94F21A0C94650260
:100070000C9465020C9465020C9465020C94650264
:100080000C9465020C9465020C9465020C94650254
:100090000C9465020C9465020C9465020C94650244
:1000A0000C9465020C9465020C9465020C94650234
:1000B0000C9465020C9465020C9465020C94650224
:1000C0000C9465020C9465020C9465020C94650214
:1000D0000C9465020C9465020C94531B0C94891BC0
:1000E0000C946502084AD73B3BCE016E84BCBFFD31
:1000F000C12F3D6C74319ABD56833DDA3D00C77FF8
:1001000011BED9E4BB4C3E916BAAAABE0000008090
:100110003F072C7AA5BA6CC590DA3B9365FC8BBC83
:1001200053F810FD3C5692834DBD879D3AB63DCBAA
:10013000C9BF5BBE73DA0FC93F05A84CCDB2D44E20
:10014000B93836A9020C50B9918688083CA6AAAAEB
:100150002ABE000000803F000C9481230C94EA2208
:100160000C94281E0C944F1E0C94961E0C948F23F6
:100170000C94A8100C945C230C948E100C946519AC
:100180000C9491220C943E100C9412100C9474193F
:100190000C94EE100C94EB190C9499220C945119B8
:1001A0000C940D230C94A8220C94C8100C94632377
:1001B0000C94BC220C94F9220C946C100C945B1ED1
:1001C0000C94E0220C9477230C9469230C949323D1
:1001D0000C9467020C940E110C949E220C945423E0
:1001E0000C9421230C94B2220C9485230C94891E28
:1001F0000C94471E0C94CB190C947D1E0C94582320
:100200000C94CC220C9460230C948E230C94BD1B74
:100210000C941C1B0C9437190C944E230C947323D0
:100220000C9489230C94C4220C9417230C942B2334
:100230000C946D230C94B31B0C9491110C94261BFD
:100240000C9424110C94F20F0C9403230C94431976
:100250000C94D6220C94EA1B0C94681E0C947B23FD
:1002600000407A10F35A00A0724E18090010A5D46D
:10027000E80000E87648170000E40B54020000CACA
:100280009A3B000000E1F505000080969800000010
:1002900040420F000000A08601000000102700006F
:1002A0000000E803000000006400000000000A00F5
:1002B000000000000100000000002C76D888DC67F8
:1002C0004F0823DFC1DFAE59E1B1B796E5E3E45350
:1002D000C63AE651997696E8E6C28426EB898C9B6D
:1002E00062ED407C6FFCEFBC9C9F40F2BAA56FA50D
:1002F000F490055A2AF75C936B6CF9676DC11BFC8F
:10030000E0E40D47FEF520E6B500D0ED902E0300A9
:10031000943577050080841E080000204E0A0000F6
:1003200000C80C333333330F986E12831141EF8DB5
:100330002114893BE65516CFFEE6DB18D1844B38F5
:100340001BF77C1D901DA4BBE424203284725E2226
:100350008100C9F124ECA1E53D2700000A0B020948
:100360000C0D0E080703040100000000000000004F
:10037000000000000000000000000000000000007D
:10038000000000000000121110000000000000003A
:10039000000000000000000000000000000000005D
:1003A0000102102020080810204010204080020187
:1003B000020108040201010204081020408080406C
:1003C000201008040201800402018040201008046B
:1003D0000201080402010102040810204080010209
:1003E00004081020408005050505070508080808D1
:1003F000020202020A0A08080404040401010101BD
:1004000001010101030303030303030304070707B7
:100410000C0C0C0C0C0C0C0C02020202060606065C
:10042000060606060B0B0B0B0B0B0B0B000022003A
:10043000250028002B002E003100340002010000AE
:10044000050108010B0100002100240027002A00FB
:100450002D003000330001010000040107010A01F2
:100460002411261BBD1B911111241FBECFEFD1E219
:10047000DEBFCDBF00E00CBF14E0A0E0B2E0E8E7D3
:10048000F9E500E00BBF02C007900D92AC3CB1074C
:10049000D9F72EE0ACECB4E001C01D92A13DB2074B
:1004A000E1F712E0C3E3D2E000E006C021970109C2
:1004B000802FFE010E943824C033D10780E0080756
:1004C000A9F70E9434210C94AA2C0C94000080916E
:1004D0001E0290911F02019621F410921F021092A9
:1004E0001E020895E0E9F8E0138212821182108260
:1004F0001582148216821782108611861286138640
:10050000148615863E962DE0EC37F20769F7E4ED88
:10051000F5E01382128211821082158214821682F3
:1005200017821086118612861386148615863E96CB
:1005300028E0E039F20769F7E0E8F5E0138212827B
:1005400011821082158214821682178210861186FB
:1005500012861386148615863E9625E0E43DF20742
:1005600069F710927F0510927E0510927D0510921A
:100570007C05109278051092790510927A051092F8
:100580007B051092740510927505109276051092F5
:1005900077051092700510927105109272051092F5
:1005A00073054FEF5FEFBA014093060250930702C5
:1005B000609308027093090290931F0280931E02B9
:1005C000089581309105A9F01CF4892B41F008951C
:1005D00082309105A1F061E0039761F0089561E038
:1005E0008AE00E94D32360E089E00E94D32360E088
:1005F0000FC060E08AE00E94D32361E0F5CF60E0A5
:100600008AE00E94D32360E089E00E94D32361E066
:1006100088E00C94D3234F925F926F927F928F92D7
:100620009F92AF92BF92CF92DF92EF92FF920F9381
:100630001F93CF93DF93CDB7DEB72F970FB6F89404
:10064000DEBF0FBECDBFE982FA820B831C832D83F0
:100650003E834F83588769877A878B87CE010196BF
:100660000E944B14882389F089819A8181389105F1
:1006700019F58C8190E090936D0580936C058D81C8
:1006800090E090936F0580936E052F960FB6F894C7
:10069000DEBF0FBECDBFDF91CF911F910F91FF90B5
:1006A000EF90DF90CF90BF90AF909F908F907F9012
:1006B0006F905F904F9008958F3F974031F7B884C7
:1006C000A9847A846B840E948D216B017C01C09285
:1006D000CC04D092CD04E092CE04F092CF0480916D
:1006E000060290910702A0910802B09109028C873E
:1006F0009D87AE87BF878F3F9F4FAF4FBF4F09F496
:10070000BAC06A2D70E0762F66276B0D711D072E1B
:10071000000C880B990B0E94B52527ED33EA4AEAB5
:1007200051E40E940B252BED3FE049EC50E40E9480
:10073000F82620E030E040E752E40E940B2527ED48
:1007400033EA40E35EE30E94F8264B015C01662D2C
:1007500070E0762F6627670D711D072E000C880B41
:10076000990B0E94B52527ED33EA4AEA51E40E942D
:100770000B252BED3FE049EC50E40E94F82620E0E9
:1007800030E040E752E40E940B2527ED33EA40E3D6
:100790005EE30E94F8262B013C01C701B6012C85BF
:1007A0003D854E855F85621B730B840B950B0E9404
:1007B000B3256B017C01A5019401C301B2010E9424
:1007C000652428EB3EE145E05FE30E940B25A7018D
:1007D00096010E94F82620E030E04AE754E40E94A7
:1007E0000B2520E030E044E353E40E94F8262BED93
:1007F0003FE049E450E40E940B259B01AC0160916D
:1008000068057091690580916A0590916B050E9459
:100810006624609368057093690580936A059093D8
:100820006B05A3019201C501B4010E94662420E07A
:1008300030E040E05FE30E94F826A70196010E94A5
:10084000F82620E030E04AE754E40E940B259B01A3
:10085000AC01609114057091150580911605909179
:1008600017050E9466246093140570931505809304
:100870001605909317050E948D21609306027093D0
:1008800007028093080290930902FFCEAF92BF92B5
:10089000CF92DF92EF92FF920F931F93CF93DF934C
:1008A00000D000D000D01F921F92CDB7DEB758877E
:1008B00069877A878B878EE390E09A838983007EAD
:1008C00000610B83CC82DD82AE82BF8240E060EEAD
:1008D0008FE00E94DA13CE0101960E94AF146AE005
:1008E00070E080E090E00E94BE212B960FB6F89455
:1008F000DEBF0FBECDBFDF91CF911F910F91FF9053
:10090000EF90DF90CF90BF90AF9008953F924F92BD
:100910005F926F927F928F929F92AF92BF92CF928F
:10092000DF92EF92FF920F931F93CF93DF9300D04C
:1009300000D000D01F921F92CDB7DEB7382E3B01FA
:100940002A0189829A82AB82BC82CD823D2DDE82D1
:100950004E2DEF825F2DF886602F0987712F1A8741
:10096000822F2B87E82CF92C0A2D1B2D2C2D0E9471
:100970000B0360916E0570916F053AEFC32ED12C79
:10098000C61AD70A683771051CF5CC24DD24C61AAF
:10099000D70A3320E9F0072E000C880B990B0E9430
:1009A000B5252DEC3CEC4CE45EE30E94F8264B01AF
:1009B0005C01B601DD0C880B990B0E94B5259B01EB
:1009C000AC01C501B4010E9466240E947D256B0123
:1009D00080916C0590916D05AA24BB24A81AB90AD0
:1009E000883791052CF02AEFA22EB12CA81AB90A4B
:1009F0009C01235331092133310520F08759910996
:100A0000C19730F480E190E090931F0280931E0222
:100A1000A40CB51CC60CD71CE980FA800B811C8184
:100A20002D813E814F81588569857A858B850E940D
:100A300046042B960FB6F894DEBF0FBECDBFDF91F4
:100A4000CF911F910F91FF90EF90DF90CF90BF90CB
:100A5000AF909F908F907F906F905F904F903F905E
:100A600008952F923F924F925F926F927F928F9252
:100A70009F92AF92BF92CF92DF92EF92FF920F932D
:100A80001F93CF93DF93CDB7DEB767970FB6F89478
:100A9000DEBF0FBECDBF1B012C013A018D869E86A5
:100AA000AF86B88AC98A3D2DDA8A4E2DEB8A5F2D32
:100AB000FC8A602F0D8B712F1E8B822F2F8BE82CC1
:100AC000F92C0A2D1B2D2C2D0E940B0320E030E069
:100AD00048EC52E4C201B1010E940B2560931C0551
:100AE00070931D0580931E0590931F05809114053A
:100AF00090911505A0911605B091170580931005EA
:100B000090931105A0931205B093130580ED94E026
:100B10000E941415109264051092650510926605E6
:100B2000109267058091680590916905A0916A050A
:100B3000B0916B058093600590936105A093620569
:100B4000B093630580E295E00E94141560915C0506
:100B500070915D0580915E0590915F0590580E94AF
:100B60007D258D849E84AF84B888C988DA88EB8817
:100B7000FC880D891E892F89AB0170E060E081E05F
:100B80000E948604C0901405D0901505E0901605CB
:100B9000F0901705A701960160911C0570911D0545
:100BA00080911E0590911F050E9465244B015C01F8
:100BB0002DEC3CEC4CEC5DE30E94012587FF45C029
:100BC0002DEC3CEC4CEC5DEBC501B4010E94EB2636
:100BD0001816DCF522E0B701A601CE0107960E94A7
:100BE000C4206AE372E0CE0101960E946A20BE0131
:100BF000695F7F4FCE0101960E942021BC018AE8E7
:100C00009DE00E94471CCE0101960E94FB1FCE0171
:100C100007960E94FB1F6BE572E08AE89DE00E9448
:100C2000591C109268051092690510926A0510927D
:100C30006B0510921405109215051092160510926E
:100C4000170570921F0260921E0267960FB6F89405
:100C5000DEBF0FBECDBFDF91CF911F910F91FF90EF
:100C6000EF90DF90CF90BF90AF909F908F907F904C
:100C70006F905F904F903F902F9008952F923F92EA
:100C80004F925F926F927F928F929F92AF92BF929C
:100C9000CF92DF92EF92FF920F931F93CF93DF9348
:100CA000CDB7DEB767970FB6F894DEBF0FBECDBFE6
:100CB0001B012C013A018D869E86AF86B88AC98AAF
:100CC0003D2DDA8A4E2DEB8A5F2DFC8A602F0D8B2D
:100CD000712F1E8B822F2F8BE82CF92C0A2D1B2DA8
:100CE0002C2D0E940B0320926405309265054092E2
:100CF0006605509267058091680590916905A091FD
:100D00006A05B0916B058093600590936105A0938F
:100D10006205B093630580E295E00E94141560912E
:100D20005C0570915D0580915E0590915F0590581E
:100D30000E947D258D849E84AF84B888C988DA8816
:100D4000EB88FC880D891E892F89AB0170E060E07B
:100D500080E00E94860420E030E0A901C201B101D8
:100D60000E94EB26181624F057FA509457F8509426
:100D7000C0906805D0906905E0906A05F0906B0519
:100D800020E030E0A901C701B6010E94EB26A701CF
:100D9000960118160CF05058C201B1010E9465244A
:100DA0004B015C012DEC3CEC4CEC5DE30E94012519
:100DB00087FF3DC02DEC3CEC4CEC5DEBC501B40174
:100DC0000E94EB2618169CF522E0B701A601CE0181
:100DD00007960E94C4206BE872E0CE0101960E9443
:100DE0006A20BE01695F7F4FCE0101960E942021DB
:100DF000BC018AE89DE00E94471CCE0101960E943A
:100E0000FB1FCE0107960E94FB1F6BE572E08AE88C
:100E10009DE00E94591C109268051092690510927D
:100E20006A0510926B0570921F0260921E0267960F
:100E30000FB6F894DEBF0FBECDBFDF91CF911F91EB
:100E40000F91FF90EF90DF90CF90BF90AF909F9069
:100E50008F907F906F905F904F903F902F9008956C
:100E60004F925F926F927F928F929F92AF92BF92BA
:100E7000CF92DF92EF92FF92CF93DF93CDB7DEB7A1
:100E800064970FB6F894DEBF0FBECDBF20E030E010
:100E900044E152E460918605709187058091880550
:100EA000909189050E9465242B013C0120E030E0EF
:100EB00040ED51E460918A0570918B0580918C051D
:100EC00090918D050E9466244B015C0120E030E08A
:100ED00044E152E4609194057091950580919605E6
:100EE000909197050E9465246B017C0120E030E021
:100EF00040ED51E4609198057091990580919A05B3
:100F000090919B050E94662469837A838B839C83DE
:100F1000D301C201B0588D839E83AF83B88780937D
:100F2000860590938705A0938805B0938905D50120
:100F3000C401B05889879A87AB87BC8780938A059C
:100F400090938B05A0938C05B0938D05D701C601B6
:100F5000B0588D879E87AF87B88B80939405909308
:100F60009505A0939605B093970589819A81AB81E9
:100F7000BC81B058898B9A8BAB8BBC8B80939805C6
:100F800090939905A0939A05B0939B05A3019201B4
:100F9000C301B2010E94F8262B013C01A501940176
:100FA000C501B4010E94F8269B01AC01C301B20146
:100FB0000E9466240E9473270E947D2570938305FA
:100FC000609382052D813E814F81588569857A85A0
:100FD0008B859C850E940B250E94D22420E030E066
:100FE00044E353E40E94F8262BED3FE049E450E44B
:100FF0000E940B250E947D25A0E8B5E06D937C93AF
:10100000A7019601C701B6010E94F8266B017C0179
:1010100029813A814B815C81CA01B9010E94F8267D
:101020009B01AC01C701B6010E9466240E94732790
:101030000E947D2570939105609390052D853E85D6
:101040004F85588969897A898B899C890E940B25EB
:101050000E94D22420E030E044E353E40E94F826CA
:101060002BED3FE049E450E40E940B250E947D25D2
:1010700070938F0560938E056DE273E08AE89DE0C2
:101080000E94591C6BE073E08AE89DE00E94341CCA
:10109000409186055091870560918805709189057A
:1010A00022E030E08AE89DE00E94141E64E573E0CF
:1010B0008AE89DE00E94341C40918A0550918B057E
:1010C00060918C0570918D0522E030E08AE89DE00A
:1010D0000E94141E6AE573E08AE89DE00E94341CB9
:1010E00060918205709183054AE050E08AE89DE0B6
:1010F0000E94041D63E673E08AE89DE00E94341CB0
:10110000E0E8F5E0608171814AE050E08AE89DE026
:101110000E940B1D6BE073E08AE89DE00E94341C86
:1011200040919405509195056091960570919705B1
:1011300022E030E08AE89DE00E94141E64E573E03E
:101140008AE89DE00E94341C4091980550919905D1
:1011500060919A0570919B0522E030E08AE89DE05D
:101160000E94141E6AE573E08AE89DE00E94341C28
:1011700060919005709191054AE050E08AE89DE009
:101180000E94041D63E673E08AE89DE00E94341C1F
:1011900060918E0570918F054AE050E08AE89DE0ED
:1011A00064960FB6F894DEBF0FBECDBFDF91CF912E
:1011B000FF90EF90DF90CF90BF90AF909F908F9077
:1011C0007F906F905F904F900C940B1D4F925F92A9
:1011D0006F927F928F929F92AF92BF92CF92DF9247
:1011E000EF92FF92CF93DF9300D000D000D01F92F8
:1011F000CDB7DEB79A8789870E943007E0908205D5
:10120000F09083058091900590919105E80EF91E6C
:10121000F7FE03C08FEFE81AF80AF594E7942091DF
:1012200094053091950540919605509197056091F0
:1012300086057091870580918805909189050E94A7
:10124000662420E030E040E05FE30E94F8264B0196
:101250005C01209198053091990540919A05509133
:101260009B0560918A0570918B0580918C0590910A
:101270008D050E94662420E030E040E05FE30E949C
:10128000F8262B013C0160918005709181058091C9
:101290008E0590918F05680F791F77FF02C06F5FF1
:1012A0007F4F75956795072E000C880B990B0E9450
:1012B000B525609378057093790580937A059093AE
:1012C0007B05B7010F2C000C880B990B0E94B525EC
:1012D0006093700570937105809372059093730508
:1012E0006DE673E08AE89DE00E94591C6BE073E0B4
:1012F0008AE89DE00E94341C22E030E0B501A401A0
:101300008AE89DE00E94141E64E573E08AE89DE08F
:101310000E94341C22E030E0B301A2018AE89DE083
:101320000E94161E60E273E08AE89DE00E94341C71
:10133000409178055091790560917A0570917B050F
:1013400022E030E08AE89DE00E94161E65E973E025
:101350008AE89DE00E94341C4AE050E0B7018AE828
:101360009DE00E940B1D20918605309187054091DC
:10137000880550918905609194057091950580913B
:101380009605909197050E94652420E030E044EB9B
:1013900052EC0E94F8266B017C0120918A05309165
:1013A0008B0540918C0550918D0560919805709149
:1013B000990580919A0590919B050E9465249B0157
:1013C000AC01C701B6010E940B2569837A838B8328
:1013D0009C8320E030E044EB52E4C501B4010E945C
:1013E00065246B017C0129813A814B815C81C301B9
:1013F000B2010E9465244B015C01A7019601C7015F
:10140000B6010E94F8262B013C01A5019401C501FB
:10141000B4010E94F8269B01AC01C301B2010E94F5
:1014200066242B013C010E9473276D837E838F838A
:101430009887A7019601C501B4010E940B250E945F
:10144000D22420E030E044E353E40E94F8262BED60
:101450003FE049E450E40E940B250E947D25072EC1
:10146000000C880B990B0E94B5256093780570934A
:10147000790580937A0590937B056D817E818F81BC
:1014800098850E947D25072E000C880B990B0E94E1
:10149000B5256093700570937105809372059093E4
:1014A00073056FE973E08AE89DE00E94591C6BE0C8
:1014B00073E08AE89DE00E94341C22E030E0B7012E
:1014C000A6018AE89DE00E94141E64E573E08AE8A4
:1014D0009DE00E94341C22E030E0B501A4018AE8BE
:1014E0009DE00E94161E60E273E08AE89DE00E9483
:1014F000341C409178055091790560917A0570917E
:101500007B0522E030E08AE89DE00E94161E65E936
:1015100073E08AE89DE00E94341C40917005509170
:101520007105609172057091730522E030E08AE8E0
:101530009DE00E94161EC301B2010E9473272B0179
:101540003C0129813A814B815C81CA01B9010E9429
:10155000F82620E030E24DEF55E40E9466240E9418
:1015600073276D837E838F83988720E030E044EB80
:1015700052E4C701B6010E94F8266B017C01A50167
:10158000940169817A818B819C810E94F8269B015C
:10159000AC01C701B6010E9466246B017C012D815C
:1015A0003E814F815885C301B2010E94F8269B01FC
:1015B000AC01C701B6010E940B250E94542420E013
:1015C00030E044E353E40E94F8262BED3FE049E489
:1015D00050E40E940B256B017C01C0927405D092EF
:1015E0007505E0927605F092770520E030E0A901DC
:1015F000609178057091790580917A0590917B05CD
:101600000E94EB261816ACF420E030E0A901C701D7
:10161000B6010E94EB26181664F4F7FAF094F7F876
:10162000F094C0927405D0927505E0927605F09220
:1016300077056DEC73E08AE89DE00E94341C4091D0
:10164000740550917505609176057091770522E0DB
:1016500030E08AE89DE00E94161E89859A85909365
:101660001F0280931E022A960FB6F894DEBF0FBEAB
:10167000CDBFDF91CF91FF90EF90DF90CF90BF90E3
:10168000AF909F908F907F906F905F904F90089554
:101690002F923F924F925F926F927F928F929F9282
:1016A000AF92BF92CF92DF92EF92FF920F931F9370
:1016B000CF93DF93CDB7DEB768970FB6F894DEBF50
:1016C0000FBECDBF7C01788F6F8B10927D0510927D
:1016D0007C0500E918E04EE0D42EF801608971899C
:1016E000072E000C880B990B0E94B5259B01AC01BD
:1016F0000E9466244B015C01F80162817381072E10
:10170000000C880B990B0E94B5259B01AC01C5010B
:10171000B4010E9465244B015C01F801668D778D50
:10172000072E000C880B990B0E94B5259B01AC017C
:10173000C501B4010E9465240E947D256E157F05B8
:10174000DCF4F801828993890B97B4F080917E05CF
:1017500090917F05D89ED001D99EB00D1124AC5236
:10176000BA4F3E962D2D01900D922A95E1F70196E4
:1017700090937F0580937E05025F1F4F2DE00E360C
:10178000120709F0AACF80917C0D8823F1F16BED4F
:1017900073E08AE89DE00E94591C04ED15E0F12CED
:1017A000E12C80917E0590917F05E816F9066CF595
:1017B000F801608171814AE050E08AE89DE00E9472
:1017C000041D6AE374E08AE89DE00E94341CF8017D
:1017D000628173814AE050E08AE89DE00E94041D26
:1017E0006AE374E08AE89DE00E94341CF801648199
:1017F00075814AE050E08AE89DE00E940B1DFFEFF2
:10180000EF1AFF0A025F1F4FCCCF34ED232E35E0D5
:10181000332E18861F8280917E0590917F052F813F
:101820003885281739070CF452C020907C05309079
:101830007D0500E815E07801D12CC12CC214D30439
:101840000CF052C1F70162817381072E000C880BE6
:10185000990B0E94B5254B015C01F70160817181F4
:10186000072E000C880B990B0E94B5252BED3FE04D
:1018700049E450E40E94F82620E030E044E353E4D9
:101880000E940B252B013C010E9406259B01AC0107
:10189000C501B4010E94F826F7016683778380872B
:1018A0009187C301B2010E9465279B01AC01C5016C
:1018B000B4010E94F826F7016287738784879587B1
:1018C000FFEFCF1ADF0A2EE0E20EF11CB7CF6F81D7
:1018D00078856F5F7F4F78876F8381017A8769870B
:1018E00080917E0590917F05E985FA85E817F907D3
:1018F00024F0FEE02F0E311C8ECFF1010190F0811B
:10190000E02DFC87EB87F8010684F785E02DFE8744
:10191000ED876B857C856E1B7F0B072E000C880B7B
:10192000990B0E94B5252BED3FE049E450E40E945D
:10193000F82620E030E044E353E40E940B250E94A7
:1019400006256B8B7C8B8D8B9E8BF1010280F38146
:10195000E02DF88BEF87CF016AE070E00E9402244F
:10196000072E000C880B990B0E94B5256B017C019A
:10197000F8010088F189E02DFA8BE98BCF016AE04C
:1019800070E00E940224072E000C880B990B0E9425
:10199000B5254B015C01A7019601C701B6010E9464
:1019A000F8262B013C01A5019401C501B4010E9458
:1019B000F8269B01AC01C301B2010E9466242B01F1
:1019C0003C01A7019601C701B6010E946624A5014A
:1019D00094010E94F8262B893C894D895E890E94DA
:1019E000F8269B01AC01C301B2010E9465240E944C
:1019F000732720E030E040E251E40E94F8266B01BA
:101A00007C0120E030E040E752E40E94EB2618160B
:101A10000CF061C020E030E042ED52E4C701B601B5
:101A20000E94012587FF57C08F85988929893A89A7
:101A3000820F931F97FD0196959587958C599F4F1F
:101A4000E0E9F8E021E0408151816B857C856417F5
:101A500075075CF46D857E854617570734F442811F
:101A60005381481759070CF420E03E967DE0EC378F
:101A7000F70749F7222379F180917C0590917D0544
:101A8000EEE0E89FD001E99FB00D1124A058BA4FB5
:101A9000F1012EE001900D922A95E1F79C012F5F54
:101AA0003F4FFEE0F29FD001F39FB00D1124A058EC
:101AB000BA4FF8013E962EE001900D922A95E1F77B
:101AC000029690937D0580937C056FEF73E08AE822
:101AD0009DE00E94591C29853A852F5F3F4F3A8728
:101AE0002987025F1F4FFCCE6BE074E08AE89DE01F
:101AF0000E94591CF12CE12C80917C0590917D0570
:101B0000E816F9060CF046C06BE073E08AE89DE049
:101B10000E94341CF801468157816085718522E05E
:101B200030E08AE89DE00E94141E64E573E08AE8D4
:101B30009DE00E94341CF8014285538564857585BB
:101B400022E030E08AE89DE00E94141E6AE573E01E
:101B50008AE89DE00E94341CF801628173814AE0AA
:101B600050E08AE89DE00E94041D63E673E08AE885
:101B70009DE00E94341CF801608171814AE050E0D0
:101B80008AE89DE00E940B1DFFEFEF1AFF0A025F3B
:101B90001F4FB2CF6FE274E08AE89DE00E94341CD0
:101BA00060917C0570917D054AE0CE0101960E940E
:101BB0008920BE016F5F7F4F8AE89DE00E94471C2D
:101BC000CE0101960E94FB1F80917C0590917D05BE
:101BD00082309105F9F42F89388D30931F022093BC
:101BE0001E0268960FB6F894DEBF0FBECDBFDF9120
:101BF000CF911F910F91FF90EF90DF90CF90BF900A
:101C0000AF909F908F907F906F905F904F903F909C
:101C10002F900895009711F003971CF38FE090E048
:101C200090931F0280931E02DCCF4F925F926F92BF
:101C30007F928F929F92AF92BF92CF92DF92EF925C
:101C4000FF920F931F93CF93DF937C0108EE13E075
:101C50009EE0C92E44EF51E060E070E08DE79DE02A
:101C60000E94D31197FDB0C04090830D5090840D19
:101C70006090850D7090860DA30192016091220203
:101C80007091230280912402909125020E94EB26FC
:101C900087FD32C0A3019201609126027091270254
:101CA00080912802909129020E940125181624F1A2
:101CB00080907F0D9090800DA090810DB090820D4E
:101CC000D090870DC301B2010E947D259B0127584A
:101CD0003109C29EE001C39ED00D1124C057D74FD9
:101CE00079836883C501B4010E947D257B836A8363
:101CF0008D2D90E09D838C830150110909F0AACFAE
:101D0000C0E9D8E0FE0127E830E00AE010E088E80A
:101D1000C82E83E1D82E82819381009709F074C088
:101D200031832083D382C2823E962F5F3F4F213E74
:101D3000310589F780917C0D882351F10CE71DE076
:101D4000688179814AE050E08AE89DE00E94041DA4
:101D50006AE374E08AE89DE00E94341C6A817B811A
:101D60004AE050E08AE89DE00E94041D6AE374E0C6
:101D70008AE89DE00E94341C6C817D814AE050E03D
:101D80008AE89DE00E940B1D2E960C171D07C1F6D8
:101D900070E060E083E00E945922B7018091200248
:101DA00090912102DF91CF911F910F91FF90EF90C1
:101DB000DF90CF90BF90AF909F908F907F906F906B
:101DC0005F904F900C94480B70E060E083E00E94BD
:101DD000592268EE73E080E090E00E94BE2128EE78
:101DE00033E040E050E060E08DE79DE00E945A1350
:101DF0006FEF70E083E00E94592268EE73E080E0AC
:101E000090E00E94BE2178CFB8010E940224738323
:101E100062838ACFCF92DF92EF92FF920F931F934C
:101E200067E27EE08DE79DE00E94B31126E040E08E
:101E300052EC61E070E08AE89DE00E94381A61E0AF
:101E400083E00E94972361E086E10E94972361E08E
:101E500088E00E94972361E089E00E94972361E077
:101E60008AE00E94972362E082E00E94972343E089
:101E700050E067E672E080E00E94291E61E086E1A2
:101E80000E94D3236AE070E080E090E00E94BE21CF
:101E90006CE374E08AE89DE00E94591C68EE73E0F0
:101EA00080E090E00E94BE2163E089E89DE00E940E
:101EB000111561E774E0811102C06DE774E08AE8F2
:101EC0009DE00E94591C68EE73E080E090E00E9463
:101ED000BE2161E070E080E295E00E943F18C09072
:101EE0001202D0901302E0901402F09015020091BB
:101EF0001602109117022091180230911902409198
:101F00001A0250911B0260911C0270911D0280E226
:101F100095E00E94611761E070E080ED94E00E941E
:101F20003F18C0901805D0901905E0901A05F09060
:101F30001B0500910A0210910B0220910C023091B6
:101F40000D0240910E0250910F02609110027091AB
:101F5000110280ED94E00E94611700E010E020EF94
:101F600031E440E050E060EF71EC80ED94E00E94DD
:101F700077171F910F91FF90EF90DF90CF9008950A
:101F80008F929F92AF92BF92CF92DF92EF92FF9289
:101F90000F931F93CF93DF9300D000D000D01F92F8
:101FA0001F92CDB7DEB7E0911E02F0911F02E13122
:101FB000F10508F033C18827EF51F04F8F4F0C9493
:101FC0003824F20F12103E106C108E10A8100E1153
:101FD0000E110E110E110E110E110E110E110E1109
:101FE000C810EE106CE874E08AE89DE00E94591C6D
:101FF00083E090E00E94E10281E090E02B960FB632
:10200000F894DEBF0FBECDBFDF91CF911F910F912E
:10201000FF90EF90DF90CF90BF90AF909F908F9008
:102020000C94150E89809A80AB80BC80CD80DE80B8
:10203000EF80F88409851A852B8550E040E070E038
:1020400060E080E00E94860483E090E00E94E1026C
:1020500082E090E02B960FB6F894DEBF0FBECDBFA6
:10206000DF91CF911F910F91FF90EF90DF90CF9074
:10207000BF90AF909F908F900C94E60883E090E023
:102080000E94E102609178057091790580917A054E
:1020900090917B0589809A80AB80BC80CD80DE806A
:1020A000EF80F88409851A852B8543E050E00E9473
:1020B0003E062B960FB6F894DEBF0FBECDBFDF9164
:1020C000CF911F910F91FF90EF90DF90CF90BF9035
:1020D000AF909F908F90089581E090E00E94E10280
:1020E00020E030E040E251E46091700570917105AC
:1020F00080917205909173050E94652489809A8071
:10210000AB80BC80CD80DE80EF80F88409851A85A5
:102110002B8544E050E00E943105CBCF83E090E076
:102120000E94E102609174057091750580917605B9
:102130009091770589809A80AB80BC80CD80DE80CD
:10214000EF80F88409851A852B8545E050E0AFCFF4
:1021500081E090E00E94E10220E030E040E252E4C1
:102160006091700570917105809172059091730571
:102170000E94662489809A80AB80BC80CD80DE80FE
:10218000EF80F88409851A852B8540E150E0C3CFA4
:1021900067E974E08AE89DE00E94591C8FEF9FEF89
:1021A0000E94720282E090E00E94E10268EB7BE014
:1021B00080E090E02B960FB6F894DEBF0FBECDBF47
:1021C000DF91CF911F910F91FF90EF90DF90CF9013
:1021D000BF90AF909F908F900C94BE2181E090E0D3
:1021E0000E94E1026EE974E08AE89DE00E94591CB9
:1021F0008FEF9FEF2B960FB6F894DEBF0FBECDBFCB
:10220000DF91CF911F910F91FF90EF90DF90CF90D2
:10221000BF90AF909F908F900C94720290E080E0FE
:102220002B960FB6F894DEBF0FBECDBFDF91CF91D6
:102230001F910F91FF90EF90DF90CF90BF90AF90E4
:102240009F908F900C94E102AF92BF92CF92DF9259
:10225000EF92FF920F931F938DE79DE00E949511DF
:10226000A0901602B0901702C0901802D0901902E8
:10227000E0901A02F0901B0200911C0210911D02C6
:102280001F921F92809115028F93809114028F9359
:10229000809113028F93809112028F9324E635E090
:1022A0004CE555E060E675E080E295E00E94051996
:1022B000A0900A02B0900B02C0900C02D0900D02C8
:1022C000E0900E02F0900F020091100210911102A6
:1022D0001F921F9280911B058F9380911A058F93F7
:1022E000809119058F93809118058F932CE135E02B
:1022F0004CE055E060E175E080ED94E00E94051946
:102300008DB79EB70C960FB6F8949EBF0FBE8DBFCB
:102310001F910F91FF90EF90DF90CF90BF90AF9003
:1023200008958DE79DE00C94B111FC01118210829B
:1023300012821382148215821682178210861186E9
:10234000128613860895CF93DF93EC0188819981DB
:10235000009721F00E949A1A19821882DF91CF917A
:1023600008950C94A3110F931F93CF93DF93EC0167
:102370008B0188819981892B19F0CE010E94A311CC
:1023800019830883C8010E949A1A26E040E052ECA3
:1023900061E070E0888199810E94381ADF91CF91C5
:1023A0001F910F9108954F925F926F927F928F923B
:1023B0009F92AF92BF92EF92FF921F93CF93DF93C2
:1023C00000D01F921F92CDB7DEB77C012A013B01DE
:1023D0000E948D214B015C0110E00E948D21681943
:1023E00079098A099B09461657066806790608F492
:1023F00072C0D7018D919C91DC01ED91FC9102841A
:10240000F385E02D199597FDE8CF112309F457C006
:10241000113009F45DC091E0910FE1E0F0E0EC0FC4
:10242000FD1FE10FF11D8083953009F046C06C81DE
:102430007D8190E080E00E94B32520E030E040E81C
:102440005EE30E94F826D70112966D937D938D93DB
:102450009C9315976A817B817695679590E080E0E3
:102460000E94B32520E030E040E85CE30E94F826BB
:10247000F70166837783808791878981282F30E0F1
:10248000359527953595279522878170838760E05C
:1024900070E0CB010F900F900F900F900F90DF9195
:1024A000CF911F91FF90EF90BF90AF909F908F9032
:1024B0007F906F905F904F900895192F8ECF9C0161
:1024C00035952795FC01E2279F0120FDA4CF85CFFC
:1024D00080FDA1CF81CF62E070E880E090E8DACFA4
:1024E000CF92DF92EF92FF920F931F93CF93DF93E0
:1024F00000D000D01F92CDB7DEB77C01162F5F83CE
:102500004E8369011D82232B21F0CA01892B09F01A
:10251000106805EA09831A83D7018D919C91DC012B
:10252000ED91FC910280F381E02D42E050E0BE018C
:102530006F5F7F4F199517FF40C06D8160276C2535
:1025400061276D83EE81FF8196012E0F3F1FE217F9
:10255000F30729F091918D8189278D83F8CFCC8263
:10256000F70180819181DC01ED91FC910280F38182
:10257000E02D41E050E0BE016C5F7F4F1995F701FF
:10258000808191814C8150E0DC01ED91FC910280D1
:10259000F381E02DBE016A5F7F4F1995F7018081BD
:1025A0009181DC01ED91FC910280F381E02D41E00D
:1025B00050E0BE016B5F7F4F199560E070E0CB018A
:1025C00027960FB6F894DEBF0FBECDBFDF91CF9137
:1025D0001F910F91FF90EF90DF90CF900895FC0135
:1025E00020813181232B39F030E020E050E040E0C1
:1025F00065E20C94701261E070E880E090E8089564
:102600007F928F929F92AF92BF92CF92DF92EF9282
:10261000FF920F931F93CF93DF938C01EB0149013E
:102620005A010E948D216B017C01712C0E948D2129
:102630006C197D098E099F0986169706A806B906AA
:10264000A0F1D8018D919C91DC01ED91FC91028467
:10265000F385E02D199597FDE9CF7720F1F0B1E0F2
:102660007B16F9F091E0970DFE01E70DF11D8083D7
:10267000973089F460E070E0CB01DF91CF911F913A
:102680000F91FF90EF90DF90CF90BF90AF909F9011
:102690008F907F900895792EC9CF853A910511F3D7
:1026A000C5CF8A359105F1F2C0CF62E070E880E0D5
:1026B00090E8E3CFBF92CF92DF92EF92FF920F9319
:1026C0001F93CF93DF9300D000D01F92CDB7DEB71A
:1026D000DC01ED91FC91EF2B09F440C069017A0116
:1026E000B62E8C010E94EF1260E2B11061E230E080
:1026F00020E050E040E0C8010E94701297FD1AC02F
:10270000A7019601BE016F5F7F4FC8010E940013B1
:1027100097FD10C08F818138E9F48B819C81AD8158
:102720002E81B22FBF730597A105B10598F060E027
:1027300070E0CB0127960FB6F894DEBF0FBECDBF79
:10274000DF91CF911F910F91FF90EF90DF90CF908D
:10275000BF90089560E070E8CB01ECCF61E070E8D5
:1027600080E090E8E7CF8EBD0DB407FEFDCF8EB5BB
:102770000895CF93DF93D82FC62F289882E00E9428
:10278000B3138D2F0E94B3138C2F0E94B313289A7A
:10279000DF91CF910895CF93C82F289883E00E94AE
:1027A000B3138C2F0E94B3138FEF0E94B313289A98
:1027B000CF9108951F93CF93DF93182FD62FC42F57
:1027C000289885E00E94B313812F0E94B3138D2FA8
:1027D0000E94B3138C2F0E94B313289ADF91CF91DC
:1027E0001F91089528980E94B3138FEF0E94B3138E
:1027F000289A0895CF93C82F289A209A29982A9822
:102800002B98219A229A23986C98749A81E58CBD12
:102810001DBC289880EC0E94B313289A87EC90E0A6
:102820000197F1F700C00000289882E00E94B313DE
:1028300088E20E94B31382E00E94B31380E90E94F1
:10284000B3138C2F0E94B31383E00E94B313289A12
:102850008AE20E94CB138C1741F0809102018062C2
:102860008093020180E0CF91089560E08CE00E94A7
:10287000B91360E08DE00E94B91360E680E60E9423
:10288000B91360E680E70E94B91360E08FE00E9410
:10289000B91381E0E8CFEF92FF920F931F93CF938C
:1028A000DF938C0180EB0E94F213C82F282F207435
:1028B000E22E86FD05C084E9C7FD03C080E040C06C
:1028C00080E928980E94B3138FEF0E94B313E8E0C9
:1028D0008E9FC0011124F801918380838FEF0E94A5
:1028E000B313282F229526952770F80180819181B6
:1028F000822B918380838FEF0E94B3138FEF0E940E
:10290000B3138FEF0E94B3138F70F82E982F990F87
:10291000F8018281817E892BC3FB80F982830D5F60
:102920001F4FD0E0DF1113C0289A40E061E0E110B2
:1029300001C062E08CE20E94DA138C2F87708F5FF7
:10294000DF91CF911F910F91FF90EF9008958FEF3E
:102950000E94B313F80181938F01DF5FE3CFFF92F1
:102960000F931F93CF93DF938C0180EA0E94F213A1
:1029700082FF07C084FF44C0C4E086FF03C0C0E0FC
:1029800038C0C0E028988C2F80640E94B313F801EF
:102990008081918123E0969587952A95E1F70E94A1
:1029A000B313F80180818295880F807E0E94B31353
:1029B00080E00E94B31380E00E94B313F80182818B
:1029C000D82FD695DF7080FF1DC08D2F80640E94A8
:1029D000B313289A87EC90E00197F1F700C000004C
:1029E0002898C11101C0C1E08C2F80680E94B313E8
:1029F000289A8C2FDF91CF911F910F91FF9008950E
:102A0000C2E0C0CF8D2F0E94B3130D5F1F4FF12C7A
:102A1000FD16F9F2F80181918F010E94B313F3942E
:102A2000F7CF862F0C94FA132F923F924F925F921A
:102A30006F927F928F929F92AF92BF92CF92DF92CE
:102A4000EF92FF920F931F93CF93DF93CDB7DEB733
:102A500060970FB6F894DEBF0FBECDBFDC01DA96EB
:102A6000BC91BD83B1111BC01D828D8160960FB6D4
:102A7000F894DEBF0FBECDBFDF91CF911F910F91B4
:102A8000FF90EF90DF90CF90BF90AF909F908F908E
:102A90007F906F905F904F903F902F900895988B0C
:102AA0008F870E948D216B877C878D879E87EF851E
:102AB000F88982A193A1A4A1B5A12B853C854D8560
:102AC0005E85281B390B4A0B5B0BDA01C90146A551
:102AD00057A560A971A984179507A607B70720F223
:102AE000048CF58DE02D80819181A281B381898351
:102AF0009A83AB83BC83AF85B8899096ED91FC91A6
:102B000029813A814B815C816081718182819381CD
:102B10000E9465244B015C01EF85F88922A533A54D
:102B200044A555A569817A818B819C810E94652489
:102B30006B017C01AF85B88950962D913D914D91E7
:102B40005C915397C501B4010E94F826EF85F8897E
:102B500026A137A140A551A50E9466242B013C0166
:102B6000AF85B88996964D925D926D927C929997B9
:102B7000DB96BC91BE83B11118C0EF85F88924851E
:102B8000358546855785C701B6010E94F8269B0109
:102B9000AC01C301B2010E946524AF85B889969645
:102BA0006D937D938D939C939997EF85F88946A0BB
:102BB00057A060A471A416A907A930AC21AC212F9D
:102BC000302F432D522DC301B2010E94EB2618165F
:102BD0000CF07FC0812F902FA32DB22DEF85F889A7
:102BE00086A397A3A0A7B1A7BE81BB2309F490C079
:102BF000EF85F8892485358546855785C501B4015B
:102C00000E94F8264B015C01AF85B88954962D913E
:102C10003D914D915C915797C701B6010E94F826EE
:102C20009B01AC01EF85F88966A177A180A591A5EC
:102C30000E946524A50194010E9466246B017C0119
:102C40009B01AC01612F702F832D922D0E940125D5
:102C500087FD1BC0AF85B889D2961C91D297D396B9
:102C60000C91D397D4963C90D497D5962C909601FE
:102C7000A701612F702F832D922D0E94EB2618162D
:102C800024F01C2D0D2D3E2C2F2CAF85B8895E967F
:102C9000ED91FC91812F902FA32DB22D80839183F4
:102CA000A283B38329813A814B815C81AF85B88946
:102CB0009A962D933D934D935C939D972B853C85E0
:102CC0004D855E8592962D933D934D935C9395979C
:102CD000CCCEAF85B889D2962D913D914D915C9126
:102CE000D5972F83388749875A87C301B2010E943D
:102CF000012587FF79CF2F81388549855A85AF8592
:102D0000B88996962D933D934D935C9399976CCF8C
:102D1000812C912C540178CF4F925F926F927F92C9
:102D20008F929F92AF92BF92CF92DF92EF92FF92DB
:102D30000F931F93CF93DF9300D000D0CDB7DEB7B2
:102D40009E838D8349835A836B837C832801390159
:102D500020E030E0A90169817A818B819C810E9409
:102D6000012587FD97C020E030E0A901C301B8012B
:102D70000E94012587FD8EC020E030E0A901C70137
:102D8000B6010E94012587FD85C0AD81BE815B969D
:102D9000BC92AE925A9781E0AA94AB2809F080E0E9
:102DA000ED81FE8183AF89819A81AB81BC81808373
:102DB0009183A283B3834482558266827782C086E0
:102DC000D186E286F38666A577A580A991A90E949F
:102DD000B32520E030E04AE754E40E940B254B0184
:102DE0005C0189819A81AB81BC81ED81FE81848700
:102DF0009587A687B787A5019401C301B2010E94F8
:102E0000F8262B013C01AD81BE8150964D925D921A
:102E10006D927C925397A5019401C701B6010E945F
:102E20000B256B017C01ED81FE81C48AD58AE68A7F
:102E3000F78A808D918D019769F529813A814B81BF
:102E40005C8160E070E0CB010E946524AD81BE81B1
:102E50001C966D937D938D939C931F97A301920174
:102E600060E070E0CB010E946524ED81FE81608B03
:102E7000718B828B938BA701960160E070E0CB0190
:102E80000E946524AD81BE8154966D937D938D9390
:102E90009C93579726960FB6F894DEBF0FBECDBF12
:102EA000DF91CF911F910F91FF90EF90DF90CF9026
:102EB000BF90AF909F908F907F906F905F904F905A
:102EC0000895AF92BF92CF92DF92EF92FF920F934D
:102ED0001F93FC01A28CB38C0E948C161F910F9142
:102EE000FF90EF90DF90CF90BF90AF9008952F921A
:102EF0003F924F925F926F927F928F929F92AF928A
:102F0000BF92CF92DF92EF92FF920F931F93CF93D6
:102F1000DF93EC016A017B0148015901A901980185
:102F2000CB01B6010E94EB2687FF4FC0CAAADBAADD
:102F3000ECAAFDAA8EAA9FAAA8AEB9AE8AAD882334
:102F400009F443C02E8C3F8CF10140805180628097
:102F50007380A3019201C501B8010E94012587FF7A
:102F60001AC0F10180829182A282B3828EA09FA0BA
:102F7000A8A4B9A4CEA8DFA8E8ACF9ACA701960133
:102F8000C501B4010E94EB2618169CF4CEA2DFA264
:102F9000E8A6F9A61AC0A3019201C701B6010E94D2
:102FA000EB2618161CF7F101C082D182E282F3826F
:102FB000DDCFCAA8DBA8ECA8FDA8A7019601C50132
:102FC000B4010E94012587FDE1CFDF91CF911F91D0
:102FD0000F91FF90EF90DF90CF90BF90AF909F90B8
:102FE0008F907F906F905F904F903F902F900895BB
:102FF0008F929F92AF92BF92CF92DF92EF92FF9209
:10300000CF93DF93EC01EE8DFF8DC080D180E28005
:10301000F380CEA2DFA2E8A6F9A6EC8DFD8D80811B
:103020009181A281B3818AA79BA7ACA7BDA78EA8D7
:103030009FA8A8ACB9ACA5019401C701B6010E9434
:10304000EB2618162CF48EA29FA2A8A6B9A60CC037
:103050008AA89BA8ACA8BDA8A5019401C701B60188
:103060000E94012587FDEFCFDF91CF91FF90EF9078
:10307000DF90CF90BF90AF909F908F9008951F9357
:10308000CF93DF93EC0111E06130710509F010E09E
:103090006130710531F48AAD811103C0CE010E9407
:1030A000F8171AAFDF91CF911F9108950F931F93D7
:1030B000CF93DF93EC018B018AAD882361F1888D7A
:1030C000998D8617970739F12C853D854E855F854B
:1030D00060E070E0CB010E9465246C877D878E875D
:1030E0009F87288939894A895B8960E070E0CB0134
:1030F0000E946524688B798B8A8B9B8B2C893D89F8
:103100004E895F8960E070E0CB010E9465246C8B82
:103110007D8B8E8B9F8B198F088FDF91CF911F91A5
:103120000F9108954F925F926F927F928F929F922C
:10313000AF92BF92CF92DF92EF92FF920F931F93C5
:10314000CF93DF9300D01F92CDB7DEB74C0127019C
:103150003801A982BA82CB82DC82FC01578F468F6C
:10316000758F648F31A320A312AE80E090E0A0EAB7
:10317000B2EC82AB93ABA4ABB5AB80E090E0A0EA3D
:10318000B2E486AB97ABA0AFB1AF84E690E0A0E02D
:10319000B0E086A797A7A0ABB1AB6E8D7F8DC401C1
:1031A0000E945618AC8CBD8CC88CD98CEA8CFB8CD8
:1031B00009811A812B813C81B301A201C4010E94C3
:1031C0008C160E948D21F40146A457A460A871A812
:1031D000641975098609970962A373A384A395A34B
:1031E0000F900F900F900F90DF91CF911F910F9143
:1031F000FF90EF90DF90CF90BF90AF909F908F9017
:103200007F906F905F904F9008958F929F92AF92B2
:10321000BF92CF92DF92EF92FF920F931F93CF93C3
:10322000DF93CDB7DEB7E889F989AA89BB899C8885
:103230008D888F929F921F92992493949F92BF930F
:10324000AF93FF93EF930E9492180FB6F894DEBFEE
:103250000FBECDBFDF91CF911F910F91FF90EF90E7
:10326000DF90CF90BF90AF909F908F900895FC011A
:10327000918D228D892F90E0805C9F4F821B910958
:103280008F7399270895FC01918D828D981731F0E5
:10329000828DE80FF11D858D90E008958FEF9FEFEF
:1032A0000895FC01918D828D981761F0A28DAE0F6B
:1032B000BF2FB11D5D968C91928D9F5F9F73928FF2
:1032C00090E008958FEF9FEF0895FC01538D448D9A
:1032D000252F30E0842F90E0821B930B541710F0C1
:1032E000CF960895019708958CE19BE1892B49F0D1
:1032F00080E090E0892B29F00E941C1B81110E9424
:10330000000080E090E0892B49F080E090E0892B7C
:1033100029F00E94000081110E94000080E090E0EE
:10332000892B49F080E090E0892B29F00E94000071
:1033300081110E94000083EB9BE1892B49F080E022
:1033400090E0892B29F00E94B31B81110C9400009E
:103350000895FC01A48DA80FB92FB11DA35ABF4F2A
:103360002C91848D90E001968F739927848FA68984
:10337000B7892C93A089B1898C91837080648C93D8
:10338000938D848D981306C00288F389E02D808187
:103390008F7D80830895CF93DF93EC01888D882300
:1033A000B9F0AA89BB89E889F9898C9185FD03C0A8
:1033B000808186FD0DC00FB607FCF7CF8C9185FF8D
:1033C000F2CF808185FFEDCFCE010E94A919E9CF10
:1033D000DF91CF910895EF92FF920F931F93CF93B8
:1033E000DF93EC0181E0888F9B8D8C8D98131AC040
:1033F000E889F989808185FF15C09FB7F894EE8927
:10340000FF896083E889F989808183708064808383
:103410009FBF81E090E0DF91CF911F910F91FF90CE
:10342000EF900895F62E0B8D10E00F5F1F4F0F7376
:103430001127E02E8C8D8E110CC00FB607FCFACF31
:10344000E889F989808185FFF5CFCE010E94A9190D
:10345000F1CFEB8DEC0FFD2FF11DE35AFF4FF08202
:103460009FB7F8940B8FEA89FB8980818062CFCF68
:10347000CF92DF92EF92FF921F93CF93DF93EC01F5
:103480006A017B01122FE889F98982E08083C114E7
:1034900081EED806E104F104A1F060E079E08DE36B
:1034A00090E0A70196010E9416242150310941099C
:1034B00051095695479537952795211580E138078D
:1034C00098F0E889F989108260E874E88EE190E06C
:1034D000A70196010E941624215031094109510982
:1034E0005695479537952795EC85FD853083EE8574
:1034F000FF852083188EEC89FD891083EA89FB897A
:10350000808180618083EA89FB89808188608083F3
:10351000EA89FB89808180688083EA89FB898081D0
:103520008F7D8083DF91CF911F91FF90EF90DF908F
:10353000CF900895CF93DF93EC01E881F981068065
:10354000F781E02D1995EA89FB8980818F7E808340
:10355000EA89FB898081877F8083EA89FB89808172
:103560008F778083EA89FB8980818F7D80838A8D34
:10357000898FDF91CF9108951F920F920FB60F920E
:1035800011240BB60F922F938F939F93EF93FF937A
:10359000E0919A0DF0919B0D8081E091A00DF0914A
:1035A000A10D82FD1DC090818091A30D8F5F8F734F
:1035B0002091A40D821741F0E091A30DF0E0E657B1
:1035C000F24F958F8093A30DFF91EF919F918F9173
:1035D0002F910F900BBE0F900FBE0F901F9018955C
:1035E0008081F2CF1F920F920FB60F9211240BB66B
:1035F0000F922F933F934F935F936F937F938F938C
:103600009F93AF93BF93EF93FF938AE89DE00E944F
:10361000A919FF91EF91BF91AF919F918F917F91E8
:103620006F915F914F913F912F910F900BBE0F9033
:103630000FBE0F901F9018958AE89DE00E943719E1
:1036400021E0892B09F420E0822F0895EAE8FDE0CB
:103650001382128288EE93E0A0E0B0E08483958329
:10366000A683B7838FEA94E09183808385EC90E012
:103670009587848784EC90E09787868780EC90E03C
:10368000918B808B81EC90E0938B828B82EC90E02D
:10369000958B848B86EC90E0978B868B118E128EA7
:1036A000138E148E08951F920F920FB60F9211244D
:1036B0000BB60F922F938F939F93EF93FF93E0910D
:1036C000370EF091380E8081E0913D0EF0913E0E64
:1036D00082FD1DC090818091400E8F5F8F7320917D
:1036E000410E821741F0E091400EF0E0E95DF14FAC
:1036F000958F8093400EFF91EF919F918F912F9125
:103700000F900BBE0F900FBE0F901F9018958081E9
:10371000F2CF1F920F920FB60F9211240BB60F9299
:103720002F933F934F935F936F937F938F939F93C9
:10373000AF93BF93EF93FF9387E29EE00E94A91996
:10374000FF91EF91BF91AF919F918F917F916F9179
:103750005F914F913F912F910F900BBE0F900FBE35
:103760000F901F90189587E29EE00E94371921E084
:10377000892B09F420E0822F0895E7E2FEE013820E
:10378000128288EE93E0A0E0B0E084839583A68364
:10379000B7838FEA94E09183808385E391E09587F6
:1037A000848784E391E09787868780E391E0918B1B
:1037B000808B81E391E0938B828B82E391E0958B08
:1037C000848B86E391E0978B868B118E128E138EFD
:1037D000148E0895AF92BF92CF92DF92EF92FF9234
:1037E0000F931F93CF93DF936C017B018B01040F29
:1037F000151FEB015E01AE18BF08C017D10759F0C5
:103800006991D601ED91FC910190F081E02DC60106
:103810001995892B79F7C501DF91CF911F910F91F0
:10382000FF90EF90DF90CF90BF90AF900895FB0195
:1038300001900020E9F73197AF01461B570BDC01DF
:10384000ED91FC910280F381E02D1994DB01149637
:103850004D915C9115976D917C91DC01ED91FC91FE
:103860000280F381E02D19946115710511F00C941B
:10387000171C90E080E00895DC01ED91FC9101902F
:10388000F081E02D19946DEB74E00C94171C0F93EC
:103890001F93CF93DF93EC010E94261C8C01CE0175
:1038A0000E94431C800F911FDF91CF911F910F91B8
:1038B00008950F931F93CF93DF938C01D0E0C0E066
:1038C0006115710519F00E94171CEC01C8010E94D6
:1038D000431C8C0F9D1FDF91CF911F910F91089575
:1038E0008F929F92AF92BF92EF92FF920F931F938E
:1038F000CF93DF93CDB7DEB7A1970FB6F894DEBFB5
:103900000FBECDBF7C01FA01CB0119A2223008F411
:103910002AE08E010F5D1F4F822E912CB12CA12C1D
:10392000BF01A50194010E941624F901CA016A3061
:103930000CF5605DD8016E938D01232B242B252B74
:1039400079F790E080E0109721F0BD01C7010E9457
:10395000171CA1960FB6F894DEBF0FBECDBFDF9146
:10396000CF911F910F91FF90EF90BF90AF909F90DC
:103970008F900895695CDECFCF92DF92EF92FF9235
:103980000F931F93CF93DF932115310581F4DC0151
:10399000ED91FC910190F081E02D642FDF91CF91AA
:1039A0001F910F91FF90EF90DF90CF9019942A30E4
:1039B000310501F52AE077FF1DC06A017B01EC01AA
:1039C0006DE20E943C1C8C0144275527BA014C191A
:1039D0005D096E097F092AE0CE010E94701C800FEC
:1039E000911FDF91CF911F910F91FF90EF90DF908A
:1039F000CF900895DF91CF911F910F91FF90EF909D
:103A0000DF90CF900C94701C9A01AB01770F660B7E
:103A1000770B0C94BC1C0F931F93CF93DF93EC0197
:103A20000E94041D8C01CE010E94431C800F911F37
:103A3000DF91CF911F910F9108952115310541F428
:103A4000DC01ED91FC910190F081E02D642F19943F
:103A50000C94701C9A01AB0170E060E00C941D1D89
:103A60002F923F924F925F926F927F928F929F928E
:103A7000AF92BF92CF92DF92EF92FF921F93CF93BC
:103A8000DF93EC016A017B01722EAB019601CB0141
:103A9000B6010E94B72760EC74E0811126C0460190
:103AA0005701E894B7F82FEF3FEF4FE75FE7C50105
:103AB000B4010E94B72781110CC02FEF3FEF4FE7F1
:103AC0005FE7C501B4010E94012564EC74E018169B
:103AD00064F02FEF3FEF4FE75FE4C701B6010E94AC
:103AE000EB261816B4F468EC74E0CE01DF91CF91A8
:103AF0001F91FF90EF90DF90CF90BF90AF909F907D
:103B00008F907F906F905F904F903F902F900C948C
:103B1000171C2FEF3FEF4FE75FECC701B6010E9484
:103B2000012587FDE0CF20E030E0A901C701B60103
:103B30000E940125312C212C87FF09C06DE2CE01A6
:103B40000E943C1C1C01F7FAF094F7F8F09410E086
:103B500060E070E080E09FE3711641F020E030E02B
:103B600040E251E40E940B251F5FF6CFA7019601AA
:103B70000E9466242B013C010E9484254B015C01BC
:103B80002AE0BC01A401CE010E94701C7C01E20C61
:103B9000F31C1123B1F1C501B4010E94B3259B01AF
:103BA000AC01C301B2010E9465244B015C016EE2CD
:103BB000CE010E943C1CE80EF91E115010F120E0CD
:103BC00030E040E251E4C501B4010E94F8262B0127
:103BD0003C010E9484254B014AE050E0CE010E9446
:103BE0002A1DE80EF91EB40190E080E00E94B32582
:103BF0009B01AC01C301B2010E9465244B015C0131
:103C0000DCCFC701DF91CF911F91FF90EF90DF9044
:103C1000CF90BF90AF909F908F907F906F905F906C
:103C20004F903F902F9008950C94301D0F931F9349
:103C3000CF93DF93EC010E94301D8C01CE010E94D6
:103C4000431C800F911FDF91CF911F910F91089519
:103C50000895883008F076C0E82FF0E0EE0FFF1FDF
:103C6000E65DFD4F718360838150873008F03DC071
:103C7000E82FF0E08827E05CF14E8F4F0C94382459
:103C80007D1E471E4F1E5B1E681E891E961E80915C
:103C900069008C7F482B40936900E89A08958091D1
:103CA0006900837F440F551F440F551F482B4093D5
:103CB0006900E99A0895809169008F7C74E0440F4F
:103CC000551F7A95E1F7482B40936900EA9A0895C9
:103CD000809169008F7366E0440F551F6A95E1F784
:103CE000482B40936900EB9A089580916A008C7F7D
:103CF000482B40936A00EC9A089580916A00837F74
:103D0000440F551F440F551F482B40936A00ED9AEE
:103D1000089580916A008F7C24E0440F551F2A95F6
:103D2000E1F7482B40936A00EE9A089580916A006B
:103D30008F7396E0440F551F9A95E1F7482B4093F7
:103D40006A00EF9A08951F920F920FB60F921124F6
:103D50000BB60F922F933F934F935F936F937F9385
:103D60008F939F93AF93BF93EF93FF93E0912E02B6
:103D7000F0912F021995FF91EF91BF91AF919F9113
:103D80008F917F916F915F914F913F912F910F9004
:103D90000BBE0F900FBE0F901F9018951F920F92A1
:103DA0000FB60F9211240BB60F922F933F934F93A0
:103DB0005F936F937F938F939F93AF93BF93EF9393
:103DC000FF93E0913002F09131021995FF91EF914C
:103DD000BF91AF919F918F917F916F915F914F9123
:103DE0003F912F910F900BBE0F900FBE0F901F9021
:103DF00018951F920F920FB60F9211240BB60F92C7
:103E00002F933F934F935F936F937F938F939F93E2
:103E1000AF93BF93EF93FF93E0913202F09133029F
:103E20001995FF91EF91BF91AF919F918F917F91E4
:103E30006F915F914F913F912F910F900BBE0F901B
:103E40000FBE0F901F9018951F920F920FB60F92F2
:103E500011240BB60F922F933F934F935F936F9361
:103E60007F938F939F93AF93BF93EF93FF93E091D3
:103E70003402F09135021995FF91EF91BF91AF9106
:103E80009F918F917F916F915F914F913F912F9172
:103E90000F900BBE0F900FBE0F901F9018951F92A2
:103EA0000F920FB60F9211240BB60F922F933F93E0
:103EB0004F935F936F937F938F939F93AF93BF9332
:103EC000EF93FF93E0912A02F0912B021995FF9155
:103ED000EF91BF91AF919F918F917F916F915F9182
:103EE0004F913F912F910F900BBE0F900FBE0F90EF
:103EF0001F9018951F920F920FB60F9211240BB6B8
:103F00000F922F933F934F935F936F937F938F9372
:103F10009F93AF93BF93EF93FF93E0912C02F091A7
:103F20002D021995FF91EF91BF91AF919F918F91C4
:103F30007F916F915F914F913F912F910F900BBEA9
:103F40000F900FBE0F901F9018951F920F920FB6F3
:103F50000F9211240BB60F922F933F934F935F93C1
:103F60006F937F938F939F93AF93BF93EF93FF9341
:103F7000E0913602F09137021995FF91EF91BF91D0
:103F8000AF919F918F917F916F915F914F913F91F1
:103F90002F910F900BBE0F900FBE0F901F90189592
:103FA0001F920F920FB60F9211240BB60F922F9300
:103FB0003F934F935F936F937F938F939F93AF93B1
:103FC000BF93EF93FF93E0913802F0913902199576
:103FD000FF91EF91BF91AF919F918F917F916F91E1
:103FE0005F914F913F912F910F900BBE0F900FBE9D
:103FF0000F901F901895FC01808191810C949F284F
:10400000CF93DF93EC0188819981009711F00E9492
:104010009F28198218821D821C821B821A82DF91BE
:10402000CF9108950F931F93CF93DF93EC018B01F2
:104030006F5F7F4F888199810E942829009751F0F6
:10404000998388831B830A8381E0DF91CF911F913D
:104050000F91089580E0F9CFCF93DF93EC01888131
:104060009981892B49F08A819B818617970720F0D7
:1040700081E0DF91CF910895CE010E941220882324
:10408000C1F38C819D81892B99F7E881F981108298
:10409000EFCFEF92FF920F931F93CF93DF93EC013B
:1040A0007B018A01BA010E942C2081110BC0CE0134
:1040B0000E940020CE01DF91CF911F910F91FF90C0
:1040C000EF9008951D830C83B701888199810E9428
:1040D000122AF0CFFC011182108213821282158203
:1040E00014826115710551F0FB0101900020E9F780
:1040F0003197AF01461B570B0C9449200895FB01E3
:1041000001900020E9F73197AF01461B570B0C9443
:1041100049200F931F93CF93DF93CDB7DEB76297FC
:104120000FB6F894DEBF0FBECDBF8C01CB01F801F6
:1041300011821082138212821582148250E0BE0115
:104140006F5F7F4F0E94192ABE016F5F7F4FC801CA
:104150000E947F2062960FB6F894DEBF0FBECDBFDF
:10416000DF91CF911F910F910895CF93DF93EC01D1
:104170006115710531F00E947F20CE01DF91CF9152
:1041800008950E940020F9CFEF92FF920F931F93A2
:10419000CF93DF93CDB7DEB7A1970FB6F894DEBF0C
:1041A0000FBECDBF7C01CB01BA01F7011182108295
:1041B000138212821582148242E0420F8E010F5F39
:1041C0001F4F0E94E527BC01C7010E94B520A196A0
:1041D0000FB6F894DEBF0FBECDBFDF91CF911F9118
:1041E0000F91FF90EF900895EF92FF920F931F931E
:1041F000CF93DF936115710541F480E0DF91CF919A
:104200001F910F91FF90EF90089541155105B1F066
:104210007B01EC010C811D81040F151FB8010E9468
:104220002C20882351F3288139818C819D81B7010D
:10423000820F931F0E94122A1D830C8381E0DECF20
:10424000CF93DF93EC01FB01448155816081718143
:104250000E94F420811103C0CE010E940020CE01F3
:10426000DF91CF91089508950E94F7210E94332194
:104270000E940A0FC4E7D9E10E94C00F2097E1F322
:104280000E947419F9CF1F920F920FB60F9211244A
:104290002F933F938F939F93AF93BF938091C50EBE
:1042A0009091C60EA091C70EB091C80E3091C40E69
:1042B00023E0230F2D3758F50196A11DB11D209342
:1042C000C40E8093C50E9093C60EA093C70EB093F4
:1042D000C80E8091C90E9091CA0EA091CB0EB091DC
:1042E000CC0E0196A11DB11D8093C90E9093CA0EEC
:1042F000A093CB0EB093CC0EBF91AF919F918F91B5
:104300003F912F910F900FBE0F901F90189526E8A8
:10431000230F0296A11DB11DD2CF2FB7F894609143
:10432000C50E7091C60E8091C70E9091C80E2FBF1A
:1043300008953FB7F8948091C90E9091CA0EA0914C
:10434000CB0EB091CC0E26B5A89B05C02F3F19F01F
:104350000196A11DB11D3FBFBA2FA92F982F882705
:10436000BC01CD01620F711D811D911D42E0660FE0
:10437000771F881F991F4A95D1F708958F929F92B2
:10438000AF92BF92CF92DF92EF92FF926B017C01CE
:104390000E9499214B015C01C114D104E104F10494
:1043A000E9F00E9401240E949921681979098A097B
:1043B0009B09683E73408105910570F321E0C21AA4
:1043C000D108E108F10888EE880E83E0981EA11C50
:1043D000B11CC114D104E104F10429F7FF90EF905E
:1043E000DF90CF90BF90AF909F908F90089578947A
:1043F00084B5826084BD84B5816084BD85B58260EA
:1044000085BD85B5816085BDEEE6F0E08081816087
:104410008083E1E8F0E01082808182608083808187
:1044200081608083E0E8F0E0808181608083E1EB5F
:10443000F0E0808184608083E0EBF0E08081816047
:104440008083E1E9F0E08081826080838081816007
:104450008083E0E9F0E0808181608083E1EAF0E040
:10446000808182608083808181608083E0EAF0E0E7
:10447000808181608083E1E2F1E0808182608083DD
:10448000808181608083E0E2F1E0808181608083CF
:10449000EAE7F0E0808184608083808182608083AD
:1044A0008081816080838081806880831092C100D8
:1044B00008951F93CF93DF93182FEB0161E00E94C3
:1044C0009723209739F460E0812FDF91CF911F91DE
:1044D0000C94D323CF3FD10511F461E0F5CFE12F48
:1044E000F0E0E65AFC4FE491E150E23108F0B3C04D
:1044F000F0E08827E158FD4D8F4F0C94382491222D
:1045000099229E22A822B2222B23BC22C422CC2292
:10451000D622E022EA22F92203232B230D2317239C
:10452000212384B5806884BDC7BDDF91CF911F91E1
:10453000089584B5806284BDC8BDF7CF80918000A6
:10454000806880938000D0938900C0938800EDCF6D
:1045500080918000806280938000D0938B00C09314
:104560008A00E3CF80918000886080938000D093A0
:104570008D00C0938C00D9CF8091B000806880936B
:10458000B000C093B300D1CF8091B000806280931F
:10459000B000C093B400C9CF809190008068809330
:1045A0009000D0939900C0939800BFCF8091900065
:1045B000806280939000D0939B00C0939A00B5CF07
:1045C00080919000886080939000D0939D00C0936C
:1045D0009C00ABCF8091A00080688093A000809168
:1045E000A0008F7B8093A000D093A900C093A80067
:1045F0009CCF8091A00080628093A000D093AB00FC
:10460000C093AA0092CF8091A00088608093A00000
:10461000D093AD00C093AC0088CF8091200180681A
:1046200080932001D0932901C09328017ECF8091EF
:104630002001806280932001D0932B01C0932A0136
:1046400074CF80912001886080932001D0932D0148
:10465000C0932C016ACFC038D1050CF03ECF33CFC8
:104660008150823108F05AC0E82FF0E08827E45CDE
:10467000FC4D8F4F0C9438245C2360234E2354232D
:1046800058238E23632369236D23732377237B238E
:10469000812385238E2389238F2393238091800078
:1046A0008F77809380000895809180008F7DF9CF6F
:1046B00080918000877FF5CF84B58F7784BD089582
:1046C00084B58F7DFBCF8091B0008F778093B00051
:1046D00008958091B0008F7DF9CF809190008F7701
:1046E000809390000895809190008F7DF9CF809104
:1046F0009000877FF5CF8091A0008F778093A000F6
:1047000008958091A0008F7DF9CF8091A000877FD0
:10471000F5CF809120018F778093200108958091BB
:1047200020018F7DF9CF80912001877FF5CFCF9336
:10473000DF9390E0FC01E056FC4F24918A519C4F9E
:10474000FC0184918823C9F090E0880F991FFC0137
:10475000EA5BFB4FA591B491FC01E45DFB4FC59171
:10476000D49161110DC09FB7F8948C91209582234C
:104770008C938881282328839FBFDF91CF91089550
:10478000623051F49FB7F8943C91822F8095832337
:104790008C93E8812E2BEFCF8FB7F894EC912E2BD2
:1047A0002C938FBFEACF1F93CF93DF93282F30E056
:1047B000F901E65AFC4F8491F901E056FC4FD4917F
:1047C000F901EA51FC4FC491CC23A9F0162F8111B5
:1047D0000E943023EC2FF0E0EE0FFF1FE45DFB4F53
:1047E000A591B4918FB7F894EC91111108C0D095B0
:1047F000DE23DC938FBFDF91CF911F910895DE2BD5
:10480000F8CF089597FB072E16F4009407D077FD94
:1048100009D00E94402407FC05D03EF49095819574
:104820009F4F0895709561957F4F0895A1E21A2ECC
:10483000AA1BBB1BFD010DC0AA1FBB1FEE1FFF1F44
:10484000A217B307E407F50720F0A21BB30BE40B94
:10485000F50B661F771F881F991F1A9469F76095DB
:104860007095809590959B01AC01BD01CF01089595
:10487000EE0FFF1F881F8BBF0790F691E02D199454
:10488000AA1BBB1B51E107C0AA1FBB1FA617B70776
:1048900010F0A61BB70B881F991F5A95A9F7809592
:1048A0009095BC01CD0108959F939F770E94F025BC
:1048B0000F90002042F49058A2EA2AED3FE049E42C
:1048C00050E40E947D240C949D265058BB27AA27B3
:1048D0000E947D240C949D260E94642638F00E943C
:1048E0006B2620F039F49F3F19F426F40C943A26F5
:1048F0000EF4E095E7FB0C943426E92F0E94C226C3
:1049000058F3BA17620773078407950720F079F404
:10491000A6F50C94E4260EF4E0950B2EBA2FA02DEC
:104920000B01B90190010C01CA01A0011124FF275C
:10493000591B99F0593F50F4503E68F11A16F04057
:10494000A22F232F342F4427585FF3CF4695379556
:104950002795A795F0405395C9F77EF41F16BA0B1B
:10496000620B730B840BBAF09150A1F0FF0FBB1FC9
:10497000661F771F881FC2F70EC0BA0F621F731F12
:10498000841F48F4879577956795B795F7959E3F6F
:1049900008F0B0CF9395880F08F09927EE0F979500
:1049A00087950895DF93DD27B92FBF7740E85FE350
:1049B0001616170648075B0718F4D92F0E94F02631
:1049C0009F938F937F936F930E94B327E4EEF0E061
:1049D0000E943D260E949D262F913F914F915F910D
:1049E0000E940B27DD2351F09058A2EA2AED3FE008
:1049F00049EC5FE3D0785D270E947D24DF910C9421
:104A00009D260E94102608F481E008950E947426D5
:104A1000E3950C94AE260E941F250C949D260E94BF
:104A20006B2658F00E94642640F029F45F3F29F07D
:104A30000C94342651110C94E5260C943A260E94CD
:104A4000C22668F39923B1F3552391F3951B550BB7
:104A5000BB27AA2762177307840738F09F5F5F4F51
:104A6000220F331F441FAA1FA9F335D00E2E3AF090
:104A7000E0E832D091505040E695001CCAF72BD0A8
:104A8000FE2F29D0660F771F881FBB1F26173707F9
:104A90004807AB07B0E809F0BB0B802DBF01FF272B
:104AA00093585F4F3AF09E3F510578F00C943426AE
:104AB0000C94E5265F3FE4F3983ED4F38695779512
:104AC0006795B795F7959F5FC9F7880F911D9695E4
:104AD000879597F90895E1E0660F771F881FBB1F40
:104AE000621773078407BA0720F0621B730B840BED
:104AF000BA0BEE1F88F7E09508950E94842568940C
:104B0000B1110C94E52608950E94CA2688F09F579B
:104B100098F0B92F9927B751B0F0E1F0660F771FE1
:104B2000881F991F1AF0BA95C9F714C0B13091F0D7
:104B30000E94E426B1E008950C94E426672F782FB4
:104B40008827B85F39F0B93FCCF38695779567959C
:104B5000B395D9F73EF490958095709561957F4F08
:104B60008F4F9F4F0895E89409C097FB3EF49095AE
:104B70008095709561957F4F8F4F9F4F9923A9F036
:104B8000F92F96E9BB279395F695879577956795C5
:104B9000B795F111F8CFFAF4BB0F11F460FF1BC009
:104BA0006F5F7F4F8F4F9F4F16C0882311F096E99C
:104BB00011C0772321F09EE8872F762F05C066234A
:104BC00071F096E8862F70E060E02AF09A95660F03
:104BD000771F881FDAF7880F9695879597F90895BC
:104BE000DF93CF931F930F938B01EC01E1E1F1E091
:104BF0000E943D260E949D269801AE018B01EC018A
:104C000060E070E080E89FE30E9465240E947327C3
:104C10009801AE010F911F91CF91DF910C940B275A
:104C2000990F0008550FAA0BE0E8FEEF16161706BD
:104C3000E807F907C0F012161306E407F50798F025
:104C4000621B730B840B950B39F40A2661F0232B3E
:104C5000242B252B21F408950A2609F4A140A695BA
:104C60008FEF811D811D089597F99F6780E870E09F
:104C700060E008959FEF80EC0895DF93CF931F933A
:104C80000F93FF92EF92DF927B018C01689406C034
:104C9000DA2EEF010E940B27FE01E894A5912591E1
:104CA000359145915591A6F3EF010E947D24FE01B7
:104CB0009701A801DA9469F7DF90EF90FF900F91C8
:104CC0001F91CF91DF91089500240A9416161706BC
:104CD00018060906089500240A94121613061406ED
:104CE000050608950C943A260E94CA26D8F3E89443
:104CF000E0E0BB279F57F0F02AED3FE049EC06C00B
:104D0000EE0FBB0F661F771F881F28F0B23A6207AD
:104D10007307840728F0B25A620B730B840BE39578
:104D20009A9572F7803830F49A95BB0F661F771FFB
:104D3000881FD2F790480C94BE27092E0394000CCC
:104D400011F4882352F0BB0F40F4BF2B11F460FF25
:104D500004C06F5F7F4F8F4F9F4F0895EF93E0FF29
:104D600007C0A2EA2AED3FE049EC5FEB0E947D24F8
:104D70000E949D260F90039401FC9058E9E3F1E016
:104D80000C94D12757FD9058440F551F59F05F3FA1
:104D900071F04795880F97FB991F61F09F3F79F05D
:104DA00087950895121613061406551FF2CF4695DF
:104DB000F1DF08C0161617061806991FF1CF869561
:104DC0007105610508940895E894BB276627772745
:104DD000CB0197F908950E94102608F48FEF0895EB
:104DE0009B01AC0160E070E080E89FE30C940B2530
:104DF0000E940B270C949D260E94642638F00E9486
:104E00006B2620F0952311F00C9434260C943A264E
:104E100011240C94E5260E94C22670F3959FC1F3DD
:104E2000950F50E0551F629FF001729FBB27F00D58
:104E3000B11D639FAA27F00DB11DAA1F649F6627AD
:104E4000B00DA11D661F829F2227B00DA11D621FFC
:104E5000739FB00DA11D621F839FA00D611D221FB6
:104E6000749F3327A00D611D231F849F600D211D9A
:104E7000822F762F6A2F11249F5750409AF0F1F01D
:104E800088234AF0EE0FFF1FBB1F661F771F881F86
:104E900091505040A9F79E3F510580F00C94342664
:104EA0000C94E5265F3FE4F3983ED4F3869577951E
:104EB0006795B795F795E7959F5FC1F7FE2B880F2C
:104EC000911D9695879597F908959F930E94742652
:104ED0000F9007FCEE5F0C94AE2619F416F40C94B8
:104EE0003A260C94BC270E94CA26B8F39923C9F32A
:104EF000B6F39F57550B87FF0E94CA270024A0E6F0
:104F000040EA900180585695979528F4805C660F8A
:104F1000771F881F20F026173707480730F4621BD9
:104F2000730B840B202931294A2BA69517940794DB
:104F3000202531254A2758F7660F771F881F20F054
:104F400026173707480730F4620B730B840B200DCC
:104F5000311D411DA09581F7B901842F9158880F0B
:104F60009695879508959B01AC010C94F8260E94B4
:104F70001026880B990B08959F3F31F0915020F433
:104F8000879577956795B795880F911D9695879525
:104F900097F9089591505040660F771F881FD2F7F8
:104FA00008959F938F937F936F93FF93EF939B014C
:104FB000AC010E94F826EF91FF910E943D262F91AF
:104FC0003F914F915F910C94F826EF920F931F93AE
:104FD000CF93DF93E80134E047FD34E1042E000C69
:104FE000550B57FF03C0519541955109E32E022FF0
:104FF000242FAE010E94492ACE01DF91CF911F914B
:105000000F91EF9008950F931F93CF93DF9382300A
:10501000910510F482E090E0E091CF0EF091D00E77
:1050200030E020E0B0E0A0E0309799F421153105A0
:1050300009F44AC0281B390B24303105D8F58A8180
:105040009B816115710589F1FB0193838283FE01C8
:1050500011C0408151810281138148175907E0F046
:105060004817590799F4109761F012960C9312970C
:1050700013961C933296CF01DF91CF911F910F9120
:1050800008950093CF0E1093D00EF4CF2115310563
:1050900051F04217530738F0A901DB019A01BD0115
:1050A000DF01F801C1CFEF01F9CF9093D00E8093CB
:1050B000CF0ECDCFFE01E20FF31F819391932250CB
:1050C000310939832883D7CF2091CD0E3091CE0E70
:1050D000232B41F420910202309103023093CE0E33
:1050E0002093CD0E2091000230910102211531054F
:1050F00041F42DB73EB74091040250910502241BA4
:10510000350BE091CD0EF091CE0EE217F307A0F42F
:105110002E1B3F0B2817390778F0AC014E5F5F4F0D
:105120002417350748F04E0F5F1F5093CE0E409363
:10513000CD0E819391939FCFF0E0E0E09CCFCF9391
:10514000DF930097E9F0FC01329713821282A0915D
:10515000CF0EB091D00EED0130E020E01097A1F419
:1051600020813181820F931F2091CD0E3091CE0E80
:105170002817390709F061C0F093CE0EE093CD0EE9
:10518000DF91CF910895EA01CE17DF07E8F54A8154
:105190005B819E0141155105B1F7E901FB83EA836B
:1051A00049915991C40FD51FEC17FD0761F4808117
:1051B00091810296840F951FE901998388838281EA
:1051C00093819B838A83F0E0E0E012968D919C911D
:1051D00013970097B9F52D913C911197CD01029647
:1051E000820F931F2091CD0E3091CE0E28173907D4
:1051F00039F6309751F51092D00E1092CF0EB09331
:10520000CE0EA093CD0EBCCFD383C28340815181FB
:10521000840F951FC817D90761F44E5F5F4F8881CF
:105220009981480F591F518340838A819B819383C1
:1052300082832115310509F0B0CFF093D00EE093B1
:10524000CF0E9ECFFD01DC01C0CF13821282D7CFDB
:105250004F925F926F927F928F929F92AF92BF9286
:10526000CF92DF92EF92FF920F931F93CF93DF9332
:105270008C01009799F4CB01DF91CF911F910F9191
:10528000FF90EF90DF90CF90BF90AF909F908F9066
:105290007F906F905F904F900C940328FC01E60F75
:1052A000F71F9C0122503109E217F30708F4AEC042
:1052B000D901CD91DC911197C617D70720F1C530E0
:1052C000D10578F0CE0104978617970750F0C61BDA
:1052D000D70B2297C193D1936D937C93CF010E94FA
:1052E0009F28C801DF91CF911F910F91FF90EF9000
:1052F000DF90CF90BF90AF909F908F907F906F90F6
:105300005F904F9008955B01AC1ABD0A4C018C0E62
:105310009D1EA091CF0EB091D00E512C412CF12C9E
:10532000E12C109731F58091CD0E9091CE0E88151D
:10533000990509F05CC04616570608F058C08091E0
:10534000000290910102009741F48DB79EB7409101
:10535000040250910502841B950BE817F90708F029
:1053600055C0F093CE0EE093CD0EF90171836083AA
:10537000B8CF8D919C91119712966C9012971396BD
:105380007C901397A815B90559F56C0142E0C40E3D
:10539000D11CCA14DB0420F1AC014A195B09DA0103
:1053A0001296159780F06282738251834083D901EF
:1053B0006D937C93E114F10471F0D7011396FC9383
:1053C000EE9312978ECF22968C0F9D1FF901918339
:1053D0008083F301EFCFF093D00EE093CF0E81CF17
:1053E0004816590608F42C017D01D3019ACFCB0150
:1053F0000E9403287C01009749F0AE01B8010E9489
:10540000092AC8010E949F2887016BCF10E000E0A5
:1054100068CFFB01DC0102C001900D924150504069
:10542000D8F70895FB01DC0101900D920020E1F70F
:1054300008954532510520F4423010F00C94242A8E
:10544000FB011082CB010895BB274A3031F4992328
:1054500022F4BDE2909581959F4F0C94302ABB2792
:10546000FB015527AA27880F991FAA1FA41710F020
:10547000A41B83955051B9F7A05DAA3308F0A95D2C
:10548000A193009779F7B111B1931192CB010C94CC
:105490009A2C8F929F92AF92BF92CF92DF92EF920F
:1054A000FF920F931F93CF93DF9300D000D000D0D3
:1054B000CDB7DEB76A01F22EB02E102FFBE3AF2E70
:1054C000A01608F41BE31F5F012F27E0AE014F5F1A
:1054D0005F4F0E94C22BBC018981982F9970913037
:1054E00009F44EC09BE2E1FC04C09E2D9170E0FCEB
:1054F00049C05E2D5071E82FE87083FF55C084E0ED
:10550000911101C083E0EF2DE81B8F1508F0E0E05A
:10551000D6018E2F20E25523C9F1992329F0D60117
:105520009C93C60101966C0196012D5F3F4FE2FEF0
:1055300033C08EE4D6018C9391E411969C9311971D
:1055400012968C93D9018E2F90E281112AC0E20F1E
:10555000F32FF11D10828EEF9FEF29960FB6F8946E
:10556000DEBF0FBECDBFDF91CF911F910F91FF9096
:10557000EF90DF90CF90BF90AF909F908F90089565
:105580009DE2B7CF90E2B5CF2D9381508111FCCF32
:10559000CE0ED11CE0E0C1CF8EE6D6018C9391E611
:1055A000CCCF9D938150D1CF482F447082FF3DC016
:1055B00084E0911101C083E08F1510F4EF2DE81BFA
:1055C000D6018E2F20E2552309F1992329F0D60127
:1055D0009C93C60101966C0196012D5F3F4FE2FE40
:1055E0001BC089E4D6018C938EE411968C9311979D
:1055F00086E412968C93D9018E2F90E2882309F4C9
:10560000A6CF9D938150FACF2D9381508111FCCF6D
:10561000CE0ED11CE0E0D9CF89E6D6018C938EE680
:1056200011968C93119786E6E4CF9B0177FF02C019
:1056300030E020E0A1E0B0E0911102C0B0E0A0E0D5
:10564000F9013196AE0FBF1F8B2C912CBB2009F4B2
:1056500061C05401EFEFAE1ABE0AAA0DBB1DFA16C7
:105660001B0619F014F04F2D4A1B511188C0E3FCA2
:1056700059C07601A42FB0E2A1114FC0C40ED11CB5
:10568000992309F45BC040E0D6011196F60190839E
:105690006D01552309F448C0012F060F9A81582F38
:1056A000507184FF03C0913309F4015010160CF0BF
:1056B00047C0093008F008E0EEE2FE2E5B01A01AB8
:1056C000B10885019194819491082F3F320729F404
:1056D000D601FC92F60131966F016217730794F1BF
:1056E000021713077CF5DB01A21BB30BAA24A394BA
:1056F000B12CAC0EBD1EAA0DBB1D11968C91215074
:105700003109D601119628153905F4F0F601808388
:105710006D01DBCFB12CA12CA0CFF701B1937F019C
:10572000A150AACF9111B0CFD601942F50E302C05F
:105730005D9391509111FCCFC40ED11C40E0ACCFD1
:1057400001E0BACF80E3DBCF6217730731F4963301
:1057500088F4953311F4552369F0F6018083FD0137
:10576000842F90E2811108C0A40FB11D1C9290E01B
:1057700080E0F3CE81E3F1CF91938150F3CF91118B
:1057800083CF8ACF283008F027E03327DA01990F3A
:10579000311D87FD916000966105710539F4326015
:1057A0002E5F3D9330E32A95E1F708959F3F30F057
:1057B00080387105610509F03C5F3C5F3D93913095
:1057C00008F08068911DDF93CF931F930F93FF9292
:1057D000EF92192F987F9695E92F96959695E90F58
:1057E000FF27E654FD4F99273327EE24FF24A70116
:1057F000E70105900894079428F4360FE71EF81E79
:10580000491F511D660F771F881F991F0694A1F726
:105810000590079428F4E70EF81E491F561FC11D76
:10582000770F881F991F661F0694A1F705900794AC
:1058300028F4F80E491F561FC71FD11D880F991F46
:10584000661F771F0694A1F70590079420F4490F6F
:10585000561FC71FD81F990F661F771F881F0694F2
:10586000A9F784911095177041F0D695C795579573
:105870004795F794E7941A95C1F7E0E6F2E068944B
:105880001590159135916591959105907FE27395ED
:10589000E118F10A430B560BC90BD009C0F7E10C14
:1058A000F11E431F561FC91FD01D7EF4703311F423
:1058B0008A95E6CFE894015030F0080F0AF40027EB
:1058C000021708F4202F2395022F7A3328F079E36A
:1058D0007D932A95E9F710C07D932A9589F6069461
:1058E00097956795379517951794E118F10A430B2B
:1058F000560BC90BD00998F023957E9173957A3396
:1059000008F070E37C932013B8F77E9170617D936B
:1059100030F0839571E37D9370E32A95E1F71124CC
:10592000EF90FF900F911F91CF91DF91992787FD05
:1059300090950895DC01FC01672F71917723E1F7C1
:10594000329704C07C916D9370836291AE17BF074C
:10595000C8F3089512E0C3E3D2E000E006C0802F50
:10596000FE010E9438242196011DC433D10780E036
:085970000807A9F7F894FFCF26
:105978000000D10E8000FFFFFFFF0000803F000005
:10598800484200002041000020410000F041FFFF94
:10599800B0FF0000614300000743281E281E281E90
:1059A800281E281E281E281E281E44726F76652071
:1059B800666F727761726421202020202020447253
:1059C8006F766520446973743A2000233D3D3D3D60
:1059D8003D3D3D3D3D3D3D3D3D3D3D3D3D3D3D3DEF
:1059E8003D3D3D3D3D3D3D3D3D3D3D3D3D3D3D3DDF
:1059F8003D3D3D3D3D3D3D3D3D3D005475726E652F
:105A080064206F6E20506F696E7421202020202042
:105A1800205475726E656420416E676C653A20008B
:105A2800233D3D3D3D3D3D3D3D3D3D3D3D3D2044CE
:105A38007269766520436F6E74726F6C20506F695F
:105A48006E7473203D3D3D3D3D3D3D3D3D3D3D3DFD
:105A5800005363686E69747470756E6B742020737C
:105A68002E783A20002020732E793A20004D697450
:105A7800746520547565722020642E783A200020C1
:105A880020642E793A20005261646975733A2000C7
:105A980057696E6B656C205068693A2000233D3D5C
:105AA8003D3D3D3D3D20436F7272656374656444BE
:105AB8006F6F7220506F696E7473203D3D3D3D3DA0
:105AC8003D3D3D002020793A200020206469737410
