:100000000C94F9010C942A020C942A020C942A02F2
:100010000C942A020C942A020C942A020C942A02B0
:100020000C942A020C942A020C942A020C942A02A0
:100030000C942A020C942A020C942A020C942A0290
:100040000C942A020C942A020C942A020C942A0280
:100050000C942A020C942A020C942A020C94B517D0
:100060000C942A020C9474130C94AA130C942A0274
:100070000C942A020C942A020C942A020C942A0250
:100080000C942A020C942A020C942A020C942A0240
:100090000C942A020C942A020C942A020C942A0230
:1000A0000C942A020C942A020C942A020C942A0220
:1000B0000C942A020C942A020C942A020C942A0210
:1000C0000C942A020C942A020C942A020C942A0200
:1000D0000C942A020C942A020C940B140C944114D4
:1000E0000C942A02072C7AA5BA6CC590DA3B93656A
:1000F000FC8BBC53F810FD3C5692834DBD879D3A56
:10010000B63DCBC9BF5BBE73DA0FC93F05A84CCD66
:10011000B2D44EB93836A9020C50B9918688083C41
:10012000A6AAAA2ABE000000803F0C94E5190C94F0
:10013000C6190C94A2140C946B140C941A190C94F8
:10014000F7190C94CE190C94E9190C943E190C94DF
:10015000DF190C94D5190C94A3120C94DE130C9493
:10016000ED190C9483120C9489190C9424190C9495
:1001700010190C94D2190C94CA190C9409120C94ED
:10018000D4130C9448190C9436190C9403190C943C
:1001900075190C949D190C947F190C94DB190C940F
:1001A0000B190C946B190C9493190C94FB190C9467
:1001B0002E190C94C0190C94011A0C945C190C940F
:1001C000F8090C9475140C9452190C94051A0C949B
:1001D000FB110C943B0A0C941D120C94001A0C9405
:1001E000F3190C942C120C94EF1100407A10F35A6E
:1001F00000A0724E18090010A5D4E80000E8764867
:10020000170000E40B54020000CA9A3B000000E112
:10021000F505000080969800000040420F000000A5
:10022000A08601000000102700000000E803000085
:1002300000006400000000000A000000000001004F
:10024000000000002C76D888DC674F0823DFC1DF70
:10025000AE59E1B1B796E5E3E453C63AE651997673
:1002600096E8E6C28426EB898C9B62ED407C6FFCAD
:10027000EFBC9C9F40F2BAA56FA5F490055A2AF7EF
:100280005C936B6CF9676DC11BFCE0E40D47FEF5F8
:1002900020E6B500D0ED902E030094357705008060
:1002A000841E080000204E0A000000C80C333333BF
:1002B000330F986E12831141EF8D2114893BE6555F
:1002C00016CFFEE6DB18D1844B381BF77C1D901D42
:1002D000A4BBE424203284725E228100C9F124ECA4
:1002E000A1E53D2700000A0B02090C0D0E080703CB
:1002F00004010000000000000000000000000000F9
:1003000000000000000000000000000000000000ED
:1003100012111000000000000000000000000000AA
:100320000000000000000000000001021020200872
:100330000810204010204080020102010804020140
:1003400001020408102040808040201008040201AF
:100350008004020180402010080402010804020108
:10036000010204081020408001020408102040808F
:1003700005050505070508080808020202020A0A21
:10038000080804040404010101010101010103033F
:10039000030303030303040707070C0C0C0C0C0CEA
:1003A0000C0C0202020206060606060606060B0BE7
:1003B0000B0B0B0B0B0B00002200250028002B0061
:1003C0002E003100340002010000050108010B017C
:1003D00000002100240027002A002D0030003300F7
:1003E00001010000040107010A01F809DE13751478
:1003F0003B0A11241FBECFEFD1E2DEBFCDBF00E02C
:100400000CBF13E0A0E0B2E0E6E6F5E400E00BBFCD
:1004100002C007900D92AA39B107D9F72DE0AAE9D9
:10042000B3E001C01D92A234B207E1F711E0C8EFBA
:10043000D1E000E006C021970109802FFE010E9453
:10044000AA1AC53FD10780E00807A9F70E94A6179E
:100450000C94A1220C9400006F927F928F929F9235
:10046000AF92BF92CF92DF92EF92FF920F931F93C2
:10047000CF93DF9300D000D000D01F921F92CDB752
:10048000DEB7E982FA820B831C832D833E834F8380
:10049000588769877A878B87CE0101960E94840DE1
:1004A000882309F4ABC089819A818F3F974009F076
:1004B000A5C078846984BA84AB840E94FF176B015D
:1004C00070939B0360939A030091060210910702B8
:1004D0000F3F100709F48CC06A2D70E0762F662755
:1004E0006B0D711D072E000C880B990B0E94F81BD9
:1004F00027ED33EA4AEA51E40E944E1B2BED3FE020
:1005000049EC50E40E94331D20E030E040E752E423
:100510000E944E1B27ED33EA40E35EE30E94331D49
:100520004B015C01662D70E0762F6627670D711D0B
:10053000072E000C880B990B0E94F81B27ED33EA5D
:100540004AEA51E40E944E1B2BED3FE049EC50E497
:100550000E94331D20E030E040E752E40E944E1B31
:1005600027ED33EA40E35EE30E94331D9B01AC01BB
:10057000C501B4010E94D71A28EB3EE145E05FE3D4
:100580000E944E1B4B015C01C01AD10AB601DD0C62
:10059000880B990B0E94F81B9B01AC01C501B401AB
:1005A0000E94331D20E030E04AE754E40E944E1BD5
:1005B00020E030E044E353E40E94331D2BED3FE0A4
:1005C00049E450E40E944E1B9B01AC016091E4039E
:1005D0007091E5038091E6039091E7030E94D81A99
:1005E0006093E4037093E5038093E6039093E7033D
:1005F0000E94FF1770930702609306022B960FB6B6
:10060000F894DEBF0FBECDBFDF91CF911F910F9148
:10061000FF90EF90DF90CF90BF90AF909F908F9022
:100620007F906F900895AF92BF92CF92DF92EF923A
:10063000FF920F931F93CF93DF9300D000D000D091
:100640001F921F92CDB7DEB7588769877A878B874D
:100650008EE390E09A838983007E00610B83CC82D5
:10066000DD82AE82BF8240E060EE8FE00E94130D1B
:10067000CE0101960E94E80D6AE070E080E090E013
:100680000E9430182B960FB6F894DEBF0FBECDBF78
:10069000DF91CF911F910F91FF90EF90DF90CF905E
:1006A000BF90AF9008954F925F926F927F92AF92FA
:1006B000BF92CF92DF92EF92FF920F931F93CF934F
:1006C000DF93CDB7DEB76D970FB6F894DEBF0FBEE0
:1006D000CDBF2B013C01E980FA800B811C812D816B
:1006E0003E814F81588569857A858B850E942C02D1
:1006F0004092E0035092E1036092E2037092E303C0
:100700008091E4039091E503A091E603B091E703A3
:100710008093DC039093DD03A093DE03B093DF03AB
:100720008CE993E00E944D0E4091E4035091E50363
:100730006091E6037091E70322E0CE010C960E94DF
:100740001C174091D8035091D9036091DA0370913E
:10075000DB0322E0CE0148960E941C1763E272E0A0
:10076000CE0142960E94EE16BE01685E7F4FCE011A
:1007700042960E94781760E372E00E948B17BE01D8
:10078000645F7F4F0E947817BC018BEF9BE00E9453
:10079000FF14CE0142960E947F16CE0148960E9419
:1007A0007F16CE010C960E947F166091D80370913F
:1007B000D9038091DA039091DB0390580E94C01B0B
:1007C0005B01D12CC12CE980FA800B811C812D8129
:1007D0003E814F81588569857A858B850E941303F8
:1007E00020E030E0A901C301B2010E942E1D1816BD
:1007F00024F077FA709477F87094C090E403D09066
:10080000E503E090E603F090E70320E030E0A90183
:10081000C701B6010E942E1D181624F0F7FAF094B5
:10082000F7F8F094A7019601C301B2010E94D71A0C
:100830006B017C012DEC3CEC4CE45DE30E94441B1D
:1008400087FF0EC02DEC3CEC4CE45DEBC701B6011C
:100850000E942E1D181624F41092E9031092E8034A
:100860006D960FB6F894DEBF0FBECDBFDF91CF916E
:100870001F910F91FF90EF90DF90CF90BF90AF90BE
:100880007F906F905F904F9008954F925F926F921C
:100890007F928F929F92AF92BF92CF92DF92EF9210
:1008A000FF92CF93DF93CDB7DEB760970FB6F89482
:1008B000DEBF0FBECDBFC090FC03D090FD03E09023
:1008C000FE03F090FF0340900604509007046090F0
:1008D00008047090090480910A0490910B04A0917F
:1008E0000C04B0910D0489879A87AB87BC8760910F
:1008F000190270911A02072E000C880B990B0E94A6
:10090000F81B4B015C01A3019201C701B6010E94D3
:10091000D81A20E030E040E05FE30E94331DA501DB
:1009200094010E94D71A69837A838B839C83609198
:10093000170270911802072E000C880B990B0E9469
:10094000F81B6D877E878F87988B29853A854B8525
:100950005C85C701B6010E94D81A20E030E040E073
:100960005FE30E94331D2D853E854F8558890E9487
:10097000D71A6D837E838F839887A301920160913C
:10098000F8037091F9038091FA039091FB030E94A0
:10099000D71AA50194010E94D71A4B015C01298541
:1009A0003A854B855C85C701B6010E94D71A2D8513
:1009B0003E854F8558890E94D71A6B017C01698159
:1009C0007A818B819C8190582D813E814F81588501
:1009D0000E944E1B2B013C01AC019B0169817A8175
:1009E0008B819C810E94331D2D813E814F815885D2
:1009F0000E94D71A69877A878B879C87A301920107
:100A0000C501B4010E94331D9B01AC01C701B601B1
:100A10000E94D71A9B01AC010E94D81A9B01AC011D
:100A200069857A858B859C850E944E1B2B013C0134
:100A3000AC019B01C501B4010E94331D29813A819B
:100A40004B815C810E94D81A4B015C01A301920189
:100A5000C701B6010E94331D2D813E814F8158850B
:100A60000E94D81A2B013C01A5019401C501B401D3
:100A70000E94331D6B017C01A3019201C301B201ED
:100A80000E94331D9B01AC01C701B6010E94D81A18
:100A90000E94AE1D69877A878B879C8729813A815E
:100AA0004B815C81CA01B9010E94331D6B017C013D
:100AB0002D813E814F815885CA01B9010E94331DA5
:100AC0009B01AC01C701B6010E94D81A0E94AE1D5D
:100AD0006D877E878F87988BA501940169817A81C4
:100AE0008B819C810E94331D6B017C01A3019201CB
:100AF0006D817E818F8198850E94331D9B01AC01A1
:100B0000C701B6010E94D81A6B017C012D853E8574
:100B10004F85588969857A858B859C850E94331D10
:100B20009B01AC01C701B6010E944E1B0E94C61A70
:100B300020E030E044E353E40E94331D2BED3FE01E
:100B400049E450E40E944E1B9B01AC0160E070E060
:100B500084EB92E40E94D71A6093EA037093EB034C
:100B60008093EC039093ED0361E472E08BEF9BE0E4
:100B70000E94111562E772E08BEF9BE00E94EC147B
:100B800022E030E0B501A4018BEF9BE00E946B16E0
:100B900066E872E08BEF9BE00E94EC1422E030E00C
:100BA000B301A2018BEF9BE00E946D166EE872E02C
:100BB0008BEF9BE00E94EC1422E030E049815A81E7
:100BC0006B817C818BEF9BE00E946B1660EA72E088
:100BD0008BEF9BE00E94EC1422E030E04D815E81BF
:100BE0006F8178858BEF9BE00E946D1668EA72E05A
:100BF0008BEF9BE00E94EC1422E030E049855A859F
:100C00006B857C858BEF9BE00E946D1661EB72E03B
:100C10008BEF9BE00E94EC144091EA035091EB03B0
:100C20006091EC037091ED0322E030E08BEF9BE0EC
:100C30000E946D166EEB72E08BEF9BE00E94111527
:100C400082E090E09093E9038093E80360960FB60A
:100C5000F894DEBF0FBECDBFDF91CF91FF90EF9034
:100C6000DF90CF90BF90AF909F908F907F906F90CC
:100C70005F904F9008952F923F924F925F926F92A4
:100C80007F928F929F92AF92BF92CF92DF92EF921C
:100C9000FF920F931F93CF93DF93CDB7DEB760978B
:100CA0000FB6F894DEBF0FBECDBF8C0122E037E057
:100CB0003A8329833EE0F32EE981FA8160897189C4
:100CC000072E000C880B990B0E94F81B9B01AC01AE
:100CD0000E94D81A4B015C01E981FA81628173811B
:100CE000072E000C880B990B0E94F81B9B01AC018E
:100CF000C501B4010E94D71A4B015C01E981FA8158
:100D0000668D778D072E000C880B990B0E94F81BBF
:100D10009B01AC01C501B4010E94D71A0E94C01BFF
:100D200060177107E4F4E981FA81828993890B974E
:100D3000B4F08091F0039091F103F89ED001F99EF8
:100D4000B00D1124AA5BBB4F3E962F2D01900D9242
:100D50002A95E1F701969093F1038093F00369815E
:100D60007A81625F7F4F7A836983605E7B4009F09E
:100D7000A3CF26E434E0388B2F8710E000E0809189
:100D8000F0039091F103081719070CF45AC0C090B2
:100D9000EE03D090EF0302EF13E01A830983F12CE6
:100DA000E12CEC14FD040CF05BC1E981FA81628155
:100DB0007381072E000C880B990B0E94F81B4B01C6
:100DC0005C01E981FA8160817181072E000C880B3A
:100DD000990B0E94F81B2BED3FE049E450E40E9480
:100DE000331D20E030E044E353E40E944E1B2B010E
:100DF0003C010E94491B9B01AC01C501B4010E944A
:100E0000331DE981FA816683778380879187C301E7
:100E1000B2010E94A01D9B01AC01C501B4010E945A
:100E2000331DE981FA816287738784879587FFEF95
:100E3000EF1AFF0A29813A81225F3F4F3A832983C3
:100E4000B0CF0F5F1F4F2F8438881A83098380919A
:100E5000F0039091F103E981FA81E817F9073CF07A
:100E60002F853889225F3F4F388B2F8788CFEF85BA
:100E7000F8890190F081E02DFC83EB83F101068479
:100E8000F785E02DFE83ED836B817C816E1B7F0BEC
:100E9000072E000C880B990B0E94F81B2BED3FE0EE
:100EA00049E450E40E94331D20E030E044E353E481
:100EB0000E944E1B0E94491B6B877C878D879E87F3
:100EC000EF85F8890280F381E02DF887EF83CF0169
:100ED0006AE070E00E94741A072E000C880B990BD0
:100EE0000E94F81B6B017C01F1010088F189E02D63
:100EF000FA87E987CF016AE070E00E94741A072E32
:100F0000000C880B990B0E94F81B4B015C01AC0193
:100F10009B010E94331D2B013C01A7019601C701D3
:100F2000B6010E94331D9B01AC01C301B2010E94B6
:100F3000D81A2B013C01A7019601C701B6010E94F6
:100F4000D81AA50194010E94331D2B853C854D853F
:100F50005E850E94331D9B01AC01C301B2010E945A
:100F6000D71A0E94AE1D20E030E040E251E40E941A
:100F7000331D6B017C0120E030E040E752E40E9429
:100F80002E1D18160CF062C020E030E042ED52E455
:100F9000C701B6010E94441B87FF58C08F81988506
:100FA00029853A85820F931F97FD01969595879520
:100FB0008C599F4FE2E0F7E041E0208131816B8165
:100FC0007C81621773075CF46D817E812617370779
:100FD00034F422813381281739070CF440E03E961F
:100FE0007BE0EE3EF70749F7442381F18091EE0361
:100FF0009091EF03EEE0E89FD001E99FB00D11243E
:10100000AE50BC4FEF85F8892EE001900D922A95E5
:10101000E1F79C012F5F3F4FFEE0F29FD001F39F6D
:10102000B00D1124AE50BC4FF1013E962EE0019060
:101030000D922A95E1F702969093EF038093EE03C9
:101040006CEE72E08BEF9BE00E94111529813A81D2
:101050002F5F3F4F3A8329833EE0230E311CF7CEAA
:1010600068EF72E08BEF9BE00E9411151A821982E3
:101070008091EE039091EF0369817A816817790777
:101080005CF56CE173E08BEF9BE00E94EC14F801DF
:10109000468157816085718522E030E08BEF9BE0CF
:1010A0000E946B1662E273E08BEF9BE00E94EC14EF
:1010B000F801428553856485758522E030E08BEF29
:1010C0009BE00E946D1629813A812F5F3F4F3A8342
:1010D0002983025F1F4FCCCF82309105F9F481E064
:1010E00090E09093E9038093E80360960FB6F8943C
:1010F000DEBF0FBECDBFDF91CF911F910F91FF904B
:10110000EF90DF90CF90BF90AF909F908F907F90A7
:101110006F905F904F903F902F900895009711F03F
:1011200003971CF31092E9031092E803DECF4F926D
:101130005F926F927F928F929F92AF92BF92FF9237
:101140000F931F93CF93DF93CDB7DEB764970FB69E
:10115000F894DEBF0FBECDBF0E94FF176838734101
:101160008105910508F0A6C044EF51E060E070E011
:101170008EEE9BE00E947D0A97FD75C08090F00B7B
:101180009090F10BA090F20BB090F30B4090F40B09
:101190005090F50B6090F60B7090F70B20E030E06C
:1011A000A901C501B4010E94441B18163CF0812C12
:1011B00080EC982E8AEDA82E85E4B82E20911B0293
:1011C00030911C0240911D0250911E02C301B201D8
:1011D0000E94441B18169CF120911F02309120029E
:1011E0004091210250912202C301B2010E942E1DA2
:1011F00087FD25C0F090F80BC301B2010E94C01B0F
:101200009B01275831094EE0429F8001439F100DFA
:1012100011240E5F184FF8017183608320E030E0E5
:1012200040E251E4C501B4010E944E1B0E94C01B64
:10123000F801738362838F2D90E095838483649695
:101240000FB6F894DEBF0FBECDBFDF91CF911F91D7
:101250000F91FF90BF90AF909F908F907F906F9075
:101260005F904F90089570E060E083E00E94CB189B
:1012700024E630E040E050E0BE016F5F7F4F8EEE2D
:101280009BE00E94040C97FDDACF28EE33E040E0AB
:1012900050E060E08EEE9BE00E94930C6FEF70E0F8
:1012A00083E00E94CB1868EE73E080E090E00E943B
:1012B0003018C5CF80911402882309F2809115025D
:1012C000909116020E943B061092140270E060E0BA
:1012D00083E00E94CB18B3CFCF92DF92EF92FF92C0
:1012E0000F931F9368E97CE08EEE9BE00E945D0AFD
:1012F00026E040E052EC61E070E08BEF9BE00E9462
:10130000F01261E083E00E94091A61E086E10E9428
:10131000091A61E086E10E94451A6AE070E080E007
:1013200090E00E94301868E273E08BEF9BE00E942F
:10133000111568EE73E080E090E00E94301863E0E1
:101340008AEF9BE00E944A0E6DE573E0811102C0B6
:1013500069E673E08BEF9BE00E94111568EE73E085
:1013600080E090E00E94301861E070E08CE993E04A
:101370000E94F710C0900802D0900902E0900A0283
:10138000F0900B0200910C0210910D0220910E02C0
:1013900030910F024091100250911102609112029F
:1013A000709113028CE993E00E949A101F910F91A3
:1013B000FF90EF90DF90CF9008958091E803909197
:1013C000E9038130910539F08230910531F0892BA4
:1013D00071F40C9497080C9445046091EA037091A1
:1013E000EB038091EC039091ED030C94530308956B
:1013F000AF92BF92CF92DF92EF92FF920F931F9323
:101400008EEE9BE00E943F0AA0900C02B0900D026D
:10141000C0900E02D0900F02E0901002F0901102E6
:1014200000911202109113021F921F9280910B02E1
:101430008F9380910A028F93809109028F938091FC
:1014400008028F9320EE33E048ED53E06CED73E03B
:101450008CE993E00E94BD110F900F900F900F90B8
:101460000F900F901F910F91FF90EF90DF90CF9012
:10147000BF90AF9008958EEE9BE00C945B0AFC0148
:1014800011821082128213821482158216821782B0
:1014900010861186128613860895CF93DF93EC0190
:1014A00088819981009721F00E9452131982188235
:1014B000DF91CF9108950C944D0A0F931F93CF9312
:1014C000DF93EC018B0188819981892B19F0CE0182
:1014D0000E944D0A19830883C8010E94521326E016
:1014E00040E052EC61E070E0888199810E94F01246
:1014F000DF91CF911F910F9108954F925F926F925C
:101500007F928F929F92AF92BF92EF92FF921F9322
:10151000CF93DF9300D01F921F92CDB7DEB77C012F
:101520002A013B010E94FF174B015C0110E00E9461
:10153000FF17681979098A099B0946165706680634
:10154000790608F472C0D7018D919C91DC01ED9170
:10155000FC910284F385E02D199597FDE8CF1123C6
:1015600009F457C0113009F45DC091E0910FE1E03A
:10157000F0E0EC0FFD1FE10FF11D8083953009F0C5
:1015800046C06C817D8190E080E00E94F61B20E0E7
:1015900030E040E85EE30E94331DD70112966D9360
:1015A0007D938D939C9315976A817B817695679542
:1015B00090E080E00E94F61B20E030E040E85CE331
:1015C0000E94331DF7016683778380879187898125
:1015D000282F30E0359527953595279522878170FE
:1015E000838760E070E0CB010F900F900F900F9019
:1015F0000F90DF91CF911F91FF90EF90BF90AF9030
:101600009F908F907F906F905F904F900895192FCB
:101610008ECF9C0135952795FC01E2279F0120FD87
:10162000A4CF85CF80FDA1CF81CF62E070E880E0BC
:1016300090E8DACFCF92DF92EF92FF920F931F9351
:10164000CF93DF9300D000D01F92CDB7DEB77C01DF
:10165000162F5F834E8369011D82232B21F0CA015F
:10166000892B09F0106805EA09831A83D7018D9147
:101670009C91DC01ED91FC910280F381E02D42E030
:1016800050E0BE016F5F7F4F199517FF40C06D811D
:1016900060276C2561276D83EE81FF8196012E0FF7
:1016A0003F1FE217F30729F091918D8189278D83E0
:1016B000F8CFCC82F70180819181DC01ED91FC9122
:1016C0000280F381E02D41E050E0BE016C5F7F4F6E
:1016D0001995F701808191814C8150E0DC01ED91F9
:1016E000FC910280F381E02DBE016A5F7F4F199566
:1016F000F70180819181DC01ED91FC910280F38101
:10170000E02D41E050E0BE016B5F7F4F199560E036
:1017100070E0CB0127960FB6F894DEBF0FBECDBFA9
:10172000DF91CF911F910F91FF90EF90DF90CF90BD
:101730000895FC0120813181232B39F030E020E035
:1017400050E040E065E20C941A0B61E070E880E044
:1017500090E808957F928F929F92AF92BF92CF921E
:10176000DF92EF92FF920F931F93CF93DF938C0141
:10177000EB0149015A010E94FF176B017C01712C9A
:101780000E94FF176C197D098E099F09861697061E
:10179000A806B906A0F1D8018D919C91DC01ED91CC
:1017A000FC910284F385E02D199597FDE9CF772010
:1017B000F1F0B1E07B16F9F091E0970DFE01E70D35
:1017C000F11D8083973089F460E070E0CB01DF91F8
:1017D000CF911F910F91FF90EF90DF90CF90BF902E
:1017E000AF909F908F907F900895792EC9CF853AC2
:1017F000910511F3C5CF8A359105F1F2C0CF62E0B2
:1018000070E880E090E8E3CF4F925F926F927F9212
:101810008F929F92AF92BF92CF92DF92EF92FF9200
:101820000F931F93CF93DF9300D000D01F92CDB7BB
:10183000DEB77C016B0149015A010E94FF172B01A1
:101840003C01D7018D919C91892B09F45EC030E059
:1018500020E050E040E060E5C7010E941A0B97FDD0
:101860003DC0A5019401BE016F5F7F4FC7010E947B
:10187000AA0B97FD33C08F81843009F04BC08B8158
:101880009C81AD812E81B22FBF734497A105B10514
:1018900008F440C08601B4E1CB0ED11C0E94FF17B2
:1018A000641975098609970986169706A806B90668
:1018B000A8F1F70180819181DC01ED91FC91028416
:1018C000F385E02D199597FDE9CFF80181938F01FC
:1018D000CE16DF0619F760E070E0CB0127960FB651
:1018E000F894DEBF0FBECDBFDF91CF911F910F9156
:1018F000FF90EF90DF90CF90BF90AF909F908F9030
:101900007F906F905F904F90089561E070E880E065
:1019100090E8E4CF60E070E8CB01E0CF62E070E8EF
:1019200080E090E8DBCFBF92CF92DF92EF92FF9200
:101930000F931F93CF93DF9300D000D01F92CDB7AA
:10194000DEB7DC01ED91FC91EF2B09F440C0690199
:101950007A01B62E8C010E94990B60E2B11061E20F
:1019600030E020E050E040E0C8010E941A0B97FDF3
:101970001AC0A7019601BE016F5F7F4FC8010E9488
:10198000AA0B97FD10C08F818138E9F48B819C816F
:10199000AD812E81B22FBF730597A105B10598F0D7
:1019A00060E070E0CB0127960FB6F894DEBF0FBE63
:1019B000CDBFDF91CF911F910F91FF90EF90DF90FE
:1019C000CF90BF90089560E070E8CB01ECCF61E06C
:1019D00070E880E090E8E7CF8EBD0DB407FEFDCF44
:1019E0008EB50895CF93DF93D82FC62F289882E025
:1019F0000E94EC0C8D2F0E94EC0C8C2F0E94EC0CA2
:101A0000289ADF91CF910895CF93C82F289883E02B
:101A10000E94EC0C8C2F0E94EC0C8FEF0E94EC0CBF
:101A2000289ACF9108951F93CF93DF93182FD62F25
:101A3000C42F289885E00E94EC0C812F0E94EC0CAA
:101A40008D2F0E94EC0C8C2F0E94EC0C289ADF91B9
:101A5000CF911F91089528980E94EC0C8FEF0E945F
:101A6000EC0C289A0895CF93C82F289A209A299889
:101A70002A982B98219A229A23986C98749A81E537
:101A80008CBD1DBC289880EC0E94EC0C289A87EC39
:101A900090E00197F1F700C00000289882E00E94D2
:101AA000EC0C88E20E94EC0C82E00E94EC0C80E9D5
:101AB0000E94EC0C8C2F0E94EC0C83E00E94EC0C3A
:101AC000289A8AE20E94040D8C1741F0809102014D
:101AD00080628093020180E0CF91089560E08CE005
:101AE0000E94F20C60E08DE00E94F20C60E680E65D
:101AF0000E94F20C60E680E70E94F20C60E08FE04A
:101B00000E94F20C81E0E8CFEF92FF920F931F93B7
:101B1000CF93DF938C0180EB0E942B0DC82F282FD1
:101B20002074E22E86FD05C084E9C7FD03C080E075
:101B300040C080E928980E94EC0C8FEF0E94EC0CCA
:101B4000E8E08E9FC0011124F801918380838FEF1C
:101B50000E94EC0C282F229526952770F801808191
:101B60009181822B918380838FEF0E94EC0C8FEF09
:101B70000E94EC0C8FEF0E94EC0C8F70F82E982FC7
:101B8000990FF8018281817E892BC3FB80F98283C2
:101B90000D5F1F4FD0E0DF1113C0289A40E061E0D5
:101BA000E11001C062E08CE20E94130D8C2F87705F
:101BB0008F5FDF91CF911F910F91FF90EF9008956C
:101BC0008FEF0E94EC0CF80181938F01DF5FE3CF70
:101BD000FF920F931F93CF93DF938C0180EA0E94B3
:101BE0002B0D82FF07C084FF44C0C4E086FF03C002
:101BF000C0E038C0C0E028988C2F80640E94EC0CB4
:101C0000F8018081918123E0969587952A95E1F7E7
:101C10000E94EC0CF80180818295880F807E0E94E2
:101C2000EC0C80E00E94EC0C80E00E94EC0CF801CF
:101C30008281D82FD695DF7080FF1DC08D2F8064E4
:101C40000E94EC0C289A87EC90E00197F1F700C015
:101C500000002898C11101C0C1E08C2F80680E944B
:101C6000EC0C289A8C2FDF91CF911F910F91FF9050
:101C70000895C2E0C0CF8D2F0E94EC0C0D5F1F4F66
:101C8000F12CFD16F9F2F80181918F010E94EC0C04
:101C9000F394F7CF862F0C94330D2F923F924F92EF
:101CA0005F926F927F928F929F92AF92BF92CF92EC
:101CB000DF92EF92FF920F931F93CF93DF93CDB7F5
:101CC000DEB760970FB6F894DEBF0FBECDBFDC0164
:101CD000DA96BC91BD83B1111BC01D828D816096C7
:101CE0000FB6F894DEBF0FBECDBFDF91CF911F912D
:101CF0000F91FF90EF90DF90CF90BF90AF909F90AB
:101D00008F907F906F905F904F903F902F900895AD
:101D1000988B8F870E94FF176B877C878D879E87A4
:101D2000EF85F88982A193A1A4A1B5A12B853C855B
:101D30004D855E85281B390B4A0B5B0BDA01C90107
:101D400046A557A560A971A984179507A607B707E7
:101D500020F2048CF58DE02D80819181A281B381E8
:101D600089839A83AB83BC83AF85B8899096ED91C4
:101D7000FC9129813A814B815C81608171818281F2
:101D800093810E94D71A4B015C01EF85F88922A547
:101D900033A544A555A569817A818B819C810E94D8
:101DA000D71A6B017C01AF85B88950962D913D9172
:101DB0004D915C915397C501B4010E94331DEF858D
:101DC000F88926A137A140A551A50E94D81A2B0158
:101DD0003C01AF85B88996964D925D926D927C924A
:101DE0009997DB96BC91BE83B11118C0EF85F88935
:101DF0002485358546855785C701B6010E94331D68
:101E00009B01AC01C301B2010E94D71AAF85B8890A
:101E100096966D937D938D939C939997EF85F88912
:101E200046A057A060A471A416A907A930AC21ACA4
:101E3000212F302F432D522DC301B2010E942E1DA0
:101E400018160CF07FC0812F902FA32DB22DEF8597
:101E5000F88986A397A3A0A7B1A7BE81BB2309F4E5
:101E600090C0EF85F8892485358546855785C5015D
:101E7000B4010E94331D4B015C01AF85B8895496B3
:101E80002D913D914D915C915797C701B6010E94EC
:101E9000331D9B01AC01EF85F88966A177A180A570
:101EA00091A50E94D71AA50194010E94D81A6B012E
:101EB0007C019B01AC01612F702F832D922D0E941C
:101EC000441B87FD1BC0AF85B889D2961C91D29761
:101ED000D3960C91D397D4963C90D497D5962C90CA
:101EE0009601A701612F702F832D922D0E942E1D28
:101EF000181624F01C2D0D2D3E2C2F2CAF85B889E3
:101F00005E96ED91FC91812F902FA32DB22D8083B1
:101F10009183A283B38329813A814B815C81AF8510
:101F2000B8899A962D933D934D935C939D972B85FD
:101F30003C854D855E8592962D933D934D935C93A4
:101F40009597CCCEAF85B889D2962D913D914D9184
:101F50005C91D5972F83388749875A87C301B2018F
:101F60000E94441B87FF79CF2F81388549855A8588
:101F7000AF85B88996962D933D934D935C93999731
:101F80006CCF812C912C540178CF4F925F926F923D
:101F90007F928F929F92AF92BF92CF92DF92EF92F9
:101FA000FF920F931F93CF93DF9300D000D0CDB754
:101FB000DEB79E838D8349835A836B837C8328019C
:101FC000390120E030E0A90169817A818B819C810F
:101FD0000E94441B87FD97C020E030E0A901C301A7
:101FE000B8010E94441B87FD8EC020E030E0A901AB
:101FF000C701B6010E94441B87FD85C0AD81BE812B
:102000005B96BC92AE925A9781E0AA94AB2809F0F5
:1020100080E0ED81FE8183AF89819A81AB81BC81B3
:1020200080839183A283B3834482558266827782C0
:10203000C086D186E286F38666A577A580A991A998
:102040000E94F61B20E030E04AE754E40E944E1B59
:102050004B015C0189819A81AB81BC81ED81FE815C
:1020600084879587A687B787A5019401C301B2012C
:102070000E94331D2B013C01AD81BE8150964D92D3
:102080005D926D927C925397A5019401C701B601B0
:102090000E944E1B6B017C01ED81FE81C48AD58AB2
:1020A000E68AF78A808D918D019769F529813A81B9
:1020B0004B815C8160E070E0CB010E94D71AAD815A
:1020C000BE811C966D937D938D939C931F97A30166
:1020D000920160E070E0CB010E94D71AED81FE8191
:1020E000608B718B828B938BA701960160E070E00F
:1020F000CB010E94D71AAD81BE8154966D937D931A
:102100008D939C93579726960FB6F894DEBF0FBE1B
:10211000CDBFDF91CF911F910F91FF90EF90DF9096
:10212000CF90BF90AF909F908F907F906F905F9077
:102130004F900895AF92BF92CF92DF92EF92FF92AD
:102140000F931F93FC01A28CB38C0E94C50F1F91AB
:102150000F91FF90EF90DF90CF90BF90AF900895D8
:102160008F929F92AF92BF92CF92DF92EF92FF92A7
:10217000CF93DF93EC01EE8DFF8DC080D180E280A4
:10218000F380CEA2DFA2E8A6F9A6EC8DFD8D8081BA
:102190009181A281B3818AA79BA7ACA7BDA78EA876
:1021A0009FA8A8ACB9ACA5019401C701B6010E94D3
:1021B0002E1D18162CF48EA29FA2A8A6B9A60CC09C
:1021C0008AA89BA8ACA8BDA8A5019401C701B60127
:1021D0000E94441B87FDEFCFDF91CF91FF90EF90DE
:1021E000DF90CF90BF90AF909F908F9008951F93F6
:1021F000CF93DF93EC0111E06130710509F010E03D
:102200006130710531F48AAD811103C0CE010E94A5
:10221000B0101AAFDF91CF911F9108950F931F93C4
:10222000CF93DF93EC018B018AAD882361F1888D18
:10223000998D8617970739F12C853D854E855F85E9
:1022400060E070E0CB010E94D71A6C877D878E8793
:102250009F87288939894A895B8960E070E0CB01D2
:102260000E94D71A688B798B8A8B9B8B2C893D892E
:102270004E895F8960E070E0CB010E94D71A6C8BB9
:102280007D8B8E8B9F8B198F088FDF91CF911F9144
:102290000F9108954F925F926F927F928F929F92CB
:1022A000AF92BF92CF92DF92EF92FF920F931F9364
:1022B000CF93DF9300D01F92CDB7DEB74C0127013B
:1022C0003801A982BA82CB82DC82FC01578F468F0B
:1022D000758F648F31A320A312AE80E090E0A0EA56
:1022E000B2EC82AB93ABA4ABB5AB80E090E0A0EADC
:1022F000B2E486AB97ABA0AFB1AF84E690E0A0E0CC
:10230000B0E086A797A7A0ABB1AB6E8D7F8DC4015F
:102310000E940E11AC8CBD8CC88CD98CEA8CFB8CC5
:1023200009811A812B813C81B301A201C4010E9461
:10233000C50F0E94FF17F40146A457A460A871A816
:10234000641975098609970962A373A384A395A3E9
:102350000F900F900F900F90DF91CF911F910F91E1
:10236000FF90EF90DF90CF90BF90AF909F908F90B5
:102370007F906F905F904F9008958F929F92AF9251
:10238000BF92CF92DF92EF92FF920F931F93CF9362
:10239000DF93CDB7DEB7E889F989AA89BB899C8824
:1023A0008D888F929F921F92992493949F92BF93AE
:1023B000AF93FF93EF930E944A110FB6F894DEBFDC
:1023C0000FBECDBFDF91CF911F910F91FF90EF9086
:1023D000DF90CF90BF90AF909F908F900895FC01B9
:1023E000918D228D892F90E0805C9F4F821B9109F7
:1023F0008F7399270895FC01918D828D981731F084
:10240000828DE80FF11D858D90E008958FEF9FEF8D
:102410000895FC01918D828D981761F0A28DAE0F09
:10242000BF2FB11D5D968C91928D9F5F9F73928F90
:1024300090E008958FEF9FEF0895FC01538D448D38
:10244000252F30E0842F90E0821B930B541710F05F
:10245000CF9608950197089584ED93E1892B49F073
:1024600080E090E0892B29F00E94D41381110E9412
:10247000000080E090E0892B49F080E090E0892B1B
:1024800029F00E94000081110E94000080E090E08D
:10249000892B49F080E090E0892B29F00E94000010
:1024A00081110E9400008BE694E1892B49F080E0C5
:1024B00090E0892B29F00E946B1481110C9400008C
:1024C0000895FC01A48DA80FB92FB11DA35ABF4FC9
:1024D0002C91848D90E001968F739927848FA68923
:1024E000B7892C93A089B1898C91837080648C9377
:1024F000938D848D981306C00288F389E02D808126
:102500008F7D80830895CF93DF93EC01888D88239E
:10251000B9F0AA89BB89E889F9898C9185FD03C046
:10252000808186FD0DC00FB607FCF7CF8C9185FF2B
:10253000F2CF808185FFEDCFCE010E946112E9CFFD
:10254000DF91CF910895EF92FF920F931F93CF9356
:10255000DF93EC0181E0888F9B8D8C8D98131AC0DE
:10256000E889F989808185FF15C09FB7F894EE89C5
:10257000FF896083E889F989808183708064808322
:102580009FBF81E090E0DF91CF911F910F91FF906D
:10259000EF900895F62E0B8D10E00F5F1F4F0F7315
:1025A0001127E02E8C8D8E110CC00FB607FCFACFD0
:1025B000E889F989808185FFF5CFCE010E946112FB
:1025C000F1CFEB8DEC0FFD2FF11DE35AFF4FF082A1
:1025D0009FB7F8940B8FEA89FB8980818062CFCF07
:1025E000CF92DF92EF92FF921F93CF93DF93EC0194
:1025F0006A017B01122FE889F98982E08083C11486
:1026000081EED806E104F104A1F060E079E08DE309
:1026100090E0A70196010E94881A215031094109D2
:1026200051095695479537952795211580E138072B
:1026300098F0E889F989108260E874E88EE190E00A
:10264000A70196010E94881A2150310941095109B8
:102650005695479537952795EC85FD853083EE8512
:10266000FF852083188EEC89FD891083EA89FB8918
:10267000808180618083EA89FB8980818860808392
:10268000EA89FB89808180688083EA89FB8980816F
:102690008F7D8083DF91CF911F91FF90EF90DF902E
:1026A000CF900895CF93DF93EC01E881F981068004
:1026B000F781E02D1995EA89FB8980818F7E8083DF
:1026C000EA89FB898081877F8083EA89FB89808111
:1026D0008F778083EA89FB8980818F7D80838A8DD3
:1026E000898FDF91CF9108951F920F920FB60F92AD
:1026F00011240BB60F922F938F939F93EF93FF9319
:10270000E0910B0CF0910C0C8081E091110CF09198
:10271000120C82FD1DC090818091140C8F5F8F730D
:102720002091150C821741F0E091140CF0E0E55077
:10273000F44F958F8093140CFF91EF919F918F919F
:102740002F910F900BBE0F900FBE0F901F901895FA
:102750008081F2CF1F920F920FB60F9211240BB609
:102760000F922F933F934F935F936F937F938F932A
:102770009F93AF93BF93EF93FF938BEF9BE00E94E8
:102780006112FF91EF91BF91AF919F918F917F91D6
:102790006F915F914F913F912F910F900BBE0F90D2
:1027A0000FBE0F901F9018958BEF9BE00E94EF11CA
:1027B00021E0892B09F420E0822F0895EBEFFBE064
:1027C0001382128288EE93E0A0E0B0E084839583C8
:1027D000A683B7838CE793E09183808385EC90E0B8
:1027E0009587848784EC90E09787868780EC90E0DB
:1027F000918B808B81EC90E0938B828B82EC90E0CC
:10280000958B848B86EC90E0978B868B118E128E45
:10281000138E148E08951F920F920FB60F921124EB
:102820000BB60F922F938F939F93EF93FF93E091AB
:10283000A80CF091A90C8081E091AE0CF091AF0C46
:1028400082FD1DC090818091B10C8F5F8F732091AC
:10285000B20C821741F0E091B10CF0E0E856F34F72
:10286000958F8093B10CFF91EF919F918F912F9154
:102870000F900BBE0F900FBE0F901F901895808188
:10288000F2CF1F920F920FB60F9211240BB60F9238
:102890002F933F934F935F936F937F938F939F9368
:1028A000AF93BF93EF93FF9388E99CE00E9461127E
:1028B000FF91EF91BF91AF919F918F917F916F9118
:1028C0005F914F913F912F910F900BBE0F900FBED4
:1028D0000F901F90189588E99CE00E94EF1121E06D
:1028E000892B09F420E0822F0895E8E9FCE01382A7
:1028F000128288EE93E0A0E0B0E084839583A68303
:10290000B7838CE793E09183808385E391E095879B
:10291000848784E391E09787868780E391E0918BB9
:10292000808B81E391E0938B828B82E391E0958BA6
:10293000848B86E391E0978B868B118E128E138E9B
:10294000148E0895AF92BF92CF92DF92EF92FF92D2
:102950000F931F93CF93DF936C017B018B01040FC7
:10296000151FEB015E01AE18BF08C017D10759F063
:102970006991D601ED91FC910190F081E02DC601A5
:102980001995892B79F7C501DF91CF911F910F918F
:10299000FF90EF90DF90CF90BF90AF900895FB0134
:1029A00001900020E9F73197AF01461B570BDC017E
:1029B000ED91FC910280F381E02D1994DB011496D6
:1029C0004D915C9115976D917C91DC01ED91FC919D
:1029D0000280F381E02D19946115710511F00C94BA
:1029E000CF1490E080E00895DC01ED91FC9101901E
:1029F000F081E02D19946AE873E00C94CF140F93E2
:102A00001F93CF93DF93EC010E94DE148C01CE0163
:102A10000E94FB14800F911FDF91CF911F910F91A6
:102A200008950F931F93CF93DF938C01D0E0C0E004
:102A30006115710519F00E94CF14EC01C8010E94C4
:102A4000FB148C0F9D1FDF91CF911F910F91089563
:102A50008F929F92AF92BF92EF92FF920F931F932C
:102A6000CF93DF93CDB7DEB7A1970FB6F894DEBF53
:102A70000FBECDBF7C01FA01CB0119A2223008F4B0
:102A80002AE08E010F5D1F4F822E912CB12CA12CBC
:102A9000BF01A50194010E94881AF901CA016A3098
:102AA0000CF5605DD8016E938D01232B242B252B13
:102AB00079F790E080E0109721F0BD01C7010E94F6
:102AC000CF14A1960FB6F894DEBF0FBECDBFDF9135
:102AD000CF911F910F91FF90EF90BF90AF909F907B
:102AE0008F900895695CDECF2115310541F4DC013A
:102AF000ED91FC910190F081E02D642F19940C94DC
:102B000028159A01AB0170E060E00C9474152F92C7
:102B10003F924F925F926F927F928F929F92AF926D
:102B2000BF92CF92DF92EF92FF921F93CF93DF93EA
:102B3000EC016A017B01722EAB019601CB01B6015B
:102B40000E94EE1D6DE873E0811126C04601570119
:102B5000E894B7F82FEF3FEF4FE75FE7C501B40107
:102B60000E94EE1D81110CC02FEF3FEF4FE75FE792
:102B7000C501B4010E94441B61E973E0181664F0BA
:102B80002FEF3FEF4FE75FE4C701B6010E942E1D14
:102B90001816B4F465E973E0CE01DF91CF911F916F
:102BA000FF90EF90DF90CF90BF90AF909F908F906D
:102BB0007F906F905F904F903F902F900C94CF1428
:102BC0002FEF3FEF4FE75FECC701B6010E94441BB8
:102BD00087FDE0CF20E030E0A901C701B6010E94E7
:102BE000441B312C212C87FF09C06DE2CE010E94CD
:102BF000F4141C01F7FAF094F7F8F09410E060E098
:102C000070E080E09FE3711641F020E030E040E2A8
:102C100051E40E944E1B1F5FF6CFA70196010E9450
:102C2000D81A2B013C010E94C71B4B015C012AE012
:102C3000BC01A401CE010E9428157C01E20CF31C0A
:102C40001123B1F1C501B4010E94F61B9B01AC0137
:102C5000C301B2010E94D71A4B015C016EE2CE01A2
:102C60000E94F414E80EF91E115010F120E030E03B
:102C700040E251E4C501B4010E94331D2B013C0127
:102C80000E94C71B4B014AE050E0CE010E94811513
:102C9000E80EF91EB40190E080E00E94F61B9B0153
:102CA000AC01C301B2010E94D71A4B015C01DCCF19
:102CB000C701DF91CF911F91FF90EF90DF90CF90F0
:102CC000BF90AF909F908F907F906F905F904F904C
:102CD0003F902F9008950C9487150F931F93CF93D7
:102CE000DF93EC010E9487158C01CE010E94FB143A
:102CF000800F911FDF91CF911F910F910895FC01DB
:102D0000808191810C94D61ECF93DF93EC01888152
:102D10009981009711F00E94D61E198218821D8297
:102D20001C821B821A82DF91CF9108950F931F930B
:102D3000CF93DF93EC018B016F5F7F4F8881998187
:102D40000E945F1F009751F0998388831B830A8339
:102D500081E0DF91CF911F910F91089580E0F9CF2D
:102D6000CF93DF93EC0188819981892B49F08A8187
:102D70009B818617970720F081E0DF91CF9108951E
:102D8000CE010E9496168823C1F38C819D81892BE8
:102D900099F7E881F9811082EFCFEF92FF920F93BC
:102DA0001F93CF93DF93EC017B018A01BA010E944C
:102DB000B01681110BC0CE010E948416CE01DF91A6
:102DC000CF911F910F91FF90EF9008951D830C8379
:102DD000B701888199810E944920F0CFFC011182BE
:102DE000108213821282158214826115710551F0CE
:102DF000FB0101900020E9F73197AF01461B570B0B
:102E00000C94CD160895FB0101900020E9F731974D
:102E1000AF01461B570B0C94CD16CF93DF93EC01FB
:102E20006115710531F00E940317CE01DF91CF913A
:102E300008950E948416F9CFEF92FF920F931F938B
:102E4000CF93DF93CDB7DEB7A1970FB6F894DEBF6F
:102E50000FBECDBF7C01CB01BA01F70111821082F8
:102E6000138212821582148242E0420F8E010F5F9C
:102E70001F4F0E941C1EBC01C7010E940D17A19686
:102E80000FB6F894DEBF0FBECDBFDF91CF911F917B
:102E90000F91FF90EF900895EF92FF920F931F9381
:102EA000CF93DF936115710541F480E0DF91CF91FD
:102EB0001F910F91FF90EF90089541155105B1F0CA
:102EC0007B01EC010C811D81040F151FB8010E94CC
:102ED000B016882351F3288139818C819D81B701F7
:102EE000820F931F0E9449201D830C8381E0DECF57
:102EF000CF93DF93EC01FB014481558160817181A7
:102F00000E944C17811103C0CE010E948416CE018D
:102F1000DF91CF910895CF93DF93EC016115710597
:102F200039F4CE010E948416CE01DF91CF9108952D
:102F3000FB0101900020E9F73197AF01461B570BC9
:102F40000E944C17882369F3EFCF08950E946918F7
:102F50000E94A5170E946C09CCE2D2E10E94DD0913
:102F60002097E1F30E942C12F9CF1F920F920FB617
:102F70000F9211242F933F938F939F93AF93BF93FF
:102F80008091360D9091370DA091380DB091390D8B
:102F90003091350D23E0230F2D3758F50196A11DF3
:102FA000B11D2093350D8093360D9093370DA0936E
:102FB000380DB093390D80913A0D90913B0DA09151
:102FC0003C0DB0913D0D0196A11DB11D80933A0DB0
:102FD00090933B0DA0933C0DB0933D0DBF91AF91ED
:102FE0009F918F913F912F910F900FBE0F901F9047
:102FF000189526E8230F0296A11DB11DD2CF2FB739
:10300000F8946091360D7091370D8091380D909144
:10301000390D2FBF08953FB7F89480913A0D9091E4
:103020003B0DA0913C0DB0913D0D26B5A89B05C070
:103030002F3F19F00196A11DB11D3FBFBA2FA92F37
:10304000982F8827BC01CD01620F711D811D911D34
:1030500042E0660F771F881F991F4A95D1F70895A0
:103060008F929F92AF92BF92CF92DF92EF92FF9298
:103070006B017C010E940B184B015C01C114D1044F
:10308000E104F104E9F00E94731A0E940B18681918
:1030900079098A099B09683E73408105910570F39F
:1030A00021E0C21AD108E108F10888EE880E83E019
:1030B000981EA11CB11CC114D104E104F10429F72C
:1030C000FF90EF90DF90CF90BF90AF909F908F9048
:1030D0000895789484B5826084BD84B5816084BD90
:1030E00085B5826085BD85B5816085BDEEE6F0E081
:1030F000808181608083E1E8F0E0108280818260DD
:103100008083808181608083E0E8F0E0808181605D
:103110008083E1EBF0E0808184608083E0EBF0E08D
:10312000808181608083E1E9F0E08081826080833A
:10313000808181608083E0E9F0E08081816080832C
:10314000E1EAF0E080818260808380818160808319
:10315000E0EAF0E0808181608083E1E2F1E080815B
:1031600082608083808181608083E0E2F1E0808101
:1031700081608083EAE7F0E08081846080838081E1
:103180008260808380818160808380818068808389
:103190001092C10008951F93CF93DF93182FEB0176
:1031A00061E00E94091A209739F460E0812FDF91D5
:1031B000CF911F910C94451ACF3FD10511F461E0D6
:1031C000F5CFE12FF0E0EC51FD4FE491E150E23119
:1031D00008F0B3C0F0E08827EF50F74E8F4F0C9403
:1031E000AA1A03190B1910191A1924199D192E1945
:1031F00036193E19481952195C196B1975199D1920
:103200007F198919931984B5806884BDC7BDDF9182
:10321000CF911F91089584B5806284BDC8BDF7CF5A
:1032200080918000806880938000D0938900C09353
:103230008800EDCF80918000806280938000D093E1
:103240008B00C0938A00E3CF8091800088608093D8
:103250008000D0938D00C0938C00D9CF8091B000B6
:1032600080688093B000C093B300D1CF8091B0004C
:1032700080628093B000C093B400C9CF8091900069
:10328000806880939000D0939900C0939800BFCF3E
:1032900080919000806280939000D0939B00C093B7
:1032A0009A00B5CF80919000886080939000D09371
:1032B0009D00C0939C00ABCF8091A000806880935C
:1032C000A0008091A0008F7B8093A000D093A900E4
:1032D000C093A8009CCF8091A00080628093A00042
:1032E000D093AB00C093AA0092CF8091A0008860D9
:1032F0008093A000D093AD00C093AC0088CF8091A4
:103300002001806880932001D0932901C093280177
:103310007ECF80912001806280932001D0932B0189
:10332000C0932A0174CF809120018860809320018E
:10333000D0932D01C0932C016ACFC038D1050CF079
:103340003ECF33CF8150823108F05AC0E82FF0E0F1
:103350008827E255F64E8F4F0C94AA1ACE19D2192F
:10336000C019C619CA19001AD519DB19DF19E519D0
:10337000E919ED19F319F719001AFB19011A051AC1
:10338000809180008F7780938000089580918000E5
:103390008F7DF9CF80918000877FF5CF84B58F77BF
:1033A00084BD089584B58F7DFBCF8091B0008F7769
:1033B0008093B00008958091B0008F7DF9CF809107
:1033C00090008F77809390000895809190008F7D7A
:1033D000F9CF80919000877FF5CF8091A0008F7703
:1033E0008093A00008958091A0008F7DF9CF8091F7
:1033F000A000877FF5CF809120018F7780932001F7
:103400000895809120018F7DF9CF80912001877FE1
:10341000F5CFCF93DF9390E0FC01E65DFC4F249164
:1034200080599C4FFC0184918823C9F090E0880F5B
:10343000991FFC01E053FC4FA591B491FC01EA54A3
:10344000FC4FC591D49161110DC09FB7F8948C9138
:10345000209582238C938881282328839FBFDF9126
:10346000CF910895623051F49FB7F8943C91822F28
:10347000809583238C93E8812E2BEFCF8FB7F89420
:10348000EC912E2B2C938FBFEACF1F93CF93DF931A
:10349000282F30E0F901EC51FD4F8491F901E65DF0
:1034A000FC4FD491F901E059FC4FC491CC23A9F011
:1034B000162F81110E94A219EC2FF0E0EE0FFF1FD2
:1034C000EA54FC4FA591B4918FB7F894EC91111187
:1034D00008C0D095DE23DC938FBFDF91CF911F9181
:1034E0000895DE2BF8CF089597FB072E16F400946D
:1034F00007D077FD09D00E94B21A07FC05D03EF430
:10350000909581959F4F0895709561957F4F08958F
:10351000A1E21A2EAA1BBB1BFD010DC0AA1FBB1FD7
:10352000EE1FFF1FA217B307E407F50720F0A21B49
:10353000B30BE40BF50B661F771F881F991F1A94B6
:1035400069F760957095809590959B01AC01BD01E0
:10355000CF010895EE0FFF1F881F8BBF0790F691D4
:10356000E02D1994AA1BBB1B51E107C0AA1FBB1F6A
:10357000A617B70710F0A61BB70B881F991F5A95FF
:10358000A9F780959095BC01CD0108959F939F77F1
:103590000E94331C0F90002042F49058A2EA2AEDBA
:1035A0003FE049E450E40E94EF1A0C94E01C5058AC
:1035B000BB27AA270E94EF1A0C94E01C0E94A71CAC
:1035C00038F00E94AE1C20F039F49F3F19F426F425
:1035D0000C947D1C0EF4E095E7FB0C94771CE92F0E
:1035E0000E94051D58F3BA176207730784079507F1
:1035F00020F079F4A6F50C94271D0EF4E0950B2E1F
:10360000BA2FA02D0B01B90190010C01CA01A00134
:103610001124FF27591B99F0593F50F4503E68F18F
:103620001A16F040A22F232F342F4427585FF3CFD0
:10363000469537952795A795F0405395C9F77EF4A1
:103640001F16BA0B620B730B840BBAF09150A1F0EA
:10365000FF0FBB1F661F771F881FC2F70EC0BA0F70
:10366000621F731F841F48F4879577956795B795F8
:10367000F7959E3F08F0B0CF9395880F08F09927F3
:10368000EE0F9795879508950E94531C08F481E0EA
:1036900008950E94B71CE3950C94F11C0E94621BD4
:1036A0000C94E01C0E94AE1C58F00E94A71C40F035
:1036B00029F45F3F29F00C94771C51110C94281DBC
:1036C0000C947D1C0E94051D68F39923B1F35523CA
:1036D00091F3951B550BBB27AA2762177307840725
:1036E00038F09F5F5F4F220F331F441FAA1FA9F3BB
:1036F00035D00E2E3AF0E0E832D091505040E695A9
:10370000001CCAF72BD0FE2F29D0660F771F881F09
:10371000BB1F261737074807AB07B0E809F0BB0BFC
:10372000802DBF01FF2793585F4F3AF09E3F510510
:1037300078F00C94771C0C94281D5F3FE4F3983EBE
:10374000D4F3869577956795B795F7959F5FC9F7F9
:10375000880F911D9695879597F90895E1E0660F7A
:10376000771F881FBB1F621773078407BA0720F0F3
:10377000621B730B840BBA0BEE1F88F7E09508955C
:103780000E94C71B6894B1110C94281D08950E94D3
:103790000D1D88F09F5798F0B92F9927B751B0F0B9
:1037A000E1F0660F771F881F991F1AF0BA95C9F7C5
:1037B00014C0B13091F00E94271DB1E008950C941F
:1037C000271D672F782F8827B85F39F0B93FCCF3D2
:1037D000869577956795B395D9F73EF49095809542
:1037E000709561957F4F8F4F9F4F0895E89409C062
:1037F00097FB3EF490958095709561957F4F8F4F24
:103800009F4F9923A9F0F92F96E9BB279395F69539
:10381000879577956795B795F111F8CFFAF4BB0FB7
:1038200011F460FF1BC06F5F7F4F8F4F9F4F16C01B
:10383000882311F096E911C0772321F09EE8872FA5
:10384000762F05C0662371F096E8862F70E060E061
:103850002AF09A95660F771F881FDAF7880F9695DA
:10386000879597F90895DF93CF931F930F938B015B
:10387000EC01E4EEF0E00E94801C0E94E01C980144
:10388000AE018B01EC0160E070E080E89FE30E94F4
:10389000D71A0E94AE1D9801AE010F911F91CF91D2
:1038A000DF910C94461D990F0008550FAA0BE0E814
:1038B000FEEF16161706E807F907C0F012161306F2
:1038C000E407F50798F0621B730B840B950B39F432
:1038D0000A2661F0232B242B252B21F408950A2698
:1038E00009F4A140A6958FEF811D811D089597F9D8
:1038F0009F6780E870E060E008959FEF80EC089596
:10390000DF93CF931F930F93FF92EF92DF927B0190
:103910008C01689406C0DA2EEF010E94461DFE015C
:10392000E894A5912591359145915591A6F3EF0124
:103930000E94EF1AFE019701A801DA9469F7DF905F
:10394000EF90FF900F911F91CF91DF910895002488
:103950000A941616170618060906089500240A94F4
:10396000121613061406050608950C947D1C0E9479
:103970000D1DD8F3E894E0E0BB279F57F0F02AED47
:103980003FE049EC06C0EE0FBB0F661F771F881F94
:1039900028F0B23A62077307840728F0B25A620B24
:1039A000730B840BE3959A9572F7803830F49A95EF
:1039B000BB0F661F771F881FD2F790480C94F51D28
:1039C000092E0394000C11F4882352F0BB0F40F42D
:1039D000BF2B11F460FF04C06F5F7F4F8F4F9F4F6D
:1039E0000895EF93E0FF07C0A2EA2AED3FE049EC1B
:1039F0005FEB0E94EF1A0E94E01C0F90039401FC01
:103A00009058ECE0F1E00C94081E57FD9058440FDC
:103A1000551F59F05F3F71F04795880F97FB991F2D
:103A200061F09F3F79F087950895121613061406EA
:103A3000551FF2CF4695F1DF08C016161706180677
:103A4000991FF1CF86957105610508940895E89452
:103A5000BB2766277727CB0197F908950E94531C4F
:103A600008F48FEF08950E94461D0C94E01C0E94FC
:103A7000A71C38F00E94AE1C20F0952311F00C9486
:103A8000771C0C947D1C11240C94281D0E94051D8C
:103A900070F3959FC1F3950F50E0551F629FF001A1
:103AA000729FBB27F00DB11D639FAA27F00DB11DBA
:103AB000AA1F649F6627B00DA11D661F829F222743
:103AC000B00DA11D621F739FB00DA11D621F839FCA
:103AD000A00D611D221F749F3327A00D611D231FA0
:103AE000849F600D211D822F762F6A2F11249F57EE
:103AF00050409AF0F1F088234AF0EE0FFF1FBB1FF1
:103B0000661F771F881F91505040A9F79E3F5105AF
:103B100080F00C94771C0C94281D5F3FE4F3983ED2
:103B2000D4F3869577956795B795F795E7959F5F59
:103B3000C1F7FE2B880F911D9695879597F90895EB
:103B40009F930E94B71C0F9007FCEE5F0C94F11C32
:103B500019F416F40C947D1C0C94F31D0E940D1D99
:103B6000B8F39923C9F3B6F39F57550B87FF0E940B
:103B7000011E0024A0E640EA9001805856959795D2
:103B800028F4805C660F771F881F20F02617370700
:103B9000480730F4621B730B840B202931294A2B10
:103BA000A69517940794202531254A2758F7660FC4
:103BB000771F881F20F026173707480730F4620B5D
:103BC000730B840B200D311D411DA09581F7B901A8
:103BD000842F9158880F9695879508950E94531CBD
:103BE000880B990B08959F3F31F0915020F48795F1
:103BF00077956795B795880F911D9695879597F955
:103C0000089591505040660F771F881FD2F708958E
:103C10009F938F937F936F93FF93EF939B01AC01DF
:103C20000E94331DEF91FF910E94801C2F913F91C4
:103C30004F915F910C94331DEF920F931F93CF938D
:103C4000DF93E80134E047FD34E1042E000C550B0E
:103C500057FF03C0519541955109E32E022F242FA0
:103C6000AE010E945020CE01DF91CF911F910F91A4
:103C7000EF9008950F931F93CF93DF9382309105B8
:103C800010F482E090E0E091400DF091410D30E0C1
:103C900020E0B0E0A0E0309799F42115310509F457
:103CA0004AC0281B390B24303105D8F58A819B8105
:103CB0006115710589F1FB0193838283FE0111C0B7
:103CC000408151810281138148175907E0F048175C
:103CD000590799F4109761F012960C931297139666
:103CE0001C933296CF01DF91CF911F910F910895D0
:103CF0000093400D1093410DF4CF2115310551F083
:103D00004217530738F0A901DB019A01BD01DF0119
:103D1000F801C1CFEF01F9CF9093410D8093400D91
:103D2000CDCFFE01E20FF31F819391932250310911
:103D300039832883D7CF20913E0D30913F0D232B1F
:103D400041F4209102023091030230933F0D209301
:103D50003E0D20910002309101022115310541F400
:103D60002DB73EB74091040250910502241B350B3C
:103D7000E0913E0DF0913F0DE217F307A0F42E1BEA
:103D80003F0B2817390778F0AC014E5F5F4F2417BF
:103D9000350748F04E0F5F1F50933F0D40933E0D87
:103DA000819391939FCFF0E0E0E09CCFCF93DF939E
:103DB0000097E9F0FC01329713821282A091400D26
:103DC000B091410DED0130E020E01097A1F4208189
:103DD0003181820F931F20913E0D30913F0D2817A6
:103DE000390709F061C0F0933F0DE0933E0DDF917C
:103DF000CF910895EA01CE17DF07E8F54A815B818C
:103E00009E0141155105B1F7E901FB83EA83499110
:103E10005991C40FD51FEC17FD0761F48081918182
:103E20000296840F951FE90199838883828193818B
:103E30009B838A83F0E0E0E012968D919C9113972A
:103E40000097B9F52D913C911197CD010296820F03
:103E5000931F20913E0D30913F0D2817390739F6F9
:103E6000309751F51092410D1092400DB0933F0DD7
:103E7000A0933E0DBCCFD383C28340815181840F78
:103E8000951FC817D90761F44E5F5F4F88819981EC
:103E9000480F591F518340838A819B81938382837A
:103EA0002115310509F0B0CFF093410DE093400D9D
:103EB0009ECFFD01DC01C0CF13821282D7CF4F927B
:103EC0005F926F927F928F929F92AF92BF92CF92AA
:103ED000DF92EF92FF920F931F93CF93DF938C01AA
:103EE000009799F4CB01DF91CF911F910F91FF9033
:103EF000EF90DF90CF90BF90AF909F908F907F908A
:103F00006F905F904F900C943A1EFC01E60FF71FE4
:103F10009C0122503109E217F30708F4AEC0D90121
:103F2000CD91DC911197C617D70720F1C530D10587
:103F300078F0CE0104978617970750F0C61BD70B71
:103F40002297C193D1936D937C93CF010E94D61E8B
:103F5000C801DF91CF911F910F91FF90EF90DF90FB
:103F6000CF90BF90AF909F908F907F906F905F9019
:103F70004F9008955B01AC1ABD0A4C018C0E9D1E3A
:103F8000A091400DB091410D512C412CF12CE12C10
:103F9000109731F580913E0D90913F0D8815990550
:103FA00009F05CC04616570608F058C08091000220
:103FB00090910102009741F48DB79EB740910402A1
:103FC00050910502841B950BE817F90708F055C0BE
:103FD000F0933F0DE0933E0DF90171836083B8CFFC
:103FE0008D919C91119712966C90129713967C90DC
:103FF0001397A815B90559F56C0142E0C40ED11C00
:10400000CA14DB0420F1AC014A195B09DA011296EB
:10401000159780F06282738251834083D9016D933A
:104020007C93E114F10471F0D7011396FC93EE93A5
:1040300012978ECF22968C0F9D1FF901918380835A
:10404000F301EFCFF093410DE093400D81CF48167F
:10405000590608F42C017D01D3019ACFCB010E94AF
:104060003A1E7C01009749F0AE01B8010E94402041
:10407000C8010E94D61E87016BCF10E000E068CF18
:10408000FB01DC0102C001900D9241505040D8F775
:104090000895FB01DC0101900D920020E1F70895E5
:1040A0008F929F92AF92BF92CF92DF92EF92FF9248
:1040B0000F931F93CF93DF9300D000D000D0CDB7E4
:1040C000DEB76A01F22EB02E102FFBE3AF2EA01642
:1040D00008F41BE31F5F012F27E0AE014F5F5F4F26
:1040E0000E94C921BC018981982F9970913009F4EF
:1040F0004EC09BE2E1FC04C09E2D9170E0FC49C0E3
:104100005E2D5071E82FE87083FF55C084E0911157
:1041100001C083E0EF2DE81B8F1508F0E0E0D60129
:104120008E2F20E25523C9F1992329F0D6019C93C3
:10413000C60101966C0196012D5F3F4FE2FE33C030
:104140008EE4D6018C9391E411969C93119712966C
:104150008C93D9018E2F90E281112AC0E20FF32FA8
:10416000F11D10828EEF9FEF29960FB6F894DEBFF7
:104170000FBECDBFDF91CF911F910F91FF90EF90B8
:10418000DF90CF90BF90AF909F908F9008959DE269
:10419000B7CF90E2B5CF2D9381508111FCCFCE0ED9
:1041A000D11CE0E0C1CF8EE6D6018C9391E6CCCF56
:1041B0009D938150D1CF482F447082FF3DC084E051
:1041C000911101C083E08F1510F4EF2DE81BD6018B
:1041D0008E2F20E2552309F1992329F0D6019C93D3
:1041E000C60101966C0196012D5F3F4FE2FE1BC098
:1041F00089E4D6018C938EE411968C93119786E412
:1042000012968C93D9018E2F90E2882309F4A6CFC1
:104210009D938150FACF2D9381508111FCCFCE0E0A
:10422000D11CE0E0D9CF89E6D6018C938EE61196B9
:104230008C93119786E6E4CF9B0177FF02C030E0B4
:1042400020E0A1E0B0E0911102C0B0E0A0E0F901EF
:104250003196AE0FBF1F8B2C912CBB2009F461C08F
:104260005401EFEFAE1ABE0AAA0DBB1DFA161B06CB
:1042700019F014F04F2D4A1B511188C0E3FC59C0AE
:104280007601A42FB0E2A1114FC0C40ED11C992316
:1042900009F45BC040E0D6011196F60190836D01F0
:1042A000552309F448C0012F060F9A81582F5071E9
:1042B00084FF03C0913309F4015010160CF047C07D
:1042C000093008F008E0EEE2FE2E5B01A01AB1080A
:1042D00085019194819491082F3F320729F4D601EA
:1042E000FC92F60131966F016217730794F1021781
:1042F00013077CF5DB01A21BB30BAA24A394B12CFA
:10430000AC0EBD1EAA0DBB1D11968C91215031091A
:10431000D601119628153905F4F0F60180836D0158
:10432000DBCFB12CA12CA0CFF701B1937F01A1501D
:10433000AACF9111B0CFD601942F50E302C05D9364
:1043400091509111FCCFC40ED11C40E0ACCF01E0E4
:10435000BACF80E3DBCF6217730731F4963388F46A
:10436000953311F4552369F0F6018083FD01842F04
:1043700090E2811108C0A40FB11D1C9290E080E072
:10438000F3CE81E3F1CF91938150F3CF911183CF9D
:104390008ACF283008F027E03327DA01990F311D42
:1043A00087FD916000966105710539F432602E5FDA
:1043B0003D9330E32A95E1F708959F3F30F0803830
:1043C0007105610509F03C5F3C5F3D93913008F059
:1043D0008068911DDF93CF931F930F93FF92EF920D
:1043E000192F987F9695E92F96959695E90FFF27B7
:1043F000EC5BFD4F99273327EE24FF24A701E7014B
:1044000005900894079428F4360FE71EF81E491FFC
:10441000511D660F771F881F991F0694A1F70590FD
:10442000079428F4E70EF81E491F561FC11D770F89
:10443000881F991F661F0694A1F70590079428F41A
:10444000F80E491F561FC71FD11D880F991F661FE1
:10445000771F0694A1F70590079420F4490F561F83
:10446000C71FD81F990F661F771F881F0694A9F7CB
:1044700084911095177041F0D695C795579547953B
:10448000F794E7941A95C1F7EAEEF1E06894159075
:10449000159135916591959105907FE27395E1189D
:1044A000F10A430B560BC90BD009C0F7E10CF11E02
:1044B000431F561FC91FD01D7EF4703311F48A9517
:1044C000E6CFE894015030F0080F0AF400270217F5
:1044D00008F4202F2395022F7A3328F079E37D9377
:1044E0002A95E9F710C07D932A9589F60694979549
:1044F0006795379517951794E118F10A430B560BFA
:10450000C90BD00998F023957E9173957A3308F002
:1045100070E37C932013B8F77E9170617D9330F047
:10452000839571E37D9370E32A95E1F71124EF9071
:10453000FF900F911F91CF91DF91992787FD909563
:10454000089511E0C8EFD1E000E006C0802FFE0121
:104550000E94AA1A2196011DC93FD10780E00807D1
:06456000A9F7F894FFCF5B
:104566000000420D8000FFFF0000204100002041B6
:104576000000F04101CEFF14002800000061430056
:104586000007434F7574707574205049443A2000F3
:1045960020205475726E656420416E676C653A2002
:1045A60000233D3D3D3D3D3D3D3D3D3D3D3D3D20A9
:1045B600447269766520436F6E74726F6C20506F1B
:1045C600696E7473203D3D3D3D3D3D3D3D3D3D3D68
:1045D6003D005363686E69747470756E6B74202049
:1045E600732E783A20002020732E793A20004D69E8
:1045F60074746520547565722020642E783A200004
:104606002020642E793A20005261646975733A203D
:104616000057696E6B656C205068693A2000233D2F
:104626003D3D3D3D3D3D3D3D3D3D3D3D3D3D3D3DB4
:104636003D3D3D3D3D3D3D3D3D3D3D3D3D3D3D3DA4
:104646003D3D3D3D3D3D3D3D3D3D3D00446F6F7231
:1046560020666F756E642100233D3D3D3D3D3D3D29
:104666003D3D3D20446F6F7220506F696E7473201C
:104676003D3D3D3D3D3D3D3D3D3D3D002020783AA3
:1046860020002020793A200043414E205772697459
:1046960065202D2054657374696E67207472616E8F
:1046A600736D697373696F6E206F662043414E2088
:1046B600427573206D657373616765730043414E80
:1046C60020496E6974206F6B0043616E2774206900
:1046D6006E69742043414E0000000000A312A2142C
:1046E6001D128312EF110912FB110D0A006E616E85
:0A46F60000696E66006F7666000032
:00000001FF
