:100000000C947C010C94AD010C94AD010C94AD01E9
:100010000C94AD010C94AD010C94AD010C94AD01A8
:100020000C94AD010C94AD010C94AD010C94AD0198
:100030000C94AD010C94AD010C94AD010C94AD0188
:100040000C94AD010C94AD010C94AD010C94AD0178
:100050000C94AD010C94AD010C94AD010C942C0EDC
:100060000C94AD010C94310B0C94670B0C94AD0106
:100070000C94AD010C94AD010C94AD010C94AD0148
:100080000C94AD010C94AD010C94AD010C94AD0138
:100090000C94AD010C94AD010C94AD010C94AD0128
:1000A0000C94AD010C94AD010C94AD010C94AD0118
:1000B0000C94AD010C94AD010C94AD010C94AD0108
:1000C0000C94AD010C94AD010C94AD010C94AD01F8
:1000D0000C94AD010C94AD010C94C80B0C94FE0B68
:1000E0000C94AD01072C7AA5BA6CC590DA3B9365E8
:1000F000FC8BBC53F810FD3C5692834DBD879D3A56
:10010000B63DCBC9BF5BBE73DA0FC93F05A84CCD66
:10011000B2D44EB93836A9020C50B9918688083C41
:10012000A6AAAA2ABE000000803F0C94B50F0C942A
:10013000820F0C9477100C94C90F0C94A50F0C949B
:10014000280C0C9400100C9478100C9445100C940E
:1001500056100C94400A0C943D100C94870F0C948C
:10016000E20F0C9437100C946A100C947C100C94D1
:1001700052100C945F0C0C946E100C94BF0F0C94E6
:10018000F60F0C949B0F0C94910B0C9460100C9434
:10019000AC090C94600A0C94D30F0C949B0B0C9438
:1001A00014100C94FB060C94C6090C94910F0C943B
:1001B000AD0F0C947A0F0C94320C0C9449100C94E3
:1001C00064100C940A100C94DA090C94EC0F0C9443
:1001D00072100C9441100C945C100C94F7060C9463
:1001E000E9090C944C100C94B80900000A0B0209A0
:1001F0000C0D0E08070304010000000000000000C1
:1002000000000000000000000000000000000000EE
:1002100000000000000012111000000000000000AB
:1002200000000000000000000000000000000000CE
:1002300001021020200808102040102040800201F8
:1002400002010804020101020408102040808040DD
:1002500020100804020180040201804020100804DC
:10026000020108040201010204081020408001027A
:100270000408102040800505050507050808080842
:10028000020202020A0A080804040404010101012E
:100290000101010103030303030303030407070729
:1002A0000C0C0C0C0C0C0C0C0202020206060606CE
:1002B000060606060B0B0B0B0B0B0B0B00002200AC
:1002C000250028002B002E00310034000201000020
:1002D000050108010B0100002100240027002A006D
:1002E0002D003000330001010000040107010A0164
:1002F000F7069B0B320CFB0611241FBECFEFD1E299
:10030000DEBFCDBF00E00CBF12E0A0E0B2E0EAE447
:10031000F9E200E00BBF02C007900D92A43FB107C5
:10032000D9F72CE0A4EFB2E001C01D92A334B207CC
:10033000E1F711E0CBE7D1E000E006C02197010929
:10034000802FFE010E942111C837D10780E00807E5
:10035000A9F70E941D0E0C9493140C9400004F9268
:100360005F926F927F928F929F92AF92BF92CF9245
:10037000DF92EF92FF92CF93DF93CDB7DEB7609716
:100380000FB6F894DEBF0FBECDBFC0900203D09071
:100390000303E0900403F090050340900C03509099
:1003A0000D0360900E0370900F03809110039091E5
:1003B0001103A0911203B091130389879A87AB8729
:1003C000BC876091050270910602072E000C880B15
:1003D000990B0E946F124B015C01A3019201C701AE
:1003E000B6010E944F1120E030E040E05FE30E9440
:1003F000AA13A50194010E944E1169837A838B830D
:100400009C836091030270910402072E000C880BFC
:10041000990B0E946F126D877E878F87988B298535
:100420003A854B855C85C701B6010E944F1120E0DB
:1004300030E040E05FE30E94AA132D853E854F85A2
:1004400058890E944E116D837E838F839887A30104
:1004500092016091FE027091FF02809100039091E1
:1004600001030E944E11A50194010E944E114B01FF
:100470005C0129853A854B855C85C701B6010E94E0
:100480004E112D853E854F8558890E944E116B0176
:100490007C0169817A818B819C8190582D813E817C
:1004A0004F8158850E94C5112B013C01AC019B0175
:1004B00069817A818B819C810E94AA132D813E8162
:1004C0004F8158850E944E1169877A878B879C8758
:1004D000A3019201C501B4010E94AA139B01AC01C2
:1004E000C701B6010E944E119B01AC010E944F1141
:1004F0009B01AC0169857A858B859C850E94C5111D
:100500002B013C01AC019B01C501B4010E94AA135F
:1005100029813A814B815C810E944F114B015C0122
:10052000A3019201C701B6010E94AA132D813E8149
:100530004F8158850E944F112B013C01A501940168
:10054000C501B4010E94AA136B017C01A3019201B1
:10055000C301B2010E94AA139B01AC01C701B601FD
:100560000E944F110E94251469877A878B879C8788
:1005700029813A814B815C81CA01B9010E94AA1389
:100580006B017C012D813E814F815885CA01B901E3
:100590000E94AA139B01AC01C701B6010E944F1132
:1005A0000E9425146D877E878F87988BA501940103
:1005B00069817A818B819C810E94AA136B017C01E5
:1005C000A30192016D817E818F8198850E94AA137B
:1005D0009B01AC01C701B6010E944F116B017C0168
:1005E0002D853E854F85588969857A858B859C85C3
:1005F0000E94AA139B01AC01C701B6010E94C5115C
:100600000E943D116B017C016FE072E080E09BE095
:100610000E94AE0C60E472E080E09BE00E949B0CC4
:1006200022E030E0B501A40180E09BE00E94080ECA
:1006300064E572E080E09BE00E949B0C22E030E0E9
:10064000B301A20180E09BE00E940A0E6CE572E01B
:1006500080E09BE00E949B0C22E030E049815A81BF
:100660006B817C8180E09BE00E94080E6EE672E068
:1006700080E09BE00E949B0C22E030E04D815E8197
:100680006F81788580E09BE00E940A0E66E772E049
:1006900080E09BE00E949B0C22E030E049855A8577
:1006A0006B857C8580E09BE00E940A0E6FE772E01C
:1006B00080E09BE00E949B0C22E030E04D855E854F
:1006C0006F85788980E09BE00E940A0E6AE872E0FC
:1006D00080E09BE00E949B0C20E030E044E353E488
:1006E000C701B6010E94AA132BED3FE049E450E494
:1006F0000E94C5119B01AC0160E070E084EB92E4C4
:100700000E944E11AB01BC0122E030E080E09BE092
:100710000E940A0E60E177E280E090E060960FB6FA
:10072000F894DEBF0FBECDBFDF91CF91FF90EF9069
:10073000DF90CF90BF90AF909F908F907F906F9001
:100740005F904F900C94A70E2F923F924F925F9222
:100750006F927F928F929F92AF92BF92CF92DF92D1
:10076000EF92FF920F931F93CF93DF93CDB7DEB736
:1007700061970FB6F894DEBF0FBECDBF8C0128E0A5
:1007800036E03B832A833EE0F32EEA81FB816089D9
:100790007189072E000C880B990B0E946F129B0128
:1007A000AC010E944F114B015C01EA81FB81628127
:1007B0007381072E000C880B990B0E946F129B010E
:1007C000AC01C501B4010E944E114B015C01EA81EC
:1007D000FB81668D778D072E000C880B990B0E948C
:1007E0006F129B01AC01C501B4010E944E110E9421
:1007F000371260177107E4F4EA81FB8182899389DB
:100800000B97B4F08091F6029091F702F89ED00118
:10081000F99EB00D1124A45BBC4F3E962F2D019084
:100820000D922A95E1F701969093F7028093F602D4
:100830004A815B81425F5F4F5B834A83465E5A40D9
:1008400009F0A3CF0CE413E0312C212C1982809104
:10085000F6029091F702281639060CF45AC0C0909F
:10086000F402D090F50208EF12E01B830A83F12C0A
:10087000E12CEC14FD040CF05EC1EA81FB81628185
:100880007381072E000C880B990B0E946F124B018D
:100890005C01EA81FB8160817181072E000C880B6D
:1008A000990B0E946F122BED3FE049E450E40E9447
:1008B000AA1320E030E044E353E40E94C5112B0169
:1008C0003C010E94C0119B01AC01C501B4010E9412
:1008D000AA13EA81FB816683778380879187C301AE
:1008E000B2010E9417149B01AC01C501B4010E9422
:1008F000AA13EA81FB816287738784879587FFEF5C
:10090000EF1AFF0A2A813B81225F3F4F3B832A83F4
:10091000B0CF3FEF231A330A198B088B3B822A8210
:100920008091F6029091F7024A815B81481759073E
:100930001CF0025F1F4F8BCFF8010190F081E02D7A
:10094000FD83EC83E889F9890684F785E02DFF8330
:10095000EE836C817D816E1B7F0B072E000C880B54
:10096000990B0E946F122BED3FE049E450E40E9486
:10097000AA1320E030E044E353E40E94C5110E9432
:10098000C0116C877D878E879F87F8010280F38175
:10099000E02DF987E887CF016AE070E00E94EB1054
:1009A000072E000C880B990B0E946F126B017C01C3
:1009B000E889F9890088F189E02DFB87EA87CF0172
:1009C0006AE070E00E94EB10072E000C880B990B78
:1009D0000E946F124B015C01AC019B010E94AA13A3
:1009E0002B013C01A7019601C701B6010E94AA1381
:1009F0009B01AC01C301B2010E944F112B013C01CC
:100A0000A7019601C701B6010E944F11A5019401EB
:100A10000E94AA132C853D854E855F850E94AA13EE
:100A20009B01AC01C301B2010E944E110E9425142A
:100A300020E030E040E251E40E94AA136B017C0107
:100A400020E030E040E752E40E94A51318160CF0B5
:100A500066C020E030E042ED52E4C701B6010E94DA
:100A6000BB1187FF5CC0888599852A853B85820FED
:100A7000931F97FD0196959587958C599F4FE8E0B8
:100A8000F6E031E03983208131814C815D8142176C
:100A900053075CF44E815F812417350734F42281BB
:100AA0003381281739070CF419823E965AE0E43F47
:100AB000F50749F78981882391F18091F40290919B
:100AC000F502EEE0E89FD001E99FB00D1124A85097
:100AD000BD4FF8012EE001900D922A95E1F79C019F
:100AE0002F5F3F4FFEE0F29FD001F39FB00D112426
:100AF000A850BD4FE889F9893E962EE001900D92ED
:100B00002A95E1F702969093F5028093F40267E943
:100B100072E080E09BE00E94AE0C21E029834A81D4
:100B20005B814F5F5F4F5B834A83888999890E960B
:100B3000998B888BF5CE63EA72E080E09BE00E949F
:100B4000AE0C1B821A828091F4029091F5024A81C8
:100B50005B81481759075CF567EC72E080E09BE029
:100B60000E949B0CF801468157816085718522E0C7
:100B700030E080E09BE00E94080E6DEC72E080E0C7
:100B80009BE00E949B0CF801428553856485758526
:100B900022E030E080E09BE00E940A0E2A813B8147
:100BA0002F5F3F4F3B832A83025F1F4FCCCF39819A
:100BB0003323D1F061960FB6F894DEBF0FBECDBFE0
:100BC000DF91CF911F910F91FF90EF90DF90CF9029
:100BD000BF90AF909F908F907F906F905F904F905D
:100BE0003F902F900C94AF0161960FB6F894DEBF42
:100BF0000FBECDBFDF91CF911F910F91FF90EF906E
:100C0000DF90CF90BF90AF909F908F907F906F902C
:100C10005F904F903F902F9008954F925F926F9208
:100C20007F928F929F92AF92BF92FF920F931F93EA
:100C3000CF93DF93CDB7DEB764970FB6F894DEBFDE
:100C40000FBECDBF0E94760E683B7B4081059105AB
:100C500008F0A6C044EF51E060E070E084EF9AE055
:100C60000E943D0797FD75C08090F60A9090F70AA4
:100C7000A090F80AB090F90A4090FA0A5090FB0A46
:100C80006090FC0A7090FD0A20E030E0A901C501E7
:100C9000B4010E94BB1118163CF0812C80EC982EF8
:100CA0008AEDA82E85E4B82E209107023091080223
:100CB0004091090250910A02C301B2010E94BB1186
:100CC00018169CF120910B0230910C0240910D02FC
:100CD00050910E02C301B2010E94A51387FD25C0E9
:100CE000F090FE0AC301B2010E9437129B012758FF
:100CF00031094EE0429F8001439F100D1124085F8F
:100D0000194FF8017183608320E030E040E251E444
:100D1000C501B4010E94C5110E943712F801738306
:100D200062838F2D90E09583848364960FB6F89448
:100D3000DEBF0FBECDBFDF91CF911F910F91FF900E
:100D4000BF90AF909F908F907F906F905F904F90EB
:100D5000089570E060E083E00E94420F24E630E0F6
:100D600040E050E0BE016F5F7F4F84EF9AE00E9449
:100D7000C40897FDDACF28EE33E040E050E060E0B1
:100D800084EF9AE00E9453096FEF70E083E00E94C5
:100D9000420F68EE73E080E090E00E94A70EC5CF9E
:100DA00080910002882309F2809101029091020251
:100DB0000E94A4031092000270E060E083E00E94B1
:100DC000420FB3CF6DE97BE084EF9AE00E941D07EC
:100DD00026E040E052EC61E070E080E09BE00E94A1
:100DE000AD0A61E083E00C9480100C940D0684EF52
:100DF0009AE00C94FF0684EF9AE00C941B07FC0128
:100E00001182108212821382148215821682178236
:100E100010861186128613860895CF93DF93EC0116
:100E200088819981009721F00E940F0B1982188206
:100E3000DF91CF9108950C940D070F931F93CF93DB
:100E4000DF93EC018B0188819981892B19F0CE0108
:100E50000E940D0719830883C8010E940F0B26E02A
:100E600040E052EC61E070E0888199810E94AD0A17
:100E7000DF91CF911F910F9108954F925F926F92E2
:100E80007F928F929F92AF92BF92EF92FF921F93A9
:100E9000CF93DF9300D01F921F92CDB7DEB77C01B6
:100EA0002A013B010E94760E4B015C0110E00E947A
:100EB000760E681979098A099B094616570668064D
:100EC000790608F472C0D7018D919C91DC01ED91F7
:100ED000FC910284F385E02D199597FDE8CF11234D
:100EE00009F457C0113009F45DC091E0910FE1E0C1
:100EF000F0E0EC0FFD1FE10FF11D8083953009F04C
:100F000046C06C817D8190E080E00E946D1220E0FF
:100F100030E040E85EE30E94AA13D70112966D9379
:100F20007D938D939C9315976A817B8176956795C8
:100F300090E080E00E946D1220E030E040E85CE349
:100F40000E94AA13F701668377838087918789813E
:100F5000282F30E035952795359527952287817084
:100F6000838760E070E0CB010F900F900F900F909F
:100F70000F90DF91CF911F91FF90EF90BF90AF90B6
:100F80009F908F907F906F905F904F900895192F52
:100F90008ECF9C0135952795FC01E2279F0120FD0E
:100FA000A4CF85CF80FDA1CF81CF62E070E880E043
:100FB00090E8DACFCF92DF92EF92FF920F931F93D8
:100FC000CF93DF9300D000D01F92CDB7DEB77C0166
:100FD000162F5F834E8369011D82232B21F0CA01E6
:100FE000892B09F0106805EA09831A83D7018D91CE
:100FF0009C91DC01ED91FC910280F381E02D42E0B7
:1010000050E0BE016F5F7F4F199517FF40C06D81A3
:1010100060276C2561276D83EE81FF8196012E0F7D
:101020003F1FE217F30729F091918D8189278D8366
:10103000F8CFCC82F70180819181DC01ED91FC91A8
:101040000280F381E02D41E050E0BE016C5F7F4FF4
:101050001995F701808191814C8150E0DC01ED917F
:10106000FC910280F381E02DBE016A5F7F4F1995EC
:10107000F70180819181DC01ED91FC910280F38187
:10108000E02D41E050E0BE016B5F7F4F199560E0BD
:1010900070E0CB0127960FB6F894DEBF0FBECDBF30
:1010A000DF91CF911F910F91FF90EF90DF90CF9044
:1010B0000895FC0120813181232B39F030E020E0BC
:1010C00050E040E065E20C94DA0761E070E880E00F
:1010D00090E808957F928F929F92AF92BF92CF92A5
:1010E000DF92EF92FF920F931F93CF93DF938C01C8
:1010F000EB0149015A010E94760E6B017C01712CB3
:101100000E94760E6C197D098E099F098616970636
:10111000A806B906A0F1D8018D919C91DC01ED9152
:10112000FC910284F385E02D199597FDE9CF772096
:10113000F1F0B1E07B16F9F091E0970DFE01E70DBB
:10114000F11D8083973089F460E070E0CB01DF917E
:10115000CF911F910F91FF90EF90DF90CF90BF90B4
:10116000AF909F908F907F900895792EC9CF853A48
:10117000910511F3C5CF8A359105F1F2C0CF62E038
:1011800070E880E090E8E3CF4F925F926F927F9299
:101190008F929F92AF92BF92CF92DF92EF92FF9287
:1011A0000F931F93CF93DF9300D000D01F92CDB742
:1011B000DEB77C016B0149015A010E94760E2B01BA
:1011C0003C01D7018D919C91892B09F45EC030E0E0
:1011D00020E050E040E060E5C7010E94DA0797FD9B
:1011E0003DC0A5019401BE016F5F7F4FC7010E9402
:1011F0006A0897FD33C08F81843009F04BC08B8122
:101200009C81AD812E81B22FBF734497A105B1059A
:1012100008F440C08601B4E1CB0ED11C0E94760ECA
:10122000641975098609970986169706A806B906EE
:10123000A8F1F70180819181DC01ED91FC9102849C
:10124000F385E02D199597FDE9CFF80181938F0182
:10125000CE16DF0619F760E070E0CB0127960FB6D7
:10126000F894DEBF0FBECDBFDF91CF911F910F91DC
:10127000FF90EF90DF90CF90BF90AF909F908F90B6
:101280007F906F905F904F90089561E070E880E0EC
:1012900090E8E4CF60E070E8CB01E0CF62E070E876
:1012A00080E090E8DBCFBF92CF92DF92EF92FF9287
:1012B0000F931F93CF93DF9300D000D01F92CDB731
:1012C000DEB7DC01ED91FC91EF2B09F440C0690120
:1012D0007A01B62E8C010E94590860E2B11061E2D9
:1012E00030E020E050E040E0C8010E94DA0797FDBE
:1012F0001AC0A7019601BE016F5F7F4FC8010E940F
:101300006A0897FD10C08F818138E9F48B819C8138
:10131000AD812E81B22FBF730597A105B10598F05D
:1013200060E070E0CB0127960FB6F894DEBF0FBEE9
:10133000CDBFDF91CF911F910F91FF90EF90DF9084
:10134000CF90BF90089560E070E8CB01ECCF61E0F2
:1013500070E880E090E8E7CFFC01918D228D892F25
:1013600090E0805C9F4F821B91098F7399270895AD
:10137000FC01918D828D981731F0828DE80FF11D5F
:10138000858D90E008958FEF9FEF0895FC01918D7A
:10139000828D981761F0A28DAE0FBF2FB11D5D96A3
:1013A0008C91928D9F5F9F73928F90E008958FEF45
:1013B0009FEF0895FC01538D448D252F30E0842F3D
:1013C00090E0821B930B541710F0CF96089501976D
:1013D000089581E99BE0892B49F080E090E0892B1A
:1013E00029F00E94910B81110E94000080E090E0A2
:1013F000892B49F080E090E0892B29F00E940000C1
:1014000081110E94000080E090E0892B49F080E08B
:1014100090E0892B29F00E94000081110E940000B9
:1014200088E29CE0892B49F080E090E0892B29F04C
:101430000E94280C81110C9400000895FC01A48DD9
:10144000A80FB92FB11DA35ABF4F2C91848D90E0E6
:1014500001968F739927848FA689B7892C93A089C9
:10146000B1898C91837080648C93938D848D981353
:1014700006C00288F389E02D80818F7D80830895E6
:10148000CF93DF93EC01888D8823B9F0AA89BB89BB
:10149000E889F9898C9185FD03C0808186FD0DC0A6
:1014A0000FB607FCF7CF8C9185FFF2CF808185FFC7
:1014B000EDCFCE010E941E0AE9CFDF91CF910895B2
:1014C000EF92FF920F931F93CF93DF93EC0181E094
:1014D000888F9B8D8C8D98131AC0E889F98980813B
:1014E00085FF15C09FB7F894EE89FF896083E8896E
:1014F000F98980818370806480839FBF81E090E060
:10150000DF91CF911F910F91FF90EF900895F62EEC
:101510000B8D10E00F5F1F4F0F731127E02E8C8D86
:101520008E110CC00FB607FCFACFE889F9898081CB
:1015300085FFF5CFCE010E941E0AF1CFEB8DEC0F97
:10154000FD2FF11DE35AFF4FF0829FB7F8940B8FE8
:10155000EA89FB8980818062CFCFCF92DF92EF92C0
:10156000FF921F93CF93DF93EC016A017B01122F4F
:10157000E889F98982E08083C11481EED806E1040C
:10158000F104A1F060E079E08DE390E0A70196011D
:101590000E94FF1021503109410951095695479584
:1015A00037952795211580E1380798F0E889F98962
:1015B000108260E874E88EE190E0A70196010E9435
:1015C000FF1021503109410951095695479537952A
:1015D0002795EC85FD853083EE85FF852083188E69
:1015E000EC89FD891083EA89FB8980818061808391
:1015F000EA89FB89808188608083EA89FB89808110
:1016000080688083EA89FB8980818F7D8083DF9178
:10161000CF911F91FF90EF90DF90CF900895CF93DF
:10162000DF93EC01E881F9810680F781E02D1995BF
:10163000EA89FB8980818F7E8083EA89FB898081AA
:10164000877F8083EA89FB8980818F778083EA891D
:10165000FB8980818F7D80838A8D898FDF91CF91F7
:1016600008951F920F920FB60F9211240BB60F928E
:101670002F938F939F93EF93FF93E091100BF09133
:10168000110B8081E091160BF091170B82FD1DC0AC
:1016900090818091190B8F5F8F7320911A0B8217A5
:1016A00041F0E091190BF0E0E050F54F958F8093F9
:1016B000190BFF91EF919F918F912F910F900BBE7E
:1016C0000F900FBE0F901F9018958081F2CF1F9240
:1016D0000F920FB60F9211240BB60F922F933F93D8
:1016E0004F935F936F937F938F939F93AF93BF932A
:1016F000EF93FF9380E09BE00E941E0AFF91EF9121
:10170000BF91AF919F918F917F916F915F914F9119
:101710003F912F910F900BBE0F900FBE0F901F9017
:10172000189580E09BE00E94AC0921E0892B09F428
:1017300020E0822F0895E0E0FBE01382128288EE21
:1017400093E0A0E0B0E084839583A683B78387ED20
:1017500092E09183808385EC90E09587848784EC88
:1017600090E09787868780EC90E0918B808B81EC6E
:1017700090E0938B828B82EC90E0958B848B86EC4F
:1017800090E0978B868B118E128E138E148E089597
:101790001F920F920FB60F9211240BB60F922F9338
:1017A0008F939F93EF93FF93E091AD0BF091AE0B6E
:1017B0008081E091B30BF091B40B82FD1DC090814C
:1017C0008091B60B8F5F8F732091B70B821741F01A
:1017D000E091B60BF0E0E356F44F958F8093B60B93
:1017E000FF91EF919F918F912F910F900BBE0F90D2
:1017F0000FBE0F901F9018958081F2CF1F920F920D
:101800000FB60F9211240BB60F922F933F934F9365
:101810005F936F937F938F939F93AF93BF93EF9358
:10182000FF938DE99BE00E941E0AFF91EF91BF910B
:10183000AF919F918F917F916F915F914F913F9168
:101840002F910F900BBE0F900FBE0F901F90189509
:101850008DE99BE00E94AC0921E0892B09F420E08E
:10186000822F0895EDE9FBE01382128288EE93E067
:10187000A0E0B0E084839583A683B78387ED92E0F0
:101880009183808385E391E09587848784E391E069
:101890009787868780E391E0918B808B81E391E04D
:1018A000938B828B82E391E0958B848B86E391E02E
:1018B000978B868B118E128E138E148E0895AF9295
:1018C000BF92CF92DF92EF92FF920F931F93CF932D
:1018D000DF936C017B018B01040F151FEB015E018F
:1018E000AE18BF08C017D10759F06991D601ED9124
:1018F000FC910190F081E02DC6011995892B79F7B3
:10190000C501DF91CF911F910F91FF90EF90DF9074
:10191000CF90BF90AF900895FB0101900020E9F7B0
:101920003197AF01461B570BDC01ED91FC91028012
:10193000F381E02D19946115710511F00C948C0C54
:1019400090E080E00895DC01ED91FC910190F08140
:10195000E02D199465EE72E00C948C0C0F931F939C
:10196000CF93DF938C01D0E0C0E06115710519F0D1
:101970000E948C0CEC01C8010E94AA0C8C0F9D1FC8
:10198000DF91CF911F910F9108958F929F92AF9207
:10199000BF92EF92FF920F931F93CF93DF93CDB738
:1019A000DEB7A1970FB6F894DEBF0FBECDBF7C01A6
:1019B000FA01CB0119A2223008F42AE08E010F5D52
:1019C0001F4F822E912CB12CA12CBF01A501940197
:1019D0000E94FF10F901CA016A300CF5605DD80160
:1019E0006E938D01232B242B252B79F790E080E03B
:1019F000109721F0BD01C7010E948C0CA1960FB673
:101A0000F894DEBF0FBECDBFDF91CF911F910F9134
:101A1000FF90EF90BF90AF909F908F900895695C7A
:101A2000DECF2115310541F4DC01ED91FC910190EF
:101A3000F081E02D642F19940C94C50C9A01AB0130
:101A400070E060E00C94110D2F923F924F925F92E4
:101A50006F927F928F929F92AF92BF92CF92DF92BE
:101A6000EF92FF921F93CF93DF93EC016A017B010A
:101A7000722EAB019601CB01B6010E94651468EE8F
:101A800072E0811126C046015701E894B7F82FEFA4
:101A90003FEF4FE75FE7C501B4010E946514811174
:101AA0000CC02FEF3FEF4FE75FE7C501B4010E9485
:101AB000BB116CEE72E0181664F02FEF3FEF4FE7AA
:101AC0005FE4C701B6010E94A5131816B4F460EFD5
:101AD00072E0CE01DF91CF911F91FF90EF90DF90E8
:101AE000CF90BF90AF909F908F907F906F905F90BE
:101AF0004F903F902F900C948C0C2FEF3FEF4FE7BF
:101B00005FECC701B6010E94BB1187FDE0CF20E06A
:101B100030E0A901C701B6010E94BB11312C212C74
:101B200087FF09C06DE2CE010E94A30C1C01F7FAE9
:101B3000F094F7F8F09410E060E070E080E09FE34C
:101B4000711641F020E030E040E251E40E94C511FE
:101B50001F5FF6CFA70196010E944F112B013C0198
:101B60000E943E124B015C012AE0BC01A401CE019F
:101B70000E94C50C7C01E20CF31C1123B1F1C501DC
:101B8000B4010E946D129B01AC01C301B2010E941D
:101B90004E114B015C016EE2CE010E94A30CE80ED7
:101BA000F91E115010F120E030E040E251E4C5018F
:101BB000B4010E94AA132B013C010E943E124B016A
:101BC0004AE050E0CE010E941E0DE80EF91EB4015D
:101BD00090E080E00E946D129B01AC01C301B20154
:101BE0000E944E114B015C01DCCFC701DF91CF9108
:101BF0001F91FF90EF90DF90CF90BF90AF909F909C
:101C00008F907F906F905F904F903F902F900895AE
:101C10000C94240D0F931F93CF93DF93EC010E943C
:101C2000240D8C01CE010E94AA0C800F911FDF9120
:101C3000CF911F910F91089508950E94E00E0E9488
:101C40001C0E0E94E206C9EED9E00E94F50620971C
:101C5000E1F30E94E909F9CF1F920F920FB60F929C
:101C600011242F933F938F939F93AF93BF938091B2
:101C70003B0C90913C0CA0913D0CB0913E0C3091EE
:101C80003A0C23E0230F2D3758F50196A11DB11D05
:101C900020933A0C80933B0C90933C0CA0933D0C0A
:101CA000B0933E0C80913F0C9091400CA091410C60
:101CB000B091420C0196A11DB11D80933F0C9093F1
:101CC000400CA093410CB093420CBF91AF919F91F7
:101CD0008F913F912F910F900FBE0F901F901895ED
:101CE00026E8230F0296A11DB11DD2CF2FB7F8947D
:101CF00060913B0C70913C0C80913D0C90913E0C9E
:101D00002FBF08953FB7F89480913F0C9091400CFD
:101D1000A091410CB091420C26B5A89B05C02F3F65
:101D200019F00196A11DB11D3FBFBA2FA92F982F01
:101D30008827BC01CD01620F711D811D911D42E0FC
:101D4000660F771F881F991F4A95D1F708958F92C4
:101D50009F92AF92BF92CF92DF92EF92FF926B0170
:101D60007C010E94820E4B015C01C114D104E1048C
:101D7000F104E9F00E94EA100E94820E68197909C4
:101D80008A099B09683E73408105910570F321E043
:101D9000C21AD108E108F10888EE880E83E0981E87
:101DA000A11CB11CC114D104E104F10429F7FF9076
:101DB000EF90DF90CF90BF90AF909F908F9008955D
:101DC000789484B5826084BD84B5816084BD85B516
:101DD000826085BD85B5816085BDEEE6F0E08081DD
:101DE00081608083E1E8F0E01082808182608083FE
:101DF000808181608083E0E8F0E080818160808381
:101E0000E1EBF0E0808184608083E0EBF0E08081B2
:101E100081608083E1E9F0E080818260808380815D
:101E200081608083E0E9F0E0808181608083E1EA85
:101E3000F0E0808182608083808181608083E0EA3D
:101E4000F0E0808181608083E1E2F1E08081826066
:101E50008083808181608083E0E2F1E08081816025
:101E60008083EAE7F0E08081846080838081826003
:101E700080838081816080838081806880831092EC
:101E8000C10008951F93CF93DF93182FEB0161E0FA
:101E90000E948010209739F460E0812FDF91CF916C
:101EA0001F910C94BC10CF3FD10511F461E0F5CF28
:101EB000E12FF0E0E651FE4FE491E150E23108F00D
:101EC000B3C0F0E08827E859F04F8F4F0C942111F0
:101ED0007A0F820F870F910F9B0F1410A50FAD0F74
:101EE000B50FBF0FC90FD30FE20FEC0F1410F60F91
:101EF00000100A1084B5806884BDC7BDDF91CF9102
:101F00001F91089584B5806284BDC8BDF7CF8091CC
:101F10008000806880938000D0938900C0938800FF
:101F2000EDCF80918000806280938000D0938B0001
:101F3000C0938A00E3CF8091800088608093800006
:101F4000D0938D00C0938C00D9CF8091B000806871
:101F50008093B000C093B300D1CF8091B000806275
:101F60008093B000C093B400C9CF80919000806886
:101F700080939000D0939900C0939800BFCF809138
:101F80009000806280939000D0939B00C0939A0051
:101F9000B5CF80919000886080939000D0939D0091
:101FA000C0939C00ABCF8091A00080688093A0007C
:101FB0008091A0008F7B8093A000D093A900C09354
:101FC000A8009CCF8091A00080628093A000D09355
:101FD000AB00C093AA0092CF8091A000886080934C
:101FE000A000D093AD00C093AC0088CF80912001B9
:101FF000806880932001D0932901C09328017ECF6F
:1020000080912001806280932001D0932B01C093A6
:102010002A0174CF80912001886080932001D093A1
:102020002D01C0932C016ACFC038D1050CF03ECFF2
:1020300033CF8150823108F05AC0E82FF0E0882772
:10204000EB5DFF4E8F4F0C94211145104910371056
:102050003D10411077104C10521056105C1060105B
:1020600064106A106E107710721078107C108091D6
:1020700080008F77809380000895809180008F7D0D
:10208000F9CF80918000877FF5CF84B58F7784BDAD
:10209000089584B58F7DFBCF8091B0008F778093BA
:1020A000B00008958091B0008F7DF9CF80919000AD
:1020B0008F77809390000895809190008F7DF9CF65
:1020C00080919000877FF5CF8091A0008F778093DB
:1020D000A00008958091A0008F7DF9CF8091A0008D
:1020E000877FF5CF809120018F778093200108951D
:1020F000809120018F7DF9CF80912001877FF5CFDE
:10210000CF93DF9390E0FC01E05DFD4F24918A586E
:102110009D4FFC0184918823C9F090E0880F991F9E
:10212000FC01EA52FD4FA591B491FC01E454FD4F2E
:10213000C591D49161110DC09FB7F8948C912095F1
:1021400082238C938881282328839FBFDF91CF919E
:102150000895623051F49FB7F8943C91822F809596
:1021600083238C93E8812E2BEFCF8FB7F894EC91DB
:102170002E2B2C938FBFEACF1F93CF93DF93282F63
:1021800030E0F901E651FE4F8491F901E05DFD4F29
:10219000D491F901EA58FD4FC491CC23A9F0162F30
:1021A00081110E941910EC2FF0E0EE0FFF1FE45494
:1021B000FD4FA591B4918FB7F894EC91111108C01F
:1021C000D095DE23DC938FBFDF91CF911F910895CF
:1021D000DE2BF8CF089597FB072E16F4009407D056
:1021E00077FD09D00E94291107FC05D03EF4909597
:1021F00081959F4F0895709561957F4F0895A1E255
:102200001A2EAA1BBB1BFD010DC0AA1FBB1FEE1F70
:10221000FF1FA217B307E407F50720F0A21BB30BBB
:10222000E40BF50B661F771F881F991F1A9469F737
:1022300060957095809590959B01AC01BD01CF0193
:102240000895EE0FFF1F881F8BBF0790F691E02DBA
:102250001994AA1BBB1B51E107C0AA1FBB1FA617DD
:10226000B70710F0A61BB70B881F991F5A95A9F73F
:1022700080959095BC01CD0108959F939F770E9412
:10228000AA120F90002042F49058A2EA2AED3FE0F3
:1022900049E450E40E9466110C9457135058BB2730
:1022A000AA270E9466110C9457130E941E1338F03F
:1022B0000E94251320F039F49F3F19F426F40C9462
:1022C000F4120EF4E095E7FB0C94EE12E92F0E9455
:1022D0007C1358F3BA17620773078407950720F039
:1022E00079F4A6F50C949E130EF4E0950B2EBA2FFC
:1022F000A02D0B01B90190010C01CA01A00111240C
:10230000FF27591B99F0593F50F4503E68F11A16B7
:10231000F040A22F232F342F4427585FF3CF469548
:1023200037952795A795F0405395C9F77EF41F166A
:10233000BA0B620B730B840BBAF09150A1F0FF0F34
:10234000BB1F661F771F881FC2F70EC0BA0F621F20
:10235000731F841F48F4879577956795B795F79510
:102360009E3F08F0B0CF9395880F08F09927EE0FA5
:102370009795879508950E94CA1208F481E0089500
:102380000E942E13E3950C9468130E94D9110C94AB
:1023900057130E94251358F00E941E1340F029F491
:1023A0005F3F29F00C94EE1251110C949F130C9482
:1023B000F4120E947C1368F39923B1F3552391F32F
:1023C000951B550BBB27AA2762177307840738F0A4
:1023D0009F5F5F4F220F331F441FAA1FA9F335D001
:1023E0000E2E3AF0E0E832D091505040E695001CB5
:1023F000CAF72BD0FE2F29D0660F771F881FBB1F6F
:10240000261737074807AB07B0E809F0BB0B802D4C
:10241000BF01FF2793585F4F3AF09E3F510578F078
:102420000C94EE120C949F135F3FE4F3983ED4F3A8
:10243000869577956795B795F7959F5FC9F7880F4C
:10244000911D9695879597F90895E1E0660F771F9E
:10245000881FBB1F621773078407BA0720F0621B2F
:10246000730B840BBA0BEE1F88F7E09508950E945A
:102470003E126894B1110C949F1308950E94841326
:1024800088F09F5798F0B92F9927B751B0F0E1F035
:10249000660F771F881F991F1AF0BA95C9F714C0E5
:1024A000B13091F00E949E13B1E008950C949E13F8
:1024B000672F782F8827B85F39F0B93FCCF386951E
:1024C00077956795B395D9F73EF49095809570957B
:1024D00061957F4F8F4F9F4F0895E89409C097FBF8
:1024E0003EF490958095709561957F4F8F4F9F4FEB
:1024F0009923A9F0F92F96E9BB279395F69587952F
:1025000077956795B795F111F8CFFAF4BB0F11F4F1
:1025100060FF1BC06F5F7F4F8F4F9F4F16C0882398
:1025200011F096E911C0772321F09EE8872F762FCE
:1025300005C0662371F096E8862F70E060E02AF00F
:102540009A95660F771F881FDAF7880F96958795FB
:1025500097F90895DF93CF931F930F938B01EC01AD
:10256000E4EEF0E00E94F7120E9457139801AE01CA
:102570008B01EC0160E070E080E89FE30E944E1167
:102580000E9425149801AE010F911F91CF91DF9108
:102590000C94BD13990F0008550FAA0BE0E8FEEF4D
:1025A00016161706E807F907C0F012161306E40717
:1025B000F50798F0621B730B840B950B39F40A2610
:1025C00061F0232B242B252B21F408950A2609F4EE
:1025D000A140A6958FEF811D811D089597F99F67F2
:1025E00080E870E060E008959FEF80EC0895DF934D
:1025F000CF931F930F93FF92EF92DF927B018C0199
:10260000689406C0DA2EEF010E94BD13FE01E89423
:10261000A5912591359145915591A6F3EF010E9421
:102620006611FE019701A801DA9469F7DF90EF9037
:10263000FF900F911F91CF91DF91089500240A948C
:102640001616170618060906089500240A9412168D
:1026500013061406050608950C94F4120E948413C0
:10266000D8F3E894E0E0BB279F57F0F02AED3FE075
:1026700049EC06C0EE0FBB0F661F771F881F28F0BE
:10268000B23A62077307840728F0B25A620B730BE1
:10269000840BE3959A9572F7803830F49A95BB0FC6
:1026A000661F771F881FD2F790480C946C14092E70
:1026B0000394000C11F4882352F0BB0F40F4BF2B9D
:1026C00011F460FF04C06F5F7F4F8F4F9F4F0895DD
:1026D000EF93E0FF07C0A2EA2AED3FE049EC5FEB91
:1026E0000E9466110E9457130F90039401FC9058AA
:1026F000ECE0F1E00C947F1457FD9058440F551F07
:1027000059F05F3F71F04795880F97FB991F61F073
:102710009F3F79F087950895121613061406551FEA
:10272000F2CF4695F1DF08C0161617061806991F56
:10273000F1CF86957105610508940895E894BB274B
:1027400066277727CB0197F908950E94CA1208F4EB
:102750008FEF08950E94BD130C9457130E941E130F
:1027600038F00E94251320F0952311F00C94EE12FE
:102770000C94F41211240C949F130E947C1370F398
:10278000959FC1F3950F50E0551F629FF001729F16
:10279000BB27F00DB11D639FAA27F00DB11DAA1F25
:1027A000649F6627B00DA11D661F829F2227B00D72
:1027B000A11D621F739FB00DA11D621F839FA00DFD
:1027C000611D221F749F3327A00D611D231F849F4D
:1027D000600D211D822F762F6A2F11249F575040A4
:1027E0009AF0F1F088234AF0EE0FFF1FBB1F661F1F
:1027F000771F881F91505040A9F79E3F510580F0E8
:102800000C94EE120C949F135F3FE4F3983ED4F3C4
:10281000869577956795B795F795E7959F5FC1F78B
:10282000FE2B880F911D9695879597F908959F9394
:102830000E942E130F9007FCEE5F0C94681319F49E
:1028400016F40C94F4120C946A140E948413B8F3D6
:102850009923C9F3B6F39F57550B87FF0E9478144D
:102860000024A0E640EA900180585695979528F4F8
:10287000805C660F771F881F20F0261737074807F0
:1028800030F4621B730B840B202931294A2BA69547
:1028900017940794202531254A2758F7660F771F8C
:1028A000881F20F026173707480730F4620B730B98
:1028B000840B200D311D411DA09581F7B901842F96
:1028C0009158880F9695879508950E94CA12880B93
:1028D000990B08959F3F31F0915020F4879577959B
:1028E0006795B795880F911D9695879597F90895E7
:1028F00091505040660F771F881FD2F708959F931D
:102900008F937F936F93FF93EF939B01AC010E9492
:10291000AA13EF91FF910E94F7122F913F914F91CF
:102920005F910C94AA1311E0CBE7D1E000E006C060
:10293000802FFE010E9421112196011DCC37D10765
:0A29400080E00807A9F7F894FFCF24
:10294A0001CEFF1400280000006143000007432362
:10295A003D3D3D3D3D3D3D3D3D3D3D3D3D2044727E
:10296A0069766520436F6E74726F6C20506F696E62
:10297A007473203D3D3D3D3D3D3D3D3D3D3D3D006A
:10298A005363686E69747470756E6B742020732E4D
:10299A00783A20002020732E793A20004D69747409
:1029AA006520547565722020642E783A2000202014
:1029BA00642E793A20005261646975733A200042A4
:1029CA00657472616720643A200057696E6B656CA2
:1029DA00205068693A2000446F6F7220666F756EE6
:1029EA00642100233D3D3D3D3D3D3D3D3D3D20446F
:1029FA006F6F7220506F696E7473203D3D3D3D3D8F
:102A0A003D3D3D3D3D3D002020783A200020207983
:102A1A003A200000000000600A5F0CDA09400AACA4
:102A2A0009C609B8090D0A006E616E00696E660072
:042A3A006F7666004D
:00000001FF
