:100000000C9468010C9499010C9499010C94990139
:100010000C9499010C9499010C9499010C949901F8
:100020000C9499010C9499010C9499010C949901E8
:100030000C9499010C9499010C9499010C949901D8
:100040000C9499010C9499010C9499010C949901C8
:100050000C9499010C9499010C9499010C94940DB1
:100060000C9499010C94990A0C94CF0A0C94990160
:100070000C9499010C9499010C9499010C94990198
:100080000C9499010C9499010C9499010C94990188
:100090000C9499010C9499010C9499010C94990178
:1000A0000C9499010C9499010C9499010C94990168
:1000B0000C9499010C9499010C9499010C94990158
:1000C0000C9499010C9499010C9499010C94990148
:1000D0000C9499010C9499010C94300B0C94660BC0
:1000E0000C94990105A84CCDB2D44EB93836A9026A
:1000F0000C50B9918688083CA6AAAA2ABE00000026
:10010000803F0C941D0F0C94EA0E0C94DF0F0C949E
:10011000310F0C940D0F0C94900B0C94680F0C94F1
:10012000E00F0C94AD0F0C94BE0F0C94A8090C9426
:10013000A50F0C94EF0E0C944A0F0C949F0F0C9487
:10014000D20F0C94E40F0C94BA0F0C94C70B0C94C0
:10015000D60F0C94270F0C945E0F0C94030F0C9485
:10016000F90A0C94C80F0C9414090C94C8090C9447
:100170003B0F0C94030B0C947C0F0C9463060C94B3
:100180002E090C94F90E0C94150F0C94E20E0C949D
:100190009A0B0C94B10F0C94CC0F0C94720F0C941E
:1001A00042090C94540F0C94DA0F0C94A90F0C9480
:1001B000C40F0C945F060C9451090C94B40F0C946A
:1001C000200900000A0B02090C0D0E0807030401A8
:1001D000000000000000000000000000000000001F
:1001E00000000000000000000000000000001211EC
:1001F00010000000000000000000000000000000EF
:10020000000000000000000001021020200808107B
:100210002040102040800201020108040201010276
:10022000040810204080804020100804020180044F
:1002300002018040201008040201080402010102AA
:1002400004081020408001020408102040800505A9
:100250000505070508080808020202020A0A08083C
:10026000040404040101010101010101030303036A
:1002700003030303040707070C0C0C0C0C0C0C0CF9
:100280000202020206060606060606060B0B0B0B0A
:100290000B0B0B0B00002200250028002B002E006A
:1002A0003100340002010000050108010B010000CB
:1002B0002100240027002A002D0030003300010116
:1002C0000000040107010A015F06030B9A0B630695
:1002D00011241FBECFEFD1E2DEBFCDBF00E00CBFC7
:1002E00012E0A0E0B2E0E8EBF7E200E00BBF02C0F2
:1002F00007900D92AC3DB107D9F72CE0ACEDB2E020
:1003000001C01D92AB32B207E1F711E0C7E6D1E0C0
:1003100000E006C021970109802FFE010E9489108C
:10032000C436D10780E00807A9F70E94850D0C9418
:10033000CA130C9400004F925F926F927F928F923B
:100340009F92AF92BF92CF92DF92EF92FF92CF93A4
:10035000DF93CDB7DEB760970FB6F894DEBF0FBE60
:10036000CDBFC090EA02D090EB02E090EC02F0909A
:10037000ED028090F4029090F502A090F602B09009
:10038000F7028091F8029091F902A091FA02B091DF
:10039000FB0289879A87AB87BC87609105027091C1
:1003A0000602072E000C880B990B0E94C6112B0128
:1003B0003C01A5019401C701B6010E94A61020E0EE
:1003C00030E040E05FE30E94BA12A30192010E9474
:1003D000A51069837A838B839C836091030270915B
:1003E0000402072E000C880B990B0E94C6116D8722
:1003F0007E878F87988B29853A854B855C85C701D9
:10040000B6010E94A61020E030E040E05FE30E94C9
:10041000BA122D853E854F8558890E94A5106D839F
:100420007E838F839887A50194016091E602709185
:10043000E7028091E8029091E9020E94A510A301D1
:1004400092010E94A5104B015C0129853A854B85DC
:100450005C85C701B6010E94A5102D853E854F859C
:1004600058890E94A5106B017C0169817A818B817A
:100470009C8190582D813E814F8158850E941C118E
:100480002B013C01AC019B0169817A818B819C81AC
:100490000E94BA122D813E814F8158850E94A5107D
:1004A00069877A878B879C87A3019201C501B40174
:1004B0000E94BA129B01AC01C701B6010E94A510AF
:1004C0009B01AC010E94A6109B01AC0169857A8555
:1004D0008B859C850E941C112B013C01AC019B016A
:1004E000C501B4010E94BA1229813A814B815C8115
:1004F0000E94A6104B015C01A3019201C701B60145
:100500000E94BA122D813E814F8158850E94A6100B
:100510006B017C01A5019401C501B4010E94BA12CE
:100520002B013C01A7019601C701B6010E94BA1236
:100530009B01AC01C301B2010E94A6100E943513B9
:100540002B013C016FE072E088EE9AE00E94160CED
:1005500060E472E088EE9AE00E94030C22E030E052
:1005600049815A816B817C8188EE9AE00E94700DEE
:1005700062E572E088EE9AE00E94030C22E030E02F
:100580004D815E816F81788588EE9AE00E94720DC0
:100590006AE572E088EE9AE00E94030C22E030E007
:1005A000B501A40188EE9AE00E94700D6EE672E03B
:1005B00088EE9AE00E94030C22E030E0B701A60129
:1005C00088EE9AE00E94720D66E772E088EE9AE08B
:1005D0000E94030C22E030E0B301A20188EE9AE011
:1005E0000E94720D60E177E280E090E060960FB6C5
:1005F000F894DEBF0FBECDBFDF91CF91FF90EF909B
:10060000DF90CF90BF90AF909F908F907F906F9032
:100610005F904F900C940F0E2F923F924F925F92EB
:100620006F927F928F929F92AF92BF92CF92DF9202
:10063000EF92FF920F931F93CF93DF93CDB7DEB767
:1006400061970FB6F894DEBF0FBECDBF8C0120EFCF
:1006500035E03B832A833EE0F32EEA81FB8160890B
:100660007189072E000C880B990B0E94C6119B0103
:10067000AC010E94A6104B015C01EA81FB81628102
:100680007381072E000C880B990B0E94C6119B01E9
:10069000AC01C501B4010E94A5104B015C01EA81C7
:1006A000FB81668D778D072E000C880B990B0E94BD
:1006B000C6119B01AC01C501B4010E94A5100E94A6
:1006C0008E1160177107E4F4EA81FB8182899389B6
:1006D0000B97B4F08091DE029091DF02F89ED0017A
:1006E000F99EB00D1124AC5CBC4F3E962F2D0190AD
:1006F0000D922A95E1F701969093DF028093DE0236
:100700004A815B81425F5F4F5B834A834E5C5A4004
:1007100009F0A3CF04E313E0312C212C198280913E
:10072000DE029091DF02281639060CF45AC0C09000
:10073000DC02D090DD0200EE12E01B830A83F12C74
:10074000E12CEC14FD040CF05EC1EA81FB816281B6
:100750007381072E000C880B990B0E94C6114B0168
:100760005C01EA81FB8160817181072E000C880B9E
:10077000990B0E94C6112BED3FE049E450E40E9422
:10078000BA1220E030E044E353E40E941C112B0134
:100790003C010E9417119B01AC01C501B4010E94EC
:1007A000BA12EA81FB816683778380879187C301D0
:1007B000B2010E9427139B01AC01C501B4010E9444
:1007C000BA12EA81FB816287738784879587FFEF7E
:1007D000EF1AFF0A2A813B81225F3F4F3B832A8326
:1007E000B0CF3FEF231A330A198B088B3B822A8242
:1007F0008091DE029091DF024A815B8148175907A0
:100800001CF0025F1F4F8BCFF8010190F081E02DAB
:10081000FD83EC83E889F9890684F785E02DFF8361
:10082000EE836C817D816E1B7F0B072E000C880B85
:10083000990B0E94C6112BED3FE049E450E40E9461
:10084000BA1220E030E044E353E40E941C110E94FD
:1008500017116C877D878E879F87F8010280F3814F
:10086000E02DF987E887CF016AE070E00E9453101D
:10087000072E000C880B990B0E94C6116B017C019E
:10088000E889F9890088F189E02DFB87EA87CF01A3
:100890006AE070E00E945310072E000C880B990B41
:1008A0000E94C6114B015C01AC019B010E94BA126F
:1008B0002B013C01A7019601C701B6010E94BA12A3
:1008C0009B01AC01C301B2010E94A6102B013C01A7
:1008D000A7019601C701B6010E94A610A5019401C7
:1008E0000E94BA122C853D854E855F850E94BA1202
:1008F0009B01AC01C301B2010E94A5100E943513F7
:1009000020E030E040E251E40E94BA126B017C0129
:1009100020E030E040E752E40E94B51218160CF0D7
:1009200066C020E030E042ED52E4C701B6010E940B
:10093000121187FF5CC0888599852A853B85820FC7
:10094000931F97FD0196959587958C599F4FE0EFE2
:10095000F5E031E03983208131814C815D8142179E
:1009600053075CF44E815F812417350734F42281EC
:100970003381281739070CF419823E965AE0EC3D72
:10098000F50749F78981882391F18091DC029091E4
:10099000DD02EEE0E89FD001E99FB00D1124A052E6
:1009A000BD4FF8012EE001900D922A95E1F79C01D0
:1009B0002F5F3F4FFEE0F29FD001F39FB00D112457
:1009C000A052BD4FE889F9893E962EE001900D9224
:1009D0002A95E1F702969093DD028093DC026FE79F
:1009E00072E088EE9AE00E94160C21E029834A8189
:1009F0005B814F5F5F4F5B834A83888999890E963D
:100A0000998B888BF5CE6BE872E088EE9AE00E94B5
:100A1000160C1B821A828091DC029091DD024A81C1
:100A20005B81481759075CF56FEA72E088EE9AE03F
:100A30000E94030CF801468157816085718522E090
:100A400030E088EE9AE00E94700D65EB72E088EE6F
:100A50009AE00E94030CF8014285538564857585F0
:100A600022E030E088EE9AE00E94720D2A813B81FC
:100A70002F5F3F4F3B832A83025F1F4FCCCF3981CB
:100A80003323D1F061960FB6F894DEBF0FBECDBF11
:100A9000DF91CF911F910F91FF90EF90DF90CF905A
:100AA000BF90AF909F908F907F906F905F904F908E
:100AB0003F902F900C949B0161960FB6F894DEBF87
:100AC0000FBECDBFDF91CF911F910F91FF90EF909F
:100AD000DF90CF90BF90AF909F908F907F906F905E
:100AE0005F904F903F902F9008954F925F926F923A
:100AF0007F928F929F92AF92BF92FF920F931F931C
:100B0000CF93DF93CDB7DEB764970FB6F894DEBF0F
:100B10000FBECDBF0E94DE0D683B7B408105910575
:100B200008F0A6C044EF51E060E070E08CED9AE080
:100B30000E94A50697FD75C08090DE0A9090DF0A9E
:100B4000A090E00AB090E10A4090E20A5090E30AD7
:100B50006090E40A7090E50A20E030E0A901C50148
:100B6000B4010E94121118163CF0812C80EC982ED2
:100B70008AEDA82E85E4B82E209107023091080254
:100B80004091090250910A02C301B2010E94121160
:100B900018169CF120910B0230910C0240910D022D
:100BA00050910E02C301B2010E94B51287FD25C00B
:100BB000F090E60AC301B2010E948E119B012758F2
:100BC00031094EE0429F8001439F100D11240051D6
:100BD0001A4FF8017183608320E030E040E251E475
:100BE000C501B4010E941C110E948E11F80173838B
:100BF00062838F2D90E09583848364960FB6F8947A
:100C0000DEBF0FBECDBFDF91CF911F910F91FF903F
:100C1000BF90AF909F908F907F906F905F904F901C
:100C2000089570E060E083E00E94AA0E24E630E0C0
:100C300040E050E0BE016F5F7F4F8CED9AE00E9474
:100C40002C0897FDDACF28EE33E040E050E060E07A
:100C50008CED9AE00E94BB086FEF70E083E00E9489
:100C6000AA0E68EE73E080E090E00E940F0EC5CF00
:100C700080910002882309F2809101029091020282
:100C80000E940C031092000270E060E083E00E947A
:100C9000AA0EB3CF65E87BE08CED9AE00E94850652
:100CA00026E040E052EC61E070E088EE9AE00E94BD
:100CB000150A61E083E00C94E80F0C9475058CED47
:100CC0009AE00C9467068CED9AE00C948306FC0184
:100CD0001182108212821382148215821682178268
:100CE00010861186128613860895CF93DF93EC0148
:100CF00088819981009721F00E94770A19821882D1
:100D0000DF91CF9108950C9475060F931F93CF93A5
:100D1000DF93EC018B0188819981892B19F0CE0139
:100D20000E94750619830883C8010E94770A26E08D
:100D300040E052EC61E070E0888199810E94150AE0
:100D4000DF91CF911F910F9108954F925F926F9213
:100D50007F928F929F92AF92BF92EF92FF921F93DA
:100D6000CF93DF9300D01F921F92CDB7DEB77C01E7
:100D70002A013B010E94DE0D4B015C0110E00E9444
:100D8000DE0D681979098A099B0946165706680617
:100D9000790608F472C0D7018D919C91DC01ED9128
:100DA000FC910284F385E02D199597FDE8CF11237E
:100DB00009F457C0113009F45DC091E0910FE1E0F2
:100DC000F0E0EC0FFD1FE10FF11D8083953009F07D
:100DD00046C06C817D8190E080E00E94C41120E0DB
:100DE00030E040E85EE30E94BA12D70112966D939C
:100DF0007D938D939C9315976A817B8176956795FA
:100E000090E080E00E94C41120E030E040E85CE324
:100E10000E94BA12F7016683778380879187898160
:100E2000282F30E0359527953595279522878170B5
:100E3000838760E070E0CB010F900F900F900F90D0
:100E40000F90DF91CF911F91FF90EF90BF90AF90E7
:100E50009F908F907F906F905F904F900895192F83
:100E60008ECF9C0135952795FC01E2279F0120FD3F
:100E7000A4CF85CF80FDA1CF81CF62E070E880E074
:100E800090E8DACFCF92DF92EF92FF920F931F9309
:100E9000CF93DF9300D000D01F92CDB7DEB77C0197
:100EA000162F5F834E8369011D82232B21F0CA0117
:100EB000892B09F0106805EA09831A83D7018D91FF
:100EC0009C91DC01ED91FC910280F381E02D42E0E8
:100ED00050E0BE016F5F7F4F199517FF40C06D81D5
:100EE00060276C2561276D83EE81FF8196012E0FAF
:100EF0003F1FE217F30729F091918D8189278D8398
:100F0000F8CFCC82F70180819181DC01ED91FC91D9
:100F10000280F381E02D41E050E0BE016C5F7F4F25
:100F20001995F701808191814C8150E0DC01ED91B0
:100F3000FC910280F381E02DBE016A5F7F4F19951D
:100F4000F70180819181DC01ED91FC910280F381B8
:100F5000E02D41E050E0BE016B5F7F4F199560E0EE
:100F600070E0CB0127960FB6F894DEBF0FBECDBF61
:100F7000DF91CF911F910F91FF90EF90DF90CF9075
:100F80000895FC0120813181232B39F030E020E0ED
:100F900050E040E065E20C94420761E070E880E0D8
:100FA00090E808957F928F929F92AF92BF92CF92D6
:100FB000DF92EF92FF920F931F93CF93DF938C01F9
:100FC000EB0149015A010E94DE0D6B017C01712C7D
:100FD0000E94DE0D6C197D098E099F098616970601
:100FE000A806B906A0F1D8018D919C91DC01ED9184
:100FF000FC910284F385E02D199597FDE9CF7720C8
:10100000F1F0B1E07B16F9F091E0970DFE01E70DEC
:10101000F11D8083973089F460E070E0CB01DF91AF
:10102000CF911F910F91FF90EF90DF90CF90BF90E5
:10103000AF909F908F907F900895792EC9CF853A79
:10104000910511F3C5CF8A359105F1F2C0CF62E069
:1010500070E880E090E8E3CF4F925F926F927F92CA
:101060008F929F92AF92BF92CF92DF92EF92FF92B8
:101070000F931F93CF93DF9300D000D01F92CDB773
:10108000DEB77C016B0149015A010E94DE0D2B0184
:101090003C01D7018D919C91892B09F45EC030E011
:1010A00020E050E040E060E5C7010E94420797FD64
:1010B0003DC0A5019401BE016F5F7F4FC7010E9433
:1010C000D20797FD33C08F81843009F04BC08B81EC
:1010D0009C81AD812E81B22FBF734497A105B105CC
:1010E00008F440C08601B4E1CB0ED11C0E94DE0D95
:1010F000641975098609970986169706A806B90620
:10110000A8F1F70180819181DC01ED91FC910284CD
:10111000F385E02D199597FDE9CFF80181938F01B3
:10112000CE16DF0619F760E070E0CB0127960FB608
:10113000F894DEBF0FBECDBFDF91CF911F910F910D
:10114000FF90EF90DF90CF90BF90AF909F908F90E7
:101150007F906F905F904F90089561E070E880E01D
:1011600090E8E4CF60E070E8CB01E0CF62E070E8A7
:1011700080E090E8DBCFBF92CF92DF92EF92FF92B8
:101180000F931F93CF93DF9300D000D01F92CDB762
:10119000DEB7DC01ED91FC91EF2B09F440C0690151
:1011A0007A01B62E8C010E94C10760E2B11061E2A3
:1011B00030E020E050E040E0C8010E94420797FD87
:1011C0001AC0A7019601BE016F5F7F4FC8010E9440
:1011D000D20797FD10C08F818138E9F48B819C8103
:1011E000AD812E81B22FBF730597A105B10598F08F
:1011F00060E070E0CB0127960FB6F894DEBF0FBE1B
:10120000CDBFDF91CF911F910F91FF90EF90DF90B5
:10121000CF90BF90089560E070E8CB01ECCF61E023
:1012200070E880E090E8E7CFFC01918D228D892F56
:1012300090E0805C9F4F821B91098F7399270895DE
:10124000FC01918D828D981731F0828DE80FF11D90
:10125000858D90E008958FEF9FEF0895FC01918DAB
:10126000828D981761F0A28DAE0FBF2FB11D5D96D4
:101270008C91928D9F5F9F73928F90E008958FEF76
:101280009FEF0895FC01538D448D252F30E0842F6E
:1012900090E0821B930B541710F0CF96089501979E
:1012A000089589EF9AE0892B49F080E090E0892B3E
:1012B00029F00E94F90A81110E94000080E090E06C
:1012C000892B49F080E090E0892B29F00E940000F2
:1012D00081110E94000080E090E0892B49F080E0BD
:1012E00090E0892B29F00E94000081110E940000EB
:1012F00080E99BE0892B49F080E090E0892B29F080
:101300000E94900B81110C9400000895FC01A48DA3
:10131000A80FB92FB11DA35ABF4F2C91848D90E017
:1013200001968F739927848FA689B7892C93A089FA
:10133000B1898C91837080648C93938D848D981384
:1013400006C00288F389E02D80818F7D8083089517
:10135000CF93DF93EC01888D8823B9F0AA89BB89EC
:10136000E889F9898C9185FD03C0808186FD0DC0D7
:101370000FB607FCF7CF8C9185FFF2CF808185FFF8
:10138000EDCFCE010E948609E9CFDF91CF9108957C
:10139000EF92FF920F931F93CF93DF93EC0181E0C5
:1013A000888F9B8D8C8D98131AC0E889F98980816C
:1013B00085FF15C09FB7F894EE89FF896083E8899F
:1013C000F98980818370806480839FBF81E090E091
:1013D000DF91CF911F910F91FF90EF900895F62E1E
:1013E0000B8D10E00F5F1F4F0F731127E02E8C8DB8
:1013F0008E110CC00FB607FCFACFE889F9898081FD
:1014000085FFF5CFCE010E948609F1CFEB8DEC0F61
:10141000FD2FF11DE35AFF4FF0829FB7F8940B8F19
:10142000EA89FB8980818062CFCFCF92DF92EF92F1
:10143000FF921F93CF93DF93EC016A017B01122F80
:10144000E889F98982E08083C11481EED806E1043D
:10145000F104A1F060E079E08DE390E0A70196014E
:101460000E9467102150310941095109569547954D
:1014700037952795211580E1380798F0E889F98993
:10148000108260E874E88EE190E0A70196010E9466
:1014900067102150310941095109569547953795F3
:1014A0002795EC85FD853083EE85FF852083188E9A
:1014B000EC89FD891083EA89FB89808180618083C2
:1014C000EA89FB89808188608083EA89FB89808141
:1014D00080688083EA89FB8980818F7D8083DF91AA
:1014E000CF911F91FF90EF90DF90CF900895CF9311
:1014F000DF93EC01E881F9810680F781E02D1995F1
:10150000EA89FB8980818F7E8083EA89FB898081DB
:10151000877F8083EA89FB8980818F778083EA894E
:10152000FB8980818F7D80838A8D898FDF91CF9128
:1015300008951F920F920FB60F9211240BB60F92BF
:101540002F938F939F93EF93FF93E091F80AF0917D
:10155000F90A8081E091FE0AF091FF0A82FD1DC028
:1015600090818091010B8F5F8F732091020B821706
:1015700041F0E091010BF0E0E851F54F958F809339
:10158000010BFF91EF919F918F912F910F900BBEC7
:101590000F900FBE0F901F9018958081F2CF1F9271
:1015A0000F920FB60F9211240BB60F922F933F9309
:1015B0004F935F936F937F938F939F93AF93BF935B
:1015C000EF93FF9388EE9AE00E948609FF91EF91D6
:1015D000BF91AF919F918F917F916F915F914F914B
:1015E0003F912F910F900BBE0F900FBE0F901F9049
:1015F000189588EE9AE00E94140921E0892B09F4DD
:1016000020E0822F0895E8EEFAE01382128288EE3D
:1016100093E0A0E0B0E084839583A683B7838FEB4B
:1016200092E09183808385EC90E09587848784ECB9
:1016300090E09787868780EC90E0918B808B81EC9F
:1016400090E0938B828B82EC90E0958B848B86EC80
:1016500090E0978B868B118E128E138E148E0895C8
:101660001F920F920FB60F9211240BB60F922F9369
:101670008F939F93EF93FF93E091950BF091960BCF
:101680008081E0919B0BF0919C0B82FD1DC09081AD
:1016900080919E0B8F5F8F7320919F0B821741F07B
:1016A000E0919E0BF0E0EB57F44F958F80939E0BEB
:1016B000FF91EF919F918F912F910F900BBE0F9003
:1016C0000FBE0F901F9018958081F2CF1F920F923E
:1016D0000FB60F9211240BB60F922F933F934F9397
:1016E0005F936F937F938F939F93AF93BF93EF938A
:1016F000FF9385E89BE00E948609FF91EF91BF91DF
:10170000AF919F918F917F916F915F914F913F9199
:101710002F910F900BBE0F900FBE0F901F9018953A
:1017200085E89BE00E94140921E0892B09F420E060
:10173000822F0895E5E8FBE01382128288EE93E0A1
:10174000A0E0B0E084839583A683B7838FEB92E01B
:101750009183808385E391E09587848784E391E09A
:101760009787868780E391E0918B808B81E391E07E
:10177000938B828B82E391E0958B848B86E391E05F
:10178000978B868B118E128E138E148E0895AF92C6
:10179000BF92CF92DF92EF92FF920F931F93CF935E
:1017A000DF936C017B018B01040F151FEB015E01C0
:1017B000AE18BF08C017D10759F06991D601ED9155
:1017C000FC910190F081E02DC6011995892B79F7E4
:1017D000C501DF91CF911F910F91FF90EF90DF90A6
:1017E000CF90BF90AF900895FB0101900020E9F7E2
:1017F0003197AF01461B570BDC01ED91FC91028044
:10180000F381E02D19946115710511F00C94F40B1E
:1018100090E080E00895DC01ED91FC910190F08171
:10182000E02D19946DEC72E00C94F40B0F931F9360
:10183000CF93DF938C01D0E0C0E06115710519F002
:101840000E94F40BEC01C8010E94120C8C0F9D1F2A
:10185000DF91CF911F910F9108958F929F92AF9238
:10186000BF92EF92FF920F931F93CF93DF93CDB769
:10187000DEB7A1970FB6F894DEBF0FBECDBF7C01D7
:10188000FA01CB0119A2223008F42AE08E010F5D83
:101890001F4F822E912CB12CA12CBF01A5019401C8
:1018A0000E946710F901CA016A300CF5605DD80129
:1018B0006E938D01232B242B252B79F790E080E06C
:1018C000109721F0BD01C7010E94F40BA1960FB63D
:1018D000F894DEBF0FBECDBFDF91CF911F910F9166
:1018E000FF90EF90BF90AF909F908F900895695CAC
:1018F000DECF2115310541F4DC01ED91FC91019021
:10190000F081E02D642F19940C942D0C9A01AB01F9
:1019100070E060E00C94790C2F923F924F925F92AE
:101920006F927F928F929F92AF92BF92CF92DF92EF
:10193000EF92FF921F93CF93DF93EC016A017B013B
:10194000722EAB019601CB01B6010E94751360EDBA
:1019500072E0811126C046015701E894B7F82FEFD5
:101960003FEF4FE75FE7C501B4010E947513811196
:101970000CC02FEF3FEF4FE75FE7C501B4010E94B6
:10198000121164ED72E0181664F02FEF3FEF4FE78D
:101990005FE4C701B6010E94B5121816B4F468EDF1
:1019A00072E0CE01DF91CF911F91FF90EF90DF9019
:1019B000CF90BF90AF909F908F907F906F905F90EF
:1019C0004F903F902F900C94F40B2FEF3FEF4FE789
:1019D0005FECC701B6010E94121187FDE0CF20E045
:1019E00030E0A901C701B6010E941211312C212C4F
:1019F00087FF09C06DE2CE010E940B0C1C01F7FAB3
:101A0000F094F7F8F09410E060E070E080E09FE37D
:101A1000711641F020E030E040E251E40E941C11D8
:101A20001F5FF6CFA70196010E94A6102B013C0173
:101A30000E9495114B015C012AE0BC01A401CE017A
:101A40000E942D0C7C01E20CF31C1123B1F1C501A5
:101A5000B4010E94C4119B01AC01C301B2010E94F8
:101A6000A5104B015C016EE2CE010E940B0CE80E4A
:101A7000F91E115010F120E030E040E251E4C501C0
:101A8000B4010E94BA122B013C010E9495114B0136
:101A90004AE050E0CE010E94860CE80EF91EB40127
:101AA00090E080E00E94C4119B01AC01C301B2012F
:101AB0000E94A5104B015C01DCCFC701DF91CF91E3
:101AC0001F91FF90EF90DF90CF90BF90AF909F90CD
:101AD0008F907F906F905F904F903F902F900895E0
:101AE0000C948C0C0F931F93CF93DF93EC010E9407
:101AF0008C0C8C01CE010E94120C800F911FDF9183
:101B0000CF911F910F91089508950E94480E0E9451
:101B1000840D0E944A06C1E5D9E00E945D06209727
:101B2000E1F30E945109F9CF1F920F920FB60F9265
:101B300011242F933F938F939F93AF93BF938091E3
:101B4000230C9091240CA091250CB091260C30917F
:101B5000220C23E0230F2D3758F50196A11DB11D4E
:101B60002093220C8093230C9093240CA093250C9B
:101B7000B093260C8091270C9091280CA091290CF1
:101B8000B0912A0C0196A11DB11D8093270C909352
:101B9000280CA093290CB0932A0CBF91AF919F9170
:101BA0008F913F912F910F900FBE0F901F9018951E
:101BB00026E8230F0296A11DB11DD2CF2FB7F894AE
:101BC0006091230C7091240C8091250C9091260C2F
:101BD0002FBF08953FB7F8948091270C9091280C5F
:101BE000A091290CB0912A0C26B5A89B05C02F3FC7
:101BF00019F00196A11DB11D3FBFBA2FA92F982F33
:101C00008827BC01CD01620F711D811D911D42E02D
:101C1000660F771F881F991F4A95D1F708958F92F5
:101C20009F92AF92BF92CF92DF92EF92FF926B01A1
:101C30007C010E94EA0D4B015C01C114D104E10456
:101C4000F104E9F00E9452100E94EA0D6819790926
:101C50008A099B09683E73408105910570F321E074
:101C6000C21AD108E108F10888EE880E83E0981EB8
:101C7000A11CB11CC114D104E104F10429F7FF90A7
:101C8000EF90DF90CF90BF90AF909F908F9008958E
:101C9000789484B5826084BD84B5816084BD85B547
:101CA000826085BD85B5816085BDEEE6F0E080810E
:101CB00081608083E1E8F0E010828081826080832F
:101CC000808181608083E0E8F0E0808181608083B2
:101CD000E1EBF0E0808184608083E0EBF0E08081E4
:101CE00081608083E1E9F0E080818260808380818F
:101CF00081608083E0E9F0E0808181608083E1EAB7
:101D0000F0E0808182608083808181608083E0EA6E
:101D1000F0E0808181608083E1E2F1E08081826097
:101D20008083808181608083E0E2F1E08081816056
:101D30008083EAE7F0E08081846080838081826034
:101D4000808380818160808380818068808310921D
:101D5000C10008951F93CF93DF93182FEB0161E02B
:101D60000E94E80F209739F460E0812FDF91CF9136
:101D70001F910C942410CF3FD10511F461E0F5CFF1
:101D8000E12FF0E0EE53FE4FE491E150E23108F034
:101D9000B3C0F0E08827E053F14F8F4F0C948910C7
:101DA000E20EEA0EEF0EF90E030F7C0F0D0F150F6A
:101DB0001D0F270F310F3B0F4A0F540F7C0F5E0F83
:101DC000680F720F84B5806884BDC7BDDF91CF9165
:101DD0001F91089584B5806284BDC8BDF7CF8091FE
:101DE0008000806880938000D0938900C093880031
:101DF000EDCF80918000806280938000D0938B0033
:101E0000C0938A00E3CF8091800088608093800037
:101E1000D0938D00C0938C00D9CF8091B0008068A2
:101E20008093B000C093B300D1CF8091B0008062A6
:101E30008093B000C093B400C9CF809190008068B7
:101E400080939000D0939900C0939800BFCF809169
:101E50009000806280939000D0939B00C0939A0082
:101E6000B5CF80919000886080939000D0939D00C2
:101E7000C0939C00ABCF8091A00080688093A000AD
:101E80008091A0008F7B8093A000D093A900C09385
:101E9000A8009CCF8091A00080628093A000D09386
:101EA000AB00C093AA0092CF8091A000886080937D
:101EB000A000D093AD00C093AC0088CF80912001EA
:101EC000806880932001D0932901C09328017ECFA0
:101ED00080912001806280932001D0932B01C093D8
:101EE0002A0174CF80912001886080932001D093D3
:101EF0002D01C0932C016ACFC038D1050CF03ECF24
:101F000033CF8150823108F05AC0E82FF0E08827A3
:101F1000E357F04F8F4F0C948910AD0FB10F9F0F07
:101F2000A50FA90FDF0FB40FBA0FBE0FC40FC80F54
:101F3000CC0FD20FD60FDF0FDA0FE00FE40F809136
:101F400080008F77809380000895809180008F7D3E
:101F5000F9CF80918000877FF5CF84B58F7784BDDE
:101F6000089584B58F7DFBCF8091B0008F778093EB
:101F7000B00008958091B0008F7DF9CF80919000DE
:101F80008F77809390000895809190008F7DF9CF96
:101F900080919000877FF5CF8091A0008F7780930C
:101FA000A00008958091A0008F7DF9CF8091A000BE
:101FB000877FF5CF809120018F778093200108954E
:101FC000809120018F7DF9CF80912001877FF5CF0F
:101FD000CF93DF9390E0FC01E85FFD4F2491825B9B
:101FE0009D4FFC0184918823C9F090E0880F991FD0
:101FF000FC01E255FD4FA591B491FC01EC56FD4F5B
:10200000C591D49161110DC09FB7F8948C91209522
:1020100082238C938881282328839FBFDF91CF91CF
:102020000895623051F49FB7F8943C91822F8095C7
:1020300083238C93E8812E2BEFCF8FB7F894EC910C
:102040002E2B2C938FBFEACF1F93CF93DF93282F94
:1020500030E0F901EE53FE4F8491F901E85FFD4F46
:10206000D491F901E25BFD4FC491CC23A9F0162F66
:1020700081110E94810FEC2FF0E0EE0FFF1FEC5654
:10208000FD4FA591B4918FB7F894EC91111108C050
:10209000D095DE23DC938FBFDF91CF911F91089500
:1020A000DE2BF8CF089597FB072E16F4009407D087
:1020B00077FD09D00E94911007FC05D03EF4909561
:1020C00081959F4F0895709561957F4F0895A1E286
:1020D0001A2EAA1BBB1BFD010DC0AA1FBB1FEE1FA2
:1020E000FF1FA217B307E407F50720F0A21BB30BED
:1020F000E40BF50B661F771F881F991F1A9469F769
:1021000060957095809590959B01AC01BD01CF01C4
:102110000895EE0FFF1F881F8BBF0790F691E02DEB
:102120001994AA1BBB1B51E107C0AA1FBB1FA6170E
:10213000B70710F0A61BB70B881F991F5A95A9F770
:1021400080959095BC01CD0108955058BB27AA27D2
:102150000E94BD100C9467120E942E1238F00E944B
:10216000351220F039F49F3F19F426F40C942B1209
:102170000EF4E095E7FB0C942512E92F0E948C12D7
:1021800058F3BA17620773078407950720F079F4AC
:10219000A6F50C94AE120EF4E0950B2EBA2FA02DDE
:1021A0000B01B90190010C01CA01A0011124FF2704
:1021B000591B99F0593F50F4503E68F11A16F040FF
:1021C000A22F232F342F4427585FF3CF46953795FE
:1021D0002795A795F0405395C9F77EF41F16BA0BC3
:1021E000620B730B840BBAF09150A1F0FF0FBB1F71
:1021F000661F771F881FC2F70EC0BA0F621F731FBA
:10220000841F48F4879577956795B795F7959E3F16
:1022100008F0B0CF9395880F08F09927EE0F9795A7
:10222000879508950E94011208F481E008950E94A4
:102230003E12E3950C9478120E9430110C946712B0
:102240000E94351258F00E942E1240F029F45F3F90
:1022500029F00C94251251110C94AF120C942B12EE
:102260000E948C1268F39923B1F3552391F3951BC7
:10227000550BBB27AA2762177307840738F09F5FA7
:102280005F4F220F331F441FAA1FA9F335D00E2E14
:102290003AF0E0E832D091505040E695001CCAF781
:1022A0002BD0FE2F29D0660F771F881FBB1F261744
:1022B00037074807AB07B0E809F0BB0B802DBF011B
:1022C000FF2793585F4F3AF09E3F510578F00C94EA
:1022D00025120C94AF125F3FE4F3983ED4F3869539
:1022E00077956795B795F7959F5FC9F7880F911D0B
:1022F0009695879597F90895E1E0660F771F881FF7
:10230000BB1F621773078407BA0720F0621B730BA9
:10231000840BBA0BEE1F88F7E09508950E94951183
:102320006894B1110C94AF1208950E94941288F031
:102330009F5798F0B92F9927B751B0F0E1F0660F89
:10234000771F881F991F1AF0BA95C9F714C0B130CA
:1023500091F00E94AE12B1E008950C94AE12672F76
:10236000782F8827B85F39F0B93FCCF386957795F9
:102370006795B395D9F73EF49095809570956195E2
:102380007F4F8F4F9F4F0895E89409C097FB3EF40D
:1023900090958095709561957F4F8F4F9F4F9923B2
:1023A000A9F0F92F96E9BB279395F6958795779530
:1023B0006795B795F111F8CFFAF4BB0F11F460FFF0
:1023C0001BC06F5F7F4F8F4F9F4F16C0882311F048
:1023D00096E911C0772321F09EE8872F762F05C05C
:1023E000662371F096E8862F70E060E02AF09A95F7
:1023F000660F771F881FDAF7880F9695879597F9EC
:102400000895990F0008550FAA0BE0E8FEEF161685
:102410001706E807F907C0F012161306E407F507D8
:1024200098F0621B730B840B950B39F40A2661F04C
:10243000232B242B252B21F408950A2609F4A140EF
:10244000A6958FEF811D811D089597F99F6780E8FC
:1024500070E060E008959FEF80EC089500240A94F6
:102460001616170618060906089500240A9412166F
:1024700013061406050608950C942B120E9494125C
:10248000D8F3E894E0E0BB279F57F0F02AED3FE057
:1024900049EC06C0EE0FBB0F661F771F881F28F0A0
:1024A000B23A62077307840728F0B25A620B730BC3
:1024B000840BE3959A9572F7803830F49A95BB0FA8
:1024C000661F771F881FD2F790480C947C13092E43
:1024D0000394000C11F4882352F0BB0F40F4BF2B7F
:1024E00011F460FF04C06F5F7F4F8F4F9F4F0895BF
:1024F000EF93E0FF07C0A2EA2AED3FE049EC5FEB73
:102500000E94BD100E9467120F90039401FC905826
:10251000E4EEF0E00C948F1357FD9058440F551FD4
:1025200059F05F3F71F04795880F97FB991F61F055
:102530009F3F79F087950895121613061406551FCC
:10254000F2CF4695F1DF08C0161617061806991F38
:10255000F1CF86957105610508940895E894BB272D
:1025600066277727CB0197F908950E94011208F496
:102570008FEF08950E94CD120C9467120E942E12C4
:1025800038F00E94351220F0952311F00C9425129A
:102590000C942B1211240C94AF120E948C1270F325
:1025A000959FC1F3950F50E0551F629FF001729FF8
:1025B000BB27F00DB11D639FAA27F00DB11DAA1F07
:1025C000649F6627B00DA11D661F829F2227B00D54
:1025D000A11D621F739FB00DA11D621F839FA00DDF
:1025E000611D221F749F3327A00D611D231F849F2F
:1025F000600D211D822F762F6A2F11249F57504086
:102600009AF0F1F088234AF0EE0FFF1FBB1F661F00
:10261000771F881F91505040A9F79E3F510580F0C9
:102620000C9425120C94AF125F3FE4F3983ED4F360
:10263000869577956795B795F795E7959F5FC1F76D
:10264000FE2B880F911D9695879597F908959F9376
:102650000E943E120F9007FCEE5F0C94781219F462
:1026600016F40C942B120C947A130E949412B8F363
:102670009923C9F3B6F39F57550B87FF0E94881320
:102680000024A0E640EA900180585695979528F4DA
:10269000805C660F771F881F20F0261737074807D2
:1026A00030F4621B730B840B202931294A2BA69529
:1026B00017940794202531254A2758F7660F771F6E
:1026C000881F20F026173707480730F4620B730B7A
:1026D000840B200D311D411DA09581F7B901842F78
:1026E0009158880F9695879508950E940112880B3E
:1026F000990B08959F3F31F0915020F4879577957D
:102700006795B795880F911D9695879597F90895C8
:1027100091505040660F771F881FD2F708959F93FE
:102720008F937F936F93FF93EF939B01AC010E9474
:10273000BA12EF91FF910E94A3132F913F914F91F5
:102740005F910C94BA12DF93CF931F930F93FF9274
:10275000EF92DF927B018C01689406C0DA2EEF01C4
:102760000E94CD12FE01E894A591259135914591E5
:102770005591A6F3EF010E94BD10FE019701A8013B
:10278000DA9469F7DF90EF90FF900F911F91CF914E
:10279000DF91089511E0C7E6D1E000E006C0802F88
:1027A000FE010E9489102196011DC836D10780E0E4
:0827B0000807A9F7F894FFCF18
:1027B80001CEFF14002800000061430000074323F6
:1027C8003D3D3D3D3D3D3D3D3D3D3D3D3D20447212
:1027D80069766520436F6E74726F6C20506F696EF6
:1027E8007473203D3D3D3D3D3D3D3D3D3D3D3D00FE
:1027F8004D6974746520547565722020642E783A8A
:1028080020002020642E793A20005363686E697492
:102818007470756E6B742020732E783A2000202017
:10282800732E793A20005261646975733A20004426
:102838006F6F7220666F756E642100233D3D3D3DCC
:102848003D3D3D3D3D3D20446F6F7220506F696EA8
:102858007473203D3D3D3D3D3D3D3D3D3D3D0020AA
:1028680020783A20002020793A200000000000C893
:1028780009C70B4209A80914092E0920090D0A00E5
:0C2888006E616E00696E66006F7666007F
:00000001FF
