:100000000C94F7010C94A3180C94CE180C94F918C6
:100010000C9424190C944F190C947A190C94A5196A
:100020000C94D0190C9428020C9428020C942802E9
:100030000C9428020C9428020C9428020C94280298
:100040000C9428020C9428020C9428020C94280288
:100050000C9428020C9428020C9428020C945D1B2A
:100060000C9428020C94BC140C94F2140C942802E6
:100070000C9428020C9428020C9428020C94280258
:100080000C9428020C9428020C9428020C94280248
:100090000C9428020C9428020C9428020C94280238
:1000A0000C9428020C9428020C9428020C94280228
:1000B0000C9428020C9428020C9428020C94280218
:1000C0000C9428020C9428020C9428020C94280208
:1000D0000C9428020C9428020C9453150C94891546
:1000E0000C94280205A84CCDB2D44EB93836A902DA
:1000F0000C50B9918688083CA6AAAA2ABE00000026
:10010000803F0C94911D0C94EB130C94041D0C94E3
:10011000B81C0C94131D0C94A91D0C94951D0C94E3
:100120009F1D0C94271D0C949B1D0C9496180C94E9
:10013000761D0C94721D0C94F01C0C948D1D0C9467
:10014000A31D0C94311D0C9426150C945B180C9473
:1001500074130C94EA150C94E61C0C9465130C941F
:10016000CB130C94AB1C0C94DE1C0C94B3150C94A8
:100170001C150C94AD1D0C943B1D0C94831D0C940C
:10018000681D0C942A020C9428180C947A1D0C9467
:10019000B31C0C94830B0C9437130C9443130C94E2
:1001A0007D1D0C9468180C94A81D0C94160B0C94CF
:1001B000FA1C0C944F180C947D180C9447180C944E
:1001C000451D0C941D1D0C94CC1C0C94BD150C9459
:1001D0006E1D0C94871D0C9451130C94C21C0C942E
:1001E00089180C94D61C00407A10F35A00A0724E65
:1001F00018090010A5D4E80000E87648170000E4CC
:100200000B54020000CA9A3B000000E1F505000013
:1002100080969800000040420F000000A086010078
:100220000000102700000000E80300000000640048
:10023000000000000A0000000000010000000000B3
:100240002C76D888DC674F0823DFC1DFAE59E1B1D7
:10025000B796E5E3E453C63AE651997696E8E6C2E6
:100260008426EB898C9B62ED407C6FFCEFBC9C9FED
:1002700040F2BAA56FA5F490055A2AF75C936B6C0F
:10028000F9676DC11BFCE0E40D47FEF520E6B50003
:10029000D0ED902E0300943577050080841E080071
:1002A00000204E0A000000C80C333333330F986E21
:1002B00012831141EF8D2114893BE65516CFFEE6DE
:1002C000DB18D1844B381BF77C1D901DA4BBE424A4
:1002D000203284725E228100C9F124ECA1E53D2721
:1002E00000000A0B02090C0D0E08070304010000B0
:1002F00000000000000000000000000000000000FE
:1003000000000000000000000000000012111000BA
:1003100000000000000000000000000000000000DD
:1003200000000000000001021020200808102040FA
:1003300010204080020102010804020101020408A9
:100340001020408080402010080402018004020137
:100350008040201008040201080402010102040880
:10036000102040800102040810204080050505058A
:10037000070508080808020202020A0A080804041D
:10038000040401010101010101010303030303034B
:100390000303040707070C0C0C0C0C0C0C0C0202DA
:1003A000020206060606060606060B0B0B0B0B0BD7
:1003B0000B0B00002200250028002B002E0031002E
:1003C000340002010000050108010B0100002100BA
:1003D000240027002A002D00300033000101000016
:1003E000040107010A01160B2615BD15830B112404
:1003F0001FBECFEFD1E2DEBFCDBF00E00CBF14E0E7
:10040000A0E0B2E0E4EDFCE400E00BBF02C0079026
:100410000D92A236B107D9F72EE0A2E6B4E001C0F2
:100420001D92AB35B207E1F711E0C6EFD1E000E075
:1004300006C021970109802FFE010E94521EC33F72
:10044000D10780E00807A9F70E944E1B0C9458269C
:100450000C94000080911C0290911D02019629F4D9
:1004600010921D0210921C0208958FEF9FEF90933F
:100470001D0280931C0208954F925F926F927F92AB
:100480008F929F92AF92BF92CF92DF92EF92FF92A4
:100490000F931F93CF93DF9300D000D000D01F9213
:1004A0001F92CDB7DEB7E982FA820B831C832D83BE
:1004B0003E834F83588769877A878B87CE01019661
:1004C0000E94CC0E882309F4D5C089819A818F3F80
:1004D000974009F0CFC0B884A9847A846B840E94C5
:1004E000A71B6B0170936304609362040091060282
:1004F000109107020F3F100709F4B6C06A2D70E093
:10050000762F66276B0D711D072E000C880B990B3B
:100510000E948F1F27ED33EA4AEA51E40E94E51E4C
:100520002BED3FE049EC50E40E94AA2020E030E0AF
:1005300040E752E40E94E51E27ED33EA40E35EE324
:100540000E94AA204B015C01662D70E0762F662781
:10055000670D711D072E000C880B990B0E948F1FD1
:1005600027ED33EA4AEA51E40E94E51E2BED3FE015
:1005700049EC50E40E94AA2020E030E040E752E439
:100580000E94E51E27ED33EA40E35EE30E94AA20C5
:100590002B013C01C01AD10AB601DD0C880B990B66
:1005A0000E948F1F6B017C01A5019401C301B20160
:1005B0000E946E1E28EB3EE145E05FE30E94E51ECF
:1005C000A70196010E94AA2020E030E04AE754E407
:1005D0000E94E51E20E030E044E353E40E94AA209C
:1005E0002BED3FE049E450E40E94E51E9B01AC0185
:1005F0006091FC047091FD048091FE049091FF04D1
:100600000E946F1E6093FC047093FD048093FE04AF
:100610009093FF04A3019201C501B4010E946F1ED3
:1006200020E030E040E05FE30E94AA20A7019601AD
:100630000E94AA2020E030E04AE754E40E94E51E30
:100640009B01AC016091A8047091A9048091AA0457
:100650009091AB040E946F1E6093A8047093A9044C
:100660008093AA049093AB040E94A71B7093070287
:10067000609306022B960FB6F894DEBF0FBECDBF77
:10068000DF91CF911F910F91FF90EF90DF90CF906E
:10069000BF90AF909F908F907F906F905F904F90A2
:1006A0000895AF92BF92CF92DF92EF92FF920F9395
:1006B0001F93CF93DF9300D000D000D01F921F92E2
:1006C000CDB7DEB7588769877A878B878EE390E04E
:1006D0009A838983007E00610B83CC82DD82AE82A7
:1006E000BF8240E060EE8FE00E945B0ECE0101967B
:1006F0000E94300F6AE070E080E090E00E94D81B1A
:100700002B960FB6F894DEBF0FBECDBFDF91CF9111
:100710001F910F91FF90EF90DF90CF90BF90AF901F
:1007200008954F925F926F927F92AF92BF92CF9255
:10073000DF92EF92FF920F931F93CF93DF93CDB78A
:10074000DEB7A3970FB6F894DEBF0FBECDBF2B0167
:100750003C01E980FA800B811C812D813E814F8113
:10076000588569857A858B850E943C0220E030E0BF
:1007700044EB52E4C301B2010E946E1E20E030E05F
:1007800048EC52E40E94E51E6093B0047093B104FB
:100790008093B2049093B3048091A8049091A9042B
:1007A000A091AA04B091AB048093A4049093A504F3
:1007B000A093A604B093A70484E694E00E94950F4A
:1007C0001092F8041092F9041092FA041092FB04AB
:1007D0008091FC049091FD04A091FE04B091FF046F
:1007E0008093F4049093F504A093F604B093F70477
:1007F00084EB94E00E94950F4091A8045091A904C5
:100800006091AA047091AB0422E0CE010C960E9484
:10081000C41A4091A0045091A1046091A204709167
:10082000A30422E0CE0142960E94C41A4091B00473
:100830005091B1046091B2047091B30422E0CE01F2
:100840004E960E94C41A68E372E0CE0148960E9458
:100850006A1ABE01625E7F4FCE0148960E94201B3D
:1008600068E472E00E94331BBE016E5E7F4F0E94FF
:10087000201B69E672E00E94331BBE01645F7F4F5C
:100880000E94201BBC0184E19DE00E944716CE011E
:1008900048960E94FB19CE014E960E94FB19CE018C
:1008A00042960E94FB19CE010C960E94FB196091A2
:1008B000F0047091F1048091F2049091F304905847
:1008C0000E94571F5B016091A0047091A104809168
:1008D000A2049091A3040E94571F6B01E980FA8043
:1008E0000B811C812D813E814F81588569857A85D8
:1008F0008B850E94510320E030E0A901C301B201C1
:100900000E94A520181624F077FA709477F8709456
:10091000C090A804D090A904E090AA04F090AB0481
:1009200020E030E0A901C701B6010E94A520A7017F
:10093000960118160CF05058C301B2010E946E1EA9
:100940002B013C012DEC3CEC4CEC5DE30E94DB1EEA
:1009500087FF37C02DEC3CEC4CEC5DEBC301B201E2
:100960000E94A52018166CF585E090E090931D027A
:1009700080931C0222E0B701A601CE0142960E949C
:10098000C41A67E572E0CE010C960E946A1ABE0195
:100990006E5E7F4FCE010C960E94201BBC0184E14D
:1009A0009DE00E944716CE010C960E94FB19CE01D5
:1009B00042960E94FB1968E772E084E19DE00E9484
:1009C0005916A3960FB6F894DEBF0FBECDBFDF91C8
:1009D000CF911F910F91FF90EF90DF90CF90BF903C
:1009E000AF907F906F905F904F9008954F925F927D
:1009F0006F927F92AF92BF92CF92DF92EF92FF926F
:100A00000F931F93CF93DF93CDB7DEB767970FB6E2
:100A1000F894DEBF0FBECDBF2B013C01E980FA8008
:100A20000B811C812D813E814F81588569857A8596
:100A30008B850E943C024092F8045092F904609227
:100A4000FA047092FB048091FC049091FD04A09143
:100A5000FE04B091FF048093F4049093F504A093F6
:100A6000F604B093F70484EB94E00E94950F609134
:100A7000F0047091F1048091F2049091F304905885
:100A80000E94571F5B01D12CC12CE980FA800B8199
:100A90001C812D813E814F81588569857A858B85A2
:100AA0000E94510320E030E0A901C301B2010E947D
:100AB000A520181624F077FA709477F87094C090F7
:100AC000FC04D090FD04E090FE04F090FF0420E0D0
:100AD00030E0A901C701B6010E94A520A701960137
:100AE00018160CF05058C301B2010E946E1E2B0163
:100AF0003C012DEC3CEC4CE45DE30E94DB1E87FFE7
:100B00003FC02DEC3CEC4CE45DEBC301B2010E9414
:100B1000A5201816ACF583E090E090931D02809319
:100B20001C0222E0B701A601CE0142960E94C41A1F
:100B300068EA72E0CE010C960E946A1ABE016E5EEF
:100B40007F4FCE010C960E94201BBC0184E19DE0EA
:100B50000E944716CE010C960E94FB19CE014296C8
:100B60000E94FB1968E772E084E19DE00E9459163B
:100B70001092FC041092FD041092FE041092FF04E7
:100B800067960FB6F894DEBF0FBECDBFDF91CF9151
:100B90001F910F91FF90EF90DF90CF90BF90AF909B
:100BA0007F906F905F904F900895CF93DF93C091A7
:100BB0000C05D0910D0580911A0590911B05C80F69
:100BC000D91FD7FD2196D595C79560910A057091DB
:100BD0000B058091180590911905680F791F77FF13
:100BE00002C06F5F7F4F75956795645B7109072E33
:100BF000000C880B990B0E948F1F60930405709363
:100C000005058093060590930705BE010D2E000C87
:100C1000880B990B0E948F1F60930005709301054C
:100C200080930205909303056DEC72E084E19DE0F2
:100C30000E9459166DE373E084E19DE00E94341632
:100C400040910405509105056091060570910705D6
:100C500022E030E084E19DE00E9416186AE473E02F
:100C600084E19DE00E9434164AE050E0BE0184E138
:100C70009DE00E940B1768E772E084E19DE00E940E
:100C8000591682E090E090931D0280931C02DF9140
:100C9000CF9108952F923F924F925F926F927F92E1
:100CA0008F929F92AF92BF92CF92DF92EF92FF927C
:100CB0000F931F93CF93DF93CDB7DEB768970FB62F
:100CC000F894DEBF0FBECDBF7C010AE118E03EE024
:100CD000D32EF80160897189072E000C880B990BBF
:100CE0000E948F1F9B01AC010E946F1E4B015C0193
:100CF000F80162817381072E000C880B990B0E940A
:100D00008F1F9B01AC01C501B4010E946E1E4B01F7
:100D10005C01F801668D778D072E000C880B990B0E
:100D20000E948F1F9B01AC01C501B4010E946E1E81
:100D30000E94571F6E157F05DCF4F80182899389A4
:100D40000B97B4F08091080590910905D89ED001C9
:100D5000D99EB00D1124A25ABA4F3E962D2D019066
:100D60000D922A95E1F70196909309058093080565
:100D7000025F1F4F2CE0083F120709F0AACF8091B5
:100D8000060D81115EC00EE515E01A861986312C1C
:100D9000212C809108059091090529853A8528170D
:100DA00039070CF48DC00AE015E07801D12CC12C74
:100DB0002C143D0409F491C1F70162817381072E5F
:100DC000000C880B990B0E948F1F4B015C01F701EF
:100DD00060817181072E000C880B990B0E948F1F78
:100DE0002BED3FE049E450E40E94AA2020E030E0EF
:100DF00044E353E40E94E51E2B013C010E94E01EE7
:100E00009B01AC01C501B4010E94AA20F7016683D1
:100E1000778380879187C301B2010E9417219B01CC
:100E2000AC01C501B4010E94AA20F7016287738753
:100E300084879587FFEFCF1ADF0A2EE0E20EF11CC0
:100E4000B7CF64E573E084E19DE00E9459160EE59A
:100E500015E0F12CE12C8091080590910905E81628
:100E6000F9060CF090CFF801608171814AE050E002
:100E700084E19DE00E9404176FEB73E084E19DE044
:100E80000E943416F801628173814AE050E084E1E7
:100E90009DE00E9404176FEB73E084E19DE00E94E7
:100EA0003416F801648175814AE050E084E19DE0E8
:100EB0000E940B17FFEFEF1AFF0A025F1F4FCBCF05
:100EC00069857A856F5F7F4F7A87698718870F8377
:100ED0007C876B878091080590910905EB85FC85DF
:100EE000E817F9070CF0F6C0F8010190F081E02D49
:100EF000FE87ED87EF81F8850684F785E02DF88B76
:100F0000EF876D857E856E1B7F0B072E000C880B8F
:100F1000990B0E948F1F2BED3FE049E450E40E94A3
:100F2000AA2020E030E044E353E40E94E51E0E9442
:100F3000E01E6D8B7E8B8F8B988FF8010280F38182
:100F4000E02DFA8BE98BCF016AE070E00E941C1E55
:100F5000072E000C880B990B0E948F1F6B017C01E0
:100F6000EF81F8850088F189E02DFC8BEB8BCF01B8
:100F70006AE070E00E941C1E072E000C880B990B83
:100F80000E948F1F4B015C01A7019601C701B601AA
:100F90000E94AA202B013C01A5019401C501B401C6
:100FA0000E94AA209B01AC01C301B2010E946F1EE6
:100FB0002B013C01A7019601C701B6010E946F1EDB
:100FC000A50194010E94AA202D893E894F89588D40
:100FD0000E94AA209B01AC01C301B2010E946E1EB7
:100FE0000E94252120E030E040E251E40E94AA2046
:100FF0006B017C0120E030E040E752E40E94A52034
:1010000018160CF05AC020E030E042ED52E4C7015F
:10101000B6010E94DB1E87FF50C089899A892B89FF
:101020003C89820F931F97FD0196959587958C5962
:101030009F4FEAE1F8E021E0408151816D857E8596
:10104000641775075CF46F8578894617570734F481
:1010500042815381481759070CF420E03E967DE009
:10106000E630F70749F7222341F18EE0829DD00157
:10107000839DB00D1124A65FBA4FF80101900D9227
:101080008A95E1F7C1010196EEE0E89FD001E99F62
:10109000B00D1124A65FBA4FEF81F8853E968EE021
:1010A00001900D928A95E1F7F2E02F0E311C68E76E
:1010B00073E084E19DE00E9459162B853C852F5FEB
:1010C0003F4F3C872B876F817885625F7F4F7887A2
:1010D0006F8300CF025F1F4F5CCE64E873E084E152
:1010E0009DE00E945916F12CE12C2E143F0409F4C6
:1010F00053C08091060D882339F1F8016081718118
:101100004AE050E084E19DE00E9404176FEB73E039
:1011100084E19DE00E943416F801628173814AE007
:1011200050E084E19DE00E9404176FEB73E084E1DE
:101130009DE00E943416F801648175814AE050E018
:1011400084E19DE00E940B1768EA73E084E19DE072
:101150000E943416F801468157816085718522E02E
:1011600030E084E19DE00E9414186EEA73E084E1AF
:101170009DE00E943416F80142855385648575858B
:1011800022E030E084E19DE00E941618FFEFEF1AA4
:10119000FF0A025F1F4FA9CF64EB73E084E19DE07B
:1011A0000E9434164AE0B101CE0101960E94891ACC
:1011B000BE016F5F7F4F84E19DE00E944716CE0124
:1011C00001960E94FB1981E090E022E02216310492
:1011D00049F02114310421F033E02316310434F0B6
:1011E00084E090E090931D0280931C0268960FB6F5
:1011F000F894DEBF0FBECDBFDF91CF911F910F914D
:10120000FF90EF90DF90CF90BF90AF909F908F9026
:101210007F906F905F904F903F902F9008954F92E6
:101220005F926F927F928F929F92AF92BF92CF9276
:10123000DF92EF92FF920F931F93CF93DF93CDB77F
:10124000DEB764970FB6F894DEBF0FBECDBF90E94E
:10125000E92EFF24F3942EE0C22E44EF51E060E02B
:1012600070E087E09DE00E94C50B97FDBAC08090BA
:10127000090D90900A0DA0900B0DB0900C0D4090B0
:101280000D0D50900E0D60900F0D7090100D20E020
:1012900030E0A901C501B4010E94DB1E18163CF024
:1012A000812C80EC982E8AEDA82E85E4B82EA3011F
:1012B000920160912002709121028091220290910E
:1012C00023020E94A52087FD32C0A30192016091F4
:1012D00024027091250280912602909127020E949B
:1012E000DB1E181624F1D090110DC301B2010E942B
:1012F000571F9B0127583109C29E8001C39E100DC4
:101300001124065E174FF8017183608320E030E0FE
:1013100040E251E4C501B4010E94E51E0E94571F3E
:10132000F801738362838D2D90E095838483F1E0CF
:10133000EF1AF10809F091CF8091060D882379F119
:101340000AE118E0F801608171814AE050E084E12F
:101350009DE00E9404176FEB73E084E19DE00E9422
:101360003416F801628173814AE050E084E19DE027
:101370000E9404176FEB73E084E19DE00E94341635
:10138000F801648175814AE050E084E19DE00E94AB
:101390000B17025F1F4FFDE006301F0799F670E044
:1013A00060E083E00E94731C80911E0290911F02F6
:1013B0000E944A0664960FB6F894DEBF0FBECDBFFA
:1013C000DF91CF911F910F91FF90EF90DF90CF9021
:1013D000BF90AF909F908F907F906F905F904F9055
:1013E000089570E060E083E00E94731C24E630E022
:1013F00040E050E0BE016F5F7F4F87E09DE00E94BC
:101400004C0D97FD94CF28EE33E040E050E060E0D3
:1014100087E09DE00E94DB0D6FEF70E083E00E94AB
:10142000731C68EE73E080E090E00E94D81B7FCFD1
:101430008EE0E6E0FDE0DF01982F1D929A95E9F736
:10144000EAE1F8E0DF01982F1D929A95E9F7EEE5C1
:10145000F5E0DF011D928A95E9F7109209051092D7
:1014600008058FEF9FEF90931D0280931C02089553
:10147000CF92DF92EF92FF920F931F9361EB7DE08B
:1014800087E09DE00E94A50B26E040E052EC61E081
:1014900070E084E19DE00E94381461E083E00E94E6
:1014A000B11D61E086E10E94B11D62E082E00E9410
:1014B000B11D43E050E06AE272E080E00E9429182A
:1014C00061E086E10E94ED1D6AE070E080E090E05E
:1014D0000E94D81B61EC73E084E19DE00E945916E4
:1014E00068EE73E080E090E00E94D81B63E083E147
:1014F0009DE00E94920F66EF73E0811102C062E0EE
:1015000074E084E19DE00E94591668EE73E080E08B
:1015100090E00E94D81B61E070E084EB94E00E94B0
:101520003F12C0901002D0901102E0901202F09091
:1015300013020091140210911502209116023091AD
:101540001702409118025091190260911A0270918D
:101550001B0284EB94E00E94E21161E070E084E6FB
:1015600094E00E943F12C090AC04D090AD04E09093
:10157000AE04F090AF04009108021091090220918E
:101580000A0230910B0240910C0250910D026091C1
:101590000E0270910F0284E694E00E94E2111F9106
:1015A0000F91FF90EF90DF90CF90089580911C02F3
:1015B00090911D0282309105E9F02CF4009751F0D2
:1015C000019781F008958430910541F1ECF0059781
:1015D00059F1089561E174E084E19DE00E9459169B
:1015E0000C940F096CE174E084E19DE00E945916AF
:1015F0000C94D50560910405709105058091060550
:10160000909107050C94F604609100057091010516
:1016100080910205909103050C9491036CE274E0B3
:1016200084E19DE00E9459160C94180AAF92BF9273
:10163000CF92DF92EF92FF920F931F9387E09DE08E
:101640000E94870BA0901402B0901502C090160261
:10165000D0901702E0901802F090190200911A023F
:1016600010911B021F921F92809113028F93809101
:1016700012028F93809111028F93809110028F93A9
:1016800028EF34E040EF54E064EF74E084EB94E042
:101690000E940513A0900802B0900902C0900A02AF
:1016A000D0900B02E0900C02F0900D0200910E021F
:1016B00010910F021F921F928091AF048F9380911F
:1016C000AE048F938091AD048F938091AC048F937F
:1016D00020EB34E040EA54E064EA74E084E694E00D
:1016E0000E9405138DB79EB70C960FB6F8949EBF57
:1016F0000FBE8DBF1F910F91FF90EF90DF90CF90A5
:10170000BF90AF90089587E09DE00C94A30BFC017F
:10171000118210821282138214821582168217821D
:1017200010861186128613860895CF93DF93EC01FD
:1017300088819981009721F00E949A141982188259
:10174000DF91CF9108950C94950B0F931F93CF9336
:10175000DF93EC018B0188819981892B19F0CE01EF
:101760000E94950B19830883C8010E949A1426E0F1
:1017700040E052EC61E070E0888199810E94381469
:10178000DF91CF911F910F9108954F925F926F92C9
:101790007F928F929F92AF92BF92EF92FF921F9390
:1017A000CF93DF9300D01F921F92CDB7DEB77C019D
:1017B0002A013B010E94A71B4B015C0110E00E9423
:1017C000A71B681979098A099B09461657066806F6
:1017D000790608F472C0D7018D919C91DC01ED91DE
:1017E000FC910284F385E02D199597FDE8CF112334
:1017F00009F457C0113009F45DC091E0910FE1E0A8
:10180000F0E0EC0FFD1FE10FF11D8083953009F032
:1018100046C06C817D8190E080E00E948D1F20E0B9
:1018200030E040E85EE30E94AA20D70112966D9353
:101830007D938D939C9315976A817B8176956795AF
:1018400090E080E00E948D1F20E030E040E85CE303
:101850000E94AA20F7016683778380879187898118
:10186000282F30E03595279535952795228781706B
:10187000838760E070E0CB010F900F900F900F9086
:101880000F90DF91CF911F91FF90EF90BF90AF909D
:101890009F908F907F906F905F904F900895192F39
:1018A0008ECF9C0135952795FC01E2279F0120FDF5
:1018B000A4CF85CF80FDA1CF81CF62E070E880E02A
:1018C00090E8DACFCF92DF92EF92FF920F931F93BF
:1018D000CF93DF9300D000D01F92CDB7DEB77C014D
:1018E000162F5F834E8369011D82232B21F0CA01CD
:1018F000892B09F0106805EA09831A83D7018D91B5
:101900009C91DC01ED91FC910280F381E02D42E09D
:1019100050E0BE016F5F7F4F199517FF40C06D818A
:1019200060276C2561276D83EE81FF8196012E0F64
:101930003F1FE217F30729F091918D8189278D834D
:10194000F8CFCC82F70180819181DC01ED91FC918F
:101950000280F381E02D41E050E0BE016C5F7F4FDB
:101960001995F701808191814C8150E0DC01ED9166
:10197000FC910280F381E02DBE016A5F7F4F1995D3
:10198000F70180819181DC01ED91FC910280F3816E
:10199000E02D41E050E0BE016B5F7F4F199560E0A4
:1019A00070E0CB0127960FB6F894DEBF0FBECDBF17
:1019B000DF91CF911F910F91FF90EF90DF90CF902B
:1019C0000895FC0120813181232B39F030E020E0A3
:1019D00050E040E065E20C94620C61E070E880E069
:1019E00090E808957F928F929F92AF92BF92CF928C
:1019F000DF92EF92FF920F931F93CF93DF938C01AF
:101A0000EB0149015A010E94A71B6B017C01712C5B
:101A10000E94A71B6C197D098E099F0986169706DF
:101A2000A806B906A0F1D8018D919C91DC01ED9139
:101A3000FC910284F385E02D199597FDE9CF77207D
:101A4000F1F0B1E07B16F9F091E0970DFE01E70DA2
:101A5000F11D8083973089F460E070E0CB01DF9165
:101A6000CF911F910F91FF90EF90DF90CF90BF909B
:101A7000AF909F908F907F900895792EC9CF853A2F
:101A8000910511F3C5CF8A359105F1F2C0CF62E01F
:101A900070E880E090E8E3CF4F925F926F927F9280
:101AA0008F929F92AF92BF92CF92DF92EF92FF926E
:101AB0000F931F93CF93DF9300D000D01F92CDB729
:101AC000DEB77C016B0149015A010E94A71B2B0163
:101AD0003C01D7018D919C91892B09F45EC030E0C7
:101AE00020E050E040E060E5C7010E94620C97FDF5
:101AF0003DC0A5019401BE016F5F7F4FC7010E94E9
:101B0000F20C97FD33C08F81843009F04BC08B817C
:101B10009C81AD812E81B22FBF734497A105B10581
:101B200008F440C08601B4E1CB0ED11C0E94A71B73
:101B3000641975098609970986169706A806B906D5
:101B4000A8F1F70180819181DC01ED91FC91028483
:101B5000F385E02D199597FDE9CFF80181938F0169
:101B6000CE16DF0619F760E070E0CB0127960FB6BE
:101B7000F894DEBF0FBECDBFDF91CF911F910F91C3
:101B8000FF90EF90DF90CF90BF90AF909F908F909D
:101B90007F906F905F904F90089561E070E880E0D3
:101BA00090E8E4CF60E070E8CB01E0CF62E070E85D
:101BB00080E090E8DBCFBF92CF92DF92EF92FF926E
:101BC0000F931F93CF93DF9300D000D01F92CDB718
:101BD000DEB7DC01ED91FC91EF2B09F440C0690107
:101BE0007A01B62E8C010E94E10C60E2B11061E234
:101BF00030E020E050E040E0C8010E94620C97FD18
:101C00001AC0A7019601BE016F5F7F4FC8010E94F5
:101C1000F20C97FD10C08F818138E9F48B819C8193
:101C2000AD812E81B22FBF730597A105B10598F044
:101C300060E070E0CB0127960FB6F894DEBF0FBED0
:101C4000CDBFDF91CF911F910F91FF90EF90DF906B
:101C5000CF90BF90089560E070E8CB01ECCF61E0D9
:101C600070E880E090E8E7CF8EBD0DB407FEFDCFB1
:101C70008EB50895CF93DF93D82FC62F289882E092
:101C80000E94340E8D2F0E94340E8C2F0E94340E31
:101C9000289ADF91CF910895CF93C82F289883E099
:101CA0000E94340E8C2F0E94340E8FEF0E94340E4F
:101CB000289ACF9108951F93CF93DF93182FD62F93
:101CC000C42F289885E00E94340E812F0E94340E84
:101CD0008D2F0E94340E8C2F0E94340E289ADF9193
:101CE000CF911F91089528980E94340E8FEF0E9483
:101CF000340E289A0895CF93C82F289A209A2998AD
:101D00002A982B98219A229A23986C98749A81E5A4
:101D10008CBD1DBC289880EC0E94340E289A87EC5C
:101D200090E00197F1F700C00000289882E00E943F
:101D3000340E88E20E94340E82E00E94340E80E964
:101D40000E94340E8C2F0E94340E83E00E94340EC9
:101D5000289A8AE20E944C0E8C1741F08091020171
:101D600080628093020180E0CF91089560E08CE072
:101D70000E943A0E60E08DE00E943A0E60E680E636
:101D80000E943A0E60E680E70E943A0E60E08FE023
:101D90000E943A0E81E0E8CFEF92FF920F931F93DB
:101DA000CF93DF938C0180EB0E94730EC82F282FF6
:101DB0002074E22E86FD05C084E9C7FD03C080E0E3
:101DC00040C080E928980E94340E8FEF0E94340EA4
:101DD000E8E08E9FC0011124F801918380838FEF8A
:101DE0000E94340E282F229526952770F8018081B5
:101DF0009181822B918380838FEF0E94340E8FEF2D
:101E00000E94340E8FEF0E94340E8F70F82E982FA0
:101E1000990FF8018281817E892BC3FB80F982832F
:101E20000D5F1F4FD0E0DF1113C0289A40E061E042
:101E3000E11001C062E08CE20E945B0E8C2F877083
:101E40008F5FDF91CF911F910F91FF90EF900895D9
:101E50008FEF0E94340EF80181938F01DF5FE3CF93
:101E6000FF920F931F93CF93DF938C0180EA0E9420
:101E7000730E82FF07C084FF44C0C4E086FF03C026
:101E8000C0E038C0C0E028988C2F80640E94340ED7
:101E9000F8018081918123E0969587952A95E1F755
:101EA0000E94340EF80180818295880F807E0E9406
:101EB000340E80E00E94340E80E00E94340EF8015F
:101EC0008281D82FD695DF7080FF1DC08D2F806452
:101ED0000E94340E289A87EC90E00197F1F700C039
:101EE00000002898C11101C0C1E08C2F80680E94B9
:101EF000340E289A8C2FDF91CF911F910F91FF9074
:101F00000895C2E0C0CF8D2F0E94340E0D5F1F4F89
:101F1000F12CFD16F9F2F80181918F010E94340E27
:101F2000F394F7CF862F0C947B0E2F923F924F9213
:101F30005F926F927F928F929F92AF92BF92CF9259
:101F4000DF92EF92FF920F931F93CF93DF93CDB762
:101F5000DEB760970FB6F894DEBF0FBECDBFDC01D1
:101F6000DA96BC91BD83B1111BC01D828D81609634
:101F70000FB6F894DEBF0FBECDBFDF91CF911F919A
:101F80000F91FF90EF90DF90CF90BF90AF909F9018
:101F90008F907F906F905F904F903F902F9008951B
:101FA000988B8F870E94A71B6B877C878D879E8766
:101FB000EF85F88982A193A1A4A1B5A12B853C85C9
:101FC0004D855E85281B390B4A0B5B0BDA01C90175
:101FD00046A557A560A971A984179507A607B70755
:101FE00020F2048CF58DE02D80819181A281B38156
:101FF00089839A83AB83BC83AF85B8899096ED9132
:10200000FC9129813A814B815C816081718182815F
:1020100093810E946E1E4B015C01EF85F88922A519
:1020200033A544A555A569817A818B819C810E9445
:102030006E1E6B017C01AF85B88950962D913D9144
:102040004D915C915397C501B4010E94AA20EF8580
:10205000F88926A137A140A551A50E946F1E2B012A
:102060003C01AF85B88996964D925D926D927C92B7
:102070009997DB96BC91BE83B11118C0EF85F889A2
:102080002485358546855785C701B6010E94AA205B
:102090009B01AC01C301B2010E946E1EAF85B889DD
:1020A00096966D937D938D939C939997EF85F88980
:1020B00046A057A060A471A416A907A930AC21AC12
:1020C000212F302F432D522DC301B2010E94A52094
:1020D00018160CF07FC0812F902FA32DB22DEF8505
:1020E000F88986A397A3A0A7B1A7BE81BB2309F453
:1020F00090C0EF85F8892485358546855785C501CB
:10210000B4010E94AA204B015C01AF85B8895496A6
:102110002D913D914D915C915797C701B6010E9459
:10212000AA209B01AC01EF85F88966A177A180A563
:1021300091A50E946E1EA50194010E946F1E6B0165
:102140007C019B01AC01612F702F832D922D0E9489
:10215000DB1E87FD1BC0AF85B889D2961C91D29734
:10216000D3960C91D397D4963C90D497D5962C9037
:102170009601A701612F702F832D922D0E94A5201B
:10218000181624F01C2D0D2D3E2C2F2CAF85B88950
:102190005E96ED91FC91812F902FA32DB22D80831F
:1021A0009183A283B38329813A814B815C81AF857E
:1021B000B8899A962D933D934D935C939D972B856B
:1021C0003C854D855E8592962D933D934D935C9312
:1021D0009597CCCEAF85B889D2962D913D914D91F2
:1021E0005C91D5972F83388749875A87C301B201FD
:1021F0000E94DB1E87FF79CF2F81388549855A855C
:10220000AF85B88996962D933D934D935C9399979E
:102210006CCF812C912C540178CF4F925F926F92AA
:102220007F928F929F92AF92BF92CF92DF92EF9266
:10223000FF920F931F93CF93DF9300D000D0CDB7C1
:10224000DEB79E838D8349835A836B837C83280109
:10225000390120E030E0A90169817A818B819C817C
:102260000E94DB1E87FD97C020E030E0A901C3017A
:10227000B8010E94DB1E87FD8EC020E030E0A9017E
:10228000C701B6010E94DB1E87FD85C0AD81BE81FE
:102290005B96BC92AE925A9781E0AA94AB2809F063
:1022A00080E0ED81FE8183AF89819A81AB81BC8121
:1022B00080839183A283B38344825582668277822E
:1022C000C086D186E286F38666A577A580A991A906
:1022D0000E948D1F20E030E04AE754E40E94E51E92
:1022E0004B015C0189819A81AB81BC81ED81FE81CA
:1022F00084879587A687B787A5019401C301B2019A
:102300000E94AA202B013C01AD81BE8150964D92C6
:102310005D926D927C925397A5019401C701B6011D
:102320000E94E51E6B017C01ED81FE81C48AD58A85
:10233000E68AF78A808D918D019769F529813A8126
:102340004B815C8160E070E0CB010E946E1EAD812C
:10235000BE811C966D937D938D939C931F97A301D3
:10236000920160E070E0CB010E946E1EED81FE8163
:10237000608B718B828B938BA701960160E070E07C
:10238000CB010E946E1EAD81BE8154966D937D93EC
:102390008D939C93579726960FB6F894DEBF0FBE89
:1023A000CDBFDF91CF911F910F91FF90EF90DF9004
:1023B000CF90BF90AF909F908F907F906F905F90E5
:1023C0004F900895AF92BF92CF92DF92EF92FF921B
:1023D0000F931F93FC01A28CB38C0E940D111F91CF
:1023E0000F91FF90EF90DF90CF90BF90AF90089546
:1023F0008F929F92AF92BF92CF92DF92EF92FF9215
:10240000CF93DF93EC01EE8DFF8DC080D180E28011
:10241000F380CEA2DFA2E8A6F9A6EC8DFD8D808127
:102420009181A281B3818AA79BA7ACA7BDA78EA8E3
:102430009FA8A8ACB9ACA5019401C701B6010E9440
:10244000A52018162CF48EA29FA2A8A6B9A60CC08F
:102450008AA89BA8ACA8BDA8A5019401C701B60194
:102460000E94DB1E87FDEFCFDF91CF91FF90EF90B1
:10247000DF90CF90BF90AF909F908F9008951F9363
:10248000CF93DF93EC0111E06130710509F010E0AA
:102490006130710531F48AAD811103C0CE010E9413
:1024A000F8111AAFDF91CF911F9108950F931F93E9
:1024B000CF93DF93EC018B018AAD882361F1888D86
:1024C000998D8617970739F12C853D854E855F8557
:1024D00060E070E0CB010E946E1E6C877D878E8766
:1024E0009F87288939894A895B8960E070E0CB0140
:1024F0000E946E1E688B798B8A8B9B8B2C893D8901
:102500004E895F8960E070E0CB010E946E1E6C8B8B
:102510007D8B8E8B9F8B198F088FDF91CF911F91B1
:102520000F9108954F925F926F927F928F929F9238
:10253000AF92BF92CF92DF92EF92FF920F931F93D1
:10254000CF93DF9300D01F92CDB7DEB74C012701A8
:102550003801A982BA82CB82DC82FC01578F468F78
:10256000758F648F31A320A312AE80E090E0A0EAC3
:10257000B2EC82AB93ABA4ABB5AB80E090E0A0EA49
:10258000B2E486AB97ABA0AFB1AF84E690E0A0E039
:10259000B0E086A797A7A0ABB1AB6E8D7F8DC401CD
:1025A0000E945612AC8CBD8CC88CD98CEA8CFB8CEA
:1025B00009811A812B813C81B301A201C4010E94CF
:1025C0000D110E94A71BF40146A457A460A871A88E
:1025D000641975098609970962A373A384A395A357
:1025E0000F900F900F900F90DF91CF911F910F914F
:1025F000FF90EF90DF90CF90BF90AF909F908F9023
:102600007F906F905F904F9008958F929F92AF92BE
:10261000BF92CF92DF92EF92FF920F931F93CF93CF
:10262000DF93CDB7DEB7E889F989AA89BB899C8891
:102630008D888F929F921F92992493949F92BF931B
:10264000AF93FF93EF930E9492120FB6F894DEBF00
:102650000FBECDBFDF91CF911F910F91FF90EF90F3
:10266000DF90CF90BF90AF909F908F900895FC0126
:10267000918D228D892F90E0805C9F4F821B910964
:102680008F7399270895FC01918D828D981731F0F1
:10269000828DE80FF11D858D90E008958FEF9FEFFB
:1026A0000895FC01918D828D981761F0A28DAE0F77
:1026B000BF2FB11D5D968C91928D9F5F9F73928FFE
:1026C00090E008958FEF9FEF0895FC01538D448DA6
:1026D000252F30E0842F90E0821B930B541710F0CD
:1026E000CF960895019708958CE195E1892B49F0E3
:1026F00080E090E0892B29F00E941C1581110E9436
:10270000000080E090E0892B49F080E090E0892B88
:1027100029F00E94000081110E94000080E090E0FA
:10272000892B49F080E090E0892B29F00E9400007D
:1027300081110E94000083EB95E1892B49F080E034
:1027400090E0892B29F00E94B31581110C940000B0
:102750000895FC01A48DA80FB92FB11DA35ABF4F36
:102760002C91848D90E001968F739927848FA68990
:10277000B7892C93A089B1898C91837080648C93E4
:10278000938D848D981306C00288F389E02D808193
:102790008F7D80830895CF93DF93EC01888D88230C
:1027A000B9F0AA89BB89E889F9898C9185FD03C0B4
:1027B000808186FD0DC00FB607FCF7CF8C9185FF99
:1027C000F2CF808185FFEDCFCE010E94A913E9CF22
:1027D000DF91CF910895EF92FF920F931F93CF93C4
:1027E000DF93EC0181E0888F9B8D8C8D98131AC04C
:1027F000E889F989808185FF15C09FB7F894EE8933
:10280000FF896083E889F98980818370806480838F
:102810009FBF81E090E0DF91CF911F910F91FF90DA
:10282000EF900895F62E0B8D10E00F5F1F4F0F7382
:102830001127E02E8C8D8E110CC00FB607FCFACF3D
:10284000E889F989808185FFF5CFCE010E94A9131F
:10285000F1CFEB8DEC0FFD2FF11DE35AFF4FF0820E
:102860009FB7F8940B8FEA89FB8980818062CFCF74
:10287000CF92DF92EF92FF921F93CF93DF93EC0101
:102880006A017B01122FE889F98982E08083C114F3
:1028900081EED806E104F104A1F060E079E08DE377
:1028A00090E0A70196010E94301E21503109410994
:1028B00051095695479537952795211580E1380799
:1028C00098F0E889F989108260E874E88EE190E078
:1028D000A70196010E94301E21503109410951097A
:1028E0005695479537952795EC85FD853083EE8580
:1028F000FF852083188EEC89FD891083EA89FB8986
:10290000808180618083EA89FB89808188608083FF
:10291000EA89FB89808180688083EA89FB898081DC
:102920008F7D8083DF91CF911F91FF90EF90DF909B
:10293000CF900895CF93DF93EC01E881F981068071
:10294000F781E02D1995EA89FB8980818F7E80834C
:10295000EA89FB898081877F8083EA89FB8980817E
:102960008F778083EA89FB8980818F7D80838A8D40
:10297000898FDF91CF9108951F920F920FB60F921A
:1029800011240BB60F922F938F939F93EF93FF9386
:10299000E091240DF091250D8081E0912A0DF091B8
:1029A0002B0D82FD1DC0908180912D0D8F5F8F7347
:1029B00020912E0D821741F0E0912D0DF0E0EC5E9C
:1029C000F24F958F80932D0DFF91EF919F918F91F5
:1029D0002F910F900BBE0F900FBE0F901F90189568
:1029E0008081F2CF1F920F920FB60F9211240BB677
:1029F0000F922F933F934F935F936F937F938F9398
:102A00009F93AF93BF93EF93FF9384E19DE00E9468
:102A1000A913FF91EF91BF91AF919F918F917F91FA
:102A20006F915F914F913F912F910F900BBE0F903F
:102A30000FBE0F901F90189584E19DE00E94371300
:102A400021E0892B09F420E0822F0895E4E1FDE0E4
:102A50001382128288EE93E0A0E0B0E08483958335
:102A6000A683B78384E494E09183808385EC90E02F
:102A70009587848784EC90E09787868780EC90E048
:102A8000918B808B81EC90E0938B828B82EC90E039
:102A9000958B848B86EC90E0978B868B118E128EB3
:102AA000138E148E08951F920F920FB60F92112459
:102AB0000BB60F922F938F939F93EF93FF93E09119
:102AC000C10DF091C20D8081E091C70DF091C80D4C
:102AD00082FD1DC090818091CA0D8F5F8F73209100
:102AE000CB0D821741F0E091CA0DF0E0EF54F24FA8
:102AF000958F8093CA0DFF91EF919F918F912F91A8
:102B00000F900BBE0F900FBE0F901F9018958081F5
:102B1000F2CF1F920F920FB60F9211240BB60F92A5
:102B20002F933F934F935F936F937F938F939F93D5
:102B3000AF93BF93EF93FF9381EB9DE00E94A913A6
:102B4000FF91EF91BF91AF919F918F917F916F9185
:102B50005F914F913F912F910F900BBE0F900FBE41
:102B60000F901F90189581EB9DE00E94371321E094
:102B7000892B09F420E0822F0895E1EBFDE0138218
:102B8000128288EE93E0A0E0B0E084839583A68370
:102B9000B78384E494E09183808385E391E0958713
:102BA000848784E391E09787868780E391E0918B27
:102BB000808B81E391E0938B828B82E391E0958B14
:102BC000848B86E391E0978B868B118E128E138E09
:102BD000148E0895AF92BF92CF92DF92EF92FF9240
:102BE0000F931F93CF93DF936C017B018B01040F35
:102BF000151FEB015E01AE18BF08C017D10759F0D1
:102C00006991D601ED91FC910190F081E02DC60112
:102C10001995892B79F7C501DF91CF911F910F91FC
:102C2000FF90EF90DF90CF90BF90AF900895FB01A1
:102C300001900020E9F73197AF01461B570BDC01EB
:102C4000ED91FC910280F381E02D1994DB01149643
:102C50004D915C9115976D917C91DC01ED91FC910A
:102C60000280F381E02D19946115710511F00C9427
:102C7000171690E080E00895DC01ED91FC91019041
:102C8000F081E02D199462E574E00C9417160F930F
:102C90001F93CF93DF93EC010E9426168C01CE0187
:102CA0000E944316800F911FDF91CF911F910F91CA
:102CB00008950F931F93CF93DF938C01D0E0C0E072
:102CC0006115710519F00E941716EC01C8010E94E8
:102CD00043168C0F9D1FDF91CF911F910F91089587
:102CE0008F929F92AF92BF92EF92FF920F931F939A
:102CF000CF93DF93CDB7DEB7A1970FB6F894DEBFC1
:102D00000FBECDBF7C01FA01CB0119A2223008F41D
:102D10002AE08E010F5D1F4F822E912CB12CA12C29
:102D2000BF01A50194010E94301EF901CA016A3059
:102D30000CF5605DD8016E938D01232B242B252B80
:102D400079F790E080E0109721F0BD01C7010E9463
:102D50001716A1960FB6F894DEBF0FBECDBFDF9158
:102D6000CF911F910F91FF90EF90BF90AF909F90E8
:102D70008F900895695CDECFCF92DF92EF92FF9241
:102D80000F931F93CF93DF932115310581F4DC015D
:102D9000ED91FC910190F081E02D642FDF91CF91B6
:102DA0001F910F91FF90EF90DF90CF9019942A30F0
:102DB000310501F52AE077FF1DC06A017B01EC01B6
:102DC0006DE20E943C168C0144275527BA014C192C
:102DD0005D096E097F092AE0CE010E947016800FFE
:102DE000911FDF91CF911F910F91FF90EF90DF9096
:102DF000CF900895DF91CF911F910F91FF90EF90A9
:102E0000DF90CF900C9470169A01AB01770F660B90
:102E1000770B0C94BC160F931F93CF93DF93EC01A9
:102E20000E9404178C01CE010E944316800F911F4F
:102E3000DF91CF911F910F9108952115310541F434
:102E4000DC01ED91FC910190F081E02D642F19944B
:102E50000C9470169A01AB0170E060E00C941D17A1
:102E60002F923F924F925F926F927F928F929F929A
:102E7000AF92BF92CF92DF92EF92FF921F93CF93C8
:102E8000DF93EC016A017B01722EAB019601CB014D
:102E9000B6010E94652165E574E0811126C04601F6
:102EA0005701E894B7F82FEF3FEF4FE75FE7C50111
:102EB000B4010E94652181110CC02FEF3FEF4FE755
:102EC0005FE7C501B4010E94DB1E69E574E01816D6
:102ED00064F02FEF3FEF4FE75FE4C701B6010E94B8
:102EE000A5201816B4F46DE574E0CE01DF91CF9102
:102EF0001F91FF90EF90DF90CF90BF90AF909F9089
:102F00008F907F906F905F904F903F902F900C9498
:102F100017162FEF3FEF4FE75FECC701B6010E9496
:102F2000DB1E87FDE0CF20E030E0A901C701B6013C
:102F30000E94DB1E312C212C87FF09C06DE2CE01DF
:102F40000E943C161C01F7FAF094F7F8F09410E098
:102F500060E070E080E09FE3711641F020E030E037
:102F600040E251E40E94E51E1F5FF6CFA7019601E3
:102F70000E946F1E2B013C010E945E1F4B015C01F1
:102F80002AE0BC01A401CE010E9470167C01E20C73
:102F9000F31C1123B1F1C501B4010E948D1F9B01E7
:102FA000AC01C301B2010E946E1E4B015C016EE2D6
:102FB000CE010E943C16E80EF91E115010F120E0DF
:102FC00030E040E251E4C501B4010E94AA202B0187
:102FD0003C010E945E1F4B014AE050E0CE010E947E
:102FE0002A17E80EF91EB40190E080E00E948D1FC0
:102FF0009B01AC01C301B2010E946E1E4B015C013A
:10300000DCCFC701DF91CF911F91FF90EF90DF9050
:10301000CF90BF90AF909F908F907F906F905F9078
:103020004F903F902F9008950C9430170F931F935B
:10303000CF93DF93EC010E9430178C01CE010E94E8
:103040004316800F911FDF91CF911F910F9108952B
:103050000895883008F076C0E82FF0E0EE0FFF1FEB
:10306000E85DFD4F718360838150873008F03DC07B
:10307000E82FF0E08827E05CF74E8F4F0C94521E4B
:103080007D1847184F185B18681889189618809192
:1030900069008C7F482B40936900E89A08958091DD
:1030A0006900837F440F551F440F551F482B4093E1
:1030B0006900E99A0895809169008F7C74E0440F5B
:1030C000551F7A95E1F7482B40936900EA9A0895D5
:1030D000809169008F7366E0440F551F6A95E1F790
:1030E000482B40936900EB9A089580916A008C7F89
:1030F000482B40936A00EC9A089580916A00837F80
:10310000440F551F440F551F482B40936A00ED9AFA
:10311000089580916A008F7C24E0440F551F2A9502
:10312000E1F7482B40936A00EE9A089580916A0077
:103130008F7396E0440F551F9A95E1F7482B409303
:103140006A00EF9A08951F920F920FB60F92112402
:103150000BB60F922F933F934F935F936F937F9391
:103160008F939F93AF93BF93EF93FF93E0912C02C4
:10317000F0912D021995FF91EF91BF91AF919F9121
:103180008F917F916F915F914F913F912F910F9010
:103190000BBE0F900FBE0F901F9018951F920F92AD
:1031A0000FB60F9211240BB60F922F933F934F93AC
:1031B0005F936F937F938F939F93AF93BF93EF939F
:1031C000FF93E0912E02F0912F021995FF91EF915C
:1031D000BF91AF919F918F917F916F915F914F912F
:1031E0003F912F910F900BBE0F900FBE0F901F902D
:1031F00018951F920F920FB60F9211240BB60F92D3
:103200002F933F934F935F936F937F938F939F93EE
:10321000AF93BF93EF93FF93E0913002F0913102AF
:103220001995FF91EF91BF91AF919F918F917F91F0
:103230006F915F914F913F912F910F900BBE0F9027
:103240000FBE0F901F9018951F920F920FB60F92FE
:1032500011240BB60F922F933F934F935F936F936D
:103260007F938F939F93AF93BF93EF93FF93E091DF
:103270003202F09133021995FF91EF91BF91AF9116
:103280009F918F917F916F915F914F913F912F917E
:103290000F900BBE0F900FBE0F901F9018951F92AE
:1032A0000F920FB60F9211240BB60F922F933F93EC
:1032B0004F935F936F937F938F939F93AF93BF933E
:1032C000EF93FF93E0912802F09129021995FF9165
:1032D000EF91BF91AF919F918F917F916F915F918E
:1032E0004F913F912F910F900BBE0F900FBE0F90FB
:1032F0001F9018951F920F920FB60F9211240BB6C4
:103300000F922F933F934F935F936F937F938F937E
:103310009F93AF93BF93EF93FF93E0912A02F091B5
:103320002B021995FF91EF91BF91AF919F918F91D2
:103330007F916F915F914F913F912F910F900BBEB5
:103340000F900FBE0F901F9018951F920F920FB6FF
:103350000F9211240BB60F922F933F934F935F93CD
:103360006F937F938F939F93AF93BF93EF93FF934D
:10337000E0913402F09135021995FF91EF91BF91E0
:10338000AF919F918F917F916F915F914F913F91FD
:103390002F910F900BBE0F900FBE0F901F9018959E
:1033A0001F920F920FB60F9211240BB60F922F930C
:1033B0003F934F935F936F937F938F939F93AF93BD
:1033C000BF93EF93FF93E0913602F0913702199586
:1033D000FF91EF91BF91AF919F918F917F916F91ED
:1033E0005F914F913F912F910F900BBE0F900FBEA9
:1033F0000F901F901895FC01808191810C944D22B3
:10340000CF93DF93EC0188819981009711F00E949E
:103410004D22198218821D821C821B821A82DF9122
:10342000CF9108950F931F93CF93DF93EC018B01FE
:103430006F5F7F4F888199810E94D622009751F05B
:10344000998388831B830A8381E0DF91CF911F9149
:103450000F91089580E0F9CFCF93DF93EC0188813D
:103460009981892B49F08A819B818617970720F0E3
:1034700081E0DF91CF910895CE010E94121A882336
:10348000C1F38C819D81892B99F7E881F9811082A4
:10349000EFCFEF92FF920F931F93CF93DF93EC0147
:1034A0007B018A01BA010E942C1A81110BC0CE0146
:1034B0000E94001ACE01DF91CF911F910F91FF90D2
:1034C000EF9008951D830C83B701888199810E9434
:1034D000C023F0CFFC011182108213821282158268
:1034E00014826115710551F0FB0101900020E9F78C
:1034F0003197AF01461B570B0C94491A0895FB01F5
:1035000001900020E9F73197AF01461B570B0C944F
:10351000491A0F931F93CF93DF93CDB7DEB762970E
:103520000FB6F894DEBF0FBECDBF8C01CB01F80102
:1035300011821082138212821582148250E0BE0121
:103540006F5F7F4F0E94C723BE016F5F7F4FC8012F
:103550000E947F1A62960FB6F894DEBF0FBECDBFF1
:10356000DF91CF911F910F910895CF93DF93EC01DD
:103570006115710531F00E947F1ACE01DF91CF9164
:1035800008950E94001AF9CFEF92FF920F931F93B4
:10359000CF93DF93CDB7DEB7A1970FB6F894DEBF18
:1035A0000FBECDBF7C01CB01BA01F70111821082A1
:1035B000138212821582148242E0420F8E010F5F45
:1035C0001F4F0E949321BC01C7010E94B51AA1960A
:1035D0000FB6F894DEBF0FBECDBFDF91CF911F9124
:1035E0000F91FF90EF900895EF92FF920F931F932A
:1035F000CF93DF936115710541F480E0DF91CF91A6
:103600001F910F91FF90EF90089541155105B1F072
:103610007B01EC010C811D81040F151FB8010E9474
:103620002C1A882351F3288139818C819D81B7011F
:10363000820F931F0E94C0231D830C8381E0DECF85
:10364000CF93DF93EC01FB0144815581608171814F
:103650000E94F41A811103C0CE010E94001ACE010B
:10366000DF91CF910895CF93DF93EC016115710540
:1036700039F4CE010E94001ACE01DF91CF91089556
:10368000FB0101900020E9F73197AF01461B570B72
:103690000E94F41A882369F3EFCF08950E94111C49
:1036A0000E944D1B0E94380AC4E7D3E10E94D60A4B
:1036B0002097E1F30E947413F9CF1F920F920FB677
:1036C0000F9211242F933F938F939F93AF93BF93A8
:1036D00080914F0E9091500EA091510EB091520ECC
:1036E00030914E0E23E0230F2D3758F50196A11D82
:1036F000B11D20934E0E80934F0E9093500EA093C9
:10370000510EB093520E8091530E9091540EA09191
:10371000550EB091560E0196A11DB11D8093530E0A
:103720009093540EA093550EB093560EBF91AF9147
:103730009F918F913F912F910F900FBE0F901F90EF
:10374000189526E8230F0296A11DB11DD2CF2FB7E1
:10375000F89460914F0E7091500E8091510E90919F
:10376000520E2FBF08953FB7F8948091530E909159
:10377000540EA091550EB091560E26B5A89B05C0CB
:103780002F3F19F00196A11DB11D3FBFBA2FA92FE0
:10379000982F8827BC01CD01620F711D811D911DDD
:1037A00042E0660F771F881F991F4A95D1F7089549
:1037B0008F929F92AF92BF92CF92DF92EF92FF9241
:1037C0006B017C010E94B31B4B015C01C114D1044D
:1037D000E104F104E9F00E941B1E0E94B31B68196A
:1037E00079098A099B09683E73408105910570F348
:1037F00021E0C21AD108E108F10888EE880E83E0C2
:10380000981EA11CB11CC114D104E104F10429F7D4
:10381000FF90EF90DF90CF90BF90AF909F908F90F0
:103820000895789484B5826084BD84B5816084BD38
:1038300085B5826085BD85B5816085BDEEE6F0E029
:10384000808181608083E1E8F0E010828081826085
:103850008083808181608083E0E8F0E08081816006
:103860008083E1EBF0E0808184608083E0EBF0E036
:10387000808181608083E1E9F0E0808182608083E3
:10388000808181608083E0E9F0E0808181608083D5
:10389000E1EAF0E0808182608083808181608083C2
:1038A000E0EAF0E0808181608083E1E2F1E0808104
:1038B00082608083808181608083E0E2F1E08081AA
:1038C00081608083EAE7F0E080818460808380818A
:1038D0008260808380818160808380818068808332
:1038E0001092C10008951F93CF93DF93182FEB011F
:1038F00061E00E94B11D209739F460E0812FDF91D3
:10390000CF911F910C94ED1DCF3FD10511F461E0D3
:10391000F5CFE12FF0E0E052FD4FE491E150E231CC
:1039200008F0B3C0F0E08827E756F34E8F4F0C94B1
:10393000521EAB1CB31CB81CC21CCC1C451DD61C93
:10394000DE1CE61CF01CFA1C041D131D1D1D451D6C
:10395000271D311D3B1D84B5806884BDC7BDDF9127
:10396000CF911F91089584B5806284BDC8BDF7CF03
:1039700080918000806880938000D0938900C093FC
:103980008800EDCF80918000806280938000D0938A
:103990008B00C0938A00E3CF809180008860809381
:1039A0008000D0938D00C0938C00D9CF8091B0005F
:1039B00080688093B000C093B300D1CF8091B000F5
:1039C00080628093B000C093B400C9CF8091900012
:1039D000806880939000D0939900C0939800BFCFE7
:1039E00080919000806280939000D0939B00C09360
:1039F0009A00B5CF80919000886080939000D0931A
:103A00009D00C0939C00ABCF8091A0008068809304
:103A1000A0008091A0008F7B8093A000D093A9008C
:103A2000C093A8009CCF8091A00080628093A000EA
:103A3000D093AB00C093AA0092CF8091A000886081
:103A40008093A000D093AD00C093AC0088CF80914C
:103A50002001806880932001D0932901C093280120
:103A60007ECF80912001806280932001D0932B0132
:103A7000C0932A0174CF8091200188608093200137
:103A8000D0932D01C0932C016ACFC038D1050CF022
:103A90003ECF33CF8150823108F05AC0E82FF0E09A
:103AA0008827EA5AF24E8F4F0C94521E761D7A1DCB
:103AB000681D6E1D721DA81D7D1D831D871D8D1D1A
:103AC000911D951D9B1D9F1DA81DA31DA91DAD1D0D
:103AD000809180008F77809380000895809180008E
:103AE0008F7DF9CF80918000877FF5CF84B58F7768
:103AF00084BD089584B58F7DFBCF8091B0008F7712
:103B00008093B00008958091B0008F7DF9CF8091AF
:103B100090008F77809390000895809190008F7D22
:103B2000F9CF80919000877FF5CF8091A0008F77AB
:103B30008093A00008958091A0008F7DF9CF80919F
:103B4000A000877FF5CF809120018F77809320019F
:103B50000895809120018F7DF9CF80912001877F8A
:103B6000F5CFCF93DF9390E0FC01EA5DFC4F249109
:103B700084599C4FFC0184918823C9F090E0880F00
:103B8000991FFC01E453FC4FA591B491FC01EE5444
:103B9000FC4FC591D49161110DC09FB7F8948C91E1
:103BA000209582238C938881282328839FBFDF91CF
:103BB000CF910895623051F49FB7F8943C91822FD1
:103BC000809583238C93E8812E2BEFCF8FB7F894C9
:103BD000EC912E2B2C938FBFEACF1F93CF93DF93C3
:103BE000282F30E0F901E052FD4F8491F901EA5DA0
:103BF000FC4FD491F901E459FC4FC491CC23A9F0B6
:103C0000162F81110E944A1DEC2FF0E0EE0FFF1FCE
:103C1000EE54FC4FA591B4918FB7F894EC9111112B
:103C200008C0D095DE23DC938FBFDF91CF911F9129
:103C30000895DE2BF8CF089597FB072E16F4009415
:103C400007D077FD09D00E945A1E07FC05D03EF42C
:103C5000909581959F4F0895709561957F4F089538
:103C6000A1E21A2EAA1BBB1BFD010DC0AA1FBB1F80
:103C7000EE1FFF1FA217B307E407F50720F0A21BF2
:103C8000B30BE40BF50B661F771F881F991F1A945F
:103C900069F760957095809590959B01AC01BD0189
:103CA000CF010895EE0FFF1F881F8BBF0790F6917D
:103CB000E02D1994AA1BBB1B51E107C0AA1FBB1F13
:103CC000A617B70710F0A61BB70B881F991F5A95A8
:103CD000A9F780959095BC01CD0108955058BB2758
:103CE000AA270E94861E0C9457200E941E2038F09E
:103CF0000E94252020F039F49F3F19F426F40C94FB
:103D0000F41F0EF4E095E7FB0C94EE1FE92F0E94E0
:103D10007C2058F3BA17620773078407950720F0D1
:103D200079F4A6F50C949E200EF4E0950B2EBA2F94
:103D3000A02D0B01B90190010C01CA01A0011124B1
:103D4000FF27591B99F0593F50F4503E68F11A165D
:103D5000F040A22F232F342F4427585FF3CF4695EE
:103D600037952795A795F0405395C9F77EF41F1610
:103D7000BA0B620B730B840BBAF09150A1F0FF0FDA
:103D8000BB1F661F771F881FC2F70EC0BA0F621FC6
:103D9000731F841F48F4879577956795B795F795B6
:103DA0009E3F08F0B0CF9395880F08F09927EE0F4B
:103DB0009795879508950E94CA1F08F481E0089599
:103DC0000E942E20E3950C9468200E94F91E0C940A
:103DD00057200E94252058F00E941E2040F029F410
:103DE0005F3F29F00C94EE1F51110C949F200C940E
:103DF000F41F0E947C2068F39923B1F3552391F3BB
:103E0000951B550BBB27AA2762177307840738F049
:103E10009F5F5F4F220F331F441FAA1FA9F335D0A6
:103E20000E2E3AF0E0E832D091505040E695001C5A
:103E3000CAF72BD0FE2F29D0660F771F881FBB1F14
:103E4000261737074807AB07B0E809F0BB0B802DF2
:103E5000BF01FF2793585F4F3AF09E3F510578F01E
:103E60000C94EE1F0C949F205F3FE4F3983ED4F334
:103E7000869577956795B795F7959F5FC9F7880FF2
:103E8000911D9695879597F90895E1E0660F771F44
:103E9000881FBB1F621773078407BA0720F0621BD5
:103EA000730B840BBA0BEE1F88F7E09508950E9400
:103EB0005E1F6894B1110C949F2008950E94842085
:103EC00088F09F5798F0B92F9927B751B0F0E1F0DB
:103ED000660F771F881F991F1AF0BA95C9F714C08B
:103EE000B13091F00E949E20B1E008950C949E2084
:103EF000672F782F8827B85F39F0B93FCCF38695C4
:103F000077956795B395D9F73EF490958095709520
:103F100061957F4F8F4F9F4F0895E89409C097FB9D
:103F20003EF490958095709561957F4F8F4F9F4F90
:103F30009923A9F0F92F96E9BB279395F6958795D4
:103F400077956795B795F111F8CFFAF4BB0F11F497
:103F500060FF1BC06F5F7F4F8F4F9F4F16C088233E
:103F600011F096E911C0772321F09EE8872F762F74
:103F700005C0662371F096E8862F70E060E02AF0B5
:103F80009A95660F771F881FDAF7880F96958795A1
:103F900097F90895990F0008550FAA0BE0E8FEEF76
:103FA00016161706E807F907C0F012161306E407FD
:103FB000F50798F0621B730B840B950B39F40A26F6
:103FC00061F0232B242B252B21F408950A2609F4D4
:103FD000A140A6958FEF811D811D089597F99F67D8
:103FE00080E870E060E008959FEF80EC0895DF9333
:103FF000CF931F930F93FF92EF92DF927B018C017F
:10400000689406C0DA2EEF010E94BD20FE01E894FC
:10401000A5912591359145915591A6F3EF010E9407
:10402000861EFE019701A801DA9469F7DF90EF90F0
:10403000FF900F911F91CF91DF91089500240A9472
:104040001616170618060906089500240A94121673
:1040500013061406050608950C94F41F0E9484208C
:10406000D8F3E894E0E0BB279F57F0F02AED3FE05B
:1040700049EC06C0EE0FBB0F661F771F881F28F0A4
:10408000B23A62077307840728F0B25A620B730BC7
:10409000840BE3959A9572F7803830F49A95BB0FAC
:1040A000661F771F881FD2F790480C946C21092E49
:1040B0000394000C11F4882352F0BB0F40F4BF2B83
:1040C00011F460FF04C06F5F7F4F8F4F9F4F0895C3
:1040D000EF93E0FF07C0A2EA2AED3FE049EC5FEB77
:1040E0000E94861E0E9457200F90039401FC905856
:1040F000E4EEF0E00C947F2157FD9058440F551FDB
:1041000059F05F3F71F04795880F97FB991F61F059
:104110009F3F79F087950895121613061406551FD0
:10412000F2CF4695F1DF08C0161617061806991F3C
:10413000F1CF86957105610508940895E894BB2731
:1041400066277727CB0197F908950E94CA1F08F4C4
:104150008FEF08950E94BD200C9457200E941E20CE
:1041600038F00E94252020F0952311F00C94EE1FCA
:104170000C94F41F11240C949F200E947C2070F357
:10418000959FC1F3950F50E0551F629FF001729FFC
:10419000BB27F00DB11D639FAA27F00DB11DAA1F0B
:1041A000649F6627B00DA11D661F829F2227B00D58
:1041B000A11D621F739FB00DA11D621F839FA00DE3
:1041C000611D221F749F3327A00D611D231F849F33
:1041D000600D211D822F762F6A2F11249F5750408A
:1041E0009AF0F1F088234AF0EE0FFF1FBB1F661F05
:1041F000771F881F91505040A9F79E3F510580F0CE
:104200000C94EE1F0C949F205F3FE4F3983ED4F390
:10421000869577956795B795F795E7959F5FC1F771
:10422000FE2B880F911D9695879597F908959F937A
:104230000E942E200F9007FCEE5F0C94682019F46A
:1042400016F40C94F41F0C946A210E948420B8F395
:104250009923C9F3B6F39F57550B87FF0E94782126
:104260000024A0E640EA900180585695979528F4DE
:10427000805C660F771F881F20F0261737074807D6
:1042800030F4621B730B840B202931294A2BA6952D
:1042900017940794202531254A2758F7660F771F72
:1042A000881F20F026173707480730F4620B730B7E
:1042B000840B200D311D411DA09581F7B901842F7C
:1042C0009158880F9695879508950E94CA1F880B6C
:1042D000990B08959F3F31F0915020F48795779581
:1042E0006795B795880F911D9695879597F90895CD
:1042F00091505040660F771F881FD2F708959F9303
:104300008F937F936F93FF93EF939B01AC010E9478
:10431000AA20EF91FF910E94F71F2F913F914F919B
:104320005F910C94AA20EF920F931F93CF93DF938A
:10433000E80134E047FD34E1042E000C550B57FF33
:1043400003C0519541955109E32E022F242FAE0150
:104350000E94F723CE01DF91CF911F910F91EF9033
:1043600008950F931F93CF93DF938230910510F43C
:1043700082E090E0E091590EF0915A0E30E020E09A
:10438000B0E0A0E0309799F42115310509F44AC056
:10439000281B390B24303105D8F58A819B816115A2
:1043A000710589F1FB0193838283FE0111C0408175
:1043B00051810281138148175907E0F048175907C6
:1043C00099F4109761F012960C93129713961C9320
:1043D0003296CF01DF91CF911F910F9108950093F5
:1043E000590E10935A0EF4CF2115310551F0421792
:1043F000530738F0A901DB019A01BD01DF01F80183
:10440000C1CFEF01F9CF90935A0E8093590ECDCFC3
:10441000FE01E20FF31F81939193225031093983FA
:104420002883D7CF2091570E3091580E232B41F47B
:1044300020910202309103023093580E2093570EC0
:1044400020910002309101022115310541F42DB770
:104450003EB74091040250910502241B350BE091B8
:10446000570EF091580EE217F307A0F42E1B3F0BE6
:104470002817390778F0AC014E5F5F4F24173507D6
:1044800048F04E0F5F1F5093580E4093570E819384
:1044900091939FCFF0E0E0E09CCFCF93DF93009724
:1044A000E9F0FC01329713821282A091590EB0916B
:1044B0005A0EED0130E020E01097A1F42081318107
:1044C000820F931F2091570E3091580E28173907ED
:1044D00009F061C0F093580EE093570EDF91CF9131
:1044E0000895EA01CE17DF07E8F54A815B819E0156
:1044F00041155105B1F7E901FB83EA8349915991CF
:10450000C40FD51FEC17FD0761F4808191810296DD
:10451000840F951FE90199838883828193819B830E
:104520008A83F0E0E0E012968D919C9113970097BA
:10453000B9F52D913C911197CD010296820F931FF1
:104540002091570E3091580E2817390739F63097B9
:1045500051F510925A0E1092590EB093580EA09326
:10456000570EBCCFD383C28340815181840F951FE6
:10457000C817D90761F44E5F5F4F88819981480F52
:10458000591F518340838A819B81938382832115A4
:10459000310509F0B0CFF0935A0EE093590E9ECF3B
:1045A000FD01DC01C0CF13821282D7CF4F925F9200
:1045B0006F927F928F929F92AF92BF92CF92DF9233
:1045C000EF92FF920F931F93CF93DF938C0100978D
:1045D00099F4CB01DF91CF911F910F91FF90EF9054
:1045E000DF90CF90BF90AF909F908F907F906F9013
:1045F0005F904F900C94B121FC01E60FF71F9C01D6
:1046000022503109E217F30708F4AEC0D901CD9169
:10461000DC911197C617D70720F1C530D10578F086
:10462000CE0104978617970750F0C61BD70B229729
:10463000C193D1936D937C93CF010E944D22C80109
:10464000DF91CF911F910F91FF90EF90DF90CF906E
:10465000BF90AF909F908F907F906F905F904F90A2
:1046600008955B01AC1ABD0A4C018C0E9D1EA091F1
:10467000590EB0915A0E512C412CF12CE12C10976F
:1046800031F58091570E9091580E8815990509F0D3
:104690005CC04616570608F058C080910002909101
:1046A0000102009741F48DB79EB7409104025091EA
:1046B0000502841B950BE817F90708F055C0F09325
:1046C000580EE093570EF90171836083B8CF8D9136
:1046D0009C91119712966C90129713967C90139759
:1046E000A815B90559F56C0142E0C40ED11CCA14D5
:1046F000DB0420F1AC014A195B09DA011296159727
:1047000080F06282738251834083D9016D937C93E0
:10471000E114F10471F0D7011396FC93EE93129714
:104720008ECF22968C0F9D1FF90191838083F30118
:10473000EFCFF0935A0EE093590E81CF48165906E9
:1047400008F42C017D01D3019ACFCB010E94B12145
:104750007C01009749F0AE01B8010E94B723C8015F
:104760000E944D2287016BCF10E000E068CFFB0173
:10477000DC0102C001900D9241505040D8F70895DD
:10478000FB01DC0101900D920020E1F70895453214
:10479000510520F4423010F00C94D223FB0110821A
:1047A000CB010895BB274A3031F4992322F4BDE2AE
:1047B000909581959F4F0C94DE23BB27FB015527D5
:1047C000AA27880F991FAA1FA41710F0A41B83956E
:1047D0005051B9F7A05DAA3308F0A95DA1930097E5
:1047E00079F7B111B1931192CB010C9448268F92B5
:1047F0009F92AF92BF92CF92DF92EF92FF920F9370
:104800001F93CF93DF9300D000D000D0CDB7DEB799
:104810006A01F22EB02E102FFBE3AF2EA01608F483
:104820001BE31F5F012F27E0AE014F5F5F4F0E9428
:104830007025BC018981982F9970913009F44EC080
:104840009BE2E1FC04C09E2D9170E0FC49C05E2D0E
:104850005071E82FE87083FF55C084E0911101C0CA
:1048600083E0EF2DE81B8F1508F0E0E0D6018E2FD6
:1048700020E25523C9F1992329F0D6019C93C60162
:1048800001966C0196012D5F3F4FE2FE33C08EE42E
:10489000D6018C9391E411969C93119712968C9368
:1048A000D9018E2F90E281112AC0E20FF32FF11D62
:1048B00010828EEF9FEF29960FB6F894DEBF0FBEE1
:1048C000CDBFDF91CF911F910F91FF90EF90DF90BF
:1048D000CF90BF90AF909F908F9008959DE2B7CFFB
:1048E00090E2B5CF2D9381508111FCCFCE0ED11C1B
:1048F000E0E0C1CF8EE6D6018C9391E6CCCF9D93BC
:104900008150D1CF482F447082FF3DC084E0911187
:1049100001C083E08F1510F4EF2DE81BD6018E2F18
:1049200020E2552309F1992329F0D6019C93C60171
:1049300001966C0196012D5F3F4FE2FE1BC089E49A
:10494000D6018C938EE411968C93119786E412967F
:104950008C93D9018E2F90E2882309F4A6CF9D93E2
:104960008150FACF2D9381508111FCCFCE0ED11CF6
:10497000E0E0D9CF89E6D6018C938EE611968C9330
:10498000119786E6E4CF9B0177FF02C030E020E07C
:10499000A1E0B0E0911102C0B0E0A0E0F9013196D1
:1049A000AE0FBF1F8B2C912CBB2009F461C05401AA
:1049B000EFEFAE1ABE0AAA0DBB1DFA161B0619F0C0
:1049C00014F04F2D4A1B511188C0E3FC59C07601E9
:1049D000A42FB0E2A1114FC0C40ED11C992309F439
:1049E0005BC040E0D6011196F60190836D0155231E
:1049F00009F448C0012F060F9A81582F507184FF87
:104A000003C0913309F4015010160CF047C009306F
:104A100008F008E0EEE2FE2E5B01A01AB108850165
:104A20009194819491082F3F320729F4D601FC928A
:104A3000F60131966F016217730794F1021713079D
:104A40007CF5DB01A21BB30BAA24A394B12CAC0E02
:104A5000BD1EAA0DBB1D11968C9121503109D601A6
:104A6000119628153905F4F0F60180836D01DBCF2E
:104A7000B12CA12CA0CFF701B1937F01A150AACFF7
:104A80009111B0CFD601942F50E302C05D939150A5
:104A90009111FCCFC40ED11C40E0ACCF01E0BACFE5
:104AA00080E3DBCF6217730731F4963388F49533D4
:104AB00011F4552369F0F6018083FD01842F90E203
:104AC000811108C0A40FB11D1C9290E080E0F3CECC
:104AD00081E3F1CF91938150F3CF911183CF8ACFAE
:104AE000283008F027E03327DA01990F311D87FDC0
:104AF000916000966105710539F432602E5F3D9337
:104B000030E32A95E1F708959F3F30F08038710532
:104B1000610509F03C5F3C5F3D93913008F080688F
:104B2000911DDF93CF931F930F93FF92EF92192F55
:104B3000987F9695E92F96959695E90FFF27E05C6B
:104B4000FD4F99273327EE24FF24A701E7010590A5
:104B50000894079428F4360FE71EF81E491F511DCC
:104B6000660F771F881F991F0694A1F70590079479
:104B700028F4E70EF81E491F561FC11D770F881F26
:104B8000991F661F0694A1F70590079428F4F80E64
:104B9000491F561FC71FD11D880F991F661F771FFA
:104BA0000694A1F70590079420F4490F561FC71FDC
:104BB000D81F990F661F771F881F0694A9F7849145
:104BC0001095177041F0D695C79557954795F7946E
:104BD000E7941A95C1F7E6EEF1E068941590159107
:104BE00035916591959105907FE27395E118F10AF1
:104BF000430B560BC90BD009C0F7E10CF11E431F44
:104C0000561FC91FD01D7EF4703311F48A95E6CF6C
:104C1000E894015030F0080F0AF40027021708F456
:104C2000202F2395022F7A3328F079E37D932A955C
:104C3000E9F710C07D932A9589F6069497956795B4
:104C4000379517951794E118F10A430B560BC90BCA
:104C5000D00998F023957E9173957A3308F070E32C
:104C60007C932013B8F77E9170617D9330F083952B
:104C700071E37D9370E32A95E1F71124EF90FF90A3
:104C80000F911F91CF91DF91992787FD90950895FE
:104C9000DC01FC01672F71917723E1F7329704C0A3
:104CA0007C916D9370836291AE17BF07C8F308952E
:104CB00011E0C6EFD1E000E006C0802FFE010E94A7
:104CC000521E2196011DC73FD10780E00807A9F7B2
:044CD000F894FFCF86
:104CD40000005B0E8000FFFF0000803F0000A04149
:104CE40000002041000020410000F041FFFFF6FFDA
:104CF40000006143000007432818281828182818C2
:104D040028182818281828184469737420536574BF
:104D1400706F696E743A200020204F75747075743A
:104D2400205049443A200044726F766520666F72C1
:104D3400776172642120202020202044726F7665E0
:104D440020446973743A2000233D3D3D3D3D3D3D83
:104D54003D3D3D3D3D3D3D3D3D3D3D3D3D3D3D3D7F
:104D64003D3D3D3D3D3D3D3D3D3D3D3D3D3D3D3D6F
:104D74003D3D3D3D3D3D3D005475726E6564206F83
:104D84006E20506F696E74212020202020205475DD
:104D9400726E656420416E676C653A2000233D3D68
:104DA4003D3D3D3D3D3D3D3D3D3D3D2044726976AB
:104DB4006520436F6E74726F6C20506F696E7473EC
:104DC400203D3D3D3D3D3D3D3D3D3D3D3D0053632D
:104DD400686E69747470756E6B742020732E783AE3
:104DE40020002020732E793A20004D6974746520C8
:104DF400547565722020642E783A20002020642E99
:104E0400793A20005261646975733A200057696EDB
:104E14006B656C205068693A200044697374616E54
:104E24007A3A2000233D3D3D3D3D3D3D3D3D3D2005
:104E34004564676520506F696E7473203D3D3D3D48
:104E44003D3D3D3D3D3D3D00446F6F7220666F75B5
:104E54006E642100233D3D3D3D3D3D3D3D3D3D20B6
:104E6400446F6F7220506F696E7473203D3D3D3DF9
:104E74003D3D3D3D3D3D3D002020783A2000202031
:104E8400793A2000446F6F72496E6465783A202045
:104E94000043414E205772697465202D2054657378
:104EA40074696E67207472616E736D697373696F70
:104EB4006E206F662043414E20427573206D6573EA
:104EC40073616765730043414E20496E6974206FB6
:104ED4006B0043616E277420696E69742043414EF0
:104EE400004C494441522D5363616E0043616C632D
:104EF400756C61746520416E676C65004572726FF4
:104F0400722C2052657365742053797374656D0037
:104F140000000000EB13EA156513CB13371351138C
:104F240043130D0A006E616E00696E66006F76664B
:024F340000007B
:00000001FF
