:100000000C9434020C94FB1C0C94261D0C94511D72
:100010000C947C1D0C94A71D0C94D21D0C94FD1DFA
:100020000C94281E0C9465020C9465020C946502D5
:100030000C9465020C9465020C9465020C946502A4
:100040000C9465020C9465020C9465020C94650294
:100050000C9465020C9465020C9465020C949B1F31
:100060000C9465020C9414190C944A190C946502B2
:100070000C9465020C9465020C9465020C94650264
:100080000C9465020C9465020C9465020C94650254
:100090000C9465020C9465020C9465020C94650244
:1000A0000C9465020C9465020C9465020C94650234
:1000B0000C9465020C9465020C9465020C94650224
:1000C0000C9465020C9465020C9465020C94650214
:1000D0000C9465020C9465020C94AB190C94E11914
:1000E0000C946502084AD73B3BCE016E84BCBFFD31
:1000F000C12F3D6C74319ABD56833DDA3D00C77FF8
:1001000011BED9E4BB4C3E916BAAAABE0000008090
:100110003F072C7AA5BA6CC590DA3B9365FC8BBC83
:1001200053F810FD3C5692834DBD879D3AB63DCBAA
:10013000C9BF5BBE73DA0FC93F05A84CCDB2D44E20
:10014000B93836A9020C50B9918688083CA6AAAAEB
:100150002ABE000000803F000C94A9170C94F620E2
:100160000C94E11C0C94A6210C94AC210C94CE0EA2
:100170000C94A70E0C94C1210C94E6210C944221FE
:100180000C9443180C9465210C94B8210C94142100
:100190000C947E190C94BD170C94EB210C9438210F
:1001A0000C94B0210C94A71C0C94DD210C940A2112
:1001B0000C94C30E0C94CF210C94F1200C942318B2
:1001C0000C9400210C94E9200C94C01C0C948F1703
:1001D0000C94D3210C94E90E0C949D0E0C942421C4
:1001E0000C940B1A0C949B170C9483210C949F1C59
:1001F0000C94EC0E0C94AB0E0C94B31C0C94BB2121
:100200000C9467020C94E1210C94D9210C94151ADA
:100210000C9479210C946F210C94E7210C94ED0E31
:100220000C94B70E0C94CB210C945B210C94CC173E
:100230000C941C210C9474190C94D51C0C94421A27
:100240000C94B4210C942E210C94C5210C945A0FBB
:100250000C94EE1C0C9451210C94DF0E0C94801C19
:1002600000407A10F35A00A0724E18090010A5D46D
:10027000E80000E87648170000E40B54020000CACA
:100280009A3B000000E1F505000080969800000010
:1002900040420F000000A08601000000102700006F
:1002A0000000E803000000006400000000000A00F5
:1002B000000000000100000000002C76D888DC67F8
:1002C0004F0823DFC1DFAE59E1B1B796E5E3E45350
:1002D000C63AE651997696E8E6C28426EB898C9B6D
:1002E00062ED407C6FFCEFBC9C9F40F2BAA56FA50D
:1002F000F490055A2AF75C936B6CF9676DC11BFC8F
:10030000E0E40D47FEF520E6B500D0ED902E0300A9
:10031000943577050080841E080000204E0A0000F6
:1003200000C80C333333330F986E12831141EF8DB5
:100330002114893BE65516CFFEE6DB18D1844B38F5
:100340001BF77C1D901DA4BBE424203284725E2226
:100350008100C9F124ECA1E53D2700000A0B020948
:100360000C0D0E080703040100000000000000004F
:10037000000000000000000000000000000000007D
:10038000000000000000121110000000000000003A
:10039000000000000000000000000000000000005D
:1003A0000102102020080810204010204080020187
:1003B000020108040201010204081020408080406C
:1003C000201008040201800402018040201008046B
:1003D0000201080402010102040810204080010209
:1003E00004081020408005050505070508080808D1
:1003F000020202020A0A08080404040401010101BD
:1004000001010101030303030303030304070707B7
:100410000C0C0C0C0C0C0C0C02020202060606065C
:10042000060606060B0B0B0B0B0B0B0B000022003A
:10043000250028002B002E003100340002010000AE
:10044000050108010B0100002100240027002A00FB
:100450002D003000330001010000040107010A01F2
:10046000ED0E7E19151A5A0F11241FBECFEFD1E2DF
:10047000DEBFCDBF00E00CBF14E0A0E0B2E0E8E2D8
:10048000F6E500E00BBF02C007900D92A43EB10755
:10049000D9F72EE0A4EEB4E001C01D92A33EB2074E
:1004A000E1F712E0C3E3D2E000E006C021970109C2
:1004B000802FFE010E949022C033D10780E0080700
:1004C000A9F70E948C1F0C94022B0C9400008091C1
:1004D0001C0290911D02019629F410921D021092A7
:1004E0001C0208958FEF9FEF90931D0280931C02D2
:1004F00008952EE0EEE8FDE0DF01322F1D923A95DF
:10050000E9F7E2EAF8E0DF01322F1D923A95E9F7C8
:10051000E6EEF5E0DF011D922A95E9F710929105CC
:100520001092900590931D0280931C0208954F92A3
:100530005F926F927F928F929F92AF92BF92CF9273
:10054000DF92EF92FF920F931F93CF93DF9300D030
:1005500000D000D01F921F92CDB7DEB7E982FA8299
:100560000B831C832D833E834F83588769877A874B
:100570008B87CE0101960E94A312882309F4D5C06F
:1005800089819A818F3F974009F0CFC0B884A984B0
:100590007A846B840E94E51F6B017093E50460937D
:1005A000E40400910602109107020F3F100709F4BE
:1005B000B6C06A2D70E0762F66276B0D711D072E71
:1005C000000C880B990B0E940D2427ED33EA4AEAB0
:1005D00051E40E9463232BED3FE049EC50E40E947C
:1005E000502520E030E040E752E40E94632327EDED
:1005F00033EA40E35EE30E9450254B015C01662D27
:1006000070E0762F6627670D711D072E000C880B92
:10061000990B0E940D2427ED33EA4AEA51E40E9427
:1006200063232BED3FE049EC50E40E94502520E08D
:1006300030E040E752E40E94632327ED33EA40E3D1
:100640005EE30E9450252B013C01C01AD10AB6017D
:10065000DD0C880B990B0E940D246B017C01A50118
:100660009401C301B2010E94BD2228EB3EE145E0A6
:100670005FE30E946323A70196010E94502520E0BA
:1006800030E04AE754E40E94632320E030E044E392
:1006900053E40E9450252BED3FE049E450E40E94D2
:1006A00063239B01AC0160917E0570917F05809171
:1006B0008005909181050E94BE2260937E05709313
:1006C0007F058093800590938105A3019201C50168
:1006D000B4010E94BE2220E030E040E05FE30E94CF
:1006E0005025A70196010E94502520E030E04AE7FE
:1006F00054E40E9463239B01AC0160912A05709130
:100700002B0580912C0590912D050E94BE226093AF
:100710002A0570932B0580932C0590932D050E943C
:10072000E51F70930702609306022B960FB6F894AC
:10073000DEBF0FBECDBFDF91CF911F910F91FF9014
:10074000EF90DF90CF90BF90AF909F908F907F9071
:100750006F905F904F900895AF92BF92CF92DF92CB
:10076000EF92FF920F931F93CF93DF9300D000D0AF
:1007700000D01F921F92CDB7DEB7588769877A875E
:100780008B878EE390E09A838983007E00610B83E0
:10079000CC82DD82AE82BF8240E060EE8FE00E94BC
:1007A0003212CE0101960E9407136AE070E080E0E9
:1007B00090E00E9416202B960FB6F894DEBF0FBE75
:1007C000CDBFDF91CF911F910F91FF90EF90DF9000
:1007D000CF90BF90AF9008954F925F926F927F92AB
:1007E0008F929F92AF92BF92CF92DF92EF92FF9241
:1007F0000F931F93CF93DF93CDB7DEB767970FB6F5
:10080000F894DEBF0FBECDBF2B013C014A01E98049
:10081000FA800B811C812D813E814F81588569852D
:100820007A858B850E94970220E030E048EC52E404
:10083000C301B2010E9463236093320570933305B4
:10084000809334059093350580912A0590912B056E
:10085000A0912C05B0912D05809326059093270536
:10086000A0932805B093290586EE94E00E946C13AE
:1008700010927A0510927B0510927C0510927D05EE
:1008800080917E0590917F05A0918005B0918105B2
:100890008093760590937705A0937805B0937905BA
:1008A00086E395E00E946C13609172057091730568
:1008B000809174059091750590580E94D5235B0135
:1008C0006091220570912305809124059091250562
:1008D0000E94D5236B01E980FA800B811C812D8158
:1008E0003E814F81588569857A858B850E94AC034E
:1008F000C0902A05D0902B05E0902C05F0902D0596
:10090000A7019601609132057091330580913405FD
:10091000909135050E94BD222B013C012DEC3CEC51
:100920004CE45DE30E94592387FF45C02DEC3CEC6D
:100930004CE45DEBC301B2010E9443251816DCF5BF
:1009400022E0B701A601CE0142960E941C1F68E377
:1009500072E0CE010C960E94C21EBE016E5E7F4FF9
:10096000CE010C960E94781FBC018CE99DE00E948C
:100970009F1ACE010C960E94531ECE0142960E94F1
:10098000531E69E572E08CE99DE00E94B11A109255
:100990007E0510927F0510928005109281051092BD
:1009A0002A0510922B0510922C0510922D0590927D
:1009B0001D0280921C0267960FB6F894DEBF0FBE30
:1009C000CDBFDF91CF911F910F91FF90EF90DF90FE
:1009D000CF90BF90AF909F908F907F906F905F90DF
:1009E0004F9008954F925F926F927F928F929F9255
:1009F000AF92BF92CF92DF92EF92FF920F931F932D
:100A0000CF93DF93CDB7DEB767970FB6F894DEBF0D
:100A10000FBECDBF2B013C014A01E980FA800B815A
:100A20001C812D813E814F81588569857A858B8512
:100A30000E94970240927A0550927B0560927C0555
:100A400070927D0580917E0590917F05A091800533
:100A5000B09181058093760590937705A0937805F2
:100A6000B093790586E395E00E946C13609172055E
:100A700070917305809174059091750590580E944E
:100A8000D5235B01D12CC12CE980FA800B811C811C
:100A90002D813E814F81588569857A858B850E949D
:100AA000AC0320E030E0A901C301B2010E9443255C
:100AB000181624F077FA709477F87094C0907E0539
:100AC000D0907F05E0908005F090810520E030E037
:100AD000A901C701B6010E944325A7019601181676
:100AE0000CF05058C301B2010E94BD222B013C0101
:100AF0002DEC3CEC4CEC5DE30E94592387FF3DC09C
:100B00002DEC3CEC4CEC5DEBC301B2010E944325A3
:100B100018169CF522E0B701A601CE0142960E946C
:100B20001C1F69E872E0CE010C960E94C21EBE0135
:100B30006E5E7F4FCE010C960E94781FBC018CE93F
:100B40009DE00E949F1ACE010C960E94531ECE017A
:100B500042960E94531E69E572E08CE99DE00E9476
:100B6000B11A10927E0510927F05109280051092A6
:100B7000810590921D0280921C0267960FB6F89430
:100B8000DEBF0FBECDBFDF91CF911F910F91FF90C0
:100B9000EF90DF90CF90BF90AF909F908F907F901D
:100BA0006F905F904F9008954F925F926F927F92F7
:100BB0008F929F92AF92BF92CF92DF92EF92FF926D
:100BC000CF93DF93CDB7DEB764970FB6F894DEBF4F
:100BD0000FBECDBF20E030E044E152E460919805C3
:100BE0007091990580919A0590919B050E94BD2274
:100BF0002B013C0120E030E040ED51E460919C0588
:100C000070919D0580919E0590919F050E94BE2246
:100C10004B015C0120E030E044E152E46091A60524
:100C20007091A7058091A8059091A9050E94BD2209
:100C30006B017C0120E030E040ED51E46091AA05B9
:100C40007091AB058091AC059091AD050E94BE22DC
:100C500069837A838B839C83D301C201B0588D83CF
:100C60009E83AF83B8878093980590939905A0934E
:100C70009A05B0939B05D501C401B05889879A871E
:100C8000AB87BC8780939C0590939D05A0939E05A0
:100C9000B0939F05D701C601B0588D879E87AF8757
:100CA000B88B8093A6059093A705A093A805B09351
:100CB000A90589819A81AB81BC81B058898B9A8BB7
:100CC000AB8BBC8B8093AA059093AB05A093AC052E
:100CD000B093AD05A3019201C301B2010E9450255A
:100CE0002B013C01A5019401C501B4010E945025CE
:100CF0009B01AC01C301B2010E94BE220E94CB2520
:100D00000E94D52370939505609394052D813E81B3
:100D10004F81588569857A858B859C850E946323E0
:100D20000E942A2320E030E044E353E40E9450254F
:100D30002BED3FE049E450E40E9463230E94D52359
:100D4000A2E9B5E06D937C93A7019601C701B601B6
:100D50000E9450256B017C0129813A814B815C8185
:100D6000CA01B9010E9450259B01AC01C701B6011F
:100D70000E94BE220E94CB250E94D5237093A3051A
:100D80006093A2052D853E854F85588969897A89AA
:100D90008B899C890E9463230E942A2320E030E0F3
:100DA00044E353E40E9450252BED3FE049E450E436
:100DB0000E9463230E94D5237093A1056093A00530
:100DC0006BE273E08CE99DE00E94B11A69E073E088
:100DD0008CE99DE00E948C1A4091980550919905EC
:100DE00060919A0570919B0522E030E08CE99DE0CE
:100DF0000E946C1C62E573E08CE99DE00E948C1AF5
:100E000040919C0550919D0560919E0570919F05B4
:100E100022E030E08CE99DE00E946C1C68E573E004
:100E20008CE99DE00E948C1A609194057091950563
:100E30004AE050E08CE99DE00E945C1B61E673E0B3
:100E40008CE99DE00E948C1AE2E9F5E060817181F5
:100E50004AE050E08CE99DE00E94631B69E073E08A
:100E60008CE99DE00E948C1A4091A6055091A7053F
:100E70006091A8057091A90522E030E08CE99DE021
:100E80000E946C1C62E573E08CE99DE00E948C1A64
:100E90004091AA055091AB056091AC057091AD05EC
:100EA00022E030E08CE99DE00E946C1C68E573E074
:100EB0008CE99DE00E948C1A6091A2057091A305B7
:100EC0004AE050E08CE99DE00E945C1B61E673E023
:100ED0008CE99DE00E948C1A6091A0057091A1059B
:100EE0004AE050E08CE99DE064960FB6F894DEBFCE
:100EF0000FBECDBFDF91CF91FF90EF90DF90CF90ED
:100F0000BF90AF909F908F907F906F905F904F9029
:100F10000C94631B4F925F926F927F928F929F927D
:100F2000AF92BF92CF92DF92EF92FF92CF93DF9377
:100F300000D000D000D01F92CDB7DEB79A87898746
:100F40000E94D405E0909405F09095058091A2054B
:100F50009091A305E80EF91EF7FE03C08FEFE81A83
:100F6000F80AF594E7942091A6053091A7054091E1
:100F7000A8055091A90560919805709199058091F7
:100F80009A0590919B050E94BE2220E030E040E04F
:100F90005FE30E9450254B015C012091AA0530912E
:100FA000AB054091AC055091AD0560919C057091E9
:100FB0009D0580919E0590919F050E94BE2220E094
:100FC00030E040E05FE30E9450252B013C0160913E
:100FD0009205709193058091A0059091A105680FED
:100FE000791F77FF02C06F5F7F4F75956795072E5A
:100FF000000C880B990B0E940D2460938A05709356
:101000008B0580938C0590938D05B7010F2C000CF8
:10101000880B990B0E940D246093820570938305C1
:1010200080938405909385056BE673E08CE99DE0E1
:101030000E94B11A69E073E08CE99DE00E948C1A6D
:1010400022E030E0B501A4018CE99DE00E946C1C17
:1010500062E573E08CE99DE00E948C1A22E030E0AA
:10106000B301A2018CE99DE00E946E1C6EE173E069
:101070008CE99DE00E948C1A40918A0550918B0565
:1010800060918C0570918D0522E030E08CE99DE047
:101090000E946E1C63E973E08CE99DE00E948C1A4B
:1010A0004AE050E0B7018CE99DE00E94631B80910B
:1010B0001C0290911D02019709F07AC120919805B8
:1010C0003091990540919A0550919B056091A60534
:1010D0007091A7058091A8059091A9050E94BD2255
:1010E00020E030E044EB52EC0E9450256B017C0183
:1010F00020919C0530919D0540919E0550919F0542
:101100006091AA057091AB058091AC059091AD05F9
:101110000E94BD229B01AC01C701B6010E9463235E
:1011200069837A838B839C8320E030E044EB52E434
:10113000C501B4010E94BD226B017C0129813A8165
:101140004B815C81C301B2010E94BD224B015C0155
:10115000A7019601C701B6010E9450252B013C0151
:10116000A5019401C501B4010E9450259B01AC0169
:10117000C301B2010E94BE222B013C010E94CB257B
:101180006D837E838F839887A7019601C501B40183
:101190000E9463230E942A2320E030E044E353E4CA
:1011A0000E9450252BED3FE049E450E40E94632368
:1011B0000E94D523072E000C880B990B0E940D244A
:1011C00060938A0570938B0580938C0590938D05B1
:1011D0006D817E818F8198850E94D523072E000C1A
:1011E000880B990B0E940D246093820570938305F0
:1011F00080938405909385056DE973E08CE99DE00B
:101200000E94B11A69E073E08CE99DE00E948C1A9B
:1012100022E030E0B701A6018CE99DE00E946C1C41
:1012200062E573E08CE99DE00E948C1A22E030E0D8
:10123000B501A4018CE99DE00E946E1C6EE173E093
:101240008CE99DE00E948C1A40918A0550918B0593
:1012500060918C0570918D0522E030E08CE99DE075
:101260000E946E1C63E973E08CE99DE00E948C1A79
:1012700040918205509183056091840570918505A8
:1012800022E030E08CE99DE00E946E1CC301B201B7
:101290000E94CB252B013C0129813A814B815C8145
:1012A000CA01B9010E94502520E030E24DEF55E41B
:1012B0000E94BE220E94CB256D837E838F839887F8
:1012C00020E030E044EB52E4C701B6010E94502513
:1012D0006B017C01A501940169817A818B819C81DC
:1012E0000E9450259B01AC01C701B6010E94BE229D
:1012F0006B017C012D813E814F815885C301B20174
:101300000E9450259B01AC01C701B6010E946323D6
:101310000E94AC2220E030E044E353E40E945025D8
:101320002BED3FE049E450E40E9463236B017C0114
:10133000C0928605D0928705E0928805F0928905D3
:1013400020E030E0A90160918A0570918B058091C1
:101350008C0590918D050E9443251816ACF420E071
:1013600030E0A901C701B6010E944325181664F4B4
:10137000F7FAF094F7F8F094C0928605D0928705BA
:10138000E0928805F09289056BEC73E08CE99DE0B2
:101390000E948C1A409186055091870560918805BE
:1013A0007091890522E030E08CE99DE00E946E1C7E
:1013B00089859A8590931D0280931C022A960FB608
:1013C000F894DEBF0FBECDBFDF91CF91FF90EF90BD
:1013D000DF90CF90BF90AF909F908F907F906F9055
:1013E0005F904F9008952F923F924F925F926F922D
:1013F0007F928F929F92AF92BF92CF92DF92EF92A5
:10140000FF920F931F93CF93DF93CDB7DEB768970B
:101410000FB6F894DEBF0FBECDBF7C01788F6F8B07
:1014200010928F0510928E0502EA18E04EE0D42E3D
:10143000F80160897189072E000C880B990B0E94B6
:101440000D249B01AC010E94BE224B015C01F801FE
:1014500062817381072E000C880B990B0E940D246A
:101460009B01AC01C501B4010E94BD224B015C018E
:10147000F801668D778D072E000C880B990B0E9462
:101480000D249B01AC01C501B4010E94BD220E9444
:10149000D5236E157F05DCF4F801828993890B97BB
:1014A000B4F08091900590919105D89ED001D99E7D
:1014B000B00D1124AA51BA4F3E962D2D01900D92D8
:1014C0002A95E1F701969093910580939005025F2C
:1014D0001F4F2DE00038120709F0AACF80918E0D22
:1014E0008823F1F169ED73E08CE99DE00E94B11A67
:1014F00006EE15E0F12CE12C80919005909191057C
:10150000E816F9066CF5F801608171814AE050E057
:101510008CE99DE00E945C1B68E374E08CE99DE02F
:101520000E948C1AF801628173814AE050E08CE9D4
:101530009DE00E945C1B68E374E08CE99DE00E94E2
:101540008C1AF801648175814AE050E08CE99DE0D5
:101550000E94631BFFEFEF1AFF0A025F1F4FCCCF01
:1015600036EE232E35E0332E18861F8280919005AB
:10157000909191052F813885281739070CF452C0B6
:1015800020908E0530908F0502E915E07801D12C6E
:10159000C12CC214D3040CF052C1F70162817381D3
:1015A000072E000C880B990B0E940D244B015C0147
:1015B000F70160817181072E000C880B990B0E9446
:1015C0000D242BED3FE049E450E40E94502520E03B
:1015D00030E044E353E40E9463232B013C010E946A
:1015E0005E239B01AC01C501B4010E945025F701A7
:1015F0006683778380879187C301B2010E94BD25EE
:101600009B01AC01C501B4010E945025F70162871E
:10161000738784879587FFEFCF1ADF0A2EE0E20EEB
:10162000F11CB7CF6F8178856F5F7F4F78876F83AD
:1016300081017A8769878091900590919105E9856C
:10164000FA85E817F90724F0FEE02F0E311C8ECF43
:10165000F1010190F081E02DFC87EB87F801068411
:10166000F785E02DFE87ED876B857C856E1B7F0BF4
:10167000072E000C880B990B0E940D242BED3FE0E8
:1016800049E450E40E94502520E030E044E353E474
:101690000E9463230E945E236B8B7C8B8D8B9E8BC1
:1016A000F1010280F381E02DF88BEF87CF016AE032
:1016B00070E00E945A22072E000C880B990B0E94A2
:1016C0000D246B017C01F8010088F189E02DFA8B73
:1016D000E98BCF016AE070E00E945A22072E000CCD
:1016E000880B990B0E940D244B015C01A701960108
:1016F000C701B6010E9450252B013C01A5019401B0
:10170000C501B4010E9450259B01AC01C301B20187
:101710000E94BE222B013C01A7019601C701B60120
:101720000E94BE22A50194010E9450252B893C896C
:101730004D895E890E9450259B01AC01C301B20115
:101740000E94BD220E94CB2520E030E040E251E41F
:101750000E9450256B017C0120E030E040E752E41C
:101760000E94432518160CF061C020E030E042EDE5
:1017700052E4C701B6010E94592387FF57C08F85E5
:10178000988929893A89820F931F97FD019695952B
:1017900087958C599F4FE2EAF8E021E04081518122
:1017A0006B857C85641775075CF46D857E854617AF
:1017B000570734F442815381481759070CF420E04D
:1017C0003E967DE0EE38F70749F7222379F18091C4
:1017D0008E0590918F05EEE0E89FD001E99FB00D56
:1017E0001124AE56BA4FF1012EE001900D922A95C8
:1017F000E1F79C012F5F3F4FFEE0F29FD001F39F86
:10180000B00D1124AE56BA4FF8013E962EE001906D
:101810000D922A95E1F7029690938F0580938E059D
:101820006DEF73E08CE99DE00E94B11A29853A853D
:101830002F5F3F4F3A872987025F1F4FFCCE69E039
:1018400074E08CE99DE00E94B11AF12CE12C8091AA
:101850008E0590918F05E816F9060CF046C069E0F8
:1018600073E08CE99DE00E948C1AF8014681578153
:101870006085718522E030E08CE99DE00E946C1C5F
:1018800062E573E08CE99DE00E948C1AF8014285C4
:1018900053856485758522E030E08CE99DE00E94E7
:1018A0006C1C68E573E08CE99DE00E948C1AF801DD
:1018B000628173814AE050E08CE99DE00E945C1BEC
:1018C00061E673E08CE99DE00E948C1AF80160816A
:1018D00071814AE050E08CE99DE00E94631BFFEFBC
:1018E000EF1AFF0A025F1F4FB2CF6DE274E08CE97E
:1018F0009DE00E948C1A60918E0570918F054AE0E0
:10190000CE0101960E94E11EBE016F5F7F4F8CE900
:101910009DE00E949F1ACE0101960E94531E809165
:101920008E0590918F0582309105F9F42F89388DBD
:1019300030931D0220931C0268960FB6F894DEBF08
:101940000FBECDBFDF91CF911F910F91FF90EF9010
:10195000DF90CF90BF90AF909F908F907F906F90CF
:101960005F904F903F902F900895009711F003974C
:101970001CF38FE090E090931D0280931C02DCCF5B
:101980002F923F924F925F926F927F928F929F928F
:10199000AF92BF92CF92DF92EF92FF920F931F937D
:1019A000CF93DF93CDB7DEB764970FB6F894DEBF61
:1019B0000FBECDBF7C0198EEC92E93E0D92E2EE04C
:1019C000322E44EF51E060E070E08FE89DE00E942D
:1019D0009C0F97FDC2C08090950D9090960DA090A1
:1019E000970DB090980DA50194016091200270911F
:1019F000210280912202909123020E94432587FDBB
:101A00003AC0A50194016091240270912502809151
:101A10002602909127020E945923181664F14090E3
:101A2000910D5090920D6090930D7090940D2090B8
:101A3000990DC501B4010E94D5239B012758310996
:101A4000329E8001339E100D11240E55174FF80160
:101A50007183608320E030E040E251E4C301B201D1
:101A60000E9463230E94D523F80173836283822D31
:101A700090E095838483F1E0CF1AD10809F0A1CFDB
:101A800002EA18E0F80187E890E028E833E14281B3
:101A90005381452B21F491838083338322833E96A7
:101AA0000196813E910599F780918E0D882381F1F1
:101AB0008EE8C82E8DE0D82EF801608171814AE051
:101AC00050E08CE99DE00E945C1B68E374E08CE9C7
:101AD0009DE00E948C1AF801628173814AE050E017
:101AE0008CE99DE00E945C1B68E374E08CE99DE05A
:101AF0000E948C1AF801648175814AE050E08CE9FB
:101B00009DE00E94631B025F1F4FC016D106A1F625
:101B100070E060E083E00E94B120B70180911E0276
:101B200090911F020E94F30964960FB6F894DEBFED
:101B30000FBECDBFDF91CF911F910F91FF90EF901E
:101B4000DF90CF90BF90AF909F908F907F906F90DD
:101B50005F904F903F902F90089570E060E083E099
:101B60000E94B12024E630E040E050E0BE016F5F0B
:101B70007F4F8FE89DE00E94231197FD7CCF28EED8
:101B800033E040E050E060E08FE89DE00E94B21159
:101B90006FEF70E083E00E94B12068EE73E080E0B8
:101BA00090E00E94162067CFCF92DF92EF92FF92D3
:101BB0000F931F9369E37EE08FE89DE00E947C0F06
:101BC00026E040E052EC61E070E08CE99DE00E948C
:101BD000901861E083E00E94EF2161E086E10E94BD
:101BE000EF2162E082E00E94EF2143E050E067E6EF
:101BF00072E080E00E94811C61E086E10E942B225D
:101C00006AE070E080E090E00E9416206AE374E0F1
:101C10008CE99DE00E94B11A68EE73E080E090E0EC
:101C20000E94162063E08BE99DE00E9469136FE635
:101C300074E0811102C06BE774E08CE99DE00E94C2
:101C4000B11A68EE73E080E090E00E94162061E037
:101C500070E086E395E00E949716C0901002D09045
:101C60001102E0901202F090130200911402109100
:101C700015022091160230911702409118025091DE
:101C8000190260911A0270911B0286E395E00E948E
:101C9000B91561E070E086EE94E00E949716C0905E
:101CA0002E05D0902F05E0903005F0903105009181
:101CB00008021091090220910A0230910B02409112
:101CC0000C0250910D0260910E0270910F0286EE8F
:101CD00094E00E94B91500E010E020EF31E440E00C
:101CE00050E060EF71EC86EE94E00E94CF151F91FA
:101CF0000F91FF90EF90DF90CF900895E0911C023C
:101D0000F0911D02E131F10508F066C08827E45723
:101D1000F14F8F4F0C9490229D0EA70EAB0EB70E75
:101D2000C30ECE0EEC0EEC0EEC0EEC0EEC0EEC0E2A
:101D3000EC0EEC0EEC0EDF0EE90E6AE874E08CE9B6
:101D40009DE00E94B11A81E090E00C94C00C82E00A
:101D500090E00C948A0760918A0570918B058091C0
:101D60008C0590918D0543E050E00C94F204609155
:101D7000820570918305809184059091850544E0EA
:101D800050E00C94EC03609186057091870580917A
:101D900088059091890545E050E0E7CF20E030E0EC
:101DA00040E252E460918205709183058091840540
:101DB000909185050E94BE2240E150E0E2CF65E9A6
:101DC00074E08CE99DE00E94B11A8FEF9FEF0C94B4
:101DD000790269EA74E0F5CF0895AF92BF92CF928D
:101DE000DF92EF92FF920F931F938FE89DE00E9486
:101DF0005E0FA0901402B0901502C0901602D09011
:101E00001702E0901802F090190200911A02109146
:101E10001B021F921F92809113028F9380911202D6
:101E20008F93809111028F93809110028F932AE7F4
:101E300035E042E755E066E775E086E395E00E940D
:101E40005D17A0900802B0900902C0900A02D090DD
:101E50000B02E0900C02F0900D0200910E02109126
:101E60000F021F921F92809131058F938091300550
:101E70008F9380912F058F9380912E058F9322E36E
:101E800035E042E255E066E275E086EE94E00E94BD
:101E90005D178DB79EB70C960FB6F8949EBF0FBE18
:101EA0008DBF1F910F91FF90EF90DF90CF90BF906B
:101EB000AF9008958FE89DE00C947A0FFC01118299
:101EC0001082128213821482158216821782108663
:101ED0001186128613860895CF93DF93EC018881D3
:101EE0009981009721F00E94F21819821882DF91DF
:101EF000CF9108950C946C0F0F931F93CF93DF93A2
:101F0000EC018B0188819981892B19F0CE010E9407
:101F10006C0F19830883C8010E94F21826E040E084
:101F200052EC61E070E0888199810E949018DF9105
:101F3000CF911F910F9108954F925F926F927F9270
:101F40008F929F92AF92BF92EF92FF921F93CF9387
:101F5000DF9300D01F921F92CDB7DEB77C012A011C
:101F60003B010E94E51F4B015C0110E00E94E51F50
:101F7000681979098A099B09461657066806790681
:101F800008F472C0D7018D919C91DC01ED91FC9118
:101F90000284F385E02D199597FDE8CF112309F40C
:101FA00057C0113009F45DC091E0910FE1E0F0E01D
:101FB000EC0FFD1FE10FF11D8083953009F046C045
:101FC0006C817D8190E080E00E940B2420E030E075
:101FD00040E85EE30E945025D70112966D937D93F1
:101FE0008D939C9315976A817B817695679590E098
:101FF00080E00E940B2420E030E040E85CE30E9497
:102000005025F70166837783808791878981282F00
:1020100030E0359527953595279522878170838700
:1020200060E070E0CB010F900F900F900F900F9039
:10203000DF91CF911F91FF90EF90BF90AF909F9055
:102040008F907F906F905F904F900895192F8ECF53
:102050009C0135952795FC01E2279F0120FDA4CF27
:1020600085CF80FDA1CF81CF62E070E880E090E86D
:10207000DACFCF92DF92EF92FF920F931F93CF931D
:10208000DF9300D000D01F92CDB7DEB77C01162FB2
:102090005F834E8369011D82232B21F0CA01892BA6
:1020A00009F0106805EA09831A83D7018D919C9184
:1020B000DC01ED91FC910280F381E02D42E050E0E3
:1020C000BE016F5F7F4F199517FF40C06D8160277C
:1020D0006C2561276D83EE81FF8196012E0F3F1FD6
:1020E000E217F30729F091918D8189278D83F8CF2D
:1020F000CC82F70180819181DC01ED91FC9102801D
:10210000F381E02D41E050E0BE016C5F7F4F1995F7
:10211000F701808191814C8150E0DC01ED91FC91CF
:102120000280F381E02DBE016A5F7F4F1995F701B0
:1021300080819181DC01ED91FC910280F381E02DA1
:1021400041E050E0BE016B5F7F4F199560E070E0A9
:10215000CB0127960FB6F894DEBF0FBECDBFDF913F
:10216000CF911F910F91FF90EF90DF90CF90089546
:10217000FC0120813181232B39F030E020E050E058
:1021800040E065E20C94391061E070E880E090E88E
:1021900008957F928F929F92AF92BF92CF92DF92DB
:1021A000EF92FF920F931F93CF93DF938C01EB017C
:1021B00049015A010E94E51F6B017C01712C0E94AC
:1021C000E51F6C197D098E099F0986169706A806DA
:1021D000B906A0F1D8018D919C91DC01ED91FC91A3
:1021E0000284F385E02D199597FDE9CF7720F1F072
:1021F000B1E07B16F9F091E0970DFE01E70DF11DBE
:102200008083973089F460E070E0CB01DF91CF915B
:102210001F910F91FF90EF90DF90CF90BF90AF9004
:102220009F908F907F900895792EC9CF853A910520
:1022300011F3C5CF8A359105F1F2C0CF62E070E8A5
:1022400080E090E8E3CF4F925F926F927F928F92FF
:102250009F92AF92BF92CF92DF92EF92FF920F9335
:102260001F93CF93DF9300D000D01F92CDB7DEB77E
:102270007C016B0149015A010E94E51F2B013C01C1
:10228000D7018D919C91892B09F45EC030E020E04C
:1022900050E040E060E5C7010E94391097FD3DC065
:1022A000A5019401BE016F5F7F4FC7010E94C91055
:1022B00097FD33C08F81843009F04BC08B819C81A6
:1022C000AD812E81B22FBF734497A105B10508F4EB
:1022D00040C08601B4E1CB0ED11C0E94E51F6419F9
:1022E00075098609970986169706A806B906A8F102
:1022F000F70180819181DC01ED91FC910284F385ED
:10230000E02D199597FDE9CFF80181938F01CE1645
:10231000DF0619F760E070E0CB0127960FB6F8945E
:10232000DEBF0FBECDBFDF91CF911F910F91FF9008
:10233000EF90DF90CF90BF90AF909F908F907F9065
:102340006F905F904F90089561E070E880E090E8B2
:10235000E4CF60E070E8CB01E0CF62E070E880E0BD
:1023600090E8DBCFBF92CF92DF92EF92FF920F9374
:102370001F93CF93DF9300D000D01F92CDB7DEB76D
:10238000DC01ED91FC91EF2B09F440C069017A0169
:10239000B62E8C010E94B81060E2B11061E230E00C
:1023A00020E050E040E0C8010E94391097FD1AC0BB
:1023B000A7019601BE016F5F7F4FC8010E94C9103F
:1023C00097FD10C08F818138E9F48B819C81AD81AC
:1023D0002E81B22FBF730597A105B10598F060E07B
:1023E00070E0CB0127960FB6F894DEBF0FBECDBFCD
:1023F000DF91CF911F910F91FF90EF90DF90CF90E1
:10240000BF90089560E070E8CB01ECCF61E070E828
:1024100080E090E8E7CF8EBD0DB407FEFDCF8EB50E
:102420000895CF93DF93D82FC62F289882E00E947B
:102430000B128D2F0E940B128C2F0E940B12289AC8
:10244000DF91CF910895CF93C82F289883E00E9401
:102450000B128C2F0E940B128FEF0E940B12289AE6
:10246000CF9108951F93CF93DF93182FD62FC42FAA
:10247000289885E00E940B12812F0E940B128D2F4D
:102480000E940B128C2F0E940B12289ADF91CF9181
:102490001F91089528980E940B128FEF0E940B1233
:1024A000289A0895CF93C82F289A209A29982A9875
:1024B0002B98219A229A23986C98749A81E58CBD66
:1024C0001DBC289880EC0E940B12289A87EC90E0A3
:1024D0000197F1F700C00000289882E00E940B12DB
:1024E00088E20E940B1282E00E940B1280E90E9497
:1024F0000B128C2F0E940B1283E00E940B12289A61
:102500008AE20E9423128C1741F0809102018062BE
:102510008093020180E0CF91089560E08CE00E94FA
:10252000111260E08DE00E94111260E680E60E94C8
:10253000111260E680E70E94111260E08FE00E94B5
:10254000111281E0E8CFEF92FF920F931F93CF9388
:10255000DF938C0180EB0E944A12C82F282F207431
:10256000E22E86FD05C084E9C7FD03C080E040C0BF
:1025700080E928980E940B128FEF0E940B12E8E06E
:102580008E9FC0011124F801918380838FEF0E94F8
:102590000B12282F229526952770F80180819181B2
:1025A000822B918380838FEF0E940B128FEF0E940A
:1025B0000B128FEF0E940B128F70F82E982F990F2D
:1025C000F8018281817E892BC3FB80F982830D5FB4
:1025D0001F4FD0E0DF1113C0289A40E061E0E11006
:1025E00001C062E08CE20E9432128C2F87708F5FF4
:1025F000DF91CF911F910F91FF90EF9008958FEF92
:102600000E940B12F80181938F01DF5FE3CFFF92ED
:102610000F931F93CF93DF938C0180EA0E944A129D
:1026200082FF07C084FF44C0C4E086FF03C0C0E04F
:1026300038C0C0E028988C2F80640E940B12F801EB
:102640008081918123E0969587952A95E1F70E94F4
:102650000B12F80180818295880F807E0E940B12F8
:1026600080E00E940B1280E00E940B12F801828130
:10267000D82FD695DF7080FF1DC08D2F80640E94FB
:102680000B12289A87EC90E00197F1F700C0000048
:102690002898C11101C0C1E08C2F80680E940B12E4
:1026A000289A8C2FDF91CF911F910F91FF90089561
:1026B000C2E0C0CF8D2F0E940B120D5F1F4FF12C77
:1026C000FD16F9F2F80181918F010E940B12F3942B
:1026D000F7CF862F0C9452122F923F924F925F9217
:1026E0006F927F928F929F92AF92BF92CF92DF9222
:1026F000EF92FF920F931F93CF93DF93CDB7DEB787
:1027000060970FB6F894DEBF0FBECDBFDC01DA963E
:10271000BC91BD83B1111BC01D828D8160960FB627
:10272000F894DEBF0FBECDBFDF91CF911F910F9107
:10273000FF90EF90DF90CF90BF90AF909F908F90E1
:102740007F906F905F904F903F902F900895988B5F
:102750008F870E94E51F6B877C878D879E87EF851B
:10276000F88982A193A1A4A1B5A12B853C854D85B3
:102770005E85281B390B4A0B5B0BDA01C90146A5A4
:1027800057A560A971A984179507A607B70720F276
:10279000048CF58DE02D80819181A281B3818983A4
:1027A0009A83AB83BC83AF85B8899096ED91FC91F9
:1027B00029813A814B815C81608171818281938121
:1027C0000E94BD224B015C01EF85F88922A533A54B
:1027D00044A555A569817A818B819C810E94BD2287
:1027E0006B017C01AF85B88950962D913D914D913B
:1027F0005C915397C501B4010E945025EF85F8897B
:1028000026A137A140A551A50E94BE222B013C0163
:10281000AF85B88996964D925D926D927C9299970C
:10282000DB96BC91BE83B11118C0EF85F889248571
:10283000358546855785C701B6010E9450259B0105
:10284000AC01C301B2010E94BD22AF85B889969642
:102850006D937D938D939C939997EF85F88946A00E
:1028600057A060A471A416A907A930AC21AC212FF0
:10287000302F432D522DC301B2010E94432518165B
:102880000CF07FC0812F902FA32DB22DEF85F889FA
:1028900086A397A3A0A7B1A7BE81BB2309F490C0CC
:1028A000EF85F8892485358546855785C501B401AE
:1028B0000E9450254B015C01AF85B88954962D913B
:1028C0003D914D915C915797C701B6010E945025EB
:1028D0009B01AC01EF85F88966A177A180A591A540
:1028E0000E94BD22A50194010E94BE226B017C01C1
:1028F0009B01AC01612F702F832D922D0E945923D3
:1029000087FD1BC0AF85B889D2961C91D297D3960C
:102910000C91D397D4963C90D497D5962C90960151
:10292000A701612F702F832D922D0E944325181629
:1029300024F01C2D0D2D3E2C2F2CAF85B8895E96D2
:10294000ED91FC91812F902FA32DB22D8083918347
:10295000A283B38329813A814B815C81AF85B88999
:102960009A962D933D934D935C939D972B853C8533
:102970004D855E8592962D933D934D935C939597EF
:10298000CCCEAF85B889D2962D913D914D915C9179
:10299000D5972F83388749875A87C301B2010E9490
:1029A000592387FF79CF2F81388549855A85AF858F
:1029B000B88996962D933D934D935C9399976CCFE0
:1029C000812C912C540178CF4F925F926F927F921D
:1029D0008F929F92AF92BF92CF92DF92EF92FF922F
:1029E0000F931F93CF93DF9300D000D0CDB7DEB706
:1029F0009E838D8349835A836B837C8328013901AD
:102A000020E030E0A90169817A818B819C810E945C
:102A1000592387FD97C020E030E0A901C301B80128
:102A20000E94592387FD8EC020E030E0A901C70134
:102A3000B6010E94592387FD85C0AD81BE815B969A
:102A4000BC92AE925A9781E0AA94AB2809F080E03C
:102A5000ED81FE8183AF89819A81AB81BC818083C6
:102A60009183A283B3834482558266827782C08633
:102A7000D186E286F38666A577A580A991A90E94F2
:102A80000B2420E030E04AE754E40E9463234B012A
:102A90005C0189819A81AB81BC81ED81FE81848753
:102AA0009587A687B787A5019401C301B2010E944B
:102AB00050252B013C01AD81BE8150964D925D9217
:102AC0006D927C925397A5019401C701B6010E94B3
:102AD00063236B017C01ED81FE81C48AD58AE68A7D
:102AE000F78A808D918D019769F529813A814B8113
:102AF0005C8160E070E0CB010E94BD22AD81BE81AF
:102B00001C966D937D938D939C931F97A3019201C7
:102B100060E070E0CB010E94BD22ED81FE81608B00
:102B2000718B828B938BA701960160E070E0CB01E3
:102B30000E94BD22AD81BE8154966D937D938D938D
:102B40009C93579726960FB6F894DEBF0FBECDBF65
:102B5000DF91CF911F910F91FF90EF90DF90CF9079
:102B6000BF90AF909F908F907F906F905F904F90AD
:102B70000895AF92BF92CF92DF92EF92FF920F93A0
:102B80001F93FC01A28CB38C0E94E4141F910F913F
:102B9000FF90EF90DF90CF90BF90AF9008952F926D
:102BA0003F924F925F926F927F928F929F92AF92DD
:102BB000BF92CF92DF92EF92FF920F931F93CF932A
:102BC000DF93EC016A017B0148015901A9019801D9
:102BD000CB01B6010E94432587FF4FC0CAAADBAADA
:102BE000ECAAFDAA8EAA9FAAA8AEB9AE8AAD882388
:102BF00009F443C02E8C3F8CF101408051806280EB
:102C00007380A3019201C501B8010E94592387FF77
:102C10001AC0F10180829182A282B3828EA09FA00D
:102C2000A8A4B9A4CEA8DFA8E8ACF9ACA701960186
:102C3000C501B4010E94432518169CF4CEA2DFA260
:102C4000E8A6F9A61AC0A3019201C701B6010E9425
:102C5000432518161CF7F101C082D182E282F3826B
:102C6000DDCFCAA8DBA8ECA8FDA8A7019601C50185
:102C7000B4010E94592387FDE1CFDF91CF911F91CD
:102C80000F91FF90EF90DF90CF90BF90AF909F900B
:102C90008F907F906F905F904F903F902F9008950E
:102CA0008F929F92AF92BF92CF92DF92EF92FF925C
:102CB000CF93DF93EC01EE8DFF8DC080D180E28059
:102CC000F380CEA2DFA2E8A6F9A6EC8DFD8D80816F
:102CD0009181A281B3818AA79BA7ACA7BDA78EA82B
:102CE0009FA8A8ACB9ACA5019401C701B6010E9488
:102CF000432518162CF48EA29FA2A8A6B9A60CC034
:102D00008AA89BA8ACA8BDA8A5019401C701B601DB
:102D10000E94592387FDEFCFDF91CF91FF90EF9075
:102D2000DF90CF90BF90AF909F908F9008951F93AA
:102D3000CF93DF93EC0111E06130710509F010E0F1
:102D40006130710531F48AAD811103C0CE010E945A
:102D500050161AAFDF91CF911F9108950F931F93D3
:102D6000CF93DF93EC018B018AAD882361F1888DCD
:102D7000998D8617970739F12C853D854E855F859E
:102D800060E070E0CB010E94BD226C877D878E875A
:102D90009F87288939894A895B8960E070E0CB0187
:102DA0000E94BD22688B798B8A8B9B8B2C893D89F5
:102DB0004E895F8960E070E0CB010E94BD226C8B80
:102DC0007D8B8E8B9F8B198F088FDF91CF911F91F9
:102DD0000F9108954F925F926F927F928F929F9280
:102DE000AF92BF92CF92DF92EF92FF920F931F9319
:102DF000CF93DF9300D01F92CDB7DEB74C012701F0
:102E00003801A982BA82CB82DC82FC01578F468FBF
:102E1000758F648F31A320A312AE80E090E0A0EA0A
:102E2000B2EC82AB93ABA4ABB5AB80E090E0A0EA90
:102E3000B2E486AB97ABA0AFB1AF84E690E0A0E080
:102E4000B0E086A797A7A0ABB1AB6E8D7F8DC40114
:102E50000E94AE16AC8CBD8CC88CD98CEA8CFB8CD5
:102E600009811A812B813C81B301A201C4010E9416
:102E7000E4140E94E51FF40146A457A460A871A8B9
:102E8000641975098609970962A373A384A395A39E
:102E90000F900F900F900F90DF91CF911F910F9196
:102EA000FF90EF90DF90CF90BF90AF909F908F906A
:102EB0007F906F905F904F9008958F929F92AF9206
:102EC000BF92CF92DF92EF92FF920F931F93CF9317
:102ED000DF93CDB7DEB7E889F989AA89BB899C88D9
:102EE0008D888F929F921F92992493949F92BF9363
:102EF000AF93FF93EF930E94EA160FB6F894DEBFEC
:102F00000FBECDBFDF91CF911F910F91FF90EF903A
:102F1000DF90CF90BF90AF909F908F900895FC016D
:102F2000918D228D892F90E0805C9F4F821B9109AB
:102F30008F7399270895FC01918D828D981731F038
:102F4000828DE80FF11D858D90E008958FEF9FEF42
:102F50000895FC01918D828D981761F0A28DAE0FBE
:102F6000BF2FB11D5D968C91928D9F5F9F73928F45
:102F700090E008958FEF9FEF0895FC01538D448DED
:102F8000252F30E0842F90E0821B930B541710F014
:102F9000CF9608950197089584E799E1892B49F028
:102FA00080E090E0892B29F00E94741981110E9421
:102FB000000080E090E0892B49F080E090E0892BD0
:102FC00029F00E94000081110E94000080E090E042
:102FD000892B49F080E090E0892B29F00E940000C5
:102FE00081110E9400008BE09AE1892B49F080E07A
:102FF00090E0892B29F00E940B1A81110C9400009B
:103000000895FC01A48DA80FB92FB11DA35ABF4F7D
:103010002C91848D90E001968F739927848FA689D7
:10302000B7892C93A089B1898C91837080648C932B
:10303000938D848D981306C00288F389E02D8081DA
:103040008F7D80830895CF93DF93EC01888D882353
:10305000B9F0AA89BB89E889F9898C9185FD03C0FB
:10306000808186FD0DC00FB607FCF7CF8C9185FFE0
:10307000F2CF808185FFEDCFCE010E940118E9CF0C
:10308000DF91CF910895EF92FF920F931F93CF930B
:10309000DF93EC0181E0888F9B8D8C8D98131AC093
:1030A000E889F989808185FF15C09FB7F894EE897A
:1030B000FF896083E889F9898081837080648083D7
:1030C0009FBF81E090E0DF91CF911F910F91FF9022
:1030D000EF900895F62E0B8D10E00F5F1F4F0F73CA
:1030E0001127E02E8C8D8E110CC00FB607FCFACF85
:1030F000E889F989808185FFF5CFCE010E9401180A
:10310000F1CFEB8DEC0FFD2FF11DE35AFF4FF08255
:103110009FB7F8940B8FEA89FB8980818062CFCFBB
:10312000CF92DF92EF92FF921F93CF93DF93EC0148
:103130006A017B01122FE889F98982E08083C1143A
:1031400081EED806E104F104A1F060E079E08DE3BE
:1031500090E0A70196010E946E2221503109410999
:1031600051095695479537952795211580E13807E0
:1031700098F0E889F989108260E874E88EE190E0BF
:10318000A70196010E946E2221503109410951097F
:103190005695479537952795EC85FD853083EE85C7
:1031A000FF852083188EEC89FD891083EA89FB89CD
:1031B000808180618083EA89FB8980818860808347
:1031C000EA89FB89808180688083EA89FB89808124
:1031D0008F7D8083DF91CF911F91FF90EF90DF90E3
:1031E000CF900895CF93DF93EC01E881F9810680B9
:1031F000F781E02D1995EA89FB8980818F7E808394
:10320000EA89FB898081877F8083EA89FB898081C5
:103210008F778083EA89FB8980818F7D80838A8D87
:10322000898FDF91CF9108951F920F920FB60F9261
:1032300011240BB60F922F938F939F93EF93FF93CD
:10324000E091AC0DF091AD0D8081E091B20DF09167
:10325000B30D82FD1DC090818091B50D8F5F8F737E
:103260002091B60D821741F0E091B50DF0E0E456E3
:10327000F24F958F8093B50DFF91EF919F918F91B4
:103280002F910F900BBE0F900FBE0F901F901895AF
:103290008081F2CF1F920F920FB60F9211240BB6BE
:1032A0000F922F933F934F935F936F937F938F93DF
:1032B0009F93AF93BF93EF93FF938CE99DE00E94A0
:1032C0000118FF91EF91BF91AF919F918F917F91E5
:1032D0006F915F914F913F912F910F900BBE0F9087
:1032E0000FBE0F901F9018958CE99DE00E948F17DC
:1032F00021E0892B09F420E0822F0895ECE9FDE01C
:103300001382128288EE93E0A0E0B0E0848395837C
:10331000A683B78387EC94E09183808385EC90E06B
:103320009587848784EC90E09787868780EC90E08F
:10333000918B808B81EC90E0938B828B82EC90E080
:10334000958B848B86EC90E0978B868B118E128EFA
:10335000138E148E08951F920F920FB60F921124A0
:103360000BB60F922F938F939F93EF93FF93E09160
:10337000490EF0914A0E8081E0914F0EF091500E6F
:1033800082FD1DC090818091520E8F5F8F732091BE
:10339000530E821741F0E091520EF0E0E75CF14FDE
:1033A000958F8093520EFF91EF919F918F912F9166
:1033B0000F900BBE0F900FBE0F901F90189580813D
:1033C000F2CF1F920F920FB60F9211240BB60F92ED
:1033D0002F933F934F935F936F937F938F939F931D
:1033E000AF93BF93EF93FF9389E39EE00E94011890
:1033F000FF91EF91BF91AF919F918F917F916F91CD
:103400005F914F913F912F910F900BBE0F900FBE88
:103410000F901F90189589E39EE00E948F1721E07E
:10342000892B09F420E0822F0895E9E3FEE013825E
:10343000128288EE93E0A0E0B0E084839583A683B7
:10344000B78387EC94E09183808385E391E095874F
:10345000848784E391E09787868780E391E0918B6E
:10346000808B81E391E0938B828B82E391E0958B5B
:10347000848B86E391E0978B868B118E128E138E50
:10348000148E0895AF92BF92CF92DF92EF92FF9287
:103490000F931F93CF93DF936C017B018B01040F7C
:1034A000151FEB015E01AE18BF08C017D10759F018
:1034B0006991D601ED91FC910190F081E02DC6015A
:1034C0001995892B79F7C501DF91CF911F910F9144
:1034D000FF90EF90DF90CF90BF90AF900895FB01E9
:1034E00001900020E9F73197AF01461B570BDC0133
:1034F000ED91FC910280F381E02D1994DB0114968B
:103500004D915C9115976D917C91DC01ED91FC9151
:103510000280F381E02D19946115710511F00C946E
:103520006F1A90E080E00895DC01ED91FC9101902C
:10353000F081E02D199465ED74E00C946F1A0F93EF
:103540001F93CF93DF93EC010E947E1A8C01CE0172
:103550000E949B1A800F911FDF91CF911F910F91B5
:1035600008950F931F93CF93DF938C01D0E0C0E0B9
:103570006115710519F00E946F1AEC01C8010E94D3
:103580009B1A8C0F9D1FDF91CF911F910F91089572
:103590008F929F92AF92BF92EF92FF920F931F93E1
:1035A000CF93DF93CDB7DEB7A1970FB6F894DEBF08
:1035B0000FBECDBF7C01FA01CB0119A2223008F465
:1035C0002AE08E010F5D1F4F822E912CB12CA12C71
:1035D000BF01A50194010E946E22F901CA016A305F
:1035E0000CF5605DD8016E938D01232B242B252BC8
:1035F00079F790E080E0109721F0BD01C7010E94AB
:103600006F1AA1960FB6F894DEBF0FBECDBFDF9143
:10361000CF911F910F91FF90EF90BF90AF909F902F
:103620008F900895695CDECFCF92DF92EF92FF9288
:103630000F931F93CF93DF932115310581F4DC01A4
:10364000ED91FC910190F081E02D642FDF91CF91FD
:103650001F910F91FF90EF90DF90CF9019942A3037
:10366000310501F52AE077FF1DC06A017B01EC01FD
:103670006DE20E94941A8C0144275527BA014C1917
:103680005D096E097F092AE0CE010E94C81A800FE9
:10369000911FDF91CF911F910F91FF90EF90DF90DD
:1036A000CF900895DF91CF911F910F91FF90EF90F0
:1036B000DF90CF900C94C81A9A01AB01770F660B7C
:1036C000770B0C94141B0F931F93CF93DF93EC0194
:1036D0000E945C1B8C01CE010E949B1A800F911FDF
:1036E000DF91CF911F910F9108952115310541F47C
:1036F000DC01ED91FC910190F081E02D642F199493
:103700000C94C81A9A01AB0170E060E00C94751B30
:103710002F923F924F925F926F927F928F929F92E1
:10372000AF92BF92CF92DF92EF92FF921F93CF930F
:10373000DF93EC016A017B01722EAB019601CB0194
:10374000B6010E940F2668ED74E0811126C0460183
:103750005701E894B7F82FEF3FEF4FE75FE7C50158
:10376000B4010E940F2681110CC02FEF3FEF4FE7ED
:103770005FE7C501B4010E9459236CED74E018168F
:1037800064F02FEF3FEF4FE75FE4C701B6010E94FF
:1037900043251816B4F460EE74E0CE01DF91CF91AA
:1037A0001F91FF90EF90DF90CF90BF90AF909F90D0
:1037B0008F907F906F905F904F903F902F900C94E0
:1037C0006F1A2FEF3FEF4FE75FECC701B6010E9482
:1037D000592387FDE0CF20E030E0A901C701B60101
:1037E0000E945923312C212C87FF09C06DE2CE01A4
:1037F0000E94941A1C01F7FAF094F7F8F09410E084
:1038000060E070E080E09FE3711641F020E030E07E
:1038100040E251E40E9463231F5FF6CFA7019601A7
:103820000E94BE222B013C010E94DC234B015C0163
:103830002AE0BC01A401CE010E94C81A7C01E20C5E
:10384000F31C1123B1F1C501B4010E940B249B01AB
:10385000AC01C301B2010E94BD224B015C016EE2CA
:10386000CE010E94941AE80EF91E115010F120E0CA
:1038700030E040E251E4C501B4010E9450252B0123
:103880003C010E94DC234B014AE050E0CE010E9443
:10389000821BE80EF91EB40190E080E00E940B2428
:1038A0009B01AC01C301B2010E94BD224B015C012E
:1038B000DCCFC701DF91CF911F91FF90EF90DF9098
:1038C000CF90BF90AF909F908F907F906F905F90C0
:1038D0004F903F902F9008950C94881B0F931F9347
:1038E000CF93DF93EC010E94881B8C01CE010E94D4
:1038F0009B1A800F911FDF91CF911F910F91089517
:103900000895883008F076C0E82FF0E0EE0FFF1F32
:10391000E85DFD4F718360838150873008F03DC0C2
:10392000E82FF0E08827E856F34E8F4F0C94902252
:10393000D51C9F1CA71CB31CC01CE11CEE1C809155
:1039400069008C7F482B40936900E89A0895809124
:103950006900837F440F551F440F551F482B409328
:103960006900E99A0895809169008F7C74E0440FA2
:10397000551F7A95E1F7482B40936900EA9A08951C
:10398000809169008F7366E0440F551F6A95E1F7D7
:10399000482B40936900EB9A089580916A008C7FD0
:1039A000482B40936A00EC9A089580916A00837FC7
:1039B000440F551F440F551F482B40936A00ED9A42
:1039C000089580916A008F7C24E0440F551F2A954A
:1039D000E1F7482B40936A00EE9A089580916A00BF
:1039E0008F7396E0440F551F9A95E1F7482B40934B
:1039F0006A00EF9A08951F920F920FB60F9211244A
:103A00000BB60F922F933F934F935F936F937F93D8
:103A10008F939F93AF93BF93EF93FF93E0912C020B
:103A2000F0912D021995FF91EF91BF91AF919F9168
:103A30008F917F916F915F914F913F912F910F9057
:103A40000BBE0F900FBE0F901F9018951F920F92F4
:103A50000FB60F9211240BB60F922F933F934F93F3
:103A60005F936F937F938F939F93AF93BF93EF93E6
:103A7000FF93E0912E02F0912F021995FF91EF91A3
:103A8000BF91AF919F918F917F916F915F914F9176
:103A90003F912F910F900BBE0F900FBE0F901F9074
:103AA00018951F920F920FB60F9211240BB60F921A
:103AB0002F933F934F935F936F937F938F939F9336
:103AC000AF93BF93EF93FF93E0913002F0913102F7
:103AD0001995FF91EF91BF91AF919F918F917F9138
:103AE0006F915F914F913F912F910F900BBE0F906F
:103AF0000FBE0F901F9018951F920F920FB60F9246
:103B000011240BB60F922F933F934F935F936F93B4
:103B10007F938F939F93AF93BF93EF93FF93E09126
:103B20003202F09133021995FF91EF91BF91AF915D
:103B30009F918F917F916F915F914F913F912F91C5
:103B40000F900BBE0F900FBE0F901F9018951F92F5
:103B50000F920FB60F9211240BB60F922F933F9333
:103B60004F935F936F937F938F939F93AF93BF9385
:103B7000EF93FF93E0912802F09129021995FF91AC
:103B8000EF91BF91AF919F918F917F916F915F91D5
:103B90004F913F912F910F900BBE0F900FBE0F9042
:103BA0001F9018951F920F920FB60F9211240BB60B
:103BB0000F922F933F934F935F936F937F938F93C6
:103BC0009F93AF93BF93EF93FF93E0912A02F091FD
:103BD0002B021995FF91EF91BF91AF919F918F911A
:103BE0007F916F915F914F913F912F910F900BBEFD
:103BF0000F900FBE0F901F9018951F920F920FB647
:103C00000F9211240BB60F922F933F934F935F9314
:103C10006F937F938F939F93AF93BF93EF93FF9394
:103C2000E0913402F09135021995FF91EF91BF9127
:103C3000AF919F918F917F916F915F914F913F9144
:103C40002F910F900BBE0F900FBE0F901F901895E5
:103C50001F920F920FB60F9211240BB60F922F9353
:103C60003F934F935F936F937F938F939F93AF9304
:103C7000BF93EF93FF93E0913602F09137021995CD
:103C8000FF91EF91BF91AF919F918F917F916F9134
:103C90005F914F913F912F910F900BBE0F900FBEF0
:103CA0000F901F901895FC01808191810C94F7264C
:103CB000CF93DF93EC0188819981009711F00E94E6
:103CC000F726198218821D821C821B821A82DF91BC
:103CD000CF9108950F931F93CF93DF93EC018B0146
:103CE0006F5F7F4F888199810E948027009751F0F4
:103CF000998388831B830A8381E0DF91CF911F9191
:103D00000F91089580E0F9CFCF93DF93EC01888184
:103D10009981892B49F08A819B818617970720F02A
:103D200081E0DF91CF910895CE010E946A1E882321
:103D3000C1F38C819D81892B99F7E881F9811082EB
:103D4000EFCFEF92FF920F931F93CF93DF93EC018E
:103D50007B018A01BA010E94841E81110BC0CE0131
:103D60000E94581ECE01DF91CF911F910F91FF90BD
:103D7000EF9008951D830C83B701888199810E947B
:103D80006A28F0CFFC011182108213821282158200
:103D900014826115710551F0FB0101900020E9F7D3
:103DA0003197AF01461B570B0C94A11E0895FB01E0
:103DB00001900020E9F73197AF01461B570B0C9497
:103DC000A11E0F931F93CF93DF93CDB7DEB76297FA
:103DD0000FB6F894DEBF0FBECDBF8C01CB01F8014A
:103DE00011821082138212821582148250E0BE0169
:103DF0006F5F7F4F0E947128BE016F5F7F4FC801C8
:103E00000E94D71E62960FB6F894DEBF0FBECDBFDC
:103E1000DF91CF911F910F910895CF93DF93EC0124
:103E20006115710531F00E94D71ECE01DF91CF914F
:103E300008950E94581EF9CFEF92FF920F931F939F
:103E4000CF93DF93CDB7DEB7A1970FB6F894DEBF5F
:103E50000FBECDBF7C01CB01BA01F70111821082E8
:103E6000138212821582148242E0420F8E010F5F8C
:103E70001F4F0E943D26BC01C7010E940D1FA19645
:103E80000FB6F894DEBF0FBECDBFDF91CF911F916B
:103E90000F91FF90EF900895EF92FF920F931F9371
:103EA000CF93DF936115710541F480E0DF91CF91ED
:103EB0001F910F91FF90EF90089541155105B1F0BA
:103EC0007B01EC010C811D81040F151FB8010E94BC
:103ED000841E882351F3288139818C819D81B7010B
:103EE000820F931F0E946A281D830C8381E0DECF1E
:103EF000CF93DF93EC01FB01448155816081718197
:103F00000E944C1F811103C0CE010E94581ECE0199
:103F1000DF91CF91089508950E944F200E948B1F3A
:103F20000E94D40DCCECD7E10E947E0E2097E1F3E5
:103F30000E94CC17F9CF1F920F920FB60F92112447
:103F40002F933F938F939F93AF93BF938091D70EFF
:103F50009091D80EA091D90EB091DA0E3091D60E74
:103F600023E0230F2D3758F50196A11DB11D209395
:103F7000D60E8093D70E9093D80EA093D90EB093FF
:103F8000DA0E8091DB0E9091DC0EA091DD0EB091E7
:103F9000DE0E0196A11DB11D8093DB0E9093DC0E09
:103FA000A093DD0EB093DE0EBF91AF919F918F91E4
:103FB0003F912F910F900FBE0F901F90189526E8FC
:103FC000230F0296A11DB11DD2CF2FB7F894609197
:103FD000D70E7091D80E8091D90E9091DA0E2FBF26
:103FE00008953FB7F8948091DB0E9091DC0EA0917C
:103FF000DD0EB091DE0E26B5A89B05C02F3F19F04F
:104000000196A11DB11D3FBFBA2FA92F982F882758
:10401000BC01CD01620F711D811D911D42E0660F33
:10402000771F881F991F4A95D1F708958F929F9205
:10403000AF92BF92CF92DF92EF92FF926B017C0121
:104040000E94F11F4B015C01C114D104E104F10491
:10405000E9F00E9459220E94F11F681979098A0922
:104060009B09683E73408105910570F321E0C21AF7
:10407000D108E108F10888EE880E83E0981EA11CA3
:10408000B11CC114D104E104F10429F7FF90EF90B1
:10409000DF90CF90BF90AF909F908F9008957894CD
:1040A00084B5826084BD84B5816084BD85B582603D
:1040B00085BD85B5816085BDEEE6F0E080818160DB
:1040C0008083E1E8F0E010828081826080838081DB
:1040D00081608083E0E8F0E0808181608083E1EBB3
:1040E000F0E0808184608083E0EBF0E0808181609B
:1040F0008083E1E9F0E0808182608083808181605B
:104100008083E0E9F0E0808181608083E1EAF0E093
:10411000808182608083808181608083E0EAF0E03A
:10412000808181608083E1E2F1E080818260808330
:10413000808181608083E0E2F1E080818160808322
:10414000EAE7F0E080818460808380818260808300
:104150008081816080838081806880831092C1002B
:1041600008951F93CF93DF93182FEB0161E00E9416
:10417000EF21209739F460E0812FDF91CF911F91DB
:104180000C942B22CF3FD10511F461E0F5CFE12F44
:10419000F0E0E65AFC4FE491E150E23108F0B3C0A0
:1041A000F0E08827E952FF4D8F4F0C949022E920D0
:1041B000F120F62000210A21832114211C21242131
:1041C0002E213821422151215B21832165216F213C
:1041D000792184B5806884BDC7BDDF91CF911F91DF
:1041E000089584B5806284BDC8BDF7CF80918000FA
:1041F000806880938000D0938900C0938800EDCFC1
:1042000080918000806280938000D0938B00C09367
:104210008A00E3CF80918000886080938000D093F3
:104220008D00C0938C00D9CF8091B00080688093BE
:10423000B000C093B300D1CF8091B0008062809372
:10424000B000C093B400C9CF809190008068809383
:104250009000D0939900C0939800BFCF80919000B8
:10426000806280939000D0939B00C0939A00B5CF5A
:1042700080919000886080939000D0939D00C093BF
:104280009C00ABCF8091A00080688093A0008091BB
:10429000A0008F7B8093A000D093A900C093A800BA
:1042A0009CCF8091A00080628093A000D093AB004F
:1042B000C093AA0092CF8091A00088608093A00054
:1042C000D093AD00C093AC0088CF8091200180686E
:1042D00080932001D0932901C09328017ECF809143
:1042E0002001806280932001D0932B01C0932A018A
:1042F00074CF80912001886080932001D0932D019C
:10430000C0932C016ACFC038D1050CF03ECF33CF1B
:104310008150823108F05AC0E82FF0E08827EC562F
:10432000FE4D8F4F0C949022B421B821A621AC21D0
:10433000B021E621BB21C121C521CB21CF21D32131
:10434000D921DD21E621E121E721EB2180918000C7
:104350008F77809380000895809180008F7DF9CFC2
:1043600080918000877FF5CF84B58F7784BD0895D5
:1043700084B58F7DFBCF8091B0008F778093B000A4
:1043800008958091B0008F7DF9CF809190008F7754
:10439000809390000895809190008F7DF9CF809157
:1043A0009000877FF5CF8091A0008F778093A00049
:1043B00008958091A0008F7DF9CF8091A000877F24
:1043C000F5CF809120018F7780932001089580910F
:1043D00020018F7DF9CF80912001877FF5CFCF938A
:1043E000DF9390E0FC01E056FC4F24918A519C4FF2
:1043F000FC0184918823C9F090E0880F991FFC018B
:10440000EA5BFB4FA591B491FC01E45DFB4FC591C4
:10441000D49161110DC09FB7F8948C91209582239F
:104420008C938881282328839FBFDF91CF910895A3
:10443000623051F49FB7F8943C91822F809583238A
:104440008C93E8812E2BEFCF8FB7F894EC912E2B25
:104450002C938FBFEACF1F93CF93DF93282F30E0A9
:10446000F901E65AFC4F8491F901E056FC4FD491D2
:10447000F901EA51FC4FC491CC23A9F0162F811108
:104480000E948821EC2FF0E0EE0FFF1FE45DFB4F50
:10449000A591B4918FB7F894EC91111108C0D09503
:1044A000DE23DC938FBFDF91CF911F910895DE2B28
:1044B000F8CF089597FB072E16F4009407D077FDE8
:1044C00009D00E94982207FC05D03EF49095819572
:1044D0009F4F0895709561957F4F0895A1E21A2E20
:1044E000AA1BBB1BFD010DC0AA1FBB1FEE1FFF1F98
:1044F000A217B307E407F50720F0A21BB30BE40BE8
:10450000F50B661F771F881F991F1A9469F760952E
:104510007095809590959B01AC01BD01CF010895E8
:10452000EE0FFF1F881F8BBF0790F691E02D1994A7
:10453000AA1BBB1B51E107C0AA1FBB1FA617B707C9
:1045400010F0A61BB70B881F991F5A95A9F78095E5
:104550009095BC01CD0108959F939F770E944824B8
:104560000F90002042F49058A2EA2AED3FE049E47F
:1045700050E40E94D5220C94F5245058BB27AA275A
:104580000E94D5220C94F5240E94BC2438F00E948D
:10459000C32420F039F49F3F19F426F40C9492249C
:1045A0000EF4E095E7FB0C948C24E92F0E941A2569
:1045B00058F3BA17620773078407950720F079F458
:1045C000A6F50C943C250EF4E0950B2EBA2FA02DE9
:1045D0000B01B90190010C01CA01A0011124FF27B0
:1045E000591B99F0593F50F4503E68F11A16F040AB
:1045F000A22F232F342F4427585FF3CF46953795AA
:104600002795A795F0405395C9F77EF41F16BA0B6E
:10461000620B730B840BBAF09150A1F0FF0FBB1F1C
:10462000661F771F881FC2F70EC0BA0F621F731F65
:10463000841F48F4879577956795B795F7959E3FC2
:1046400008F0B0CF9395880F08F09927EE0F979553
:1046500087950895DF93DD27B92FBF7740E85FE3A3
:104660001616170648075B0718F4D92F0E9448252D
:104670009F938F937F936F930E940B26E4EEF0E05D
:104680000E9495240E94F5242F913F914F915F91B4
:104690000E946325DD2351F09058A2EA2AED3FE005
:1046A00049EC5FE3D0785D270E94D522DF910C941E
:1046B000F5240E94682408F481E008950E94CC2427
:1046C000E3950C9406250E9477230C94F5240E9410
:1046D000C32458F00E94BC2440F029F45F3F29F025
:1046E0000C948C2451110C943D250C9492240E941E
:1046F0001A2568F39923B1F3552391F3951B550BB4
:10470000BB27AA2762177307840738F09F5F5F4FA4
:10471000220F331F441FAA1FA9F335D00E2E3AF0E3
:10472000E0E832D091505040E695001CCAF72BD0FB
:10473000FE2F29D0660F771F881FBB1F261737074C
:104740004807AB07B0E809F0BB0B802DBF01FF277E
:1047500093585F4F3AF09E3F510578F00C948C24AB
:104760000C943D255F3FE4F3983ED4F3869577950E
:104770006795B795F7959F5FC9F7880F911D969537
:10478000879597F90895E1E0660F771F881FBB1F93
:10479000621773078407BA0720F0621B730B840B40
:1047A000BA0BEE1F88F7E09508950E94DC23689409
:1047B000B1110C943D2508950E94222588F09F5741
:1047C00098F0B92F9927B751B0F0E1F0660F771F35
:1047D000881F991F1AF0BA95C9F714C0B13091F02B
:1047E0000E943C25B1E008950C943C25672F782F5A
:1047F0008827B85F39F0B93FCCF3869577956795F0
:10480000B395D9F73EF490958095709561957F4F5B
:104810008F4F9F4F0895E89409C097FB3EF4909501
:104820008095709561957F4F8F4F9F4F9923A9F089
:10483000F92F96E9BB279395F69587957795679518
:10484000B795F111F8CFFAF4BB0F11F460FF1BC05C
:104850006F5F7F4F8F4F9F4F16C0882311F096E9EF
:1048600011C0772321F09EE8872F762F05C066239D
:1048700071F096E8862F70E060E02AF09A95660F56
:10488000771F881FDAF7880F9695879597F908950F
:10489000DF93CF931F930F938B01EC01E1E1F1E0E4
:1048A0000E9495240E94F5249801AE018B01EC0131
:1048B00060E070E080E89FE30E94BD220E94CB256B
:1048C0009801AE010F911F91CF91DF910C94632558
:1048D000990F0008550FAA0BE0E8FEEF1616170611
:1048E000E807F907C0F012161306E407F50798F079
:1048F000621B730B840B950B39F40A2661F0232B92
:10490000242B252B21F408950A2609F4A140A6950D
:104910008FEF811D811D089597F99F6780E870E0F2
:1049200060E008959FEF80EC0895DF93CF931F938D
:104930000F93FF92EF92DF927B018C01689406C087
:10494000DA2EEF010E946325FE01E894A5912591DE
:10495000359145915591A6F3EF010E94D522FE01B4
:104960009701A801DA9469F7DF90EF90FF900F911B
:104970001F91CF91DF91089500240A94161617060F
:1049800018060906089500240A9412161306140640
:10499000050608950C9492240E942225D8F3E894E9
:1049A000E0E0BB279F57F0F02AED3FE049EC06C05E
:1049B000EE0FBB0F661F771F881F28F0B23A620701
:1049C0007307840728F0B25A620B730B840BE395CC
:1049D0009A9572F7803830F49A95BB0F661F771F4F
:1049E000881FD2F790480C941626092E0394000CC9
:1049F00011F4882352F0BB0F40F4BF2B11F460FF79
:104A000004C06F5F7F4F8F4F9F4F0895EF93E0FF7C
:104A100007C0A2EA2AED3FE049EC5FEB0E94D522F5
:104A20000E94F5240F90039401FC9058E9E3F1E013
:104A30000C94292657FD9058440F551F59F05F3F9D
:104A400071F04795880F97FB991F61F09F3F79F0B0
:104A500087950895121613061406551FF2CF469532
:104A6000F1DF08C0161617061806991FF1CF8695B4
:104A70007105610508940895E894BB276627772798
:104A8000CB0197F908950E94682408F48FEF0895E8
:104A90009B01AC0160E070E080E89FE30C9463232D
:104AA0000E9463250C94F5240E94BC2438F00E94D7
:104AB000C32420F0952311F00C948C240C949224A0
:104AC00011240C943D250E941A2570F3959FC1F383
:104AD000950F50E0551F629FF001729FBB27F00DAC
:104AE000B11D639FAA27F00DB11DAA1F649F662701
:104AF000B00DA11D661F829F2227B00DA11D621F50
:104B0000739FB00DA11D621F839FA00D611D221F09
:104B1000749F3327A00D611D231F849F600D211DED
:104B2000822F762F6A2F11249F5750409AF0F1F070
:104B300088234AF0EE0FFF1FBB1F661F771F881FD9
:104B400091505040A9F79E3F510580F00C948C2461
:104B50000C943D255F3FE4F3983ED4F3869577951A
:104B60006795B795F795E7959F5FC1F7FE2B880F7F
:104B7000911D9695879597F908959F930E94CC244F
:104B80000F9007FCEE5F0C94062519F416F40C94B4
:104B900092240C9414260E942225B8F39923C9F379
:104BA000B6F39F57550B87FF0E9422260024A0E6EC
:104BB00040EA900180585695979528F4805C660FDE
:104BC000771F881F20F026173707480730F4621B2D
:104BD000730B840B202931294A2BA695179407942F
:104BE000202531254A2758F7660F771F881F20F0A8
:104BF00026173707480730F4620B730B840B200D20
:104C0000311D411DA09581F7B901842F9158880F5E
:104C10009695879508959B01AC010C9450250E94B0
:104C20006824880B990B08959F3F31F0915020F430
:104C3000879577956795B795880F911D9695879578
:104C400097F9089591505040660F771F881FD2F74B
:104C500008959F938F937F936F93FF93EF939B019F
:104C6000AC010E945025EF91FF910E9495242F9155
:104C70003F914F915F910C945025EF920F931F93AA
:104C8000CF93DF93E80134E047FD34E1042E000CBC
:104C9000550B57FF03C0519541955109E32E022F43
:104CA000242FAE010E94A128CE01DF91CF911F9148
:104CB0000F91EF9008950F931F93CF93DF9382305E
:104CC000910510F482E090E0E091E10EF091E20EA7
:104CD00030E020E0B0E0A0E0309799F421153105F4
:104CE00009F44AC0281B390B24303105D8F58A81D4
:104CF0009B816115710589F1FB0193838283FE011C
:104D000011C0408151810281138148175907E0F099
:104D10004817590799F4109761F012960C9312975F
:104D200013961C933296CF01DF91CF911F910F9173
:104D300008950093E10E1093E20EF4CF2115310592
:104D400051F04217530738F0A901DB019A01BD0168
:104D5000DF01F801C1CFEF01F9CF9093E20E80930C
:104D6000E10ECDCFFE01E20FF31F8193919322500C
:104D7000310939832883D7CF2091DF0E3091E00E9F
:104D8000232B41F420910202309103023093E00E74
:104D90002093DF0E20910002309101022115310590
:104DA00041F42DB73EB74091040250910502241BF7
:104DB000350BE091DF0EF091E00EE217F307A0F45F
:104DC0002E1B3F0B2817390778F0AC014E5F5F4F61
:104DD0002417350748F04E0F5F1F5093E00E4093A5
:104DE000DF0E819391939FCFF0E0E0E09CCFCF93D3
:104DF000DF930097E9F0FC01329713821282A091B1
:104E0000E10EB091E20EED0130E020E01097A1F448
:104E100020813181820F931F2091DF0E3091E00EAF
:104E20002817390709F061C0F093E00EE093DF0E18
:104E3000DF91CF910895EA01CE17DF07E8F54A81A7
:104E40005B819E0141155105B1F7E901FB83EA83BE
:104E500049915991C40FD51FEC17FD0761F480816A
:104E600091810296840F951FE9019983888382813D
:104E700093819B838A83F0E0E0E012968D919C9170
:104E800013970097B9F52D913C911197CD0102969A
:104E9000820F931F2091DF0E3091E00E2817390703
:104EA00039F6309751F51092E20E1092E10EB09360
:104EB000E00EA093DF0EBCCFD383C283408151812B
:104EC000840F951FC817D90761F44E5F5F4F888123
:104ED0009981480F591F518340838A819B81938315
:104EE00082832115310509F0B0CFF093E20EE093F3
:104EF000E10E9ECFFD01DC01C0CF13821282D7CF1D
:104F00004F925F926F927F928F929F92AF92BF92D9
:104F1000CF92DF92EF92FF920F931F93CF93DF9385
:104F20008C01009799F4CB01DF91CF911F910F91E4
:104F3000FF90EF90DF90CF90BF90AF909F908F90B9
:104F40007F906F905F904F900C945B26FC01E60F72
:104F5000F71F9C0122503109E217F30708F4AEC095
:104F6000D901CD91DC911197C617D70720F1C53033
:104F7000D10578F0CE0104978617970750F0C61B2D
:104F8000D70B2297C193D1936D937C93CF010E944D
:104F9000F726C801DF91CF911F910F91FF90EF90FD
:104FA000DF90CF90BF90AF909F908F907F906F9049
:104FB0005F904F9008955B01AC1ABD0A4C018C0EB6
:104FC0009D1EA091E10EB091E20E512C412CF12CCE
:104FD000E12C109731F58091DF0E9091E00E88154D
:104FE000990509F05CC04616570608F058C0809134
:104FF000000290910102009741F48DB79EB7409155
:10500000040250910502841B950BE817F90708F07C
:1050100055C0F093E00EE093DF0EF90171836083D9
:10502000B8CF8D919C91119712966C901297139610
:105030007C901397A815B90559F56C0142E0C40E90
:10504000D11CCA14DB0420F1AC014A195B09DA0156
:105050001296159780F06282738251834083D90142
:105060006D937C93E114F10471F0D7011396FC93D6
:10507000EE9312978ECF22968C0F9D1FF90191838C
:105080008083F301EFCFF093E20EE093E10E81CF46
:105090004816590608F42C017D01D3019ACFCB01A3
:1050A0000E945B267C01009749F0AE01B8010E9486
:1050B0006128C8010E94F72687016BCF10E000E04D
:1050C00068CFFB01DC0102C001900D9241505040BD
:1050D000D8F70895FB01DC0101900D920020E1F763
:1050E00008954532510520F4423010F00C947C288C
:1050F000FB011082CB010895BB274A3031F499237C
:1051000022F4BDE2909581959F4F0C948828BB278F
:10511000FB015527AA27880F991FAA1FA41710F073
:10512000A41B83955051B9F7A05DAA3308F0A95D7F
:10513000A193009779F7B111B1931192CB010C941F
:10514000F22A8F929F92AF92BF92CF92DF92EF920C
:10515000FF920F931F93CF93DF9300D000D000D026
:10516000CDB7DEB76A01F22EB02E102FFBE3AF2EC3
:10517000A01608F41BE31F5F012F27E0AE014F5F6D
:105180005F4F0E941A2ABC018981982F9970913033
:1051900009F44EC09BE2E1FC04C09E2D9170E0FC3E
:1051A00049C05E2D5071E82FE87083FF55C084E040
:1051B000911101C083E0EF2DE81B8F1508F0E0E0AE
:1051C000D6018E2F20E25523C9F1992329F0D6016B
:1051D0009C93C60101966C0196012D5F3F4FE2FE44
:1051E00033C08EE4D6018C9391E411969C93119771
:1051F00012968C93D9018E2F90E281112AC0E20F72
:10520000F32FF11D10828EEF9FEF29960FB6F894C1
:10521000DEBF0FBECDBFDF91CF911F910F91FF90E9
:10522000EF90DF90CF90BF90AF909F908F900895B8
:105230009DE2B7CF90E2B5CF2D9381508111FCCF85
:10524000CE0ED11CE0E0C1CF8EE6D6018C9391E664
:10525000CCCF9D938150D1CF482F447082FF3DC069
:1052600084E0911101C083E08F1510F4EF2DE81B4D
:10527000D6018E2F20E2552309F1992329F0D6017A
:105280009C93C60101966C0196012D5F3F4FE2FE93
:105290001BC089E4D6018C938EE411968C931197F0
:1052A00086E412968C93D9018E2F90E2882309F41C
:1052B000A6CF9D938150FACF2D9381508111FCCFC1
:1052C000CE0ED11CE0E0D9CF89E6D6018C938EE6D4
:1052D00011968C93119786E6E4CF9B0177FF02C06D
:1052E00030E020E0A1E0B0E0911102C0B0E0A0E029
:1052F000F9013196AE0FBF1F8B2C912CBB2009F406
:1053000061C05401EFEFAE1ABE0AAA0DBB1DFA161A
:105310001B0619F014F04F2D4A1B511188C0E3FCF5
:1053200059C07601A42FB0E2A1114FC0C40ED11C08
:10533000992309F45BC040E0D6011196F6019083F1
:105340006D01552309F448C0012F060F9A81582F8B
:10535000507184FF03C0913309F4015010160CF012
:1053600047C0093008F008E0EEE2FE2E5B01A01A0B
:10537000B10885019194819491082F3F320729F457
:10538000D601FC92F60131966F016217730794F112
:10539000021713077CF5DB01A21BB30BAA24A3940D
:1053A000B12CAC0EBD1EAA0DBB1D11968C912150C7
:1053B0003109D601119628153905F4F0F6018083DC
:1053C0006D01DBCFB12CA12CA0CFF701B1937F01F0
:1053D000A150AACF9111B0CFD601942F50E302C0B3
:1053E0005D9391509111FCCFC40ED11C40E0ACCF25
:1053F00001E0BACF80E3DBCF6217730731F4963355
:1054000088F4953311F4552369F0F6018083FD018A
:10541000842F90E2811108C0A40FB11D1C9290E06E
:1054200080E0F3CE81E3F1CF91938150F3CF9111DE
:1054300083CF8ACF283008F027E03327DA01990F8D
:10544000311D87FD916000966105710539F4326068
:105450002E5F3D9330E32A95E1F708959F3F30F0AA
:1054600080387105610509F03C5F3C5F3D939130E8
:1054700008F08068911DDF93CF931F930F93FF92E5
:10548000EF92192F987F9695E92F96959695E90FAB
:10549000FF27E654FD4F99273327EE24FF24A70169
:1054A000E70105900894079428F4360FE71EF81ECC
:1054B000491F511D660F771F881F991F0694A1F77A
:1054C0000590079428F4E70EF81E491F561FC11DCA
:1054D000770F881F991F661F0694A1F70590079400
:1054E00028F4F80E491F561FC71FD11D880F991F9A
:1054F000661F771F0694A1F70590079420F4490FC3
:10550000561FC71FD81F990F661F771F881F069445
:10551000A9F784911095177041F0D695C7955795C6
:105520004795F794E7941A95C1F7E0E6F2E068949E
:105530001590159135916591959105907FE2739540
:10554000E118F10A430B560BC90BD009C0F7E10C67
:10555000F11E431F561FC91FD01D7EF4703311F476
:105560008A95E6CFE894015030F0080F0AF400273E
:10557000021708F4202F2395022F7A3328F079E3BD
:105580007D932A95E9F710C07D932A9589F60694B4
:1055900097956795379517951794E118F10A430B7E
:1055A000560BC90BD00998F023957E9173957A33E9
:1055B00008F070E37C932013B8F77E9170617D93BF
:1055C00030F0839571E37D9370E32A95E1F7112420
:1055D000EF90FF900F911F91CF91DF91992787FD59
:1055E00090950895DC01FC01672F71917723E1F715
:1055F000329704C07C916D9370836291AE17BF07A0
:10560000C8F3089512E0C3E3D2E000E006C0802FA3
:10561000FE010E9490222196011DC433D10780E033
:085620000807A9F7F894FFCF79
:105628000000E30E8000FFFF0000803F00004842BA
:1056380000002041000020410000F041FFFFCEFFA4
:105648000000614300000743801C801C801C801CF4
:10565800801C801C801C801C44726F766520666FDD
:1056680072776172642120202020202044726F7696
:105678006520446973743A2000233D3D3D3D3D3D1E
:105688003D3D3D3D3D3D3D3D3D3D3D3D3D3D3D3D42
:105698003D3D3D3D3D3D3D3D3D3D3D3D3D3D3D3D32
:1056A8003D3D3D3D3D3D3D3D005475726E65642078
:1056B8006F6E20506F696E742120202020202054A6
:1056C80075726E656420416E676C653A2000233DF3
:1056D8003D3D3D3D3D3D3D3D3D3D3D3D20447269A7
:1056E800766520436F6E74726F6C20506F696E74AC
:1056F80073203D3D3D3D3D3D3D3D3D3D3D3D0053E0
:1057080063686E69747470756E6B742020732E787C
:105718003A20002020732E793A20004D6974746570
:1057280020547565722020642E783A200020206469
:105738002E793A20005261646975733A20005769DE
:105748006E6B656C205068693A2000233D3D3D3DF5
:105758003D3D3D20436F72726563746564446F6FAD
:105768007220506F696E7473203D3D3D3D3D3D3D57
:105778003D002020793A20002020646973743A2083
:10578800002020616E676C653A2000233D3D3D3D59
:105798003D3D3D3D3D3D3D3D3D204D6964646C656D
:1057A80020446F6F72203D3D3D3D3D3D3D3D3D3DBB
:1057B8003D3D0044697374616E7A3A2000233D3D93
:1057C8003D3D3D3D3D3D3D3D3D3D3D204F72696583
:1057D8006E746174696F6E20506F696E74203D3D00
:1057E8003D3D3D3D3D3D3D3D3D3D0057696E6B6551
:1057F8006C20506869323A2000233D3D3D3D3D3DD7
:105808003D3D3D3D204564676520506F696E74736A
:10581800203D3D3D3D3D3D3D3D3D3D3D00446F6F9F
:105828007220666F756E642100233D3D3D3D3D3D10
:105838003D3D3D3D20446F6F7220506F696E74731B
:10584800203D3D3D3D3D3D3D3D3D3D3D00446F6F6F
:1058580072496E6465783A20200043414E205772A1
:10586800697465202D2054657374696E672074729D
:10587800616E736D697373696F6E206F6620434143
:105888004E20427573206D657373616765730043BD
:10589800414E20496E6974206F6B0043616E277416
:1058A80020696E69742043414E004C494441522D91
:1058B8005363616E004572726F722C205265736576
:1058C800742053797374656D00446F6F7220706132
:1058D800737365642C2052657365742053797374EF
:1058E800656D00000000004318421ABD1723188F89
:1058F80017A9179B170D0A006E616E00696E660086
:045908006F76660050
:00000001FF
