:100000000C9434020C94B11E0C94DC1E0C94071F4B
:100010000C94321F0C945D1F0C94881F0C94B31F1A
:100020000C94DE1F0C9465020C9465020C9465021E
:100030000C9465020C9465020C9465020C946502A4
:100040000C9465020C9465020C9465020C94650294
:100050000C9465020C9465020C9465020C946B215F
:100060000C9465020C94CA1A0C94001B0C94650243
:100070000C9465020C9465020C9465020C94650264
:100080000C9465020C9465020C9465020C94650254
:100090000C9465020C9465020C9465020C94650244
:1000A0000C9465020C9465020C9465020C94650234
:1000B0000C9465020C9465020C9465020C94650224
:1000C0000C9465020C9465020C9465020C94650214
:1000D0000C9465020C9465020C94611B0C94971BA4
:1000E0000C946502084AD73B3BCE016E84BCBFFD31
:1000F000C12F3D6C74319ABD56833DDA3D00C77FF8
:1001000011BED9E4BB4C3E916BAAAABE0000008090
:100110003F072C7AA5BA6CC590DA3B9365FC8BBC83
:1001200053F810FD3C5692834DBD879D3AB63DCBAA
:10013000C9BF5BBE73DA0FC93F05A84CCDB2D44E20
:10014000B93836A9020C50B9918688083CA6AAAAEB
:100150002ABE000000803F000C94F9190C948823FB
:100160000C9421230C94551E0C9449230C94731960
:100170000C943F230C944E100C94D9190C94A3109A
:100180000C945D100C943A100C9482190C949523E5
:100190000C94E4220C94C11B0C94691E0C94761EE2
:1001A0000C948B1E0C94C1220C94CB1B0C94DA2261
:1001B0000C9451190C94F81B0C9410110C94BB2343
:1001C0000C9475100C9420100C948B230C94B92271
:1001D0000C9408230C9467020C9491230C9429101E
:1001E0000C948C100C94FE220C94A9230C944519A9
:1001F0000C94341B0C945F190C94A41E0C94B12322
:100200000C94EC220C94971E0C949D100C94B72324
:100210000C949F230C9453230C94361E0C945D1E57
:100220000C94A3230C947C230C942B230C94C622B3
:100230000C9480230C94F4220C942A1B0C94B62367
:100240000C9435230C94AD230C949B230C948423A1
:100250000C94D0220C9406100C9412230C94762348
:1002600000407A10F35A00A0724E18090010A5D46D
:10027000E80000E87648170000E40B54020000CACA
:100280009A3B000000E1F505000080969800000010
:1002900040420F000000A08601000000102700006F
:1002A0000000E803000000006400000000000A00F5
:1002B000000000000100000000002C76D888DC67F8
:1002C0004F0823DFC1DFAE59E1B1B796E5E3E45350
:1002D000C63AE651997696E8E6C28426EB898C9B6D
:1002E00062ED407C6FFCEFBC9C9F40F2BAA56FA50D
:1002F000F490055A2AF75C936B6CF9676DC11BFC8F
:10030000E0E40D47FEF520E6B500D0ED902E0300A9
:10031000943577050080841E080000204E0A0000F6
:1003200000C80C333333330F986E12831141EF8DB5
:100330002114893BE65516CFFEE6DB18D1844B38F5
:100340001BF77C1D901DA4BBE424203284725E2226
:100350008100C9F124ECA1E53D2700000A0B020948
:100360000C0D0E080703040100000000000000004F
:10037000000000000000000000000000000000007D
:10038000000000000000121110000000000000003A
:10039000000000000000000000000000000000005D
:1003A0000102102020080810204010204080020187
:1003B000020108040201010204081020408080406C
:1003C000201008040201800402018040201008046B
:1003D0000201080402010102040810204080010209
:1003E00004081020408005050505070508080808D1
:1003F000020202020A0A08080404040401010101BD
:1004000001010101030303030303030304070707B7
:100410000C0C0C0C0C0C0C0C02020202060606065C
:10042000060606060B0B0B0B0B0B0B0B000022003A
:10043000250028002B002E003100340002010000AE
:10044000050108010B0100002100240027002A00FB
:100450002D003000330001010000040107010A01F2
:10046000A310341BCB1B101111241FBECFEFD1E200
:10047000DEBFCDBF00E00CBF15E0A0E0B2E0E8ECCD
:10048000F9E500E00BBF02C007900D92A031B10763
:10049000D9F72FE0A0E1B5E001C01D92A531B20768
:1004A000E1F712E0C3E3D2E000E006C021970109C2
:1004B000802FFE010E946024C033D10780E008072E
:1004C000A9F70E945C210C94D22C0C94000080911E
:1004D0001C0290911D02019629F410921D021092A7
:1004E0001C0208958FEF9FEF90931D0280931C02D2
:1004F000089561E089E00E94FB2360E08AE00E94A9
:10050000FB2360E088E00C94FB23EF92FF920F93B3
:100510001F93CF93DF937C01C4EDD8E08E01F801E7
:10052000608171814AE050E08EEC9DE00E94121DD6
:1005300064E574E08EEC9DE00E94421CF80162814B
:1005400073814AE050E08EEC9DE00E94121D64E54C
:1005500074E08EEC9DE00E94421CF801648175817C
:100560004AE050E08EEC9DE00E94191D025F1F4F93
:10057000FDE0003C1F0799F61B821A82198218823F
:100580001D821C821E821F82188619861A861B866F
:100590001C861D862E968DE0C03CD80769F7E8E1E1
:1005A000F6E0138212821182108215821482168262
:1005B00017821086118612861386148615863E963B
:1005C00088E0E43DF80769F7E4ECF5E088E196E0BF
:1005D000138212821182108215821482168217826F
:1005E0001086118612861386148615863E968E17FF
:1005F0009F0771F71092C3051092C205F0921D0279
:10060000E0921C02DF91CF911F910F91FF90EF902C
:1006100008954F925F926F927F928F929F92AF92C6
:10062000BF92CF92DF92EF92FF920F931F93CF93DF
:10063000DF9300D000D000D01F921F92CDB7DEB75D
:10064000E982FA820B831C832D833E834F83588774
:1006500069877A878B87CE0101960E945914882377
:1006600089F089819A818138910519F58C8190E012
:100670009093AF058093AE058D8190E09093B10586
:100680008093B0052B960FB6F894DEBF0FBECDBF9A
:10069000DF91CF911F910F91FF90EF90DF90CF905E
:1006A000BF90AF909F908F907F906F905F904F9092
:1006B00008958F3F974031F7B884A9847A846B847A
:1006C0000E94B5216B017093110560931005009194
:1006D0000602109107020F3F100709F4B6C06A2DF9
:1006E00070E0762F66276B0D711D072E000C880BAE
:1006F000990B0E94DD2527ED33EA4AEA51E40E9476
:1007000033252BED3FE049EC50E40E94202720E008
:1007100030E040E752E40E94332527ED33EA40E31E
:100720005EE30E9420274B015C01662D70E0762F6E
:100730006627670D711D072E000C880B990B0E9410
:10074000DD2527ED33EA4AEA51E40E9433252BEDFB
:100750003FE049EC50E40E94202720E030E040E7F1
:1007600052E40E94332527ED33EA40E35EE30E9422
:1007700020272B013C01C01AD10AB601DD0C880BE1
:10078000990B0E94DD256B017C01A5019401C30139
:10079000B2010E948D2428EB3EE145E05FE30E9418
:1007A0003325A70196010E94202720E030E04AE788
:1007B00054E40E94332520E030E044E353E40E94F7
:1007C00020272BED3FE049E450E40E9433259B01B4
:1007D000AC016091AA057091AB058091AC05909138
:1007E000AD050E948E246093AA057093AB0580939B
:1007F000AC059093AD05A3019201C501B4010E941F
:100800008E2420E030E040E05FE30E942027A70133
:1008100096010E94202720E030E04AE754E40E943D
:1008200033259B01AC01609156057091570580916D
:100830005805909159050E948E2460935605709337
:10084000570580935805909359050E94B5217093E0
:1008500007026093060216CFAF92BF92CF92DF924B
:10086000EF92FF920F931F93CF93DF9300D000D0AE
:1008700000D01F921F92CDB7DEB7588769877A875D
:100880008B878EE390E09A838983007E00610B83DF
:10089000CC82DD82AE82BF8240E060EE8FE00E94BB
:1008A000E813CE0101960E94BD146AE070E080E07A
:1008B00090E00E94E6212B960FB6F894DEBF0FBEA3
:1008C000CDBFDF91CF911F910F91FF90EF90DF90FF
:1008D000CF90BF90AF9008954F925F926F927F92AA
:1008E0008F929F92AF92BF92CF92DF92EF92FF9240
:1008F0000F931F93CF93DF93CDB7DEB767970FB6F4
:10090000F894DEBF0FBECDBF2B013C014A01E98048
:10091000FA800B811C812D813E814F81588569852C
:100920007A858B850E94090320E030E048EC52E490
:10093000C301B2010E94332560935E0570935F0589
:1009400080936005909361058091560590915705BD
:10095000A0915805B0915905809352059093530585
:10096000A0935405B093550582E195E00E942215AD
:100970001092A6051092A7051092A8051092A9053D
:100980008091AA059091AB05A091AC05B091AD0501
:100990008093A2059093A305A093A405B093A50509
:1009A00082E695E00E94221560919E0570919F0558
:1009B0008091A0059091A10590580E94A5255B010A
:1009C00060914E0570914F058091500590915105B1
:1009D0000E94A5256B01E980FA800B811C812D8185
:1009E0003E814F81588569857A858B850E942C04CC
:1009F000C0905605D0905705E0905805F0905905E5
:100A0000A701960160915E0570915F058091600578
:100A1000909161050E948D242B013C012DEC3CEC52
:100A20004CE45DE30E94292587FF45C02DEC3CEC9A
:100A30004CE45DEBC301B2010E9413271816DCF5EC
:100A400022E0B701A601CE0142960E94D22068E3BF
:100A500072E0CE010C960E947820BE016E5E7F4F40
:100A6000CE010C960E942E21BC018EEC9DE00E94CE
:100A7000551CCE010C960E940920CE0142960E9480
:100A8000092069E572E08EEC9DE00E94671C1092DF
:100A9000AA051092AB051092AC051092AD0510920C
:100AA00056051092570510925805109259059092CC
:100AB0001D0280921C0267960FB6F894DEBF0FBE2F
:100AC000CDBFDF91CF911F910F91FF90EF90DF90FD
:100AD000CF90BF90AF909F908F907F906F905F90DE
:100AE0004F9008954F925F926F927F928F929F9254
:100AF000AF92BF92CF92DF92EF92FF920F931F932C
:100B0000CF93DF93CDB7DEB767970FB6F894DEBF0C
:100B10000FBECDBF2B013C014A01E980FA800B8159
:100B20001C812D813E814F81588569857A858B8511
:100B30000E9409034092A6055092A7056092A8055D
:100B40007092A9058091AA059091AB05A091AC0582
:100B5000B091AD058093A2059093A305A093A40541
:100B6000B093A50582E695E00E94221560919E054E
:100B700070919F058091A0059091A10590580E94C9
:100B8000A5255B01D12CC12CE980FA800B811C8149
:100B90002D813E814F81588569857A858B850E949C
:100BA0002C0420E030E0A901C301B2010E94132708
:100BB000181624F077FA709477F87094C090AA050C
:100BC000D090AB05E090AC05F090AD0520E030E0B2
:100BD000A901C701B6010E941327A70196011816A3
:100BE0000CF05058C301B2010E948D242B013C012E
:100BF0002DEC3CEC4CEC5DE30E94292587FF3DC0C9
:100C00002DEC3CEC4CEC5DEBC301B2010E941327D0
:100C100018169CF522E0B701A601CE0142960E946B
:100C2000D22069E872E0CE010C960E947820BE01C5
:100C30006E5E7F4FCE010C960E942E21BC018EEC81
:100C40009DE00E94551CCE010C960E940920CE0109
:100C500042960E94092069E572E08EEC9DE00E94B8
:100C6000671C1092AA051092AB051092AC05109269
:100C7000AD0590921D0280921C0267960FB6F89403
:100C8000DEBF0FBECDBFDF91CF911F910F91FF90BF
:100C9000EF90DF90CF90BF90AF909F908F907F901C
:100CA0006F905F904F9008954F925F926F927F92F6
:100CB0008F929F92AF92BF92CF92DF92EF92FF926C
:100CC000CF93DF93CDB7DEB764970FB6F894DEBF4E
:100CD0000FBECDBF20E030E044E152E46091CA0590
:100CE0007091CB058091CC059091CD050E948D240B
:100CF0002B013C0120E030E040ED51E46091CE0555
:100D00007091CF058091D0059091D1050E948E24DD
:100D10004B015C0120E030E044E152E46091D805F1
:100D20007091D9058091DA059091DB050E948D24A0
:100D30006B017C0120E030E040ED51E46091DC0586
:100D40007091DD058091DE059091DF050E948E2473
:100D500069837A838B839C83D301C201B0588D83CE
:100D60009E83AF83B8878093CA059093CB05A093E9
:100D7000CC05B093CD05D501C401B05889879A87B9
:100D8000AB87BC878093CE059093CF05A093D00509
:100D9000B093D105D701C601B0588D879E87AF8724
:100DA000B88B8093D8059093D905A093DA05B093BA
:100DB000DB0589819A81AB81BC81B058898B9A8B84
:100DC000AB8BBC8B8093DC059093DD05A093DE0597
:100DD000B093DF05A3019201C301B2010E94202755
:100DE0002B013C01A5019401C501B4010E942027FB
:100DF0009B01AC01C301B2010E948E240E949B277B
:100E00000E94A5257093C7056093C6052D813E817C
:100E10004F81588569857A858B859C850E9433250D
:100E20000E94FA2420E030E044E353E40E942027AB
:100E30002BED3FE049E450E40E9433250E94A525B4
:100E4000A4ECB5E06D937C93A7019601C701B601B0
:100E50000E9420276B017C0129813A814B815C81B2
:100E6000CA01B9010E9420279B01AC01C701B6014C
:100E70000E948E240E949B270E94A5257093D50571
:100E80006093D4052D853E854F85588969897A8977
:100E90008B899C890E9433250E94FA2420E030E04F
:100EA00044E353E40E9420272BED3FE049E450E463
:100EB0000E9433250E94A5257093D3056093D20527
:100EC0006BE273E08EEC9DE00E94671C69E073E0CA
:100ED0008EEC9DE00E94421C4091CA055091CB05CA
:100EE0006091CC057091CD0522E030E08EEC9DE064
:100EF0000E94221E62E573E08EEC9DE00E94421C7F
:100F00004091CE055091CF056091D0057091D105EB
:100F100022E030E08EEC9DE00E94221E68E573E046
:100F20008EEC9DE00E94421C6091C6057091C70541
:100F30004AE050E08EEC9DE00E94121D61E673E0F5
:100F40008EEC9DE00E94421CE4ECF5E06081718132
:100F50004AE050E08EEC9DE00E94191D69E073E0CC
:100F60008EEC9DE00E94421C4091D8055091D9051D
:100F70006091DA057091DB0522E030E08EEC9DE0B7
:100F80000E94221E62E573E08EEC9DE00E94421CEE
:100F90004091DC055091DD056091DE057091DF0523
:100FA00022E030E08EEC9DE00E94221E68E573E0B6
:100FB0008EEC9DE00E94421C6091D4057091D50595
:100FC0004AE050E08EEC9DE00E94121D61E673E065
:100FD0008EEC9DE00E94421C6091D2057091D30579
:100FE0004AE050E08EEC9DE064960FB6F894DEBFC8
:100FF0000FBECDBFDF91CF91FF90EF90DF90CF90EC
:10100000BF90AF909F908F907F906F905F904F9028
:101010000C94191D4F925F926F927F928F929F92C4
:10102000AF92BF92CF92DF92EF92FF92CF93DF9376
:1010300000D000D000D01F92CDB7DEB79A87898745
:101040000E945406E090C605F090C7058091D40533
:101050009091D505E80EF91EF7FE03C08FEFE81A50
:10106000F80AF594E7942091D8053091D90540917C
:10107000DA055091DB056091CA057091CB0580912E
:10108000CC059091CD050E948E2420E030E040E018
:101090005FE30E9420274B015C012091DC05309129
:1010A000DD054091DE055091DF056091CE05709120
:1010B000CF058091D0059091D1050E948E2420E02B
:1010C00030E040E05FE30E9420272B013C0160916B
:1010D000C4057091C5058091D2059091D305680F24
:1010E000791F77FF02C06F5F7F4F75956795072E59
:1010F000000C880B990B0E94DD256093BC05709352
:10110000BD058093BE059093BF05B7010F2C000C61
:10111000880B990B0E94DD256093B4057093B5058B
:101120008093B6059093B7056BE673E08EEC9DE077
:101130000E94671C69E073E08EEC9DE00E94421CF7
:1011400022E030E0B501A4018EEC9DE00E94221E59
:1011500062E573E08EEC9DE00E94421C22E030E0EC
:10116000B301A2018EEC9DE00E94241E6EE173E0AB
:101170008EEC9DE00E94421C4091BC055091BD0543
:101180006091BE057091BF0522E030E08EEC9DE0DD
:101190000E94241E63E973E08EEC9DE00E94421CD5
:1011A0004AE050E0B7018EEC9DE00E94191D80914D
:1011B0001C0290911D02019709F07AC12091CA0585
:1011C0003091CB054091CC055091CD056091D8056B
:1011D0007091D9058091DA059091DB050E948D24EC
:1011E00020E030E044EB52EC0E9420276B017C01B0
:1011F0002091CE053091CF054091D0055091D10579
:101200006091DC057091DD058091DE059091DF0530
:101210000E948D249B01AC01C701B6010E943325B9
:1012200069837A838B839C8320E030E044EB52E433
:10123000C501B4010E948D246B017C0129813A8192
:101240004B815C81C301B2010E948D244B015C0182
:10125000A7019601C701B6010E9420272B013C017E
:10126000A5019401C501B4010E9420279B01AC0196
:10127000C301B2010E948E242B013C010E949B27D6
:101280006D837E838F839887A7019601C501B40182
:101290000E9433250E94FA2420E030E044E353E426
:1012A0000E9420272BED3FE049E450E40E943325C3
:1012B0000E94A525072E000C880B990B0E94DD25A6
:1012C0006093BC057093BD058093BE059093BF05E8
:1012D0006D817E818F8198850E94A525072E000C47
:1012E000880B990B0E94DD256093B4057093B505BA
:1012F0008093B6059093B7056DE973E08EEC9DE0A1
:101300000E94671C69E073E08EEC9DE00E94421C25
:1013100022E030E0B701A6018EEC9DE00E94221E83
:1013200062E573E08EEC9DE00E94421C22E030E01A
:10133000B501A4018EEC9DE00E94241E6EE173E0D5
:101340008EEC9DE00E94421C4091BC055091BD0571
:101350006091BE057091BF0522E030E08EEC9DE00B
:101360000E94241E63E973E08EEC9DE00E94421C03
:101370004091B4055091B5056091B6057091B705DF
:1013800022E030E08EEC9DE00E94241EC301B201F9
:101390000E949B272B013C0129813A814B815C8172
:1013A000CA01B9010E94202720E030E24DEF55E448
:1013B0000E948E240E949B276D837E838F83988753
:1013C00020E030E044EB52E4C701B6010E94202740
:1013D0006B017C01A501940169817A818B819C81DB
:1013E0000E9420279B01AC01C701B6010E948E24F8
:1013F0006B017C012D813E814F815885C301B20173
:101400000E9420279B01AC01C701B6010E94332531
:101410000E947C2420E030E044E353E40E94202733
:101420002BED3FE049E450E40E9433256B017C0141
:10143000C092B805D092B905E092BA05F092BB050A
:1014400020E030E0A9016091BC057091BD0580915C
:10145000BE059091BF050E9413271816ACF420E03A
:1014600030E0A901C701B6010E941327181664F4E1
:10147000F7FAF094F7F8F094C092B805D092B90555
:10148000E092BA05F092BB056BEC73E08EEC9DE048
:101490000E94421C4091B8055091B9056091BA056F
:1014A0007091BB0522E030E08EEC9DE00E94241E8E
:1014B00089859A8590931D0280931C022A960FB607
:1014C000F894DEBF0FBECDBFDF91CF91FF90EF90BC
:1014D000DF90CF90BF90AF909F908F907F906F9054
:1014E0005F904F9008952F923F924F925F926F922C
:1014F0007F928F929F92AF92BF92CF92DF92EF92A4
:10150000FF920F931F93CF93DF93CDB7DEB768970A
:101510000FB6F894DEBF0FBECDBF7C01788F6F8B06
:101520001092C1051092C00504ED18E04EE0D42ED3
:10153000F80160897189072E000C880B990B0E94B5
:10154000DD259B01AC010E948E244B015C01F8015A
:1015500062817381072E000C880B990B0E94DD2598
:101560009B01AC01C501B4010E948D244B015C01BB
:10157000F801668D778D072E000C880B990B0E9461
:10158000DD259B01AC01C501B4010E948D240E94A0
:10159000A5256E157F05DCF4F801828993890B97E8
:1015A000B4F08091C2059091C305D89ED001D99E18
:1015B000B00D1124A85EB94F3E962D2D01900D92CD
:1015C0002A95E1F701969093C3058093C205025FC7
:1015D0001F4F2DE0023B120709F0AACF8091C00DEA
:1015E0008823F1F169ED73E08EEC9DE00E94671CA9
:1015F00008E116E0F12CE12C8091C2059091C30521
:10160000E816F9066CF5F801608171814AE050E056
:101610008EEC9DE00E94121D64E574E08EEC9DE06E
:101620000E94421CF801628173814AE050E08EEC16
:101630009DE00E94121D64E574E08EEC9DE00E9426
:10164000421CF801648175814AE050E08EEC9DE017
:101650000E94191DFFEFEF1AFF0A025F1F4FCCCF48
:1016600038E1232E36E0332E18861F828091C20582
:101670009091C3052F813885281739070CF452C083
:101680002090C0053090C10504EC15E07801D12C04
:10169000C12CC214D3040CF052C1F70162817381D2
:1016A000072E000C880B990B0E94DD254B015C0175
:1016B000F70160817181072E000C880B990B0E9445
:1016C000DD252BED3FE049E450E40E94202720E097
:1016D00030E044E353E40E9433252B013C010E9497
:1016E0002E259B01AC01C501B4010E942027F70102
:1016F0006683778380879187C301B2010E948D271B
:101700009B01AC01C501B4010E942027F70162874B
:10171000738784879587FFEFCF1ADF0A2EE0E20EEA
:10172000F11CB7CF6F8178856F5F7F4F78876F83AC
:1017300081017A8769878091C2059091C305E98507
:10174000FA85E817F90724F0FEE02F0E311C8ECF42
:10175000F1010190F081E02DFC87EB87F801068410
:10176000F785E02DFE87ED876B857C856E1B7F0BF3
:10177000072E000C880B990B0E94DD252BED3FE016
:1017800049E450E40E94202720E030E044E353E4A1
:101790000E9433250E942E256B8B7C8B8D8B9E8B1C
:1017A000F1010280F381E02DF88BEF87CF016AE031
:1017B00070E00E942A24072E000C880B990B0E94CF
:1017C000DD256B017C01F8010088F189E02DFA8BA1
:1017D000E98BCF016AE070E00E942A24072E000CFA
:1017E000880B990B0E94DD254B015C01A701960136
:1017F000C701B6010E9420272B013C01A5019401DD
:10180000C501B4010E9420279B01AC01C301B201B4
:101810000E948E242B013C01A7019601C701B6014D
:101820000E948E24A50194010E9420272B893C89C7
:101830004D895E890E9420279B01AC01C301B20142
:101840000E948D240E949B2720E030E040E251E47A
:101850000E9420276B017C0120E030E040E752E449
:101860000E94132718160CF061C020E030E042ED12
:1018700052E4C701B6010E94292587FF57C08F8512
:10188000988929893A89820F931F97FD019695952A
:1018900087958C599F4FE4EDF8E021E0408151811C
:1018A0006B857C85641775075CF46D857E854617AE
:1018B000570734F442815381481759070CF420E04C
:1018C0003E967DE0E03CF70749F7222379F18091CD
:1018D000C0059091C105EEE0E89FD001E99FB00DF1
:1018E0001124AC53BA4FF1012EE001900D922A95CC
:1018F000E1F79C012F5F3F4FFEE0F29FD001F39F85
:10190000B00D1124AC53BA4FF8013E962EE0019071
:101910000D922A95E1F702969093C1058093C00538
:101920006DEF73E08EEC9DE00E94671C29853A857F
:101930002F5F3F4F3A872987025F1F4FFCCE69E038
:1019400074E08EEC9DE00E94671CF12CE12C8091EC
:10195000C0059091C105E816F9060CF046C069E093
:1019600073E08EEC9DE00E94421CF8014681578195
:101970006085718522E030E08EEC9DE00E94221EA1
:1019800062E573E08EEC9DE00E94421CF801428506
:1019900053856485758522E030E08EEC9DE00E94E1
:1019A000221E68E573E08EEC9DE00E94421CF80167
:1019B000628173814AE050E08EEC9DE00E94121D2E
:1019C00061E673E08EEC9DE00E94421CF8016081AC
:1019D00071814AE050E08EEC9DE00E94191DFFEFFE
:1019E000EF1AFF0A025F1F4FB2CF6DE274E08EEC78
:1019F0009DE00E94421C6091C0057091C1054AE0C3
:101A0000CE0101960E949720BE016F5F7F4F8EEC42
:101A10009DE00E94551CCE0101960E9409208091F4
:101A2000C0059091C10582309105F9F42F89388D58
:101A300030931D0220931C0268960FB6F894DEBF07
:101A40000FBECDBFDF91CF911F910F91FF90EF900F
:101A5000DF90CF90BF90AF909F908F907F906F90CE
:101A60005F904F903F902F900895009711F003974B
:101A70001CF38FE090E090931D0280931C02DCCF5A
:101A80002F923F924F925F926F927F928F929F928E
:101A9000AF92BF92CF92DF92EF92FF920F931F937C
:101AA000CF93DF93CDB7DEB764970FB6F894DEBF60
:101AB0000FBECDBF7C0198EEC92E93E0D92E2EE04B
:101AC000322E44EF51E060E070E081EC9DE00E9436
:101AD000521197FDC2C08090C70D9090C80DA09084
:101AE000C90DB090CA0DA5019401609120027091BA
:101AF000210280912202909123020E94132787FDE8
:101B00003AC0A50194016091240270912502809150
:101B10002602909127020E942925181664F1409010
:101B2000C30D5090C40D6090C50D7090C60D2090EF
:101B3000CB0DC501B4010E94A5259B012758310991
:101B4000329E8001339E100D11240C52174FF80164
:101B50007183608320E030E040E251E4C301B201D0
:101B60000E9433250E94A525F80173836283822D8C
:101B700090E095838483F1E0CF1AD10809F0A1CFDA
:101B800004ED18E0F80187E890E028E833E14281AD
:101B90005381452B21F491838083338322833E96A6
:101BA0000196813E910599F78091C00D882381F1BE
:101BB00080ECC82E8DE0D82EF801608171814AE05A
:101BC00050E08EEC9DE00E94121D64E574E08EEC06
:101BD0009DE00E94421CF801628173814AE050E05E
:101BE0008EEC9DE00E94121D64E574E08EEC9DE099
:101BF0000E94421CF801648175814AE050E08EEC3D
:101C00009DE00E94191D025F1F4FC016D106A1F66C
:101C100070E060E083E00E948122B70180911E02A3
:101C200090911F020E94730A64960FB6F894DEBF6B
:101C30000FBECDBFDF91CF911F910F91FF90EF901D
:101C4000DF90CF90BF90AF909F908F907F906F90DC
:101C50005F904F903F902F90089570E060E083E098
:101C60000E9481226AE374E08EEC9DE00E94671C72
:101C700024E630E040E050E0BE016F5F7F4F81EC32
:101C80009DE00E94D91297FD76CF28EE33E040E028
:101C900050E060E081EC9DE00E9468136FEF70E01F
:101CA00083E00E94812268EE73E080E090E00E9471
:101CB000E62161CF8130910539F08230910581F0C4
:101CC000892BC1F40C94790260E089E00E94FB2327
:101CD00061E08AE00E94FB2360E088E00C94FB2333
:101CE00060E089E00E94FB2360E08AE00E94FB2321
:101CF00061E0F3CF08958F929F92AF92BF92CF92FF
:101D0000DF92EF92FF920F931F93CF93DF93CDB7A4
:101D1000DEB76D970FB6F894DEBF0FBECDBFB82EFD
:101D2000E980FA800B811C812D813E814F8158858D
:101D300069857A858B850E9409036091B005709151
:101D4000B1053AEFC32ED12CC61AD70A68377105F0
:101D50001CF5CC24DD24C61AD70ABB20E9F0072ED7
:101D6000000C880B990B0E94DD2520E030E040E05C
:101D70005FE30E9420274B015C01B601DD0C880B5C
:101D8000990B0E94DD259B01AC01C501B4010E94A5
:101D90008E240E94A5256B018091AE059091AF0520
:101DA000AA24BB24A81AB90A883791052CF02AEF77
:101DB000A22EB12CA81AB90A4AE0B501CE010C96A0
:101DC0000E9497204AE0B601CE0148960E949720D3
:101DD00066E474E0CE0142960E947820BE01685EFF
:101DE0007F4FCE0142960E942E2166E574E00E944C
:101DF0004121BE01645F7F4F0E942E21BC018EEC09
:101E00009DE00E94551CCE0142960E940920CE0101
:101E100048960E940920CE010C960E940920E98074
:101E2000FA800B811C812D813E814F815885698507
:101E30007A858B850E942C046D960FB6F894DEBFD0
:101E40000FBECDBFDF91CF911F910F91FF90EF900B
:101E5000DF90CF90BF90AF909F908F900895CF92DA
:101E6000DF92EF92FF920F931F936BE67EE081EC7F
:101E70009DE00E94321126E040E052EC61E070E00B
:101E80008EEC9DE00E94461A61E083E00E94BF2331
:101E900061E086E10E94BF2361E088E00E94BF23E9
:101EA00061E08AE00E94BF2361E089E00E94BF23D5
:101EB00062E082E00E94BF2343E050E067E672E008
:101EC00080E00E94371E61E086E10E94FB236AE009
:101ED00070E080E090E00E94E62165E674E08EEC20
:101EE0009DE00E94671C68EE73E080E090E00E9435
:101EF000E62163E08DEC9DE00E941F156AE974E025
:101F0000811102C066EA74E08EEC9DE00E94671CBD
:101F100068EE73E080E090E00E94E62161E070E00E
:101F200082E695E00E944D18C0901002D0901102F8
:101F3000E0901202F0901302009114021091150229
:101F40002091160230911702409118025091190207
:101F500060911A0270911B0282E695E00E946F1751
:101F600061E070E082E195E00E944D18C0905A0552
:101F7000D0905B05E0905C05F0905D050091080253
:101F80001091090220910A0230910B0240910C023B
:101F900050910D0260910E0270910F0282E195E066
:101FA0000E946F1700E010E020EF31E440E050E0C5
:101FB00060EF71EC82E195E00E9485171F910F910F
:101FC000FF90EF90DF90CF9008951092B205E091CE
:101FD0001C02F0911D02E131F10508F0AEC0882726
:101FE000EB50F04F8F4F0C946024061020102910F6
:101FF0003A104E105D109D109D109D109D109D106B
:102000009D109D109D109D1075108C1081E0809387
:10201000B30565EB74E08EEC9DE00E94671C81E0E7
:1020200090E00E945A0E81E090E00E94400D809165
:10203000B305882309F486C08091B2050C947B0E09
:1020400081E090E00E945A0E82E090E00E940A082F
:10205000EECF81E090E00E945A0E6091BC05709135
:10206000BD058091BE059091BF0543E050E00E9400
:102070007205DDCF81E08093B20581E090E00E949F
:102080005A0E6091B4057091B5058091B605909196
:10209000B70544E050E00E946C04C9CF81E090E0B5
:1020A0000E945A0E6091B8057091B9058091BA05E9
:1020B0009091BB0545E050E0DACF81E08093B20516
:1020C00081E090E00E945A0E20E030E040E252E4CD
:1020D0006091B4057091B5058091B6059091B705F2
:1020E0000E948E2440E150E0D6CF1092B30560EC00
:1020F00074E08EEC9DE00E94671C8FEF9FEF0E94C2
:10210000850282E090E00E945A0E60ED77E080E068
:1021100090E00E94E6218BCF1092B30581E090E021
:102120000E945A0E64ED74E08EEC9DE00E94671CE4
:102130008FEF9FEF0E9485027ACF1092B3050E9425
:10214000790275CF0895AF92BF92CF92DF92EF924E
:10215000FF920F931F9381EC9DE00E941411A090B9
:102160001402B0901502C0901602D0901702E090B1
:102170001802F090190200911A0210911B021F928E
:102180001F92809113028F93809112028F938091FE
:1021900011028F93809110028F9326EA35E04EE969
:1021A00055E062EA75E082E695E00E941319A0907E
:1021B0000802B0900902C0900A02D0900B02E09091
:1021C0000C02F0900D0200910E0210910F021F926E
:1021D0001F9280915D058F9380915C058F93809114
:1021E0005B058F9380915A058F932EE535E04EE481
:1021F00055E062E575E082E195E00E9413198DB724
:102200009EB70C960FB6F8949EBF0FBE8DBF1F9160
:102210000F91FF90EF90DF90CF90BF90AF90089517
:1022200081EC9DE00C943011FC011182108212822D
:1022300013821482158216821782108611861286E6
:1022400013860895CF93DF93EC01888199810097DD
:1022500021F00E94A81A19821882DF91CF91089567
:102260000C9422110F931F93CF93DF93EC018B01FA
:1022700088819981892B19F0CE010E94221119833E
:102280000883C8010E94A81A26E040E052EC61E0F1
:1022900070E0888199810E94461ADF91CF911F9149
:1022A0000F9108954F925F926F927F928F929F92BB
:1022B000AF92BF92EF92FF921F93CF93DF9300D024
:1022C0001F921F92CDB7DEB77C012A013B010E940D
:1022D000B5214B015C0110E00E94B5216819790914
:1022E0008A099B09461657066806790608F472C0E3
:1022F000D7018D919C91DC01ED91FC910284F385D5
:10230000E02D199597FDE8CF112309F457C011303E
:1023100009F45DC091E0910FE1E0F0E0EC0FFD1FEA
:10232000E10FF11D8083953009F046C06C817D81FD
:1023300090E080E00E94DB2520E030E040E85EE3B2
:102340000E942027D70112966D937D938D939C93C5
:1023500015976A817B817695679590E080E00E9471
:10236000DB2520E030E040E85CE30E942027F70115
:1023700066837783808791878981282F30E0359520
:1023800027953595279522878170838760E070E0D7
:10239000CB010F900F900F900F900F90DF91CF9186
:1023A0001F91FF90EF90BF90AF909F908F907F9084
:1023B0006F905F904F900895192F8ECF9C013595A7
:1023C0002795FC01E2279F0120FDA4CF85CF80FD4A
:1023D000A1CF81CF62E070E880E090E8DACFCF92C1
:1023E000DF92EF92FF920F931F93CF93DF9300D072
:1023F00000D01F92CDB7DEB77C01162F5F834E83CE
:1024000069011D82232B21F0CA01892B09F0106874
:1024100005EA09831A83D7018D919C91DC01ED9126
:10242000FC910280F381E02D42E050E0BE016F5F3D
:102430007F4F199517FF40C06D8160276C2561277C
:102440006D83EE81FF8196012E0F3F1FE217F30788
:1024500029F091918D8189278D83F8CFCC82F70166
:1024600080819181DC01ED91FC910280F381E02D6E
:1024700041E050E0BE016C5F7F4F1995F70180810C
:1024800091814C8150E0DC01ED91FC910280F3815F
:10249000E02DBE016A5F7F4F1995F7018081918120
:1024A000DC01ED91FC910280F381E02D41E050E0F0
:1024B000BE016B5F7F4F199560E070E0CB012796FE
:1024C0000FB6F894DEBF0FBECDBFDF91CF911F9145
:1024D0000F91FF90EF90DF90CF900895FC01208145
:1024E0003181232B39F030E020E050E040E065E21C
:1024F0000C94EF1161E070E880E090E808957F921D
:102500008F929F92AF92BF92CF92DF92EF92FF9203
:102510000F931F93CF93DF938C01EB0149015A0175
:102520000E94B5216B017C01712C0E94B5216C19B0
:102530007D098E099F0986169706A806B906A0F19F
:10254000D8018D919C91DC01ED91FC910284F38581
:10255000E02D199597FDE9CF7720F1F0B1E07B16DA
:10256000F9F091E0970DFE01E70DF11D80839730A2
:1025700089F460E070E0CB01DF91CF911F910F9162
:10258000FF90EF90DF90CF90BF90AF909F908F9093
:102590007F900895792EC9CF853A910511F3C5CF63
:1025A0008A359105F1F2C0CF62E070E880E090E8F2
:1025B000E3CF4F925F926F927F928F929F92AF92F2
:1025C000BF92CF92DF92EF92FF920F931F93CF9320
:1025D000DF9300D000D01F92CDB7DEB77C016B0136
:1025E00049015A010E94B5212B013C01D7018D916F
:1025F0009C91892B09F45EC030E020E050E040E07F
:1026000060E5C7010E94EF1197FD3DC0A50194014F
:10261000BE016F5F7F4FC7010E947F1297FD33C0DD
:102620008F81843009F04BC08B819C81AD812E81DC
:10263000B22FBF734497A105B10508F440C08601CD
:10264000B4E1CB0ED11C0E94B5216419750986092D
:10265000970986169706A806B906A8F1F7018081A2
:102660009181DC01ED91FC910284F385E02D1995B7
:1026700097FDE9CFF80181938F01CE16DF0619F798
:1026800060E070E0CB0127960FB6F894DEBF0FBE76
:10269000CDBFDF91CF911F910F91FF90EF90DF9011
:1026A000CF90BF90AF909F908F907F906F905F90F2
:1026B0004F90089561E070E880E090E8E4CF60E03A
:1026C00070E8CB01E0CF62E070E880E090E8DBCF1B
:1026D000BF92CF92DF92EF92FF920F931F93CF930F
:1026E000DF9300D000D01F92CDB7DEB7DC01ED91B3
:1026F000FC91EF2B09F440C069017A01B62E8C01E0
:102700000E946E1260E2B11061E230E020E050E021
:1027100040E0C8010E94EF1197FD1AC0A701960181
:10272000BE016F5F7F4FC8010E947F1297FD10C0EE
:102730008F818138E9F48B819C81AD812E81B22F0C
:10274000BF730597A105B10598F060E070E0CB017B
:1027500027960FB6F894DEBF0FBECDBFDF91CF91A5
:102760001F910F91FF90EF90DF90CF90BF90089551
:1027700060E070E8CB01ECCF61E070E880E090E8C9
:10278000E7CF8EBD0DB407FEFDCF8EB50895CF9374
:10279000DF93D82FC62F289882E00E94C1138D2F77
:1027A0000E94C1138C2F0E94C113289ADF91CF91F0
:1027B0000895CF93C82F289883E00E94C1138C2FCF
:1027C0000E94C1138FEF0E94C113289ACF910895E0
:1027D0001F93CF93DF93182FD62FC42F289885E00F
:1027E0000E94C113812F0E94C1138D2F0E94C1131B
:1027F0008C2F0E94C113289ADF91CF911F910895C9
:1028000028980E94C1138FEF0E94C113289A08953F
:10281000CF93C82F289A209A29982A982B98219AE2
:10282000229A23986C98749A81E58CBD1DBC2898D7
:1028300080EC0E94C113289A87EC90E00197F1F791
:1028400000C00000289882E00E94C11388E20E9424
:10285000C11382E00E94C11380E90E94C1138C2F32
:102860000E94C11383E00E94C113289A8AE20E9449
:10287000D9138C1741F0809102018062809302018C
:1028800080E0CF91089560E08CE00E94C71360E083
:102890008DE00E94C71360E680E60E94C71360E6E1
:1028A00080E70E94C71360E08FE00E94C71381E0B9
:1028B000E8CFEF92FF920F931F93CF93DF938C019A
:1028C00080EB0E940014C82F282F2074E22E86FD72
:1028D00005C084E9C7FD03C080E040C080E92898B6
:1028E0000E94C1138FEF0E94C113E8E08E9FC001C8
:1028F0001124F801918380838FEF0E94C113282F48
:10290000229526952770F80180819181822B9183F1
:1029100080838FEF0E94C1138FEF0E94C1138FEF4E
:102920000E94C1138F70F82E982F990FF8018281A1
:10293000817E892BC3FB80F982830D5F1F4FD0E01E
:10294000DF1113C0289A40E061E0E11001C062E0AD
:102950008CE20E94E8138C2F87708F5FDF91CF91FC
:102960001F910F91FF90EF9008958FEF0E94C11378
:10297000F80181938F01DF5FE3CFFF920F931F93E5
:10298000CF93DF938C0180EA0E94001482FF07C07E
:1029900084FF44C0C4E086FF03C0C0E038C0C0E08C
:1029A00028988C2F80640E94C113F8018081918146
:1029B00023E0969587952A95E1F70E94C113F801C7
:1029C00080818295880F807E0E94C11380E00E94E2
:1029D000C11380E00E94C113F8018281D82FD695DF
:1029E000DF7080FF1DC08D2F80640E94C113289A64
:1029F00087EC90E00197F1F700C000002898C11122
:102A000001C0C1E08C2F80680E94C113289A8C2FCE
:102A1000DF91CF911F910F91FF900895C2E0C0CF39
:102A20008D2F0E94C1130D5F1F4FF12CFD16F9F27F
:102A3000F80181918F010E94C113F394F7CF862F83
:102A40000C9408142F923F924F925F926F927F9254
:102A50008F929F92AF92BF92CF92DF92EF92FF92AE
:102A60000F931F93CF93DF93CDB7DEB760970FB669
:102A7000F894DEBF0FBECDBFDC01DA96BC91BD83FA
:102A8000B1111BC01D828D8160960FB6F894DEBF18
:102A90000FBECDBFDF91CF911F910F91FF90EF90AF
:102AA000DF90CF90BF90AF909F908F907F906F906E
:102AB0005F904F903F902F900895988B8F870E9442
:102AC000B5216B877C878D879E87EF85F88982A1EA
:102AD00093A1A4A1B5A12B853C854D855E85281BBE
:102AE000390B4A0B5B0BDA01C90146A557A560A952
:102AF00071A984179507A607B70720F2048CF58DF6
:102B0000E02D80819181A281B38189839A83AB83F7
:102B1000BC83AF85B8899096ED91FC9129813A816B
:102B20004B815C8160817181828193810E948D24BF
:102B30004B015C01EF85F88922A533A544A555A575
:102B400069817A818B819C810E948D246B017C013B
:102B5000AF85B88950962D913D914D915C915397D9
:102B6000C501B4010E942027EF85F88926A137A16D
:102B700040A551A50E948E242B013C01AF85B88948
:102B800096964D925D926D927C929997DB96BC9150
:102B9000BE83B11118C0EF85F88924853585468537
:102BA0005785C701B6010E9420279B01AC01C301D4
:102BB000B2010E948D24AF85B88996966D937D935E
:102BC0008D939C939997EF85F88946A057A060A4B0
:102BD00071A416A907A930AC21AC212F302F432DA9
:102BE000522DC301B2010E94132718160CF07FC0AA
:102BF000812F902FA32DB22DEF85F88986A397A35F
:102C0000A0A7B1A7BE81BB2309F490C0EF85F889C6
:102C10002485358546855785C501B4010E94202746
:102C20004B015C01AF85B88954962D913D914D9132
:102C30005C915797C701B6010E9420279B01AC0108
:102C4000EF85F88966A177A180A591A50E948D24C2
:102C5000A50194010E948E246B017C019B01AC01B3
:102C6000612F702F832D922D0E94292587FD1BC077
:102C7000AF85B889D2961C91D297D3960C91D397F1
:102C8000D4963C90D497D5962C909601A701612FAD
:102C9000702F832D922D0E941327181624F01C2DBF
:102CA0000D2D3E2C2F2CAF85B8895E96ED91FC91B1
:102CB000812F902FA32DB22D80839183A283B38384
:102CC00029813A814B815C81AF85B8899A962D9391
:102CD0003D934D935C939D972B853C854D855E85FB
:102CE00092962D933D934D935C939597CCCEAF8563
:102CF000B889D2962D913D914D915C91D5972F83B6
:102D0000388749875A87C301B2010E94292587FF66
:102D100079CF2F81388549855A85AF85B8899696B0
:102D20002D933D934D935C9399976CCF812C912C6F
:102D3000540178CF4F925F926F927F928F929F92C1
:102D4000AF92BF92CF92DF92EF92FF920F931F93B9
:102D5000CF93DF9300D000D0CDB7DEB79E838D83B5
:102D600049835A836B837C832801390120E030E05A
:102D7000A90169817A818B819C810E94292587FD27
:102D800097C020E030E0A901C301B8010E942925C5
:102D900087FD8EC020E030E0A901C701B6010E9486
:102DA000292587FD85C0AD81BE815B96BC92AE9220
:102DB0005A9781E0AA94AB2809F080E0ED81FE816A
:102DC00083AF89819A81AB81BC8180839183A28307
:102DD000B3834482558266827782C086D186E2863A
:102DE000F38666A577A580A991A90E94DB2520E03E
:102DF00030E04AE754E40E9433254B015C018981AD
:102E00009A81AB81BC81ED81FE8184879587A687FD
:102E1000B787A5019401C301B2010E9420272B01AD
:102E20003C01AD81BE8150964D925D926D927C9237
:102E30005397A5019401C701B6010E9433256B0188
:102E40007C01ED81FE81C48AD58AE68AF78A808D6D
:102E5000918D019769F529813A814B815C8160E010
:102E600070E0CB010E948D24AD81BE811C966D93D4
:102E70007D938D939C931F97A301920160E070E076
:102E8000CB010E948D24ED81FE81608B718B828B42
:102E9000938BA701960160E070E0CB010E948D2426
:102EA000AD81BE8154966D937D938D939C9357977E
:102EB00026960FB6F894DEBF0FBECDBFDF91CF913F
:102EC0001F910F91FF90EF90DF90CF90BF90AF9048
:102ED0009F908F907F906F905F904F900895AF92EA
:102EE000BF92CF92DF92EF92FF920F931F93FC015C
:102EF000A28CB38C0E949A161F910F91FF90EF90B5
:102F0000DF90CF90BF90AF9008952F923F924F9255
:102F10005F926F927F928F929F92AF92BF92CF9269
:102F2000DF92EF92FF920F931F93CF93DF93EC0109
:102F30006A017B0148015901A9019801CB01B60141
:102F40000E94132787FF4FC0CAAADBAAECAAFDAADA
:102F50008EAA9FAAA8AEB9AE8AAD882309F443C051
:102F60002E8C3F8CF1014080518062807380A301E0
:102F70009201C501B8010E94292587FF1AC0F101FD
:102F800080829182A282B3828EA09FA0A8A4B9A4BD
:102F9000CEA8DFA8E8ACF9ACA7019601C501B40141
:102FA0000E94132718169CF4CEA2DFA2E8A6F9A669
:102FB0001AC0A3019201C701B6010E941327181677
:102FC0001CF7F101C082D182E282F382DDCFCAA870
:102FD000DBA8ECA8FDA8A7019601C501B4010E94D9
:102FE000292587FDE1CFDF91CF911F910F91FF90B0
:102FF000EF90DF90CF90BF90AF909F908F907F9099
:103000006F905F904F903F902F9008958F929F9276
:10301000AF92BF92CF92DF92EF92FF92CF93DF9366
:10302000EC01EE8DFF8DC080D180E280F380CEA2D6
:10303000DFA2E8A6F9A6EC8DFD8D80819181A281A9
:10304000B3818AA79BA7ACA7BDA78EA89FA8A8AC51
:10305000B9ACA5019401C701B6010E941327181647
:103060002CF48EA29FA2A8A6B9A60CC08AA89BA8E1
:10307000ACA8BDA8A5019401C701B6010E942925ED
:1030800087FDEFCFDF91CF91FF90EF90DF90CF9052
:10309000BF90AF909F908F9008951F93CF93DF9331
:1030A000EC0111E06130710509F010E0613071054B
:1030B00031F48AAD811103C0CE010E9406181AAF07
:1030C000DF91CF911F9108950F931F93CF93DF93BB
:1030D000EC018B018AAD882361F1888D998D86176B
:1030E000970739F12C853D854E855F8560E070E05E
:1030F000CB010E948D246C877D878E879F872889CE
:1031000039894A895B8960E070E0CB010E948D2497
:10311000688B798B8A8B9B8B2C893D894E895F8943
:1031200060E070E0CB010E948D246C8B7D8B8E8BD8
:103130009F8B198F088FDF91CF911F910F91089569
:103140004F925F926F927F928F929F92AF92BF92B7
:10315000CF92DF92EF92FF920F931F93CF93DF9363
:1031600000D01F92CDB7DEB74C0127013801A982EC
:10317000BA82CB82DC82FC01578F468F758F648FB9
:1031800031A320A312AE80E090E0A0EAB2EC82ABC3
:1031900093ABA4ABB5AB80E090E0A0EAB2E486AB21
:1031A00097ABA0AFB1AF84E690E0A0E0B0E086A717
:1031B00097A7A0ABB1AB6E8D7F8DC4010E94641840
:1031C000AC8CBD8CC88CD98CEA8CFB8C09811A81A3
:1031D0002B813C81B301A201C4010E949A160E9476
:1031E000B521F40146A457A460A871A86419750913
:1031F0008609970962A373A384A395A30F900F90E8
:103200000F900F90DF91CF911F910F91FF90EF9052
:10321000DF90CF90BF90AF909F908F907F906F90F6
:103220005F904F9008958F929F92AF92BF92CF92EE
:10323000DF92EF92FF920F931F93CF93DF93CDB75F
:10324000DEB7E889F989AA89BB899C888D888F9225
:103250009F921F92992493949F92BF93AF93FF9351
:10326000EF930E94A0180FB6F894DEBF0FBECDBF3B
:10327000DF91CF911F910F91FF90EF90DF90CF9052
:10328000BF90AF909F908F900895FC01918D228DFB
:10329000892F90E0805C9F4F821B91098F73992743
:1032A0000895FC01918D828D981731F0828DE80F81
:1032B000F11D858D90E008958FEF9FEF0895FC013B
:1032C000918D828D981761F0A28DAE0FBF2FB11D29
:1032D0005D968C91928D9F5F9F73928F90E0089581
:1032E0008FEF9FEF0895FC01538D448D252F30E023
:1032F000842F90E0821B930B541710F0CF96089503
:10330000019708958AE29BE1892B49F080E090E0E3
:10331000892B29F00E942A1B81110E94000080E065
:1033200090E0892B49F080E090E0892B29F00E9401
:10333000000081110E94000080E090E0892B49F09C
:1033400080E090E0892B29F00E94000081110E940A
:10335000000081EC9BE1892B49F080E090E0892B13
:1033600029F00E94C11B81110C9400000895FC01FA
:10337000A48DA80FB92FB11DA35ABF4F2C91848DD6
:1033800090E001968F739927848FA689B7892C9333
:10339000A089B1898C91837080648C93938D848D86
:1033A000981306C00288F389E02D80818F7D808389
:1033B0000895CF93DF93EC01888D8823B9F0AA8913
:1033C000BB89E889F9898C9185FD03C0808186FDE0
:1033D0000DC00FB607FCF7CF8C9185FFF2CF80812F
:1033E00085FFEDCFCE010E94B719E9CFDF91CF91D4
:1033F0000895EF92FF920F931F93CF93DF93EC0109
:1034000081E0888F9B8D8C8D98131AC0E889F9898B
:10341000808185FF15C09FB7F894EE89FF8960838E
:10342000E889F98980818370806480839FBF81E00F
:1034300090E0DF91CF911F910F91FF90EF90089551
:10344000F62E0B8D10E00F5F1F4F0F731127E02E2C
:103450008C8D8E110CC00FB607FCFACFE889F98964
:10346000808185FFF5CFCE010E94B719F1CFEB8D9A
:10347000EC0FFD2FF11DE35AFF4FF0829FB7F89438
:103480000B8FEA89FB8980818062CFCFCF92DF9258
:10349000EF92FF921F93CF93DF93EC016A017B01C0
:1034A000122FE889F98982E08083C11481EED80661
:1034B000E104F104A1F060E079E08DE390E0A70180
:1034C00096010E943E242150310941095109569527
:1034D000479537952795211580E1380798F0E889B9
:1034E000F989108260E874E88EE190E0A701960106
:1034F0000E943E24215031094109510956954795B2
:1035000037952795EC85FD853083EE85FF852083F3
:10351000188EEC89FD891083EA89FB89808180619E
:103520008083EA89FB89808188608083EA89FB89BE
:10353000808180688083EA89FB8980818F7D808398
:10354000DF91CF911F91FF90EF90DF90CF90089582
:10355000CF93DF93EC01E881F9810680F781E02DBC
:103560001995EA89FB8980818F7E8083EA89FB89AE
:103570008081877F8083EA89FB8980818F77808340
:10358000EA89FB8980818F7D80838A8D898FDF9195
:10359000CF9108951F920F920FB60F9211240BB680
:1035A0000F922F938F939F93EF93FF93E091DE0DF4
:1035B000F091DF0D8081E091E40DF091E50D82FD49
:1035C0001DC090818091E70D8F5F8F732091E80D72
:1035D000821741F0E091E70DF0E0E253F24F958F52
:1035E0008093E70DFF91EF919F918F912F910F9015
:1035F0000BBE0F900FBE0F901F9018958081F2CFD9
:103600001F920F920FB60F9211240BB60F922F93A9
:103610003F934F935F936F937F938F939F93AF935A
:10362000BF93EF93FF938EEC9DE00E94B719FF913B
:10363000EF91BF91AF919F918F917F916F915F912A
:103640004F913F912F910F900BBE0F900FBE0F9097
:103650001F9018958EEC9DE00E94451921E0892B62
:1036600009F420E0822F0895EEECFDE0138212822F
:1036700088EE93E0A0E0B0E084839583A683B783CF
:1036800082EF94E09183808385EC90E09587848736
:1036900084EC90E09787868780EC90E0918B808B1C
:1036A00081EC90E0938B828B82EC90E0958B848B05
:1036B00086EC90E0978B868B118E128E138E148E73
:1036C00008951F920F920FB60F9211240BB60F920E
:1036D0002F938F939F93EF93FF93E0917B0EF09145
:1036E0007C0E8081E091810EF091820E82FD1DC0E2
:1036F00090818091840E8F5F8F732091850E821749
:1037000041F0E091840EF0E0E559F14F958F809300
:10371000840EFF91EF919F918F912F910F900BBE8F
:103720000F900FBE0F901F9018958081F2CF1F92BF
:103730000F920FB60F9211240BB60F922F933F9357
:103740004F935F936F937F938F939F93AF93BF93A9
:10375000EF93FF938BE69EE00E94B719FF91EF91E4
:10376000BF91AF919F918F917F916F915F914F9199
:103770003F912F910F900BBE0F900FBE0F901F9097
:1037800018958BE69EE00E94451921E0892B09F4EB
:1037900020E0822F0895EBE6FEE01382128288EE8D
:1037A00093E0A0E0B0E084839583A683B78382EFA3
:1037B00094E09183808385E391E09587848784E317
:1037C00091E09787868780E391E0918B808B81E3FE
:1037D00091E0938B828B82E391E0958B848B86E3DF
:1037E00091E0978B868B118E128E138E148E089516
:1037F000AF92BF92CF92DF92EF92FF920F931F93FF
:10380000CF93DF936C017B018B01040F151FEB013C
:103810005E01AE18BF08C017D10759F06991D601F3
:10382000ED91FC910190F081E02DC6011995892B55
:1038300079F7C501DF91CF911F910F91FF90EF9024
:10384000DF90CF90BF90AF900895FB0101900020D2
:10385000E9F73197AF01461B570BDC01ED91FC9165
:103860000280F381E02D1994DB0114964D915C9157
:1038700015976D917C91DC01ED91FC910280F381B3
:10388000E02D19946115710511F00C94251C90E040
:1038900080E00895DC01ED91FC910190F081E02D34
:1038A000199460E075E00C94251C0F931F93CF933F
:1038B000DF93EC010E94341C8C01CE010E94511C4C
:1038C000800F911FDF91CF911F910F9108950F935A
:1038D0001F93CF93DF938C01D0E0C0E06115710599
:1038E00019F00E94251CEC01C8010E94511C8C0F8C
:1038F0009D1FDF91CF911F910F9108958F929F92FD
:10390000AF92BF92EF92FF920F931F93CF93DF93EB
:10391000CDB7DEB7A1970FB6F894DEBF0FBECDBF0F
:103920007C01FA01CB0119A2223008F42AE08E01B1
:103930000F5D1F4F822E912CB12CA12CBF01A50130
:1039400094010E943E24F901CA016A300CF5605DC1
:10395000D8016E938D01232B242B252B79F790E032
:1039600080E0109721F0BD01C7010E94251CA1969F
:103970000FB6F894DEBF0FBECDBFDF91CF911F9180
:103980000F91FF90EF90BF90AF909F908F90089510
:10399000695CDECFCF92DF92EF92FF920F931F937D
:1039A000CF93DF932115310581F4DC01ED91FC917A
:1039B0000190F081E02D642FDF91CF911F910F9145
:1039C000FF90EF90DF90CF9019942A30310501F5E8
:1039D0002AE077FF1DC06A017B01EC016DE20E94C5
:1039E0004A1C8C0144275527BA014C195D096E0900
:1039F0007F092AE0CE010E947E1C800F911FDF917B
:103A0000CF911F910F91FF90EF90DF90CF9008958D
:103A1000DF91CF911F910F91FF90EF90DF90CF90AA
:103A20000C947E1C9A01AB01770F660B770B0C94FC
:103A3000CA1C0F931F93CF93DF93EC010E94121DBA
:103A40008C01CE010E94511C800F911FDF91CF91FC
:103A50001F910F9108952115310541F4DC01ED917D
:103A6000FC910190F081E02D642F19940C947E1C40
:103A70009A01AB0170E060E00C942B1D2F923F92F5
:103A80004F925F926F927F928F929F92AF92BF926E
:103A9000CF92DF92EF92FF921F93CF93DF93EC01CF
:103AA0006A017B01722EAB019601CB01B6010E9427
:103AB000DF2763E075E0811126C046015701E894D5
:103AC000B7F82FEF3FEF4FE75FE7C501B4010E9462
:103AD000DF2781110CC02FEF3FEF4FE75FE7C501F4
:103AE000B4010E94292567E075E0181664F02FEFF5
:103AF0003FEF4FE75FE4C701B6010E941327181696
:103B0000B4F46BE075E0CE01DF91CF911F91FF908F
:103B1000EF90DF90CF90BF90AF909F908F907F906D
:103B20006F905F904F903F902F900C94251C2FEF3B
:103B30003FEF4FE75FECC701B6010E94292587FDE3
:103B4000E0CF20E030E0A901C701B6010E9429259D
:103B5000312C212C87FF09C06DE2CE010E944A1C46
:103B60001C01F7FAF094F7F8F09410E060E070E0D0
:103B700080E09FE3711641F020E030E040E251E444
:103B80000E9433251F5FF6CFA70196010E948E2465
:103B90002B013C010E94AC254B015C012AE0BC01D9
:103BA000A401CE010E947E1C7C01E20CF31C1123B7
:103BB000B1F1C501B4010E94DB259B01AC01C30139
:103BC000B2010E948D244B015C016EE2CE010E9485
:103BD0004A1CE80EF91E115010F120E030E040E2DE
:103BE00051E4C501B4010E9420272B013C010E9431
:103BF000AC254B014AE050E0CE010E94381DE80E92
:103C0000F91EB40190E080E00E94DB259B01AC012D
:103C1000C301B2010E948D244B015C01DCCFC701BE
:103C2000DF91CF911F91FF90EF90DF90CF90BF90E9
:103C3000AF909F908F907F906F905F904F903F904C
:103C40002F9008950C943E1D0F931F93CF93DF93F5
:103C5000EC010E943E1D8C01CE010E94511C800F80
:103C6000911FDF91CF911F910F9108950895883092
:103C700008F076C0E82FF0E0EE0FFF1FE85DFD4F83
:103C8000718360838150873008F03DC0E82FF0E0F9
:103C90008827E25BF14E8F4F0C9460248B1E551EDB
:103CA0005D1E691E761E971EA41E809169008C7F82
:103CB000482B40936900E89A089580916900837FBA
:103CC000440F551F440F551F482B40936900E99A34
:103CD0000895809169008F7C74E0440F551F7A9598
:103CE000E1F7482B40936900EA9A089580916900B2
:103CF0008F7366E0440F551F6A95E1F7482B409398
:103D00006900EB9A089580916A008C7F482B40935C
:103D10006A00EC9A089580916A00837F440F551FD2
:103D2000440F551F482B40936A00ED9A08958091E7
:103D30006A008F7C24E0440F551F2A95E1F7482B39
:103D400040936A00EE9A089580916A008F7396E01E
:103D5000440F551F9A95E1F7482B40936A00EF9A5C
:103D600008951F920F920FB60F9211240BB60F9267
:103D70002F933F934F935F936F937F938F939F9373
:103D8000AF93BF93EF93FF93E0912C02F0912D023C
:103D90001995FF91EF91BF91AF919F918F917F9175
:103DA0006F915F914F913F912F910F900BBE0F90AC
:103DB0000FBE0F901F9018951F920F920FB60F9283
:103DC00011240BB60F922F933F934F935F936F93F2
:103DD0007F938F939F93AF93BF93EF93FF93E09164
:103DE0002E02F0912F021995FF91EF91BF91AF91A3
:103DF0009F918F917F916F915F914F913F912F9103
:103E00000F900BBE0F900FBE0F901F9018951F9232
:103E10000F920FB60F9211240BB60F922F933F9370
:103E20004F935F936F937F938F939F93AF93BF93C2
:103E3000EF93FF93E0913002F09131021995FF91D9
:103E4000EF91BF91AF919F918F917F916F915F9112
:103E50004F913F912F910F900BBE0F900FBE0F907F
:103E60001F9018951F920F920FB60F9211240BB648
:103E70000F922F933F934F935F936F937F938F9303
:103E80009F93AF93BF93EF93FF93E0913202F09132
:103E900033021995FF91EF91BF91AF919F918F914F
:103EA0007F916F915F914F913F912F910F900BBE3A
:103EB0000F900FBE0F901F9018951F920F920FB684
:103EC0000F9211240BB60F922F933F934F935F9352
:103ED0006F937F938F939F93AF93BF93EF93FF93D2
:103EE000E0912802F09129021995FF91EF91BF917D
:103EF000AF919F918F917F916F915F914F913F9182
:103F00002F910F900BBE0F900FBE0F901F90189522
:103F10001F920F920FB60F9211240BB60F922F9390
:103F20003F934F935F936F937F938F939F93AF9341
:103F3000BF93EF93FF93E0912A02F0912B02199522
:103F4000FF91EF91BF91AF919F918F917F916F9171
:103F50005F914F913F912F910F900BBE0F900FBE2D
:103F60000F901F9018951F920F920FB60F92112469
:103F70000BB60F922F933F934F935F936F937F9363
:103F80008F939F93AF93BF93EF93FF93E09134028E
:103F9000F09135021995FF91EF91BF91AF919F91EB
:103FA0008F917F916F915F914F913F912F910F90E2
:103FB0000BBE0F900FBE0F901F9018951F920F927F
:103FC0000FB60F9211240BB60F922F933F934F937E
:103FD0005F936F937F938F939F93AF93BF93EF9371
:103FE000FF93E0913602F09137021995FF91EF911E
:103FF000BF91AF919F918F917F916F915F914F9101
:104000003F912F910F900BBE0F900FBE0F901F90FE
:104010001895FC01808191810C94C728CF93DF9380
:10402000EC0188819981009711F00E94C7281982BC
:1040300018821D821C821B821A82DF91CF91089503
:104040000F931F93CF93DF93EC018B016F5F7F4F33
:10405000888199810E945029009751F09983888323
:104060001B830A8381E0DF91CF911F910F91089507
:1040700080E0F9CFCF93DF93EC0188819981892B80
:1040800049F08A819B818617970720F081E0DF91B4
:10409000CF910895CE010E9420208823C1F38C8106
:1040A0009D81892B99F7E881F9811082EFCFEF92FA
:1040B000FF920F931F93CF93DF93EC017B018A0153
:1040C000BA010E943A2081110BC0CE010E940E203D
:1040D000CE01DF91CF911F910F91FF90EF90089546
:1040E0001D830C83B701888199810E943A2AF0CF01
:1040F000FC011182108213821282158214826115D2
:10410000710551F0FB0101900020E9F73197AF01F3
:10411000461B570B0C9457200895FB01019000207B
:10412000E9F73197AF01461B570B0C9457200F93BB
:104130001F93CF93DF93CDB7DEB762970FB6F89496
:10414000DEBF0FBECDBF8C01CB01F8011182108202
:10415000138212821582148250E0BE016F5F7F4F7E
:104160000E94412ABE016F5F7F4FC8010E948D20CF
:1041700062960FB6F894DEBF0FBECDBFDF91CF9130
:104180001F910F910895CF93DF93EC016115710595
:1041900031F00E948D20CE01DF91CF9108950E94D1
:1041A0000E20F9CFEF92FF920F931F93CF93DF93DF
:1041B000CDB7DEB7A1970FB6F894DEBF0FBECDBF67
:1041C0007C01CB01BA01F7011182108213821282A5
:1041D0001582148242E0420F8E010F5F1F4F0E9432
:1041E0000D28BC01C7010E94C320A1960FB6F89408
:1041F000DEBF0FBECDBFDF91CF911F910F91FF901A
:10420000EF900895EF92FF920F931F93CF93DF9358
:104210006115710541F480E0DF91CF911F910F91FD
:10422000FF90EF90089541155105B1F07B01EC012D
:104230000C811D81040F151FB8010E943A208823AC
:1042400051F3288139818C819D81B701820F931FA1
:104250000E943A2A1D830C8381E0DECFCF93DF9347
:10426000EC01FB0144815581608171810E94022132
:10427000811103C0CE010E940E20CE01DF91CF91AB
:104280000895CF93DF93EC016115710539F4CE01E8
:104290000E940E20CE01DF91CF910895FB01019085
:1042A0000020E9F73197AF01461B570B0E9402210E
:1042B000882369F3EFCF08950E941F220E945B219B
:1042C0000E942F0FC2E8D9E10E94E50F2097E1F389
:1042D0000E948219F9CF1F920F920FB60F921124EC
:1042E0002F933F938F939F93AF93BF938091090F29
:1042F00090910A0FA0910B0FB0910C0F3091080F05
:1043000023E0230F2D3758F50196A11DB11D2093F1
:10431000080F8093090F90930A0FA0930B0FB0938F
:104320000C0F80910D0F90910E0FA0910F0FB09177
:10433000100F0196A11DB11D80930D0F90930E0FCC
:10434000A0930F0FB093100FBF91AF919F918F91DA
:104350003F912F910F900FBE0F901F90189526E858
:10436000230F0296A11DB11DD2CF2FB7F8946091F3
:10437000090F70910A0F80910B0F90910C0F2FBFB6
:1043800008953FB7F89480910D0F90910E0FA09172
:104390000F0FB091100F26B5A89B05C02F3F19F045
:1043A0000196A11DB11D3FBFBA2FA92F982F8827B5
:1043B000BC01CD01620F711D811D911D42E0660F90
:1043C000771F881F991F4A95D1F708958F929F9262
:1043D000AF92BF92CF92DF92EF92FF926B017C017E
:1043E0000E94C1214B015C01C114D104E104F1041C
:1043F000E9F00E9429240E94C121681979098A09DB
:104400009B09683E73408105910570F321E0C21A53
:10441000D108E108F10888EE880E83E0981EA11CFF
:10442000B11CC114D104E104F10429F7FF90EF900D
:10443000DF90CF90BF90AF909F908F900895789429
:1044400084B5826084BD84B5816084BD85B5826099
:1044500085BD85B5816085BDEEE6F0E08081816037
:104460008083E1E8F0E01082808182608083808137
:1044700081608083E0E8F0E0808181608083E1EB0F
:10448000F0E0808184608083E0EBF0E080818160F7
:104490008083E1E9F0E080818260808380818160B7
:1044A0008083E0E9F0E0808181608083E1EAF0E0F0
:1044B000808182608083808181608083E0EAF0E097
:1044C000808181608083E1E2F1E08081826080838D
:1044D000808181608083E0E2F1E08081816080837F
:1044E000EAE7F0E08081846080838081826080835D
:1044F0008081816080838081806880831092C10088
:1045000008951F93CF93DF93182FEB0161E00E9472
:10451000BF23209739F460E0812FDF91CF911F9165
:104520000C94FB23CF3FD10511F461E0F5CFE12FCF
:10453000F0E0E65AFC4FE491E150E23108F0B3C0FC
:10454000F0E08827E955FD4D8F4F0C946024B92287
:10455000C122C622D022DA225323E422EC22F42202
:10456000FE220823122321232B23532335233F2309
:10457000492384B5806884BDC7BDDF91CF911F9169
:10458000089584B5806284BDC8BDF7CF8091800056
:10459000806880938000D0938900C0938800EDCF1D
:1045A00080918000806280938000D0938B00C093C4
:1045B0008A00E3CF80918000886080938000D09350
:1045C0008D00C0938C00D9CF8091B000806880931B
:1045D000B000C093B300D1CF8091B00080628093CF
:1045E000B000C093B400C9CF8091900080688093E0
:1045F0009000D0939900C0939800BFCF8091900015
:10460000806280939000D0939B00C0939A00B5CFB6
:1046100080919000886080939000D0939D00C0931B
:104620009C00ABCF8091A00080688093A000809117
:10463000A0008F7B8093A000D093A900C093A80016
:104640009CCF8091A00080628093A000D093AB00AB
:10465000C093AA0092CF8091A00088608093A000B0
:10466000D093AD00C093AC0088CF809120018068CA
:1046700080932001D0932901C09328017ECF80919F
:104680002001806280932001D0932B01C0932A01E6
:1046900074CF80912001886080932001D0932D01F8
:1046A000C0932C016ACFC038D1050CF03ECF33CF78
:1046B0008150823108F05AC0E82FF0E08827EC5989
:1046C000FC4D8F4F0C9460248423882376237C2315
:1046D0008023B6238B23912395239B239F23A323FE
:1046E000A923AD23B623B123B723BB238091800038
:1046F0008F77809380000895809180008F7DF9CF1F
:1047000080918000877FF5CF84B58F7784BD089531
:1047100084B58F7DFBCF8091B0008F778093B00000
:1047200008958091B0008F7DF9CF809190008F77B0
:10473000809390000895809190008F7DF9CF8091B3
:104740009000877FF5CF8091A0008F778093A000A5
:1047500008958091A0008F7DF9CF8091A000877F80
:10476000F5CF809120018F7780932001089580916B
:1047700020018F7DF9CF80912001877FF5CFCF93E6
:10478000DF9390E0FC01E056FC4F24918A519C4F4E
:10479000FC0184918823C9F090E0880F991FFC01E7
:1047A000EA5BFB4FA591B491FC01E45DFB4FC59121
:1047B000D49161110DC09FB7F8948C9120958223FC
:1047C0008C938881282328839FBFDF91CF91089500
:1047D000623051F49FB7F8943C91822F80958323E7
:1047E0008C93E8812E2BEFCF8FB7F894EC912E2B82
:1047F0002C938FBFEACF1F93CF93DF93282F30E006
:10480000F901E65AFC4F8491F901E056FC4FD4912E
:10481000F901EA51FC4FC491CC23A9F0162F811164
:104820000E945823EC2FF0E0EE0FFF1FE45DFB4FDA
:10483000A591B4918FB7F894EC91111108C0D0955F
:10484000DE23DC938FBFDF91CF911F910895DE2B84
:10485000F8CF089597FB072E16F4009407D077FD44
:1048600009D00E94682407FC05D03EF490958195FC
:104870009F4F0895709561957F4F0895A1E21A2E7C
:10488000AA1BBB1BFD010DC0AA1FBB1FEE1FFF1FF4
:10489000A217B307E407F50720F0A21BB30BE40B44
:1048A000F50B661F771F881F991F1A9469F760958B
:1048B0007095809590959B01AC01BD01CF01089545
:1048C000EE0FFF1F881F8BBF0790F691E02D199404
:1048D000AA1BBB1B51E107C0AA1FBB1FA617B70726
:1048E00010F0A61BB70B881F991F5A95A9F7809542
:1048F0009095BC01CD0108959F939F770E94182643
:104900000F90002042F49058A2EA2AED3FE049E4DB
:1049100050E40E94A5240C94C5265058BB27AA2712
:104920000E94A5240C94C5260E948C2638F00E9473
:10493000932620F039F49F3F19F426F40C94622654
:104940000EF4E095E7FB0C945C26E92F0E94EA2622
:1049500058F3BA17620773078407950720F079F4B4
:10496000A6F50C940C270EF4E0950B2EBA2FA02D73
:104970000B01B90190010C01CA01A0011124FF270C
:10498000591B99F0593F50F4503E68F11A16F04007
:10499000A22F232F342F4427585FF3CF4695379506
:1049A0002795A795F0405395C9F77EF41F16BA0BCB
:1049B000620B730B840BBAF09150A1F0FF0FBB1F79
:1049C000661F771F881FC2F70EC0BA0F621F731FC2
:1049D000841F48F4879577956795B795F7959E3F1F
:1049E00008F0B0CF9395880F08F09927EE0F9795B0
:1049F00087950895DF93DD27B92FBF7740E85FE300
:104A00001616170648075B0718F4D92F0E941827B7
:104A10009F938F937F936F930E94DB27E4EEF0E0E8
:104A20000E9465260E94C5262F913F914F915F916C
:104A30000E943327DD2351F09058A2EA2AED3FE08F
:104A400049EC5FE3D0785D270E94A524DF910C94A8
:104A5000C5260E94382608F481E008950E949C260D
:104A6000E3950C94D6260E9447250C94C5260E94F7
:104A7000932658F00E948C2640F029F45F3F29F0DD
:104A80000C945C2651110C940D270C9462260E9404
:104A9000EA2668F39923B1F3552391F3951B550B3F
:104AA000BB27AA2762177307840738F09F5F5F4F01
:104AB000220F331F441FAA1FA9F335D00E2E3AF040
:104AC000E0E832D091505040E695001CCAF72BD058
:104AD000FE2F29D0660F771F881FBB1F26173707A9
:104AE0004807AB07B0E809F0BB0B802DBF01FF27DB
:104AF00093585F4F3AF09E3F510578F00C945C2636
:104B00000C940D275F3FE4F3983ED4F38695779598
:104B10006795B795F7959F5FC9F7880F911D969593
:104B2000879597F90895E1E0660F771F881FBB1FEF
:104B3000621773078407BA0720F0621B730B840B9C
:104B4000BA0BEE1F88F7E09508950E94AC25689493
:104B5000B1110C940D2708950E94F22688F09F57FA
:104B600098F0B92F9927B751B0F0E1F0660F771F91
:104B7000881F991F1AF0BA95C9F714C0B13091F087
:104B80000E940C27B1E008950C940C27672F782F12
:104B90008827B85F39F0B93FCCF38695779567954C
:104BA000B395D9F73EF490958095709561957F4FB8
:104BB0008F4F9F4F0895E89409C097FB3EF490955E
:104BC0008095709561957F4F8F4F9F4F9923A9F0E6
:104BD000F92F96E9BB279395F69587957795679575
:104BE000B795F111F8CFFAF4BB0F11F460FF1BC0B9
:104BF0006F5F7F4F8F4F9F4F16C0882311F096E94C
:104C000011C0772321F09EE8872F762F05C06623F9
:104C100071F096E8862F70E060E02AF09A95660FB2
:104C2000771F881FDAF7880F9695879597F908956B
:104C3000DF93CF931F930F938B01EC01E1E1F1E040
:104C40000E9465260E94C5269801AE018B01EC01E9
:104C500060E070E080E89FE30E948D240E949B2723
:104C60009801AE010F911F91CF91DF910C943327E2
:104C7000990F0008550FAA0BE0E8FEEF161617066D
:104C8000E807F907C0F012161306E407F50798F0D5
:104C9000621B730B840B950B39F40A2661F0232BEE
:104CA000242B252B21F408950A2609F4A140A6956A
:104CB0008FEF811D811D089597F99F6780E870E04F
:104CC00060E008959FEF80EC0895DF93CF931F93EA
:104CD0000F93FF92EF92DF927B018C01689406C0E4
:104CE000DA2EEF010E943327FE01E894A591259169
:104CF000359145915591A6F3EF010E94A524FE013F
:104D00009701A801DA9469F7DF90EF90FF900F9177
:104D10001F91CF91DF91089500240A94161617066B
:104D200018060906089500240A941216130614069C
:104D3000050608950C9462260E94F226D8F3E894A2
:104D4000E0E0BB279F57F0F02AED3FE049EC06C0BA
:104D5000EE0FBB0F661F771F881F28F0B23A62075D
:104D60007307840728F0B25A620B730B840BE39528
:104D70009A9572F7803830F49A95BB0F661F771FAB
:104D8000881FD2F790480C94E627092E0394000C54
:104D900011F4882352F0BB0F40F4BF2B11F460FFD5
:104DA00004C06F5F7F4F8F4F9F4F0895EF93E0FFD9
:104DB00007C0A2EA2AED3FE049EC5FEB0E94A52480
:104DC0000E94C5260F90039401FC9058E9E3F1E09E
:104DD0000C94F92757FD9058440F551F59F05F3F29
:104DE00071F04795880F97FB991F61F09F3F79F00D
:104DF00087950895121613061406551FF2CF46958F
:104E0000F1DF08C0161617061806991FF1CF869510
:104E10007105610508940895E894BB2766277727F4
:104E2000CB0197F908950E94382608F48FEF089572
:104E30009B01AC0160E070E080E89FE30C943325B7
:104E40000E9433270C94C5260E948C2638F00E94BD
:104E5000932620F0952311F00C945C260C94622686
:104E600011240C940D270E94EA2670F3959FC1F33C
:104E7000950F50E0551F629FF001729FBB27F00D08
:104E8000B11D639FAA27F00DB11DAA1F649F66275D
:104E9000B00DA11D661F829F2227B00DA11D621FAC
:104EA000739FB00DA11D621F839FA00D611D221F66
:104EB000749F3327A00D611D231F849F600D211D4A
:104EC000822F762F6A2F11249F5750409AF0F1F0CD
:104ED00088234AF0EE0FFF1FBB1F661F771F881F36
:104EE00091505040A9F79E3F510580F00C945C26EC
:104EF0000C940D275F3FE4F3983ED4F386957795A5
:104F00006795B795F795E7959F5FC1F7FE2B880FDB
:104F1000911D9695879597F908959F930E949C26D9
:104F20000F9007FCEE5F0C94D62619F416F40C943F
:104F300062260C94E4270E94F226B8F39923C9F361
:104F4000B6F39F57550B87FF0E94F2270024A0E677
:104F500040EA900180585695979528F4805C660F3A
:104F6000771F881F20F026173707480730F4621B89
:104F7000730B840B202931294A2BA695179407948B
:104F8000202531254A2758F7660F771F881F20F004
:104F900026173707480730F4620B730B840B200D7C
:104FA000311D411DA09581F7B901842F9158880FBB
:104FB0009695879508959B01AC010C9420270E943B
:104FC0003826880B990B08959F3F31F0915020F4BB
:104FD000879577956795B795880F911D96958795D5
:104FE00097F9089591505040660F771F881FD2F7A8
:104FF00008959F938F937F936F93FF93EF939B01FC
:10500000AC010E942027EF91FF910E9465262F910D
:105010003F914F915F910C942027EF920F931F9334
:10502000CF93DF93E80134E047FD34E1042E000C18
:10503000550B57FF03C0519541955109E32E022F9F
:10504000242FAE010E94712ACE01DF91CF911F91D2
:105050000F91EF9008950F931F93CF93DF938230BA
:10506000910510F482E090E0E091130FF091140F9D
:1050700030E020E0B0E0A0E0309799F42115310550
:1050800009F44AC0281B390B24303105D8F58A8130
:105090009B816115710589F1FB0193838283FE0178
:1050A00011C0408151810281138148175907E0F0F6
:1050B0004817590799F4109761F012960C931297BC
:1050C00013961C933296CF01DF91CF911F910F91D0
:1050D00008950093130F1093140FF4CF2115310589
:1050E00051F04217530738F0A901DB019A01BD01C5
:1050F000DF01F801C1CFEF01F9CF9093140F809336
:10510000130FCDCFFE01E20FF31F81939193225035
:10511000310939832883D7CF2091110F3091120F95
:10512000232B41F420910202309103023093120F9D
:105130002093110F209100023091010221153105B9
:1051400041F42DB73EB74091040250910502241B53
:10515000350BE091110FF091120FE217F307A0F455
:105160002E1B3F0B2817390778F0AC014E5F5F4FBD
:105170002417350748F04E0F5F1F5093120F4093CE
:10518000110F819391939FCFF0E0E0E09CCFCF93FC
:10519000DF930097E9F0FC01329713821282A0910D
:1051A000130FB091140FED0130E020E01097A1F43F
:1051B00020813181820F931F2091110F3091120FA6
:1051C0002817390709F061C0F093120FE093110F0F
:1051D000DF91CF910895EA01CE17DF07E8F54A8104
:1051E0005B819E0141155105B1F7E901FB83EA831B
:1051F00049915991C40FD51FEC17FD0761F48081C7
:1052000091810296840F951FE90199838883828199
:1052100093819B838A83F0E0E0E012968D919C91CC
:1052200013970097B9F52D913C911197CD010296F6
:10523000820F931F2091110F3091120F28173907F9
:1052400039F6309751F51092140F1092130FB09356
:10525000120FA093110FBCCFD383C2834081518121
:10526000840F951FC817D90761F44E5F5F4F88817F
:105270009981480F591F518340838A819B81938371
:1052800082832115310509F0B0CFF093140FE0931C
:10529000130F9ECFFD01DC01C0CF13821282D7CF46
:1052A0004F925F926F927F928F929F92AF92BF9236
:1052B000CF92DF92EF92FF920F931F93CF93DF93E2
:1052C0008C01009799F4CB01DF91CF911F910F9141
:1052D000FF90EF90DF90CF90BF90AF909F908F9016
:1052E0007F906F905F904F900C942B28FC01E60FFD
:1052F000F71F9C0122503109E217F30708F4AEC0F2
:10530000D901CD91DC911197C617D70720F1C5308F
:10531000D10578F0CE0104978617970750F0C61B89
:10532000D70B2297C193D1936D937C93CF010E94A9
:10533000C728C801DF91CF911F910F91FF90EF9087
:10534000DF90CF90BF90AF909F908F907F906F90A5
:105350005F904F9008955B01AC1ABD0A4C018C0E12
:105360009D1EA091130FB091140F512C412CF12CC4
:10537000E12C109731F58091110F9091120F881543
:10538000990509F05CC04616570608F058C0809190
:10539000000290910102009741F48DB79EB74091B1
:1053A000040250910502841B950BE817F90708F0D9
:1053B00055C0F093120FE093110FF90171836083D0
:1053C000B8CF8D919C91119712966C90129713966D
:1053D0007C901397A815B90559F56C0142E0C40EED
:1053E000D11CCA14DB0420F1AC014A195B09DA01B3
:1053F0001296159780F06282738251834083D9019F
:105400006D937C93E114F10471F0D7011396FC9332
:10541000EE9312978ECF22968C0F9D1FF9019183E8
:105420008083F301EFCFF093140FE093130F81CF3C
:105430004816590608F42C017D01D3019ACFCB01FF
:105440000E942B287C01009749F0AE01B8010E9410
:10545000312AC8010E94C72887016BCF10E000E005
:1054600068CFFB01DC0102C001900D924150504019
:10547000D8F70895FB01DC0101900D920020E1F7BF
:1054800008954532510520F4423010F00C944C2A16
:10549000FB011082CB010895BB274A3031F49923D8
:1054A00022F4BDE2909581959F4F0C94582ABB271A
:1054B000FB015527AA27880F991FAA1FA41710F0D0
:1054C000A41B83955051B9F7A05DAA3308F0A95DDC
:1054D000A193009779F7B111B1931192CB010C947C
:1054E000C22C8F929F92AF92BF92CF92DF92EF9297
:1054F000FF920F931F93CF93DF9300D000D000D083
:10550000CDB7DEB76A01F22EB02E102FFBE3AF2E1F
:10551000A01608F41BE31F5F012F27E0AE014F5FC9
:105520005F4F0E94EA2BBC018981982F99709130BE
:1055300009F44EC09BE2E1FC04C09E2D9170E0FC9A
:1055400049C05E2D5071E82FE87083FF55C084E09C
:10555000911101C083E0EF2DE81B8F1508F0E0E00A
:10556000D6018E2F20E25523C9F1992329F0D601C7
:105570009C93C60101966C0196012D5F3F4FE2FEA0
:1055800033C08EE4D6018C9391E411969C931197CD
:1055900012968C93D9018E2F90E281112AC0E20FCE
:1055A000F32FF11D10828EEF9FEF29960FB6F8941E
:1055B000DEBF0FBECDBFDF91CF911F910F91FF9046
:1055C000EF90DF90CF90BF90AF909F908F90089515
:1055D0009DE2B7CF90E2B5CF2D9381508111FCCFE2
:1055E000CE0ED11CE0E0C1CF8EE6D6018C9391E6C1
:1055F000CCCF9D938150D1CF482F447082FF3DC0C6
:1056000084E0911101C083E08F1510F4EF2DE81BA9
:10561000D6018E2F20E2552309F1992329F0D601D6
:105620009C93C60101966C0196012D5F3F4FE2FEEF
:105630001BC089E4D6018C938EE411968C9311974C
:1056400086E412968C93D9018E2F90E2882309F478
:10565000A6CF9D938150FACF2D9381508111FCCF1D
:10566000CE0ED11CE0E0D9CF89E6D6018C938EE630
:1056700011968C93119786E6E4CF9B0177FF02C0C9
:1056800030E020E0A1E0B0E0911102C0B0E0A0E085
:10569000F9013196AE0FBF1F8B2C912CBB2009F462
:1056A00061C05401EFEFAE1ABE0AAA0DBB1DFA1677
:1056B0001B0619F014F04F2D4A1B511188C0E3FC52
:1056C00059C07601A42FB0E2A1114FC0C40ED11C65
:1056D000992309F45BC040E0D6011196F60190834E
:1056E0006D01552309F448C0012F060F9A81582FE8
:1056F000507184FF03C0913309F4015010160CF06F
:1057000047C0093008F008E0EEE2FE2E5B01A01A67
:10571000B10885019194819491082F3F320729F4B3
:10572000D601FC92F60131966F016217730794F16E
:10573000021713077CF5DB01A21BB30BAA24A39469
:10574000B12CAC0EBD1EAA0DBB1D11968C91215023
:105750003109D601119628153905F4F0F601808338
:105760006D01DBCFB12CA12CA0CFF701B1937F014C
:10577000A150AACF9111B0CFD601942F50E302C00F
:105780005D9391509111FCCFC40ED11C40E0ACCF81
:1057900001E0BACF80E3DBCF6217730731F49633B1
:1057A00088F4953311F4552369F0F6018083FD01E7
:1057B000842F90E2811108C0A40FB11D1C9290E0CB
:1057C00080E0F3CE81E3F1CF91938150F3CF91113B
:1057D00083CF8ACF283008F027E03327DA01990FEA
:1057E000311D87FD916000966105710539F43260C5
:1057F0002E5F3D9330E32A95E1F708959F3F30F007
:1058000080387105610509F03C5F3C5F3D93913044
:1058100008F08068911DDF93CF931F930F93FF9241
:10582000EF92192F987F9695E92F96959695E90F07
:10583000FF27E654FD4F99273327EE24FF24A701C5
:10584000E70105900894079428F4360FE71EF81E28
:10585000491F511D660F771F881F991F0694A1F7D6
:105860000590079428F4E70EF81E491F561FC11D26
:10587000770F881F991F661F0694A1F7059007945C
:1058800028F4F80E491F561FC71FD11D880F991FF6
:10589000661F771F0694A1F70590079420F4490F1F
:1058A000561FC71FD81F990F661F771F881F0694A2
:1058B000A9F784911095177041F0D695C795579523
:1058C0004795F794E7941A95C1F7E0E6F2E06894FB
:1058D0001590159135916591959105907FE273959D
:1058E000E118F10A430B560BC90BD009C0F7E10CC4
:1058F000F11E431F561FC91FD01D7EF4703311F4D3
:105900008A95E6CFE894015030F0080F0AF400279A
:10591000021708F4202F2395022F7A3328F079E319
:105920007D932A95E9F710C07D932A9589F6069410
:1059300097956795379517951794E118F10A430BDA
:10594000560BC90BD00998F023957E9173957A3345
:1059500008F070E37C932013B8F77E9170617D931B
:1059600030F0839571E37D9370E32A95E1F711247C
:10597000EF90FF900F911F91CF91DF91992787FDB5
:1059800090950895DC01FC01672F71917723E1F771
:10599000329704C07C916D9370836291AE17BF07FC
:1059A000C8F3089512E0C3E3D2E000E006C0802F00
:1059B000FE010E9460242196011DC433D10780E0BE
:0859C0000807A9F7F894FFCFD6
:1059C8000000150F8000FFFF0000803F00004842E4
:1059D80000002041000020410000F041FFFFCEFF01
:1059E8000000614300000743361E361E361E361E71
:1059F800361E361E361E361E44726F766520666F5A
:105A080072776172642120202020202044726F76F2
:105A18006520446973743A2000233D3D3D3D3D3D7A
:105A28003D3D3D3D3D3D3D3D3D3D3D3D3D3D3D3D9E
:105A38003D3D3D3D3D3D3D3D3D3D3D3D3D3D3D3D8E
:105A48003D3D3D3D3D3D3D3D005475726E656420D4
:105A58006F6E20506F696E74212020202020205402
:105A680075726E656420416E676C653A2000233D4F
:105A78003D3D3D3D3D3D3D3D3D3D3D3D2044726903
:105A8800766520436F6E74726F6C20506F696E7408
:105A980073203D3D3D3D3D3D3D3D3D3D3D3D00533C
:105AA80063686E69747470756E6B742020732E78D9
:105AB8003A20002020732E793A20004D69747465CD
:105AC80020547565722020642E783A2000202064C6
